:020000040800F2
:10000000300800200D4D000875060008770600082E
:100010007B0600087F060008830600080000000039
:10002000000000000000000000000000870600083B
:1000300089060008000000008B0600088D060008F5
:10004000274D0008274D0008274D0008274D0008C0
:10005000274D0008274D0008274D0008274D0008B0
:10006000274D0008274D0008274D0008274D0008A0
:10007000274D0008274D0008274D0008274D000890
:10008000274D0008274D0008274D0008274D000880
:10009000274D0008274D0008274D0008274D000870
:1000A000274D0008274D0008274D0008274D000860
:1000B0000F480008D5480008A3490008274D00084C
:1000C000274D0008274D0008274D0008274D000840
:1000D000274D00083944000843450008673B0008E5
:1000E000274D0008274D0008274D0008274D000820
:1000F000274D0008274D0008274D0008274D000810
:10010000274D0008274D00086F4A0008274D0008BA
:10011000274D0008274D0008EB0E00084F4B000844
:10012000274D0008274D0008274D0008274D0008DF
:10013000274D0008274D0008274D0008274D0008CF
:10014000274D0008274D0008274D0008274D0008BF
:10015000274D0008274D0008274D0008274D0008AF
:10016000274D0008274D0008274D0008274D00089F
:10017000274D0008274D0008274D0008274D00088F
:10018000274D0008274D000800F002F800F06FF836
:100190000AA090E8000C82448344AAF10107DA45E2
:1001A00001D100F064F8AFF2090EBAE80F0013F0C5
:1001B000010F18BFFB1A43F001031847F09100002C
:1001C000109200000A444FF0000C10F8013B13F0AD
:1001D000070408BF10F8014B1D1108BF10F8015BA0
:1001E000641E05D010F8016B641E01F8016BF9D193
:1001F00013F0080F1EBF10F8014BAD1C0C1B09D1EA
:100200006D1E58BF01F801CBFAD505E014F8016B5B
:1002100001F8016B6D1EF9D59142D6D370470000ED
:100220000023002400250026103A28BF78C1FBD8FF
:10023000520728BF30C148BF0B607047662907F0DE
:100240006984642906F0F482782906F02D83002061
:1002500070471FB507F059FC06F058FE0400002057
:10026000002107F0C5FBE0601FBD10B510BD06F012
:1002700069FF1146FFF7EDFF00F008F806F087FF71
:1002800003B4FFF7F2FF03BC04F072F808B54FF4B3
:10029000A06004F05BFDA82003F0E8FF4FF4E1301C
:1002A00004F074F802F0DDFE03F026F803F0D0F954
:1002B000532140F2F31004F0A5FC04F049FA04F0D5
:1002C000B5FA04F017FB04F07BFB42F2CF01962055
:1002D00004F0DCFB03F091FACDA006F09DFACFA06C
:1002E0004EF67D734FF4784201210090084602F0EB
:1002F0008AFB8BE1CB48007801280ED1CA48CB4954
:10030000096801600078CA49087008460178C9A0E8
:1003100006F082FA0020C3490870C54800782628F4
:1003200070D2DFE800F013191F252B31373D43470A
:10033000AEAEAEAEAEAE4B51575F67707880888977
:10034000AEAEAEAEAEAE8A8B959FA4A90020BD49DD
:10035000087003F01AFA95E00020BA49087003F01B
:1003600022FA8FE00020B749087003F038FA89E0DC
:100370000020B449087003F024FA83E00020B1495A
:10038000087003F056FA7DE00020AE49087003F0D3
:1003900042FA77E00020AB49087003F058FA71E0A8
:1003A0000020A849087003F060FA6BE00A2003F00F
:1003B00078FA67E00A2003F08EFA63E00020A14992
:1003C000087003F01AFA5DE000209E49087003F0FF
:1003D00014FA57E000F080FE03F014F90120994967
:1003E00008704FE000F078FE03F00CF90220954908
:1003F000087047E000F070FE03F004F90320914913
:1004000008703FE03DE000F067FE03F0FBF80420D9
:100410008C49087036E000F05FFE03F0F3F8052029
:10042000884908702EE000F057FE03F0EBF8062034
:100430008449087026E025E024E023E0824890ED1E
:10044000000AF2EE040A30EE200A80ED000A19E0FC
:100450007D4890ED000AF2EE040A30EE600A80ED6D
:10046000000A0FE03121794804F044FF0AE032210C
:10047000764804F03FFF05E03321744804F03AFF6A
:1004800000E000BF00BF642069490870704CA48977
:10049000A3B26F4C2489A2B26D4CA488A1B26C4C5B
:1004A0002488A0B203F031FA6A4800780E286ED290
:1004B000DFE800F007080E14213D4A535A626E79B6
:1004C000819DA2E001F038FB63A004F00AF89CE0F3
:1004D00001F085FB61A004F004F896E0604800F0AC
:1004E00023FE5F4800F036FE5D4800F049FE032021
:1004F0005449087089E001215A4800F0B4FE0121F6
:10050000584800F0DFFE0121564800F00AFF0121A3
:10051000544800F07BFF0121524800F0A6FF012162
:10052000504800F0D5FF0520464908706DE04D4861
:1005300000F0FDFF4B4801F010F84A4801F023F8A5
:1005400007204049087060E001F070FB642003F070
:10055000EFFE45A003F0C5FF57E0444800F026FE3B
:1005600008203849087050E04FF43970404948631A
:1005700009203449087048E001F0C8F801F022F978
:100580003A4800F027FE08202E4908703DE03BE085
:1005900001F0BCF801F06BF9344800F02FFE0820A0
:1005A0002849087031E001F0B1F801F093F90A2010
:1005B0002449087029E002212A4800F054FE022153
:1005C000284800F07FFE0221264800F0AAFE022102
:1005D000244800F01BFF0221224800F046FF0221C0
:1005E000204800F075FF0B20164908700DE01D48EB
:1005F00000F0DFFF1B4800F0F2FF1A4801F005F899
:100600000C201049087000E000BF00BF72E6000037
:10061000B3F5CABCBBAFCDEAB3C90A003132332B44
:1006200033323100010000200600002002000020CB
:1006300010000020CAD5B5BD7531D6B8C1EEA3BA39
:1006400025780000D0000020740000200044004005
:100650007001002014000020310000003200000072
:10066000970100209F010020330000009B01002023
:1006700000400140704700BFFEE700BFFEE700BF3B
:10068000FEE700BFFEE77047704770477047000005
:100690000CB50020019000907648006840F480304E
:1006A0007449086000BF7348006800F4003000908F
:1006B0000198401C0190009818B90198B0F5A04F1E
:1006C000F1D16C48006800F4003010B101200090B6
:1006D00001E0002000900098012846D16548403094
:1006E000006840F08050634940310860624800680B
:1006F00040F44040604908605E48083000685D4949
:10070000083108600846006840F400400860084668
:10071000006840F4A05008605848091F0860081F8E
:10072000006840F08070091F086000BF51480068F1
:1007300000F000700028F9D040F2057050490860C0
:100740004C480830006820F003004A49083108602E
:100750000846006840F00200086000BF45480830C5
:10076000006800F00C000828F8D10CBD10B5454811
:10077000006840F47000434908603E48006840F05B
:1007800001003C49086000203A49083108603948B6
:1007900000683D490840374908603C48091D086029
:1007A000081F006820F48020091F086000203149DC
:1007B0000C310860FFF76CFF4FF000603149803961
:1007C000086010BD70B50020002202230024022121
:1007D000284D08352D6805F00C0020B1042806D0FE
:1007E000082834D107E02A4D2A4E356033E02A4DDF
:1007F000284E35602FE01F4D2D1D2D68C5F3805408
:100800001C4D2D1D2D6805F03F0154B1224DB5FB47
:10081000F1F5184E361D3668C6F3881605FB06F24C
:1008200009E01B4DB5FBF1F5124E361D3668C6F3D7
:10083000881605FB06F20F4D2D1D2D68C5F30145E9
:100840006D1C6B00B2FBF3F5124E356003E0104DEA
:10085000104E356000BF00BF064D08352D68C5F34A
:1008600003150E4E705D0B4D2D68C540094E356069
:1008700070BD00000038024000700040085440077E
:10088000003C024088ED00E0FFFFF6FE103000243F
:100890000024F4001800002000127A001C00002040
:1008A00010B502F09FFDFE49088002F0D1FDFD4920
:1008B0000880FD48007850B902F091FF0120FB4903
:1008C00008700320FA4908700120F749087002F007
:1008D0000CFEF348008840F2E931884206D1F24824
:1008E0000078012802D10220EF490870EC48008806
:1008F00040F25641884206D1EB480078022802D1E6
:100900000320E9490870E648008840F2E93188424E
:1009100006D1E5480078032802D10420E249087096
:10092000DF48008840F25641884206D1DE48007810
:10093000042802D10520DC490870D948008840F21B
:10094000E931884212D1D848007805280ED1062016
:10095000D549087040F6B83002F0BDFF02F015FF2F
:100960000020D24908700120D1490870CC48008885
:10097000A0B9CD480078062810D10720CA490870D0
:1009800002F03BFF02F03EFE0420CA49087040F628
:10099000B83002F086FF0020C749087010BD10B5BE
:1009A00002F020FDBE49088002F052FDBD490880DA
:1009B000BD48007848B902F0E8FE0020BB49087045
:1009C0000120BB490870B849087002F08EFDB54897
:1009D000008840F2E931884206D1B3480078012806
:1009E00002D10220B0490870AE48008840F256415A
:1009F000884206D1AC480078022802D10320AA49D7
:100A00000870A848008840F2E931884206D1A6481B
:100A10000078032802D10420A3490870A148008867
:100A200040F25641884206D19F480078042802D1FE
:100A300005209D4908709B48008840F2E9318842B2
:100A40000ED19948007805280AD102F0BAFE01209B
:100A5000964908700420964908700620924908704B
:100A60008F48008840F2E931884206D18E480078EC
:100A7000062802D107208C4908708948008840F276
:100A80005641884206D188480078072802D10820BC
:100A9000854908708248008840F2E931884206D1D1
:100AA00081480078082802D109207F4908707C48D5
:100AB000008840F25641884206D17B4800780928D8
:100AC00002D10A20784908707548008840F2E9315F
:100AD00088420DD1744800780A2809D102F08DFEB1
:100AE00002F090FD0020744908700B206E490870D8
:100AF00010BD10B502F076FC6949088002F0A8FC30
:100B0000684908806848007850B902F04CFE00201F
:100B10006649087002206649087001206249087021
:100B200002F0E3FC5F48008840F2E93188420ED1D0
:100B30005D48007801280AD102F051FE01205B498E
:100B4000087003205A490870022057490870544819
:100B5000008840F2E931884206D1534800780228E3
:100B600002D10320504908704D48008840F2564198
:100B7000884206D14C480078032802D104204A4913
:100B800008704748008840F2E931884206D146485B
:100B90000078042802D105204349087040480088A5
:100BA00040F25641884206D13F480078052802D1DC
:100BB00006203D4908703A48008840F2E9318842F1
:100BC0000ED13948007806280AD102F0ECFD002049
:100BD00036490870022036490870072032490870EB
:100BE0003048008840F2E931884206D12E4800782A
:100BF000072802D108202C4908702A48008840F2B2
:100C00005641884206D128480078082802D1092098
:100C1000254908702348008840F2E931884206D10E
:100C200021480078092802D10A201F4908701D4870
:100C3000008840F25641884206D11B4800780A28B5
:100C400002D10B20184908701648008840F2E9319B
:100C5000884210D1144800780B280CD102F0CDFD49
:100C600002F0D0FC002014490870052011490870DA
:100C70000C200D49087010BD10B502F0B3FB0849F7
:100C8000088002F0E5FB0749088007480078C0B9F2
:100C900002F07BFD002005490870012004490DE0A9
:100CA000D4000020D6000020D100002068010020E0
:100CB0006901002014000020D00000200870FD49C8
:100CC000087002F012FC10BD10B502F08BFBFA495F
:100CD000088002F0BDFBF9490880F648007848B961
:100CE00002F053FD0020F64908700120F549087014
:100CF000F049087002F0F9FBF048008840F2E93151
:100D0000884206D1EB480078012802D10220E94947
:100D10000870EA48008840F25641884206D1E5480A
:100D20000078022802D10320E2490870E3480088D5
:100D300040F2E931884206D1DE480078032802D12A
:100D40000420DC490870DD48008840F256418842A2
:100D500006D1D8480078042802D10520D54908706A
:100D6000D648008840F2E931884206D1D14800785F
:100D7000052802D10620CF490870D048008840F2EB
:100D80005641884206D1CB480078062802D1072078
:100D9000C8490870C948008840F2E931884203D048
:100DA000C6480088092811D1C248007807280DD10B
:100DB0000820C04908701E2002F08DFD02F00FFDD2
:100DC0000120BF4908700320BE490870BB48008855
:100DD00098B9B848007808280FD10920B54908709B
:100DE00002F00BFD02F00EFC1E2002F05AFD022064
:100DF000B54908700020B549087010BD10B502F063
:100E0000F1FAAD49088002F023FBAC490880A948FB
:100E1000007808B902F0E3FCA748008840F2E93105
:100E200088420CD1A348007848B902F0AEFC0020FB
:100E3000A34908700120A34908709E49087002F078
:100E400054FB9E48008840F2E931884206D1994817
:100E50000078012802D1022096490870974800883E
:100E600040F25641884206D192480078022802D1C9
:100E70000320904908709148008840F2E931884287
:100E800006D18C480078032802D1042089490870D3
:100E90008A48008840F25641884209D18548007846
:100EA000042805D103208A4908700520814908706B
:100EB00087480078002808DD7E480078052804D19E
:100EC00083480078401E824908708148007858B9EC
:100ED00078480078052807D102F08FFC00207B4974
:100EE000087001207849087010BD10B501217948BB
:100EF00005F075F8002831D0744800780D2827D205
:100F0000DFE800F007080B0E1114171A1B1C1D2038
:100F100023001EE0FFF772FF1BE0FFF7D5FE18E08D
:100F2000FFF7BEFC15E0FFF7A7FE12E0FFF7E1FDBB
:100F30000FE0FFF734FD0CE00BE00AE009E0FFF7FB
:100F4000AFFC06E0FFF7ACFC03E0FFF7A9FC00E014
:100F500000BF00BF01215F4805F052F810BD10B579
:100F600002F040FA5449088002F072FA53490880AE
:100F70005048007850B902F016FC00205049087023
:100F800002205049087001204A49087002F0ADFA69
:100F90004A48008840F2E931884206D14548007845
:100FA000012802D10220434908704448008840F2D9
:100FB0005641884206D13F480078022802D10320DA
:100FC0003C4908703D48008840F2E931884206D12A
:100FD00038480078032802D1042036490870374881
:100FE000008840F25641884206D1324800780428F1
:100FF00002D105202F4908703048008840F2E931BD
:1010000088420ED12B48007805280AD102F0D9FB7E
:1010100001202B49087004202A4908700620254920
:1010200008702548008840F2E931884206D12148FD
:101030000078072802D108201E4908701E48008841
:1010400040F25641884206D11A480078082802D159
:101050000920184908701848008840F2E931884290
:1010600006D114480078092802D10A2011490870D5
:101070001148008840F25641884206D10D48007858
:101080000A2802D10B200B4908700B48008840F257
:10109000E93188420DD1074800780B2809D102F0C8
:1010A000ACFB02F0AFFA0020084908700C2001499F
:1010B000087010BDD1000020D4000020D600002010
:1010C000680100206901002014000020D0000020E9
:1010D000D2000020001000400020F74908700A20CC
:1010E000F6490870704770B50546002419E0285D80
:1010F000312804D0322807D033280FD109E000F07E
:10110000BCFD00F05FFB0AE000F0ECFD00F0AFFB7F
:1011100005E000F01CFE00F0DDFB00E000BF00BFBA
:10112000641C032CE3DB70BD10B504462078312825
:1011300002D100F0A2FD0AE02078322802D100F0AE
:10114000D1FD04E02078332801D100F000FE00F04A
:1011500039FB10BD10B504466078312802D100F08B
:101160008CFD0AE06078322802D100F0BBFD04E07B
:101170006078332801D100F0EAFD00F078FB10BD63
:1011800010B50446A078312802D100F076FD0AE0BF
:10119000A078322802D100F0A5FD04E0A078332821
:1011A00001D100F0D4FD00F095FB10BD10B5044650
:1011B0002079312802D100F0FDFD0AE020793228A3
:1011C00002D100F021FE04E02079332801D100F0A3
:1011D00045FE10BD10B504466079312802D100F0FB
:1011E000E9FD0AE06079322802D100F00DFE04E04A
:1011F0006079332801D100F031FE10BD10B50446EE
:10120000A079312802D100F0D5FD0AE0A07932287A
:1012100002D100F0F9FD04E0A079332801D100F0FB
:101220001DFE10BD70B50546052419E0285D312866
:1012300004D0322807D033280FD109E000F0BAFDDE
:1012400000F0C0FA0AE000F0DFFD00F010FB05E05E
:1012500000F004FE00F03EFB00E000BF00BF641C95
:10126000082CE3DB70BD70B504460D46012D13D18B
:1012700000F063FB2078312802D100F086FE20E0E8
:101280002078322802D100F0B4FE1AE0207833280A
:1012900017D100F046FE14E0022D12D100F04DFBF4
:1012A0002079312802D100F070FE0AE0207932283E
:1012B00002D100F09EFE04E02079332801D100F035
:1012C00030FE70BD70B504460D46012D13D100F0FF
:1012D00087FB6078312802D100F057FE20E060786B
:1012E000322802D100F085FE1AE06078332817D149
:1012F00000F017FE14E0022D12D100F071FB6079AE
:10130000312802D100F041FE0AE06079322802D192
:1013100000F06FFE04E06079332801D100F001FE97
:1013200070BD70B504460D46012D13D100F0ABFB26
:10133000A078312802D100F028FE20E0A0783228E1
:1013400002D100F056FE1AE0A078332817D100F041
:10135000E8FD14E0022D12D100F095FBA0793128B0
:1013600002D100F012FE0AE0A079322802D100F08A
:1013700040FE04E0A079332801D100F0D2FD70BD19
:1013800070B505460E460024012E1ED100BF19E09F
:10139000285D312804D0322807D033280FD109E046
:1013A00000F0CBFA00F0F1FD0AE000F019FB00F0CC
:1013B00020FE05E000F067FB00F0B3FD00E000BF99
:1013C00000BF641C032CE3DB1FE0022E1DD10424AC
:1013D00019E0285D312804D0322807D033280FD1F6
:1013E00009E000F0AAFA00F0D0FD0AE000F0F8FAF7
:1013F00000F0FFFD05E000F046FB00F092FD00E08C
:1014000000BF00BF641C072CE3DB70BD70B5044651
:101410000D46012D13D12078312802D100F053FE62
:101420000AE02078322802D100F081FE04E0207822
:10143000332801D100F014FE00F0C4F914E0022DAD
:1014400012D12079312802D100F03DFE0AE0207946
:10145000322802D100F06BFE04E02079332801D15C
:1014600000F0FEFD00F0AEF970BD70B504460D460B
:10147000012D13D16078312802D100F024FE0AE05A
:101480006078322802D100F052FE04E06078332800
:1014900001D100F0E5FD00F0EAF918E0022D16D1C7
:1014A0006079312802D100F00EFE0EE0607932281A
:1014B00006D100F03CFE08E0D1000020D200002060
:1014C0006079332801D100F0CBFD00F0D0F970BD78
:1014D00070B504460D46012D13D1A078312802D1F4
:1014E00000F0F1FD0AE0A078322802D100F01FFEE2
:1014F00004E0A078332801D100F0B2FD00F0EAF951
:1015000014E0022D12D1A079312802D100F0DBFDC8
:101510000AE0A079322802D100F009FE04E0A079A7
:10152000332801D100F09CFD00F0D4F970BD10B556
:10153000044600F002FA2078312802D100F063FE60
:101540000AE02078322802D100F091FE04E02078F1
:10155000332801D100F024FE10BD10B5044600F080
:101560003FFA6078312802D100F04DFE0AE0607841
:10157000322802D100F07BFE04E06078332801D1EC
:1015800000F00EFE10BD10B5044600F07CFAA07805
:10159000312802D100F037FE0AE0A078322802D1CB
:1015A00000F065FE04E0A078332801D100F0F8FDDA
:1015B00010BD10B5044600F0C0F92078312802D1E2
:1015C00000F0FAFE0AE02078322802D100F02BFF6A
:1015D00004E02078332801D100F07FFE10BD10B563
:1015E000044600F0FDF96078312802D100F0E4FEF5
:1015F0000AE06078322802D100F015FF04E060783C
:10160000332801D100F069FE10BD10B5044600F08A
:101610003AFAA078312802D100F0CEFE0AE0A07894
:10162000322802D100F0FFFE04E0A078332801D177
:1016300000F053FE10BD000070B505460E4634465E
:1016400005E0FE4804600F2002F072FEA41EAC42CA
:10165000F7D270BD70B505460E46344605E0F74832
:1016600004600D2002F064FEA41CAC42F7D970BDEA
:1016700070B505460E46344605E0F04804600F207C
:1016800002F056FEA41CAC42F7D970BD70B50546F9
:101690000E46344605E0EA4884630F2002F048FE17
:1016A000A41CAC42F7D970BD70B505460E46344651
:1016B00005E0E44804600F2002F03AFE641CAC42EE
:1016C000F7D970BD10B54FF44870DC4908604FF48D
:1016D000FA7002F02DFE40F22440DA4908604FF41F
:1016E000487002F025FE4FF4487140F28B30FFF74E
:1016F000BFFFC82002F01CFE4FF45C7140F2BF3007
:10170000FFF7C4FFC82002F013FE10BD10B54FF460
:101710004870CA49086002F00BFE40F22440C949F3
:1017200008604FF4487002F003FE4FF4487140F235
:101730008B30FFF79DFFC82002F0FAFD4FF43371A4
:1017400040F2BF30FFF7A2FF10BD10B540F2BF302E
:10175000BB4988634FF4487002F0EAFD40F2244030
:10176000B84908604FF4487002F0E2FD40F28B3057
:10177000B24908604FF4FA7002F0DAFD10BD10B5FE
:1017800040F22440AF4908604FF4FA7002F0D0FDF7
:1017900040F2BF30AA4988634FF4967002F0C8FD4A
:1017A00040F28B30A54908604FF4FA7002F0C0FD9A
:1017B0004FF44870A149091D08604FF4FA7002F017
:1017C000B7FD10BD10B5A04800889C49091D0860F0
:1017D0004FF4487002F0ACFD9C48008897490860BF
:1017E0004FF4617002F0A4FD40F224419848008853
:1017F000FFF75AFF4FF4487002F09AFD95480088B1
:101800008F4988634FF4487002F092FD40F28E20B9
:101810008B4948634FF4487002F08AFD40F224403F
:10182000884908604FF4487002F082FD40F2BF30F2
:10183000834988634FF4487002F07AFD40F28B30A0
:101840007E4908604FF4487002F072FD4FF4D77083
:101850007A49091D08604FF4167002F069FD4FF4D3
:10186000167077494863C82002F062FD10BD10B5BC
:10187000794800887149091D08604FF4487002F0EA
:1018800057FD764800886D4908604FF4487002F0B3
:101890004FFD40F2244172480088FFF705FF4FF4E6
:1018A000487002F045FD6F480088654988634FF431
:1018B000487002F03DFD40F28E20614948634FF4CC
:1018C000487002F035FDFFF75AFF4FF416705C497F
:1018D000486310BD10B5644800885849091D086068
:1018E0004FF4617002F024FD60480088534908609D
:1018F0004FF4487002F01CFD40F224415C4800881F
:10190000FFF7D2FE4FF4487002F012FD59480088EC
:101910004B4988634FF4487002F00AFD40F28E2074
:10192000474948634FF4487002F002FDFFF727FF74
:101930004FF416704249486310BD10B540F28E2036
:101940003F494863404800883C49091D08604FF4FE
:10195000487002F0EDFC40F28B313C480088FFF704
:1019600087FEC82002F0E4FC3A48008834498863C6
:101970004FF4487002F0DCFC40F224413448008807
:10198000FFF792FE4FF4487002F0D2FC4FF439702A
:101990002B4948634FF4487002F0CAFC40F2BF3054
:1019A000274988634FF4487002F0C2FC40F224409B
:1019B000244908604FF4487002F0BAFC40F28B30C2
:1019C0001E4908604FF4487002F0B2FC4FF4D77023
:1019D0001A49091D08604FF4487002F0A9FC10BDB7
:1019E00010B540F28E20164948631B480088134901
:1019F000091D08604FF4487002F09AFC40F28B31E8
:101A000016480088FFF734FEC82002F091FC154804
:101A100000880B4988634FF4487002F089FC40F25B
:101A200024410F480088FFF73FFE4FF4487002F052
:101A30007FFC4FF43970024948631DE034180040C0
:101A40000040014034440140560100205401002070
:101A500052010020500100205E0100205C010020A6
:101A60005A01002058010020660100206401002076
:101A700062010020600100204FF4487002F058FC21
:101A8000FFF77DFE10BD10B540F28E20FE49486381
:101A9000FE480088FE4908604FF4487002F048FC98
:101AA00040F28B31FB480088FFF7E2FDC82002F0CE
:101AB0003FFCF9480088F44988634FF4487002F00D
:101AC00037FC40F22441F5480088FFF7EDFD4FF464
:101AD000487002F02DFC4FF43970EB4948634FF425
:101AE000487002F025FCFFF74AFE10BD10B54FF418
:101AF0001670E5494863401002F01AFC40F20A40B3
:101B0000E74908604FF4967002F012FC40F236404C
:101B1000DF49091F08604FF4967002F009FC4FF48A
:101B2000D770DB4908604FF4FA7002F001FC40F214
:101B3000E240D549886310BD10B540F2FD30D4496C
:101B4000091F08604FF4FA7002F0F2FB4FF4E070E6
:101B5000CF4908604FF4FA7002F0EAFB4FF41670B8
:101B6000C9494863642002F0E3FB40F2C440C6491F
:101B700088634FF4FA7002F0DBFB40F23440C8494E
:101B8000086010BD10B540F2B710C14908604FF4AD
:101B9000487002F0CDFB40F2022140F2EE20FFF748
:101BA00059FD4FF4967002F0C3FB40F20A40BC4965
:101BB00008604FF4487002F0BBFB40F23640B44975
:101BC000091F08604FF4487002F0B2FB40F2E24097
:101BD000AD4988634FF4FA7002F0AAFB10BD10B54E
:101BE0004FF41670A84948634FF4E070A8490860A4
:101BF0004FF4C87002F09CFB40F2E240A2498863B7
:101C00004FF4967002F094FB40F21240A049091F75
:101C100008604FF4FA7002F08BFB40F20A40A049D2
:101C200008604FF4967002F083FB10BD10B54FF4BE
:101C300016709549486340F2C910954908604FF401
:101C4000C87002F075FB40F294408F4988634FF4EE
:101C5000967002F06DFB40F2B5308D49091F0860A7
:101C60004FF4FA7002F064FB40F20A408C490860BD
:101C70004FF4967002F05CFB10BD10B589480088E7
:101C8000834908604FF4FA7002F052FB86480088DE
:101C90007D4988634FF4487002F04AFB4FF4487066
:101CA0007B49091F086002F043FB804800887C499B
:101CB00008604FF4487002F03BFB4FF448717C48D9
:101CC0000088FFF7B9FC4FF4967002F031FB4FF437
:101CD00039706D4948634FF4487002F029FBFFF7F3
:101CE000F1FC10BD10B57348008869490860642094
:101CF00002F01EFB70480088634988634FF4167039
:101D000002F016FB4FF448706149091F08604FF458
:101D10002F7002F00DFB69480088614908604FF49C
:101D2000487002F005FB4FF4487165480088FFF7E2
:101D300083FCC82002F0FCFA4FF43E70524948631D
:101D40004FF4487002F0F4FAFFF7BCFC10BD10B578
:101D50005C4800884E490860C82002F0E9FA5A48F9
:101D60000088494988634FF4487002F0E1FA4FF463
:101D700048704749091F086002F0DAFA53480088A2
:101D8000474908604FF4487002F0D2FA4FF44871A6
:101D90004F480088FFF750FCC82002F0C9FA4FF402
:101DA0003970394948634FF47A7002F0C1FAFFF78D
:101DB00089FC10BD10B547480088354908604FF4CC
:101DC000967002F0B5FA444800882F4988634FF4B2
:101DD000487002F0ADFA4FF448702D49091F0860B1
:101DE00002F0A6FA3D4800882D4908604FF448707B
:101DF00002F09EFA4FF4487139480088FFF71CFC46
:101E0000642002F095FA10BD10B5364800882049CC
:101E100008604FF4967002F08BFA334800881A4934
:101E200088634FF4487002F083FA4FF44870184901
:101E3000091F086002F07CFA2C48008818490860E5
:101E40004FF4487002F074FA4FF448712848008843
:101E5000FFF7F2FB642002F06BFA10BD10B52548C5
:101E600000880B49086024480088074988634FF4BC
:101E7000487002F05DFA4FF448700549091F086088
:101E800002F056FA1D483BE0004001406601002088
:101E90003818004064010020600100206201002029
:101EA00034440140DE000020D8000020DA00002089
:101EB000DC000020E6000020E0000020E20000201E
:101EC000E4000020EE000020E8000020EA000020EE
:101ED000EC000020F6000020F0000020F2000020BE
:101EE000F4000020FE000020F8000020FA0000208E
:101EF000FC0000200601002000010020020100205B
:101F00000088FE4908604FF4487002F011FA4FF45F
:101F10004871FB480088FFF78FFB642002F008FA45
:101F200010BD10B5F7480088F74988634FF4487032
:101F300002F0FEF94FF44870F449086002F0F8F935
:101F4000F3480088F149091D08604FF4487002F019
:101F5000EFF9F0480088E94908604FF4487002F052
:101F6000E7F94FF44871EC480088FFF765FB6420FF
:101F700002F0DEF94FF41670E34948634FF44870FD
:101F800002F0D6F9FFF7C2FB10BD10B5E348008898
:101F9000DD4988634FF4FA7002F0CAF94FF44870D3
:101FA000DA49086002F0C4F9DD480088D749091D04
:101FB00008604FF4487002F0BBF9DA480088CF4956
:101FC00008604FF4487002F0B3F94FF44871D648F6
:101FD0000088FFF731FBC82002F0AAF94FF4167011
:101FE000C94948634FF47A7002F0A2F9FFF78EFBFB
:101FF00010BD10B5CD480088C34988634FF44870C0
:1020000002F096F94FF44870C049086002F090F968
:10201000C7480088BD49091D08604FF4487002F0A8
:1020200087F9C4480088B54908604FF4487002F049
:102030007FF94FF44871C0480088FFF7FDFAC820C7
:1020400002F076F94FF41670AF4948634FF47A7096
:1020500002F06EF9FFF75AFBC82002F069F910BDD3
:1020600010B5A8480088A84988634FF4487002F06A
:102070005FF94FF44870A549086002F059F9A44887
:102080000088A249091D0860C82002F051F9A14842
:1020900000889A4908604FF4487002F049F94FF4FB
:1020A00048719D480088FFF7C7FAC82002F040F940
:1020B0004FF43970944948634FF4487002F038F98E
:1020C000FFF724FB10BD10B5944800888E49886343
:1020D0004FF4487002F02CF94FF448708B490860B7
:1020E00002F026F98E4800888849091D08604FF4DF
:1020F000487002F01DF98B480088804908604FF451
:10210000FA7002F015F94FF4487187480088FFF71C
:1021100093FAC82002F00CF94FF439707A494863F9
:102120004FF4487002F004F9FFF7F0FA10BD10B553
:102130007E480088744988634FF4487002F0F8F8CC
:102140004FF448707149086002F0F2F8784800884E
:102150006E49091D08604FF4487002F0E9F87548AF
:102160000088664908604FF4FA7002F0E1F84FF415
:10217000487171480088FFF75FFAC82002F0D8F86C
:102180004FF43970604948634FF4487002F0D0F85A
:10219000FFF7BCFA4FF4D7705C49091D086010BD09
:1021A00010B566480088584988634FF4167002F0ED
:1021B000BFF84FF448705549086002F0B9F860481C
:1021C00000885249091D08604FF4487002F0B0F8C9
:1021D0005C480088494908604FF4487002F0A8F84C
:1021E0004FF4487158480088FFF726FAC82002F0DB
:1021F0009FF84FF4167044494863C82002F098F8DD
:10220000FFF784FA10BD10B5504800883E49886336
:102210004FF4167002F08CF84FF448703B49086098
:1022200002F086F84A4800883849091D08604FF4D2
:10223000487002F07DF847480088304908604FF444
:10224000487002F075F84FF4487143480088FFF772
:10225000F3F9C82002F06CF84FF416702A4948636D
:102260004FF4487002F064F8FFF750FA10BD10B553
:102270003A480088244988634FF4167002F058F8F1
:1022800040F25A20214908604FF4487002F050F89B
:10229000334800881D49091D08604FF4487002F05A
:1022A00047F830480088154908604FF4487002F03C
:1022B0003FF84FF448712C480088FFF7BDF9C8205B
:1022C00002F036F84FF416700F4948634FF4487027
:1022D00002F02EF8FFF71AFA10BD10B52348008857
:1022E000094988634FF4167002F022F84FF44870E1
:1022F0000649086002F01CF81D483BE034440140E8
:102300000401002008010020004001403418004072
:102310000E0100200A0100200C0100201001002005
:1023200016010020120100201401002018010020D5
:102330001E0100201A0100201C01002020010020A5
:102340002601002022010020240100202801002075
:102350002E0100202A0100202C0100203001002045
:102360003601002032010020340100203801002015
:102370003E0100200088464908604FF4487001F093
:10238000D7FF44480088444908604FF4FA7001F0D0
:10239000CFFF4FF4487141480088FFF74DF93220D4
:1023A00001F0C6FF4FF416703D494863C82001F0A4
:1023B000BFFFFFF787F910BD10B53A4800883849CC
:1023C00088634FF4167001F0B3FF40F2EE203049FD
:1023D000091F08604FF4487001F0AAFF32480088D6
:1023E0002B490860322001F0A3FF322001F0A0FF4A
:1023F0002E480088284908604FF4FA7001F098FFD1
:1024000040F2EE212A480088FFF716F9322001F049
:102410008FFF4FF4167022494863C82001F088FFEF
:10242000FFF750F910BD10B5224800881C49886399
:102430004FF4167001F07CFF4FF448701449091FE7
:10244000086001F075FF1C480088114908603220BF
:1024500001F06EFF322001F06BFF184800880E4932
:1024600008604FF4FA7001F063FF4FF448711448AC
:102470000088FFF7E1F8322001F05AFF4FF41670A0
:1024800007494863C82001F053FFFFF71BF910BD4F
:10249000381800403A010020344401403C0100203B
:1024A0000040014040010020460100204201002080
:1024B00044010020480100204E0100204A01002074
:1024C0004C01002030B5014601F01F04C1F3451353
:1024D000CA0AE50205EB43151544A8B230BD2DE943
:1024E000F04706460F4690469A46002445464FEA76
:1024F0004800C0F103094AE07A1991B2321990B24A
:10250000524600F0D7FE7A1991B2321B90B2524671
:1025100000F0D0FE7A1B91B2321990B2524600F010
:10252000C9FE7A1B91B2321B90B2524600F0C2FE35
:102530003A1991B2721990B2524600F0BBFE3A19A4
:1025400091B2721B90B2524600F0B4FE3A1B91B2A7
:10255000721990B2524600F0ADFE3A1B91B2721B56
:1025600090B2524600F0A6FEB9F1000F05DA042041
:1025700000FB049000F1060907E0601B042101FB49
:10258000009000F10A09681E85B2601C84B2AC425A
:10259000B2DBAC4237D17A1991B2321990B25246BD
:1025A00000F088FE7A1991B2321990B2524600F0CA
:1025B00081FE7A1B91B2321990B2524600F07AFE37
:1025C0007A1B91B2321B90B2524600F073FE3A1958
:1025D00091B2721990B2524600F06CFE3A1991B263
:1025E000721B90B2524600F065FE3A1B91B272190E
:1025F00090B2524600F05EFE3A1B91B2721B90B24E
:10260000524600F057FEBDE8F0872DE9FF4F83B03A
:10261000804689464946404600F042FE0598A0EBB8
:1026200008050698A0EB0906002D02DB01200290A8
:1026300003E04FF0FF3002906D42002E02DB0120DC
:10264000019003E04FF0FF30019076424FEA450AD7
:102650004FEA460BB54219DDABEB0504002712E04B
:1026600049464046109A00F025FE002C05DBA4EBFD
:102670000A04019848441FFA80F95C4402984044D7
:102680001FFA80F87F1CAF42EADD18E0AAEB0604CF
:10269000002712E049464046109A00F00BFE002C3D
:1026A00005DBA4EB0B04029840441FFA80F8544465
:1026B000019848441FFA80F97F1CB742EADD07B051
:1026C000BDE8F08F2DE9F84305460C4616461F4637
:1026D000DDF820804EF67D700090A81982B2234666
:1026E00021462846FFF791FF42F6651004F1010CE0
:1026F000BC441FFA8CF305EB060CACF1010C1FFA7D
:102700008CF204F1010C1FFA8CF105EB060CACF114
:10271000010C00901FFA8CF0FFF777FF42F665106E
:102720000090E01983B2A81982B2E01981B228465C
:10273000FFF76BFF4EF67D700090E01983B22A46DA
:1027400021462846FFF761FF04F1010CBC44ACF1BF
:10275000020C1FFA8CF305F1010CB444ACF1020C2D
:102760001FFA8CF204F1010C1FFA8CF105F1010C37
:102770001FFA8CF0CDF80080FFF747FFBDE8F88323
:102780002DE9F84305460C4616461F46DDF8208025
:10279000B8F1000F39D14EF67D700090A81982B2C1
:1027A000234621462846FFF730FF42F6651004F124
:1027B000010CBC441FFA8CF305EB060CACF1010CC8
:1027C0001FFA8CF204F1010C1FFA8CF105EB060CD8
:1027D000ACF1010C00901FFA8CF0FFF716FF42F6E7
:1027E00065100090E01983B2A81982B2E01981B295
:1027F0002846FFF70AFF4EF67D700090E01983B27D
:102800002A4621462846FFF700FFB8F1010F39D1CB
:1028100042F665100090A81982B223462146284648
:10282000FFF7F3FE4EF67D7004F1010CBC441FFA75
:102830008CF305EB060CACF1010C1FFA8CF204F1E1
:10284000010C1FFA8CF105EB060CACF1010C0090A9
:102850001FFA8CF0FFF7D9FE4EF67D700090E0195C
:1028600083B2A81982B2E01981B22846FFF7CDFEE3
:1028700042F665100090E01983B22A4621462846A8
:10288000FFF7C3FEB8F1020F39D14FF6FF70009089
:10289000A81982B2234621462846FFF7B6FE4FF616
:1028A000FF7004F1010CBC441FFA8CF305EB060C1D
:1028B000ACF1010C1FFA8CF204F1010C1FFA8CF13F
:1028C00005EB060CACF1010C00901FFA8CF0FFF741
:1028D0009CFE4FF6FF700090E01983B2A81982B2F7
:1028E000E01981B22846FFF790FE4FF6FF70009086
:1028F000E01983B22A4621462846FFF786FEBDE846
:10290000F883F8B504460D4616461F4644F20820E3
:102910002B463246294600902046FFF776FE48F2C5
:1029200010406A1C93B291B2621C009090B2324681
:10293000FFF76BFE44F208203B46224629460090F2
:102940002046FFF762FE48F21040631C9AB26B1CEF
:1029500099B2631C009098B23B46FFF756FE4FF6C3
:10296000FF703B463246394600902046FFF74DFE49
:102970004FF6FF703B463246294600903046FFF73F
:1029800044FEF8BDF8B506460F4614461D464FF600
:10299000FF703B462246394600903046FFF735FE31
:1029A0004FF6FF702B463246394600903046FFF70F
:1029B0002CFE48F210406A1E93B291B2721C009035
:1029C00090B22246FFF721FE44F208202B46224611
:1029D000294600903046FFF718FE48F21040631E6B
:1029E0009AB27B1C99B2631E009098B22B46FFF7F7
:1029F0000CFE44F208202B46224639460090204621
:102A0000FFF703FEF8BD2DE9FF4F81B007468A4668
:102A10009B46DDF8388050E098F800003A284ADA02
:102A200098F80090B9F1300F04DBA9F1300000F004
:102A3000FF0907E0B9F12B0F02D14FF00A0901E0BD
:102A40004FF00009002531E000242BE0FA4901EBAA
:102A5000C91000EB4500005D009000261EE08020BC
:102A600030410099084050B10AEB050291B207EBE2
:102A7000C402324490B2039A00F01CFC0CE00398AC
:102A8000584509D00AEB050291B207EBC402324463
:102A900090B25A4600F00EFC701CC6B2082EDEDB67
:102AA000601CC4B2022CD1DB681CC5B2402DCBDB4C
:102AB00007F1130087B208F1010898F80000002818
:102AC000AAD105B0BDE8F08F2DE9F84F074688463A
:102AD00093469A46DDF828900097B3E099F80000F5
:102AE00080283DDA99F800600D2E05D1009F08F18D
:102AF00010001FFA80F830E0202E03DDA6F1200040
:102B000086B200E00026002422E000251CE004EB51
:102B10000610CA49085C80212941084040B108EBF1
:102B2000040291B27A1990B25A4600F0C3FB09E050
:102B3000D34507D008EB040291B27A1990B25246FD
:102B400000F0B8FB681CC5B2082DE0DB601CC4B205
:102B5000102CDADB07F1080087B209F1010971E0F6
:102B6000002668E006EB0610B54911F8100099F848
:102B7000001088425DD106EB0610B14901EB400020
:102B8000407899F80110884253D100244FE0002585
:102B900020E006EB0610AA4901EB4000801C10F86B
:102BA000141080202841014041B108EB040291B289
:102BB0007A1990B25A4600F07DFB09E0D34507D060
:102BC00008EB040291B27A1990B2524600F072FBFF
:102BD000681CC5B2082DDCDB002524E006EB0610DE
:102BE000974901EB4000801C012101EB4401405C4E
:102BF00080212941084048B108EB040291B27A19BA
:102C0000083290B25A4600F055FB0AE0D34508D08E
:102C100008EB040291B27A19083290B2524600F0E1
:102C200049FB681CC5B2082DD8DB601CC4B2102C4F
:102C3000ADDB701C86B2322E94DB09F1020907F17C
:102C4000100087B299F8000000287FF447AFBDE874
:102C5000F88F2DE9F05F0646884693469A46DDF8E0
:102C60002890E2E099F80000802835DA99F80070A1
:102C7000202F03DDA7F1200087B200E00027002508
:102C800022E000241CE005EB07106C49095C802061
:102C90002041014041B108EB050291B2321990B2D6
:102CA0005A4600F007FB09E0D34507D008EB0502C0
:102CB00091B2321990B2524600F0FCFA601CC4B2D4
:102CC000082CE0DB681CC5B2102DDADB09F1010924
:102CD00006F1080086B2A8E000279EE007EB870017
:102CE00000EB4710574911F8100099F8001088427E
:102CF0007CD107EB870000EB4710524901EB400005
:102D0000407899F801108842F2D1002580E0002433
:102D100023E007EB870000EB47104A4901EB400036
:102D2000801C05EB4501405C80212141084040B1F9
:102D300008EB050291B2321990B25A4600F0BAFA85
:102D400009E0D34507D008EB050291B2321990B2E1
:102D5000524600F0AFFA601CC4B2082CD9DB002444
:102D600026E007EB870000EB4710364901EB4000F7
:102D7000801C05EB4501491C405C80212141084035
:102D800048B108EB050291B23219083290B25A46A6
:102D900000F090FA0AE0D34508D008EB050291B2A2
:102DA0003219083290B2524600F084FA601CC4B264
:102DB000082CD6DB002427E007EB870000EB471048
:102DC000204901EB4000801C05EB4501891C405C5B
:102DD00080212141084050B108EB050291B232191F
:102DE000103290B25A4600F065FA0BE013E0D3457A
:102DF00008D008EB050291B23219103290B2524657
:102E000000F058FA601CC4B2082CD5DB681CC5B2AF
:102E1000182DFFF67CAF781C87B2142FFFF65EAF3B
:102E200009F1020906F1180086B299F8000000289D
:102E30007FF418AFBDE8F09F09810008187B0008F7
:102E40008A860008728D00082DE9F05F07468846E3
:102E500092469946002531E000242BE019490A9852
:102E600001EBC01000EB850010F804B000261DE057
:102E70008020304100EA0B0050B108EB050291B20E
:102E800007EBC402324490B2524600F013FA0BE052
:102E9000CA4509D008EB050291B207EBC4023244DF
:102EA00090B24A4600F006FA701CC6B2082EDFDB6C
:102EB000601CC4B2042CD1DB681CC5B2202DCBDB56
:102EC000BDE8F09F098100081CB50121162003F020
:102ED0004DFB4FF4E050009002208DF805000120DA
:102EE0008DF8040000208DF806006946F94802F0CC
:102EF00023F8082000906946F74802F01DF84FF4C7
:102F0000806000906946F54802F016F81CBD00216B
:102F1000082116E000F0800222B10822EE4B18339F
:102F20001A8003E00822EC4B1A331A804FF48062B7
:102F3000E84B1A331A809B1E1A804206100E4A1E56
:102F4000D1B20029E6DC704710B504464FF480503A
:102F5000E0491A3108804010891E08802012FFF7CE
:102F6000D6FFE0B2FFF7D3FF4FF48050D9491831B4
:102F7000088010BD10B504464FF48050D5491A3171
:102F80000880401008802046FFF7C1FF4FF48050B2
:102F9000D0491831088010BD10B504464FF4805058
:102FA000CC491A3108804010891E08802046FFF75E
:102FB000AEFF4FF48050C7491831088010BDF0B5FE
:102FC00005460C4616461F462A20FFF7D3FF002071
:102FD000FFF7E2FFE8B2FFF7DFFF0020FFF7DCFFBB
:102FE000B11CC8B2FFF7D8FF2B20FFF7C3FF0020AA
:102FF000FFF7D2FFE0B2FFF7CFFF0020FFF7CCFFD3
:10300000791CC8B2FFF7C8FF2C20FFF7B3FFF0BD53
:1030100070B506469F237F2200210846FFF7CFFFA9
:103020002C20FFF7A7FF002408E0002503E030462E
:10303000FFF78AFF6D1CA02DF9D3641C802CF4D3FC
:1030400070BD10B54FF48060A4494883642001F03E
:103050006FF94FF48060A1490883322001F068F9CC
:1030600010BD10B5FFF730FFFFF7EBFF1120FFF7A2
:1030700081FF782001F05CF9B120FFF77BFF012090
:10308000FFF78AFF2C20FFF787FF2D20FFF784FF33
:10309000B220FFF76FFF0120FFF77EFF2C20FFF724
:1030A0007BFF2D20FFF778FFB320FFF763FF0120A0
:1030B000FFF772FF2C20FFF76FFF2D20FFF76CFF4B
:1030C0000120FFF769FF2C20FFF766FF2D20FFF797
:1030D00063FFB420FFF74EFF0720FFF75DFFC0201E
:1030E000FFF748FFA220FFF757FF0220FFF754FF2A
:1030F0008420FFF751FFC120FFF73CFFC520FFF7F9
:103100004BFFC220FFF736FF0A20FFF745FF0020E4
:10311000FFF742FFC320FFF72DFF8A20FFF73CFF98
:103120002A20FFF739FFC420FFF724FF8A20FFF78A
:1031300033FFEE20FFF730FFC520FFF71BFF0E2007
:10314000FFF72AFF3620FFF715FFC020FFF724FF07
:10315000E020FFF70FFF0F20FFF71EFF1A20FFF7F9
:103160001BFF0F20FFF718FF1820FFF715FF2F2078
:10317000FFF712FF2820FFF70FFF2020FFF70CFFBB
:103180002220FFF709FF1F20FFF706FF1B20FFF794
:1031900003FF2320FFF700FF3720FFF7FDFE00208D
:1031A000FFF7FAFE0720FFF7F7FE0220FFF7F4FE15
:1031B0001020FFF7F1FEE120FFF7DCFE0F20FFF704
:1031C000EBFE1B20FFF7E8FE0F20FFF7E5FE1720C0
:1031D000FFF7E2FE3320FFF7DFFE2C20FFF7DCFED7
:1031E0002920FFF7D9FE2E20FFF7D6FE3020FFF76B
:1031F000D3FE3020FFF7D0FE3920FFF7CDFE3F2071
:10320000FFF7CAFE0020FFF7C7FE0720FFF7C4FE46
:103210000320FFF7C1FE1020FFF7BEFE2A20FFF7B4
:10322000A9FE0020FFF7B8FE0220FFF7B5FE002040
:10323000FFF7B2FE8220FFF7AFFE2B20FFF79AFECA
:103240000020FFF7A9FE0320FFF7A6FE0020FFF7EE
:10325000A3FE7B20FFF7A0FEF020FFF78BFE0120EE
:10326000FFF79AFEF620FFF785FE0020FFF794FE99
:103270003A20FFF77FFE0520FFF78EFE2920FFF79B
:1032800079FE4EF67D70FFF7C3FE10BD30B50546E2
:103290000C462846FFF76EFE2046FFF77DFE30BD48
:1032A00030B504460D462B46224629462046FFF7F8
:1032B00086FE30BD70B504460D461646681C83B2C6
:1032C000601C82B229462046FFF779FE3046FFF7A0
:1032D0003BFE70BD000402400008024000100240A6
:1032E00060B505460E4631462846FFF7D9FFE0B2E5
:1032F000FFF752FE204660BD1CB501214C2003F0B3
:1033000035F94FF42A40009000208DF80400012088
:103310008DF807006946BE4801F00EFE512000906E
:103320006946BC4801F008FE4FF400600090694611
:10333000B94801F001FE1CBD1CB54FF40051B44862
:1033400001F05CFE8DF800004FF40041B04801F040
:1033500055FE8DF801004FF40061AD4801F04EFEBE
:103360008DF802004FF40071A94801F047FE8DF876
:1033700003001021A74801F041FE8DF80400402110
:10338000A44801F03BFE8DF805000121A14801F0A1
:1033900035FE8DF806004FF400619F4801F02EFEC7
:1033A0008DF807009DA003F037FA002406E01DF811
:1033B00004109CA003F030FA601CC4B2032CF6DDAC
:1033C00099A003F029FA042406E01DF8041095A042
:1033D00003F022FA601CC4B2072CF6DD93A003F0C0
:1033E0001BFA1CBD08B54FF40051894801F006FED8
:1033F0008DF800004FF40041854801F0FFFD8DF885
:1034000001004FF40061824801F0F8FD8DF80200E0
:103410004FF400717E4801F0F1FD8DF803009DF836
:1034200000004FF47A7110FB01F09DF8011001EBE0
:10343000C10202EB011100EB81009DF8021001EBCB
:10344000810100EB41009DF80310084480B208BDE3
:1034500008B510216F4801F0D1FD8DF80000402122
:103460006C4801F0CBFD8DF801000121694801F0A5
:10347000C5FD8DF802004FF40061674801F0BEFD04
:103480008DF803009DF800004FF47A7110FB01F0F5
:103490009DF8011001EBC10202EB011100EB81006C
:1034A0009DF8021001EB810100EB41009DF8031033
:1034B000084480B208BD10B55D480078052811D2D7
:1034C000DFE800F00304070A0D000CE000F05DF9EE
:1034D00009E000F068F906E000F081F903E000F08F
:1034E00070F900E000BF00BF10BD70B5FFF77AFFB4
:1034F0000446FFF7ADFF05464E480078002842D14C
:103500004B48007820B1012803D0022839D11EE0B1
:1035100038E00B2C01D06F2C05D100F098F946A0B3
:1035200003F07AF912E040F24C40844203D040F2BA
:103530005640844205D100F098F941A003F06CF99F
:1035400004E0FFF7B8FF40A003F066F91AE00B2C87
:1035500003D06F2C01D0012C02D100F024F90FE030
:1035600040F24C40844206D040F25640844202D0A1
:10357000B4F57A7F02D100F008F901E0FFF79BFF74
:1035800000E000BF00BF2B480078012839D128484F
:10359000007820B1032803D0042830D11AE02FE0AE
:1035A0000B2D03D06F2D01D0012D02D100F0FBF8BF
:1035B0000FE040F24C40854206D040F25640854232
:1035C00002D0B5F57A7F02D100F0DFF801E0FFF715
:1035D00072FF15E00B2D01D06F2D02D100F037F9ED
:1035E0000CE040F24C40854203D040F25640854208
:1035F00002D100F03AF901E0FFF75DFF00E000BF03
:1036000000BF70BD00200B49087009490870704761
:1036100000180240000C024000080240BAECCDE263
:103620005B000000256420007C2000005D0A000093
:103630006901002068010020CDF9D7F300000000E7
:10364000CDF9D3D200000000BCCCD0F800000000BF
:103650001CB50121302002F089FF1E2000900120BE
:103660008DF8040000208DF806008DF80700022078
:103670008DF805006946FE4801F05EFCAA20009026
:103680006946FC4801F058FC1CBD10B504463CB925
:103690000221F84801F0CEFC0821F64801F0C8FCF0
:1036A000012C07D10221F34801F0C2FC0821F148A6
:1036B00001F0C0FC022C07D10221EE4801F0BAFC57
:1036C0000821EC4801F0B6FC10BD10B504463CB929
:1036D0002021E84801F0AEFC8021E64801F0A8FC7A
:1036E000012C07D12021E34801F0A2FC8021E14810
:1036F00001F0A0FC022C07D12021DE4801F09AFC49
:103700008021DC4801F096FC10BD10B504463CB9A0
:103710001021D74801F08EFC0421D54801F088FC27
:10372000012C07D11021D24801F082FC0421D0489D
:1037300001F080FC022C07D11021CD4801F07AFC69
:103740000421CB4801F076FC10BD10B504463CB90D
:103750000221C74801F06EFC0821C54801F068FC51
:10376000012C07D10221C24801F062FC0821C048A7
:1037700001F060FC022C07D10221BD4801F05AFC87
:103780000821BB4801F056FC10BD10B50020FFF722
:103790007CFF0020FFF799FF0020FFF7B6FF002015
:1037A000FFF7D3FF10BD10B50120FFF76EFF01201A
:1037B000FFF78BFF0120FFF7A8FF0120FFF7C5FFF0
:1037C00010BD10B50020FFF760FF0120FFF77DFF5F
:1037D0000120FFF79AFF0020FFF7B7FF10BD10B5DB
:1037E0000120FFF752FF0020FFF76FFF0020FFF7D7
:1037F0008CFF0120FFF7A9FF10BD10B50220FFF7D5
:1038000044FF0220FFF761FF0220FFF77EFF022046
:10381000FFF79BFF10BD10B50020FFF736FF022019
:10382000FFF753FF0220FFF770FF0020FFF78DFF27
:1038300010BD10B50220FFF728FF0020FFF745FF5D
:103840000020FFF762FF0220FFF77FFF10BD10B5D9
:103850000120FFF71AFF0120FFF737FF0020FFF7D5
:1038600054FF0020FFF771FF10BD10B50020FFF7D7
:103870000CFF0020FFF729FF0120FFF746FF012082
:10388000FFF763FF10BD10B50020FFF7FEFE02201A
:10389000FFF71BFF0120FFF738FF0220FFF755FF5E
:1038A00010BD10B504467448006820447249086091
:1038B0000846406820444860084680682044886084
:1038C0000846C0682044C8600846426801686BA08A
:1038D00002F0A2FF10BD10B5044667480068001B47
:1038E0006549086008464068001B486008468068D3
:1038F000001B88600846C068001BC8600846426814
:1039000001685EA002F088FF10BD30B55D4C2468F0
:10391000A04204DD5B4C2468574DA0B22C60594C8A
:103920002468A14204DD574C2468534DA1B26C6059
:10393000544C2468A24204DD524C24684E4DA2B27D
:10394000AC60504C2468A34204DD4E4C24684A4DC0
:10395000A3B2EC604C4C2478012C04D10024234603
:10396000224621462046494C2060241D2160474CB8
:103970000C342260241F236030BD10B5F0EE401AD5
:1039800030EEE14A34EE014AB0EE442A30EEA14A6C
:1039900034EE414AF0EE442A30EEE14A34EE414A38
:1039A000B0EE443A30EEA14A34EE014AF0EE443A29
:1039B000B0EE420AB4EEE20AF1EE10FA01D2B0EE35
:1039C000620AB4EEC30AF1EE10FA01D2B0EE430A75
:1039D000B4EEE30AF1EE10FA01D2B0EE630A294820
:1039E00090ED004AB8EEC44AB4EEC40AF1EE10FA03
:1039F00027DDC2EE004A90ED004AB8EEC44A24EE3C
:103A0000844AB0EE442AC2EE804A90ED004AB8EEF5
:103A1000C44A24EE844AF0EE442AC3EE004A90EDF4
:103A2000004AB8EEC44A24EE844AB0EE443AC3EEEB
:103A3000804A90ED004AB8EEC44A24EE844AF0EE83
:103A4000443ABCEEE34A14EE104AA3B2BCEEC24ABA
:103A500014EE104AA2B2BCEEC34A14EE104AA1B250
:103A6000BCEEE24A14EE104AA0B2FFF74EFF10BDC2
:103A70000010024000140240700100200925642C4F
:103A800020256400800100206C01002034040140E6
:103A900010B588B004460121082002F067FD01211D
:103AA000880402F0ACFD07220821F74801F0CFFAA4
:103AB00007220921F44801F0CAFA4FF480700690F9
:103AC00002208DF81C008DF81D0001208DF81E00CD
:103AD0008DF81F0006A9EC4801F02EFA4FF4007093
:103AE000069002208DF81C008DF81D0000208DF836
:103AF0001E008DF81F0006A9E34801F01DFA02948C
:103B00000020ADF80C00ADF80E00ADF81000ADF8D7
:103B100014000C20ADF8120002A9DC4801F037FBBC
:103B20000121DA4801F0BBFB012240F22551D748C0
:103B300001F06BFC4021D54801F099FC27208DF85D
:103B4000040002208DF8050003208DF806000120F6
:103B50008DF8070001A801F0FEF84FF4A06001F015
:103B6000F5F808B010BD10B5002440F22551C74843
:103B700001F086FC002874D0C44801F0BFFBC4B239
:103B8000C34804700078012807D1C2A000F0BFFC30
:103B9000FEF773F8FDF716FEECE2BD480078022848
:103BA00007D1BEA000F0B3FCFEF79CF8FDF75FFE66
:103BB000E0E2B7480078032807D1BAA000F0A7FCDC
:103BC000FEF7C5F8FDF786FED4E2B1480078042878
:103BD00009D1B6A000F09BFCFEF7ECF8FDF796FDCE
:103BE000FDF7F0FDC6E2AA480078052809D1B1A08A
:103BF00000F08DFCFEF708F9FDF788FDFDF737FEB4
:103C0000B8E2A3480078062809D1ACA000F07FFCF8
:103C1000FEF724F9FDF77AFDFDF75CFEAAE29C4869
:103C20000078072807D1A7A000F071FCFDF785FEFA
:103C3000FEF777F99EE296480078082807D1A3A0FE
:103C400000F065FCFDF7CCFEFEF79FF992E290488C
:103C50000078092806D19FA000F059FCFEF7C9F9A9
:103C600088E28CE28A4800780A2807D19BA000F0FD
:103C70004EFCFDF762FEFEF793FA7BE28448007883
:103C80000B2807D197A000F042FCFDF7A9FEFEF734
:103C9000BAFA6FE27E4800780C2807D193A000F0B2
:103CA00036FCFDF7F0FEFEF7E2FA63E278480078B2
:103CB0000D2807D18FA000F02AFCFDF73EFEFEF78D
:103CC0000CFB57E2724800780E2807D18BA000F059
:103CD0001EFCFDF785FEFEF76FFB4BE26C4800789B
:103CE0000F2807D187A000F012FCFDF7CCFEFEF7ED
:103CF0009AFB3FE266480078102805D183A000F0C7
:103D000006FCFDF719FF35E261480078112805D15E
:103D100080A000F0FCFBFDF762FF2BE25C4800781E
:103D2000122805D17EA000F0F2FBFDF77FFF21E213
:103D300057480078132805D17BA000F0E8FBFDF779
:103D4000D5FE17E252480078152805D178A000F07A
:103D5000DEFBFDF7FAFC0DE24D480078162803D192
:103D600077A000F0D4FB05E249480078172804D179
:103D70004FF4397076494863FCE1454800781828CB
:103D800004D14FF4167072494863F3E1404800785B
:103D9000192803D16FA000F0BAFBEBE13C48007892
:103DA0001A280DD16DA000F0B2FB6948406BC01C11
:103DB000674948630846416B6AA002F02DFDD9E1CE
:103DC000334800781B280DD169A000F0A0FB6048A3
:103DD000406BC01E5E4948630846416B61A002F01B
:103DE0001BFDC7E12A4800781C280FD162A000F013
:103DF0008EFB5748806B62490978084454498863B0
:103E00000846816B5FA002F007FDB3E1204800780F
:103E10001D280FD15EA000F07AFB4D48806B5849F9
:103E20000978401A4A4988630846816B55A002F018
:103E3000F3FC9FE1164800781E280FD156A000F031
:103E400066FB574800684E490978084454490860A1
:103E50000846016853A002F0DFFC8BE10C480078B3
:103E60001F280FD152A000F052FB4D480068444972
:103E70000978401A4A4908600846016849A002F0DA
:103E8000CBFC77E198E00000000C024000480040C5
:103E900084010020735F310D0A000000735F320D52
:103EA0000A000000735F330D0A000000785F310DD7
:103EB0000A000000785F320D0A000000785F330DC1
:103EC0000A00000072305F310D0A000072305F326C
:103ED0000D0A000072305F330D0A000072315F314D
:103EE0000D0A000072315F320D0A000072315F333B
:103EF0000D0A000072325F310D0A000072325F322B
:103F00000D0A000072325F330D0A000071725F6F9C
:103F10006E0D0A00746F705F7363616E0D0A0000AE
:103F2000756E6465720D0A0072657365740D0A0022
:103F30006D6964646C6573746174650D0A000000DA
:103F40006B656C5F76616C75652D0D0A0000000075
:103F50000040014067726173703300007A687561D8
:103F60002B0D0A0041726D302025640A000000000C
:103F70007A6875612D0D0A0041726D312B0D0A00B2
:103F80008501002041726D312025640A0000000087
:103F900041726D312D0D0A0041726D322B0D0A00F8
:103FA0003444014041726D322025640A0000000053
:103FB00041726D322D0D0A007348007820280FD110
:103FC00072A000F0A4FA73480068734909780844A5
:103FD000704908600846016870A002F01DFCC9E045
:103FE0006948007821280FD16FA000F090FA694845
:103FF000006869490978401A6649086008460168FE
:1040000066A002F009FCB5E05F480078222811D1D3
:1040100067A000F07CFA5F48001D00685E490978DF
:1040200008445C49091D08600846016862A002F066
:10403000F3FB9FE054480078232811D161A000F0E1
:1040400066FA5448001D006853490978401A5149DE
:10405000091D08600846016857A002F0DDFB89E0F1
:104060004948007824280DD158A000F050FA4A4859
:104070000078C01C484908700846017855A002F035
:10408000CBFB77E04048007825280DD153A000F005
:104090003EFA41480078C01E3F4908700846017842
:1040A0004CA002F0B9FB65E037480078262805D11E
:1040B0004CA000F02CFAFDF740FC5BE032480078A1
:1040C000272805D14BA000F022FAFDF789FC51E02A
:1040D0002D480078282805D14AA000F018FAFDF7ED
:1040E000D2FC47E028480078292805D149A000F0F3
:1040F0000EFAFDF767FB3DE0234800782A2805D13A
:1041000048A000F004FAFDF7B2FB33E01E48007847
:104110002B2805D147A000F0FAF9FDF7DBFB29E0D9
:10412000194800782C2805D146A000F0F0F9FDF7D9
:10413000C9FA1FE0144800782D281BD14448416B70
:1041400044A002F069FB4248816BAFF2C81002F054
:1041500063FB44480168AFF2B41002F05DFB0D4808
:1041600001680EA002F058FB0A48001D016812A069
:1041700002F052FB40F225513B4801F0BCF93A48AD
:1041800001F0BCF810BD00008401002041726D33C5
:104190002B0D0A00341800408501002041726D3358
:1041A0002025640A0000000041726D332D0D0A00C5
:1041B00041726D342B0D0A0041726D342025640A62
:1041C0000000000041726D342D0D0A0074656D2BE6
:1041D0000D0A000074656D2025640A0074656D2D5C
:1041E0000D0A000067726173705F706C61796C6FAB
:1041F0006164310067726173705F706C61796C6FBC
:104200006164320067726173705F706C61796C6FAA
:1042100061643300706C6163655F706C61796C6FB1
:1042200061643100706C6163655F706C61796C6FA3
:1042300061643200706C6163655F706C61796C6F92
:104240006164330061726D5F6261636B0000000046
:10425000004001400D0A0D0A41726D302025640AAC
:1042600000000000344401400048004010B50446FE
:104270006FF0040000F0BCFDE11704EB5171C1F3D5
:10428000C701394A11701046007800EB4001C1EBBC
:10429000C0104FF6FF7101EAC0003449088010BD1C
:1042A0000146314A12784A434FF0E0235A61002216
:1042B0009A611A46126942F001021A6100BF4FF07A
:1042C000E022106900F001021AB100F48032002AE5
:1042D000F5D04FF0E022126922F001024FF0E02306
:1042E0001A6100229A6170470146204A12884A43A7
:1042F0004FF0E0235A6100229A611A46126942F097
:1043000001021A6100BF4FF0E022106900F00102C3
:104310001AB100F48032002AF5D04FF0E022126981
:1043200022F001024FF0E0231A6100229A617047E7
:1043300070B504464FF4077094FBF0F0C6B24FF42A
:10434000077094FBF0F100FB114085B205E04FF4DB
:104350000770FFF7C9FF701EC6B2002EF7D115B166
:104360002846FFF7C1FF70BD8601002088010020AC
:10437000014600BF704700BF4C4A128802F040025D
:10438000002AF9D0C2B2494B9A80704710B588B064
:1043900004460121084602F0E9F80121102002F04C
:1043A0003FF907220921424800F051FE07220A2165
:1043B0003F4800F04CFE4FF4C060069002208DF89C
:1043C0001C008DF81D0000208DF81E0001208DF8C6
:1043D0001F0006A9364800F0AFFD02940020ADF89A
:1043E0000C00ADF80E00ADF81000ADF814000C2074
:1043F000ADF8120002A92D4800F0C9FE01212B489A
:1044000000F04DFF4021294801F031F8012240F22F
:104410002551264800F0F9FF25208DF804000320DF
:104420008DF805008DF8060001208DF8070001A821
:1044300000F091FC08B010BD10B540F225511B48AA
:1044400001F01EF888B319498988C8B2194909785A
:1044500069B919490978FE2909D118490978FF294C
:1044600005D10121134A11700021154A117011491B
:104470000978012912D11349114A12788854104938
:104480000978491C0E4A117011460978012905D195
:104490000021084A117001210B4A11700649097860
:1044A000064A11700449087000BF10BD0010014099
:1044B0000000024000000020930100209401002031
:1044C0009201002002000020010000209449088091
:1044D00000BF9349091F098801F080010029F8D025
:1044E000704700B5024603E01078FFF7EFFF521C5B
:1044F00010780028F8D100BD8A49088000BF89499A
:10450000091F098801F080010029F8D0704700B523
:10451000024603E01078FFF7EFFF521C10780028E6
:10452000F8D100BD412803D141217F4A117006E036
:10453000422803D142217C4A117000E0704700BF3D
:10454000FCE708B540F225517548001F00F098FFC0
:10455000002875D07248001F00F0D0FE7349087023
:1045600008460078FFF7DEFF6F480078412826D123
:104570006E480078412810D002206D4908706B48C1
:10458000007850B1694800786A496B4A12788854BB
:1045900069480078401C6849087067480078072817
:1045A0004ED100206449087062484EF67D734FF486
:1045B0007842012100900846FEF725FA40E05A486B
:1045C000007842281CD15948007842280DD057481D
:1045D000007850B1554801785848594A12788154AA
:1045E00057480078401C5649087055480078022802
:1045F00026DD0020524908700320524908701FE050
:104600004948007843281BD14848007843280DD0FA
:104610004648007850B1454801784B48484A1278DE
:10462000815447480078401C454908704448007848
:10463000022805DD00204249087007204149087022
:1046400040F225513648001F00F055FF08BD10B557
:1046500088B004460121084601F088FF0121480482
:1046600001F0CDFF07220221384800F0F0FC0722BC
:104670000321364800F0EBFC0420069002208DF860
:104680001C008DF81D0001208DF81E008DF81F0004
:1046900006A92E4800F050FC0820069002208DF854
:1046A0001C008DF81D0000208DF81E008DF81F00E5
:1046B00006A9264800F040FC02940020ADF80C004A
:1046C000ADF80E00ADF81000ADF814000C20ADF8F8
:1046D000120002A91248001F00F059FD01211048E4
:1046E000001F00F0DCFD012240F225510C48001FA4
:1046F00000F08BFE40210A48001F00F0B8FE262083
:104700008DF8040003208DF805008DF806000120C7
:104710008DF8070001A800F01EFB08B010BD0000D6
:10472000044400400448004095010020A7010020F7
:10473000D00000209F010020A90100209701002047
:10474000A8010020140000209B010020000002406E
:1047500000B589B00121084601F051FF0121032075
:1047600001F004FF2020079002208DF82000002097
:104770008DF822008DF8230002208DF8210007A972
:10478000284800F0D9FB0820079007A9264800F028
:10479000D3FB01220521234800F059FC012203210B
:1047A000214800F054FC04A800F095FF0020ADF86B
:1047B00010004FF6FF7005900020ADF81800ADF81E
:1047C000120004A94FF0804000F051FF01A801F051
:1047D0005CFB01A94FF0804001F020FB012188071C
:1047E00001F0FAFB01221146900701F0E1FB0223E0
:1047F0001A460321580701F0AEFC00204FF080411B
:1048000048620121880700F0BBFF09B000BD10B568
:104810000121880701F0E3FB18B10121880701F0AD
:10482000EFFB10BD000002400004024000B589B05B
:104830000121022001F0E3FE0121084601F096FE6D
:10484000C020079002208DF8200000208DF8220063
:104850008DF8230007A9254800F06EFB02220621EF
:10486000224800F0F4FB02220721204800F0EFFB71
:1048700004A800F030FF0020ADF810004FF6FF70E4
:1048800005900020ADF81800ADF8120004A91848F2
:1048900000F0EDFE01A801F0F8FA01A9144801F0BA
:1048A000BDFA0121124801F097FB01221146104880
:1048B00001F07EFB02231A4603210D4801F04BFC58
:1048C00000200B49243108600121094800F058FFFD
:1048D00009B000BD10B50121054801F080FB18B1F9
:1048E0000121034801F08CFB10BD000000000240D4
:1048F0000004004000B589B00121042001F07FFED2
:104900000121022001F032FEC020019002208DF82A
:10491000080000208DF80A008DF80B0001A9264838
:1049200000F00AFB02220621234800F090FB02223D
:104930000721214800F08BFB06A800F0CCFE0020E8
:10494000ADF818004FF6FF7007900020ADF820007A
:10495000ADF81A0006A9194800F089FE03A801F075
:1049600094FA0020ADF8140003A9144801F056FA97
:104970000121124801F030FB012211460F4801F0DD
:1049800017FB02231A4603210C4801F0E4FB002028
:104990000A49243108600121084800F0F1FE09B0FD
:1049A00000BD10B50121054801F019FB18B1012126
:1049B000024801F025FB10BD000402400008004041
:1049C00000B589B00121082001F019FE0121084637
:1049D00001F0CCFD0320019002208DF8080000209A
:1049E0008DF80A008DF80B0001A9264800F0A4FA02
:1049F00002220021234800F02AFB02220121214843
:104A000000F025FB06A800F066FE0020ADF81800B7
:104A10004FF6FF7007900020ADF82000ADF81A00A7
:104A200006A9194800F023FE03A801F02EFA002081
:104A3000ADF8140003A9144801F0F0F9012112485F
:104A400001F0CAFA012211460F4801F0B1FA02231F
:104A50001A4603210C4801F07EFB00200A4924314C
:104A600008600121084800F08BFE09B000BD10B5B8
:104A70000121054801F0B3FA18B10121024801F003
:104A8000BFFA10BD00000240000C00407FB5054693
:104A90000C460121102001F0B2FD0295ADF8044052
:104AA0000020ADF80C00ADF8060001A90F4800F099
:104AB000DEFD01210D4801F08FFA012211460B485D
:104AC00001F076FA36208DF8000000208DF8010004
:104AD00001208DF802008DF80300684600F03BF9D4
:104AE0000121024800F04CFE7FBD00000010004094
:104AF0007FB505460C460121202001F080FD02957E
:104B0000ADF804400020ADF80C00ADF8060001A996
:104B10002B4800F0ACFD0121294801F05DFA01228B
:104B20001146274801F044FA37208DF80000002094
:104B30008DF8010001208DF802008DF80300684611
:104B400000F009F901211E4800F01AFE7FBD10B5E2
:104B50002DED028B82B00121194801F040FA0028A6
:104B60002AD01848C06800901648836842680168D7
:104B700015A001F051FEFEF7DFFB19A001F04CFE7D
:104B8000002407E0184850F8241018A001F044FE53
:104B9000601CC4B2032CF5DD1548006802F044FF28
:104BA00041EC180B53EC182B12A001F035FE01213B
:104BB000034801F025FA00BF02B0BDEC028B10BD26
:104BC00000140040BC010020B1E0C2EBC6F75B2539
:104BD000642025642025642025645D090000000010
:104BE00050574D5B0000000070010020256420003C
:104BF000740000205D20C4BFB1EA5B252E30665DE5
:104C00000000000030B58BB005460C4601210220A3
:104C100001F006FD0121042001F0A8FC4FF47070A2
:104C2000019003208DF8090002208DF80800002073
:104C30008DF80A008DF80B0001A9324800F07CF9CC
:104C4000032206212F4800F002FA032207212D48F3
:104C500000F0FDF9032208212A4800F0F8F90322A8
:104C60000921284800F0F3F90995ADF8204000200B
:104C7000ADF82800ADF822008DF82A0008A92248D6
:104C800000F0F5FC6020ADF80C000120ADF80E003E
:104C90000020ADF810000590ADF81800ADF81A002E
:104CA000ADF81C00ADF81E0003A9174800F074FD14
:104CB00003A9154800F0A9FD03A9134800F0F2FD6F
:104CC00003A9114800F054FE08210F4800F0F1FE3E
:104CD00008210D4800F0F6FE08210B4800F0FFFE09
:104CE0000821094800F004FF0121074800F02AFDCF
:104CF0000121054800F044FD0121034801F031F98C
:104D00000BB030BD00080240000401400948804754
:104D100009480047FEE7FEE7FEE7FEE7FEE7FEE79D
:104D2000FEE7FEE7FEE7FEE704480549054A064BB5
:104D3000704700006D07000889010008300200205C
:104D400030080020300400203004002032490143A4
:104D5000324A1160704770B5002100230F22C478D9
:104D60001CB32E4C246804F4E064C4F5E064C4F37E
:104D70000721C1F10404E3B20A4144789C40E1B246
:104D80008478144021430C07210E254C0578615589
:104D9000047804F01F050124AC4005786D11AD00C6
:104DA00005F1E025C5F8004109E0047804F01F058D
:104DB0000124AC401B4D0678761145F8264070BDA5
:104DC000194A0A400243154B1B1F1A60704739B13C
:104DD000124A121D12680243104B1B1D1A6006E096
:104DE0000E4A121D126882430C4B1B1D1A6070473D
:104DF000042808D14FF0E021096941F004014FF087
:104E0000E022116107E04FF0E021096921F004017F
:104E10004FF0E022116170470000FA050CED00E050
:104E200000E400E080E100E080FFFF1F10B50446D1
:104E30009848844208D10121084601F002FC002173
:104E4000012001F0FEFB76E09348844208D1012165
:104E5000022001F0F6FB0021022001F0F2FB6AE0E3
:104E60008E48844208D10121042001F0EAFB002190
:104E7000042001F0E6FB5EE08948844208D101216C
:104E8000082001F0DEFB0021082001F0DAFB52E0EF
:104E90008448844208D10121102001F0D2FB002176
:104EA000102001F0CEFB46E07F48844208D101216A
:104EB000202001F0C6FB0021202001F0C2FB3AE0D7
:104EC0007A48844208D10121402001F0BAFB002138
:104ED000402001F0B6FB2EE07548844208D1012144
:104EE000802001F0AEFB0021802001F0AAFB22E02F
:104EF0007048844208D10121801501F0A2FB0021F5
:104F0000A01501F09EFB16E06B48844208D10121F8
:104F1000401501F096FB0021601501F092FB0AE0BC
:104F20006648844207D10121001501F08AFB002167
:104F3000201501F086FB10BDF0B50A4600210023C4
:104F4000002400BF3DE0012505FA01F3156805EADC
:104F500003049C4234D105684F000326BE40B5438C
:104F6000056015794E00B540066835430560157932
:104F7000012D02D01579022D16D185684F00032628
:104F8000BE40B543856055794E00B54086683543CF
:104F90008560456801268E40B54345604568967931
:104FA0008E40B6B235434560C5684F000326BE400B
:104FB000B543C560D5794E00B540C6683543C56078
:104FC000491C1029BFD3F0BD4FF6FF7101600021CD
:104FD000017141718171C171704708B54FF4803220
:104FE0000092009A0A430092009AC261C161009A3D
:104FF000C261C2690092C269009208BD02460020E7
:1050000013690B400BB1012000E0002070470146FE
:10501000086980B270470246002053690B400BB10B
:10502000012000E0002070470146486980B27047C7
:1050300001837047418370470AB1018300E04183D7
:1050400070474161704742694A4042617047F0B51C
:10505000002300244D07ED0E02FA05F3CE1000F1F7
:10506000200555F826504E07F70E0F26BE40B543D3
:10507000CF1000F1200646F82750CE1000F1200591
:1050800055F8265045EA0304CE1000F1200545F8F6
:105090002640F0BD0000024000040240000802402B
:1050A000000C0240001002400014024000180240B0
:1050B000001C024000200240002402400028024060
:1050C00010B50446FA48844208D10121102001F0AD
:1050D000FCFA0021102001F0F8FA57E0F54884426C
:1050E00009D10121480401F0DFFA00214FF400301A
:1050F00001F0DAFA4AE0F048844209D1012188043B
:1051000001F0D2FA00214FF4802001F0CDFA3DE009
:10511000EA48844209D10121C80401F0C5FA0021FE
:105120004FF4002001F0C0FA30E0E548844209D194
:105130000121080501F0B8FA00214FF4801001F0B8
:10514000B3FA23E0DF48844208D10121202001F096
:10515000BCFA0021202001F0B8FA17E0DA488442B6
:1051600009D10121880701F09FFA00214FF080400A
:1051700001F09AFA0AE0D548844207D1012140059E
:1051800001F092FA0021600501F08EFA10BD2DE9C0
:10519000FF4705460E460024A14600BFA046B08941
:1051A00000B100BF2C8A24F44054F08804432C82C0
:1051B000AC8941F20C608443B0883189084371891D
:1051C00008430443AC81AC8A24F44074B08904439E
:1051D000AC82684601F0F9F8B548854202D0B9487A
:1051E000854202D1DDF80C9001E0DDF80890A88935
:1051F00000F4004040B109EBC90000EB0910316830
:105200004900B0FBF1F707E009EBC90000EB09101A
:1052100031688900B0FBF1F76420B7FBF0F00401BE
:105220002009642101FB1078A88900F4004040B1F6
:10523000322000EBC800B0FBF1F000F0070004439F
:1052400008E0322000EB08106421B0FBF1F000F020
:105250000F0004432C81BDE8FF874FF41651016015
:1052600000218180C18001810C2141810021818147
:10527000704710B502460020108A20F470600B8839
:105280004C8823438C882343CC88234318431082C3
:1052900010BD0021018041808180C180704721B113
:1052A000828942F40052828104E082894DF6FF73C4
:1052B0001A4082817047028B02F47F420283028B84
:1052C0000A430283704721B1828942F400428281FD
:1052D00003E08289C2F30E028281704721B1828A83
:1052E00042F40062828204E0828A4FF2FF731A4025
:1052F00082827047C1F30802828070470146888825
:10530000C0F308007047028A4FF6F0731A40028219
:10531000028A0A430282704721B1828942F0020266
:10532000828104E082894FF6FD731A4082817047C2
:1053300082894FF2FF731A40828182890A438281F7
:105340007047028A4FF6DF731A400282028A0A43CC
:105350000282704721B1028A42F48042028204E054
:10536000028A4BF6FF731A4002827047818941F02E
:1053700001018181704721B1828A42F00802828254
:1053800004E0828A4FF6F7731A4082827047028BDC
:10539000D2B20283028B42EA01220283704721B11A
:1053A000828A42F02002828204E0828A4FF6DF7312
:1053B0001A408282704721B1828A42F010028282B2
:1053C00004E0828A4FF6EF731A4082827047828A25
:1053D0004FF6FB731A408282828A0A4382827047A8
:1053E00021B1828A42F00202828204E0828A4FF670
:1053F000FD731A40828270471AB1838A0B438382FD
:1054000002E0838A8B4383827047F0B50346002411
:1054100000260025002040F66A17B94200D100BFDF
:105420001846C1F3421401F01F06012707FA06F5DA
:10543000012C01D10C3004E0022C01D1103000E02D
:1054400014301AB107682F43076002E00768AF43C2
:105450000760F0BD02460020B1F5007F00D100BF1B
:1054600013880B400BB1012000E00020704701F4CD
:105470000072B2F5007F00D100BFCA4302807047BE
:1054800070B50246002400230025002040F66A166D
:10549000B14200D100BFC1F3421501F01F03012644
:1054A00006FA03F3012D13D19689334017E000006B
:1054B000001001400044004000480040004C004003
:1054C000005000400014014000780040007C004083
:1054D000022D02D1168A334001E0968A33400C1225
:1054E000012606FA04F41688344013B10CB10120E9
:1054F00000E0002070BD10B50022002340F66A14C1
:10550000A14200D100BF0A1201249440A3B2DC439F
:10551000048010BD10B50446FE48844208D1012124
:10552000084601F0D2F80021012001F0CEF89DE0FC
:10553000B4F1804F08D10121084601F0B5F80021EF
:10554000012001F0B1F891E0F348844208D1012133
:10555000022001F0A9F80021022001F0A5F885E061
:10556000EE48844208D10121042001F09DF8002179
:10557000042001F099F879E0E948844208D101213A
:10558000082001F091F80021082001F08DF86DE06D
:10559000E448844208D10121102001F085F800215F
:1055A000102001F081F861E0DF48844208D1012138
:1055B000202001F079F80021202001F075F855E055
:1055C000DA48844208D10121022001F07EF800214E
:1055D000022001F07AF849E0D548844209D101213E
:1055E000080401F072F800214FF4803001F06DF8EA
:1055F0003CE0D048844209D10121480401F065F81B
:1056000000214FF4003001F060F82FE0CA488442D6
:1056100009D10121880401F058F800214FF48020BD
:1056200001F053F822E0C548844208D1012140200E
:1056300001F03AF80021402001F036F816E0C048A9
:10564000844208D10121802001F02EF80021802021
:1056500001F02AF80AE0BB48844207D101218015F5
:1056600001F022F80021A01501F01EF810BD002263
:105670000288A84B98420ED0AC4B98420BD0B0F1A8
:10568000804F08D0A44B984205D0A44B984202D03A
:10569000A34B984204D14FF68F731A404B881A439C
:1056A000A04B984207D0A04B984204D04FF6FF433E
:1056B0001A400B891A4302804B68C3620B8803852A
:1056C000944B984202D0994B984201D18B7A038631
:1056D0000123838270474FF0FF3141600021018038
:1056E00001814180817270470185828270470A463C
:1056F000002101884FF68F731940114301807047D4
:1057000041627047C16270470146486A704701466E
:10571000088D704721B1028842F00202028004E045
:1057200002884FF6FD731A400280704721B102884B
:1057300042F00402028004E002884FF6FB731A4034
:105740000280704721B1028842F08002028004E0AA
:1057500002884FF67F731A400280704702884FF626
:10576000F7731A40028002880A4302807047028859
:105770004FF6FF431A40028002880A4302807047B6
:1057800021B1028842F00102028004E002884FF653
:10579000FE731A400280704770B500240022002377
:1057A000058C4FF6FE7635400584028C8388048B89
:1057B0004FF68F752C40B51E2C400D882C43751E5E
:1057C0002A408D892A434D882A43524DA84202D04F
:1057D000564DA84213D14FF6F7752A40CD892A437A
:1057E0004FF6FB752A408D882A434FF6FF652B4004
:1057F0004FF6FF552B400D8A2B434D8A2B43838058
:1058000004838D684563028470BD70B50024002256
:105810000023058C4FF6EF7635400584028C838893
:10582000048B48F6FF752C404FF6FF452C400D8841
:105830004FF6FF7606EA05252C434FF6DF752A4022
:105840008D8906EA05152A434D8806EA05152A437F
:10585000304DA84202D0354DA8421DD14FF67F757C
:105860002A40CD894FF6FF7606EA05152A434FF602
:10587000BF752A408D8806EA05152A434FF6FF3585
:105880002B404FF2FF752B400D8A06EA85052B430E
:105890004D8A06EA85052B43838004838D688563E2
:1058A000028470BD70B5002400220023058C4FF6E1
:1058B000FF6635400584028C8388848B4FF68F7594
:1058C0002C404FF6FC752C400D882C434FF6FF55AD
:1058D0002A408D894FF6FF7606EA05252A434D8832
:1058E00006EA05252A430B4DA84202D00F4DA842D7
:1058F00038D14FF2FF752A40CD894FF6FF7606EA80
:1059000005252A434FF6FF352A408D8806EA0525EE
:105910002A4319E000000140000400400008004054
:10592000000C004000100040001400400004014042
:105930000040014000440140004801400018004080
:10594000001C0040002000404EF6FF752B404DF635
:10595000FF752B400D8A06EA05152B434D8A06EA92
:1059600005152B43838084838D68C563028470BDD5
:1059700070B5002200230024058C4EF6FF763540DA
:105980000584038C8488828B48F6FF752A404FF685
:10599000FF452A400D884FF6FF7606EA05252A4383
:1059A0004DF6FF752B408D8906EA05352B434D8852
:1059B00006EA05352B43FE4DA84202D0FD4DA84214
:1059C00008D14BF6FF752C400D8A4FF6FF7606EA9C
:1059D00085152C43848082838D680564038470BDA3
:1059E000002101804180818081608181C1810182AB
:1059F0004182704770B503460020002418461830D5
:105A000001258D40ACB21D8CA5431D8409B1082928
:105A10000AD100EB610005684FF68F7635400560CE
:105A20000568154305600FE00D1FC5F34E052844BA
:105A3000056848F6FF763540056005684FF6FF7645
:105A400006EA02263543056070BD416370478163F5
:105A50007047C1637047016470470A460021018B9B
:105A60004FF68F7319401143018370470A46002196
:105A7000018B48F6FF7319404FF6FF7303EA0223C8
:105A80001943018370470A460021818B4FF68F73BB
:105A900019401143818370470A460021818B48F6E3
:105AA000FF7319404FF6FF7303EA02231943818302
:105AB00070470A460021018B4FF6F77319401143D6
:105AC000018370470A460021018B4FF2FF73194092
:105AD0004FF6FF7303EA02231943018370470A4616
