:020000040800F2
:1000000030080020755B0008F9070008FB070008AE
:10001000FF070008030800080708000800000000A8
:100020000000000000000000000000000B080008B5
:100030000D080008000000000F0800081108000863
:100040008F5B00088F5B00088F5B00088F5B0008E8
:100050008F5B00088F5B00088F5B00088F5B0008D8
:100060008F5B00088F5B00088F5B00088F5B0008C8
:100070008F5B00088F5B00088F5B00088F5B0008B8
:100080008F5B00088F5B00088F5B00088F5B0008A8
:100090008F5B00088F5B00088F5B00088F5B000898
:1000A0008F5B00088F5B00088F5B00088F5B000888
:1000B000775600083D5700080B5800088F5B000872
:1000C0008F5B00088F5B00088F5B00088F5B000868
:1000D0008F5B0008A1520008AB5300084747000897
:1000E0008F5B00088F5B00088F5B00088F5B000848
:1000F0008F5B00088F5B00088F5B00088F5B000838
:100100008F5B00088F5B0008D75800088F5B0008E2
:100110008F5B00088F5B0008451A0008B75900087C
:100120008F5B00088F5B00088F5B00088F5B000807
:100130008F5B00088F5B00088F5B00088F5B0008F7
:100140008F5B00088F5B00088F5B00088F5B0008E7
:100150008F5B00088F5B00088F5B00088F5B0008D7
:100160008F5B00088F5B00088F5B00088F5B0008C7
:100170008F5B00088F5B00088F5B00088F5B0008B7
:100180008F5B00088F5B000800F002F800F06FF84A
:100190000AA090E8000C82448344AAF10107DA45E2
:1001A00001D100F064F8AFF2090EBAE80F0013F0C5
:1001B000010F18BFFB1A43F00103184758A00000B5
:1001C00078A000000A444FF0000C10F8013B13F037
:1001D000070408BF10F8014B1D1108BF10F8015BA0
:1001E000641E05D010F8016B641E01F8016BF9D193
:1001F00013F0080F1EBF10F8014BAD1C0C1B09D1EA
:100200006D1E58BF01F801CBFAD505E014F8016B5B
:1002100001F8016B6D1EF9D59142D6D370470000ED
:100220000023002400250026103A28BF78C1FBD8FF
:10023000520728BF30C148BF0B607047662908F0DD
:100240009D83642907F02882782907F061820020C5
:1002500070471FB508F08DFB07F08CFD04000020EF
:10026000002108F0F9FAE0601FBD10B510BD07F0DD
:100270009DFE1146FFF7EDFF00F008F807F0BBFE0A
:1002800003B4FFF7F2FF03BC04F0A6FF08B54FF478
:10029000A06005F08FFCA82004F01CFF4FF4E130B3
:1002A00004F0A8FF4FF4165005F005F94FF4E130C3
:1002B00004F0DEF904F0EFFE02F0FAF903F08DFC31
:1002C00003F00AFE03F0B4FF532140F2F31005F0EF
:1002D000CDFB05F071F905F0DDF905F03FFA05F009
:1002E000A3FA42F2CF01962005F004FB04F075F862
:1002F000F7A007F0C5F9F9A04EF67D734FF47842E8
:1003000001210090084603F03AF972E2F5480078BE
:1003100001280ED1F448F549096801600078F449D4
:10032000087008460178F3A007F0AAF90020ED490B
:100330000870EF48007864286FD2DFE800F032469A
:100340005A6F8397ABBFFFFD6E6E6E6E6E6EFCFBD9
:10035000FAF9F8F7F6F5F4F36E6E6E6E6E6EF2F172
:10036000F0EFEEED6E6E6E6E6E6E6E6E6E6EECEBB0
:100370006E6E6E6E6E6E6E6E6E6E6E6E6E6EEAE9A6
:10038000E8E7E6E5E4E3E2E16E6E6E6E6E6EE0DFF6
:10039000DEDDDCDBDAD9D8D76E6E6E6E6E6ED6D54A
:1003A000D4D30020D7490870D74CA489A3B2D64C27
:1003B0002489A2B2D44CA488A1B2D34C2488A0B280
:1003C00004F093F803F0D1FF0FE20020CD4908704C
:1003D000CD4CA489A3B2CC4C2489A2B2CA4CA48827
:1003E000A1B2C94C2488A0B204F07FF803F0CBFF7F
:1003F000FBE10020C3490870C34CA489A3B2C24CDE
:100400002489A2B2C04CA488A1B2BF4C2488A0B257
:1004100004F06BF803F0D3FFE7E1E5E10020B94910
:100420000870B94CA489A3B2B74C2489A2B2B64CC7
:10043000A488A1B2B44C2488A0B204F056F803F00A
:10044000B0FFD2E10020AF490870AF4CA489A3B23D
:10045000AD4C2489A2B2AC4CA488A1B2AA4C248889
:10046000A0B204F042F803F0D4FFBEE10020A54999
:100470000870A54CA489A3B2A34C2489A2B2A24CB3
:10048000A488A1B2A04C2488A0B204F02EF803F0F6
:10049000B2FFAAE100209B4908709B4CA489A3B23B
:1004A000994C2489A2B2984CA488A1B2964C248875
:1004B000A0B204F01AF803F0BAFF96E100209149C7
:1004C0000870914CA489A3B28F4C2489A2B28E4C9F
:1004D000A488A1B28C4C2488A0B204F006F803F0E2
:1004E000B4FF82E178E16FE166E15DE154E14BE167
:1004F00042E139E130E127E11EE115E10CE1DFE005
:10050000D6E0CDE0C4E0BBE0B2E0A9E0A0E097E037
:100510008EE085E080E07BE075E06FE069E05EE022
:1005200053E051E04FE04DE044E03BE032E029E0B1
:1005300020E017E010E009E004E0FFE70A2003F004
:10054000A0FF52E10A2003F0B6FF4EE100206D4902
:10055000087003F042FF48E100206A49087003F088
:100560003CFF42E101F067FB03F03CFE01206549DE
:1005700008703AE101F05FFB03F034FE02206149AC
:10058000087032E101F057FB03F02CFE03205D49B7
:1005900008702AE101F04FFB03F024FE04205949C2
:1005A000087022E101F047FB03F01CFE05205549CD
:1005B00008701AE101F03FFB03F014FE06205149D8
:1005C000087012E111E110E10FE1504890ED000ACE
:1005D000F2EE040A30EE200A80ED000A05E14B48F5
:1005E00090ED000AF2EE040A30EE600A80ED000A97
:1005F000FBE03121464805F0B1FDF6E032214448E8
:1006000005F0ACFDF1E03321414805F0A7FDECE039
:10061000012040490870E8E000203E490870E4E00D
:10062000B7EE000A01221146104600F0FBF9DCE0AB
:10063000B7EE000A00220121084600F0F3F9D4E0E9
:10064000B7EE000A01220221104600F0EBF9CCE0DF
:10065000B7EE000A00220221012000F0E3F9C4E015
:10066000B7EE000A01220321104600F0DBF9BCE0DE
:10067000B7EE000A00220321012000F0D3F9B4E014
:10068000B7EE000A01221146022000F0CBF9ACE0DF
:10069000B7EE000A00220121022000F0C3F9A4E015
:1006A000B7EE000A01220221084600F0BBF99CE0E7
:1006B000B7EE000A00220221084600F0B3F994E0E8
:1006C000B7EE000A01220321022000F0ABF98CE012
:1006D000B3F5CABCBBAFCDEAB3C90A003132332B84
:1006E000333231000100002006000020020000200B
:1006F00010000020CAD5B5BD7531D6B8C1EEA3BA79
:1007000025780000D0000020700100207400002037
:10071000004400406C010020B7EE000A00220321D3
:10072000022000F07FF960E0B7EE000A01221146D6
:10073000032000F077F958E0B7EE000A002201210B
:10074000032000F06FF950E0B7EE000A0122022109
:10075000032000F067F948E0B7EE000A002202210A
:10076000032000F05FF940E0B7EE000A0122032108
:10077000084600F057F938E0B7EE000A00220321DE
:10078000084600F04FF930E0B7EE000A01221146AA
:10079000042000F047F928E0B7EE000A002201210A
:1007A000042000F03FF920E0B7EE000A0122022108
:1007B000042000F037F918E0B7EE000A0022022109
:1007C000042000F02FF910E0B7EE000A0122032107
:1007D000042000F027F908E0B7EE000A0022032108
:1007E000042000F01FF900E000BF00BF64200149B1
:1007F00008708BE510000020704700BFFEE700BFC7
:10080000FEE700BFFEE700BFFEE770477047704796
:10081000704700000CB500200190009076480068F9
:1008200040F480307449086000BF7348006800F4E9
:10083000003000900198401C0190009818B9019870
:10084000B0F5A04FF1D16C48006800F4003010B151
:100850000120009001E0002000900098012846D17E
:1008600065484030006840F080506349403108607E
:100870006248006840F44040604908605E480830C3
:1008800000685D49083108600846006840F400408F
:1008900008600846006840F4A05008605848091FE6
:1008A0000860081F006840F08070091F086000BFE2
:1008B0005148006800F000700028F9D040F205703F
:1008C000504908604C480830006820F003004A494D
:1008D000083108600846006840F00200086000BF68
:1008E00045480830006800F00C000828F8D10CBD1D
:1008F00010B54548006840F47000434908603E4820
:10090000006840F001003C49086000203A49083185
:100910000860394800683D490840374908603C484C
:10092000091D0860081F006820F48020091F086066
:10093000002031490C310860FFF76CFF4FF0006078
:1009400031498039086010BD70B5002000220223B3
:1009500000240221284D08352D6805F00C0020B137
:10096000042806D0082834D107E02A4D2A4E3560E5
:1009700033E02A4D284E35602FE01F4D2D1D2D6888
:10098000C5F380541C4D2D1D2D6805F03F0154B159
:10099000224DB5FBF1F5184E361D3668C6F38816A4
:1009A00005FB06F209E01B4DB5FBF1F5124E361DB5
:1009B0003668C6F3881605FB06F20F4D2D1D2D680F
:1009C000C5F301456D1C6B00B2FBF3F5124E3560AB
:1009D00003E0104D104E356000BF00BF064D0835D6
:1009E0002D68C5F303150E4E705D0B4D2D68C54087
:1009F000094E356070BD00000038024000700040B4
:100A000008544007003C024088ED00E0FFFFF6FE7E
:100A1000103000240024F4001800002000127A0096
:100A20001C00002070B52DED088B84B006460C46E6
:100A30001546B0EE408A012E06D0022E3BD0032E82
:100A400072D0042E6FD1A6E0012C0FD13DB1FC482D
:100A500090ED000A30EE080A80ED000A06E0F84842
:100A600090ED000A30EE480A80ED000A022C0FD10A
:100A70003DB1F44890ED000A30EE080A80ED000A1E
:100A800006E0F04890ED000A30EE480A80ED000ADA
:100A9000032C0FD13DB1EC4890ED000A30EE080A6E
:100AA00080ED000A06E0E84890ED000A30EE480AC2
:100AB00080ED000AA7E0012C0FD13DB1E34890ED95
:100AC000000A30EE080A80ED000A06E0DF4890EDEB
:100AD000000A30EE480A80ED000A022C0FD13DB129
:100AE000DB4890ED000A30EE080A80ED000A06E0CF
:100AF000D74890ED000A30EE480A80ED000A032C3A
:100B00000FD13DB1D34890ED000A30EE080A80EDD8
:100B1000000A06E0CF4890ED000A30EE480A80ED6A
:100B2000000A70E000E06DE0012C0FD13DB1CA4831
:100B300090ED000A30EE080A80ED000A06E0C64893
:100B400090ED000A30EE480A80ED000A022C0FD129
:100B50003DB1C24890ED000A30EE080A80ED000A6F
:100B600006E0BE4890ED000A30EE480A80ED000A2B
:100B7000032C0FD13DB1BA4890ED000A30EE080ABF
:100B800080ED000A06E0B64890ED000A30EE480A13
:100B900080ED000A37E0012C0FD13DB1B14890ED56
:100BA000000A30EE080A80ED000A06E0AD4890ED3C
:100BB000000A30EE480A80ED000A022C0FD13DB148
:100BC000A94890ED000A30EE080A80ED000A06E020
:100BD000A54890ED000A30EE480A80ED000A032C8B
:100BE0000FD13DB1A14890ED000A30EE080A80ED2A
:100BF000000A06E09D4890ED000A30EE480A80EDBC
:100C0000000A00E000BF00BF8F48006807F040FE08
:100C100041EC190B8B48006807F03AFE41EC1A0BC7
:100C20008748006807F034FE41EC1B0B8DED029BFA
:100C30008DED00AB53EC1B2B8DA006F021FD8548FC
:100C4000006807F025FE41EC190B8148006807F0A9
:100C50001FFE41EC1A0B7D48006807F019FE41ECBD
:100C60001B0B8DED029B8DED00AB53EC1B2B80A07D
:100C700006F006FD7A48006807F00AFE41EC190B01
:100C80007648006807F004FE41EC1A0B72480068D1
:100C900007F0FEFD41EC1B0B8DED029B8DED00ABD3
:100CA00053EC1B2B72A006F0EBFC7048006807F0B9
:100CB000EFFD41EC190B6C48006807F0E9FD41ECD1
:100CC0001A0B6848006807F0E3FD41EC1B0B8DED43
:100CD000029B8DED00AB53EC1B2B6AA006F0D0FC01
:100CE00004B0BDEC088B70BD90ED000AB8EEC00AF0
:100CF0006949D1ED000AB4EEE00AF1EE10FA05DD23
:100D000091ED000ABDEEC00A80ED000A90ED000AE8
:100D1000B8EEC00A6049D1ED000AF1EE600AB4EE07
:100D2000E00AF1EE10FA07D291ED000AB1EE400AA6
:100D3000BDEEC00A80ED000A704708B5F0EE401A1B
:100D4000564890ED000A31EEC00AB0EE401A544801
:100D500090ED000A31EE400AB0EE402A514890ED85
:100D6000000A3848D0ED000A20EE200A4E4880EDF7
:100D7000000A334890ED000A60EE010AF2EE042A00
:100D800080EEA20A3048D0ED000A60EE820AF2EE50
:100D9000042A80EEA23A30EE030A4348D0ED000A5E
:100DA00030EE200ABDEEC00A8DED000A3C4880ED11
:100DB000001A6846FFF798FF009808BD08B5F0EEE6
:100DC000401A364890ED000A31EEC00AB0EE401AE3
:100DD000364890ED000A31EE400AB0EE402A344821
:100DE00090ED000A1A48D0ED000A20EE200A3148A2
:100DF00080ED000A154890ED000A60EE010AF2EE5F
:100E0000042A80EEA20A1348D0ED000A60EE820A9E
:100E1000F2EE042A80EEA23A30EE030A2548D0ED25
:100E2000000A30EE200ABDEEC00A8DED000A1F4810
:100E300080ED001A6846FFF757FF009808BD0000D4
:100E400044000020480000204C00002050000020FA
:100E500054000020580000205C00002060000020AA
:100E600064000020680000206C000020700000205A
:100E70005B252E306620252E306620252E30665DBF
:100E8000090000005B252E306620252E30662025C7
:100E90002E30665D0A0000007800002074000020FB
:100EA0008000002084000020880000208C000020AA
:100EB000900000209400002008B5F0EE401AB448DD
:100EC00090ED000A31EEC00AB0EE401AB14890ED44
:100ED000000A31EE400AB0EE402AAF4890ED000A19
:100EE000AE48D0ED000A20EE200AAD4880ED000AA1
:100EF000AC4890ED000A60EE010AF2EE042A80EEA2
:100F0000A20AA948D0ED000A60EE820AF2EE042A95
:100F100080EEA23A30EE030AA148D0ED000A30EE8E
:100F2000200ABDEEC00A8DED000A9A4880ED001A35
:100F30006846FFF7D9FE009808BD08B5F0EE401AE4
:100F4000934890ED000A31EEC00AB0EE401A97487F
:100F500090ED000A31EE400AB0EE402A944890ED40
:100F6000000A9448D0ED000A20EE200A924880ED55
:100F7000000A924890ED000A60EE010AF2EE042A9F
:100F800080EEA20A8E48D0ED000A60EE820AF2EEF0
:100F9000042A80EEA23A30EE030A8748D0ED000A18
:100FA00030EE200ABDEEC00A8DED000A7F4880EDCC
:100FB000001A6846FFF798FE009808BDF0EE400A58
:100FC0008049097801EE901AF8EE611A70EEE11A84
:100FD000B0EE610A7C49D1ED001A70EE611AB0EEF4
:100FE000611A7A49D1ED001AB7EE002A71EE821A21
:100FF000C1ED001AB3EE0E2AF4EEC21AF1EE10FAA9
:1010000030DDDFED731AC1ED001A7249D1ED001A1F
:1010100071EE801AC1ED001AD1ED001A9FED6E2A13
:10102000F4EEC21AF1EE10FA03D2DFED6B1AC1ED45
:10103000001A6849D1ED001A9FED682AF4EEC21A31
:10104000F1EE10FA03DDDFED651AC1ED001A61491A
:10105000D1ED001A624991ED002A61EE821A6149D0
:10106000C1ED001A6049D1ED001A21EE802ADFEDB2
:101070005F2AC2EE221A5E4991ED002A22EE012A71
:10108000F2EE042A82EE223A71EE831A554991ED6E
:10109000002A71EE821AFDEEE11A11EE900A4A4919
:1010A00081ED000A7047F0EE400A4649097801EEEA
:1010B000901AF8EE611A70EEE11AB0EE610A4D492D
:1010C000D1ED001A70EE611AB0EE611A4A49D1ED05
:1010D000001AB7EE002A71EE821AC1ED001AB3EEC3
:1010E0000E2AF4EEC21AF1EE10FA30DDDFED381AF6
:1010F000C1ED001A4149D1ED001A71EE801AC1ED1F
:10110000001AD1ED001A9FED342AF4EEC21AF1EE66
:1011100010FA03D2DFED301AC1ED001A3749D1EDD4
:10112000001A9FED2E2AF4EEC21AF1EE10FA03DD3A
:10113000DFED2A1AC1ED001A3049D1ED001A30490D
:1011400091ED002A61EE821A2E49C1ED001A2E4956
:10115000D1ED001A21EE802ADFED242AC2EE221AF8
:101160002A4991ED002A22EE012AF2EE042A82EEAB
:10117000223A71EE831A234991ED002A71EE821A08
:10118000FDEEE11A11EE900A1A4981ED000A70474E
:1011900074000020980000209C00002060000020C7
:1011A000A00000205C00002064000020A4000020BB
:1011B000A80000206C000020AC0000206800002087
:1011C000700000207C000020B0000020BC00002047
:1011D00000000000B40000200000FAC30000FA4341
:1011E00030000020B80000202C0000200000C84281
:1011F00034000020C0000020CC000020C4000020EB
:101200003C000020C80000203800002040000020E2
:1012100010B52DED028B82B0022002F029FE041ED3
:1012200001DB204600E06042FE490860032002F036
:101230001FFE041E01DB204600E06042F9494860C1
:10124000042002F015FE041E01DB204600E060428F
:10125000F4498860052002F00BFE041E01DB2046E5
:1012600000E06042EF49C860EF480078D0BB084614
:10127000D0ED000AF8EEE00AB0EE600AFFF75DFD7F
:10128000EA4909680844EA490860E648D0ED010ADD
:10129000F8EEE00AB0EE600AFFF790FDE349496816
:1012A0000844E349091D0860DE48D0ED020AF8EE63
:1012B000E00AB0EE600AFFF7FFFDDC4989680844E8
:1012C000DB490C310860D748D0ED030AF8EEE00A9C
:1012D000B0EE600AFFF731FED449C9680844D4492A
:1012E00008310860CF48C0680090CE4883684268E3
:1012F0000168D0A006F0C4F9CD480830006800901D
:10130000CB480C300368CA48001D0268001F016802
:10131000CEA006F0B5F9D248006807F0B9FA41EC62
:10132000180B53EC182BCFA006F0AAF9D0A006F0AA
:10133000A7F902B0BDEC028B10BD10B502F042FE61
:10134000CC49088002F074FECB490880CB48007875
:1013500050B903F034F80120C94908700320C94985
:1013600008700120C549087002F0AFFEC14800882E
:1013700040F2E931884206D1C0480078012802D104
:101380000220BE490870BB48008840F2564188429E
:1013900006D1BA480078022802D10320B749087064
:1013A000B448008840F2E931884206D1B348007859
:1013B000032802D10420B1490870AE48008840F2E9
:1013C0005641884206D1AD480078042802D1052054
:1013D000AA490870A748008840F2E931884217D12D
:1013E000A6480078052813D10620A44908709C4817
:1013F00090ED000AF2EE040A30EE600A80ED000A79
:1014000002F0B3FF00209E49087001209D4908703A
:1014100098480088C8B999480078062815D107204F
:101420009649087002F0D9FF02F0DCFE04209649CC
:1014300008708B4890ED000AF2EE040A30EE200AA4
:1014400080ED000A002091490870FFF7E1FE10BD11
:1014500010B502F0B7FD8749088002F0E9FD864922
:1014600008808648007848B902F07FFF0020844950
:1014700008700120834908708049087002F025FE39
:101480007D48008840F2E931884206D17B480078E7
:10149000012802D10220794908707748008840F27B
:1014A0005641884206D175480078022802D10320AF
:1014B000724908707048008840F2E931884206D1CC
:1014C0006E480078032802D104206C4908706A48ED
:1014D000008840F25641884206D1684800780428C6
:1014E00002D10520654908706348008840F2E9315F
:1014F00088420ED16148007805280AD102F051FFD8
:1015000001205F49087004205E49087006205B498D
:1015100008705848008840F2E931884206D157489F
:101520000078062802D107205449087051480088E5
:1015300040F25641884206D150480078072802D12F
:1015400008204E4908704B48008840F2E931884233
:1015500006D14A480078082802D109204749087076
:101560004448008840F25641884206D143480078FA
:10157000092802D10A20414908703E48008840F2FB
:10158000E93188420DD13D4800780A2809D102F09E
:1015900024FF02F027FE00203C4908700B20374949
:1015A000087010BD10B502F00DFD3249088002F040
:1015B0003FFD314908803148007850B902F0E3FE20
:1015C00000202F49087002202E49087001202B4965
:1015D000087002F07AFD2848008840F2E93188421C
:1015E0000ED12648007801280AD102F0E8FE012039
:1015F0002349087003202349087002201F490870FE
:101600001C48008840F2E931884206D11B48007826
:10161000022802D10320194908701648008840F2B8
:10162000564135E0BC0100206C0100207001002013
:1016300034040140B1E0C2EBC6F75B2564202564A9
:101640002025642025645D090000000050574D5B93
:1016500025642025642025642025645D09000000A0
:101660007400002054535B252E30665D000000009E
:101670000A000000D4000020D6000020D100002085
:10168000680100206901002014000020D000002023
:10169000884206D1F7480078032802D10420F54992
:1016A0000870F548008840F2E931884206D1F148D7
:1016B0000078042802D10520EE490870EE48008821
:1016C00040F25641884206D1EA480078052802D106
:1016D0000620E8490870E848008840F2E93188426D
:1016E0000ED1E448007806280AD102F04CFE002012
:1016F000E24908700220E24908700720DD490870BD
:10170000E048008840F2E931884206D1D9480078A3
:10171000072802D10820D7490870DA48008840F22B
:101720005641884206D1D3480078082802D10920C2
:10173000D0490870D348008840F2E931884206D188
:10174000CC480078092802D10A20CA490870CD483F
:10175000008840F25641884206D1C64800780A28DF
:1017600002D10B20C3490870C648008840F2E93115
:10177000884210D1BF4800780B280CD102F02DFE12
:1017800002F030FD0020C04908700520BF490870F4
:101790000C20B849087010BD10B502F013FCB64912
:1017A000088002F045FCB7490880B348008840F241
:1017B000E931884208D1B3480088884204D102F058
:1017C0000CFE02F00FFD32E0AB48008840F25641BB
:1017D000884205D0A848008840F24C41884202D196
:1017E00002F0DFFD23E0A44800886F2803D0A24860
:1017F00000880B2802D102F0E2FD18E0A148008821
:1018000040F25641884205D09E48008840F24C4143
:10181000884202D102F0B7FD09E09A4800886F289B
:1018200003D0984800880B2801D102F09EFD10BD1E
:1018300010B5FFF7B1FFFFF7EBFC10BD10B502F0DC
:10184000C1FB8D49088002F0F3FB8E49088089486E
:10185000007848B902F089FD00208849087001200D
:10186000874908708349087002F02FFC854800887A
:1018700040F2E931884206D17E480078012802D141
:1018800002207C4908707F48008840F25641884217
:1018900006D178480078022802D1032075490870E3
:1018A0007848008840F2E931884206D171480078D2
:1018B000032802D104206F4908707248008840F262
:1018C0005641884206D16B480078042802D1052091
:1018D000684908706B48008840F2E931884206D1B7
:1018E00064480078052802D10620624908706548DE
:1018F000008840F2564188420FD15E4800780628A1
:101900000BD107205B490870614890ED000AF2EEA8
:10191000040A30EE600A80ED000A5A48008840F25E
:10192000E931884203D0574800880B2808D1514834
:101930000078072804D108204E49087002F04DFDB8
:101940004C480078082801D1FFF726FFFFF760FC1C
:1019500010BD10B502F036FB4749088002F068FB65
:10196000484908804348007808B902F028FD4248F9
:10197000008840F2E93188420CD13E48007848B9ED
:1019800002F0F3FC00203D49087001203C4908703A
:101990003849087002F099FB3A48008840F2E93172
:1019A000884206D133480078012802D1022031490B
:1019B00008703448008840F25641884206D12D48CC
:1019C0000078022802D103202A4908702D48008897
:1019D00040F2E931884206D126480078032802D136
:1019E0000420244908702748008840F25641884264
:1019F00009D120480078042805D103202549087022
:101A000005201C49087023480078002808DD194883
:101A10000078052804D11F480078401E1D49087031
:101A20001C48007858B913480078052807D102F0FF
:101A3000D4FC002014490870012014490870FFF7F5
:101A4000E7FB10BD10B50121134805F0FCF9002893
:101A500045D00D4800780D283BD2DFE800F007089C
:101A60001F2225282B2E2F303134370032E0FFF78C
:101A700070FF2FE0D1000020D4000020680100207A
:101A800069010020D6000020D000002014000020B2
:101A900074000020D200002000100040FFF7CEFEAE
:101AA00018E0FFF74AFC15E0FFF7C2FE12E0FFF76F
:101AB00079FD0FE0FFF7CCFC0CE00BE00AE009E059
:101AC000FFF73BFC06E0FFF738FC03E0FFF735FCCF
:101AD00000E000BF00BF0121FB4805F0C5F910BDC3
:101AE00010B502F06FFAF949088002F0A1FAF8493E
:101AF0000880F848007850B902F045FC0020F6490B
:101B000008700220F54908700120F249087002F0BF
:101B1000DCFAEF48008840F2E931884206D1ED480E
:101B20000078012802D10220EA490870E8480088BC
:101B300040F25641884206D1E6480078022802D198
:101B40000320E4490870E248008840F2E931884205
:101B500006D1E0480078032802D10420DD4908704E
:101B6000DB48008840F25641884206D1D9480078C7
:101B7000042802D10520D7490870D548008840F2D2
:101B8000E93188420ED1D348007805280AD102F005
:101B900008FC0120D04908700420D04908700620B4
:101BA000CC490870C948008840F2E931884206D122
:101BB000C8480078072802D10820C6490870C348E1
:101BC000008840F25641884206D1C2480078082871
:101BD00002D10920BF490870BC48008840F2E931B1
:101BE000884206D1BB480078092802D10A20B949A9
:101BF0000870B648008840F25641884206D1B54880
:101C000000780A2802D10B20B2490870AF4800883A
:101C100040F2E93188420DD1AE4800780B2809D155
:101C200002F0DBFB02F0DEFA0020AD4908700C2068
:101C3000A849087010BD0020A64908700A20A949CB
:101C40000870704770B50546002419E0285D3128FA
:101C500004D0322807D033280FD109E000F0C9FDA5
:101C600000F06CFB0AE000F0F9FD00F0BCFB05E0C1
:101C700000F029FE00F0EAFB00E000BF00BF641C9A
:101C8000032CE3DB70BD10B504462078312802D167
:101C900000F0AFFD0AE02078322802D100F0DEFD2E
:101CA00004E02078332801D100F00DFE00F046FB5F
:101CB00010BD10B504466078312802D100F099FDBE
:101CC0000AE06078322802D100F0C8FD04E06078B4
:101CD000332801D100F0F7FD00F085FB10BD10B5F1
:101CE0000446A078312802D100F083FD0AE0A078F4
:101CF000322802D100F0B2FD04E0A078332801D1EF
:101D000000F0E1FD00F0A2FB10BD10B50446207903
:101D1000312802D100F00AFE0AE02079322802D1EF
:101D200000F02EFE04E02079332801D100F052FEAD
:101D300010BD10B504466079312802D100F0F6FDDF
:101D40000AE06079322802D100F01AFE04E06079DE
:101D5000332801D100F03EFE10BD10B50446A07935
:101D6000312802D100F0E2FD0AE0A079322802D148
:101D700000F006FE04E0A079332801D100F02AFE2D
:101D800010BD70B50546052419E0285D312804D042
:101D9000322807D033280FD109E000F0C7FD00F04A
:101DA000CDFA0AE000F0ECFD00F01DFB05E000F0CC
:101DB00011FE00F04BFB00E000BF00BF641C082CCC
:101DC000E3DB70BD70B504460D46012D13D100F064
:101DD00070FB2078312802D100F093FE20E02078BB
:101DE000322802D100F0C1FE1AE02078332817D142
:101DF00000F053FE14E0022D12D100F05AFB2079BE
:101E0000312802D100F07DFE0AE02079322802D18B
:101E100000F0ABFE04E02079332801D100F03DFE54
:101E200070BD70B504460D46012D13D100F094FB32
:101E30006078312802D100F064FE20E0607832281A
:101E400002D100F092FE1AE06078332817D100F03A
:101E500024FE14E0022D12D100F07EFB60793128BF
:101E600002D100F04EFE0AE06079322802D100F083
:101E70007CFE04E06079332801D100F00EFE70BDD5
:101E800070B504460D46012D13D100F0B8FBA078C3
:101E9000312802D100F035FE31E0A078322802D19D
:101EA00000F063FE2BE0A078332828D100F0F5FD88
:101EB00025E0022D23D100F0A2FBA079312813D117
:101EC00000F01FFE1BE0000000100040D4000020C6
:101ED000D6000020D1000020680100206901002008
:101EE000D0000020D2000020A079322802D100F0DA
:101EF0003CFE04E0A079332801D100F0CEFD70BD96
:101F000070B505460E460024012E1ED100BF19E013
:101F1000285D312804D0322807D033280FD109E0BA
:101F200000F0C7FA00F0EDFD0AE000F015FB00F04C
:101F30001CFE05E000F063FB00F0AFFD00E000BF19
:101F400000BF641C032CE3DB1FE0022E1DD1042420
:101F500019E0285D312804D0322807D033280FD16A
:101F600009E000F0A6FA00F0CCFD0AE000F0F4FA77
:101F700000F0FBFD05E000F042FB00F08EFD00E00C
:101F800000BF00BF641C072CE3DB70BD70B50446C6
:101F90000D46012D13D12078312802D100F04FFEDB
:101FA0000AE02078322802D100F07DFE04E020789B
:101FB000332801D100F010FE00F0C0F914E0022D2A
:101FC00012D12079312802D100F039FE0AE02079BF
:101FD000322802D100F067FE04E02079332801D1D5
:101FE00000F0FAFD00F0AAF970BD70B504460D4688
:101FF000012D13D16078312802D100F020FE0AE0D3
:102000006078322802D100F04EFE04E06078332878
:1020100001D100F0E1FD00F0E6F914E0022D12D14B
:102020006079312802D100F00AFE0AE06079322896
:1020300002D100F038FE04E06079332801D100F0CD
:10204000CBFD00F0D0F970BD70B504460D46012DF2
:1020500013D1A078312802D100F0F1FD0AE0A07878
:10206000322802D100F01FFE04E0A078332801D10D
:1020700000F0B2FD00F0EAF914E0022D12D1A079CF
:10208000312802D100F0DBFD0AE0A079322802D12C
:1020900000F009FE04E0A079332801D100F09CFD96
:1020A00000F0D4F970BD10B5044600F002FA2078B3
:1020B000312802D100F063FE0AE02078322802D1F4
:1020C00000F091FE04E02078332801D100F024FED6
:1020D00010BD10B5044600F03FFA6078312802D1F7
:1020E00000F04DFE0AE06078322802D100F07BFE5D
:1020F00004E06078332801D100F00EFE10BD10B569
:10210000044600F07CFAA078312802D100F037FEB6
:102110000AE0A078322802D100F065FE04E0A07841
:10212000332801D100F0F8FD10BD10B5044600F0D1
:10213000C0F92078312802D100F0FAFE0AE02078B8
:10214000322802D100F02BFF04E02078332801D19F
:1021500000F07FFE10BD10B5044600F0FDF9607878
:10216000312802D100F0E4FE0AE06078322802D182
:1021700000F015FF04E06078332801D100F069FE1B
:1021800010BD10B5044600F03AFAA078312802D10B
:1021900000F0CEFE0AE0A078322802D100F0FFFE67
:1021A00004E0A078332801D100F053FE10BD0000F8
:1021B00070B505460E46344605E0FE4804600F2023
:1021C00002F0EAFFA41EAC42F7D270BD70B505461E
:1021D0000E46344605E0F74804600D2002F0DCFFAF
:1021E000A41CAC42F7D970BD70B505460E46344606
:1021F00005E0F04804600F2002F0CEFFA41CAC42C2
:10220000F7D970BD70B505460E46344605E0EA487C
:1022100084630F2002F0C0FFA41CAC42F7D970BD4C
:1022200070B505460E46344605E0E44804600F20CC
:1022300002F0B2FF641CAC42F7D970BD10B54FF488
:102240004870DC4908604FF4FA7002F0A5FF40F2D4
:102250002440DA4908604FF4487002F09DFF4FF4C3
:10226000487140F28B30FFF7BFFFC82002F094FFA7
:102270004FF45C7140F2BF30FFF7C4FFC82002F09A
:102280008BFF10BD10B54FF44870CA49086002F0CA
:1022900083FF40F22440C94908604FF4487002F0BF
:1022A0007BFF4FF4487140F28B30FFF79DFFC82051
:1022B00002F072FF4FF4337140F2BF30FFF7A2FF1C
:1022C00010BD10B540F2BF30BB4988634FF4487071
:1022D00002F062FF40F22440B84908604FF44870B1
:1022E00002F05AFF40F28B30B24908604FF4FA70A6
:1022F00002F052FF10BD10B540F22440AF49086013
:102300004FF4FA7002F048FF40F2BF30AA498863E8
:102310004FF4967002F040FF40F28B30A549086000
:102320004FF4FA7002F038FF4FF44870A149091DCC
:1023300008604FF4FA7002F02FFF10BD10B5A048EE
:1023400000889C49091D08604FF4487002F024FF82
:102350009C480088974908604FF4617002F01CFFA8
:1023600040F2244198480088FFF75AFF4FF4487024
:1023700002F012FF954800888F4988634FF4487037
:1023800002F00AFF40F28E208B4948634FF44870F8
:1023900002F002FF40F22440884908604FF4487080
:1023A00002F0FAFE40F2BF30834988634FF4487070
:1023B00002F0F2FE40F28B307E4908604FF4487024
:1023C00002F0EAFE4FF4D7707A49091D08604FF415
:1023D000167002F0E1FE4FF4167077494863C8208A
:1023E00002F0DAFE10BD10B5794800887149091D68
:1023F00008604FF4487002F0CFFE764800886D49BF
:1024000008604FF4487002F0C7FE40F22441724861
:102410000088FFF705FF4FF4487002F0BDFE6F48DB
:102420000088654988634FF4487002F0B5FE40F2B9
:102430008E20614948634FF4487002F0ADFEFFF70B
:102440005AFF4FF416705C49486310BD10B56448DC
:1024500000885849091D08604FF4617002F09CFE25
:1024600060480088534908604FF4487002F094FEB9
:1024700040F224415C480088FFF7D2FE4FF44870D8
:1024800002F08AFE594800884B4988634FF448702F
:1024900002F082FE40F28E20474948634FF44870B4
:1024A00002F07AFEFFF727FF4FF4167042494863A7
:1024B00010BD10B540F28E203F4948634048008867
:1024C0003C49091D08604FF4487002F065FE40F277
:1024D0008B313C480088FFF787FEC82002F05CFE85
:1024E0003A480088344988634FF4487002F054FE3B
:1024F00040F2244134480088FFF792FE4FF44870C0
:1025000002F04AFE4FF439702B4948634FF448708B
:1025100002F042FE40F2BF30274988634FF4487012
:1025200002F03AFE40F22440244908604FF448701B
:1025300002F032FE40F28B301E4908604FF44870C2
:1025400002F02AFE4FF4D7701A49091D08604FF4B3
:10255000487002F021FE10BD10B540F28E201649E1
:1025600048631B4800881349091D08604FF44870F0
:1025700002F012FE40F28B3116480088FFF734FE5D
:10258000C82002F009FE154800880B4988634FF403
:10259000487002F001FE40F224410F480088FFF726
:1025A0003FFE4FF4487002F0F7FD4FF439700249D6
:1025B00048631DE0341800400040014034440140AD
:1025C000560100205401002052010020500100203B
:1025D0005E0100205C0100205A010020580100200B
:1025E00066010020640100206201002060010020DB
:1025F0004FF4487002F0D0FDFFF77DFE10BD10B51E
:1026000040F28E20FE494863FE480088FE4908607B
:102610004FF4487002F0C0FD40F28B31FB48008857
:10262000FFF7E2FDC82002F0B7FDF9480088F44941
:1026300088634FF4487002F0AFFD40F22441F54842
:102640000088FFF7EDFD4FF4487002F0A5FD4FF450
:102650003970EB4948634FF4487002F09DFDFFF775
:102660004AFE10BD10B54FF41670E549486340109E
:1026700002F092FD40F20A40E74908604FF496707C
:1026800002F08AFD40F23640DF49091F08604FF42E
:10269000967002F081FD4FF4D770DB4908604FF46B
:1026A000FA7002F079FD40F2E240D549886310BD2E
:1026B00010B540F2FD30D449091F08604FF4FA709C
:1026C00002F06AFD4FF4E070CF4908604FF4FA70F1
:1026D00002F062FD4FF41670C9494863642002F0AD
:1026E0005BFD40F2C440C64988634FF4FA7002F0C3
:1026F00053FD40F23440C849086010BD10B540F2A7
:10270000B710C14908604FF4487002F045FD40F22F
:10271000022140F2EE20FFF759FD4FF4967002F0CF
:102720003BFD40F20A40BC4908604FF4487002F09B
:1027300033FD40F23640B449091F08604FF4487039
:1027400002F02AFD40F2E240AD4988634FF4FA708E
:1027500002F022FD10BD10B54FF41670A849486371
:102760004FF4E070A84908604FF4C87002F014FDFF
:1027700040F2E240A24988634FF4967002F00CFDEB
:1027800040F21240A049091F08604FF4FA7002F0AD
:1027900003FD40F20A40A04908604FF4967002F031
:1027A000FBFC10BD10B54FF416709549486340F21C
:1027B000C910954908604FF4C87002F0EDFC40F272
:1027C00094408F4988634FF4967002F0E5FC40F224
:1027D000B5308D49091F08604FF4FA7002F0DCFC37
:1027E00040F20A408C4908604FF4967002F0D4FC25
:1027F00010BD10B589480088834908604FF4FA700D
:1028000002F0CAFC864800887D4988634FF448700E
:1028100002F0C2FC4FF448707B49091F086002F0C7
:10282000BBFC804800887C4908604FF4487002F087
:10283000B3FC4FF448717C480088FFF7B9FC4FF4B3
:10284000967002F0A9FC4FF439706D4948634FF45B
:10285000487002F0A1FCFFF7F1FC10BD10B5734801
:10286000008869490860642002F096FC704800887E
:10287000634988634FF4167002F08EFC4FF4487081
:102880006149091F08604FF42F7002F085FC694808
:102890000088614908604FF4487002F07DFC4FF4F5
:1028A000487165480088FFF783FCC82002F074FC7B
:1028B0004FF43E70524948634FF4487002F06CFC8C
:1028C000FFF7BCFC10BD10B55C4800884E4908609D
:1028D000C82002F061FC5A480088494988634FF4D7
:1028E000487002F059FC4FF448704749091F0860CE
:1028F00002F052FC53480088474908604FF4487082
:1029000002F04AFC4FF448714F480088FFF750FC32
:10291000C82002F041FC4FF43970394948634FF444
:102920007A7002F039FCFFF789FC10BD10B54748FA
:102930000088354908604FF4967002F02DFC444839
:1029400000882F4988634FF4487002F025FC4FF44B
:1029500048702D49091F086002F01EFC3D480088A0
:102960002D4908604FF4487002F016FC4FF448718E
:1029700039480088FFF71CFC642002F00DFC10BDF4
:1029800010B536480088204908604FF4967002F070
:1029900003FC334800881A4988634FF4487002F0FA
:1029A000FBFB4FF448701849091F086002F0F4FB64
:1029B0002C480088184908604FF4487002F0ECFB7E
:1029C0004FF4487128480088FFF7F2FB642002F0BA
:1029D000E3FB10BD10B5254800880B49086024486A
:1029E0000088074988634FF4487002F0D5FB4FF424
:1029F00048700549091F086002F0CEFB1D483BE006
:102A000000400140660100203818004064010020A9
:102A1000600100206201002034440140DE000020FB
:102A2000D8000020DA000020DC000020E6000020B2
:102A3000E0000020E2000020E4000020EE00002082
:102A4000E8000020EA000020EC000020F600002052
:102A5000F0000020F2000020F4000020FE00002022
:102A6000F8000020FA000020FC00002006010020F1
:102A700000010020020100200088FE4908604FF498
:102A8000487002F089FB4FF44871FB480088FFF75B
:102A90008FFB642002F080FB10BD10B5F748008862
:102AA000F74988634FF4487002F076FB4FF44870A2
:102AB000F449086002F070FBF3480088F149091DF1
:102AC00008604FF4487002F067FBF0480088E9495D
:102AD00008604FF4487002F05FFB4FF44871EC4817
:102AE0000088FFF765FB642002F056FB4FF4167078
:102AF000E34948634FF4487002F04EFBFFF7C2FB16
:102B000010BD10B5E3480088DD4988634FF4FA70C2
:102B100002F042FB4FF44870DA49086002F03CFBD7
:102B2000DD480088D749091D08604FF4487002F05D
:102B300033FBDA480088CF4908604FF4487002F050
:102B40002BFB4FF44871D6480088FFF731FBC820B3
:102B500002F022FB4FF41670C94948634FF47A70B3
:102B600002F01AFBFFF78EFB10BD10B5CD480088B0
:102B7000C34988634FF4487002F00EFB4FF448706D
:102B8000C049086002F008FBC7480088BD49091D1C
:102B900008604FF4487002F0FFFAC4480088B54955
:102BA00008604FF4487002F0F7FA4FF44871C048DB
:102BB0000088FFF7FDFAC82002F0EEFA4FF4167015
:102BC000AF4948634FF47A7002F0E6FAFFF75AFB18
:102BD000C82002F0E1FA10BD10B5A8480088A84945
:102BE00088634FF4487002F0D7FA4FF44870A54953
:102BF000086002F0D1FAA4480088A249091D0860C3
:102C0000C82002F0C9FAA14800889A4908604FF428
:102C1000487002F0C1FA4FF448719D480088FFF7F0
:102C2000C7FAC82002F0B8FA4FF4397094494863E3
:102C30004FF4487002F0B0FAFFF724FB10BD10B556
:102C4000944800888E4988634FF4487002F0A4FAD3
:102C50004FF448708B49086002F09EFA8E48008855
:102C60008849091D08604FF4487002F095FA8B48B6
:102C70000088804908604FF4FA7002F08DFA4FF432
:102C8000487187480088FFF793FAC82002F084FA59
:102C90004FF439707A4948634FF4487002F07CFA77
:102CA000FFF7F0FA10BD10B57E48008874498863BC
:102CB0004FF4487002F070FA4FF4487071490860A0
:102CC00002F06AFA784800886E49091D08604FF4DE
:102CD000487002F061FA75480088664908604FF450
:102CE000FA7002F059FA4FF4487171480088FFF702
:102CF0005FFAC82002F050FA4FF439706049486317
:102D00004FF4487002F048FAFFF7BCFA4FF4D7705E
:102D10005C49091D086010BD10B566480088584917
:102D200088634FF4167002F037FA4FF44870554933
:102D3000086002F031FA604800885249091D0860B5
:102D40004FF4487002F028FA5C480088494908604E
:102D50004FF4487002F020FA4FF448715848008848
:102D6000FFF726FAC82002F017FA4FF4167044490C
:102D70004863C82002F010FAFFF784FA10BD10B5BE
:102D8000504800883E4988634FF4167002F004FAF8
:102D90004FF448703B49086002F0FEF94A48008849
:102DA0003849091D08604FF4487002F0F5F94748AA
:102DB0000088304908604FF4487002F0EDF94FF494
:102DC000487143480088FFF7F3F9C82002F0E4F99E
:102DD0004FF416702A4948634FF4487002F0DCF94A
:102DE000FFF750FA10BD10B53A48008824498863AF
:102DF0004FF4167002F0D0F940F25A2021490860D1
:102E00004FF4487002F0C8F9334800881D49091D85
:102E100008604FF4487002F0BFF930480088154947
:102E200008604FF4487002F0B7F94FF448712C482D
:102E30000088FFF7BDF9C82002F0AEF94FF4167014
:102E40000F4948634FF4487002F0A6F9FFF71AFAE9
:102E500010BD10B523480088094988634FF41670E7
:102E600002F09AF94FF448700649086002F094F9AC
:102E70001D483BE0344401400401002008010020CB
:102E800000400140341800400E0100200A010020DB
:102E90000C0100201001002016010020120100206A
:102EA00014010020180100201E0100201A0100203A
:102EB0001C0100202001002026010020220100200A
:102EC00024010020280100202E0100202A010020DA
:102ED0002C010020300100203601002032010020AA
:102EE00034010020380100203E01002000884649BE
:102EF00008604FF4487002F04FF944480088444994
:102F000008604FF4FA7002F047F94FF448714148F5
:102F10000088FFF74DF9322002F03EF94FF41670A9
:102F20003D494863C82002F037F9FFF787F910BD23
:102F300010B53A480088384988634FF4167002F09B
:102F40002BF940F2EE203049091F08604FF4487019
:102F500002F022F9324800882B490860322002F042
:102F60001BF9322002F018F92E4800882849086021
:102F70004FF4FA7002F010F940F2EE212A4800886E
:102F8000FFF716F9322002F007F94FF416702249C4
:102F90004863C82002F000F9FFF750F910BD10B5E2
:102FA000224800881C4988634FF4167002F0F4F838
:102FB0004FF448701449091F086002F0EDF81C48EE
:102FC000008811490860322002F0E6F8322002F051
:102FD000E3F8184800880E4908604FF4FA7002F0D0
:102FE000DBF84FF4487114480088FFF7E1F832200D
:102FF00002F0D2F84FF4167007494863C82002F077
:10300000CBF8FFF71BF910BD381800403A0100203B
:10301000344401403C0100200040014040010020B8
:103020004601002042010020440100204801002008
:103030004E0100204A0100204C01002030B501461D
:1030400001F01F04C1F34513CA0AE50205EB43155D
:103050001544A8B230BD2DE9F04706460F4690460C
:103060009A46002445464FEA4800C0F103094AE069
:103070007A1991B2321990B2524600F0D7FE7A19FD
:1030800091B2321B90B2524600F0D0FE7A1B91B240
:10309000321990B2524600F0C9FE7A1B91B2321B2F
:1030A00090B2524600F0C2FE3A1991B2721990B233
:1030B000524600F0BBFE3A1991B2721B90B25246D2
:1030C00000F0B4FE3A1B91B2721990B2524600F071
:1030D000ADFE3A1B91B2721B90B2524600F0A6FEB2
:1030E000B9F1000F05DA042000FB049000F1060995
:1030F00007E0601B042101FB009000F10A09681E33
:1031000085B2601C84B2AC42B2DBAC4237D17A19D2
:1031100091B2321990B2524600F088FE7A1991B2FB
:10312000321990B2524600F081FE7A1B91B23219E8
:1031300090B2524600F07AFE7A1B91B2321B90B2E6
:10314000524600F073FE3A1991B2721990B252468B
:1031500000F06CFE3A1991B2721B90B2524600F028
:1031600065FE3A1B91B2721990B2524600F05EFEB3
:103170003A1B91B2721B90B2524600F057FEBDE866
:10318000F0872DE9FF4F83B0804689464946404687
:1031900000F042FE0598A0EB08050698A0EB090692
:1031A000002D02DB0120029003E04FF0FF3002907F
:1031B0006D42002E02DB0120019003E04FF0FF3052
:1031C000019076424FEA450A4FEA460BB54219DDB7
:1031D000ABEB0504002712E049464046109A00F088
:1031E00025FE002C05DBA4EB0A04019848441FFAD5
:1031F00080F95C44029840441FFA80F87F1CAF427B
:10320000EADD18E0AAEB0604002712E04946404632
:10321000109A00F00BFE002C05DBA4EB0B040298C7
:1032200040441FFA80F85444019848441FFA80F93A
:103230007F1CB742EADD07B0BDE8F08F2DE9F84307
:1032400005460C4616461F46DDF820804EF67D707A
:103250000090A81982B2234621462846FFF791FF25
:1032600042F6651004F1010CBC441FFA8CF305EB27
:10327000060CACF1010C1FFA8CF204F1010C1FFAE0
:103280008CF105EB060CACF1010C00901FFA8CF0F0
:10329000FFF777FF42F665100090E01983B2A81996
:1032A00082B2E01981B22846FFF76BFF4EF67D70BF
:1032B0000090E01983B22A4621462846FFF761FFB5
:1032C00004F1010CBC44ACF1020C1FFA8CF305F1C3
:1032D000010CB444ACF1020C1FFA8CF204F1010CA5
:1032E0001FFA8CF105F1010C1FFA8CF0CDF800806B
:1032F000FFF747FFBDE8F8832DE9F84305460C4684
:1033000016461F46DDF82080B8F1000F39D14EF681
:103310007D700090A81982B2234621462846FFF707
:1033200030FF42F6651004F1010CBC441FFA8CF327
:1033300005EB060CACF1010C1FFA8CF204F1010C48
:103340001FFA8CF105EB060CACF1010C00901FFA92
:103350008CF0FFF716FF42F665100090E01983B27B
:10336000A81982B2E01981B22846FFF70AFF4EF68B
:103370007D700090E01983B22A4621462846FFF767
:1033800000FFB8F1010F39D142F665100090A8197D
:1033900082B2234621462846FFF7F3FE4EF67D70A3
:1033A00004F1010CBC441FFA8CF305EB060CACF1E4
:1033B000010C1FFA8CF204F1010C1FFA8CF105EBE1
:1033C000060CACF1010C00901FFA8CF0FFF7D9FE4F
:1033D0004EF67D700090E01983B2A81982B2E01910
:1033E00081B22846FFF7CDFE42F665100090E01945
:1033F00083B22A4621462846FFF7C3FEB8F1020FE2
:1034000039D14FF6FF700090A81982B223462146A9
:103410002846FFF7B6FE4FF6FF7004F1010CBC44DE
:103420001FFA8CF305EB060CACF1010C1FFA8CF2C1
:1034300004F1010C1FFA8CF105EB060CACF1010C48
:1034400000901FFA8CF0FFF79CFE4FF6FF70009083
:10345000E01983B2A81982B2E01981B22846FFF7B9
:1034600090FE4FF6FF700090E01983B22A46214685
:103470002846FFF786FEBDE8F883F8B504460D46FA
:1034800016461F4644F208202B4632462946009035
:103490002046FFF776FE48F210406A1C93B291B2C4
:1034A000621C009090B23246FFF76BFE44F2082097
:1034B0003B462246294600902046FFF762FE48F22E
:1034C0001040631C9AB26B1C99B2631C009098B2B6
:1034D0003B46FFF756FE4FF6FF703B4632463946F5
:1034E00000902046FFF74DFE4FF6FF703B463246F8
:1034F000294600903046FFF744FEF8BDF8B5064671
:103500000F4614461D464FF6FF703B46224639468D
:1035100000903046FFF735FE4FF6FF702B463246DF
:10352000394600903046FFF72CFE48F210406A1EE4
:1035300093B291B2721C009090B22246FFF721FE26
:1035400044F208202B462246294600903046FFF7D9
:1035500018FE48F21040631E9AB27B1C99B2631E9B
:10356000009098B22B46FFF70CFE44F208202B4641
:103570002246394600902046FFF703FEF8BD2DE9AC
:10358000FF4F81B007468A469B46DDF8388050E001
:1035900098F800003A284ADA98F80090B9F1300F0C
:1035A00004DBA9F1300000F0FF0907E0B9F12B0FAF
:1035B00002D14FF00A0901E04FF00009002531E087
:1035C00000242BE0FA4901EBC91000EB4500005D37
:1035D000009000261EE0802030410099084050B144
:1035E0000AEB050291B207EBC402324490B2039A8F
:1035F00000F01CFC0CE00398584509D00AEB0502CA
:1036000091B207EBC402324490B25A4600F00EFC6D
:10361000701CC6B2082EDEDB601CC4B2022CD1DBEB
:10362000681CC5B2402DCBDB07F1130087B208F14F
:10363000010898F800000028AAD105B0BDE8F08F75
:103640002DE9F84F0746884693469A46DDF82890BC
:103650000097B3E099F8000080283DDA99F80060FF
:103660000D2E05D1009F08F110001FFA80F830E000
:10367000202E03DDA6F1200086B200E00026002403
:1036800022E000251CE004EB0610CA49085C8021FA
:103690002941084040B108EB040291B27A1990B276
:1036A0005A4600F0C3FB09E0D34507D008EB0402FB
:1036B00091B27A1990B2524600F0B8FB681CC5B2BC
:1036C000082DE0DB601CC4B2102CDADB07F1080027
:1036D00087B209F1010971E0002668E006EB0610E7
:1036E000B54911F8100099F8001088425DD106EB39
:1036F0000610B14901EB4000407899F8011088426A
:1037000053D100244FE0002520E006EB0610AA4923
:1037100001EB4000801C10F814108020284101406B
:1037200041B108EB040291B27A1990B25A4600F006
:103730007DFB09E0D34507D008EB040291B27A196A
:1037400090B2524600F072FB681CC5B2082DDCDB5B
:10375000002524E006EB0610974901EB4000801C91
:10376000012101EB4401405C80212941084048B11E
:1037700008EB040291B27A19083290B25A4600F06E
:1037800055FB0AE0D34508D008EB040291B27A1940
:10379000083290B2524600F049FB681CC5B2082DB1
:1037A000D8DB601CC4B2102CADDB701C86B2322E8C
:1037B00094DB09F1020907F1100087B299F80000C3
:1037C00000287FF447AFBDE8F88F2DE9F05F06468B
:1037D000884693469A46DDF82890E2E099F8000082
:1037E000802835DA99F80070202F03DDA7F120003A
:1037F00087B200E00027002522E000241CE005EB52
:1038000007106C49095C80202041014041B108EB60
:10381000050291B2321990B25A4600F007FB09E056
:10382000D34507D008EB050291B2321990B2524647
:1038300000F0FCFA601CC4B2082CE0DB681CC5B2C6
:10384000102DDADB09F1010906F1080086B2A8E0C3
:1038500000279EE007EB870000EB4710574911F85F
:10386000100099F8001088427CD107EB870000EB2C
:103870004710524901EB4000407899F80110884206
:10388000F2D1002580E0002423E007EB870000EB65
:1038900047104A4901EB4000801C05EB4501405CA4
:1038A00080212141084040B108EB050291B2321954
:1038B00090B25A4600F0BAFA09E0D34507D008EBB7
:1038C000050291B2321990B2524600F0AFFA601C74
:1038D000C4B2082CD9DB002426E007EB870000EBFC
:1038E0004710364901EB4000801C05EB4501491C9F
:1038F000405C80212141084048B108EB050291B2AB
:103900003219083290B25A4600F090FA0AE0D345D4
:1039100008D008EB050291B23219083290B2524633
:1039200000F084FA601CC4B2082CD6DB002427E027
:1039300007EB870000EB4710204901EB4000801C9B
:1039400005EB4501891C405C80212141084050B1B4
:1039500008EB050291B23219103290B25A4600F0CB
:1039600065FA0BE013E0D34508D008EB050291B2ED
:103970003219103290B2524600F058FA601CC4B2AC
:10398000082CD5DB681CC5B2182DFFF67CAF781C5F
:1039900087B2142FFFF65EAF09F1020906F1180095
:1039A00086B299F8000000287FF418AFBDE8F09FB8
:1039B000718F000880890008F2940008DA9B0008E3
:1039C0002DE9F05F0746884692469946002531E08A
:1039D00000242BE019490A9801EBC01000EB850088
:1039E00010F804B000261DE08020304100EA0B00F2
:1039F00050B108EB050291B207EBC402324490B219
:103A0000524600F013FA0BE0CA4509D008EB050254
:103A100091B207EBC402324490B24A4600F006FA73
:103A2000701CC6B2082EDFDB601CC4B2042CD1DBD4
:103A3000681CC5B2202DCBDBBDE8F09F718F00085C
:103A40001CB50121162003F0C5FC4FF4E050009096
:103A500002208DF8050001208DF8040000208DF86B
:103A600006006946F94802F09BF908200090694673
:103A7000F74802F095F94FF4806000906946F548E8
:103A800002F08EF91CBD0021082116E000F0800232
:103A900022B10822EE4B18331A8003E00822EC4BC7
:103AA0001A331A804FF48062E84B1A331A809B1E37
:103AB0001A804206100E4A1ED1B20029E6DC704779
:103AC00010B504464FF48050E0491A310880401088
:103AD000891E08802012FFF7D6FFE0B2FFF7D3FF60
:103AE0004FF48050D9491831088010BD10B50446F4
:103AF0004FF48050D5491A31088040100880204684
:103B0000FFF7C1FF4FF48050D0491831088010BD35
:103B100010B504464FF48050CC491A31088040104B
:103B2000891E08802046FFF7AEFF4FF48050C7493A
:103B30001831088010BDF0B505460C4616461F46E4
:103B40002A20FFF7D3FF0020FFF7E2FFE8B2FFF7DC
:103B5000DFFF0020FFF7DCFFB11CC8B2FFF7D8FF82
:103B60002B20FFF7C3FF0020FFF7D2FFE0B2FFF7E3
:103B7000CFFF0020FFF7CCFF791CC8B2FFF7C8FFCA
:103B80002C20FFF7B3FFF0BD70B506469F237F22C0
:103B900000210846FFF7CFFF2C20FFF7A7FF0024E6
:103BA00008E0002503E03046FFF78AFF6D1CA02DDA
:103BB000F9D3641C802CF4D370BD10B54FF4806031
:103BC000A4494883642001F0E7FA4FF48060A149DA
:103BD0000883322001F0E0FA10BD10B5FFF730FF86
:103BE000FFF7EBFF1120FFF781FF782001F0D4FAF7
:103BF000B120FFF77BFF0120FFF78AFF2C20FFF7A2
:103C000087FF2D20FFF784FFB220FFF76FFF012011
:103C1000FFF77EFF2C20FFF77BFF2D20FFF778FFBB
:103C2000B320FFF763FF0120FFF772FF2C20FFF79F
:103C30006FFF2D20FFF76CFF0120FFF769FF2C209D
:103C4000FFF766FF2D20FFF763FFB420FFF74EFF5D
:103C50000720FFF75DFFC020FFF748FFA220FFF716
:103C600057FF0220FFF754FF8420FFF751FFC120C8
:103C7000FFF73CFFC520FFF74BFFC220FFF736FFE1
:103C80000A20FFF745FF0020FFF742FFC320FFF7A0
:103C90002DFF8A20FFF73CFF2A20FFF739FFC420C1
:103CA000FFF724FF8A20FFF733FFEE20FFF730FFF6
:103CB000C520FFF71BFF0E20FFF72AFF3620FFF776
:103CC00015FFC020FFF724FFE020FFF70FFF0F20B4
:103CD000FFF71EFF1A20FFF71BFF0F20FFF718FF4B
:103CE0001820FFF715FF2F20FFF712FF2820FFF7FE
:103CF0000FFF2020FFF70CFF2220FFF709FF1F20F6
:103D0000FFF706FF1B20FFF703FF2320FFF700FF4D
:103D10003720FFF7FDFE0020FFF7FAFE0720FFF730
:103D2000F7FE0220FFF7F4FE1020FFF7F1FEE1207E
:103D3000FFF7DCFE0F20FFF7EBFE1B20FFF7E8FE8E
:103D40000F20FFF7E5FE1720FFF7E2FE3320FFF715
:103D5000DFFE2C20FFF7DCFE2920FFF7D9FE2E2006
:103D6000FFF7D6FE3020FFF7D3FE3020FFF7D0FE5E
:103D70003920FFF7CDFE3F20FFF7CAFE0020FFF7F6
:103D8000C7FE0720FFF7C4FE0320FFF7C1FE102087
:103D9000FFF7BEFE2A20FFF7A9FE0020FFF7B8FEBE
:103DA0000220FFF7B5FE0020FFF7B2FE8220FFF7EA
:103DB000AFFE2B20FFF79AFE0020FFF7A9FE03209D
:103DC000FFF7A6FE0020FFF7A3FE7B20FFF7A0FE73
:103DD000F020FFF78BFE0120FFF79AFEF620FFF799
:103DE00085FE0020FFF794FE3A20FFF77FFE0520B6
:103DF000FFF78EFE2920FFF779FE4EF67D70FFF764
:103E0000C3FE10BD30B505460C462846FFF76EFED2
:103E10002046FFF77DFE30BD30B504460D462B46EB
:103E2000224629462046FFF786FE30BD70B504467F
:103E30000D461646681C83B2601C82B22946204695
:103E4000FFF779FE3046FFF73BFE70BD00040240ED
:103E5000000802400010024060B505460E4631469B
:103E60002846FFF7D9FFE0B2FFF752FE204660BDBB
:103E70000146022906D003290DD0042913D00529B3
:103E80001FD117E04FF08042526A10B200224FF06B
:103E900080435A6217E00D4A126812B25042002263
:103EA0000A4B1A600FE00A4A126810B20022084B4F
:103EB0001A6008E0074A126810B20022054B1A6027
:103EC00001E0002000BF00BF704700002404004054
:103ED00024080040240C00401CB501214C2003F0B4
:103EE00079FA4FF42A40009000208DF80400012058
:103EF0008DF807006946BE4801F052FF512000903E
:103F00006946BC4801F04CFF4FF4006000906946E0
:103F1000B94801F045FF1CBD1CB54FF40051B44831
:103F200001F0A0FF8DF800004FF40041B04801F00F
:103F300099FF8DF801004FF40061AD4801F092FF48
:103F40008DF802004FF40071A94801F08BFF8DF845
:103F500003001021A74801F085FF8DF804004021DF
:103F6000A44801F07FFF8DF805000121A14801F070
:103F700079FF8DF806004FF400619F4801F072FF51
:103F80008DF807009DA003F07BFB002406E01DF8E0
:103F900004109CA003F074FB601CC4B2032CF6DD7B
:103FA00099A003F06DFB042406E01DF8041095A011
:103FB00003F066FB601CC4B2072CF6DD93A003F08F
:103FC0005FFB1CBD08B54FF40051894801F04AFF62
:103FD0008DF800004FF40041854801F043FF8DF853
:103FE00001004FF40061824801F03CFF8DF80200AF
:103FF0004FF400717E4801F035FF8DF803009DF805
:1040000000004FF47A7110FB01F09DF8011001EBF4
:10401000C10202EB011100EB81009DF8021001EBDF
:10402000810100EB41009DF80310084480B208BDF7
:1040300008B510216F4801F015FF8DF800004021F0
:104040006C4801F00FFF8DF801000121694801F073
:1040500009FF8DF802004FF40061674801F002FF8C
:104060008DF803009DF800004FF47A7110FB01F009
:104070009DF8011001EBC10202EB011100EB810080
:104080009DF8021001EB810100EB41009DF8031047
:10409000084480B208BD10B55D480078052811D2EB
:1040A000DFE800F00304070A0D000CE000F05DF902
:1040B00009E000F068F906E000F081F903E000F0A3
:1040C00070F900E000BF00BF10BD70B5FFF77AFFC8
:1040D0000446FFF7ADFF05464E480078002842D160
:1040E0004B48007820B1012803D0022839D11EE0C6
:1040F00038E00B2C01D06F2C05D100F098F946A0C8
:1041000003F0BEFA12E040F24C40844203D040F289
:104110005640844205D100F098F941A003F0B0FA6E
:1041200004E0FFF7B8FF40A003F0AAFA1AE00B2C56
:1041300003D06F2C01D0012C02D100F024F90FE044
:1041400040F24C40844206D040F25640844202D0B5
:10415000B4F57A7F02D100F008F901E0FFF79BFF88
:1041600000E000BF00BF2B480078012839D1284863
:10417000007820B1032803D0042830D11AE02FE0C2
:104180000B2D03D06F2D01D0012D02D100F0FBF8D3
:104190000FE040F24C40854206D040F25640854246
:1041A00002D0B5F57A7F02D100F0DFF801E0FFF729
:1041B00072FF15E00B2D01D06F2D02D100F037F901
:1041C0000CE040F24C40854203D040F2564085421C
:1041D00002D100F03AF901E0FFF75DFF00E000BF17
:1041E00000BF70BD00200B49087009490870704776
:1041F00000180240000C024000080240BAECCDE278
:104200005B000000256420007C2000005D0A0000A7
:104210006901002068010020CDF9D7F300000000FB
:10422000CDF9D3D200000000BCCCD0F800000000D3
:104230001CB50121302003F0CDF81E200090012094
:104240008DF8040000208DF806008DF8070002208C
:104250008DF805006946FE4801F0A2FDAA200090F5
:104260006946FC4801F09CFD1CBD10B504463CB9F4
:104270000221F84801F012FE0821F64801F00CFE78
:10428000012C07D10221F34801F006FE0821F14874
:1042900001F004FE022C07D10221EE4801F0FEFDE0
:1042A0000821EC4801F0FAFD10BD10B504463CB9F8
:1042B0002021E84801F0F2FD8021E64801F0ECFD04
:1042C000012C07D12021E34801F0E6FD8021E148DF
:1042D00001F0E4FD022C07D12021DE4801F0DEFDD3
:1042E0008021DC4801F0DAFD10BD10B504463CB970
:1042F0001021D74801F0D2FD0421D54801F0CCFDB2
:10430000012C07D11021D24801F0C6FD0421D0486C
:1043100001F0C4FD022C07D11021CD4801F0BEFDF3
:104320000421CB4801F0BAFD10BD10B504463CB9DC
:104330000221C74801F0B2FD0821C54801F0ACFDDB
:10434000012C07D10221C24801F0A6FD0821C04876
:1043500001F0A4FD022C07D10221BD4801F09EFD11
:104360000821BB4801F09AFD10BD10B50020FFF7F1
:104370007CFF0020FFF799FF0020FFF7B6FF002029
:10438000FFF7D3FF10BD10B50120FFF76EFF01202E
:10439000FFF78BFF0120FFF7A8FF0120FFF7C5FF04
:1043A00010BD10B50020FFF760FF0120FFF77DFF73
:1043B0000120FFF79AFF0020FFF7B7FF10BD10B5EF
:1043C0000120FFF752FF0020FFF76FFF0020FFF7EB
:1043D0008CFF0120FFF7A9FF10BD10B50220FFF7E9
:1043E00044FF0220FFF761FF0220FFF77EFF02205B
:1043F000FFF79BFF10BD10B50020FFF736FF02202E
:10440000FFF753FF0220FFF770FF0020FFF78DFF3B
:1044100010BD10B50220FFF728FF0020FFF745FF71
:104420000020FFF762FF0220FFF77FFF10BD10B5ED
:104430000120FFF71AFF0120FFF737FF0020FFF7E9
:1044400054FF0020FFF771FF10BD10B50020FFF7EB
:104450000CFF0020FFF729FF0120FFF746FF012096
:10446000FFF763FF10BD10B50020FFF7FEFE02202E
:10447000FFF71BFF0120FFF738FF0220FFF755FF72
:1044800010BD10B5044674480068204472490860A5
:104490000846406820444860084680682044886098
:1044A0000846C0682044C8600846426801686BA09E
:1044B00003F0E6F810BD10B5044667480068001B1D
:1044C0006549086008464068001B486008468068E7
:1044D000001B88600846C068001BC8600846426828
:1044E00001685EA003F0CCF810BD30B55D4C2468C7
:1044F000A04204DD5B4C2468574DA0B22C60594C9F
:104500002468A14204DD574C2468534DA1B26C606D
:10451000544C2468A24204DD524C24684E4DA2B291
:10452000AC60504C2468A34204DD4E4C24684A4DD4
:10453000A3B2EC604C4C2478012C04D10024234617
:10454000224621462046494C2060241D2160474CCC
:104550000C342260241F236030BD10B5F0EE401AE9
:1045600030EEE14A34EE014AB0EE442A30EEA14A80
:1045700034EE414AF0EE442A30EEE14A34EE414A4C
:10458000B0EE443A30EEA14A34EE014AF0EE443A3D
:10459000B0EE420AB4EEE20AF1EE10FA01D2B0EE49
:1045A000620AB4EEC30AF1EE10FA01D2B0EE430A89
:1045B000B4EEE30AF1EE10FA01D2B0EE630A294834
:1045C00090ED004AB8EEC44AB4EEC40AF1EE10FA17
:1045D00027DDC2EE004A90ED004AB8EEC44A24EE50
:1045E000844AB0EE442AC2EE804A90ED004AB8EE0A
:1045F000C44A24EE844AF0EE442AC3EE004A90ED09
:10460000004AB8EEC44A24EE844AB0EE443AC3EEFF
:10461000804A90ED004AB8EEC44A24EE844AF0EE97
:10462000443ABCEEE34A14EE104AA3B2BCEEC24ACE
:1046300014EE104AA2B2BCEEC34A14EE104AA1B264
:10464000BCEEE24A14EE104AA0B2FFF74EFF10BDD6
:104650000010024000140240700100200925642C63
:1046600020256400800100206C01002034040140FA
:1046700010B588B004460121082002F0ABFE0121EC
:10468000880402F0F0FE07220821F74801F013FC2D
:1046900007220921F44801F00EFC4FF480700690C7
:1046A00002208DF81C008DF81D0001208DF81E00E1
:1046B0008DF81F0006A9EC4801F072FB4FF4007062
:1046C000069002208DF81C008DF81D0000208DF84A
:1046D0001E008DF81F0006A9E34801F061FB02945B
:1046E0000020ADF80C00ADF80E00ADF81000ADF8EC
:1046F00014000C20ADF8120002A9DC4801F07BFC8C
:104700000121DA4801F0FFFC012240F22551D7488F
:1047100001F0AFFD4021D54801F0DDFD27208DF8E7
:10472000040002208DF8050003208DF8060001200A
:104730008DF8070001A801F042FA4FF4A06001F0E3
:1047400039FA08B010BD10B5002440F22551C74811
:1047500001F0CAFD002874D0C44801F003FDC4B2C2
:10476000C34804700078012807D1C2A000F003FEFE
:10477000FEF73FF8FDF7E2FDECE2BD4800780228C5
:1047800007D1BEA000F0F7FDFEF768F8FDF72BFE9D
:10479000E0E2B7480078032807D1BAA000F0EBFDAB
:1047A000FEF791F8FDF752FED4E2B14800780428F4
:1047B00009D1B6A000F0DFFDFEF7B8F8FDF762FD05
:1047C000FDF7BCFDC6E2AA480078052809D1B1A0D2
:1047D00000F0D1FDFEF7D4F8FDF754FDFDF703FE20
:1047E000B8E2A3480078062809D1ACA000F0C3FDC8
:1047F000FEF7F0F8FDF746FDFDF728FEAAE29C481B
:104800000078072807D1A7A000F0B5FDFDF751FEFD
:10481000FEF743F99EE296480078082807D1A3A046
:1048200000F0A9FDFDF798FEFEF76BF992E29048C3
:104830000078092806D19FA000F09DFDFEF795F9AC
:1048400088E28CE28A4800780A2807D19BA000F011
:1048500092FDFDF72EFEFEF75FFA7BE284480078BA
:104860000B2807D197A000F086FDFDF775FEFEF737
:1048700086FA6FE27E4800780C2807D193A000F0FA
:104880007AFDFDF7BCFEFEF7AEFA63E278480078E9
:104890000D2807D18FA000F06EFDFDF70AFEFEF790
:1048A000D8FA57E2724800780E2807D18BA000F0A2
:1048B00062FDFDF751FEFEF73BFB4BE26C480078D2
:1048C0000F2807D187A000F056FDFDF798FEFEF7F0
:1048D00066FB3FE266480078102805D183A000F00F
:1048E0004AFDFDF7E5FE35E261480078112805D163
:1048F00080A000F040FDFDF72EFF2BE25C48007821
:10490000122805D17EA000F036FDFDF74BFF21E215
:1049100057480078132805D17BA000F02CFDFDF747
:10492000A1FE17E252480078152805D178A000F0C2
:1049300022FDFDF7C6FC0DE24D480078162803D194
:1049400077A000F018FD05E249480078172804D147
:104950004FF4397076494863FCE1454800781828DF
:1049600004D14FF4167072494863F3E1404800786F
:10497000192803D16FA000F0FEFCEBE13C48007861
:104980001A280DD16DA000F0F6FC6948406BC01CE0
:10499000674948630846416B6AA002F071FED9E19D
:1049A000334800781B280DD169A000F0E4FC604872
:1049B000406BC01E5E4948630846416B61A002F02F
:1049C0005FFEC7E12A4800781C280FD162A000F0E2
:1049D000D2FC5748806B624909780844544988637F
:1049E0000846816B5FA002F04BFEB3E120480078DF
:1049F0001D280FD15EA000F0BEFC4D48806B5849C9
:104A00000978401A4A4988630846816B55A002F02C
:104A100037FE9FE1164800781E280FD156A000F0FF
:104A2000AAFC574800684E49097808445449086070
:104A30000846016853A002F023FE8BE10C48007881
:104A40001F280FD152A000F096FC4D480068444941
:104A50000978401A4A4908600846016849A002F0EE
:104A60000FFE77E198E00000000C02400048004093
:104A700084010020735F310D0A000000735F320D66
:104A80000A000000735F330D0A000000785F310DEB
:104A90000A000000785F320D0A000000785F330DD5
:104AA0000A00000072305F310D0A000072305F3280
:104AB0000D0A000072305F330D0A000072315F3161
:104AC0000D0A000072315F320D0A000072315F334F
:104AD0000D0A000072325F310D0A000072325F323F
:104AE0000D0A000072325F330D0A000071725F6FB1
:104AF0006E0D0A00746F705F7363616E0D0A0000C3
:104B0000756E6465720D0A0072657365740D0A0036
:104B10006D6964646C6573746174650D0A000000EE
:104B20006B656C5F76616C75652D0D0A0000000089
:104B30000040014067726173703300007A687561EC
:104B40002B0D0A0041726D302025640A0000000020
:104B50007A6875612D0D0A0041726D312B0D0A00C6
:104B60008501002041726D312025640A000000009B
:104B700041726D312D0D0A0041726D322B0D0A000C
:104B80003444014041726D322025640A0000000067
:104B900041726D322D0D0A007348007820280FD124
:104BA00072A000F0E8FB7348006873490978084474
:104BB000704908600846016870A002F061FDC9E014
:104BC0006948007821280FD16FA000F0D4FB694814
:104BD000006869490978401A664908600846016812
:104BE00066A002F04DFDB5E05F480078222811D1A3
:104BF00067A000F0C0FB5F48001D00685E490978AF
:104C000008445C49091D08600846016862A002F07A
:104C100037FD9FE054480078232811D161A000F0AF
:104C2000AAFB5448001D006853490978401A5149AD
:104C3000091D08600846016857A002F021FD89E0BF
:104C40004948007824280DD158A000F094FB4A4828
:104C50000078C01C484908700846017855A002F049
:104C60000FFD77E04048007825280DD153A000F0D3
:104C700082FB41480078C01E3F4908700846017811
:104C80004CA002F0FDFC65E037480078262805D1ED
:104C90004CA000F070FBFDF70CFC5BE032480078A4
:104CA000272805D14BA000F066FBFDF755FC51E02D
:104CB0002D480078282805D14AA000F05CFBFDF7BC
:104CC0009EFC47E028480078292805D149A000F03B
:104CD00052FBFDF733FB3DE0234800782A2805D13D
:104CE00048A000F048FBFDF77EFB33E01E4800784B
:104CF0002B2805D147A000F03EFBFDF7A7FB29E0DC
:104D0000194800782C2805D146A000F034FBFDF7A7
:104D100095FA1FE0144800782D281BD14448416BB8
:104D200044A002F0ADFC4248816BAFF2C81002F023
:104D3000A7FC44480168AFF2B41002F0A1FC0D4892
:104D400001680EA002F09CFC0A48001D016812A038
:104D500002F096FC40F225513B4801F000FB3A4836
:104D600001F000FA10BD00008401002041726D3393
:104D70002B0D0A00341800408501002041726D336C
:104D80002025640A0000000041726D332D0D0A00D9
:104D900041726D342B0D0A0041726D342025640A76
:104DA0000000000041726D342D0D0A0074656D2BFA
:104DB0000D0A000074656D2025640A0074656D2D70
:104DC0000D0A000067726173705F706C61796C6FBF
:104DD0006164310067726173705F706C61796C6FD0
:104DE0006164320067726173705F706C61796C6FBF
:104DF00061643300706C6163655F706C61796C6FC6
:104E000061643100706C6163655F706C61796C6FB7
:104E100061643200706C6163655F706C61796C6FA6
:104E20006164330061726D5F6261636B000000005A
:104E3000004001400D0A0D0A41726D302025640AC0
:104E400000000000344401400048004070B58AB0C2
:104E500004460E4640F2DC550121080402F014FB22
:104E60000121102002F0B6FA03220521934801F037
:104E700022F803220621914801F01DF860200890D5
:104E800002208DF8240003208DF8250000208DF8E5
:104E9000260001208DF8270008A9884800F080FF2F
:104EA000B0B2ADF814000020ADF816000694ADF8CD
:104EB0001C0005A9824801F00EFB6020ADF800003F
:104EC0000120ADF802000020ADF80C000295694603
:104ED0007B4801F095FB0821794801F01EFD602018
:104EE000ADF800000120ADF8020002950020ADF8F9
:104EF0000C006946724801F0BCFB0821704801F0C3
:104F000015FD01216E4801F051FB01216C4801F0B3
:104F10005CFF01216A4801F067FB0AB070BD70B503
:104F20008AB004460D4640F2DC560121480402F0E6
:104F3000ABFA0121202002F04DFA0322062161483C
:104F400000F0B9FF4020089002208DF824000320D3
:104F50008DF8250000208DF8260001208DF827000F
:104F600008A9584800F01CFFA8B2ADF814000020B2
:104F7000ADF816000694ADF81C0005A9524801F0E2
:104F8000AAFA6020ADF800000120ADF80200002070
:104F9000ADF80C00029669464B4801F031FB082140
:104FA000494801F0BAFC0121474801F0FFFA01210C
:104FB000454801F00AFF0121434801F015FB0AB002
:104FC00070BD70B58AB004460E4640F2DC55012132
:104FD000402002F048FA0121022002F0FBF90922E8
:104FE0000E213A4800F067FF09220F21374800F0F0
:104FF00062FF4FF44040089002208DF82400032007
:105000008DF8250000208DF8260001208DF827005E
:1050100008A92E4800F0C4FEB0B2ADF8140000207C
:10502000ADF816000694ADF81C0005A9284801F05B
:1050300052FA6020ADF800000120ADF802000295A0
:105040000020ADF80C006946214801F0D9FA08218A
:105050001F4801F062FC6020ADF800000120ADF8AF
:1050600002000020ADF80C0002956946184801F0D6
:1050700000FB0821164801F059FC0121144801F0F9
:1050800095FA0121124801F0A0FE0121104801F01B
:10509000ABFA0AB070BD10B540F24F1142F20F707A
:1050A000FFF7D4FE40F24F1142F20F70FFF737FFC7
:1050B000A72142F20F70FFF784FF10BD00100240DD
:1050C000004001400014024000440140000402403E
:1050D0000018004010B504466FF0040000F0BCFD5D
:1050E000E11704EB5171C1F3C701394A1170104641
:1050F000007800EB4001C1EBC0104FF6FF7101EAF0
:10510000C0003449088010BD0146314A12784A4334
:105110004FF0E0235A6100229A611A46126942F068
:1051200001021A6100BF4FF0E022106900F0010295
:105130001AB100F48032002AF5D04FF0E022126953
:1051400022F001024FF0E0231A6100229A617047B9
:105150000146204A12884A434FF0E0235A61002258
:105160009A611A46126942F001021A6100BF4FF0BB
:10517000E022106900F001021AB100F48032002A26
:10518000F5D04FF0E022126922F001024FF0E02347
:105190001A6100229A61704770B504464FF4077097
:1051A00094FBF0F0C6B24FF4077094FBF0F100FBF3
:1051B000114085B205E04FF40770FFF7C9FF701E7C
:1051C000C6B2002EF7D115B12846FFF7C1FF70BD5A
:1051D0008601002088010020014600BF704700BF03
:1051E0004C4A128802F04002002AF9D0C2B2494B60
:1051F0009A80704710B588B004460121084602F035
:10520000E9F80121102002F03FF907220921424864
:1052100000F051FE07220A213F4800F04CFE4FF4F7
:10522000C060069002208DF81C008DF81D00002043
:105230008DF81E0001208DF81F0006A9364800F0E9
:10524000AFFD02940020ADF80C00ADF80E00ADF8F3
:105250001000ADF814000C20ADF8120002A92D4882
:1052600000F0C9FE01212B4800F04DFF40212948E4
:1052700001F031F8012240F22551264800F0F9FFF3
:1052800025208DF8040003208DF805008DF8060018
:1052900001208DF8070001A800F091FC08B010BDB6
:1052A00010B540F225511B4801F01EF888B319498A
:1052B0008988C8B21949097869B919490978FE2954
:1052C00009D118490978FF2905D10121134A117024
:1052D0000021154A117011490978012912D1134989
:1052E000114A1278885410490978491C0E4A1170E5
:1052F00011460978012905D10021084A11700121C0
:105300000B4A117006490978064A11700449087061
:1053100000BF10BD0010014000000240000000204E
:10532000930100209401002092010020020000203F
:10533000010000209449088000BF9349091F098893
:1053400001F080010029F8D0704700B5024603E063
:105350001078FFF7EFFF521C10780028F8D100BD3D
:105360008A49088000BF8949091F098801F0800126
:105370000029F8D0704700B5024603E01078FFF727
:10538000EFFF521C10780028F8D100BD412803D14E
:1053900041217F4A117006E0422803D142217C4A14
:1053A000117000E0704700BFFCE708B540F22551DE
:1053B0007548001F00F098FF002875D07248001F44
:1053C00000F0D0FE7349087008460078FFF7DEFF52
:1053D0006F480078412826D16E480078412810D0C7
:1053E00002206D4908706B48007850B16948007818
:1053F0006A496B4A1278885469480078401C6849A9
:1054000008706748007807284ED10020644908706A
:1054100062484EF67D734FF47842012100900846B1
:10542000FEF7ADF840E05A48007842281CD15948B0
:10543000007842280DD05748007850B1554801787F
:105440005848594A1278815457480078401C5649A8
:10545000087055480078022826DD0020524908705F
:105460000320524908701FE04948007843281BD1A7
:105470004848007843280DD04648007850B1454848
:1054800001784B48484A1278815447480078401CBC
:105490004549087044480078022805DD002042494B
:1054A000087007204149087040F225513648001F16
:1054B00000F055FF08BD10B588B00446012108462C
:1054C00001F088FF0121480401F0CDFF07220221ED
:1054D000384800F0F0FC07220321364800F0EBFCCE
:1054E0000420069002208DF81C008DF81D0001207C
:1054F0008DF81E008DF81F0006A92E4800F050FC04
:105500000820069002208DF81C008DF81D00002058
:105510008DF81E008DF81F0006A9264800F040FCFB
:1055200002940020ADF80C00ADF80E00ADF81000AC
:10553000ADF814000C20ADF8120002A91248001FAB
:1055400000F059FD01211048001F00F0DCFD012290
:1055500040F225510C48001F00F08BFE40210A4804
:10556000001F00F0B8FE26208DF8040003208DF8FF
:1055700005008DF8060001208DF8070001A800F055
:105580001EFB08B010BD0000044400400448004069
:1055900095010020A7010020D00000209F010020DD
:1055A000A901002097010020A8010020140000207C
:1055B0009B0100200000024000B589B0012108468F
:1055C00001F051FF0121032001F004FF202007908A
:1055D00002208DF8200000208DF822008DF8230095
:1055E00002208DF8210007A9284800F0D9FB0820E7
:1055F000079007A9264800F0D3FB01220521234884
:1056000000F059FC01220321214800F054FC04A8B9
:1056100000F095FF0020ADF810004FF6FF700590E8
:105620000020ADF81800ADF8120004A94FF080403A
:1056300000F051FF01A801F05CFB01A94FF0804090
:1056400001F020FB0121880701F0FAFB012211463D
:10565000900701F0E1FB02231A460321580701F0ED
:10566000AEFC00204FF0804148620121880700F025
:10567000BBFF09B000BD10B50121880701F0E3FBB5
:1056800018B10121880701F0EFFB10BD00000240B6
:105690000004024000B589B00121022001F0E3FEC0
:1056A0000121084601F096FEC020079002208DF8E7
:1056B000200000208DF822008DF8230007A925483E
:1056C00000F06EFB02220621224800F0F4FB0222C9
:1056D0000721204800F0EFFB04A800F030FF002075
:1056E000ADF810004FF6FF7005900020ADF81800DF
:1056F000ADF8120004A9184800F0EDFE01A801F071
:10570000F8FA01A9144801F0BDFA0121124801F08C
:1057100097FB01221146104801F07EFB02231A4636
:1057200003210D4801F04BFC00200B492431086097
:105730000121094800F058FF09B000BD10B5012152
:10574000054801F080FB18B10121034801F08CFBF2
:1057500010BD0000000002400004004000B589B008
:105760000121042001F07FFE0121022001F032FE20
:10577000C020019002208DF8080000208DF80A005A
:105780008DF80B0001A9264800F00AFB0222062131
:10579000234800F090FB02220721214800F08BFBF8
:1057A00006A800F0CCFE0020ADF818004FF6FF7000
:1057B00007900020ADF82000ADF81A0006A919489E
:1057C00000F089FE03A801F094FA0020ADF814005F
:1057D00003A9144801F056FA0121124801F030FBE8
:1057E000012211460F4801F017FB02231A4603213C
:1057F0000C4801F0E4FB00200A4924310860012133
:10580000084800F0F1FE09B000BD10B501210548BF
:1058100001F019FB18B10121024801F025FB10BD70
:10582000000402400008004000B589B001210820B2
:1058300001F019FE0121084601F0CCFD0320019082
:1058400002208DF8080000208DF80A008DF80B006A
:1058500001A9264800F0A4FA02220021234800F002
:105860002AFB02220121214800F025FB06A800F0B6
:1058700066FE0020ADF818004FF6FF70079000207C
:10588000ADF82000ADF81A0006A9194800F023FE73
:1058900003A801F02EFA0020ADF8140003A9144863
:1058A00001F0F0F90121124801F0CAFA0122114673
:1058B0000F4801F0B1FA02231A4603210C4801F007
:1058C0007EFB00200A49243108600121084800F0CD
:1058D0008BFE09B000BD10B50121054801F0B3FAF7
:1058E00018B10121024801F0BFFA10BD00000240CA
:1058F000000C00407FB505460C460121102001F048
:10590000B2FD0295ADF804400020ADF80C00ADF8F2
:10591000060001A90F4800F0DEFD01210D4801F04D
:105920008FFA012211460B4801F076FA36208DF8E5
:10593000000000208DF8010001208DF802008DF894
:105940000300684600F03BF90121024800F04CFEDC
:105950007FBD0000001000407FB505460C460121C8
:10596000202001F080FD0295ADF804400020ADF844
:105970000C00ADF8060001A92B4800F0ACFD012198
:10598000294801F05DFA01221146274801F044FA46
:1059900037208DF8000000208DF8010001208DF8DF
:1059A00002008DF80300684600F009F901211E4845
:1059B00000F01AFE7FBD10B52DED028B82B00121E3
:1059C000194801F040FA00282AD01848C068009011
:1059D000164883684268016815A001F051FEFEF781
:1059E0009BFA19A001F04CFE002407E0184850F87B
:1059F000241018A001F044FE601CC4B2032CF5DD95
:105A00001548006802F044FF41EC180B53EC182BCA
:105A100012A001F035FE0121034801F025FA00BF74
:105A200002B0BDEC028B10BD00140040BC01002090
:105A3000B1E0C2EBC6F75B25642025642025642015
:105A400025645D090000000050574D5B0000000018
:105A50007001002025642000740000205D20C4BF78
:105A6000B1EA5B252E30665D0000000030B58BB0DA
:105A700005460C460121022001F006FD012104200B
:105A800001F0A8FC4FF47070019003208DF809001C
:105A900002208DF8080000208DF80A008DF80B0018
:105AA00001A9324800F07CF9032206212F4800F0BA
:105AB00002FA032207212D4800F0FDF903220821F4
:105AC0002A4800F0F8F903220921284800F0F3F9E8
:105AD0000995ADF820400020ADF82800ADF822006F
