:020000040800F2
:10000000B8070020E5400008690600086B060008F4
:100010006F0600087306000877060008000000005D
:100020000000000000000000000000007B06000847
:100030007D060008000000007F0600088106000819
:10004000FF400008FF400008FF400008FF40000894
:10005000FF400008FF400008FF400008FF40000884
:10006000FF400008FF400008FF400008FF40000874
:10007000FF400008FF400008FF400008FF40000864
:10008000FF400008FF400008FF400008FF40000854
:10009000FF400008FF400008FF400008FF40000844
:1000A000FF400008FF400008FF400008FF40000834
:1000B000773900083D3A00080B3B0008FF40000874
:1000C000FF400008FF400008FF400008FF40000814
:1000D000FF40000825380008EB3E00087F3000088C
:1000E000FF400008FF400008FF400008FF400008F4
:1000F000FF400008FF400008FF400008FF400008E4
:10010000FF400008FF400008D73B0008FF40000800
:10011000FF400008FF400008DF0E0008B73C000861
:10012000FF400008FF400008FF400008FF400008B3
:10013000FF400008FF400008FF400008FF400008A3
:10014000FF400008FF400008FF400008FF40000893
:10015000FF400008FF400008FF400008FF40000883
:10016000FF400008FF400008FF400008FF40000873
:10017000FF400008FF400008FF400008FF40000863
:10018000FF400008FF40000800F002F800F06FF8A0
:100190000AA090E8000C82448344AAF10107DA45E2
:1001A00001D100F064F8AFF2090EBAE80F0013F0C5
:1001B000010F18BFFB1A43F001031847F06D000050
:1001C000106E00000A444FF0000C10F8013B13F0D1
:1001D000070408BF10F8014B1D1108BF10F8015BA0
:1001E000641E05D010F8016B641E01F8016BF9D193
:1001F00013F0080F1EBF10F8014BAD1C0C1B09D1EA
:100200006D1E58BF01F801CBFAD505E014F8016B5B
:1002100001F8016B6D1EF9D59142D6D370470000ED
:100220000023002400250026103A28BF78C1FBD8FF
:10023000520728BF30C148BF0B607047662906F0DF
:100240005586642905F0E084782905F01985002099
:1002500070471FB506F045FE06F044F80400002084
:10026000002106F0B1FDE0601FBD10B510BD06F025
:1002700055F91146FFF7EDFF00F008F806F073F9A5
:1002800003B4FFF7F2FF03BC03F068FA4FF4A06079
:1002900003F048FFA82003F0DFF94FF4E13003F04A
:1002A0006BFA03F0BAF94FF4165003F09AFE4FF4CC
:1002B000E13002F079FE01F040FC02F050F902F06A
:1002C00099FA02F05BFC532140F2F31003F04EFD6B
:1002D00003F0F2FA03F05EFB03F0C0FB03F024FC32
:1002E00042F2CF01962003F085FC02F01CFDC7A06E
:1002F00005F07EFC88E1C848007801280ED1C74887
:10030000C749096801600078C64908700846017845
:10031000C5A005F06DFC0020BF490870C1480078F9
:10032000262870D2DFE800F013191F252B31373D46
:100330004347AEAEAEAEAEAE4B51575F67707880FE
:100340008889AEAEAEAEAEAE8A8B959FA4A90020D2
:10035000B949087002F0AFFC95E00020B64908707A
:1003600002F0B7FC8FE00020B349087002F0CDFC2A
:1003700089E00020B049087002F0B9FC83E0002059
:10038000AD49087002F0EBFC7DE00020AA4908703E
:1003900002F0D7FC77E00020A749087002F0EDFCDE
:1003A00071E00020A449087002F0F5FC6BE00A201F
:1003B00002F00DFD67E00A2002F023FD63E000205B
:1003C0009D49087002F0AFFC5DE000209A4908707A
:1003D00002F0A9FC57E000F092FE02F0A8FB012019
:1003E000954908704FE000F08AFE02F0A0FB022061
:1003F0009149087047E000F082FE02F098FB03206C
:100400008D4908703FE03DE000F079FE02F08FFB7F
:1004100004208949087036E000F071FE02F087FB85
:100420000520854908702EE000F069FE02F07FFB90
:1004300006208149087026E025E024E023E07F487B
:1004400090ED000AF2EE040A30EE200A80ED000A78
:1004500019E07A4890ED000AF2EE040A30EE600AE4
:1004600080ED000A0FE03121754804F02FF90AE011
:100470003221734804F02AF905E03321704804F072
:1004800025F900E000BF00BF6E4CA489A3B26D4CFB
:100490002489A2B26B4CA488A1B26A4C2488A0B271
:1004A00002F0C9FC684800780E286ED2DFE800F040
:1004B00007080E14213D4A535A626E79819DA2E0CD
:1004C00001F03BFB61A003F0E0FC9CE001F088FB45
:1004D0005FA003F0DAFC96E05E4800F038FE5D486D
:1004E00000F04BFE5B4800F05EFE032052490870AE
:1004F00089E00121584800F0C9FE0121564800F06A
:10050000F4FE0121544800F01FFF0121524800F081
:1005100090FF0121504800F0BBFF01214E4800F040
:10052000EDFF0520444908706DE04B4801F015F8D7
:10053000494801F028F8484801F03BF807203E49B7
:10054000087060E001F073FB642003F0E7F843A05B
:1005500003F09BFC57E0424800F03BFE0820364980
:10056000087050E04FF439703E4948630920324921
:10057000087048E001F0D2F801F032F9384800F094
:100580003CFE08202C4908703DE03BE001F0C6F835
:1005900001F079F9324800F044FE0820264908703D
:1005A00031E001F0BBF801F09FF90A202249087000
:1005B00029E00221284800F069FE0221264800F0C7
:1005C00094FE0221244800F0BFFE0221224800F0E0
:1005D00030FF0221204800F05BFF02211E4800F09E
:1005E0008DFF0B20144908700DE01B4800F0F7FF49
:1005F000194801F00AF8184801F01DF80C200E49BE
:10060000087000E000BF00BF75E60000B3F5CABC8B
:10061000BBAFCDEAB3C90A001600002006000020D7
:100620000200002014000020CAD5B5BD7531D6B82F
:10063000C1EEA3BA25780000D40000207800002085
:100640000044004044010020190000203100000057
:10065000320000000F0100201701002033000000CD
:100660001301002000400140704700BFFEE700BFBB
:10067000FEE700BFFEE700BFFEE770477047704728
:10068000704700000CB5002001900090764800688B
:1006900040F480307449086000BF7348006800F47B
:1006A000003000900198401C0190009818B9019802
:1006B000B0F5A04FF1D16C48006800F4003010B1E3
:1006C0000120009001E0002000900098012846D110
:1006D00065484030006840F0805063494031086010
:1006E0006248006840F44040604908605E48083055
:1006F00000685D49083108600846006840F4004021
:1007000008600846006840F4A05008605848091F77
:100710000860081F006840F08070091F086000BF73
:100720005148006800F000700028F9D040F20570D0
:10073000504908604C480830006820F003004A49DE
:10074000083108600846006840F00200086000BFF9
:1007500045480830006800F00C000828F8D10CBDAE
:1007600010B54548006840F47000434908603E48B1
:10077000006840F001003C49086000203A49083117
:100780000860394800683D490840374908603C48DE
:10079000091D0860081F006820F48020091F0860F8
:1007A000002031490C310860FFF76CFF4FF000600A
:1007B00031498039086010BD70B500200022022345
:1007C00000240221284D08352D6805F00C0020B1C9
:1007D000042806D0082834D107E02A4D2A4E356077
:1007E00033E02A4D284E35602FE01F4D2D1D2D681A
:1007F000C5F380541C4D2D1D2D6805F03F0154B1EB
:10080000224DB5FBF1F5184E361D3668C6F3881635
:1008100005FB06F209E01B4DB5FBF1F5124E361D46
:100820003668C6F3881605FB06F20F4D2D1D2D68A0
:10083000C5F301456D1C6B00B2FBF3F5124E35603C
:1008400003E0104D104E356000BF00BF064D083567
:100850002D68C5F303150E4E705D0B4D2D68C54018
:10086000094E356070BD0000003802400070004045
:1008700008544007003C024088ED00E0FFFFF6FE10
:10088000103000240024F4001C00002000127A0024
:100890002000002010B502F023F8FE49088002F085
:1008A00055F8FD490880FD48007850B902F02DFA4E
:1008B0000120FB4908700320FA4908700120F7491C
:1008C000087002F090F8F348008840F2E93188425D
:1008D00006D1F2480078012802D10220EF490870C1
:1008E000EC48008840F25641884206D1EB48007837
:1008F000022802D10320E9490870E648008840F246
:10090000E931884206D1E5480078032802D1042065
:10091000E2490870DF48008840F25641884206D11B
:10092000DE480078042802D10520DC490870D94847
:10093000008840F2E931884212D1D8480078052871
:100940000ED10620D549087040F6B83002F059FAA9
:1009500002F0B1F90020D24908700120D149087095
:10096000CC480088A0B9CD480078062810D10720CF
:10097000CA49087002F0D7F902F0D9F80420CA4930
:10098000087040F6B83002F022FA0020C74908701B
:1009900010BD10B501F0A4FFBE49088001F0D6FFDC
:1009A000BD490880BD48007848B902F084F90020AC
:1009B000BB4908700120BB490870B849087002F0B3
:1009C00012F8B548008840F2E931884206D1B348B0
:1009D0000078012802D10220B0490870AE48008892
:1009E00040F25641884206D1AC480078022802D134
:1009F0000320AA490870A848008840F2E9318842DB
:100A000006D1A6480078032802D10420A349087023
:100A1000A148008840F25641884206D19F4800789C
:100A2000042802D105209D4908709B48008840F2A7
:100A3000E93188420ED19948007805280AD102F0A0
:100A400056F901209649087004209649087006203E
:100A5000924908708F48008840F2E931884206D1F7
:100A60008E480078062802D107208C4908708948F2
:100A7000008840F25641884206D18848007807280D
:100A800002D10820854908708248008840F2E93187
:100A9000884206D181480078082802D109207F4980
:100AA00008707C48008840F25641884206D17B4855
:100AB0000078092802D10A20784908707548008812
:100AC00040F2E93188420DD1744800780A2809D1F2
:100AD00002F029F902F02BF80020744908700B206D
:100AE0006E49087010BD10B501F0FAFE6949088022
:100AF00001F02CFF684908806848007850B902F07E
:100B0000E8F8002066490870022066490870012054
:100B10006249087001F067FF5F48008840F2E931E0
:100B200088420ED15D48007801280AD102F0EDF824
:100B300001205B49087003205A4908700220574978
:100B400008705448008840F2E931884206D1534881
:100B50000078022802D10320504908704D480088CF
:100B600040F25641884206D14C480078032802D111
:100B700004204A4908704748008840F2E931884219
:100B800006D146480078042802D105204349087060
:100B90004048008840F25641884206D13F480078DC
:100BA000052802D106203D4908703A48008840F2E5
:100BB000E93188420ED13948007806280AD102F07E
:100BC00088F800203649087002203649087007204E
:100BD000324908703048008840F2E931884206D135
:100BE0002E480078072802D108202C4908702A488E
:100BF000008840F25641884206D1284800780828EB
:100C000002D10920254908702348008840F2E931C3
:100C1000884206D121480078092802D10A201F49BC
:100C200008701D48008840F25641884206D11B4892
:100C300000780A2802D10B2018490870164800884D
:100C400040F2E931884210D1144800780B280CD1C9
:100C500002F069F801F06BFF0020144908700520CC
:100C6000114908700C200D49087010BD10B501F035
:100C700037FE0849088001F069FE074908800748E7
:100C80000078C0B902F017F800200549087001206B
:100C900004490DE0D8000020DA000020D500002033
:100CA000F4000020F500002019000020D4000020EE
:100CB0000870FE49087001F096FE10BD10B501F0F5
:100CC0000FFEFB49088001F041FEFA490880F74811
:100CD000007848B901F0EFFF0020F74908700120C3
:100CE000F6490870F149087001F07DFEF14800886E
:100CF00040F2E931884206D1EC480078012802D15F
:100D00000220EA490870EB48008840F256418842C8
:100D100006D1E6480078022802D10320E349087092
:100D2000E448008840F2E931884206D1DF48007883
:100D3000032802D10420DD490870DE48008840F213
:100D40005641884206D1D9480078042802D10520AE
:100D5000D6490870D748008840F2E931884206D168
:100D6000D2480078052802D10620D0490870D14821
:100D7000008840F25641884206D1CC4800780628C7
:100D800002D10720C9490870CA48008840F2E931F9
:100D9000884203D0C7480088092811D1C348007889
:100DA00007280DD10820C14908701E2002F029F83B
:100DB00001F0ABFF0120C04908700320BF49087053
:100DC000BC48008898B9B948007808280FD1092094
:100DD000B649087001F0A7FF01F0A9FE1E2001F03E
:100DE000F6FF0220B64908700020B649087010BD11
:100DF00010B501F075FDAE49088001F0A7FDAD49C1
:100E00000880AA48007808B901F07FFFA848008848
:100E100040F2E93188420CD1A448007848B901F089
:100E20004AFF0020A44908700120A44908709F4986
:100E3000087001F0D8FD9F48008840F2E9318842EF
:100E400006D19A480078012802D1022097490870FB
:100E50009848008840F25641884206D1934800786D
:100E6000022802D10320914908709248008840F27C
:100E7000E931884206D18D480078032802D1042048
:100E80008A4908708B48008840F25641884209D14F
:100E900086480078042805D103208B490870052076
:100EA0008249087088480078002808DD7F4800786B
:100EB000052804D184480078401E83490870824880
:100EC000007858B979480078052807D101F02BFF40
:100ED00000207C49087001207949087010BD10B5C8
:100EE00001217A4804F067FA00283AD07548007862
:100EF0000D2827D2DFE800F007080B0E1114171A8F
:100F00001B1C1D2023001EE0FFF772FF1BE0FFF7F4
:100F1000D5FE18E0FFF7BEFC15E0FFF7A7FE12E0D4
:100F2000FFF7E1FD0FE0FFF734FD0CE00BE00AE016
:100F300009E0FFF7AFFC06E0FFF7ACFC03E0FFF7CA
:100F4000A9FC00E000BF00BF584803785948028858
:100F5000574801885EA004F04BFE01215B4804F075
:100F60003BFA10BD10B501F0BBFC5149088001F0FF
:100F7000EDFC504908804D48007850B901F0A9FEB9
:100F800000204D49087002204C4908700120474953
:100F9000087001F028FD4748008840F2E931884296
:100FA00006D142480078012802D102203F4908704A
:100FB0004048008840F25641884206D13B480078BC
:100FC000022802D10320394908703A48008840F2CB
:100FD000E931884206D135480078032802D104203F
:100FE000324908703348008840F25641884206D1A1
:100FF0002E480078042802D105202C4908702D487D
:10100000008840F2E93188420ED12848007805284E
:101010000AD101F06CFE01202749087004202749FD
:1010200008700620214908702148008840F2E93103
:10103000884206D11D480078072802D108201B49A4
:1010400008701B48008840F25641884206D1174874
:101050000078082802D10920144908701448008833
:1010600040F2E931884206D110480078092802D1BF
:101070000A200E4908700E48008840F25641884206
:1010800006D10A4800780A2802D10B2007490870C7
:101090000748008840F2E93188422FD103480078A0
:1010A0000B282BD101F03FFE20E00000D5000020EE
:1010B000D8000020DA000020F4000020F500002015
:1010C00019000020D4000020D600002000100040AD
:1010D0000A4831A3BA25642C204832A3BA25642CCF
:1010E0002073746570A3BA25640A000001F01FFD27
:1010F0000020F84908700C20F749087010BD002046
:10110000F54908700A20F5490870704770B5054622
:10111000002419E0285D312804D0322807D0332874
:101120000FD109E000F0AAFD00F05AFB0AE000F040
:10113000DAFD00F0A8FB05E000F00AFE00F0D4FBA9
:1011400000E000BF00BF641C032CE3DB70BD10B5E2
:1011500004462078312802D100F090FD0AE0207882
:10116000322802D100F0BFFD04E02078332801D1FD
:1011700000F0EEFD00F034FB10BD10B504466078C1
:10118000312802D100F07AFD0AE06078322802D1DD
:1011900000F0A9FD04E06078332801D100F0D8FD0B
:1011A00000F071FB10BD10B50446A078312802D1C3
:1011B00000F064FD0AE0A078322802D100F093FD2F
:1011C00004E0A078332801D100F0C2FD00F08CFBD0
:1011D00010BD10B504462079312802D100F0EBFD96
:1011E0000AE02079322802D100F00BFE04E02079D9
:1011F000332801D100F02BFE10BD10B504466079F4
:10120000312802D100F0D7FD0AE06079322802D1FE
:1012100000F0F7FD04E06079332801D100F017FEFB
:1012200010BD10B50446A079312802D100F0C3FDED
:101230000AE0A079322802D100F0E3FD04E0A079B1
:10124000332801D100F003FE10BD70B5054605241A
:1012500019E0285D312804D0322807D033280FD177
:1012600009E000F0A8FD00F0BBFA0AE000F0C9FDBB
:1012700000F009FB05E000F0EAFD00F035FB00E0BE
:1012800000BF00BF641C082CE3DB70BD70B50446D2
:101290000D46012D13D100F058FB2078312802D1E2
:1012A00000F03EFE20E02078322802D100F06CFEF3
:1012B0001AE02078332817D100F0FEFD14E0022D4B
:1012C00012D100F042FB2079312802D100F028FE33
:1012D0000AE02079322802D100F056FE04E020799D
:1012E000332801D100F0E8FD70BD70B504460D460D
:1012F000012D13D100F07AFB6078312802D100F083
:101300000FFE20E06078322802D100F03DFE1AE0A6
:101310006078332817D100F0CFFD14E0022D12D1F0
:1013200000F064FB6079312802D100F0F9FD0AE099
:101330006079322802D100F027FE04E0607933287A
:1013400001D100F0B9FD70BD70B504460D46012D08
:1013500013D100F09BFBA078312802D100F0E0FD12
:1013600020E0A078322802D100F00EFE1AE0A0782A
:10137000332817D100F0A0FD14E0022D12D100F0A7
:1013800085FBA079312802D100F0CAFD0AE0A079DE
:10139000322802D100F0F8FD04E0A079332801D111
:1013A00000F08AFD70BD70B505460E460024012E82
:1013B0001ED100BF19E0285D312804D0322807D0A3
:1013C00033280FD109E000F0C0FA00F0A9FD0AE0CF
:1013D00000F00CFB00F0D8FD05E000F057FB00F03A
:1013E0006BFD00E000BF00BF641C032CE3DB1FE0CB
:1013F000022E1DD1042419E0285D312804D03228A2
:1014000007D033280FD109E000F09FFA00F088FDE3
:101410000AE000F0EBFA00F0B7FD05E000F036FB63
:1014200000F04AFD00E000BF00BF641C072CE3DBB6
:1014300070BD70B504460D46012D13D120783128BA
:1014400002D100F00BFE0AE02078322802D100F031
:1014500039FE04E02078332801D100F0CCFD00F003
:10146000BFF914E0022D12D12079312802D100F009
:10147000F5FD0AE02079322802D100F023FE04E0D5
:101480002079332801D100F0B6FD00F0A9F970BD34
:1014900070B504460D46012D13D16078312802D174
:1014A00000F0DCFD0AE06078322802D100F00AFE8C
:1014B00004E06078332801D100F09DFD00F0E3F9ED
:1014C0001BE0022D19D16079312809D100F0C6FD49
:1014D00011E00000D4000020D5000020D60000203C
:1014E0006079322802D100F0EDFD04E06079332804
:1014F00001D100F080FD00F0C6F970BD70B5044662
:101500000D46012D13D1A078312802D100F0A6FD9F
:101510000AE0A078322802D100F0D4FD04E0A078DF
:10152000332801D100F067FD00F0DEF914E0022D50
:1015300012D1A079312802D100F090FD0AE0A07903
:10154000322802D100F0BEFD04E0A079332801D199
:1015500000F051FD00F0C8F970BD10B5044600F070
:10156000F4F92078312802D100F018FE0AE0207842
:10157000322802D100F046FE04E02078332801D161
:1015800000F0D9FD10BD10B5044600F02FFA6078C8
:10159000312802D100F002FE0AE06078322802D140
:1015A00000F030FE04E06078332801D100F0C3FD84
:1015B00010BD10B5044600F069FAA078312802D1B8
:1015C00000F0ECFD0AE0A078322802D100F01AFE0B
:1015D00004E0A078332801D100F0ADFD10BD10B5B6
:1015E000044600F0B2F92078312802D100F077FEED
:1015F0000AE02078322802D100F0A8FE04E020782A
:10160000332801D100F031FE10BD10B5044600F0C2
:10161000EDF96078312802D100F061FE0AE06078CF
:10162000322802D100F092FE04E06078332801D124
:1016300000F01BFE10BD10B5044600F027FAA0789C
:10164000312802D100F04BFE0AE0A078322802D106
:1016500000F07CFE04E0A078332801D100F005FE04
:1016600010BD000070B505460E46344605E0F8484A
:1016700004600F2002F052F8A41EAC42F7D270BDF5
:1016800070B505460E46344605E0F14804600D206D
:1016900002F044F8641CAC42F7D970BD70B5054641
:1016A0000E46344605E0EA4804600F2002F036F8A2
:1016B000A41CAC42F7D970BD70B505460E46344641
:1016C00005E0E44884630F2002F028F8A41CAC4233
:1016D000F7D970BD10B54FF44870DD4908604FF47C
:1016E000FA7002F01BF840F22440DB4908604FF426
:1016F000487002F013F84FF4487140F28B30FFF756
:10170000CDFFC82002F00AF84FF45C7140F2BF3000
:10171000FFF7D2FFC82002F001F810BD10B54FF45A
:101720004870CB49086001F0F9FF40F22440CA49F3
:1017300008604FF4487001F0F1FF4FF4487140F237
:101740008B30FFF7ABFFC82001F0E8FF4FF4337197
:1017500040F2BF30FFF7B0FF10BD10B54FF42F704F
:10176000BB490860C82001F0D9FF40F22440BA49C3
:1017700008604FF4967001F0D1FF40F28B30B4490D
:1017800008604FF4967001F0C9FF40F2BF30B149D4
:101790008863C82001F0C2FF10BD10B540F224409C
:1017A000AD4908604FF4FA7001F0B8FF40F2BF3065
:1017B000A84988634FF4967001F0B0FF40F28B3077
:1017C000A34908604FF4FA7001F0A8FF4FF4487085
:1017D0009F49091D08604FF4FA7001F09FFF10BD8A
:1017E00010B59E4800889A49091D08604FF4FA70A8
:1017F00001F094FF9A480088954908604FF44870BA
:1018000001F08CFF97480088934908604FF44870B6
:1018100001F084FF944800888E4988634FF4487033
:1018200001F07CFF40F28E208A4948634FF44870F3
:1018300001F074FF40F2BF30864988634FF448706E
:1018400001F06CFF40F22440834908604FF4487077
:1018500001F064FF40F28B307D4908604FF448701E
:1018600001F05CFF4FF4D7707949091D08604FF40F
:10187000167001F053FF4FF4167076494863C82084
:1018800001F04CFF10BD10B5784800887049091D63
:1018900008604FF4487001F041FF754800886C49BA
:1018A00008604FF4487001F039FF724800886A49B7
:1018B00008604FF4487001F031FF6F4800886549B7
:1018C00088634FF4487001F029FF40F28E2061498F
:1018D00048634FF4487001F021FFFFF75EFF4FF4BB
:1018E00016705C49486310BD10B5644800885849BB
:1018F000091D08604FF4617001F010FF6048008816
:10190000534908604FF4487001F008FF5D480088B3
:10191000514908604FF4487001F000FF5A480088B0
:101920004C4988634FF4487001F0F8FE40F28E2075
:10193000484948634FF4487001F0F0FEFFF72DFF6F
:101940004FF416704349486310BD10B540F28E2025
:1019500040494863414800883D49091D08604FF4EB
:10196000487001F0DBFE40F28B313D480088FFF704
:1019700095FEC82001F0D2FE3A480088364908603A
:101980004FF4487001F0CAFE374800883149886337
:101990004FF4487001F0C2FE4FF439702D4948638E
:1019A0004FF4487001F0BAFE40F2BF302949886315
:1019B0004FF4487001F0B2FE40F22440264908601E
:1019C0004FF4487001F0AAFE40F28B3020490860C5
:1019D0004FF4487001F0A2FE4FF4D7701C49091D66
:1019E00008604FF4487001F099FE10BD10B540F248
:1019F0008E20184948631D4800881549091D086054
:101A00004FF4487001F08AFE40F28B31184800888C
:101A1000FFF744FEC82001F081FE174800880D49F9
:101A200088634FF4487001F079FE124800880A4933
:101A300008604FF4487001F071FE4FF439700549A9
:101A400048634FF4487001F069FEFFF7A6FE10BD31
:101A5000341800400040014034440140E2000020BE
:101A6000E0000020DE000020DC000020EA00002072
:101A7000E8000020E6000020E4000020F200002042
:101A8000F0000020EE000020EC00002010B540F235
:101A90008E20FE494863FE480088FE4908604FF4E6
:101AA000487001F03BFE40F28B31FB480088FFF7A5
:101AB000F5FDC82001F032FEF8480088F34988633C
:101AC0004FF4487001F02AFEF5480088F549086097
:101AD0004FF4487001F022FE4FF43970EB4948632F
:101AE0004FF4487001F01AFEFFF757FE10BD10B515
:101AF0004FF41670E5494863401001F00FFE40F2C4
:101B00000A40E84908604FF4967001F007FE40F281
:101B10003640E049091F08604FF4967001F0FEFD61
:101B20004FF4D770DB4908604FF4FA7001F0F6FD0E
:101B300040F2E240D549886310BD10B54FF41670ED
:101B4000D2494863642001F0E9FD40F2C140CF4929
:101B500088634FF4FA7001F0E1FD40F21240CD4984
:101B6000091F08604FF4FA7001F0D8FD40F23440CC
:101B7000CC4908604FF4FA7001F0D0FD4FF4E070EA
:101B8000C449086010BD10B540F2B710C1490860E3
:101B90004FF4487001F0C2FD40F2022140F2EE2005
:101BA000FFF76EFD4FF4967001F0B8FD40F20A4069
:101BB000BC4908604FF4487001F0B0FD40F2364077
:101BC000B449091F08604FF4487001F0A7FD40F2C6
:101BD000E240AE4988634FF4FA7001F09FFD10BDFA
:101BE00010B54FF41670A94948634FF4E070A94945
:101BF00008604FF4C87001F091FD40F2E240A34943
:101C000088634FF4967001F089FD40F21240A149BB
:101C1000091F08604FF4FA7001F080FD40F20A409D
:101C2000A04908604FF4967001F078FD10BD10B522
:101C30004FF416709549486340F2C9109549086001
:101C40004FF4C87001F06AFD40F294408F498863F8
:101C50004FF4967001F062FD40F2B5308D49091FD6
:101C600008604FF4FA7001F059FD40F20A408D49C6
:101C700008604FF4967001F051FD10BD10B540F2B0
:101C8000DB10844908604FF4FA7001F047FD4FF40F
:101C90005A707E4988634FF4487001F03FFD4FF45D
:101CA00048707C49091F086001F038FD40F252304D
:101CB0007C4908604FF4487001F030FD4FF44871E2
:101CC0004FF41470FFF7CEFC4FF4967001F026FD30
:101CD0004FF439706D4948634FF4487001F01EFDB0
:101CE000FFF7F8FC10BD10B54FF4C87069490860E3
:101CF000642001F013FD40F22230644988634FF400
:101D0000167001F00BFD4FF448706249091F08601E
:101D10004FF42F7001F002FD4FF4767061490860B6
:101D20004FF4487001F0FAFC4FF448714FF42370FF
:101D3000FFF798FCC82001F0F1FC4FF43E705349C6
:101D400048634FF4487001F0E9FCFFF7C3FC10BD95
:101D500010B540F25D104F490860C82001F0DEFC6C
:101D60004FF45370494988634FF4487001F0D6FC32
:101D70004FF448704749091F086001F0CFFC4FF449
:101D80005370484908604FF4487001F0C7FC4FF4A5
:101D9000487140F24220FFF765FCC82001F0BEFC0C
:101DA0004FF43970394948634FF47A7001F0B6FC4A
:101DB000FFF790FC10BD10B54FF4EE703549086088
:101DC0004FF43370314988634FF4487001F0A6FC3A
:101DD0004FF448702F49091F086001F09FFC4FF431
:101DE0006570304908604FF4487001F097FC4FF47B
:101DF00048714FF4FE70FFF735FC642001F08EFC53
:101E000010BD10B54FF4C870224908604FF41D7022
:101E10001E4988634FF4487001F080FC4FF448700D
:101E20001C49091F086001F079FC40F213401D496C
:101E300008604FF4487001F071FC4FF4487140F2B3
:101E40001A20FFF70FFC642001F068FC10BD10B5EC
:101E500040F25D100F4908604FF433700B498863FE
:101E60004FF4487001F05AFC4FF448700949091FBB
:101E7000086001F053FC4FF465700A4908604FF4A4
:101E8000487001F04BFC4FF448710DE000400140F8
:101E9000F200002038180040F0000020EC00002084
:101EA000EE000020344401404FF4FE70FFF7DAFBEF
:101EB000642001F033FC10BD10B540F29220FE49C1
:101EC00088634FF4487001F029FC4FF44870FB49D7
:101ED000086001F023FC4FF43970F849091D0860CF
:101EE0004FF4487001F01AFC4FF47370F449086025
:101EF0004FF4487001F012FC4FF448714FF4FB703E
:101F0000FFF7B0FB642001F009FC4FF41670EA49BA
:101F100048634FF4487001F001FCFFF7FFFB10BD70
:101F200010B54FF41B70E44988634FF4FA7001F068
:101F3000F5FB4FF44870E149086001F0EFFB4FF406
:101F40002A70DE49091D08604FF4487001F0E6FB75
:101F500040F20E40DA4908604FF4487001F0DEFBB1
:101F60004FF4487140F20A20FFF77CFBC82001F0D3
:101F7000D5FB4FF41670D04948634FF47A7001F0E6
:101F8000CDFBFFF7CBFB10BD10B54FF42870CA494D
:101F900088634FF4487001F0C1FB4FF44870C749A3
:101FA000086001F0BBFB40F25D20C449091D0860D8
:101FB0004FF4487001F0B2FB40F2BA30C0490860FB
:101FC0004FF4487001F0AAFB4FF448714FF4FB70D6
:101FD000FFF748FBC82001F0A1FB4FF41670B6498B
:101FE00048634FF47A7001F099FBFFF797FBC82024
:101FF00001F094FB10BD10B540F29220AE49886309
:102000004FF4487001F08AFB4FF44870AB49086008
:1020100001F084FB4FF43970A849091D0860C820FD
:1020200001F07CFB4FF47370A54908604FF44870D1
:1020300001F074FB4FF448714FF4FB70FFF712FB93
:10204000C82001F06BFB4FF439709B4948634FF493
:10205000487001F063FBFFF761FB10BD10B54FF452
:102060001B70954988634FF4487001F057FB4FF49B
:1020700048709249086001F051FB4FF439708F4964
:10208000091D08604FF4487001F048FB40F20E4013
:102090008B4908604FF4FA7001F040FB4FF448712F
:1020A00040F20A20FFF7DEFAC82001F037FB4FF4B8
:1020B0003970814948634FF4487001F02FFBFFF7F6
:1020C0002DFB10BD10B54FF428707B4988634FF489
:1020D000487001F023FB4FF448707849086001F024
:1020E0001DFB40F25D207549091D08604FF44870E2
:1020F00001F014FB40F2BA30714908604FF4FA70F5
:1021000001F00CFB4FF448714FF4FB70FFF7AAFA93
:10211000C82001F003FB4FF43970674948634FF45E
:10212000487001F0FBFAFFF7F9FA4FF4D7706349F2
:10213000091D086010BD10B540F2B2205E498863E9
:102140004FF4167001F0EAFA4FF448705B490860EA
:1021500001F0E4FA40F201405849091D08604FF4CB
:10216000487001F0DBFA40F21E40554908604FF418
:10217000487001F0D3FA4FF4487140F25D20FFF748
:1021800071FAC82001F0CAFA4FF416704A49486340
:10219000C82001F0C3FAFFF7C1FA10BD10B540F234
:1021A0007320454988634FF4167001F0B7FA4FF475
:1021B00048704249086001F0B1FA4FF46C703F4931
:1021C000091D08604FF4487001F0A8FA40F28D40F4
:1021D0003B4908604FF4487001F0A0FA4FF4487191
:1021E00040F28D20FFF73EFAC82001F097FA4FF435
:1021F0001670314948634FF4487001F08FFAFFF7C9
:102200008DFA10BD10B540F25B202B498863C01ECB
:1022100001F084FA4FF448702849086001F07EFA12
:1022200040F262302549091D08604FF4487001F002
:1022300075FA40F26C40224908604FF4487001F092
:102240006DFA4FF4487140F26620FFF70BFAC82090
:1022500001F064FA4FF41670174948634FF4487060
:1022600001F05CFAFFF75AFA10BD10B540F2FD20FC
:10227000114988634FF4167001F050FA4FF448701A
:102280000E49086001F04AFA40F2E5300B49091D99
:1022900008604FF4487001F041FA4FF44A70084961
:1022A00008604FF4FA7001F039FA4FF448714FF4B6
:1022B000DF70FFF7D7F905E0004001403418004017
:1022C00034440140322001F029FA4FF416703A49A3
:1022D0004863C82001F022FAFFF7FCF910BD10B5E1
:1022E0004FF42670344988634FF4167001F016FAE3
:1022F00040F2EE20314908604FF4487001F00EFAC8
:1023000040F29F302D49091D0860322001F006FA85
:10231000322001F003FA40F21E40294908604FF4D0
:10232000FA7001F0FBF940F2EE2140F2F110FFF7F4
:1023300099F9322001F0F2F94FF416701E49486302
:10234000C82001F0EBF9FFF7C5F910BD10B540F258
:10235000E720194988634FF4167001F0DFF94FF454
:1023600048701649086001F0D9F940F2633013490A
:10237000091D0860322001F0D1F9322001F0CEF9B8
:1023800040F273300E4908604FF4FA7001F0C6F95C
:102390004FF448714FF4F470FFF764F9322001F004
:1023A000BDF94FF4167004494863C82001F0B6F92E
:1023B000FFF790F910BD00000040014034180040C4
:1023C000344401401CB50121162003F0BBFA4FF440
:1023D000E050009002208DF8050001208DF80400E7
:1023E00000208DF806006946F94801F091FF0820A9
:1023F00000906946F74801F08BFF4FF48060009031
:102400006946F54801F084FF1CBD0021082116E053
:1024100000F0800222B10822EE4B18331A8003E04C
:102420000822EC4B1A331A804FF48062E84B1A33BF
:102430001A809B1E1A804206100E4A1ED1B2002935
:10244000E6DC704710B504464FF48050E0491A317D
:1024500008804010891E08802012FFF7D6FFE0B2E6
:10246000FFF7D3FF4FF48050D9491831088010BDD1
:1024700010B504464FF48050D5491A3108804010F9
:1024800008802046FFF7C1FF4FF48050D049183133
:10249000088010BD10B504464FF48050CC491A3165
:1024A00008804010891E08802046FFF7AEFF4FF4D9
:1024B0008050C7491831088010BDF0B505460C465C
:1024C00016461F462A20FFF7D3FF0020FFF7E2FF42
:1024D000E8B2FFF7DFFF0020FFF7DCFFB11CC8B256
:1024E000FFF7D8FF2B20FFF7C3FF0020FFF7D2FF35
:1024F000E0B2FFF7CFFF0020FFF7CCFF791CC8B296
:10250000FFF7C8FF2C20FFF7B3FFF0BD70B50646FC
:102510009F237F2200210846FFF7CFFF2C20FFF7E3
:10252000A7FF002408E0002503E03046FFF78AFFFC
:102530006D1CA02DF9D3641C802CF4D370BD10B594
:102540004FF48060A4494883642001F0E7F84FF419
:102550008060A1490883322001F0E0F810BD10B579
:10256000FFF730FFFFF7EBFF1120FFF781FF782027
:1025700001F0D4F8B120FFF77BFF0120FFF78AFFBD
:102580002C20FFF787FF2D20FFF784FFB220FFF7F5
:102590006FFF0120FFF77EFF2C20FFF77BFF2D2030
:1025A000FFF778FFB320FFF763FF0120FFF772FF0B
:1025B0002C20FFF76FFF2D20FFF76CFF0120FFF7A6
:1025C00069FF2C20FFF766FF2D20FFF763FFB42083
:1025D000FFF74EFF0720FFF75DFFC020FFF748FF22
:1025E000A220FFF757FF0220FFF754FF8420FFF7D8
:1025F00051FFC120FFF73CFFC520FFF74BFFC22072
:10260000FFF736FF0A20FFF745FF0020FFF742FFE4
:10261000C320FFF72DFF8A20FFF73CFF2A20FFF79A
:1026200039FFC420FFF724FF8A20FFF733FFEE2095
:10263000FFF730FFC520FFF71BFF0E20FFF72AFF33
:102640003620FFF715FFC020FFF724FFE020FFF73B
:102650000FFF0F20FFF71EFF1A20FFF71BFF0F20B1
:10266000FFF718FF1820FFF715FF2F20FFF712FFC5
:102670002820FFF70FFF2020FFF70CFF2220FFF795
:1026800009FF1F20FFF706FF1B20FFF703FF232092
:10269000FFF700FF3720FFF7FDFE0020FFF7FAFEEF
:1026A0000720FFF7F7FE0220FFF7F4FE1020FFF7E8
:1026B000F1FEE120FFF7DCFE0F20FFF7EBFE1B2011
:1026C000FFF7E8FE0F20FFF7E5FE1720FFF7E2FE19
:1026D0003320FFF7DFFE2C20FFF7DCFE2920FFF779
:1026E000D9FE2E20FFF7D6FE3020FFF7D3FE302094
:1026F000FFF7D0FE3920FFF7CDFE3F20FFF7CAFEDF
:102700000020FFF7C7FE0720FFF7C4FE0320FFF7F6
:10271000C1FE1020FFF7BEFE2A20FFF7A9FE002011
:10272000FFF7B8FE0220FFF7B5FE0020FFF7B2FE6C
:102730008220FFF7AFFE2B20FFF79AFE0020FFF765
:10274000A9FE0320FFF7A6FE0020FFF7A3FE7B20D3
:10275000FFF7A0FEF020FFF78BFE0120FFF79AFEA7
:10276000F620FFF785FE0020FFF794FE3A20FFF7E2
:102770007FFE0520FFF78EFE2920FFF779FE4EF63B
:102780007D70FFF7C3FE10BD30B505460C462846E8
:10279000FFF76EFE2046FFF77DFE30BD30B50446E4
:1027A0000D462B46224629462046FFF786FE30BDC1
:1027B00070B504460D461646681C83B2601C82B292
:1027C00029462046FFF779FE3046FFF73BFE70BDF5
:1027D00000040240000802400010024060B50546B7
:1027E0000E4631462846FFF7D9FFE0B2FFF752FE0A
:1027F000204660BD1CB501214C2003F0A3F84FF426
:102800002A40009000208DF8040001208DF8070078
:102810006946CA4801F07CFD512000906946C848CD
:1028200001F076FD4FF4006000906946C54801F064
:102830006FFD1CBD1CB54FF40051C04801F0CAFD2E
:102840008DF800004FF40041BC4801F0C3FD8DF845
:1028500001004FF40061B94801F0BCFD8DF80200A1
:102860004FF40071B54801F0B5FD8DF8030010215B
:10287000B34801F0AFFD8DF804004021B04801F0ED
:10288000A9FD8DF805000121AD4801F0A3FD8DF8EB
:1028900006004FF40061AB4801F09CFD8DF8070085
:1028A000A9A003F0A5F9002406E01DF80410A8A0D3
:1028B00003F09EF9601CC4B2032CF6DDA5A003F062
:1028C00097F9042406E01DF80410A1A003F090F984
:1028D000601CC4B2072CF6DD9FA003F089F91CBD73
:1028E00008B54FF40051954801F074FD8DF80000D3
:1028F0004FF40041914801F06DFD8DF801004FF457
:1029000000618E4801F066FD8DF802004FF4007101
:102910008A4801F05FFD8DF803009DF800004FF438
:102920007A7110FB01F09DF8011001EBC10202EB7E
:10293000011100EB81009DF8021001EB810100EB19
:1029400041009DF80310084480B208BD08B510216D
:102950007B4801F03FFD8DF800004021784801F0F0
:1029600039FD8DF801000121754801F033FD8DF826
:1029700002004FF40061734801F02CFD8DF8030054
:102980009DF800004FF47A7110FB01F09DF80110E2
:1029900001EBC10202EB011100EB81009DF8021076
:1029A00001EB810100EB41009DF80310084480B267
:1029B00008BD10B569480078052811D2DFE800F09D
:1029C0000304070A0D000CE000F075F909E000F0BF
:1029D00080F906E000F099F903E000F088F900E0E2
:1029E00000BF00BF10BD70B5FFF77AFF0546FFF7C7
:1029F000ADFF04465A480078002842D15748007875
:102A000020B1012803D0022839D11EE038E0092D79
:102A100001D0492D05D100F0B0F952A003F0E8F83B
:102A200012E040F24C40854203D040F256408542CD
:102A300005D100F0B0F94DA003F0DAF804E0FFF79B
:102A4000B8FF4CA003F0D4F81AE0092D03D0492DAB
:102A500001D0012D02D100F03CF90FE040F24C40D2
:102A6000854206D040F25640854202D0B5F57A7FC5
:102A700002D100F020F901E0FFF79BFF00E000BF6A
:102A800000BF37480078012850D13448007830B171
:102A9000012805D0032818D0042845D12FE044E0B0
:102AA000092C01D0492C02D100F067F90CE040F26A
:102AB0004C40844203D040F25640844202D100F0A0
:102AC0006AF901E0FFF775FF2FE0092C03D0492CCC
:102AD00001D0012C02D100F0FCF80FE040F24C4094
:102AE000844206D040F25640844202D0B4F57A7F48
:102AF00002D100F0E0F801E0FFF75BFF15E0092CE0
:102B000001D0492C02D100F038F90CE040F24C40E1
:102B1000844203D040F25640844202D100F03BF997
:102B200001E0FFF746FF00E000BF00BF70BD0020DE
:102B30000B490870094908707047000000180240EE
:102B4000000C024000080240BAECCDE25B0000003D
:102B5000256420007C2000005D0A0000F5000020B4
:102B6000F4000020CDF9D7F300000000CDF9D3D256
:102B700000000000BCCCD0F8000000001CB5012112
:102B8000302002F0DFFE1E20009001208DF80400AE
:102B900000208DF806008DF8070002208DF8050052
:102BA0006946FA4801F0B4FBAA2000906946F8484B
:102BB00001F0AEFB1CBD10B504463CB90221F4483F
:102BC00001F024FC0821F24801F01EFC012C07D181
:102BD0000221EF4801F018FC0821ED4801F016FC35
:102BE000022C07D10221EA4801F010FC0821E84834
:102BF00001F00CFC10BD10B504463CB92021E4489E
:102C000001F004FC8021E24801F0FEFB012C07D119
:102C10002021DF4801F0F8FB8021DD4801F0F6FBC0
:102C2000022C07D12021DA4801F0F0FB8021D8489E
:102C300001F0ECFB10BD10B504463CB91021D3489F
:102C400001F0E4FB0421D14801F0DEFB012C07D1A7
:102C50001021CE4801F0D8FB0421CC4801F0D6FB6E
:102C6000022C07D11021C94801F0D0FB0421C7482C
:102C700001F0CCFB10BD10B504463CB90221C3489D
:102C800001F0C4FB0821C14801F0BEFB012C07D1B3
:102C90000221BE4801F0B8FB0821BC4801F0B6FB98
:102CA000022C07D10221B94801F0B0FB0821B74836
:102CB00001F0ACFB10BD10B50020FFF77CFF002039
:102CC000FFF799FF0020FFF7B6FF0020FFF7D3FFC3
:102CD00010BD10B50120FFF76EFF0120FFF78BFF3D
:102CE0000120FFF7A8FF0120FFF7C5FF10BD10B5B9
:102CF0000020FFF760FF0120FFF77DFF0120FFF7B5
:102D00009AFF0020FFF7B7FF10BD10B50120FFF7B5
:102D100052FF0020FFF76FFF0020FFF78CFF01201C
:102D2000FFF7A9FF10BD10B50220FFF744FF0220F6
:102D3000FFF761FF0220FFF77EFF0220FFF79BFFF6
:102D400010BD10B50020FFF736FF0220FFF753FF3C
:102D50000220FFF770FF0020FFF78DFF10BD10B5B8
:102D60000220FFF728FF0020FFF745FF0020FFF7B4
:102D700062FF0220FFF77FFF10BD10B50120FFF7B3
:102D80001AFF0120FFF737FF0020FFF754FF002054
:102D9000FFF771FF10BD10B50020FFF70CFF0020FA
:102DA000FFF729FF0120FFF746FF0120FFF763FF30
:102DB00010BD10B50020FFF7FEFE0220FFF71BFF3D
:102DC0000120FFF738FF0220FFF755FF10BD10B5B7
:102DD00004467048006820446E4908600846406810
:102DE0002044486008468068204488600846C068DF
:102DF0002044C86008464268016867A002F0F8FEF7
:102E000010BD10B5044663480068001B61490860A6
:102E100008464068001B486008468068001B8860C0
:102E20000846C068001BC8600846426801685AA08E
:102E300002F0DEFE10BD30B5594C2468A04204DD1E
:102E4000574C2468534DA0B22C60554C2468A142C5
:102E500004DD534C24684F4DA1B26C60504C246883
:102E6000A24204DD4E4C24684A4DA2B2AC604C4CE8
:102E70002468A34204DD4A4C2468464DA3B2EC60AA
:102E8000484C2060241D2160464C0C342260241FD5
:102E9000236030BD10B5F0EE401A30EEE14A34EE5A
:102EA000014AB0EE442A30EEA14A34EE414AF0EE37
:102EB000442A30EEE14A34EE414AB0EE443A30EE74
:102EC000A14A34EE014AF0EE443AB0EE420AB4EEC2
:102ED000E20AF1EE10FA01D2B0EE620AB4EEC30AD1
:102EE000F1EE10FA01D2B0EE430AB4EEE30AF1EECD
:102EF00010FA01D2B0EE630A294890ED004AB8EE0C
:102F0000C44AB4EEC40AF1EE10FA27DDC2EE004A5C
:102F100090ED004AB8EEC44A24EE844AB0EE442A4A
:102F2000C2EE804A90ED004AB8EEC44A24EE844ACC
:102F3000F0EE442AC3EE004A90ED004AB8EEC44ACF
:102F400024EE844AB0EE443AC3EE804A90ED004A43
:102F5000B8EEC44A24EE844AF0EE443ABCEEE34AAA
:102F600014EE104AA3B2BCEEC24A14EE104AA2B24A
:102F7000BCEEC34A14EE104AA1B2BCEEE24A14EE13
:102F8000104AA0B2FFF757FF10BD0000001002402A
:102F900000140240440100200925642C202564000F
:102FA000F80000203404014010B588B00446012127
:102FB000082002F0C7FC0121880402F00CFD072262
:102FC0000821CA4801F02FFA07220921C74801F059
:102FD0002AFA4FF48070069002208DF81C008DF8BC
:102FE0001D0001208DF81E008DF81F0006A9BF48A6
:102FF00001F08EF94FF40070069002208DF81C004D
:103000008DF81D0000208DF81E008DF81F0006A908
:10301000B64801F07DF902940020ADF80C00ADF83F
:103020000E00ADF81000ADF814000C20ADF8120041
:1030300002A9AF4801F097FA0121AD4801F01BFB4E
:10304000012240F22551AA4801F0CBFB4021A848BB
:1030500001F0F9FB27208DF8040002208DF805000F
:1030600003208DF8060001208DF8070001A801F06B
:103070005EF84FF4A06001F055F808B010BD10B52F
:10308000002440F225519A4801F0E6FB002870D058
:10309000974801F01FFBC4B29648047000780128DD
:1030A00007D195A000F007FFFEF7E8FDFEF798FBBB
:1030B00013E190480078022807D191A000F0FBFEB0
:1030C000FEF711FEFEF7DFFB07E18A4800780328D0
:1030D00007D18DA000F0EFFEFEF73AFEFEF704FCEC
:1030E000FBE084480078042809D189A000F0E3FEC1
:1030F000FEF761FEFEF712FBFEF772FBEDE07D4886
:103100000078052809D184A000F0D5FEFEF779FEED
:10311000FEF704FBFEF7B7FBDFE0764800780628F1
:1031200009D17FA000F0C7FEFEF791FEFEF7F6FA88
:10313000FEF7DAFBD1E06F480078072805D17AA0C6
:1031400000F0B9FEFEF701FCC7E06A4800780828E5
:1031500005D177A000F0AFFEFEF748FCBDE0654862
:103160000078092806D174A000F0A5FEFEF78EFCB9
:10317000B3E0B7E05F4800780A2807D170A000F0FC
:103180009AFEFEF7E2FBFEF7D6FFA6E0594800786C
:103190000B2807D16CA000F08EFEFEF727FCFEF78F
:1031A000FDFF9AE0534800780C2807D168A000F092
:1031B00082FEFEF76BFCFFF725F88EE04D480078A5
:1031C0000D2807D164A000F076FEFEF7BEFBFFF7E6
:1031D0004CF882E0474800780E2807D160A000F044
:1031E0006AFEFEF703FCFFF77AF876E041480078C4
:1031F0000F2807D15CA000F05EFEFEF747FCFFF74A
:10320000A5F86AE03B480078102805D158A000F0E6
:1032100052FEFEF792FC60E036480078112805D196
:1032200055A000F048FEFEF7DBFC56E03148007880
:10323000122805D153A000F03EFEFEF7F8FC4CE04A
:103240002C480078132805D150A000F034FEFEF77A
:103250004EFC42E027480078152803D14DA000F02D
:103260002AFE3AE023480078162803D14DA000F04A
:1032700022FE32E01F480078172804D14FF439703D
:103280004C49486329E01B480078182804D14FF4C2
:1032900016704849486320E016480078192803D181
:1032A00045A000F008FE18E0124800781A2808D15E
:1032B00043A000F000FE3F48406BC01C3D494863FE
:1032C0000BE00C4800781B2807D13FA000F0F3FD6D
:1032D0003848406BC01E3749486340F225510448C6
:1032E00001F0F5FA024801F0F5F910BD000C0240BA
:1032F00000480040FC000020735F310D0A00000010
:10330000735F320D0A000000735F330D0A00000086
:10331000785F310D0A000000785F320D0A0000006E
:10332000785F330D0A00000072305F310D0A000033
:1033300072305F320D0A000072305F330D0A0000F8
:1033400072315F310D0A000072315F320D0A0000E8
:1033500072315F330D0A000072325F310D0A0000D6
:1033600072325F320D0A000072325F330D0A0000C4
:1033700071725F6F6E0D0A00746F705F7363616EC0
:103380000D0A0000756E6465720D0A007265736542
:10339000740D0A006B656C5F76616C75652B0D0AA8
:1033A000000000006B656C5F76616C75652D0D0A21
:1033B000000000000040014067726173703300003C
:1033C0007A6875612B0D0A007A6875612D0D0A0007
:1033D00070B58AB004460E4640F2DC55012108045F
:1033E00002F00AFB0121102002F0ACFA03220521B1
:1033F000934801F018F803220621914801F013F8D0
:103400006020089002208DF8240003208DF825000C
:1034100000208DF8260001208DF8270008A9884893
:1034200000F076FFB0B2ADF814000020ADF8160041
:103430000694ADF81C0005A9824801F004FB602049
:10344000ADF800000120ADF802000020ADF80C003E
:10345000029569467B4801F08BFB0821794801F011
:1034600014FD6020ADF800000120ADF802000295C7
:103470000020ADF80C006946724801F0B2FB08214B
:10348000704801F00BFD01216E4801F047FB01215E
:103490006C4801F052FF01216A4801F05DFB0AB05F
:1034A00070BD70B58AB004460D4640F2DC5601216D
:1034B000480402F0A1FA0121202002F043FA03227D
:1034C0000621614800F0AFFF4020089002208DF8EF
:1034D000240003208DF8250000208DF8260001200F
:1034E0008DF8270008A9584800F012FFA8B2ADF8DF
:1034F00014000020ADF816000694ADF81C0005A9D4
:10350000524801F0A0FA6020ADF800000120ADF8AB
:1035100002000020ADF80C00029669464B4801F00D
:1035200027FB0821494801F0B0FC0121474801F080
:10353000F5FA0121454801F000FF0121434801F05F
:103540000BFB0AB070BD70B58AB004460E4640F25F
:10355000DC550121402002F03EFA0121022002F058
:10356000F1F909220E213A4800F05DFF09220F21EE
:10357000374800F058FF4FF44040089002208DF883
:10358000240003208DF8250000208DF8260001205E
:103590008DF8270008A92E4800F0BAFEB0B2ADF8A9
:1035A00014000020ADF816000694ADF81C0005A923
:1035B000284801F048FA6020ADF800000120ADF87D
:1035C000020002950020ADF80C006946214801F088
:1035D000CFFA08211F4801F058FC6020ADF8000028
:1035E0000120ADF802000020ADF80C0002956946FC
:1035F000184801F0F6FA0821164801F04FFC0121A5
:10360000144801F08BFA0121124801F096FE0121C5
:10361000104801F0A1FA0AB070BD10B540F24F1188
:1036200042F20F70FFF7D4FE40F24F1142F20F70DA
:10363000FFF737FFA72142F20F70FFF784FF10BD9D
:1036400000100240004001400014024000440140CC
:10365000000402400018004010B504466FF004005A
:1036600000F0B2FDE11704EB5171C1F3C701394A13
:1036700011701046007800EB4001C1EBC0104FF60E
:10368000FF7101EAC0003449088010BD0146314A8B
:1036900012784A434FF0E0235A6100229A611A4699
:1036A000126942F001021A6100BF4FF0E022106976
:1036B00000F001021AB100F48032002AF5D04FF078
:1036C000E022126922F001024FF0E0231A61002289
:1036D0009A6170470146204A12884A434FF0E0231E
:1036E0005A6100229A611A46126942F001021A6177
:1036F00000BF4FF0E022106900F001021AB100F49F
:103700008032002AF5D04FF0E022126922F0010247
:103710004FF0E0231A6100229A61704770B50446A9
:103720004FF4077094FBF0F0C6B24FF4077094FBAF
:10373000F0F100FB114085B205E04FF40770FFF790
:10374000C9FF701EC6B2002EF7D115B12846FFF78B
:10375000C1FF70BDFE00002000010020014600BF37
:10376000704700BF4C4A128802F04002002AF9D08C
:10377000C2B2494B9A80704710B588B00446012107
:10378000084602F0DFF80121102002F035F9072287
:103790000921424800F047FE07220A213F4800F075
:1037A00042FE4FF4C060069002208DF81C008DF898
:1037B0001D0000208DF81E0001208DF81F0006A9B5
:1037C000364800F0A5FD02940020ADF80C00ADF8DD
:1037D0000E00ADF81000ADF814000C20ADF812008A
:1037E00002A92D4800F0BFFE01212B4800F043FF45
:1037F0004021294801F027F8012240F225512648AE
:1038000000F0EFFF25208DF8040003208DF805005F
:103810008DF8060001208DF8070001A800F087FC54
:1038200008B010BD10B540F225511B4801F014F846
:1038300088B319498988C8B21949097869B91949F9
:103840000978FE2909D118490978FF2905D10121F4
:10385000134A11700021154A117011490978012984
:1038600012D11349114A1278885410490978491C19
:103870000E4A117011460978012905D10021084A24
:10388000117001210B4A117006490978064A11701E
:103890000449087000BF10BD001001400000024044
:1038A000010000200B0100200C0100200A01002073
:1038B000020000201600002000B589B00121084652
:1038C00002F089F80121032002F03CF82020079043
:1038D00002208DF8200000208DF822008DF82300B2
:1038E00002208DF8210007A9284800F011FD0820CA
:1038F000079007A9264800F00BFD01220521234867
:1039000000F091FD01220321214800F08CFD04A864
:1039100001F0CDF80020ADF810004FF6FF700590D3
:103920000020ADF81800ADF8120004A94FF0804057
:1039300001F089F801A801F094FC01A94FF0804042
:1039400001F058FC0121880701F032FD01221146E7
:10395000900701F019FD02231A460321580701F0D0
:10396000E6FD00204FF0804148620121880701F008
:10397000F3F809B000BD10B50121880701F01BFD67
:1039800018B10121880701F027FD10BD0000024099
:103990000004024000B589B00121022002F01BF8AA
:1039A0000121084601F0CEFFC020079002208DF8CB
:1039B000200000208DF822008DF8230007A925485B
:1039C00000F0A6FC02220621224800F02CFD022273
:1039D0000721204800F027FD04A801F068F8002026
:1039E000ADF810004FF6FF7005900020ADF81800FC
:1039F000ADF8120004A9184801F025F801A801F05B
:103A000030FC01A9144801F0F5FB0121124801F036
:103A1000CFFC01221146104801F0B6FC02231A46E1
:103A200003210D4801F083FD00200B49243108607B
:103A30000121094801F090F809B000BD10B501213D
:103A4000054801F0B8FC18B10121034801F0C4FC9D
:103A500010BD0000000002400004004000B589B025
:103A60000121042001F0B7FF0121022001F06AFFCB
:103A7000C020019002208DF8080000208DF80A0077
:103A80008DF80B0001A9264800F042FC0222062115
:103A9000234800F0C8FC02220721214800F0C3FCA3
:103AA00006A801F004F80020ADF818004FF6FF70EA
:103AB00007900020ADF82000ADF81A0006A91948BB
:103AC00000F0C1FF03A801F0CCFB0020ADF814000A
:103AD00003A9144801F08EFB0121124801F068FC93
:103AE000012211460F4801F04FFC02231A46032120
:103AF0000C4801F01CFD00200A4924310860012116
:103B0000084801F029F809B000BD10B501210548A9
:103B100001F051FC18B10121024801F05DFC10BD1B
:103B2000000402400008004000B589B001210820CF
:103B300001F051FF0121084601F004FF032001902C
:103B400002208DF8080000208DF80A008DF80B0087
:103B500001A9264800F0DCFB02220021234800F0E6
:103B600062FC02220121214800F05DFC06A800F061
:103B70009EFF0020ADF818004FF6FF700790002060
:103B8000ADF82000ADF81A0006A9194800F05BFF57
:103B900003A801F066FB0020ADF8140003A9144847
:103BA00001F028FB0121124801F002FC012211461C
:103BB0000F4801F0E9FB02231A4603210C4801F0EB
:103BC000B6FC00200A49243108600121084800F0B1
:103BD000C3FF09B000BD10B50121054801F0EBFBA2
:103BE00018B10121024801F0F7FB10BD00000240AE
:103BF000000C00407FB505460C460121102001F065
:103C0000EAFE0295ADF804400020ADF80C00ADF8D6
:103C1000060001A90F4800F016FF01210D4801F030
:103C2000C7FB012211460B4801F0AEFB36208DF890
:103C3000000000208DF8010001208DF802008DF8B1
:103C40000300684600F073FA0121024800F084FF87
:103C50007FBD0000001000407FB505460C460121E5
:103C6000202001F0B8FE0295ADF804400020ADF828
:103C70000C00ADF8060001A92B4800F0E4FE01217C
:103C8000294801F095FB01221146274801F07CFBF1
:103C900037208DF8000000208DF8010001208DF8FC
:103CA00002008DF80300684600F041FA01211E4829
:103CB00000F052FF7FBD10B52DED028B82B00121C7
:103CC000194801F078FB00282AD01848C0680090F5
:103CD000164883684268016815A001F089FFFEF765
:103CE000A9FD19A001F084FF002407E0184850F84E
:103CF000241018A001F07CFF601CC4B2032CF5DD79
:103D00001548006803F07CF841EC180B53EC182BB5
:103D100012A001F06DFF0121034801F05DFB00BF1F
:103D200002B0BDEC028B10BD001400403401002035
:103D3000B1E0C2EBC6F75B25642025642025642032
:103D400025645D090000000050574D5B0000000035
:103D50004401002025642000780000205D20C4BFBD
:103D6000B1EA5B252E30665D0000000030B58BB0F7
:103D700005460C460121022001F03EFE01210420EF
:103D800001F0E0FD4FF47070019003208DF8090000
:103D900002208DF8080000208DF80A008DF80B0035
:103DA00001A9324800F0B4FA032206212F4800F09E
:103DB0003AFB032207212D4800F035FB032208219E
:103DC0002A4800F030FB03220921284800F02BFB91
:103DD0000995ADF820400020ADF82800ADF822008C
:103DE0008DF82A0008A9224800F02DFE6020ADF8C9
:103DF0000C000120ADF80E000020ADF81000059079
:103E0000ADF81800ADF81A00ADF81C00ADF81E00B2
:103E100003A9174800F0ACFE03A9154800F0E1FE25
:103E200003A9134800F02AFF03A9114800F08CFFF2
:103E300008210F4801F029F808210D4801F02EF85B
:103E400008210B4801F037F80821094801F03CF837
:103E50000121074800F062FE0121054800F07CFEC8
:103E60000121034801F069FA0BB030BD000802409F
:103E7000000401408F49088000BF8E49091F09884E
:103E800001F080010029F8D0704700B5024603E038
:103E90001078FFF7EFFF521C10780028F8D100BD12
:103EA0008549088000BF8449091F098801F0800105
:103EB0000029F8D0704700B5024603E01078FFF7FC
:103EC000EFFF521C10780028F8D100BD412803D123
:103ED00041217A4A117006E0422803D14221774AF3
:103EE000117000E0704700BFFCE710B540F22551AB
:103EF0007048001F00F0B0FC00286BD06D48001F18
:103F000000F0E8FB6E49087008460078FFF7DEFF16
:103F10006A48007841281CD169480078412810D0AF
:103F20000220684908706648007850B164480078FB
:103F30006549664A1278885464480078401C634991
:103F4000087062480078072844D100205F49087053
:103F500040E05A48007842281CD15948007842284D
:103F60000DD05748007850B1554800785849594A03
:103F70001278885457480078401C564908705548B4
:103F80000078022826DD002052490870032052499B
:103F900008701FE04948007843281BD14848007842
:103FA00043280DD04648007850B1454800784B4929
:103FB000484A1278885447480078401C45490870A0
:103FC00044480078022805DD002042490870072097
:103FD0004149087040F225513648001F00F077FC37
:103FE00010BD10B588B004460121084601F0AAFCB6
:103FF0000121480401F0EFFC07220221384800F0BB
:1040000012FA07220321364800F00DFA0420069028
:1040100002208DF81C008DF81D0001208DF81E0077
:104020008DF81F0006A92E4800F072F908200690AE
:1040300002208DF81C008DF81D0000208DF81E0058
:104040008DF81F0006A9264800F062F902940020AE
:10405000ADF80C00ADF80E00ADF81000ADF814008E
:104060000C20ADF8120002A91248001F00F07BFAE4
:1040700001211048001F00F0FEFA012240F22551F4
:104080000C48001F00F0ADFB40210A48001F00F063
:10409000DAFB26208DF8040003208DF805008DF84A
:1040A000060001208DF8070001A800F040F808B0D4
:1040B00010BD000004440040044800400D010020F1
:1040C0001F010020D4000020170100202101002042
:1040D0000F01002020010020190000201301002002
:1040E000000002400948804709480047FEE7FEE714
:1040F000FEE7FEE7FEE7FEE7FEE7FEE7FEE7FEE798
:1041000004480549054A064B70470000610700084E
:1041100089010008B8010020B8070020B80300207A
:10412000B803002032490143324A1160704770B52C
:10413000002100230F22C4781CB32E4C246804F401
:10414000E064C4F5E064C4F30721C1F10404E3B200
:104150000A4144789C40E1B28478144021430C0722
:10416000210E254C05786155047804F01F050124C3
:10417000AC4005786D11AD0005F1E025C5F80041B2
:1041800009E0047804F01F050124AC401B4D0678BB
:10419000761145F8264070BD194A0A400243154B76
:1041A0001B1F1A60704739B1124A121D1268024370
:1041B000104B1B1D1A6006E00E4A121D1268824346
:1041C0000C4B1B1D1A607047042808D14FF0E021EA
:1041D000096941F004014FF0E022116107E04FF05E
:1041E000E021096921F004014FF0E02211617047DC
:1041F0000000FA050CED00E000E400E080E100E0E2
:1042000080FFFF1F10B504469848844208D1012161
:10421000084601F002FC0021012001F0FEFB76E0DF
:104220009348844208D10121022001F0F6FB0021CD
:10423000022001F0F2FB6AE08E48844208D101219D
:10424000042001F0EAFB0021042001F0E6FB5EE01F
:104250008948844208D10121082001F0DEFB0021B9
:10426000082001F0DAFB52E08448844208D10121A1
:10427000102001F0D2FB0021102001F0CEFB46E01F
:104280007F48844208D10121202001F0C6FB002193
:10429000202001F0C2FB3AE07A48844208D1012193
:1042A000402001F0BAFB0021402001F0B6FB2EE0D7
:1042B0007548844208D10121802001F0AEFB002125
:1042C000802001F0AAFB22E07048844208D101213D
:1042D000801501F0A2FB0021A01501F09EFB16E065
:1042E0006B48844208D10121401501F096FB002162
:1042F000601501F092FB0AE06648844207D1012173
:10430000001501F08AFB0021201501F086FB10BD8D
:10431000F0B50A4600210023002400BF3DE001253E
:1043200005FA01F3156805EA03049C4234D10568D7
:104330004F000326BE40B543056015794E00B540D9
:104340000668354305601579012D02D01579022DD7
:1043500016D185684F000326BE40B5438560557968
:104360004E00B540866835438560456801268E401D
:10437000B5434560456896798E40B6B23543456091
:10438000C5684F000326BE40B543C560D5794E00D1
:10439000B540C6683543C560491C1029BFD3F0BD80
:1043A0004FF6FF7101600021017141718171C1718E
:1043B000704708B54FF480320092009A0A43009289
:1043C000009AC261C161009AC261C2690092C26969
:1043D000009208BD0246002013690B400BB101207A
:1043E00000E0002070470146086980B2704702462D
:1043F000002053690B400BB1012000E00020704702
:104400000146486980B27047018370474183704715
:104410000AB1018300E041837047416170474269FE
:104420004A4042617047F0B5002300244D07ED0E6D
:1044300002FA05F3CE1000F1200555F826504E077C
:10444000F70E0F26BE40B543CF1000F1200646F808
:104450002750CE1000F1200555F8265045EA0304F8
:10446000CE1000F1200545F82640F0BD00000240C6
:104470000004024000080240000C0240001002400C
:104480000014024000180240001C024000200240BC
:10449000002402400028024010B50446FA48844235
:1044A00008D10121102001F0FCFA0021102001F0B8
:1044B000F8FA57E0F548844209D10121480401F097
:1044C000DFFA00214FF4003001F0DAFA4AE0F04858
:1044D000844209D10121880401F0D2FA00214FF46D
:1044E000802001F0CDFA3DE0EA48844209D1012163
:1044F000C80401F0C5FA00214FF4002001F0C0FA11
:1045000030E0E548844209D10121080501F0B8FAFC
:1045100000214FF4801001F0B3FA23E0DF48844219
:1045200008D10121202001F0BCFA0021202001F057
:10453000B8FA17E0DA48844209D10121880701F06E
:104540009FFA00214FF0804001F09AFA0AE0D54826
:10455000844207D10121400501F092FA0021600553
:1045600001F08EFA10BD2DE9FF4705460E460024E6
:10457000A14600BFA046B08900B100BF2C8A24F438
:104580004054F08804432C82AC8941F20C6084438F
:10459000B08831890843718908430443AC81AC8AEF
:1045A00024F44074B0890443AC82684601F0F9F801
:1045B000B548854202D0B948854202D1DDF80C9059
:1045C00001E0DDF80890A88900F4004040B109EB53
:1045D000C90000EB091031684900B0FBF1F707E0B2
:1045E00009EBC90000EB091031688900B0FBF1F755
:1045F0006420B7FBF0F004012009642101FB10786E
:10460000A88900F4004040B1322000EBC800B0FBA4
:10461000F1F000F00700044308E0322000EB08103E
:104620006421B0FBF1F000F00F0004432C81BDE8E1
:10463000FF874FF41651016000218180C180018104
:104640000C21418100218181704710B50246002074
:10465000108A20F470600B884C8823438C88234395
:10466000CC8823431843108210BD00210180418073
:104670008180C180704721B1828942F400528281D9
:1046800004E082894DF6FF731A4082817047028BE5
:1046900002F47F420283028B0A430283704721B1F6
:1046A000828942F40042828103E08289C2F30E02D1
:1046B0008281704721B1828A42F40062828204E0E2
:1046C000828A4FF2FF731A4082827047C1F3080258
:1046D0008280704701468888C0F308007047028ACC
:1046E0004FF6F0731A400282028A0A430282704730
:1046F00021B1828942F00202828104E082894FF670
:10470000FD731A408281704782894FF2FF731A400D
:10471000828182890A4382817047028A4FF6DF7361
:104720001A400282028A0A430282704721B1028A39
:1047300042F48042028204E0028A4BF6FF731A4080
:1047400002827047818941F001018181704721B166
:10475000828A42F00802828204E0828A4FF6F7736E
:104760001A4082827047028BD2B20283028B42EAE5
:1047700001220283704721B1828A42F020028282A4
:1047800004E0828A4FF6DF731A408282704721B1BB
:10479000828A42F01002828204E0828A4FF6EF732E
:1047A0001A4082827047828A4FF6FB731A408282D7
:1047B000828A0A438282704721B1828A42F00202D1
:1047C000828204E0828A4FF6FD731A40828270472B
:1047D0001AB1838A0B43838202E0838A8B438382EC
:1047E0007047F0B50346002400260025002040F65F
:1047F0006A17B94200D100BF1846C1F3421401F054
:104800001F06012707FA06F5012C01D10C3004E040
:10481000022C01D1103000E014301AB107682F4388
:10482000076002E00768AF430760F0BD0246002062
:10483000B1F5007F00D100BF13880B400BB1012000
:1048400000E00020704701F40072B2F5007F00D153
:1048500000BFCA430280704770B50246002400239F
:104860000025002040F66A16B14200D100BFC1F316
:10487000421501F01F03012606FA03F3012D13D19F
:104880009689334017E000000010014000440040CA
:1048900000480040004C004000500040001401401F
:1048A00000780040007C0040022D02D1168A33407F
:1048B00001E0968A33400C12012606FA04F41688A9
:1048C000344013B10CB1012000E0002070BD10B5E0
:1048D0000022002340F66A14A14200D100BF0A1250
:1048E00001249440A3B2DC43048010BD10B50446FB
:1048F000FE48844208D10121084601F0D2F8002187
:10490000012001F0CEF89DE0B4F1804F08D10121E3
:10491000084601F0B5F80021012001F0B1F891E05E
:10492000F348844208D10121022001F0A9F80021B6
:10493000022001F0A5F885E0EE48844208D101216B
:10494000042001F09DF80021042001F099F879E09D
:10495000E948844208D10121082001F091F80021A2
:10496000082001F08DF86DE0E448844208D101216F
:10497000102001F085F80021102001F081F861E09D
:10498000DF48844208D10121202001F079F800217C
:10499000202001F075F855E0DA48844208D1012161
:1049A000022001F07EF80021022001F07AF849E0AF
:1049B000D548844209D10121080401F072F8002190
:1049C0004FF4803001F06DF83CE0D048844209D1CA
:1049D0000121480401F065F800214FF4003001F096
:1049E00060F82FE0CA48844209D10121880401F00F
:1049F00058F800214FF4802001F053F822E0C54818
:104A0000844208D10121402001F03AF800214020E1
:104A100001F036F816E0C048844208D10121802018
:104A200001F02EF80021802001F02AF80AE0BB48AE
:104A3000844207D10121801501F022F80021A01540
:104A400001F01EF810BD00220288A84B98420ED03B
:104A5000AC4B98420BD0B0F1804F08D0A44B984299
:104A600005D0A44B984202D0A34B984204D14FF6F4
:104A70008F731A404B881A43A04B984207D0A04B23
:104A8000984204D04FF6FF431A400B891A43028024
:104A90004B68C3620B880385944B984202D0994BB4
:104AA000984201D18B7A03860123838270474FF0AD
:104AB000FF31416000210180018141808172704796
:104AC0000185828270470A46002101884FF68F7364
:104AD000194011430180704741627047C1627047BD
:104AE0000146486A70470146088D704721B1028827
:104AF00042F00202028004E002884FF6FD731A4081
:104B00000280704721B1028842F00402028004E072
:104B100002884FF6FB731A400280704721B1028869
:104B200042F08002028004E002884FF67F731A4050
:104B30000280704702884FF6F7731A40028002889D
:104B40000A430280704702884FF6FF431A400280F2
:104B500002880A430280704721B1028842F00102B4
:104B6000028004E002884FF6FE731A40028070470C
:104B700070B5002400220023058C4FF6FE763540E8
:104B80000584028C8388048B4FF68F752C40B51EEC
:104B90002C400D882C43751E2A408D892A434D8850
:104BA0002A43524DA84202D0564DA84213D14FF687
:104BB000F7752A40CD892A434FF6FB752A408D8828
:104BC0002A434FF6FF652B404FF6FF552B400D8AC9
:104BD0002B434D8A2B43838004838D684563028475
:104BE00070BD70B5002400220023058C4FF6EF76CF
:104BF00035400584028C8388048B48F6FF752C4071
:104C00004FF6FF452C400D884FF6FF7606EA052546
:104C10002C434FF6DF752A408D8906EA05152A4395
:104C20004D8806EA05152A43304DA84202D0354D7D
:104C3000A8421DD14FF67F752A40CD894FF6FF76E9
:104C400006EA05152A434FF6BF752A408D8806EA05
:104C500005152A434FF6FF352B404FF2FF752B40C9
:104C60000D8A06EA85052B434D8A06EA85052B4306
:104C7000838004838D688563028470BD70B50024D1
:104C800000220023058C4FF6FF6635400584028C18
:104C90008388848B4FF68F752C404FF6FC752C4023
:104CA0000D882C434FF6FF552A408D894FF6FF762D
:104CB00006EA05252A434D8806EA05252A430B4DB9
:104CC000A84202D00F4DA84238D14FF2FF752A40BA
:104CD000CD894FF6FF7606EA05252A434FF6FF35C4
:104CE0002A408D8806EA05252A4319E00000014084
:104CF0000004004000080040000C0040001000408C
:104D00000014004000040140004001400044014004
:104D10000048014000180040001C004000200040F6
:104D20004EF6FF752B404DF6FF752B400D8A06EAB7
:104D300005152B434D8A06EA05152B438380848392
:104D40008D68C563028470BD70B500220023002405
:104D5000058C4EF6FF7635400584038C8488828B63
:104D600048F6FF752A404FF6FF452A400D884FF65A
:104D7000FF7606EA05252A434DF6FF752B408D89FF
:104D800006EA05352B434D8806EA05352B43FE4DD3
:104D9000A84202D0FD4DA84208D14BF6FF752C4029
:104DA0000D8A4FF6FF7606EA85152C4384808283B0
:104DB0008D680564038470BD00210180418081807D
:104DC00081608181C18101824182704770B5034653
:104DD000002000241846183001258D40ACB21D8CEF
:104DE000A5431D8409B108290AD100EB61000568BB
:104DF0004FF68F76354005600568154305600FE076
:104E00000D1FC5F34E052844056848F6FF7635406A
:104E1000056005684FF6FF7606EA02263543056011
:104E200070BD4163704781637047C163704701641F
:104E300070470A460021018B4FF68F7319401143CA
:104E4000018370470A460021018B48F6FF73194021
:104E50004FF6FF7303EA02231943018370470A46A2
:104E60000021818B4FF68F73194011438183704766
:104E70000A460021818B48F6FF7319404FF6FF73F5
:104E800003EA02231943818370470A460021018BFC
:104E90004FF6F77319401143018370470A4600210A
:104EA000018B4FF2FF7319404FF6FF7303EA0223A1
:104EB0001943018370470A460021818B4FF6F7732F
:104EC00019401143818370470A460021818B4FF2BC
:104ED000FF7319404FF6FF7303EA022319438183DE
:104EE00070470A460021018B4FF6FB7319401143AE
:104EF000018370470A460021018B4FF6FF331940AA
:104F00004FF6FF7303EA02231943018370470A46F1
:104F10000021818B4FF6FB73194011438183704749
:104F20000A460021818B4FF6FF3319404FF6FF737D
:104F300003EA02231943818370470A460021018B4B
:104F40004FF67F7319401143018370470A460021D1
:104F5000018BC1F30E014FF6FF7303EA02231943DD
:104F6000018370470A460021818B4FF67F731940F9
:104F70001143818370470A460021818BC1F30E01E2
:104F80004FF6FF7303EA02231943818370470A46F1
:104F90000021018C4FF6FD731940114301847047C5
:104FA0000A460021018C4FF6F77319401143018422
:104FB00070470A460021018C4FF6DF7319404FF607
:104FC000FF7303EA02131943018470470A46002164
:104FD000018C4FF67F7319404FF6FF7303EA0213FB
:104FE0001943018470470A460021018C4FF6FF5394
:104FF00019404FF6FF7303EA0223194301847047F7
:105000000A460021018C4FF2FF7319404FF6FF73DF
:1050100003EA02231943018470470A460021018CE8
:105020004DF6FF7319404FF6FF7303EA023319433D
:105030000184704730B5002301248C40A3B2048C56
:105040009C430484048C02FA01F5ADB22C43048421
:1050500030BD30B5002304248C40A3B2048C9C43A3
:105060000484048C02FA01F5ADB22C43048430BDF3
:10507000828B4FF2FF331A408283828B4FF6FF738D
:1050800003EA01231A4382837047F0B50C461546A4
:10509000002100220026078C4EF6FF7C07EA0C0751
:1050A0000784818B028C4FF6FF7707EA043640F6BF
:1050B000FF4739404FF6FF7707EA052739434FF698
:1050C000FF7707EA0337394345F6FF773A4046F45E
:1050D00080573A4381830284F0BD828B4FF6F3738D
:1050E0001A408283828B0A4382837047F0B50C4654
:1050F0001546002100220026078C4FF6FF6C07EAB8
:105100000C070784818B028C4FF6FF7707EA042691
:105110004FF60C7739404FF6FF7707EA03172F4316
:1051200039434FF2FF573A4046F480773A43818340
:105130000284F0BD028B4FF2FF331A400283028BD0
:105140004FF6FF7303EA01231A4302837047F0B559
:105150000C461546002100220026078C4FF6EF7CF6
:1051600007EA0C070784018B028C4FF6FF7707EAEA
:10517000041640F6FF4739404FF6FF7707EA03373A
:1051800039434FF6FF7703E000000140000401407F
:1051900007EA052739434FF65F773A4046F0100794
:1051A0003A4301830284F0BD028B4FF6F3731A4039
:1051B0000283028B0A4302837047F0B50C46154602
:1051C00000210022068C4FF6FE773E400684018BBC
:1051D000028C4FF60C7631407E1C06EA03162E43F5
:1051E00031434FF6F576324044F0010632430183F5
:1051F0000284F0BD70B505460C46208850B923895D
:10520000A28861882846FFF7D8FFE1882846FFF783
:10521000CBFF25E0208804280AD12389A288618851
:105220002846FFF794FFE1882846FFF783FF17E041
:10523000208808280AD12389A28861882846FFF798
:1052400055FFE1882846FFF748FF09E02389A28837
:1052500061882846FFF719FFE1882846FFF708FF15
:1052600070BD002101804180012181800021C18029
:10527000018170472DE9F04105460C4600260127C3
:10528000608808B9022600E00026A088012801D124
:10529000022700E001272088A0B92389A28861881D
:1052A0002846FFF78AFFE1882846FFF77DFF23891C
:1052B0003A4631462846FFF74AFFE1882846FFF77D
:1052C00039FF13E02389A28861882846FFF73FFF52
:1052D000E1882846FFF72EFF23893A4631462846C3
:1052E000FFF76BFFE1882846FFF75EFFBDE8F0811E
:1052F0000146486B70470146886B70470146C86B92
:1053000070470146086C70470A884B881A438B889F
:105310001A43CB881A430B891A434B891A438B894A
:105320001A43A0F844207047002101804180818009
:10533000C180018141818181704731B1B0F8442041
:1053400042F40042A0F8442005E0B0F84420C2F343
:105350000E02A0F84420704721B1828842F0040276
:10536000828004E082884FF6FB731A408280704787
:1053700021B1828842F00102828004E082884FF6E7
:10538000FE731A40828070471AB183890B43838170
:1053900002E083898B438381704781827047024694
:1053A0000020138A0B400BB1012000E00020704761
:1053B000CA430282704730B5024600200023002411
:1053C000158A05EA0103958905EA010413B10CB1B8
:1053D000012000E0002030BDCA430282704741EA4C
:1053E0000203A0F8483070471AB183890B438381C8
:1053F00002E083898B438381704721B1828842F028
:105400000802828004E082884FF6F7731A40828097
:10541000704701894FF6F8721140018170470A46C2
:10542000002101894FF68F731940114301817047A4
:1054300030B504460D4629462046FFF7F0FF208987
:1054400040F00700208130BD2DE9F04104460D46B3
:1054500016461F46602D06D13B46012231462046A6
:10546000FFF775FE05E03B46012231462046FFF777
:10547000A4FE29462046FFF7D2FF208940F007000E
:105480002081BDE8F08130B50C4600210189C9B208
:105490004FF6FF7505EA032515432543294301818E
:1054A00030BD2DE9F04105460E46174698460024CA
:1054B00043463A4631462846FFF7E5FF2C894FF62A
:1054C000F870044044F007044FF68F70044044F035
:1054D00070042C81BDE8F081F0B504460D461646F7
:1054E0001F463B46324629462046FFF7CCFF20891F
:1054F00040F480402081F0BD82884FF68F731A40BF
:10550000828082880A438280704702894FF6F8734E
:105510001A40028102890A430281704702894FF6CC
:105520007F731A40028102890A4302817047F0B5F5
:105530000C4615461E460021002200230189028BDD
:10554000038C4FF6F877394021434FF6FC473A4039
:1055500040F201173A434FF6DD773B404FF6FF77B5
:1055600007EA06172F433B43018102830384F0BD02
:1055700021B1828842F08002828004E082884FF666
:105580007F731A4082807047A0F850107047000067
:10559000F948006840F00100F74908600020F6492A
:1055A00008310860F4480068F4490840F24908608E
:1055B000F348091D0860F348EF4984310860F0485A
:1055C0001038091D0860EC48006820F48020EA4982
:1055D00008600020E8490C310860E7498C31086018
:1055E00070470021E44A921C117011460870704700
:1055F00010B501460022002300204A11012A02D1E1
:10560000DD4C236808E0022A03D1DB4C70342368A8
:1056100002E0D94C7434236801F01F020124944045
:105620001C400CB1012000E0002010BD38B5002066
:1056300000900024002500BF3120FFF7D9FF054668
:105640000098401C00900098B0F5A04F01D0002DAC
:10565000F2D03120FFF7CCFF08B1012400E0002494
:10566000204638BD01460020C34A106820F0F800EB
:1056700040EAC10010607047C349086070470021CC
:10568000BD4A703211701170012802D004280AD16D
:1056900004E00121B84A7032117005E00521B64AD4
:1056A0007032117000E000BF00BF7047B74908605A
:1056B000704770B5049C41EA82150126C6EB53067B
:1056C00045EA0645054345EA0465AB4E361D35609F
:1056D00070BDAD4908667047820142EA0172A64B6F
:1056E00084331A607047A8498866704710B58301F3
:1056F00043EA016343EA02739F4C8834236010BD80
:10570000A14908677047A049C86470470246002055
:10571000994B0833186820F0EC6042EA0103184303
:10572000954B08331860704702460020924B0833AF
:10573000186820F0784042EA010318438E4B083382
:1057400018607047014600208B4A0832106820F02C
:10575000030008431060704787480830006800F075
:105760000C00704701460020834A0832106820F080
:10577000F000084310607047014600207E4A08325E
:10578000106820F4E0500843106070470146002084
:10579000794A0832106820F4604040EAC100106085
:1057A0007047F0B5002100220024022500260223C4
:1057B000714F08373F6807F00C0121B1042905D06B
:1057C000082937D105E0724F076036E0714F076056
:1057D00033E0694F3F1D3F68C7F38056664F3F1D5A
:1057E0003F6807F03F036EB16A4FB7FBF3F7DFF88E
:1057F00088C10CF1040CDCF800C0CCF3881C07FB5A
:105800000CF40CE0624FB7FBF3F7DFF86CC10CF15E
:10581000040CDCF800C0CCF3881C07FB0CF4564FDA
:105820003F1D3F68C7F301477F1C7D00B4FBF5F7C0
:10583000076002E0564F076000BF00BF4E4F0837B9
:105840003F6807F0F0010909534F7A5C0768D740B9
:105850004760494F08373F6807F4E051890A4E4FC7
:105860007A5C4768D7408760434F08373F6807F442
:105870006041490B484F7A5C4768D740C760F0BD2C
:10588000002100F44072B2F5407F0AD13A4A083252
:10589000116821F4F811414A02401143364A083296
:1058A0001160354A70321268C0F30B031A43324B51
:1058B00070331A607047354944390860704733497E
:1058C000403908607047364908607047014600203B
:1058D000294A8C32106820F01F004A1E1043264AC5
:1058E0008C321060704701460020234A8C321068C9
:1058F00020F4F8504A1E40EA02201F4A8C32106001
:105900007047014600201C4A8C32106820F4401079
:1059100008431060704701460020174A8C32106817
:1059200020F4400008431060704701460020124AEE
:105930008C32106820F440300843106070471949D9
:105940000860704739B10C4A3032126802430A4B82
:1059500030331A6006E0084A303212688243064B40
:1059600030331A607047F9B1034A34321268024387
:10597000014B34331A601CE000380240FFFFF6EAA6
:10598000103000240030002000004742800E4742C3
:105990000024F40000127A0022010020FFFCFF0F17
:1059A0005C014742E01147428F4A126882438E4BA6
:1059B0001A60704739B18C4A121D126802438A4B33
:1059C0001B1D1A6006E0884A121D12688243864B2E
:1059D0001B1D1A60704739B1834A0C3212680243AA
:1059E000814B0C331A6006E07F4A0C321268824306
:1059F0007D4B0C331A60704739B17B4A1032126804
:105A00000243794B10331A6006E0774A103212686D
:105A10008243754B10331A60704739B1724A243A89
:105A200012680243704B243B1A6006E06E4A243A27
:105A3000126882436C4B243B1A60704739B16A4A42
:105A4000203A12680243684B203B1A6006E0664A1F
:105A5000203A12688243644B203B1A60704739B188
:105A6000614A1C3A126802435F4B1C3B1A6006E015
:105A70005D4A1C3A126882435B4B1C3B1A607047BC
:105A800039B1594A143A12680243574B143B1A6011
:105A900006E0554A143A12688243534B143B1A608D
:105AA000704739B1504A103A126802434E4B103BCE
:105AB0001A6006E04C4A103A126882434A4B103B87
:105AC0001A60704739B1484A1C3212680243464B8B
:105AD0001C331A6006E0444A1C3212688243424B6F
