:020000040800F2
:1000000010090020097D000875100008771000080D
:100010007B1000087F10000883100008000000001B
:100020000000000000000000000000008710000831
:1000300089100008000000008B1000088D100008D7
:10004000237D0008237D0008237D0008237D000810
:10005000237D0008237D0008237D0008237D000800
:10006000237D0008237D0008237D0008237D0008F0
:10007000237D0008237D0008237D0008237D0008E0
:10008000237D0008237D0008237D0008237D0008D0
:10009000237D0008237D0008237D0008237D0008C0
:1000A000237D0008237D0008237D0008237D0008B0
:1000B00087770008597800082D790008237D00080B
:1000C000237D0008237D0008237D0008237D000890
:1000D000237D0008FD710008C3730008D365000884
:1000E000237D0008237D0008237D0008237D000870
:1000F000237D0008237D0008237D0008237D000860
:10010000237D0008237D0008FB790008237D00087B
:10011000237D0008237D0008A7350008DB7A00084E
:10012000237D0008237D0008237D0008237D00082F
:10013000237D0008237D0008237D0008237D00081F
:10014000237D0008237D0008237D0008237D00080F
:10015000237D0008237D0008237D0008237D0008FF
:10016000237D0008237D0008237D0008237D0008EF
:10017000237D0008237D0008237D0008237D0008DF
:10018000237D0008237D000800F002F800F072F8DB
:100190000AA090E8000C82448344AAF10107DA45E2
:1001A00001D100F067F8AFF2090EBAE80F0013F0C2
:1001B000010F18BFFB1A43F001031847DCBF000012
:1001C000FCBF00000A444FF0000C10F8013B13F094
:1001D000070408BF10F8014B1D1108BF10F8015BA0
:1001E000641E05D010F8016B641E01F8016BF9D193
:1001F00013F0080F1EBF10F8014BAD1C0C1B09D1EA
:100200006D1E58BF01F801CBFAD505E014F8016B5B
:1002100001F8016B6D1EF9D59142D6D370470000ED
:100220000023002400250026103A28BF78C1FBD8FF
:10023000520728BF30C148BF0B60704766290AF0DB
:10024000BB84642909F01C83782909F0558373293C
:1002500009F09886002070471FB50AF0A8FC09F045
:10026000A7FE0400002000210AF014FCE0601FBD7E
:1002700010B510BD09F0B8FF1146FFF7EDFF00F013
:1002800009F809F0D6FF03B4FFF7F2FF03BC06F04C
:1002900051FF000008B54FF4A06007F055FDA820FD
:1002A00006F0C6FE4FF4E13006F052FF4FF4165050
:1002B00007F057F94FF4E13006F020F906F03BFE65
:1002C00003F0A1FF06F056FE06F092FE05F00FFACD
:1002D00005F0B2FB05F0E6FE532140F2F31007F003
:1002E0008FFC07F0F1F907F05DFA07F0C5FA07F0A7
:1002F0002DFB42F2CF01962007F08EFB05F0A7FF01
:10030000002005F0CBF9F74800234FF6FF720121DA
:100310000090084604F0BDFEF3A009F07BFAFDE36F
:10032000002006F03CFE012810D1F24908604FF48D
:100330007A7006F0DFFE0020EF49C1F8B40202F047
:100340007BFC05F09EFE0120EC490870EC4800782B
:1003500001280ED1EB48EC49096801600078EB49AF
:10036000087008460178EAA009F054FA0020E44930
:100370000870E64800786A2877D2DFE800F0354256
:100380004F5C697784919EA2767676767676A6AC77
:10039000B2F0F8EDECEBEAE9767676767676E8E799
:1003A000E6E5E4E3E2E1E0DF767676767676DEDDBA
:1003B000DCDBDAD9D8D7D676767676767676D5D46B
:1003C000D3D2D1D0CFCECDCC767676767676CBCA58
:1003D000C9C8C7C6C5C4C3C2767676767676C1C0AC
:1003E000BFBE7676BDBCBBBA0020C4490870CC4CF9
:1003F000E378A2786178207805F0B1FF05F0EFFE90
:1004000073E20020BD490870C54CE378A27861789A
:10041000207805F0A4FF05F0F0FE66E20020B74961
:100420000870BF4CE378A2786178207805F097FFD8
:1004300005F0FFFE59E20020B0490870B84CE3789F
:10044000A2786178207805F08AFF05F0E4FE4CE29E
:100450000020AA490870B24CE378A278617820782D
:1004600005F07DFF05F00FFF3FE23DE20020A349CC
:100470000870AB4CE378A2786178207805F06FFFC4
:1004800005F0F3FE31E200209C490870A44CE378AB
:10049000A2786178207805F062FF05F002FF24E27F
:1004A0000020964908709E4CE378A2786178207805
:1004B00005F055FF05F003FF17E201208D490860A4
:1004C00013E200208B4908600FE200208B4908707E
:1004D00005F0BDFE09E200208849087005F0B7FE6E
:1004E00003E202F0A9FB05F0CCFD0120834908706E
:1004F000FBE18CE083E07AE071E0EDE1E4E1DBE157
:10050000D2E1C9E1C0E1B7E1AEE1A5E19CE193E14F
:100510008AE181E178E16FE166E15DE154E14BE17F
:1005200042E139E130E127E11EE115E10CE103E1AF
:10053000D0E0C7E0BEE0BCE0B7E0B2E0A9E0A0E0F8
:1005400097E08EE089E084E07FE073E067E03EE0E2
:1005500035E02CE023E01AE011E008E0FFE702F0CC
:100560006BFB05F08EFD022064490870BDE102F0CE
:1005700063FB05F086FD032060490870B5E102F0D9
:100580005BFB05F07EFD04205C490870ADE102F0E4
:1005900053FB05F076FD052058490870A5E102F0EF
:1005A0004BFB05F06EFD0620544908709DE102F0FA
:1005B00043FB05F066FD07205049087095E102F005
:1005C0003BFB05F05EFD08204C4908708DE102F010
:1005D00033FB05F056FD09204849087085E102F01B
:1005E0002BFB05F04EFD0A20444908707DE102F026
:1005F00023FB05F046FD0B204049087075E102F031
:100600001BFB05F03EFD0C203C4908706DE102F03B
:1006100013FB05F036FD0D203849087065E1052211
:100620000121002000F09EFF3E480069401D3D4929
:1006300008615AE105220021084600F093FF39487D
:100640000069401F374908614FE137A006F075FE89
:100650004BE136A006F071FE47E135A006F06DFED5
:1006600043E102F0E9FA05F00CFD1420234908707B
:100670003BE102F0E1FA05F004FD15201F49087086
:1006800033E102F0D9FA05F0FCFC16201B49087092
:100690002BE102F0D1FA05F0F4FC1720174908709D
:1006A00023E10120234908701FE10020214908703F
:1006B0001BE11AE102F0C0FA05F0E3FC18200F4933
:1006C000087012E102F0B8FA05F0DBFC19200B49C2
:1006D00008700AE102F0B0FA05F0D3FC1A200749CD
:1006E000087002E1CD010020B3F5CABCBBAFCDEA72
:1006F000B3C90A00B482404200804042EC000020AE
:100700000100002006000020020000201000002050
:10071000CAD5B5BD7531D6B8C1EEA3BA25780A00E1
:10072000AC010020900100203100000032000000E8
:1007300033000000AB01002002F07EFA05F0A1FCBE
:100740001B20F9490870D0E002F076FA05F099FC18
:100750001C20F5490870C8E002F06EFA05F091FC23
:100760001D20F1490870C0E0B7EE000A01221146D1
:10077000104600F095FDB8E0B7EE000A0022012116
:10078000084600F08DFDB0E09FEDE80A012202214D
:10079000104600F085FDA8E09FEDE40A002202214A
:1007A000012000F07DFDA0E0B7EE000A0122032148
:1007B000104600F075FD98E0B7EE000A0022032114
:1007C000012000F06DFD90E0B7EE000A0122114615
:1007D000022000F065FD88E0B7EE000A002201214A
:1007E000022000F05DFD80E09FEDD00A0122022191
:1007F000084600F055FD78E09FEDCC0A002202216A
:10080000084600F04DFD70E0B7EE000A012203211A
:10081000022000F045FD68E0B7EE000A0022032147
:10082000022000F03DFD60E0B7EE000A0122114613
:10083000032000F035FD58E0B7EE000A0022012148
:10084000032000F02DFD50E09FEDB80A01220221A7
:10085000032000F025FD48E09FEDB40A00220221AC
:10086000032000F01DFD40E09FEDB10A01220321AD
:10087000084600F015FD38E09FEDAD0A0022032187
:10088000084600F00DFD30E0B7EE000A01221146E7
:10089000042000F005FD28E0B7EE000A0022012147
:1008A000042000F0FDFC20E09FEDA00A01220221BF
:1008B000042000F0F5FC18E09FED9C0A00220221C4
:1008C000042000F0EDFC10E09FED990A01220321C5
:1008D000042000F0E5FC08E09FED950A00220321CA
:1008E000042000F0DDFC00E000BF00BF642091495F
:1008F000087091480078102876D2DFE800F00809E7
:100900002039549FC5F2F0EFEEEDECEBEAE9DCE2C2
:1009100001208A490860AFF2F01006F041FD88A07E
:1009200000234FF6FF7264210090022004F012FCB5
:1009300085A008F06FFF00207F490870C5E203F032
:10094000B8FC01207D490860AFF2202006F028FDA8
:1009500082A000234FF6FF7264210090022004F071
:10096000F9FB81A008F056FF002073490870ACE243
:1009700083A000234FF6FF7264210090022004F050
:10098000E9FB824802F03FFF804802F052FF7F48B7
:1009900002F065FF02F050F903206349087000205F
:1009A0006549087091E27AA008F034FF0020202306
:1009B000B42264210090022004F0E4FF7DA0002313
:1009C0004FF6FF7264210090022004F0C3FB012166
:1009D0007D4802F0E5FF01217B4803F010F801217A
:1009E000794803F03BF800E06EE278A008F012FFCF
:1009F00000202023B42264210090022004F0C2FFD2
:100A00007DA000234FF6FF7264210090022004F0C5
:100A1000A1FB01216C4803F096F801216A4803F01C
:100A2000C1F80121684803F0ECF802F005F9042050
:100A30003D49087000204049087046E273A008F064
:100A4000E9FE00202023B42264210090022004F05B
:100A500099FF76A000234FF6FF72642100900220D8
:100A600004F078FB584803F0FBF8574803F00EF900
:100A7000554803F021F902F0DFF805202A490870F3
:100A800000202D49087020E26DA008F0C3FE002070
:100A90002023B42264210090022004F073FF6FA091
:100AA00000234FF6FF7264210090022004F052FBF5
:100AB00003F022FC642006F01DFB01201F490860A2
:100AC000AFF2943006F06CFC00201B490870FCE18A
:100AD000D4E18AE16DE14BE137E115E101E1DFE0CD
:100AE000FFE762A008F096FE00202023B4226421D4
:100AF0000090022004F046FF64A000234FF6FF722E
:100B000064210090022004F025FB644802F0BDFE41
:100B100002F092F806200449087000E0D6E10020B7
:100B200005490870D1E10000EC0000200AD7233C01
:100B3000CDCCCC3D1000002011000020B4824042FA
:100B4000C9A8C2EB00000000BBFAD0B5B1DBC4A35A
:100B5000CABD5BC9A8C2EB5D0A0000004F56C9A818
:100B6000C3E8C9CFB2E30000BBFAD0B5B1DBC4A380
:100B7000CABD5B4F56C9A8C3E8C9CFB2E35D0A003E
:100B8000D7A5C8A1C9CFB2E300000000C50100206D
:100B9000BBFAD0B5B1DBC4A3CABD5BB4D6BCD3B974
:100BA000A4C7F8B7C5D6C320C9CFB2E3C4A3CABD92
:100BB0005D0A0000B4D6BCD3B9A4C7F8C9CFB2E36C
:100BC000B7C5D6C300000000CD010020BBFAD0B5E8
:100BD000B1DBC4A3CABD5BB4D6BCD3B9A4C7F8D635
:100BE000D8D0C2D7A5C8A1CEEFC1CF20C9CFB2E31C
:100BF000C4A3CABD5D0A0000B4D6BCD3B9A4C7F86B
:100C0000D6D8D0C2D7A5C8A100000000BBFAD0B585
:100C1000B1DBC4A3CABD5BB0EBB3C9C6B7C7F8C9E3
:100C2000CFB2E3B7C5D6C35D0A000000B0EBB3C9CD
:100C3000C6B7C7F8C9CFB2E3B7C5D6C30000000036
:100C4000BBFAD0B5B1DBC4A3CABD5BC9A8C3E8CFAA
:100C5000C2B2E3CEEFC1CF5D0A000000C9A8C3E86D
:100C6000CFC2B2E3CEEFC1CF00000000BBFAD0B5D7
:100C7000B1DBC4A3CABD5BD7BCB1B8B5DAD2BBB4D3
:100C8000CED7A5C8A1CFC2B2E35D0A00B5DAD2BB08
:100C9000B4CED7A5C8A1CFC2B2E30000C9010020DD
:100CA0008BA008F0B7FD00202023B422642100901F
:100CB000022004F067FE8DA000234FF6FF7264212E
:100CC0000090022004F046FA4FF439708A494863D4
:100CD00001F0B2FF07208949087000208849087098
:100CE000F3E088A008F096FD03F0A3F803F0F3F812
:100CF0008C4802F0E1FD01F09FFF08207F49087059
:100D000000207F490870E0E087A008F083FD002004
:100D10002023B42264210090022004F033FE89A035
:100D200000234FF6FF7264210090022004F012FAB3
:100D30004FF439707049486301F07EFF09206F4914
:100D4000087000206E490870BFE081A008F062FDC5
:100D500003F06FF803F008F9724802F0C4FD01F0E7
:100D60006BFF0A2065490870002065490870ACE0F7
:100D70007EA008F04FFD00202023B42264210090C3
:100D8000022004F0FFFD80A000234FF6FF726421D3
:100D90000090022004F0DEF94FF4397056494863A0
:100DA00001F04AFF0B20554908700D205449087086
:100DB0008BE078A008F02EFD00202023B4226421CF
:100DC0000090022004F0DEFD7AA000234FF6FF72AF
:100DD00064210090022004F0BDF903F02AF803F02A
:100DE000F3F80E20464908706FE075A008F012FD78
:100DF00000202023B42264210090022004F0C2FDD0
:100E000079A000234FF6FF7264210090022004F0C5
:100E1000A1F90221784802F0C3FD0221764802F0D0
:100E2000EEFD0221744802F019FE74A008F0F2FCF5
:100E300000202023B42264210090022004F0A2FDAF
:100E400079A000234FF6FF7264210090022004F085
:100E500081F90221684802F076FE0221664802F01C
:100E6000A1FE0221644802F0CCFE01F0E5FE0C2058
:100E70002249087000202249087026E06EA008F080
:100E8000C9FC00202023B42264210090022004F039
:100E900079FD73A000234FF6FF72642100900220B9
:100EA00004F058F9544802F01DFF534802F030FF97
:100EB000514802F043FF01F0BFFE0D200F490870BA
:100EC00000200F49087000E000BF00BFFFF728BAFC
:100ED000BBFAD0B5B1DBC4A3CABD5BB5DAD2BBB433
:100EE000CED7A6D7D3B1D5BACF5D0A00D7A6D7D370
:100EF000B1D5BACF3100000000400140EC00002025
:100F000011000020BBFAD0B5B1DBC4A3CABD5BBBE6
:100F1000FAD0B5B1DBB5DAD2BBB4CECAD5BBD85D99
:100F20000A000000C9010020BBFAD0B5B1DBC4A3A0
:100F3000CABD5BB5DAB6FEB4CED7A6D7D3B1D5BAA3
:100F4000CF5D0A00D7A6D7D3B1D5BACF3200000003
:100F5000BBFAD0B5B1DBC4A3CABD5BD7BCB1B8B5D1
:100F6000DAC8FDB4CED7A5C8A15D0A00BBFAD0B5DA
:100F7000B1DBC4A3CABD5BB5DAC8FDB4CED7A6D772
:100F8000D3B1D5BACF5D0A00D7A6D7D3B1D5BACFE2
:100F900033000000BBFAD0B5B1DBC4A3CABD5BCF40
:100FA000C2B2E3D7A5C8A1B5DAC8FDB4CEB4E6B7DE
:100FB000C55D0A00CFC2B2E3B7C5D6C33300000097
:100FC000BBFAD0B5B1DBC4A3CABD5BB4D6BCD3B940
:100FD000A4C7F8B7C5D6C3CEEFC1CF20CFC2B2E306
:100FE000C4A3CABD5D0A0000BCD3B9A4C7F8CFC270
:100FF000B2E3B7C5D6C30000CD010020BBFAD0B51F
:10100000B1DBC4A3CABD5BB4D6BCD3B9A4C7F8D600
:10101000D8D0C2D7A5C8A1CEEFC1CF20CFC2B2E3EE
:10102000C4A3CABD5D0A0000BCD3B9A4C7F8CFC22F
:10103000B2E3D7A5C8A10000BBFAD0B5B1DBC4A309
:10104000CABD5BB0EBB3C9C6B7C7F8B7C5D6C3CE88
:10105000EFC1CF20CFC2B2E3C4A3CABD5D0A000076
:10106000B0EBB3C9C6B7C7F8CFC2B2E3B7C5D6C3F2
:1010700000000000704700BFFEE700BFFEE700BFB2
:10108000FEE700BFFEE770477047704770470000FB
:101090000CB50020019000907648006840F4803044
:1010A0007449086000BF7348006800F40030009085
:1010B0000198401C0190009818B90198B0F5A04F14
:1010C000F1D16C48006800F4003010B101200090AC
:1010D00001E0002000900098012846D1654840308A
:1010E000006840F080506349403108606248006801
:1010F00040F44040604908605E48083000685D493F
:10110000083108600846006840F40040086008465E
:10111000006840F4A05008605848091F0860081F84
:10112000006840F08070091F086000BF51480068E7
:1011300000F000700028F9D040F2057050490860B6
:101140004C480830006820F003004A490831086024
:101150000846006840F00200086000BF45480830BB
:10116000006800F00C000828F8D10CBD10B5454807
:10117000006840F47000434908603E48006840F051
:1011800001003C49086000203A49083108603948AC
:1011900000683D490840374908603C48091D08601F
:1011A000081F006820F48020091F086000203149D2
:1011B0000C310860FFF76CFF4FF000603149803957
:1011C000086010BD70B50020002202230024022117
:1011D000284D08352D6805F00C0020B1042806D0F4
:1011E000082834D107E02A4D2A4E356033E02A4DD5
:1011F000284E35602FE01F4D2D1D2D68C5F38054FE
:101200001C4D2D1D2D6805F03F0154B1224DB5FB3D
:10121000F1F5184E361D3668C6F3881605FB06F242
:1012200009E01B4DB5FBF1F5124E361D3668C6F3CD
:10123000881605FB06F20F4D2D1D2D68C5F30145DF
:101240006D1C6B00B2FBF3F5124E356003E0104DE0
:10125000104E356000BF00BF064D08352D68C5F340
:1012600003150E4E705D0B4D2D68C540094E35605F
:1012700070BD000000380240007000400854400774
:10128000003C024088ED00E0FFFFF6FE1030002435
:101290000024F4001400002000127A00180000203E
:1012A00070B52DED088B84B006460C461546B0EEA1
:1012B000408A012E06D0022E3BD0032E72D0042E7F
:1012C0006FD1A6E0012C0FD13DB1F84890ED000A96
:1012D00030EE080A80ED000A06E0F44890ED000ABE
:1012E00030EE480A80ED000A022C0FD13DB1F048E3
:1012F00090ED000A30EE080A80ED000A06E0EC48A6
:1013000090ED000A30EE480A80ED000A032C0FD160
:101310003DB1E84890ED000A30EE080A80ED000A81
:1013200006E0E44890ED000A30EE480A80ED000A3D
:10133000A7E0012C0FD13DB1DF4890ED000A30EE5F
:10134000080A80ED000A06E0DB4890ED000A30EE66
:10135000480A80ED000A022C0FD13DB1D74890ED2C
:10136000000A30EE080A80ED000A06E0D34890ED4E
:10137000000A30EE480A80ED000A032C0FD13DB17F
:10138000CF4890ED000A30EE080A80ED000A06E032
:10139000CB4890ED000A30EE480A80ED000A70E07C
:1013A00000E06DE0012C0FD13DB1C64890ED000A80
:1013B00030EE080A80ED000A06E0C24890ED000A0F
:1013C00030EE480A80ED000A022C0FD13DB1BE4834
:1013D00090ED000A30EE080A80ED000A06E0BA48F7
:1013E00090ED000A30EE480A80ED000A032C0FD180
:1013F0003DB1B64890ED000A30EE080A80ED000AD3
:1014000006E0B24890ED000A30EE480A80ED000A8E
:1014100037E0012C0FD13DB1AD4890ED000A30EE20
:10142000080A80ED000A06E0A94890ED000A30EEB7
:10143000480A80ED000A022C0FD13DB1A54890ED7D
:10144000000A30EE080A80ED000A06E0A14890ED9F
:10145000000A30EE480A80ED000A032C0FD13DB19E
:101460009D4890ED000A30EE080A80ED000A06E083
:10147000994890ED000A30EE480A80ED000A00E03D
:1014800000BF00BF8B48006809F020FB41EC190B3E
:101490008748006809F01AFB41EC1A0B8348006882
:1014A00009F014FB41EC1B0B8DED029B8DED00ABA5
:1014B00053EC1B2B89A008F0ADF98148006809F0B6
:1014C00005FB41EC190B7D48006809F0FFFA41EC7F
:1014D0001A0B7948006809F0F9FA41EC1B0B8DED05
:1014E000029B8DED00AB53EC1B2B7CA008F092F916
:1014F0007648006809F0EAFA41EC190B7248006876
:1015000009F0E4FA41EC1A0B6E48006809F0DEFAC3
:1015100041EC1B0B8DED029B8DED00AB53EC1B2BB7
:101520006EA008F077F96C48006809F0CFFA41EC3A
:10153000190B6848006809F0C9FA41EC1A0B6448B5
:10154000006809F0C3FA41EC1B0B8DED029B8DED99
:1015500000AB53EC1B2B67A008F05CF904B0BDECAA
:10156000088B70BD052878D2DFE800F0035E789123
:10157000E40061BB654BD3ED000A00EE102AB8EE23
:10158000400A30EEC00A83ED000A614BD3ED000A39
:1015900000EE102AB8EE400A30EEC00A83ED000AD1
:1015A0005C4BD3ED000A00EE102AB8EE400A30EE94
:1015B000C00A83ED000A584BD3ED000A00EE102A52
:1015C000B8EE400A30EEC00A83ED000A2BE04F4B24
:1015D000D3ED000A00EE102AB8EE400A30EE800A81
:1015E00083ED000A4A4BD3ED000A00EE102AB8EE54
:1015F000400A30EE800A83ED000A464BD3ED000A24
:1016000000EE102AB8EE400A30EE800A83ED000AA0
:10161000414BD3ED000A00EE102AB8EE400A30EE3E
:10162000800A83ED000A9FE059B9384BD3ED000AD8
:1016300000EE102AB8EE400A30EEC00A83ED000A30
:101640000AE0324BD3ED000A00EE102AB8EE400A51
:1016500030EE800A83ED000A86E084E059B92C4B15
:10166000D3ED000A00EE102AB8EE400A30EEC00AB0
:1016700083ED000A0AE0264BD3ED000A00EE102AA3
:10168000B8EE400A30EE800A83ED000A6CE059B9EA
:10169000204BD3ED000A00EE102AB8EE400A30EEDF
:1016A000C00A83ED000A44E038E00000400000205A
:1016B00044000020480000204C0000205000002082
:1016C00054000020580000205C0000206000002032
:1016D00064000020680000206C0000205B25302E94
:1016E00031662025302E32662025302E31665D0988
:1016F000000000005B25302E31662025302E32663A
:101700002025302E31665D0A0000000070000020A8
:10171000780000208000002088000020FE4BD3EDE0
:10172000000A00EE102AB8EE400A30EE800A83ED7F
:10173000000A19E059B9F94BD3ED000A00EE102A5E
:10174000B8EE400A30EEC00A83ED000A0AE0F34B1F
:10175000D3ED000A00EE102AB8EE400A30EE800AFF
:1017600083ED000A00E000BF00BF7047052835D2B6
:10177000DFE800F003141C242C0000EE101AB8EE71
:10178000400AE64A82ED000AE34A82ED000AE44A92
:1017900082ED000AE34A82ED000A20E000EE101A12
:1017A000B8EE400ADF4A82ED000A18E000EE101A97
:1017B000B8EE400ADA4A82ED000A10E000EE101A94
:1017C000B8EE400AD44A82ED000A08E000EE101A92
:1017D000B8EE400AD14A82ED000A00E000BF00BF27
:1017E0007047D148007800F0800060B3CE480078A0
:1017F00000F07F0000EE100AB8EEC00AC94880ED84
:10180000000AC948007800F07F0000EE100AB8EE28
:10181000C00AC34880ED000AC348007800F07F008A
:1018200000EE100AB8EEC00ABB4880ED000ABE48C0
:10183000007800F07F0000EE100AB8EEC00AB7484A
:1018400080ED000A13E09FEDB90AB64880ED000A6A
:101850009FEDB60AB24880ED000A9FEDB40AAE488B
:1018600080ED000A9FEDB10AAC4880ED000A704798
:1018700000B50146AC480170007840F08000AA4AEB
:101880001070FFF7AEFF00BD012806D002282DD052
:10189000032854D004287BD17BE091ED000AB8EEF8
:1018A000C00AA34AD2ED000AB4EEE00AF1EE10FA43
:1018B00005DD92ED000ABDEEC00A81ED000A91ED52
:1018C000000AB8EEC00A9A4AD2ED000AF1EE600AA8
:1018D000B4EEE00AF1EE10FA07D292ED000AB1EE92
:1018E000400ABDEEC00A81ED000A7CE091ED000ADD
:1018F000B8EEC00A8F4AD2ED000AB4EEE00AF1EE6B
:1019000010FA05DD92ED000ABDEEC00A81ED000A75
:1019100091ED000AB8EEC00A864AD2ED000AF1EE57
:10192000600AB4EEE00AF1EE10FA07D292ED000A76
:10193000B1EE400ABDEEC00A81ED000A53E091ED20
:10194000000AB8EEC00A7C4AD2ED000AB4EEE00A02
:10195000F1EE10FA05DD92ED000ABDEEC00A81ED50
:10196000000A91ED000AB8EEC00A734AD2ED000AEF
:10197000F1EE600AB4EEE00AF1EE10FA07D292ED51
:10198000000AB1EE400ABDEEC00A81ED000A2AE06D
:1019900028E091ED000AB8EEC00A684AD2ED000ACC
:1019A000B4EEE00AF1EE10FA05DD92ED000ABDEEAC
:1019B000C00A81ED000A91ED000AB8EEC00A5F4A44
:1019C000D2ED000AF1EE600AB4EEE00AF1EE10FA90
:1019D00007D292ED000AB1EE400ABDEEC00A81EDD9
:1019E000000A00E000BF00BF704708B5F0EE401AE3
:1019F0004C4890ED000A31EEC00AB0EE401A504853
:101A000090ED000A31EE400AB0EE402A4D4890EDCC
:101A1000000A30EE010A80ED000A90ED000ADFEDC9
:101A20004A0AB4EEE00AF1EE10FA03D29FED460A3C
:101A300080ED000A434890ED000ADFED440AB4EE61
:101A4000E00AF1EE10FA03DD9FED400A80ED000A96
:101A50003C4890ED000A3E48D0ED000A20EE200AF6
:101A60003C4880ED000A3C4890ED000A60EE010A17
:101A7000F2EE042A80EEA20A3848D0ED000A60EEA9
:101A8000820AF2EE042A80EEA23A30EE030A3148CE
:101A9000D0ED000A30EE200ABDEEC00A8DED000A3E
:101AA000274880ED001A69460120FFF7EDFE0098F7
:101AB00008BD08B5F0EE401A194890ED000A31EE65
:101AC000C00AB0EE401A264890ED000A31EE400AF6
:101AD000B0EE402A234890ED000A30EE010A80ED76
:101AE000000A90ED000ADFED180AB4EEE00AF1EE0C
:101AF00010FA03D29FED140A80ED000A194890ED08
:101B0000000ADFED120AB4EEE00AF1EE10FA2DDD64
:101B10009FED0E0A28E000008000002088000020D1
:101B200078000020700000209000002000000C428F
:101B3000740000207C000020840000208C00002025
:101B40009C000020A0000020000048C20000484285
:101B500044000020A4000020400000204800002095
:101B6000A8000020AC00002080ED000AF14890EDB4
:101B7000000AF148D0ED000A20EE200AEF4880ED7F
:101B8000000AEF4890ED000A60EE010AF2EE042A26
:101B900080EEA20AEB48D0ED000A60EE820AF2EE77
:101BA000042A80EEA23A30EE030AE448D0ED000A9F
:101BB00030EE200ABDEEC00A8DED000AE24880ED4D
:101BC000001A69460220FFF75FFE009808BD08B5BD
:101BD000F0EE401ADD4890ED000A31EEC00AB0EE9A
:101BE000401ADB4890ED000A31EE400AB0EE402A80
:101BF000D84890ED000A30EE010A80ED000A90ED21
:101C0000000A5FED2F0AB4EEE00AF1EE10FA03D2FB
:101C10001FED330A80ED000ACE4890ED000A5FED1B
:101C2000350AB4EEE00AF1EE10FA03DD1FED390AD1
:101C300080ED000AC74890ED000AC748D0ED000AC1
:101C400020EE200AC54880ED000AC54890ED000A44
:101C500060EE010AF2EE042A80EEA20AC148D0ED3D
:101C6000000A60EE820AF2EE042A80EEA23A30EE1A
:101C7000030ABA48D0ED000A30EE200ABDEEC00AD1
:101C80008DED000AB24880ED001A69460320FFF787
:101C9000FBFD009808BD08B5F0EE401AB24890ED83
:101CA000000A31EEC00AB0EE401AB04890ED000ACA
:101CB00031EE400AB0EE402AAD4890ED000A30EE19
:101CC000010A80ED000A90ED000A5FED610AB4EEB2
:101CD000E00AF1EE10FA03D21FED650A80ED000A6A
:101CE000A34890ED000A5FED670AB4EEE00AF1EE5A
:101CF00010FA03DD1FED6B0A80ED000A9C4890EDA1
:101D0000000A9C48D0ED000A20EE200A9A4880ED97
:101D1000000A9A4890ED000A60EE010AF2EE042AE9
:101D200080EEA20A9648D0ED000A60EE820AF2EE3A
:101D3000042A80EEA23A30EE030A8F48D0ED000A62
:101D400030EE200ABDEEC00A8DED000A874880ED16
:101D5000001A69460420FFF797FD009808BDF0EED1
:101D6000400A8849097801EE901AF8EE611A70EE7F
:101D7000E11AB0EE610A8449D1ED001A70EE611AE1
:101D8000B0EE611A8149D1ED001AB7EE002A71EE6A
:101D9000821AC1ED001AB3EE0E2AF4EEC21AF1EE69
:101DA00010FA30DDDFED7A1AC1ED001A7949D1ED74
:101DB000001A71EE801AC1ED001AD1ED001A9FEDE4
:101DC000762AF4EEC21AF1EE10FA03D2DFED721A9F
:101DD000C1ED001A6F49D1ED001A9FED702AF4EEA3
:101DE000C21AF1EE10FA03DDDFED6C1AC1ED001A34
:101DF0006849D1ED001A6A4991ED002A61EE821A14
:101E00006849C1ED001A6849D1ED001A21EE802A17
:101E1000DFED662AC2EE221A654991ED002A22EE14
:101E2000012AF2EE042A82EE223A71EE831A5D490B
:101E300091ED002A71EE821AFDEEE11A11EE900A80
:101E4000514981ED000A7047F0EE400A4D4909788A
:101E500001EE901AF8EE611A70EEE11AB0EE610A26
:101E60005449D1ED001A70EE611AB0EE611A524970
:101E7000D1ED001AB7EE002A71EE821AC1ED001AF8
:101E8000B3EE0E2AF4EEC21AF1EE10FA30DDDFEDF9
:101E9000401AC1ED001A4949D1ED001A71EE801ABD
:101EA000C1ED001AD1ED001A9FED3B2AF4EEC21AE3
:101EB000F1EE10FA03D2DFED381AC1ED001A3F49F6
:101EC000D1ED001A9FED352AF4EEC21AF1EE10FAA8
:101ED00003DDDFED321AC1ED001A3849D1ED001AE9
:101EE000374991ED002A61EE821A3649C1ED001A98
:101EF0003549D1ED001A21EE802ADFED2C2AC2EE01
:101F0000221A324991ED002A22EE012AF2EE042A29
:101F100082EE223A71EE831A2A4991ED002A71EE7F
:101F2000821AFDEEE11A11EE900A224981ED000AB3
:101F300070470000AC00002050000020B0000020DE
:101F40004C00002054000020A80000208000002049
:101F5000B4000020B80000205C000020BC0000207D
:101F6000580000206000002088000020C0000020F1
:101F7000C400002068000020C80000206400002089
:101F80006C00002098000020CC000020D800002029
:101F900000000000D00000200000FAC30000FA4357
:101FA0002C000020D4000020280000200000C8429F
:101FB00030000020DC000020E8000020E0000020CD
:101FC00038000020E4000020340000203C00002005
:101FD00010B52DED088B86B0022003F0FBFC041E2B
:101FE00001DB204600E06042FD490860032003F069
:101FF000F1FC041E01DB204600E06042F849486025
:10200000042003F0E7FC041E01DB204600E06042F0
:10201000F3498860052003F0DDFC041E01DB204647
:1020200000E06042EE49C860EE48007800287BD1AD
:10203000ED480078012836D1ECA007F0EBFBE8482A
:10204000D0ED000AF8EEE00AB0EE600AFFF7CDFC32
:102050004042E9490860E248D0ED010AF8EEE00AA2
:10206000B0EE600AFFF725FD4042E349091D086014
:10207000DB48D0ED020AF8EEE00AB0EE600AFFF7A6
:10208000A6FD4042DC490C310860D548D0ED030A7A
:10209000F8EEE00AB0EE600AFFF7FDFD4042D649D7
:1020A000083108603AE0CE48D0ED000AF8EEE00AC8
:1020B000B0EE600AFFF799FCD04909780844CE4990
:1020C0000860C748D0ED010AF8EEE00AB0EE600AF9
:1020D000FFF7EFFCC94949780844C749091D086062
:1020E000BF48D0ED020AF8EEE00AB0EE600AFFF752
:1020F0006EFDC24989780844BF490C310860B84870
:10210000D0ED030AF8EEE00AB0EE600AFFF7C3FD77
:10211000BA49C9780844B84908310860B648083057
:1021200000686438AE494861B5480078002844D05A
:10213000AB48C0680090AA48836842680168B1A0B3
:1021400007F068FBAC48083000680090AA480C30E3
:102150000368A948001D0268001F0168AFA007F0CE
:1021600059FBB348006808F0B1FC41EC180BB148CA
:10217000006808F0ABFC41EC190BAF48006808F0B0
:10218000A5FC41EC1A0BAD48006808F09FFC41EC3F
:102190001B0B8DED048B8DED029B8DED00AB53EC95
:1021A0001B2BA7A007F036FBAC480378AC4802888D
:1021B000AC480188ACA007F02DFB06B0BDEC088B45
:1021C00010BD10B5044603F064FCA649088003F076
:1021D00086FCA349088003F0A5FCA949088003F008
:1021E000C5FCA84908800620FFF742FB002C74D1EB
:1021F0009C48008840F2E931884213D19848008811
:1022000088420FD19E48008888420BD19D480088A3
:10221000884207D19CA007F0FDFA04F018F803F0FB
:1022200030FF5AE08F48008840F25641884205D07E
:102230008C48008840F24C41884229D18848008867
:1022400040F25641884205D08548008840F24C4112
:1022500088421DD18A48008840F25641884205D004
:102260008748008840F24C41884211D18548008857
:1022700040F25641884205D08248008840F24C41E5
:10228000884205D182A007F0C5FA04F018F824E0CE
:10229000744800886F2803D0724800880B281CD12E
:1022A0006F4800886F2803D06D4800880B2814D130
:1022B000734800886F2803D0714800880B280CD120
:1022C000704800886F2803D06E4800880B2804D11E
:1022D00072A007F09FFA03F0F2FF012C73D1694856
:1022E000008840F2E93188420CD15D48008848B945
:1022F00003F0ADFF03F0C5FE00206B4908706B4989
:10230000087060E05648008898BB5E4800886F28D7
:1023100009D05C48008840F2F331884203D0594824
:1023200000880B2802D103F068FF4CE05548008874
:1023300040F2564188420AD05248008840F24D414E
:10234000884204D04F480088491E884202D103F0D9
:1023500046FF38E04B48008840F25741884209D197
:102360005148007830B903F048FF16204E490870F4
:1023700029E010E04348008840F25741884222D1CA
:10238000494801780078401E474A107001291AD147
:1023900003F025FF17E0324800880B2803D03048AF
:1023A0000088012802D103F07CFF0CE02C48008853
:1023B00040F24C41884204D029480088B0F57A7F29
:1023C00001D103F07CFF022C72D12D48008840F22D
:1023D000E931884277D12348008800B969E072E08A
:1023E00090010020AB010020F8000020CDA3B3B580
:1023F000C4A3CABD0000000034040140AC010020A9
:10240000F9000020B1E0C2EBC6F75B25642025642B
:102410002025642025645D090000000050574D5BB5
:1024200025642025642025642025645D09000000C2
:10243000880000208000002078000020700000202C
:1024400054535B252E306620252E306620252E30F5
:102450006620252E30665D0900000000ED0000209A
:10246000F2000020F0000020485B2564207C20253D
:10247000645D09737465705B25645D0A000000008B
:10248000F4000020F60000205BCDA3B3B55D000092
:102490005B596177CFF2D7F35D0000005B5961773C
:1024A000CFF2D3D25D000000FA000020EC00002043
:1024B00051E003F0CCFE03F0E4FD0020FE4908707B
:1024C000FE4908708CE0FE48008898BBFD480088F3
:1024D0006F2809D0FB48008840F2F331884203D0CE
:1024E000F84800880B2802D103F095FE78E0F54803
:1024F000008840F2564188420AD0F248008840F2F3
:102500004D41884204D0EF480088491E884202D1DC
:1025100003F08FFE64E0EB48008840F257418842A8
:1025200009D1E548007830B903F075FE1620E2497C
:10253000087055E010E0E348008840F257418842B7
:102540004ED1DD4801780078401EDB4A1070012929
:1025500046D103F06EFE43E0D94800880B2803D033
:10256000D7480088012802D103F09BFE38E0D44808
:10257000008840F24C41884204D0D1480088B0F530
:102580007A7F02D103F09BFE2AE0CD48008840F21A
:102590005641884205D0CA48008840F24C418842E2
:1025A0000CD1C848008840F25641884203D0C54843
:1025B00000880B2802D103F082FE11E0C048008899
:1025C0006F2803D0BE4800880B2809D1BD48008879
:1025D0006F2803D0BB4800880B2801D103F06FFEA1
:1025E000FFF7F6FC10BD10B504460B2C78D2DFE8DF
:1025F00004F07706111B25303D4A57646D0003F047
:10260000EEFD0020B04908700120B049087003F0C9
:1026100003FB66E003F0F1FD0220AB490870AB4913
:10262000087003F0F9FA5CE003F003FE0320A6490A
:102630000870A649087003F0EFFA52E003F0EBFDD2
:102640000120A14908700420A049087003F0E4FAB1
:1026500047E0002003F043FD022003F060FD02206C
:1026600003F07DFD022003F09AFD3AE0022003F022
:1026700036FD002003F053FD022003F070FD022020
:1026800003F08DFD2DE0022003F029FD022003F070
:1026900046FD002003F063FD022003F080FD20E0F2
:1026A000022003F01CFD022003F039FD022003F09C
:1026B00056FD002003F073FD13E003F090FD0020B1
:1026C000834908701E20FFF7D3F80AE003F095FD58
:1026D00001207F4908700020FFF7CAF801E0FFE7FA
:1026E00000BF00BFFFF774FC10BD10B503F0D1F9B7
:1026F0007349088003F0F3F976490880764800783A
:1027000088B903F07AFD02206F4908706F4908709C
:102710000020724908701F20714908706E480078C7
:10272000401C6D49087003F077FA6D480078002866
:1027300008DD69480078012804D169480078401E06
:10274000674908706648007840B9634800780128F6
:1027500004D161480078401C5F4908705D480088DA
:1027600040F2E931884208D15B480078022804D160
:1027700059480078401C584908705648008840F273
:102780005641884208D154480078032804D1524861
:102790000078401C504908704E48008840F2E931EA
:1027A000884208D14C480078042804D14A4800786F
:1027B000401C494908704748008840F25641884209
:1027C00008D145480078052804D143480078401CCA
:1027D000414908703F48008840F2E931884212D1EF
:1027E0003D48007806280ED103F023FD032036492A
:1027F0000870364908701F2039490870364800783B
:10280000401C3549087036480078002808DD3248F9
:102810000078072804D132480078401E30490870FB
:102820002F48007840B92C480078072804D12A485E
:102830000078401C284908702148008840F2E9319E
:10284000884208D124480078082804D1224800781A
:10285000401C214908701A48008840F256418842BD
:1028600008D11D480078092804D11B480078401C75
:10287000194908701748008850B9174800780A2885
:1028800006D103F0BAFC14480078401C12490870C5
:102890000B48008878B9104800780B280BD103F05A
:1028A000D6FC03F0EEFB0020044908700A480078CB
:1028B000401C0949087010BDFA000020EC000020FF
:1028C000F0000020F4000020A8010020A901002051
:1028D000F8000020F2000020ED000020AA010020F6
:1028E000EE00002010B503F0D4F8F949088003F099
:1028F000F6F8F849088003F039F9F7490880F748F5
:10290000007888B92320FEF7B3FF03F076FC02209D
:10291000F3490870F34908700120F3490870EF4843
:102920000078401CED49087003F076F9E94800880A
:1029300040F2E931884208D1E8480078012804D102
:10294000E6480078401CE5490870E248008840F2FB
:102950005641884208D1E1480078022804D1DF4876
:102960000078401CDD490870DA48008840F2E931FF
:10297000884208D1D9480078032804D1D748007884
:10298000401CD6490870D348008840F2564188421E
:1029900008D1D2480078042804D1D0480078401CDF
:1029A000CE490870CB48008840F25641884205D095
:1029B000C848008840F2E931884218D1C7480078F9
:1029C000052814D11920FEF753FF03F032FC012033
:1029D000C54908700320C2490870C2490870232005
:1029E000C2490870BD480078401CBC490870BF4807
:1029F0000078002808DDB9480078062804D1BB48D3
:102A00000078401EB9490870B848007840B9B3480A
:102A10000078062804D1B1480078401CAF490870FE
:102A2000AB48008840F2E931884208D1AB480078D1
:102A3000072804D1A9480078401CA8490870A44878
:102A4000008840F2564188420BD1A44800780828FB
:102A500007D1A2480078401CA04908700F20FEF75B
:102A600007FF9B48008840F2E931884203D098482C
:102A700000886F280BD199480078092807D197481A
:102A80000078401C954908700720FEF7F1FE904839
:102A9000008840F2564188421AD1904800780A28AE
:102AA00016D18E480078401C8C49087003F0CFFB8B
:102AB00003F0E7FA00208E490870FEF792FE00202E
:102AC0008C4908708C48007810B90F208B49087029
:102AD000FFF77EFA10BD10B5044602F0DAFF7C491C
:102AE000088002F0FCFF7B4908807C48007898B998
:102AF0001920FEF7BDFEB3EE090A814880ED000AF9
:102B000003F097FB032076490870764908707348F4
:102B10000078401C7149087003F07EF86C4800880A
:102B200040F2E93188420DD16C480078012809D182
:102B30006A480078401C6949087000206C49087098
:102B4000FEF74FFE6248008840F25641884208D1A5
:102B500062480078022804D160480078401C5F4930
:102B600008705B48008840F2E931884208D15B4830
:102B70000078032804D159480078401C5749087050
:102B80005348008840F25641884208D153480078A3
:102B9000042804D151480078401C504908704C4822
:102BA000008840F2E931884216D14C480078052867
:102BB00012D10A20FEF75CFE03F011FB0020484909
:102BC00008700120474908700020474908704348B1
:102BD0000078401C414908703D48008828BB3F48A8
:102BE0000078062825D13D480078401C3B490870F4
:102BF00003F02DFB03F045FA00203D490870FEF775
:102C0000F0FD9FED400A3E4880ED000A00203E495D
:102C100008703E4908702A20364908703648007806
:102C200018B91CB104203549087002E00E20334960
:102C30000870FFF7CDF910BD0020284908700A2060
:102C40002A490870704710B50446601E3049085C78
:102C500032286BD102F08AFF1F4908801F48007894
:102C600078B90F20FEF704FE03F0D5FA01201C49C5
:102C7000087004201B49087018480078401C174948
:102C8000087002F0C9FF1448008800281FD11348BB
:102C900000780128FAD111480078401C0F490870CB
:102CA00003F0D5FA03F0EDF9FFF7C6FF0020104955
:102CB0000870FEF796FD00200E4908700E48007857
:102CC00000287AD1012C25D108200C49087074E025
:102CD000F0000020F2000020F6000020ED000020AF
:102CE000A8010020A9010020AA010020EE00002078
:102CF00090000020EC000020F900002011000020CE
:102D00009400002000000C42FC000020FD00002088
:102D1000C9010020022C03D10A20FE4908704CE0B2
:102D2000032C4AD10C20FB49087046E002F0D7FE84
:102D3000F9490880F948007878B90F20FEF798FD26
:102D400003F069FA0120F64908700420F54908707B
:102D5000F2480078401CF149087002F05DFFEE482F
:102D6000008820BBED480078012826D1EB48007888
:102D7000401CEA49087003F06AFA03F082F9FFF791
:102D80005BFF0020E8490870FEF72BFD0020E749B3
:102D90000870E748007850B9012C03D10820DD49BC
:102DA00008700AE0022C03D10A20DA49087004E016
:102DB000032C02D10C20D7490870FFF709F910BD88
:102DC00010B5044602F065FEDA490880D348007861
:102DD00070B90F20FEF74CFD03F02BFA0320D04909
:102DE0000870D0490870CD480078401CCB49087065
:102DF00002F012FFCF48008840F2E931884203D048
:102E0000CC4800880B2822D1C448007801281ED164
:102E1000C2480078401CC149087003F018FA03F05A
:102E200030F90020C0490870FEF7DBFC0020BF49E4
:102E30000870BF48007850B9012C03D10920B5496A
:102E4000087004E0022C02D10B20B2490870FFF791
:102E5000BFF810BD10B502F01CFEB649088002F0A4
:102E60003EFEAD490880AD48007850B903F0D3F973
:102E70000120AB4908700420AA4908700120A74925
:102E8000087002F0C9FEAB48008840F2E931884280
:102E900008D1A2480078012804D1A0480078401C3D
:102EA0009E490870A348008840F25641884208D1E4
:102EB0009A480078022804D198480078401C974925
:102EC00008709C48008840F2E931884208D1934854
:102ED0000078032804D191480078401C8F4908707D
:102EE0009448008840F25641884208D18B480078C7
:102EF000042804D189480078401C884908708D480E
:102F0000008840F2E931884208D1844800780528D9
:102F100004D182480078401C8049087085480088A8
:102F200040F25641884208D17C480078062804D1F6
:102F30007A480078401C794908707E48008840F241
:102F4000E931884208D175480078072804D17348D0
:102F50000078401C714908707648008840F256415C
:102F600088420BD16D480078082807D11920FEF758
:102F70007FFC6A480078401C684908706D480088EA
:102F800040F2E93188421CD164480078092818D100
:102F900003F025F900206849087061490870012094
:102FA00060490870002060490870FEF71AFC5B4811
:102FB0000078401C59490870604800780B305F4920
:102FC00008705E480078002808DD544800780A2818
:102FD00004D15A480078401E584908705748007874
:102FE00040B94E4800780A2804D14C480078401C6B
:102FF0004A4908704848008840F2E931884208D1BF
:10300000464800780B2804D144480078401C4349C6
:1030100008704148008840F2564188420BD13F4831
:1030200000780C2807D13D480078401C3B490870C7
:103030000C20FEF71DFC3848008840F2E931884238
:103040001AD1364800780D2816D134480078401C33
:103050003249087003F0FBF803F013F800203249FE
:103060000870FEF7BEFB0020304908703048007839
:1030700010B9062027490870FEF7AAFF10BD10B549
:1030800002F007FD2B49088002F029FD2249088043
:1030900002F06CFD2A4908802048007888B9232076
:1030A000FEF7E6FB03F0A9F802201D4908701D4950
:1030B000087001202049087018480078401C174902
:1030C000087002F0A9FD1448008840F2E9318842F6
:1030D00008D112480078012804D110480078401C1B
:1030E0000E4908700C48008840F25641884208D1C9
:1030F0000A480078022804D108480078401C074993
:1031000008700548008840F2E931884221D103481F
:10311000007817E011000020F2000020ED000020F0
:10312000A8010020A901002090000020EC00002050
:10313000F9000020F0000020AA010020EE0000208D
:10314000F6000020032804D1FE480078401CFD4909
:103150000870FD48008840F25641884208D1F9487D
:103160000078042804D1F7480078401CF54908701D
:10317000F548008840F25641884205D0F248008860
:1031800040F2E931884218D1EE480078052814D180
:103190001920FEF76DFB03F04CF80120EB49087095
:1031A0000320EB490870EB4908702320EA490870B6
:1031B000E4480078401CE3490870E748007800289C
:1031C00008DDE0480078062804D1E3480078401E76
:1031D000E1490870E048007840B9DA4800780628EC
:1031E00004D1D8480078401CD6490870DB480088D4
:1031F00040F2E931884208D1D2480078072804D14A
:10320000D0480078401CCF490870D448008840F26C
:103210005641884208D1CB480078082804D1C948D3
:103220000078401CC7490870CC48008840F2E9315A
:10323000884208D1C3480078092804D1C1480078E1
:10324000401CC0490870C548008840F25641884279
:103250000BD1BC4800780A2807D1BA480078401C36
:10326000B84908700F20FEF703FBBD480088D0B9AD
:10327000B44800780B2816D1B2480078401CB149F8
:10328000087002F0E4FF02F0FCFE0020B54908706F
:10329000FEF7A7FA0020B4490870B448007810B9C6
:1032A0000520B3490870FEF793FE10BD10B502F07B
:1032B000F0FBAA49088002F012FCA3490880A1484B
:1032C000007860B92820FEF7D3FA02F088FF0020CA
:1032D0009F49087001209F4908709A49087002F0C0
:1032E0009BFC9948008840F2E931884208D1954812
:1032F0000078012804D193480078401C9149087057
:103300009148008840F25641884208D18D480078A3
:10331000022804D18B480078401C8A4908708A48EA
:10332000008840F2E931884208D1864800780328B5
:1033300004D184480078401C824908708248008883
:1033400040F25641884208D17E480078042804D1D2
:103350007C480078401C7B4908707B48008840F21C
:10336000E931884208D177480078052804D17548AA
:103370000078401C734908707348008840F2564139
:1033800088420BD16F480078062807D16D48007835
:10339000401C6C4908700F20FEF76AFA6A480088E2
:1033A00040F2E931884203D0674800880B2811D1E8
:1033B0006448007807280DD1FEF75AFA02F039FF69
:1033C000032063490870634908705E480078401C18
:1033D0005C490870FEF7FCFD5B480088D0B959488D
:1033E0000078082816D157480078401C55490870C5
:1033F00002F02DFF02F045FE00205A490870FEF74A
:10340000F0F92920584908705848007810B902206E
:103410005749087010BD10B502F03BFB4F490880BA
:1034200002F05DFB484908804648007860B91920E1
:10343000FEF71EFA02F027FF42480078401C41497F
:10344000087023204449087043480078002808DDAC
:103450003C480078012804D13F480078401E3E498E
:1034600008703E48008840F2E931884218D135485A
:103470000078012814D13848007888B902F0AFFEEE
:103480001E20FEF7F5F90020304908703049087019
:103490000120304908702B480078401C29490870E9
:1034A00002F0BAFB2848008840F2E931884207D18F
:1034B0003048007820B92F480078401C2D4908700A
:1034C0002148008840F25641884208D129480078B6
:1034D000012804D127480078401C264908701A4862
:1034E000008840F2E931884208D122480078022859
:1034F00004D120480078401C1E49087012480088FA
:1035000040F2564188420FD11A48007803280BD167
:103510001149087017480078401C1649087009487E
:103520000078401C074908700B480078002808DD27
:1035300004480078032804D107480078401E064953
:10354000087019E0ED000020F2000020AA01002020
:10355000A8010020A9010020EE000020F0000020BA
:10356000F600002090000020EC000020F900002070
:1035700011000020FB000020F748007880B9F748D0
:10358000007803280CD102F062FE0020F449087094
:10359000F4490870F448007810B90120F349087024
:1035A000FEF716FD10BD10B50121F14805F015FD1F
:1035B00000286ED0EA4800782B2878D2DFE800F0A7
:1035C00016171A1D2124272B2F33373B3F427777BD
:1035D0007777777745494D5155595D61656B7777B9
:1035E0007777777777777777776F730060E0FFF794
:1035F00012FF5DE0FFF75AFE5AE00120FFF76BFA79
:1036000056E0FFF73CFD53E0FFF724FC50E00120BB
:10361000FFF719FB4CE00120FFF7D2FB48E0022046
:10362000FFF711FB44E00220FFF7CAFB40E0032054
:10363000FFF709FB3CE00220FFF74DFA38E0FFF707
:1036400051F935E0FFF751F832E00120FEF7CBFFEA
:103650002EE00220FEF7C7FF2AE00320FEF7C3FF9B
:1036600026E00420FEF7BFFF22E00520FEF7BBFFA7
:103670001EE00620FEF7B7FF1AE00720FEF7B3FFB3
:1036800016E00820FEF7AFFF12E00920FEF7ABFFBF
:103690000EE012E00BE00A20FEF7A5FF08E0012093
:1036A000FEF78FFD04E00220FEF78BFD00E000BF77
:1036B00000BF0121AE4805F0A1FC10BD10B502F01D
:1036C000E8F9AC49088002F00AFAAB490880A3483F
:1036D000007878B90F20FEF7CBF802F09CFD0120AE
:1036E000A64908700420A64908709C480078401C30
:1036F0009A49087002F090FA9F480088D0B997481C
:103700000078012816D195480078401C934908702C
:1037100002F09DFD02F0B5FC00209A490870FEF70A
:1037200060F800208E4908708F48007810B9082092
:103730008E490870FEF74CFC10BD10B502F0A9F9D7
:103740008C49088002F0CBF98B49088083480078C7
:1037500070B90F20FEF78CF802F06BFD032087494B
:103760000870874908707D480078401C7B490870C4
:1037700002F052FA7F48008840F2E931884203D0D3
:103780007C4800880B281AD174480078012816D18B
:1037900072480078401C7149087002F058FD02F030
:1037A00070FC002077490870FEF71BF800206C4978
:1037B00008706D48007810B909206C490870FEF750
:1037C00007FC10BD70B50546002419E0285D3128BE
:1037D00004D0322807D033280FD109E000F0ACFD27
:1037E00000F079FB0AE000F0DBFD00F0BDFB05E036
:1037F00000F00AFE00F0E8FB00E000BF00BF641C20
:10380000032CE3DB70BD10B504462078312802D1CB
:1038100000F092FD0AE02078322802D100F0C0FDCD
:1038200004E02078332801D100F0EEFD00F053FBD6
:1038300010BD10B504466078312802D100F07CFD3F
:103840000AE06078322802D100F0AAFD04E0607836
:10385000332801D100F0D8FD00F086FB10BD10B573
:103860000446A078312802D100F066FD0AE0A07875
:10387000322802D100F094FD04E0A078332801D171
:1038800000F0C2FD00F0A0FB10BD10B5044620788A
:10389000312802D100F0ECFD0DE02078322802D171
:1038A00000F00FFE07E02078332804D100F032FE4C
:1038B00035A005F0AFFF10BD10B504466078312883
:1038C00002D100F0D5FD0DE06078322805D100F07E
:1038D000F8FD2FA005F09EFF04E06078332801D1A9
:1038E00000F018FE10BD10B50446A078312805D1AF
:1038F00000F0BEFD28A005F08DFF0AE0A078322878
:1039000002D100F0DEFD04E0A078332801D100F000
:1039100001FE10BD70B50546052419E0285D31286B
:1039200004D0322807D033280FD109E000F0A0FDE1
:1039300000F0D1FA0AE000F0C4FD00F015FB05E04C
:1039400000F0E8FD00F040FB00E000BF00BF641C99
:10395000082CE3DB70BD0000EE000020ED0000202D
:10396000EC000020FB000020F900002011000020E6
:1039700000100040F0000020F2000020A80100200C
:10398000A901002090000020D7A5BAECC9AB000027
:10399000D7A5C2CCC9AB0000D7A5C0B6C9AB000043
:1039A00070B504460D46012D13D100F03DFB207883
:1039B000312802D100F049FE20E02078322802D1DF
:1039C00000F075FE1AE02078332817D100F0CDFD05
:1039D00014E0022D12D100F027FB2079312802D10A
:1039E00000F033FE0AE02079322802D100F05FFEB9
:1039F00004E02079332801D100F0B7FD70BD70B527
:103A000004460D46012D13D100F059FB6078312892
:103A100002D100F01AFE20E06078322802D100F0D6
:103A200046FE1AE06078332817D100F09EFD14E0BE
:103A3000022D12D100F043FB6079312802D100F051
:103A400004FE0AE06079322802D100F030FE04E082
:103A50006079332801D100F088FD70BD70B504464F
:103A60000D46012D13D100F05AFBA078312802D168
:103A700000F0EBFD20E0A078322802D100F017FE24
:103A80001AE0A078332817D100F06FFD14E0022D62
:103A900012D100F044FBA079312802D100F0D5FD0D
:103AA0000AE0A079322802D100F001FE04E0A079FA
:103AB000332801D100F059FD70BD70B505460E46A2
:103AC0000024012E1ED100BF19E0285D312804D04A
:103AD000322807D033280FD109E000F0A5FA00F012
:103AE000B4FD0AE000F0EBFA00F0E1FD05E000F0C3
:103AF00016FB00F03AFD00E000BF00BF641C032C81
:103B0000E3DB1FE0022E1DD1042419E0285D3128DB
:103B100004D0322807D033280FD109E000F084FA0E
:103B200000F093FD0AE000F0CAFA00F0C0FD05E0E5
:103B300000F0F5FA00F019FD00E000BF00BF641CC2
:103B4000072CE3DB70BD70B504460D46012D13D183
:103B50002078312802D100F00EFE0AE020783228C9
:103B600002D100F03AFE04E02078332801D100F0C1
:103B7000D0FD00F029FA14E0022D12D1207931286D
:103B800002D100F0F8FD0AE02079322802D100F0DD
:103B900024FE04E02079332801D100F0BAFD00F0C2
:103BA00013FA70BD70B504460D46012D13D160782F
:103BB000312802D100F0DFFD0AE06078322802D11E
:103BC00000F00BFE04E06078332801D100F0A1FD85
:103BD00000F0CAF914E0022D12D16079312802D127
:103BE00000F0C9FD0AE06079322802D100F0F5FD4D
:103BF00004E06079332801D100F08BFD00F0B4F9C6
:103C000070BD70B504460D46012D13D1A078312842
:103C100002D100F0B0FD0AE0A078322802D100F015
:103C2000DCFD04E0A078332801D100F072FD00F043
:103C300052F914E0022D12D1A079312802D100F0FE
:103C40009AFD0AE0A079322802D100F0C6FD04E016
:103C5000A079332801D100F05CFD00F03CF970BD83
:103C600010B5044600F05BFA2078312802D100F04C
:103C70001CFE0AE02078322802D100F048FE04E061
:103C80002078332801D100F0DEFD10BD10B50446C8
:103C900000F015FA6078312802D100F006FE0AE043
:103CA0006078322802D100F032FE04E060783328D8
:103CB00001D100F0C8FD10BD10B5044600F0B4F904
:103CC000A078312802D100F0F0FD0AE0A078322877
:103CD00002D100F01CFE04E0A078332801D100F0EE
:103CE000B2FD10BD10B5044600F019FA2079312854
:103CF00002D100F070FE0AE02079322802D100F0F3
:103D0000E3FE04E02079332801D100F032FE10BD3B
:103D100010B5044600F0D3F96079312802D100F0E3
:103D20005AFE0AE06079322802D100F0CDFE04E0AC
:103D30006079332801D100F01CFE10BD10B5044697
:103D400000F072F9A079312802D100F044FE0AE0B7
:103D5000A079322802D100F0B7FE04E0A079332820
:103D600001D100F006FE10BD70B505460E46344682
:103D700005E0FE480460092003F0BCF9E41EAC42F3
:103D8000F7D270BD70B505460E46344605E0F748DB
:103D90000460092003F0AEF9A41CAC42F7D970BD51
:103DA00070B505460E46344605E0F048046009202B
:103DB00003F0A0F9A41CAC42F7D970BD70B505465C
:103DC0000E46344605E0EA488463082003F092F981
:103DD000E41CAC42F7D970BD70B505460E463446BA
:103DE00005E0E44804600B2003F084F9A41CAC4215
:103DF000F7D970BD10B54FF44870DC490860322027
:103E000003F078F940F26A40DA490860642003F070
:103E100071F940F2523140F28B30FFF7C1FF4FF49D
:103E2000617140F2A130FFF7C9FFC82003F062F9C9
:103E300010BD10B54FF44870CC490860322003F033
:103E400059F940F22440CB490860642003F052F94C
:103E500040F2523140F28B30FFF7A2FF40F2523174
:103E600040F2BF30FFF7AAFF10BD10B540F2BF30DF
:103E7000BF4988631E2003F03DF940F22440BD494C
:103E80000860462003F036F940F28B30B7490860ED
:103E9000642003F02FF910BD10B540F22440B5495D
:103EA000086040F2BF30B24988634FF4967003F067
:103EB00021F940F28B30AD4908604FF4FA7003F0FD
:103EC00019F94FF44870A949091D08604FF496701C
:103ED00003F010F910BD10B5A7480088A349091DCB
:103EE00008604FF4FA7003F005F9A4480088A0496F
:103EF0008863642003F0FEF8A14800889B490860AD
:103F0000642003F0F7F840F224419E480088FFF750
:103F100063FF322003F0EEF89B4800889449486321
:103F20004FF4967003F0E6F840F22440914908609F
:103F300040F2BF308E498863322003F0DBF840F254
:103F40008B308A4908604FF4FA7003F0D3F84FF4CD
:103F5000D7708649091D0860C82003F0CBF84FF4DC
:103F600016708349486310BD10B5884800887F49A2
:103F7000091D08604FF4617003F0BCF884480088A4
:103F80007B498863962003F0B5F88248008877491A
:103F90000860642003F0AEF840F224417E480088B7
:103FA000FFF71AFF322003F0A5F877480088704920
:103FB00048634FF4967003F09DF8FFF76DFF4FF4E0
:103FC00016706B49486310BD10B574480088674986
:103FD000091D08604FF4487003F08CF870480088A1
:103FE00063498863642003F085F86E4800885F4960
:103FF0000860322003F07EF840F224416A480088CD
:10400000FFF7EAFE322003F075F85F480088584950
:1040100048634FF4967003F06DF8FFF73DFF4FF4DF
:1040200016705349486310BD10B557480088504971
:104030004863514800884D49091D08604FF41670C7
:1040400003F058F84D48008849498863322003F04E
:1040500051F84B48008845490860322003F04AF87F
:1040600040F2244147480088FFF7B6FE642003F081
:1040700041F84FF439703E4948634FF4967003F0AD
:1040800039F840F2BF303A498863322003F032F801
:1040900040F2244037490860322003F02BF840F208
:1040A0008B3032490860322003F024F84FF4D77087
:1040B0002E49091D0860322003F01CF810BD10B510
:1040C000314800882A494863304800882749091D3B
:1040D00008604FF4617003F00DF82D480088244902
:1040E0008863322003F006F82A4800881F490860D8
:1040F000642002F0FFFF40F2244127480088FFF7C8
:104100006BFE322002F0F6FF4FF439701849486315
:104110004FF4967002F0EEFFFFF7BEFE10BD10B533
:1041200019480088124948631C4800880F49091D36
:1041300008604FF4617002F0DDFF194800880C49F7
:104140008863322002F0D6FF1648008807490860CD
:10415000642002F0CFFF40F2244113480088FFF7AB
:104160003BFE322002F0C6FF20E000003418004081
:1041700000400140344401407E01002078010020CD
:104180007C0100207A010020FE0000208601002032
:104190008001002084010020820100208E01002087
:1041A000880100208C0100208A0100204FF4397022
:1041B000FE4948634FF4967002F09CFFFFF76CFED7
:1041C00010BD10B54FF41670F849486340F20A402C
:1041D000F7490860642002F08DFF40F23640F5494F
:1041E00008604FF4967002F085FF4FF4D770F149E4
:1041F000091D08604FF4FA7002F07CFF40F2E240C3
:10420000EA49886310BD10B540F2FD30E949086005
:104210004FF4FA7002F06EFF4FF4E070E549091DAB
:1042200008604FF4FA7002F065FF4FF41670DF4932
:104230004863642002F05EFF4FF46170DB498863DD
:10424000C82002F057FF40F23440D949086040F2DC
:10425000C440D649886310BD10B540F2B710D549A7
:10426000091D08604FF4487002F044FF40F202213B
:1042700040F2EE20FFF786FD4FF4967002F03AFF11
:1042800040F20A40CA4908604FF4487002F032FF19
:1042900040F23640C74908604FF4487002F02AFFE8
:1042A00040F2E240C14988634FF4FA7002F022FF05
:1042B00010BD10B54FF41670BC4948634FF4E07060
:1042C000BC49091D0860142002F014FF40F2E240CE
:1042D000B6498863322002F00DFF40F21240B54922
:1042E0000860322002F006FF40F20A40B049086040
:1042F000322002F0FFFE10BD10B54FF41670AB492E
:10430000486340F2C910AB49091D086040F294406F
:10431000A6498863322002F0EDFE40F2B530A5498F
:104320000860642002F0E6FE40F20A40A0490860FE
:10433000642002F0DFFE10BD10B59F4800889D4943
:10434000091D08604FF4C87002F0D4FE9B48008835
:1043500096498863322002F0CDFE4FF448709549AB
:1043600008604FF4967002F0C5FE954800889049A9
:1043700008604FF4C87002F0BDFE40F2C6219148BB
:104380000088FFF7F1FC642002F0B4FE4FF43970AE
:1043900086494863C82002F0ADFEFFF72BFD10BD33
:1043A00010B5894800888349091D08604FF4C8701A
:1043B00002F0A0FE854800887C498863322002F024
:1043C00099FE4FF448707B4908604FF4967002F0F4
:1043D00091FE7F480088764908604FF4967002F09D
:1043E00089FE40F2C6217B480088FFF7BDFC6420AF
:1043F00002F080FE4FF43E706C494863C82002F022
:1044000079FEFFF7F7FC10BD10B5734800886949C5
:10441000091D08604FF42F7002F06CFE6F48008891
:1044200062498863322002F065FE4FF448706149AA
:1044300008604FF4967002F05DFE694800885C49A0
:1044400008604FF4967002F055FE40F2C6216548B0
:104450000088FFF789FC642002F04CFE4FF43970AD
:1044600052494863C82002F045FEFFF7C3FC10BD67
:1044700010B55D4800884F49091D08604FF49670DB
:1044800002F038FE5948008848498863C82002F085
:1044900031FE4FF4487047490860C82002F02AFEF8
:1044A0005348008842490860C82002F023FE40F2C9
:1044B0008A2150480088FFF757FC642002F01AFE5A
:1044C00010BD10B54C4800883A49091D08604FF4EA
:1044D000967002F00FFE4948008834498863C8206E
:1044E00002F008FE4FF4487032490860C82002F01C
:1044F00001FE434800882E490860C82002F0FAFDFA
:1045000040F28A213F480088FFF72EFC642002F029
:10451000F1FD10BD10B53C4800882649091D086012
:104520004FF4967002F0E6FD384800881F49886312
:104530004FF4967002F0DEFD4FF448701D4908609C
:104540004FF4967002F0D6FD314800881849086093
:10455000C82002F0CFFD40F28A212E480088FFF7E4
:1045600003FC642002F0C6FD10BD10B52A48008887
:104570001049091D08604FF4FA7002F0BBFD27488E
:1045800000880A498863322002F0B4FD4FF4487075
:1045900008490860322002F0ADFD21480088044936
:1045A0000860322002F0A6FD3CE00000004001401F
:1045B000344401403418004006010020000100206E
:1045C00002010020040100200E010020080100204B
:1045D0000A0100200C01002016010020100100201B
:1045E00012010020140100201E01002018010020EB
:1045F0001A0100201C0100202601002020010020BB
:1046000022010020240100202E010020280100208A
:104610002A0100202C01002036010020300100205A
:10462000320100204FF44871FE480088FFF79CFBE0
:10463000322002F05FFD4FF41670FB494863C8203A
:1046400002F058FDFFF7F5FB10BD10B5F7480088E4
:10465000F74908604FF4FA7002F04CFDF548008805
:10466000F1498863322002F045FD4FF44870F0496B
:10467000091F0860322002F03DFDEF480088EF4935
:104680000860322002F036FD4FF44871EC48008893
:10469000FFF76AFB322002F02DFD4FF41670E2495D
:1046A0004863C82002F026FDFFF7C3FB10BD10B51C
:1046B000E4480088DE4908604FF4167002F01AFDE5
:1046C000E1480088D8498863322002F013FD4FF496
:1046D0004870D749091F0860322002F00BFDDB4803
:1046E0000088D6490860322002F004FD4FF448717A
:1046F000D7480088FFF738FB322002F0FBFC4FF46C
:104700001670C9494863C82002F0F4FCFFF791FB1A
:1047100010BD10B5CF480088C54908604FF4167029
:1047200002F0E8FCCC480088BF498863322002F0E0
:10473000E1FC4FF44870BE49091F0860142002F0E4
:10474000D9FCC6480088BD490860322002F0D2FC7E
:104750004FF44871B3480088FFF706FB322002F09F
:10476000C9FC4FF43970B0494863C82002F0C2FC5C
:10477000FFF75FFB10BD10B5AC480088AC4908607E
:104780004FF42F7002F0B6FCAA480088A64988634F
:10479000322002F0AFFC4FF44870A549091F0860B1
:1047A000322002F0A7FCA4480088A4490860322007
:1047B00002F0A0FC4FF44871A1480088FFF7D4FA3A
:1047C000322002F097FC4FF4397097494863C820B3
:1047D00002F090FCFFF72DFB10BD10B59948008842
:1047E000934908604FF42F7002F084FC96480088CB
:1047F0008D498863322002F07DFC4FF448708C496B
:10480000091F0860322002F075FC904800888B492F
:104810000860322002F06EFC4FF448718C4800882A
:10482000FFF7A2FA322002F065FC4FF439707E499E
:104830004863C82002F05EFCFFF7FBFA4FF4D77024
:104840007B49086010BD10B585480088784908602C
:104850004FF4FA7002F04EFC824800887249886377
:10486000642002F047FC4FF448707149091F08604A
:10487000322002F03FFC7C480088704908603220FA
:1048800002F038FC4FF4487178480088FFF76CFA62
:10489000642002F02FFC4FF4167063494863C8206F
:1048A00002F028FCFFF7C5FA10BD10B5704800886B
:1048B0005F4908604FF4FA7002F01CFC6D480088F4
:1048C00059498863322002F015FC4FF4487058496A
:1048D000091F0860322002F00DFC67480088574924
:1048E0000860322002F006FC4FF4487163480088EB
:1048F000FFF73AFA322002F0FDFB4FF416704A49F6
:104900004863C82002F0F6FBFFF793FA10BD10B51C
:104910005B480088464908604FF4FA7002F0EAFBF1
:104920005848008840498863642002F0E3FB4FF454
:1049300048703F49091F0860322002F0DBFB5248F3
:1049400000883E490860322002F0D4FB4FF44871E1
:104950004E480088FFF708FA642002F0CBFB4FF4C2
:10496000167031494863C82002F0C4FBFFF761FAB2
:1049700010BD10B5464800882D4908604FF4FA7004
:1049800002F0B8FB4348008827498863322002F0D0
:10499000B1FB4FF448702649091F0860642002F0FB
:1049A000A9FB3D48008825490860322002F0A2FB9F
:1049B0004FF4487139480088FFF7D6F9642002F0B7
:1049C00099FB4FF4167018494863C82002F092FB17
:1049D000FFF710FA10BD10B531480088144908607F
:1049E0004FF4167002F086FB2E4800880E4988634B
:1049F000322002F07FFB40F2EE200D49091F0860D3
:104A0000642002F077FB284800880C490860642085
:104A100002F070FB40F2EE2124480088FFF7A4F971
:104A2000322045E034010020004001403E010020DA
:104A300038180040380100203A0100203444014079
:104A40003C010020460100204001002042010020DE
:104A500044010020360100203001002032010020F6
:104A60004E010020480100204A0100204C01002096
:104A70005601002050010020520100205401002066
:104A80005E010020580100205A0100205C01002036
:104A90006601002060010020620100206401002006
:104AA0006E010020680100206A0100206C010020D6
:104AB00002F020FB4FF416701E494863C82002F034
:104AC00019FBFFF797F910BD10B51B4800881B496B
:104AD00008604FF4FA7002F00DFB19480088154980
:104AE0008863322002F006FB4FF448701349091F17
:104AF0000860642002F0FEFA322002F0FBFA11484E
:104B0000008811490860322002F0F4FA4FF448712D
:104B10000E480088FFF728F9642002F0EBFA4FF402
:104B2000167004494863C82002F0E4FAFFF762F9FE
:104B300010BD000000400140760100203818004000
:104B400070010020720100203444014074010020F3
:104B500030B5014601F01F04C1F34513CA0AE5024E
:104B600005EB43151544A8B230BD2DE9F0470646C4
:104B70000F4690469A46002445464FEA4800C0F149
:104B800003094AE07A1991B2321990B2524600F004
:104B9000D7FE7A1991B2321B90B2524600F0D0FE85
:104BA0007A1B91B2321990B2524600F0C9FE7A1BBC
:104BB00091B2321B90B2524600F0C2FE3A1991B245
:104BC000721990B2524600F0BBFE3A1991B2721BB4
:104BD00090B2524600F0B4FE3A1B91B2721990B2F4
:104BE000524600F0ADFE3A1B91B2721B90B2524693
:104BF00000F0A6FEB9F1000F05DA042000FB0490D6
:104C000000F1060907E0601B042101FB009000F1A0
:104C10000A09681E85B2601C84B2AC42B2DBAC42A9
:104C200037D17A1991B2321990B2524600F088FE0B
:104C30007A1991B2321990B2524600F081FE7A1B75
:104C400091B2321990B2524600F07AFE7A1B91B2BC
:104C5000321B90B2524600F073FE3A1991B27219AB
:104C600090B2524600F06CFE3A1991B2721B90B2AB
:104C7000524600F065FE3A1B91B2721990B252464C
:104C800000F05EFE3A1B91B2721B90B2524600F0E9
:104C900057FEBDE8F0872DE9FF4F83B08046894677
:104CA0004946404600F042FE0598A0EB08050698EC
:104CB000A0EB0906002D02DB0120029003E04FF07B
:104CC000FF3002906D42002E02DB0120019003E0D4
:104CD0004FF0FF30019076424FEA450A4FEA460B0B
:104CE000B54219DDABEB0504002712E0494640460A
:104CF000109A00F025FE002C05DBA4EB0A040198B5
:104D000048441FFA80F95C44029840441FFA80F836
:104D10007F1CAF42EADD18E0AAEB0604002712E090
:104D200049464046109A00F00BFE002C05DBA4EB30
:104D30000B04029840441FFA80F8544401984844F8
:104D40001FFA80F97F1CB742EADD07B0BDE8F08F9B
:104D50002DE9F84305460C4616461F46DDF820802F
:104D60004EF67D700090A81982B22346214628464F
:104D7000FFF791FF42F6651004F1010CBC441FFAE5
:104D80008CF305EB060CACF1010C1FFA8CF204F16C
:104D9000010C1FFA8CF105EB060CACF1010C009034
:104DA0001FFA8CF0FFF777FF42F665100090E019CC
:104DB00083B2A81982B2E01981B22846FFF76BFFCF
:104DC0004EF67D700090E01983B22A4621462846AF
:104DD000FFF761FF04F1010CBC44ACF1020C1FFAB7
:104DE0008CF305F1010CB444ACF1020C1FFA8CF207
:104DF00004F1010C1FFA8CF105F1010C1FFA8CF083
:104E0000CDF80080FFF747FFBDE8F8832DE9F843B0
:104E100005460C4616461F46DDF82080B8F1000F07
:104E200039D14EF67D700090A81982B223462146F2
:104E30002846FFF730FF42F6651004F1010CBC4430
:104E40001FFA8CF305EB060CACF1010C1FFA8CF287
:104E500004F1010C1FFA8CF105EB060CACF1010C0E
:104E600000901FFA8CF0FFF716FF42F665100090D5
:104E7000E01983B2A81982B2E01981B22846FFF77F
:104E80000AFF4EF67D700090E01983B22A46214653
:104E90002846FFF700FFB8F1010F39D142F665103F
:104EA0000090A81982B2234621462846FFF7F3FE58
:104EB0004EF67D7004F1010CBC441FFA8CF305EB37
:104EC000060CACF1010C1FFA8CF204F1010C1FFA74
:104ED0008CF105EB060CACF1010C00901FFA8CF084
:104EE000FFF7D9FE4EF67D700090E01983B2A81945
:104EF00082B2E01981B22846FFF7CDFE42F6651076
:104F00000090E01983B22A4621462846FFF7C3FEE7
:104F1000B8F1020F39D14FF6FF700090A81982B294
:104F2000234621462846FFF7B6FE4FF6FF7004F1F0
:104F3000010CBC441FFA8CF305EB060CACF1010C20
:104F40001FFA8CF204F1010C1FFA8CF105EB060C30
:104F5000ACF1010C00901FFA8CF0FFF79CFE4FF6AD
:104F6000FF700090E01983B2A81982B2E01981B2F3
:104F70002846FFF790FE4FF6FF700090E01983B2CD
:104F80002A4621462846FFF786FEBDE8F883F8B595
:104F900004460D4616461F4644F208202B4632466C
:104FA000294600902046FFF776FE48F210406A1C22
:104FB00093B291B2621C009090B23246FFF76BFE42
:104FC00044F208203B462246294600902046FFF73F
:104FD00062FE48F21040631C9AB26B1C99B2631CCB
:104FE000009098B23B46FFF756FE4FF6FF703B46E7
:104FF0003246394600902046FFF74DFE4FF6FF70CF
:105000003B463246294600903046FFF744FEF8BD45
:10501000F8B506460F4614461D464FF6FF703B4650
:105020002246394600903046FFF735FE4FF6FF70B6
:105030002B463246394600903046FFF72CFE48F2A8
:1050400010406A1E93B291B2721C009090B2224638
:10505000FFF721FE44F208202B4622462946009005
:105060003046FFF718FE48F21040631E9AB27B1CD0
:1050700099B2631E009098B22B46FFF70CFE44F2E3
:1050800008202B462246394600902046FFF703FEB3
:10509000F8BD2DE9FF4F81B007468A469B46DDF8F3
:1050A000388050E098F800003A284ADA98F80090E2
:1050B000B9F1300F04DBA9F1300000F0FF0907E07F
:1050C000B9F12B0F02D14FF00A0901E04FF00009AE
:1050D000002531E000242BE0FA4901EBC91000EB78
:1050E0004500005D009000261EE0802030410099C0
:1050F000084050B10AEB050291B207EBC4023244FA
:1051000090B2039A00F01CFC0CE00398584509D0BB
:105110000AEB050291B207EBC402324490B25A4640
:1051200000F00EFC701CC6B2082EDEDB601CC4B2A0
:10513000022CD1DB681CC5B2402DCBDB07F113007C
:1051400087B208F1010898F800000028AAD105B03C
:10515000BDE8F08F2DE9F84F0746884693469A46FA
:10516000DDF828900097B3E099F8000080283DDA38
:1051700099F800600D2E05D1009F08F110001FFA6C
:1051800080F830E0202E03DDA6F1200086B200E09A
:105190000026002422E000251CE004EB0610CA498A
:1051A000085C80212941084040B108EB040291B21B
:1051B0007A1990B25A4600F0C3FB09E0D34507D0F4
:1051C00008EB040291B27A1990B2524600F0B8FB93
:1051D000681CC5B2082DE0DB601CC4B2102CDADB01
:1051E00007F1080087B209F1010971E0002668E0C3
:1051F00006EB0610B54911F8100099F80010884226
:105200005DD106EB0610B14901EB4000407899F8FA
:105210000110884253D100244FE0002520E006EB26
:105220000610AA4901EB4000801C10F814108020E1
:105230002841014041B108EB040291B27A1990B2C1
:105240005A4600F07DFB09E0D34507D008EB040285
:1052500091B27A1990B2524600F072FB681CC5B246
:10526000082DDCDB002524E006EB0610974901EB56
:105270004000801C012101EB4401405C8021294158
:10528000084048B108EB040291B27A19083290B292
:105290005A4600F055FB0AE0D34508D008EB04025B
:1052A00091B27A19083290B2524600F049FB681C5C
:1052B000C5B2082DD8DB601CC4B2102CADDB701C4D
:1052C00086B21E2E94DB09F1020907F1100087B2A5
:1052D00099F8000000287FF447AFBDE8F88F2DE96A
:1052E000F05F0646884693469A46DDF82890E2E04D
:1052F00099F80000802835DA99F80070202F03DD36
:10530000A7F1200087B200E00027002522E000245A
:105310001CE005EB07106C49095C8020204101402E
:1053200041B108EB050291B2321990B25A4600F031
:1053300007FB09E0D34507D008EB050291B232190B
:1053400090B2524600F0FCFA601CC4B2082CE0DBBC
:10535000681CC5B2102DDADB09F1010906F108005D
:1053600086B2A8E000279EE007EB870000EB47101D
:10537000574911F8100099F8001088427CD107EBCA
:10538000870000EB4710524901EB4000407899F844
:1053900001108842F2D1002580E0002423E007EBD1
:1053A000870000EB47104A4901EB4000801C05EBE9
:1053B0004501405C80212141084040B108EB0502D5
:1053C00091B2321990B25A4600F0BAFA09E0D345C8
:1053D00007D008EB050291B2321990B2524600F0A4
:1053E000AFFA601CC4B2082CD9DB002426E007EB1E
:1053F000870000EB4710364901EB4000801C05EBAD
:105400004501491C405C80212141084048B108EB1E
:10541000050291B23219083290B25A4600F090FA61
:105420000AE0D34508D008EB050291B232190832E0
:1054300090B2524600F084FA601CC4B2082CD6DB4D
:10544000002427E007EB870000EB4710204901EB21
:105450004000801C05EB4501891C405C80212141F6
:10546000084050B108EB050291B23219103290B2E7
:105470005A4600F065FA0BE013E0D34508D008EB7C
:10548000050291B23219103290B2524600F058FA29
:10549000601CC4B2082CD5DB681CC5B2182DFFF601
:1054A0007CAF781C87B2142FFFF65EAF09F10209BA
:1054B00006F1180086B299F8000000287FF418AFB2
:1054C000BDE8F09FADB10008BCAB00082EB70008E6
:1054D0004CBB00082DE9F05F074688469246994686
:1054E000002531E000242BE019490A9801EBC01097
:1054F00000EB850010F804B000261DE0802030414C
:1055000000EA0B0050B108EB050291B207EBC402B0
:10551000324490B2524600F013FA0BE0CA4509D06B
:1055200008EB050291B207EBC402324490B24A463E
:1055300000F006FA701CC6B2082EDFDB601CC4B295
:10554000042CD1DB681CC5B2202DCBDBBDE8F09F5D
:10555000ADB100081CB50121162004F005F84FF488
:10556000E050009002208DF8050001208DF8040025
:1055700000208DF806006946F94802F0DBFC08209F
:1055800000906946F74802F0D5FC4FF48060009027
:105590006946F54802F0CEFC1CBD0021082116E04A
:1055A00000F0800222B10822EE4B18331A8003E08B
:1055B0000822EC4B1A331A804FF48062E84B1A33FE
:1055C0001A809B1E1A804206100E4A1ED1B2002974
:1055D000E6DC704710B504464FF48050E0491A31BC
:1055E00008804010891E08802012FFF7D6FFE0B225
:1055F000FFF7D3FF4FF48050D9491831088010BD10
:1056000010B504464FF48050D5491A310880401037
:1056100008802046FFF7C1FF4FF48050D049183171
:10562000088010BD10B504464FF48050CC491A31A3
:1056300008804010891E08802046FFF7AEFF4FF417
:105640008050C7491831088010BDF0B505460C469A
:1056500016461F462A20FFF7D3FF0020FFF7E2FF80
:10566000E8B2FFF7DFFF0020FFF7DCFFB11CC8B294
:10567000FFF7D8FF2B20FFF7C3FF0020FFF7D2FF73
:10568000E0B2FFF7CFFF0020FFF7CCFF791CC8B2D4
:10569000FFF7C8FF2C20FFF7B3FFF0BD70B506463B
:1056A0009F237F2200210846FFF7CFFF2C20FFF722
:1056B000A7FF002408E0002503E03046FFF78AFF3B
:1056C0006D1CA02DF9D3641C802CF4D370BD10B5D3
:1056D0004FF48060A4494883642001F00BFD4FF42F
:1056E0008060A1490883322001F004FD10BD10B58F
:1056F000FFF730FFFFF7EBFF1120FFF781FF782066
:1057000001F0F8FCB120FFF77BFF0120FFF78AFFD3
:105710002C20FFF787FF2D20FFF784FFB220FFF733
:105720006FFF0120FFF77EFF2C20FFF77BFF2D206E
:10573000FFF778FFB320FFF763FF0120FFF772FF49
:105740002C20FFF76FFF2D20FFF76CFF0120FFF7E4
:1057500069FF2C20FFF766FF2D20FFF763FFB420C1
:10576000FFF74EFF0720FFF75DFFC020FFF748FF60
:10577000A220FFF757FF0220FFF754FF8420FFF716
:1057800051FFC120FFF73CFFC520FFF74BFFC220B0
:10579000FFF736FF0A20FFF745FF0020FFF742FF23
:1057A000C320FFF72DFF8A20FFF73CFF2A20FFF7D9
:1057B00039FFC420FFF724FF8A20FFF733FFEE20D4
:1057C000FFF730FFC520FFF71BFF0E20FFF72AFF72
:1057D0003620FFF715FFC020FFF724FFE020FFF77A
:1057E0000FFF0F20FFF71EFF1A20FFF71BFF0F20F0
:1057F000FFF718FF1820FFF715FF2F20FFF712FF04
:105800002820FFF70FFF2020FFF70CFF2220FFF7D3
:1058100009FF1F20FFF706FF1B20FFF703FF2320D0
:10582000FFF700FF3720FFF7FDFE0020FFF7FAFE2D
:105830000720FFF7F7FE0220FFF7F4FE1020FFF726
:10584000F1FEE120FFF7DCFE0F20FFF7EBFE1B204F
:10585000FFF7E8FE0F20FFF7E5FE1720FFF7E2FE57
:105860003320FFF7DFFE2C20FFF7DCFE2920FFF7B7
:10587000D9FE2E20FFF7D6FE3020FFF7D3FE3020D2
:10588000FFF7D0FE3920FFF7CDFE3F20FFF7CAFE1D
:105890000020FFF7C7FE0720FFF7C4FE0320FFF735
:1058A000C1FE1020FFF7BEFE2A20FFF7A9FE002050
:1058B000FFF7B8FE0220FFF7B5FE0020FFF7B2FEAB
:1058C0008220FFF7AFFE2B20FFF79AFE0020FFF7A4
:1058D000A9FE0320FFF7A6FE0020FFF7A3FE7B2012
:1058E000FFF7A0FEF020FFF78BFE0120FFF79AFEE6
:1058F000F620FFF785FE0020FFF794FE3A20FFF721
:105900007FFE0520FFF78EFE2920FFF779FE4EF679
:105910007D70FFF7C3FE10BD30B505460C46284626
:10592000FFF76EFE2046FFF77DFE30BD30B5044622
:105930000D462B46224629462046FFF786FE30BDFF
:1059400070B504460D461646681C83B2601C82B2D0
:1059500029462046FFF779FE3046FFF73BFE70BD33
:1059600000040240000802400010024060B50546F5
:105970000E4631462846FFF7D9FFE0B2FFF752FE48
:10598000204660BD2DE9F04704460E4617461D46E9
:10599000DDF820A07019401E83B2E019401E82B2CB
:1059A00031462046FFF751FE2C20FFF729FEA04686
:1059B0000BE0A94604E05046FFF70CFE09F101098F
:1059C00070194845F7D808F10108E0194045F0D8AA
:1059D000BDE8F0870146022906D003290DD004292D
:1059E00012D005291ED116E04FF08042526A10B243
:1059F00000224FF080435A6216E00C4A126810B23F
:105A000000220A4B1A600FE0094A126810B2002205
:105A1000074B1A6008E0074A126810B20022054BD3
:105A20001A6001E0002000BF00BF7047240400405E
:105A300024080040240C00401CB501217F2003F005
:105A400093FD00208DF8040001208DF80700C002AE
:105A500000906946F84802F06DFA512000906946BE
:105A6000F64802F067FA4FF4607000906946F44817
:105A700002F060FA4FF4604000906946F14802F08D
:105A800059FA4AF6032000906946EF4802F052FAAC
:105A90001CBD10B54FF40051EB4802F0ADFA4FF4C5
:105AA0007A7110FB01F44FF40041E74802F0A4FAC8
:105AB00000EBC00101EB001004EB80044FF4006127
:105AC000E14802F099FA00EB800004EB40044FF447
:105AD0000071DD4802F090FA204480B210BD10B58C
