:020000040800F2
:10000000880700204D310008D1040008D3040008FF
:10001000D7040008DB040008DF040008000000002B
:10002000000000000000000000000000E3040008E1
:10003000E504000800000000E7040008E9040008E7
:100040006731000867310008673100086731000830
:100050006731000867310008673100086731000820
:100060006731000867310008673100086731000810
:100070006731000867310008673100086731000800
:1000800067310008673100086731000867310008F0
:1000900067310008673100086731000867310008E0
:1000A00067310008673100086731000867310008D0
:1000B000532C0008192D0008E72D000867310008AF
:1000C00067310008673100086731000867310008B0
:1000D00067310008012B000867310008673100080C
:1000E0006731000867310008673100086731000890
:1000F0006731000867310008673100086731000880
:100100006731000867310008B32E00086731000826
:100110006731000867310008E5110008932F0008D7
:10012000673100086731000867310008673100084F
:10013000673100086731000867310008673100083F
:10014000673100086731000867310008673100082F
:10015000673100086731000867310008673100081F
:10016000673100086731000867310008673100080F
:1001700067310008673100086731000867310008FF
:10018000673100086731000800F002F800F04FF80E
:100190000AA090E8000C82448344AAF10107DA45E2
:1001A00001D100F044F8AFF2090EBAE80F0013F0E5
:1001B000010F18BFFB1A43F00103184764780000D1
:1001C00084780000103A24BF78C878C1FAD8520762
:1001D00024BF30C830C144BF04680C6070470000C1
:1001E0000023002400250026103A28BF78C1FBD840
:1001F000520728BF30C148BF0B607047662905F021
:10020000C386642904F04885782904F0818500209C
:1002100070471FB505F0B3FE05F0CAF804000020D2
:10022000002105F01FFEE0601FBD10B510BD05F0F8
:10023000C3F91146FFF7EDFF00F008F805F0E1F90A
:1002400003B4FFF7F2FF03BC02F0F6FB08B54FF46E
:10025000A06002F09BFFA82002F06CFB4FF4E1309D
:1002600002F0F8FB01F023FE01F0A0FF02F04CF9D0
:10027000532140F2F31002F0E5FE02F08BFC02F095
:10028000F7FC02F059FD02F0BDFD42F2CF019620CD
:1002900002F01EFE42F2CF014FF4FA6002F04AFE75
:1002A00002F007FA79A004F0D7FCEDE07A48007874
:1002B000012822D179487A49096801600078794992
:1002C00008700846017878A004F0C6FC4EF67D70F0
:1002D00001F0C4FD7348027877A1784804F0C8FCA7
:1002E00076484EF67D734FF47842502100903C20C2
:1002F00001F011FB0020684908706A480078262840
:1003000070D2DFE800F013191F252B31373D43472A
:10031000AEAEAEAEAEAE4B51575F67707880888997
:10032000AEAEAEAEAEAE8A8B959FA4A90020644956
:10033000087002F086F995E000206149087002F02B
:100340008EF98FE000205E49087002F0A4F989E080
:1003500000205B49087002F090F983E000205849C2
:10036000087002F0C2F97DE000205549087002F0E3
:10037000AEF977E000205249087002F0C4F971E04C
:1003800000204F49087002F0CCF96BE00A2002F01F
:10039000E4F967E00A2002F0FAF963E00020484936
:1003A000087002F086F95DE000204549087002F00F
:1003B00080F957E001F001F802F08CF80120404983
:1003C00008704FE000F0F9FF02F084F802203C4989
:1003D000087047E000F0F1FF02F07CF80320384994
:1003E00008703FE03DE000F0E8FF02F073F8042001
:1003F0003349087036E000F0E0FF02F06BF80520AA
:100400002F4908702EE000F0D8FF02F063F80620B4
:100410002B49087026E025E024E023E0294890EDF0
:10042000000AF2EE040A30EE200A80ED000A19E01C
:10043000244890ED000AF2EE040A30EE600A80EDE6
:10044000000A0FE03321204803F074F90AE0342158
:100450001D4803F06FF905E035211B4803F06AF9E8
:1004600000E000BF00BF64200E490870174CA4894B
:10047000A3B2164C2489A2B2144CA488A1B2134C86
:100480002488A0B202F09DF910E70000B3F5CABCC1
:10049000BBAFCDEAB3C90A00160000200600002059
:1004A0000200002014000020CAD5B5BD7531D6B8B1
:1004B000C1EEA3BA257800002564000017000020D3
:1004C000D400002078000020004C0040E000002014
:1004D000704700BFFEE700BFFEE700BFFEE700BFBA
:1004E000FEE7704770477047704700000CB500206A
:1004F000019000907648006840F4803074490860AC
:1005000000BF7348006800F4003000900198401C60
:100510000190009818B90198B0F5A04FF1D16C483E
:10052000006800F4003010B10120009001E00020CC
:1005300000900098012846D165484030006840F09E
:1005400080506349403108606248006840F4404090
:10055000604908605E48083000685D4908310860FD
:100560000846006840F4004008600846006840F40F
:10057000A05008605848091F0860081F006840F034
:100580008070091F086000BF5148006800F00070CB
:100590000028F9D040F20570504908604C480830F6
:1005A000006820F003004A490831086008460068E6
:1005B00040F00200086000BF45480830006800F0C5
:1005C0000C000828F8D10CBD10B54548006840F46F
:1005D0007000434908603E48006840F001003C4913
:1005E000086000203A4908310860394800683D49F0
:1005F0000840374908603C48091D0860081F00682A
:1006000020F48020091F0860002031490C31086067
:10061000FFF76CFF4FF0006031498039086010BD72
:1006200070B500200022022300240221284D083545
:100630002D6805F00C0020B1042806D0082834D11C
:1006400007E02A4D2A4E356033E02A4D284E3560AA
:100650002FE01F4D2D1D2D68C5F380541C4D2D1D01
:100660002D6805F03F0154B1224DB5FBF1F5184E50
:10067000361D3668C6F3881605FB06F209E01B4DE9
:10068000B5FBF1F5124E361D3668C6F3881605FB2C
:1006900006F20F4D2D1D2D68C5F301456D1C6B0035
:1006A000B2FBF3F5124E356003E0104D104E35608D
:1006B00000BF00BF064D08352D68C5F303150E4E6B
:1006C000705D0B4D2D68C540094E356070BD000052
:1006D000003802400070004008544007003C0240CF
:1006E00088ED00E0FFFFF6FE103000240024F40047
:1006F0001C00002000127A0020000020F0EE400ACA
:10070000EB49097801EE901AF8EE611A70EEE11AE1
:10071000B0EE610AE749D1ED001A70EE611AB0EE51
:10072000611AE549D1ED001AB7EE002A71EE821A7E
:10073000C1ED001AB3EE0E2AF4EEC21AF1EE10FA71
:1007400030DDDFEDDE1AC1ED001ADD49D1ED001A12
:1007500071EE801AC1ED001AD1ED001A9FEDD92A71
:10076000F4EEC21AF1EE10FA03D2DFEDD61AC1EDA3
:10077000001AD349D1ED001A9FEDD32AF4EEC21A24
:10078000F1EE10FA03DDDFEDD01AC1ED001ACC490D
:10079000D1ED001ACD4991ED002A61EE821ACC49C3
:1007A000C1ED001ACB49D1ED001A21EE802ADFED10
:1007B000CA2AC2EE221AC94991ED002A22EE012A64
:1007C000F2EE042A82EE223A71EE831AC04991EDCC
:1007D000002A71EE821AFDEEE11A11EE900AB54977
:1007E00081ED000A7047F0EE400AB149097801EE48
:1007F000901AF8EE611A70EEE11AB0EE610AB8498B
:10080000D1ED001A70EE611AB0EE611AB549D1ED62
:10081000001AB7EE002A71EE821AC1ED001AB3EE8B
:100820000E2AF4EEC21AF1EE10FA30DDDFEDA31A53
:10083000C1ED001AAC49D1ED001A71EE801AC1ED7C
:10084000001AD1ED001A9FED9F2AF4EEC21AF1EEC4
:1008500010FA03D2DFED9B1AC1ED001AA249D1EDC7
:10086000001A9FED992AF4EEC21AF1EE10FA03DD98
:10087000DFED951AC1ED001A9B49D1ED001A9B4995
:1008800091ED002A61EE821A9949C1ED001A994949
:10089000D1ED001A21EE802ADFED8F2AC2EE221A56
:1008A000954991ED002A22EE012AF2EE042A82EE09
:1008B000223A71EE831A8E4991ED002A71EE821A66
:1008C000FDEEE11A11EE900A854981ED000A7047AC
:1008D000F0EE400A8949D1ED001A70EEE11AB0EE4F
:1008E000610A8749D1ED001A70EE611AB0EE611A03
:1008F0008449D1ED001A844991ED002A61EE821AF3
:100900008249C1ED001A8249D1ED001A21EE802AF8
:10091000F2EE042AC2EE221A7E4991ED002A22EE5E
:10092000012AF2EE042A82EE223A71EE831A774906
:1009300091ED002A71EE821AFDEEE11A11EE900A95
:100940006F4981ED000A7047F0EE400A6B49D1ED26
:10095000001A70EEE11AB0EE610A6F49D1ED001A8B
:1009600070EE611AB0EE611A6C49D1ED001A6C4953
:1009700091ED002A61EE821A6A49C1ED001A6A49B6
:10098000D1ED001A21EE802ADFED532AC2EE221AA1
:10099000664991ED002A22EE012AF2EE042A82EE47
:1009A000223A71EE831A5F4991ED002A71EE821AA4
:1009B000FDEEE11A11EE900A574981ED000A7047E9
:1009C000F0EE400A4D49D1ED001A70EEE11AB0EE9A
:1009D000610A5749D1ED001A70EE611AB0EE611A42
:1009E0005449D1ED001A544991ED002A61EE821A62
:1009F0005249C1ED001A5249D1ED001A21EE802A68
:100A0000DFED352AC2EE221A4E4991ED002A22EE80
:100A1000012AF2EE042A82EE223A71EE831A474945
:100A200091ED002A71EE821AFDEEE11A11EE900AA4
:100A30003F4981ED000A7047F0EE400A2F49D1EDA1
:100A4000001A70EEE11AB0EE610A3F49D1ED001ACA
:100A500070EE611AB0EE611A3C49D1ED001A3C49C2
:100A600091ED002A61EE821A3A49C1ED001A3A4925
:100A7000D1ED001A21EE802ADFED172AC2EE221AEC
:100A8000364991ED002A22EE012AF2EE042A82EE86
:100A9000223A71EE831A2F4991ED002A71EE821AE3
:100AA000FDEEE11A11EE900A274981ED000A704728
:100AB0008000002084000020900000200000000042
:100AC000880000200000FAC30000FA433400002030
:100AD0008C000020300000200000C84238000020B8
:100AE00094000020A000002098000020400000207A
:100AF0009C0000203C0000204400002078000020E2
:100B0000A4000020A80000204C000020AC00002021
:100B10004800002050000020B0000020B400002059
:100B200058000020B8000020540000205C00002085
:100B3000BC000020C000002064000020C400002091
:100B40006000002068000020C8000020CC000020C9
:100B500070000020D00000206C00002074000020F5
:100B600010B501F099FBFE49088001F0CBFBFD496F
:100B70000880FD48007848B901F063FD0020FB497A
:100B800008700120FA490870F749087001F007FC65
:100B9000F448008840F2E931884206D1F2480078F2
:100BA000012802D10220F0490870EE48008840F286
:100BB0005641884206D1EC480078022802D1032031
:100BC000E9490870E748008840F2E931884206D1D7
:100BD000E5480078032802D10420E3490870E14881
:100BE000008840F25641884206D1DF480078042848
:100BF00002D10520DC490870DA48008840F2E9316A
:100C000088420ED1D848007805280AD101F035FD78
:100C10000120D64908700420D54908700620D24921
:100C20000870CF48008840F2E931884206D1CE48AA
:100C30000078062802D10720CB490870C8480088F0
:100C400040F25641884206D1C7480078072802D1B1
:100C50000820C5490870C248008840F2E93188423E
:100C600006D1C1480078082802D10920BE49087081
:100C7000BB48008840F25641884206D1BA48007805
:100C8000092802D10A20B8490870B548008840F206
:100C9000E93188420DD1B44800780A2809D101F021
:100CA00008FD01F017FC0020B24908700B20AE4986
:100CB000087010BD10B501F0EFFAA949088001F0E5
:100CC00021FBA8490880A848007850B901F0C7FC6A
:100CD0000020A64908700220A54908700120A249F9
:100CE000087001F05CFB9F48008840F2E9318842BF
:100CF0000ED19D48007801280AD101F0CCFC0120DA
:100D00009A49087003209A49087002209649087091
:100D10009348008840F2E931884206D19248007831
:100D2000022802D10320904908708D48008840F2C3
:100D30005641884206D18C480078032802D104200D
:100D4000894908708648008840F2E931884206D116
:100D500085480078042802D105208349087080481E
:100D6000008840F25641884206D17F480078052825
:100D700002D106207C4908707948008840F2E931A8
:100D800088420ED17848007806280AD101F067FC25
:100D900000207649087002207549087007207249C2
:100DA00008707048008840F2E931884206D16E48E8
:100DB0000078072802D108206B490870694800882C
:100DC00040F25641884206D167480078082802D18F
:100DD0000920654908706348008840F2E93188427B
:100DE00006D161480078092802D10A205E490870BE
:100DF0005C48008840F25641884206D15A48007843
:100E00000A2802D10B20584908705648008840F241
:100E1000E93188420DD1544800780B2809D101F0FE
:100E200048FC01F057FB0020524908700C204E4945
:100E3000087010BD10B501F02FFA4949088001F083
:100E400061FA484908804848007850B901F007FC29
:100E50000020464908700220454908700120424997
:100E6000087001F09CFA3F48008840F2E93188425E
:100E70000ED13D48007801280AD101F0FEFB012087
:100E80003A49087004203A4908700220364908702F
:100E90003348008840F2E931884206D13248007870
:100EA000022802D10320304908702D48008840F202
:100EB0005641884206D12C480078032802D10420EC
:100EC000294908702648008840F2E931884206D155
:100ED00025480078042802D10520234908702048BD
:100EE000008840F25641884206D11F480078052804
:100EF00002D106201C4908701A48008888B91A488F
:100F0000007806280DD107201749087001F0D1FBA1
:100F100001F0E0FA3421184802F00CFC00201549D9
:100F2000087010BD10B501F0B7F90D49088001F047
:100F3000E9F90C4908800C48007850B901F0ABFB86
:100F400001200A4908700320094908700120064958
:100F5000087001F024FA0248008840F2E9310DE0FF
:100F6000D8000020DA000020D5000020DC0000209E
:100F7000DD000020D4000020004C0040884206D153
:100F8000FE480078012802D10220FC490870FC4884
:100F9000008840F25641884206D1F848007802287D
:100FA00002D10320F5490870F548008840F2E93184
:100FB000884206D1F1480078032802D10420EF4985
:100FC0000870EF48008840F25641884206D1EB484D
:100FD0000078042802D10520E8490870E848008814
:100FE00040F2E931884212D1E448007805280ED158
:100FF0000620E249087040F6B83001F0C8FB01F065
:1010000020FB0020DF4908700120DF490870DC4820
:101010000088A8B9D9480078062811D10720D749F7
:10102000087001F046FB01F055FA3321D74802F071
:1010300081FB40F6B83001F090FB0020D4490870E5
:1010400010BD10B501F028F9CD49088001F05AF91A
:10105000D0490880C948007808B901F01CFBC8488D
:10106000008840F2E93188420CD1C448007848B980
:1010700001F0E7FA0020C34908700120C249087056
:10108000BE49087001F08BF9C248008840F2E9318E
:10109000884206D1B9480078012802D10220B74918
:1010A0000870BC48008840F25641884206D1B348D7
:1010B0000078022802D10320B0490870B5480088A2
:1010C00040F2E931884206D1AC480078032802D1C9
:1010D0000420AA490870AF48008840F2564188426F
:1010E00006D1A6480078042802D10520A34908703B
:1010F000A848008840F2E931884206D19F4800782C
:10110000052802D106209D490870A248008840F2B7
:101110005641884206D199480078062802D1072016
:10112000964908709B48008840F2E931884203D014
:1011300098480088092812D19048007807280ED1D5
:1011400008208E49087040F6B83001F020FB01F00D
:1011500094FA01208B49087004208B4908708D484F
:101160000088A8B985480078082811D1092083494A
:10117000087001F09EFA01F0ADF940F6B83001F0C8
:10118000ECFA3221814802F0D5FA0020804908703B
:1011900010BD10B5022000F0D5FF7F490860032084
:1011A00000F0D0FF7C494860042000F0CBFF7A4972
:1011B0008860052000F0C6FF7749C860002001F074
:1011C000C0F97548D0ED000AF8EEE00AB0EE600A0A
:1011D000FFF77EFB041E01DB204600E060426F4902
:1011E000086010BD10B501216D4803F018F910B367
:1011F00067480078072818D2DFE800F00405080BDC
:101200000E11140012E0FFF7C4FF0FE0FFF719FF03
:101210000CE0FFF787FE09E0FFF70CFE06E0FFF7A2
:1012200049FD03E0FFF79CFC00E000BF00BF012187
:101230005B4803F005F910BD10B501F02DF85049D9
:10124000088001F05FF8534908804C48007850B995
:1012500001F005FA00204B49087002204A49087045
:1012600001204649087001F09AF84A48008840F287
:10127000E931884206D141480078012802D1022094
:101280003E4908704348008840F25641884206D1E2
:101290003A480078022802D10320384908703D48B6
:1012A000008840F2E931884206D1344800780328AA
:1012B00002D10420314908703648008840F2564176
:1012C000884206D12D480078042802D105202B49F8
:1012D00008703048008840F2E93188420ED1274832
:1012E000007805280AD101F0C8F9012025490870C5
:1012F00004202549087006202049087020480088ED
:1013000040F2E931884206D11C480078072802D112
:1013100008201A4908701A48008840F2564188424D
:1013200006D116480078082802D109201349087010
:101330001348008840F2E931884206D10F4800780E
:10134000092802D10A200D4908700D48008840F292
:101350005641884206D1094800780A2802D10B205C
:10136000064908700648008840F2E931884223D1D6
:10137000024800780B281FD114E00000D50000209F
:10138000D8000020DC000020DD000020004C0040E0
:10139000D4000020DA00002014010020E00000202A
:1013A0000010004001F085F901F094F80020064992
:1013B00008700C200549087010BD00200349087012
:1013C0000A20034908707047D4000020D50000208F
:1013D000D600002030B5014601F01F04C1F34513CB
:1013E000CA0AE50205EB43151544A8B230BD2DE944
:1013F000F04706460F4690469A46002445464FEA77
:101400004800C0F103094AE07A1991B2321990B24A
:10141000524600F075FE7A1991B2321B90B25246D4
:1014200000F06EFE7A1B91B2321990B2524600F073
:1014300067FE7A1B91B2321B90B2524600F060FEFA
:101440003A1991B2721990B2524600F059FE3A1907
:1014500091B2721B90B2524600F052FE3A1B91B20A
:10146000721990B2524600F04BFE3A1B91B2721BB9
:1014700090B2524600F044FEB9F1000F05DA0420A4
:1014800000FB049000F1060907E0601B042101FB4A
:10149000009000F10A09681E85B2601C84B2AC425B
:1014A000B2DBAC4237D17A1991B2321990B25246BE
:1014B00000F026FE7A1991B2321990B2524600F02D
:1014C0001FFE7A1B91B2321990B2524600F018FEFC
:1014D0007A1B91B2321B90B2524600F011FE3A19BB
:1014E00091B2721990B2524600F00AFE3A1991B2C6
:1014F000721B90B2524600F003FE3A1B91B2721971
:1015000090B2524600F0FCFD3A1B91B2721B90B2B1
:10151000524600F0F5FDBDE8F0872DE9FF4F83B09E
:10152000804689464946404600F0E0FD0598A0EB1C
:1015300008050698A0EB0906002D02DB01200290A9
:1015400003E04FF0FF3002906D42002E02DB0120DD
:10155000019003E04FF0FF30019076424FEA450AD8
:101560004FEA460BB54219DDABEB0504002712E04C
:1015700049464046109A00F0C3FD002C05DBA4EB61
:101580000A04019848441FFA80F95C4402984044D8
:101590001FFA80F87F1CAF42EADD18E0AAEB0604D0
:1015A000002712E049464046109A00F0A9FD002CA1
:1015B00005DBA4EB0B04029840441FFA80F8544466
:1015C000019848441FFA80F97F1CB742EADD07B052
:1015D000BDE8F08F2DE9F84305460C4616461F4638
:1015E000DDF820804EF67D700090A81982B2234667
:1015F00021462846FFF791FF42F6651004F1010CE1
:10160000BC441FFA8CF305EB060CACF1010C1FFA7D
:101610008CF204F1010C1FFA8CF105EB060CACF115
:10162000010C00901FFA8CF0FFF777FF42F665106F
:101630000090E01983B2A81982B2E01981B228465D
:10164000FFF76BFF4EF67D700090E01983B22A46DB
:1016500021462846FFF761FF04F1010CBC44ACF1C0
:10166000020C1FFA8CF305F1010CB444ACF1020C2E
:101670001FFA8CF204F1010C1FFA8CF105F1010C38
:101680001FFA8CF0CDF80080FFF747FFBDE8F88324
:101690002DE9F84305460C4616461F46DDF8208026
:1016A000B8F1000F39D14EF67D700090A81982B2C2
:1016B000234621462846FFF730FF42F6651004F125
:1016C000010CBC441FFA8CF305EB060CACF1010CC9
:1016D0001FFA8CF204F1010C1FFA8CF105EB060CD9
:1016E000ACF1010C00901FFA8CF0FFF716FF42F6E8
:1016F00065100090E01983B2A81982B2E01981B296
:101700002846FFF70AFF4EF67D700090E01983B27D
:101710002A4621462846FFF700FFB8F1010F39D1CC
:1017200042F665100090A81982B223462146284649
:10173000FFF7F3FE4EF67D7004F1010CBC441FFA76
:101740008CF305EB060CACF1010C1FFA8CF204F1E2
:10175000010C1FFA8CF105EB060CACF1010C0090AA
:101760001FFA8CF0FFF7D9FE4EF67D700090E0195D
:1017700083B2A81982B2E01981B22846FFF7CDFEE4
:1017800042F665100090E01983B22A4621462846A9
:10179000FFF7C3FEB8F1020F39D14FF6FF7000908A
:1017A000A81982B2234621462846FFF7B6FE4FF617
:1017B000FF7004F1010CBC441FFA8CF305EB060C1E
:1017C000ACF1010C1FFA8CF204F1010C1FFA8CF140
:1017D00005EB060CACF1010C00901FFA8CF0FFF742
:1017E0009CFE4FF6FF700090E01983B2A81982B2F8
:1017F000E01981B22846FFF790FE4FF6FF70009087
:10180000E01983B22A4621462846FFF786FEBDE846
:10181000F883F8B504460D4616461F4644F20820E4
:101820002B463246294600902046FFF776FE48F2C6
:1018300010406A1C93B291B2621C009090B2324682
:10184000FFF76BFE44F208203B46224629460090F3
:101850002046FFF762FE48F21040631C9AB26B1CF0
:1018600099B2631C009098B23B46FFF756FE4FF6C4
:10187000FF703B463246394600902046FFF74DFE4A
:101880004FF6FF703B463246294600903046FFF740
:1018900044FEF8BDF8B506460F4614461D464FF601
:1018A000FF703B462246394600903046FFF735FE32
:1018B0004FF6FF702B463246394600903046FFF710
:1018C0002CFE48F210406A1E93B291B2721C009036
:1018D00090B22246FFF721FE44F208202B46224612
:1018E000294600903046FFF718FE48F21040631E6C
:1018F0009AB27B1C99B2631E009098B22B46FFF7F8
:101900000CFE44F208202B46224639460090204621
:10191000FFF703FEF8BD2DE9F84F074688469346CA
:101920009A46DDF828900097B3E099F800008028E7
:101930003DDA99F800600D2E05D1009F08F11000E6
:101940001FFA80F830E0202E03DDA6F1200086B2D9
:1019500000E00026002422E000251CE004EB061035
:10196000E849085C80212941084040B108EB0402A5
:1019700091B27A1990B25A4600F0C2FB09E0D34501
:1019800007D008EB040291B27A1990B2524600F0E7
:10199000B7FB681CC5B2082DE0DB601CC4B2102C7C
:1019A000DADB07F1080087B209F1010971E00026CE
:1019B00068E006EB0610D44911F8100099F8001001
:1019C00088425DD106EB0610CF4901EB400040781C
:1019D00099F80110884253D100244FE0002520E0FF
:1019E00006EB0610C84901EB4000801C10F81410EB
:1019F00080202841014041B108EB040291B27A19DC
:101A000090B25A4600F07CFB09E0D34507D008EBC2
:101A1000040291B27A1990B2524600F071FB681C30
:101A2000C5B2082DDCDB002524E006EB0610B64924
:101A300001EB4000801C012101EB4401405C80214E
:101A40002941084048B108EB040291B27A190832E2
:101A500090B25A4600F054FB0AE0D34508D008EB98
:101A6000040291B27A19083290B2524600F048FB53
:101A7000681CC5B2082DD8DB601CC4B2102CADDBCD
:101A8000701C86B2322E94DB09F1020907F11000B6
:101A900087B299F8000000287FF447AFBDE8F88FBF
:101AA0002DE9F05F0646884693469A46DDF8289071
:101AB000E2E099F80000802835DA99F80070202FCC
:101AC00003DDA7F1200087B200E00027002522E017
:101AD00000241CE005EB07108A49095C80202041A6
:101AE000014041B108EB050291B2321990B25A4659
:101AF00000F006FB09E0D34507D008EB050291B2E0
:101B0000321990B2524600F0FBFA601CC4B2082CA5
:101B1000E0DB681CC5B2102DDADB09F1010906F122
:101B2000080086B2A8E000279EE007EB870000EBE4
:101B30004710764911F8100099F8001088427CD1BE
:101B400007EB870000EB4710704901EB400040783D
:101B500099F801108842F2D1002580E0002423E0AA
:101B600007EB870000EB4710684901EB4000801C41
:101B700005EB4501405C80212141084040B108EB64
:101B8000050291B2321990B25A4600F0B9FA09E052
:101B9000D34507D008EB050291B2321990B25246F4
:101BA00000F0AEFA601CC4B2082CD9DB002426E099
:101BB00007EB870000EB4710544901EB4000801C05
:101BC00005EB4501491C405C80212141084048B19A
:101BD00008EB050291B23219083290B25A4600F071
:101BE0008FFA0AE0D34508D008EB050291B232190A
:101BF000083290B2524600F083FA601CC4B2082C3E
:101C0000D6DB002427E007EB870000EB47103F49B5
:101C100001EB4000801C05EB4501891C405C8021E4
:101C20002141084050B108EB050291B2321910323F
:101C300090B25A4600F064FA0BE013E0D34508D0A6
:101C400008EB050291B23219103290B2524600F000
:101C500057FA601CC4B2082CD5DB681CC5B2182D1D
:101C6000FFF67CAF781C87B2142FFFF65EAF09F148
:101C7000020906F1180086B299F8000000287FF4E6
:101C800018AFBDE8F09F2DE9F05F07468846924601
:101C90009946002531E000242BE01D490A9801EB0C
:101CA000C01000EB850010F804B000261DE0802075
:101CB000304100EA0B0050B108EB050291B207EB8E
:101CC000C402324490B2524600F01AFA0BE0CA4500
:101CD00009D008EB050291B207EBC402324490B27E
:101CE0004A4600F00DFA701CC6B2082EDFDB601CFD
:101CF000C4B2042CD1DB681CC5B2202DCBDBBDE8FF
:101D0000F09F00008C5F0008FE6C0008E67300087E
:101D10007D6500081CB50121162002F047FE4FF436
:101D2000E050009002208DF8050001208DF804009D
:101D300000208DF806006946F94801F01DFB0820D7
:101D400000906946F74801F017FB4FF4806000905F
:101D50006946F54801F010FB1CBD0021082116E082
:101D600000F0800222B10822EE4B18331A8003E003
:101D70000822EC4B1A331A804FF48062E84B1A3376
:101D80001A809B1E1A804206100E4A1ED1B20029EC
:101D9000E6DC704710B504464FF48050E0491A3134
:101DA00008804010891E08802012FFF7D6FFE0B29D
:101DB000FFF7D3FF4FF48050D9491831088010BD88
:101DC00010B504464FF48050D5491A3108804010B0
:101DD00008802046FFF7C1FF4FF48050D0491831EA
:101DE000088010BD10B504464FF48050CC491A311C
:101DF00008804010891E08802046FFF7AEFF4FF490
:101E00008050C7491831088010BDF0B505460C4612
:101E100016461F462A20FFF7D3FF0020FFF7E2FFF8
:101E2000E8B2FFF7DFFF0020FFF7DCFFB11CC8B20C
:101E3000FFF7D8FF2B20FFF7C3FF0020FFF7D2FFEB
:101E4000E0B2FFF7CFFF0020FFF7CCFF791CC8B24C
:101E5000FFF7C8FF2C20FFF7B3FFF0BD70B50646B3
:101E60009F237F2200210846FFF7CFFF2C20FFF79A
:101E7000A7FF002408E0002503E03046FFF78AFFB3
:101E80006D1CA02DF9D3641C802CF4D370BD10B54B
:101E90004FF48060A4494883642000F0ADFD4FF406
:101EA0008060A1490883322000F0A6FD10BD10B566
:101EB000FFF730FFFFF7EBFF1120FFF781FF7820DE
:101EC00000F09AFDB120FFF77BFF0120FFF78AFFAA
:101ED0002C20FFF787FF2D20FFF784FFB220FFF7AC
:101EE0006FFF0120FFF77EFF2C20FFF77BFF2D20E7
:101EF000FFF778FFB320FFF763FF0120FFF772FFC2
:101F00002C20FFF76FFF2D20FFF76CFF0120FFF75C
:101F100069FF2C20FFF766FF2D20FFF763FFB42039
:101F2000FFF74EFF0720FFF75DFFC020FFF748FFD8
:101F3000A220FFF757FF0220FFF754FF8420FFF78E
:101F400051FFC120FFF73CFFC520FFF74BFFC22028
:101F5000FFF736FF0A20FFF745FF0020FFF742FF9B
:101F6000C320FFF72DFF8A20FFF73CFF2A20FFF751
:101F700039FFC420FFF724FF8A20FFF733FFEE204C
:101F8000FFF730FFC520FFF71BFF0E20FFF72AFFEA
:101F90003620FFF715FFC020FFF724FFE020FFF7F2
:101FA0000FFF0F20FFF71EFF1A20FFF71BFF0F2068
:101FB000FFF718FF1820FFF715FF2F20FFF712FF7C
:101FC0002820FFF70FFF2020FFF70CFF2220FFF74C
:101FD00009FF1F20FFF706FF1B20FFF703FF232049
:101FE000FFF700FF3720FFF7FDFE0020FFF7FAFEA6
:101FF0000720FFF7F7FE0220FFF7F4FE1020FFF79F
:10200000F1FEE120FFF7DCFE0F20FFF7EBFE1B20C7
:10201000FFF7E8FE0F20FFF7E5FE1720FFF7E2FECF
:102020003320FFF7DFFE2C20FFF7DCFE2920FFF72F
:10203000D9FE2E20FFF7D6FE3020FFF7D3FE30204A
:10204000FFF7D0FE3920FFF7CDFE3F20FFF7CAFE95
:102050000020FFF7C7FE0720FFF7C4FE0320FFF7AD
:10206000C1FE1020FFF7BEFE2A20FFF7A9FE0020C8
:10207000FFF7B8FE0220FFF7B5FE0020FFF7B2FE23
:102080008220FFF7AFFE2B20FFF79AFE0020FFF71C
:10209000A9FE0320FFF7A6FE0020FFF7A3FE7B208A
:1020A000FFF7A0FEF020FFF78BFE0120FFF79AFE5E
:1020B000F620FFF785FE0020FFF794FE3A20FFF799
:1020C0007FFE0520FFF78EFE2920FFF779FE4EF6F2
:1020D0007D70FFF7C3FE10BD30B505460C4628469F
:1020E000FFF76EFE2046FFF77DFE30BD30B504469B
:1020F0000D462B46224629462046FFF786FE30BD78
:1021000070B504460D461646681C83B2601C82B248
:1021100029462046FFF779FE3046FFF73BFE70BDAB
:1021200000040240000802400010024060B505466D
:102130000E4631462846FFF7D9FFE0B2FFF752FEC0
:10214000204660BD0146022906D003290DD004298E
:1021500013D005291FD117E04FF08042526A10B208
:1021600000224FF080435A6217E00D4A126812B203
:10217000504200220A4B1A600FE00A4A126810B25D
:102180000022084B1A6008E0074A126810B20022C9
:10219000054B1A6001E0002000BF00BF704700003F
:1021A0002404004024080040240C00401CB50121F8
:1021B0004C2002F0FBFB4FF42A40009000208DF8E9
:1021C000040001208DF807006946C54801F0D4F8E5
:1021D000512000906946C34801F0CEF84FF40060EA
:1021E00000906946C04801F0C7F81CBD1CB54FF40B
:1021F0000051BB4801F022F98DF800004FF4004176
:10220000B74801F01BF98DF801004FF40061B448A4
:1022100001F014F98DF802004FF40071B04801F09C
:102220000DF98DF803001021AE4801F007F98DF883
:1022300004004021AB4801F001F98DF805000121AF
:10224000A84801F0FBF88DF806004FF40061A6489D
:1022500001F0F4F88DF80700A4A002F0FDFC0024C2
:1022600006E01DF80410A3A002F0F6FC601CC4B246
:10227000032CF6DDA0A002F0EFFC042406E01DF81C
:1022800004109CA002F0E8FC601CC4B2072CF6DD30
:102290009AA002F0E1FC1CBD08B54FF40051904833
:1022A00001F0CCF88DF800004FF400418C4801F0AB
:1022B000C5F88DF801004FF40061894801F0BEF8BF
:1022C0008DF802004FF40071854801F0B7F88DF8E1
:1022D00003009DF800004FF47A7110FB01F09DF8A7
:1022E000011001EBC10202EB011100EB81009DF82E
:1022F000021001EB810100EB41009DF8031008443E
:1023000080B208BD08B51021764801F097F88DF825
:1023100000004021734801F091F88DF8010001217F
:10232000704801F08BF88DF802004FF400616E48A0
:1023300001F084F88DF803009DF800004FF47A71E5
:1023400010FB01F09DF8011001EBC10202EB01113D
:1023500000EB81009DF8021001EB810100EB4100D0
:102360009DF80310084480B208BD10B56448007899
:10237000052811D2DFE800F00304070A0D000CE085
:1023800000F05FF909E000F06AF906E000F083F977
:1023900003E000F072F900E000BF00BF10BD70B5AF
:1023A000FFF77AFF0546FFF7ADFF04465548007872
:1023B000002839D15248007820B1012803D00228E2
:1023C00030D115E02FE0092D01D0492D02D100F0C8
:1023D0009AF90CE040F24C40854203D040F256405E
:1023E000854202D100F09DF901E0FFF7BEFF1AE03F
:1023F000092D03D0492D01D0012D02D100F02FF974
:102400000FE040F24C40854206D040F256408542F3
:1024100002D0B5F57A7F02D100F013F901E0FFF7A1
:10242000A4FF00E000BF00BF36480078012850D16B
:102430003348007830B1012805D0032818D004288B
:1024400045D12FE044E0092C01D0492C02D100F005
:102450005AF90CE040F24C40844203D040F256401E
:10246000844202D100F05DF901E0FFF77EFF2FE02A
:10247000092C03D0492C01D0012C02D100F0EFF837
:102480000FE040F24C40844206D040F25640844275
:1024900002D0B4F57A7F02D100F0D3F801E0FFF763
:1024A00064FF15E0092C01D0492C02D100F02BF972
:1024B0000CE040F24C40844203D040F2564084424B
:1024C00002D100F02EF901E0FFF74FFF00E000BF5E
:1024D00000BF70BD00200B490870094908707047A3
:1024E00000180240000C024000080240BAECCDE2A5
:1024F0005B000000256420007C2000005D0A0000D5
:10250000DD000020DC0000201CB50121302002F09D
:102510004DFA1E20009001208DF8040000208DF857
:1025200006008DF8070002208DF805006946FA487C
:1025300000F022FFAA2000906946F84800F01CFF36
:102540001CBD10B504463CB90221F44800F092FFCE
:102550000821F24800F08CFF012C07D10221EF483E
:1025600000F086FF0821ED4800F084FF022C07D11F
:102570000221EA4800F07EFF0821E84800F07AFFD7
:1025800010BD10B504463CB92021E44800F072FFAC
:102590008021E24800F06CFF012C07D12021DF48A8
:1025A00000F066FF8021DD4800F064FF022C07D1B7
:1025B0002021DA4800F05EFF8021D84800F05AFF61
:1025C00010BD10B504463CB91021D34800F052FFAD
:1025D0000421D14800F04CFF012C07D11021CE4836
:1025E00000F046FF0421CC4800F044FF022C07D144
:1025F0001021C94800F03EFF0421C74800F03AFF0F
:1026000010BD10B504463CB90221C34800F032FFAA
:102610000821C14800F02CFF012C07D10221BE483F
:1026200000F026FF0821BC4800F024FF022C07D14F
:102630000221B94800F01EFF0821B74800F01AFF38
:1026400010BD10B50020FFF77CFF0020FFF799FFB9
:102650000020FFF7B6FF0020FFF7D3FF10BD10B535
:102660000120FFF76EFF0120FFF78BFF0120FFF72E
:10267000A8FF0120FFF7C5FF10BD10B50020FFF730
:1026800060FF0120FFF77DFF0120FFF79AFF002088
:10269000FFF7B7FF10BD10B50120FFF752FF002074
:1026A000FFF76FFF0020FFF78CFF0120FFF7A9FF66
:1026B00010BD10B50220FFF744FF0220FFF761FFB5
:1026C0000220FFF77EFF0220FFF79BFF10BD10B531
:1026D0000020FFF736FF0220FFF753FF0220FFF72D
:1026E00070FF0020FFF78DFF10BD10B50220FFF72F
:1026F00028FF0020FFF745FF0020FFF762FF0220C0
:10270000FFF77FFF10BD10B50120FFF71AFF012072
:10271000FFF737FF0020FFF754FF0020FFF771FF9E
:1027200010BD10B50020FFF70CFF0020FFF729FFB8
:102730000120FFF746FF0120FFF763FF10BD10B532
:102740000020FFF7FEFE0220FFF71BFF0120FFF72E
:1027500038FF0220FFF755FF10BD10B50446704842
:10276000006820446E49086008464068204448607C
:1027700008468068204488600846C0682044C860D5
:1027800008464268016867A002F066FA10BD10B5FD
:10279000044663480068001B6149086008464068B9
:1027A000001B486008468068001B88600846C068B7
:1027B000001BC8600846426801685AA002F04CFA43
:1027C00010BD30B5594C2468A04204DD574C246834
:1027D000534DA0B22C60554C2468A14204DD534CEB
:1027E00024684F4DA1B26C60504C2468A24204DDB5
:1027F0004E4C24684A4DA2B2AC604C4C2468A342B3
:1028000004DD4A4C2468464DA3B2EC60484C20607D
:10281000241D2160464C0C342260241F236030BDEF
:1028200010B5F0EE401A30EEE14A34EE014AB0EE57
:10283000442A30EEA14A34EE414AF0EE442A30EE0A
:10284000E14A34EE414AB0EE443A30EEA14A34EE69
:10285000014AF0EE443AB0EE420AB4EEE20AF1EE7A
:1028600010FA01D2B0EE620AB4EEC30AF1EE10FA29
:1028700001D2B0EE430AB4EEE30AF1EE10FA01D24F
:10288000B0EE630A294890ED004AB8EEC44AB4EEAF
:10289000C40AF1EE10FA27DDC2EE004A90ED004ABC
:1028A000B8EEC44A24EE844AB0EE442AC2EE804A0E
:1028B00090ED004AB8EEC44A24EE844AF0EE442A71
:1028C000C3EE004A90ED004AB8EEC44A24EE844AB2
:1028D000B0EE443AC3EE804A90ED004AB8EEC44AE6
:1028E00024EE844AF0EE443ABCEEE34A14EE104A79
:1028F000A3B2BCEEC24A14EE104AA2B2BCEEC34A66
:1029000014EE104AA1B2BCEEE24A14EE104AA0B294
:10291000FFF757FF10BD00000010024000140240F6
:10292000E00000200925642C20256400F000002030
:102930003404014010B504466FF0040000F078FC48
:10294000E11704EB5171C1F3C701394A1170104608
:10295000007800EB4001C1EBC0104FF6FF7101EAB7
:10296000C0003449088010BD0146314A12784A43FC
:102970004FF0E0235A6100229A611A46126942F030
:1029800001021A6100BF4FF0E022106900F001025D
:102990001AB100F48032002AF5D04FF0E02212691B
:1029A00022F001024FF0E0231A6100229A61704781
:1029B0000146204A12884A434FF0E0235A61002220
:1029C0009A611A46126942F001021A6100BF4FF083
:1029D000E022106900F001021AB100F48032002AEE
:1029E000F5D04FF0E022126922F001024FF0E0230F
:1029F0001A6100229A61704770B504464FF407705F
:102A000094FBF0F0C6B24FF4077094FBF0F100FBBA
:102A1000114085B205E04FF40770FFF7C9FF701E43
:102A2000C6B2002EF7D115B12846FFF7C1FF70BD21
:102A3000F4000020F6000020014600BF704700BFF0
:102A40004C4A128802F04002002AF9D0C2B2494B27
:102A50009A80704710B588B004460121084601F0FD
:102A6000A5FF0121102001F0FBFF072209214248A8
:102A700000F00DFD07220A213F4800F008FD4FF449
:102A8000C060069002208DF81C008DF81D0000200B
:102A90008DF81E0001208DF81F0006A9364800F0B1
:102AA0006BFC02940020ADF80C00ADF80E00ADF800
:102AB0001000ADF814000C20ADF8120002A92D484A
:102AC00000F085FD01212B4800F009FE4021294836
:102AD00000F0EDFE012240F22551264800F0B5FE3F
:102AE00025208DF8040003208DF805008DF80600E0
:102AF00001208DF8070001A800F04DFB08B010BDC3
:102B000010B540F225511B4800F0DAFE88B3194990
:102B10008988C8B21949097869B919490978FE291B
:102B200009D118490978FF2905D10121134A1170EB
:102B30000021154A117011490978012912D1134950
:102B4000114A1278885410490978491C0E4A1170AC
:102B500011460978012905D10021084A1170012187
:102B60000B4A117006490978064A11700449087029
:102B700000BF10BD00100140000002400100002015
:102B8000FF00002000010020FE00002002000020C5
:102B90001600002000B589B00121084601F04FFF62
:102BA0000121032001F002FF2020079002208DF870
:102BB000200000208DF822008DF8230002208DF8DF
:102BC000210007A9284800F0D7FB0820079007A993
:102BD000264800F0D1FB01220521234800F057FCD4
:102BE00001220321214800F052FC04A800F093FFC9
:102BF0000020ADF810004FF6FF7005900020ADF8F2
:102C00001800ADF8120004A94FF0804000F04FFF0B
:102C100001A801F05AFB01A94FF0804001F01EFB12
:102C20000121880701F0F8FB01221146900701F00D
:102C3000DFFB02231A460321580701F0ACFC0020F9
:102C40004FF0804148620121880700F0B9FF09B0C8
:102C500000BD10B50121880701F0E1FB18B1012189
:102C6000880701F0EDFB10BD0000024000040240A7
:102C700000B589B00121022001F0E1FE01210846E2
:102C800001F094FEC020079002208DF82000002063
:102C90008DF822008DF8230007A9254800F06CFB71
:102CA00002220621224800F0F2FB022207212048DE
:102CB00000F0EDFB04A800F02EFF0020ADF810009E
:102CC0004FF6FF7005900020ADF81800ADF8120027
:102CD00004A9184800F0EBFE01A801F0F6FA01A9DA
:102CE000144801F0BBFA0121124801F095FB0122C2
:102CF0001146104801F07CFB02231A4603210D48BF
:102D000001F049FC00200B492431086001210948E9
:102D100000F056FF09B000BD10B50121054801F0D3
:102D20007EFB18B10121034801F08AFB10BD0000B1
:102D3000000002400004004000B589B001210420D9
:102D400001F07DFE0121022001F030FEC020019043
:102D500002208DF8080000208DF80A008DF80B0085
:102D600001A9264800F008FB02220621234800F0B2
:102D70008EFB02220721214800F089FB06A800F003
:102D8000CAFE0020ADF818004FF6FF700790002033
:102D9000ADF82000ADF81A0006A9194800F087FE2A
:102DA00003A801F092FA0020ADF8140003A914481A
:102DB00001F054FA0121124801F02EFB01221146C4
:102DC0000F4801F015FB02231A4603210C4801F0BD
:102DD000E2FB00200A49243108600121084800F084
:102DE000EFFE09B000BD10B50121054801F017FB49
:102DF00018B10121024801F023FB10BD000402407C
:102E00000008004000B589B00121082001F017FE3C
:102E10000121084601F0CAFD0320019002208DF82F
:102E2000080000208DF80A008DF80B0001A9264843
:102E300000F0A2FA02220021234800F028FB02221F
:102E40000121214800F023FB06A800F064FE0020C9
:102E5000ADF818004FF6FF7007900020ADF8200085
:102E6000ADF81A0006A9194800F021FE03A801F0E8
:102E70002CFA0020ADF8140003A9144801F0EEF973
:102E80000121124801F0C8FA012211460F4801F051
:102E9000AFFA02231A4603210C4801F07CFB002004
:102EA0000A49243108600121084800F089FE09B070
:102EB00000BD10B50121054801F0B1FA18B101219A
:102EC000024801F0BDFA10BD00000240000C0040B5
:102ED0007FB505460C460121102001F0B0FD02959A
:102EE000ADF804400020ADF80C00ADF8060001A9D3
:102EF0000F4800F0DCFD01210D4801F08DFA0122A0
:102F000011460B4801F074FA36208DF800000020BD
:102F10008DF8010001208DF802008DF8030068464D
:102F200000F039F90121024800F04AFE7FBD00009F
:102F3000001000407FB505460C460121202001F01D
:102F40007EFD0295ADF804400020ADF80C00ADF810
:102F5000060001A92A4800F0AAFD0121284801F035
:102F60005BFA01221146264801F042FA37208DF81B
:102F7000000000208DF8010001208DF802008DF87E
:102F80000300684600F007F901211D4800F018FE13
:102F90007FBD10B52DED028B82B00121184801F0E4
:102FA0003EFA002828D01748C0680090154883686A
:102FB0004268016814A001F04FFE19A001F04CFE18
:102FC000002407E0184850F8241018A001F044FE2F
:102FD000601CC4B2032CF5DD1548006802F05EFFEA
:102FE00041EC180B53EC182B12A001F035FE012117
:102FF000034801F025FA00BF02B0BDEC028B10BD02
:103000000014004014010020B1E0C2EBC6F75B25BC
:10301000642025642025642025645D0900000000EB
:1030200050574D5B00000000E000002025642000A8
:10303000780000205D20C4BFB1EA5B252E30665DBC
:103040000000000030B58BB005460C46012102207F
:1030500001F006FD0121042001F0A8FC4FF470707E
:10306000019003208DF8090002208DF8080000204F
:103070008DF80A008DF80B0001A9324800F07CF9A8
:10308000032206212F4800F002FA032207212D48CF
:1030900000F0FDF9032208212A4800F0F8F9032284
:1030A0000921284800F0F3F90995ADF820400020E7
:1030B000ADF82800ADF822008DF82A0008A92248B2
:1030C00000F0F5FC6020ADF80C000120ADF80E001A
:1030D0000020ADF810000590ADF81800ADF81A000A
:1030E000ADF81C00ADF81E0003A9174800F074FDF0
:1030F00003A9154800F0A9FD03A9134800F0F2FD4B
:1031000003A9114800F054FE08210F4800F0F1FE19
:1031100008210D4800F0F6FE08210B4800F0FFFEE4
:103120000821094800F004FF0121074800F02AFDAA
:103130000121054800F044FD0121034801F031F967
:103140000BB030BD00080240000401400948804730
:1031500009480047FEE7FEE7FEE7FEE7FEE7FEE779
:10316000FEE7FEE7FEE7FEE704480549054A064B91
:1031700070470000C9050008890100088801002087
:10318000880700208803002088030020324901437B
:10319000324A1160704770B5002100230F22C478B5
:1031A0001CB32E4C246804F4E064C4F5E064C4F35A
:1031B0000721C1F10404E3B20A4144789C40E1B222
:1031C0008478144021430C07210E254C0578615565
:1031D000047804F01F050124AC4005786D11AD00A2
:1031E00005F1E025C5F8004109E0047804F01F0569
:1031F0000124AC401B4D0678761145F8264070BD81
:10320000194A0A400243154B1B1F1A60704739B117
:10321000124A121D12680243104B1B1D1A6006E071
:103220000E4A121D126882430C4B1B1D1A60704718
:10323000042808D14FF0E021096941F004014FF062
:10324000E022116107E04FF0E021096921F004015B
:103250004FF0E022116170470000FA050CED00E02C
:1032600000E400E080E100E080FFFF1F10B50446AD
:103270009848844208D10121084601F002FC00214F
:10328000012001F0FEFB76E09348844208D1012141
:10329000022001F0F6FB0021022001F0F2FB6AE0BF
:1032A0008E48844208D10121042001F0EAFB00216C
:1032B000042001F0E6FB5EE08948844208D1012148
:1032C000082001F0DEFB0021082001F0DAFB52E0CB
:1032D0008448844208D10121102001F0D2FB002152
:1032E000102001F0CEFB46E07F48844208D1012146
:1032F000202001F0C6FB0021202001F0C2FB3AE0B3
:103300007A48844208D10121402001F0BAFB002113
:10331000402001F0B6FB2EE07548844208D101211F
:10332000802001F0AEFB0021802001F0AAFB22E00A
:103330007048844208D10121801501F0A2FB0021D0
:10334000A01501F09EFB16E06B48844208D10121D4
:10335000401501F096FB0021601501F092FB0AE098
:103360006648844207D10121001501F08AFB002143
:10337000201501F086FB10BDF0B50A4600210023A0
:10338000002400BF3DE0012505FA01F3156805EAB8
:1033900003049C4234D105684F000326BE40B54368
:1033A000056015794E00B54006683543056015790E
:1033B000012D02D01579022D16D185684F00032604
:1033C000BE40B543856055794E00B54086683543AB
:1033D0008560456801268E40B5434560456896790D
:1033E0008E40B6B235434560C5684F000326BE40E7
:1033F000B543C560D5794E00B540C6683543C56054
:10340000491C1029BFD3F0BD4FF6FF7101600021A8
:10341000017141718171C171704708B54FF48032FB
:103420000092009A0A430092009AC261C161009A18
:10343000C261C2690092C269009208BD02460020C2
:1034400013690B400BB1012000E0002070470146DA
:10345000086980B270470246002053690B400BB1E7
:10346000012000E0002070470146486980B27047A3
:1034700001837047418370470AB1018300E04183B3
:1034800070474161704742694A4042617047F0B5F8
:10349000002300244D07ED0E02FA05F3CE1000F1D3
:1034A000200555F826504E07F70E0F26BE40B543AF
:1034B000CF1000F1200646F82750CE1000F120056D
:1034C00055F8265045EA0304CE1000F1200545F8D2
:1034D0002640F0BD00000240000402400008024007
:1034E000000C02400010024000140240001802408C
:1034F000001C02400020024000240240002802403C
:1035000010B50446FA48844208D10121102001F088
:10351000FCFA0021102001F0F8FA57E0F548844247
:1035200009D10121480401F0DFFA00214FF40030F5
:1035300001F0DAFA4AE0F048844209D10121880416
:1035400001F0D2FA00214FF4802001F0CDFA3DE0E5
:10355000EA48844209D10121C80401F0C5FA0021DA
:103560004FF4002001F0C0FA30E0E548844209D170
:103570000121080501F0B8FA00214FF4801001F094
:10358000B3FA23E0DF48844208D10121202001F072
:10359000BCFA0021202001F0B8FA17E0DA48844292
:1035A00009D10121880701F09FFA00214FF08040E6
:1035B00001F09AFA0AE0D548844207D1012140057A
:1035C00001F092FA0021600501F08EFA10BD2DE99C
:1035D000FF4705460E460024A14600BFA046B0891D
:1035E00000B100BF2C8A24F44054F08804432C829C
:1035F000AC8941F20C608443B088318908437189F9
:1036000008430443AC81AC8A24F44074B089044379
:10361000AC82684601F0F9F8B548854202D0B94855
:10362000854202D1DDF80C9001E0DDF80890A88910
:1036300000F4004040B109EBC90000EB091031680B
:103640004900B0FBF1F707E009EBC90000EB0910F6
:1036500031688900B0FBF1F76420B7FBF0F004019A
:103660002009642101FB1078A88900F4004040B1D2
:10367000322000EBC800B0FBF1F000F0070004437B
:1036800008E0322000EB08106421B0FBF1F000F0FC
:103690000F0004432C81BDE8FF874FF416510160F1
:1036A00000218180C18001810C2141810021818123
:1036B000704710B502460020108A20F470600B8815
:1036C0004C8823438C882343CC882343184310829F
:1036D00010BD0021018041808180C180704721B1EF
:1036E000828942F40052828104E082894DF6FF73A0
:1036F0001A4082817047028B02F47F420283028B60
:103700000A430283704721B1828942F400428281D8
:1037100003E08289C2F30E028281704721B1828A5E
:1037200042F40062828204E0828A4FF2FF731A4000
:1037300082827047C1F30802828070470146888800
:10374000C0F308007047028A4FF6F0731A400282F5
:10375000028A0A430282704721B1828942F0020242
:10376000828104E082894FF6FD731A40828170479E
:1037700082894FF2FF731A40828182890A438281D3
:103780007047028A4FF6DF731A400282028A0A43A8
:103790000282704721B1028A42F48042028204E030
:1037A000028A4BF6FF731A4002827047818941F00A
:1037B00001018181704721B1828A42F00802828230
:1037C00004E0828A4FF6F7731A4082827047028BB8
:1037D000D2B20283028B42EA01220283704721B1F6
:1037E000828A42F02002828204E0828A4FF6DF73EE
:1037F0001A408282704721B1828A42F0100282828E
:1038000004E0828A4FF6EF731A4082827047828A00
:103810004FF6FB731A408282828A0A438282704783
:1038200021B1828A42F00202828204E0828A4FF64B
:10383000FD731A40828270471AB1838A0B438382D8
:1038400002E0838A8B4383827047F0B503460024ED
:1038500000260025002040F66A17B94200D100BFBB
:103860001846C1F3421401F01F06012707FA06F5B6
:10387000012C01D10C3004E0022C01D1103000E009
:1038800014301AB107682F43076002E00768AF439E
:103890000760F0BD02460020B1F5007F00D100BFF7
:1038A00013880B400BB1012000E00020704701F4A9
:1038B0000072B2F5007F00D100BFCA43028070479A
:1038C00070B50246002400230025002040F66A1649
:1038D000B14200D100BFC1F3421501F01F03012620
:1038E00006FA03F3012D13D19689334017E0000047
:1038F000001001400044004000480040004C0040DF
:10390000005000400014014000780040007C00405E
:10391000022D02D1168A334001E0968A33400C1200
:10392000012606FA04F41688344013B10CB10120C4
:1039300000E0002070BD10B50022002340F66A149C
:10394000A14200D100BF0A1201249440A3B2DC437B
:10395000048010BD10B50446FE48844208D1012100
:10396000084601F0D2F80021012001F0CEF89DE0D8
:10397000B4F1804F08D10121084601F0B5F80021CB
:10398000012001F0B1F891E0F348844208D101210F
:10399000022001F0A9F80021022001F0A5F885E03D
:1039A000EE48844208D10121042001F09DF8002155
:1039B000042001F099F879E0E948844208D1012116
:1039C000082001F091F80021082001F08DF86DE049
:1039D000E448844208D10121102001F085F800213B
:1039E000102001F081F861E0DF48844208D1012114
:1039F000202001F079F80021202001F075F855E031
:103A0000DA48844208D10121022001F07EF8002129
:103A1000022001F07AF849E0D548844209D1012119
:103A2000080401F072F800214FF4803001F06DF8C5
:103A30003CE0D048844209D10121480401F065F8F6
:103A400000214FF4003001F060F82FE0CA488442B2
:103A500009D10121880401F058F800214FF4802099
:103A600001F053F822E0C548844208D101214020EA
:103A700001F03AF80021402001F036F816E0C04885
:103A8000844208D10121802001F02EF800218020FD
:103A900001F02AF80AE0BB48844207D101218015D1
:103AA00001F022F80021A01501F01EF810BD00223F
:103AB0000288A84B98420ED0AC4B98420BD0B0F184
:103AC000804F08D0A44B984205D0A44B984202D016
:103AD000A34B984204D14FF68F731A404B881A4378
:103AE000A04B984207D0A04B984204D04FF6FF431A
:103AF0001A400B891A4302804B68C3620B88038506
:103B0000944B984202D0994B984201D18B7A03860C
:103B10000123838270474FF0FF3141600021018013
:103B200001814180817270470185828270470A4617
:103B3000002101884FF68F731940114301807047AF
:103B400041627047C16270470146486A704701464A
:103B5000088D704721B1028842F00202028004E021
:103B600002884FF6FD731A400280704721B1028827
:103B700042F00402028004E002884FF6FB731A4010
:103B80000280704721B1028842F08002028004E086
:103B900002884FF67F731A400280704702884FF602
:103BA000F7731A40028002880A4302807047028835
:103BB0004FF6FF431A40028002880A430280704792
:103BC00021B1028842F00102028004E002884FF62F
:103BD000FE731A400280704770B500240022002353
:103BE000058C4FF6FE7635400584028C8388048B65
:103BF0004FF68F752C40B51E2C400D882C43751E3A
:103C00002A408D892A434D882A43524DA84202D02A
:103C1000564DA84213D14FF6F7752A40CD892A4355
:103C20004FF6FB752A408D882A434FF6FF652B40DF
:103C30004FF6FF552B400D8A2B434D8A2B43838033
:103C400004838D684563028470BD70B50024002232
:103C50000023058C4FF6EF7635400584028C83886F
:103C6000048B48F6FF752C404FF6FF452C400D881D
:103C70004FF6FF7606EA05252C434FF6DF752A40FE
:103C80008D8906EA05152A434D8806EA05152A435B
:103C9000304DA84202D0354DA8421DD14FF67F7558
:103CA0002A40CD894FF6FF7606EA05152A434FF6DE
:103CB000BF752A408D8806EA05152A434FF6FF3561
:103CC0002B404FF2FF752B400D8A06EA85052B43EA
:103CD0004D8A06EA85052B43838004838D688563BE
:103CE000028470BD70B5002400220023058C4FF6BD
:103CF000FF6635400584028C8388848B4FF68F7570
:103D00002C404FF6FC752C400D882C434FF6FF5588
:103D10002A408D894FF6FF7606EA05252A434D880D
:103D200006EA05252A430B4DA84202D00F4DA842B2
:103D300038D14FF2FF752A40CD894FF6FF7606EA5B
:103D400005252A434FF6FF352A408D8806EA0525CA
:103D50002A4319E000000140000400400008004030
:103D6000000C00400010004000140040000401401E
:103D7000004001400044014000480140001800405C
:103D8000001C0040002000404EF6FF752B404DF611
:103D9000FF752B400D8A06EA05152B434D8A06EA6E
:103DA00005152B43838084838D68C563028470BDB1
:103DB00070B5002200230024058C4EF6FF763540B6
:103DC0000584038C8488828B48F6FF752A404FF661
:103DD000FF452A400D884FF6FF7606EA05252A435F
:103DE0004DF6FF752B408D8906EA05352B434D882E
:103DF00006EA05352B43FE4DA84202D0FD4DA842F0
:103E000008D14BF6FF752C400D8A4FF6FF7606EA77
:103E100085152C43848082838D680564038470BD7E
:103E2000002101804180818081608181C181018286
:103E30004182704770B503460020002418461830B0
:103E400001258D40ACB21D8CA5431D8409B1082904
:103E50000AD100EB610005684FF68F7635400560AA
:103E60000568154305600FE00D1FC5F34E05284496
:103E7000056848F6FF763540056005684FF6FF7621
:103E800006EA02263543056070BD416370478163D1
:103E90007047C1637047016470470A460021018B77
:103EA0004FF68F7319401143018370470A46002172
:103EB000018B48F6FF7319404FF6FF7303EA0223A4
:103EC0001943018370470A460021818B4FF68F7397
:103ED00019401143818370470A460021818B48F6BF
:103EE000FF7319404FF6FF7303EA022319438183DE
:103EF00070470A460021018B4FF6F77319401143B2
:103F0000018370470A460021018B4FF2FF7319406D
:103F10004FF6FF7303EA02231943018370470A46F1
:103F20000021818B4FF6F77319401143818370474D
:103F30000A460021818B4FF2FF7319404FF6FF7341
:103F400003EA02231943818370470A460021018B4B
:103F50004FF6FB7319401143018370470A46002155
:103F6000018B4FF6FF3319404FF6FF7303EA02232C
:103F70001943018370470A460021818B4FF6FB737A
:103F800019401143818370470A460021818B4FF607
:103F9000FF3319404FF6FF7303EA0223194381836D
:103FA00070470A460021018B4FF67F731940114379
:103FB000018370470A460021018BC1F30E014FF6C1
:103FC000FF7303EA02231943018370470A46002165
:103FD000818B4FF67F7319401143818370470A46E6
:103FE0000021818BC1F30E014FF6FF7303EA022318
:103FF0001943818370470A460021018C4FF6FD73F7
:1040000019401143018470470A460021018C4FF684
:10401000F77319401143018470470A460021018C4F
:104020004FF6DF7319404FF6FF7303EA021319438B
:10403000018470470A460021018C4FF67F731940B6
:104040004FF6FF7303EA02131943018470470A46CF
:104050000021018C4FF6FF5319404FF6FF7303EA1E
:1040600002231943018470470A460021018C4FF254
:10407000FF7319404FF6FF7303EA022319430184CB
:1040800070470A460021018C4DF6FF7319404FF628
:10409000FF7303EA023319430184704730B50023EC
:1040A00001248C40A3B2048C9C430484048C02FA47
:1040B00001F5ADB22C43048430BD30B50023042497
:1040C0008C40A3B2048C9C430484048C02FA01F556
:1040D000ADB22C43048430BD828B4FF2FF331A40C3
:1040E0008283828B4FF6FF7303EA01231A43828394
:1040F0007047F0B50C461546002100220026078CBB
:104100004EF6FF7C07EA0C070784818B028C4FF682
:10411000FF7707EA043640F6FF4739404FF6FF774E
:1041200007EA052739434FF6FF7707EA0337394394
:1041300045F6FF773A4046F480573A43818302843C
:10414000F0BD828B4FF6F3731A408283828B0A4351
:1041500082837047F0B50C461546002100220026E8
:10416000078C4FF6FF6C07EA0C070784818B028CE3
:104170004FF6FF7707EA04264FF60C7739404FF6E3
:10418000FF7707EA03172F4339434FF2FF573A40AF
:1041900046F480773A4381830284F0BD028B4FF26C
:1041A000FF331A400283028B4FF6FF7303EA0123A9
:1041B0001A4302837047F0B50C46154600210022D1
:1041C0000026078C4FF6EF7C07EA0C070784018B6B
:1041D000028C4FF6FF7707EA041640F6FF47394096
:1041E0004FF6FF7707EA033739434FF6FF7703E0CF
:1041F000000001400004014007EA052739434FF65B
:104200005F773A4046F010073A4301830284F0BDDD
:10421000028B4FF6F3731A400283028B0A43028328
:104220007047F0B50C46154600210022068C4FF66B
:10423000FE773E400684018B028C4FF60C763140AF
:104240007E1C06EA03162E4331434FF6F5763240C4
:1042500044F00106324301830284F0BD70B5054687
:104260000C46208850B92389A28861882846FFF728
:10427000D8FFE1882846FFF7CBFF25E020880428F7
:104280000AD12389A28861882846FFF794FFE18834
:104290002846FFF783FF17E0208808280AD12389E2
:1042A000A28861882846FFF755FFE1882846FFF776
:1042B00048FF09E02389A28861882846FFF719FF93
:1042C000E1882846FFF708FF70BD0021018041808A
:1042D000012181800021C180018170472DE9F041D9
:1042E00005460C4600260127608808B9022600E032
:1042F0000026A088012801D1022700E0012720889C
:10430000A0B92389A28861882846FFF78AFFE1883F
:104310002846FFF77DFF23893A4631462846FFF7B6
:104320004AFFE1882846FFF739FF13E02389A28876
:1043300061882846FFF73FFFE1882846FFF72EFFF8
:1043400023893A4631462846FFF76BFFE188284625
:10435000FFF75EFFBDE8F0810146486B70470146FC
:10436000886B70470146C86B70470146086C704700
:104370000A884B881A438B881A43CB881A430B89C7
:104380001A434B891A438B891A43A0F8442070477B
:104390000021018041808180C18001814181818132
:1043A000704731B1B0F8442042F40042A0F84420F4
:1043B00005E0B0F84420C2F30E02A0F84420704794
:1043C00021B1828842F00402828004E082884FF6A4
:1043D000FB731A408280704721B1828842F001024B
:1043E000828004E082884FF6FE731A408280704714
:1043F0001AB183890B43838102E083898B438381D4
:1044000070478182704702460020138A0B400BB12F
:10441000012000E000207047CA430282704730B597
:104420000246002000230024158A05EA010395892D
:1044300005EA010413B10CB1012000E0002030BDF9
:10444000CA430282704741EA0203A0F8483070472D
:104450001AB183890B43838102E083898B43838173
:10446000704721B1828842F00802828004E082888D
:104470004FF6F7731A408280704701894FF6F87241
:104480001140018170470A46002101894FF68F7360
:10449000194011430181704730B504460D46294645
:1044A0002046FFF7F0FF208940F00700208130BD53
:1044B0002DE9F04104460D4616461F46602D06D1F3
:1044C0003B46012231462046FFF775FE05E03B469C
:1044D000012231462046FFF7A4FE29462046FFF779
:1044E000D2FF208940F007002081BDE8F08130B57F
:1044F0000C4600210189C9B24FF6FF7505EA032574
:10450000154325432943018130BD2DE9F04105467E
:104510000E4617469846002443463A4631462846FA
:10452000FFF7E5FF2C894FF6F870044044F00704CC
:104530004FF68F70044044F070042C81BDE8F08188
:10454000F0B504460D4616461F463B463246294600
:104550002046FFF7CCFF208940F480402081F0BD49
:1045600082884FF68F731A40828082880A43828045
:10457000704702894FF6F8731A40028102890A4394
:104580000281704702894FF67F731A4002810289C7
:104590000A4302817047F0B50C4615461E460021BD
:1045A000002200230189028B038C4FF6F8773940F3
:1045B00021434FF6FC473A4040F201173A434FF689
:1045C000DD773B404FF6FF7707EA06172F433B4363
:1045D000018102830384F0BD21B1828842F0800210
:1045E000828004E082884FF67F731A408280704791
:1045F000A0F8501070470000F948006840F0010032
:10460000F74908600020F64908310860F44800685E
:10461000F4490840F2490860F348091D0860F3486E
:10462000EF4984310860F0481038091D0860EC48F3
:10463000006820F48020EA4908600020E8490C3135
:104640000860E7498C31086070470021E44A921CF9
:10465000117011460870704710B501460022002302
:1046600000204A11012A02D1DD4C236808E0022A09
:1046700003D1DB4C7034236802E0D94C74342368D6
:1046800001F01F02012494401C400CB1012000E005
:10469000002010BD38B5002000900024002500BF88
:1046A0003120FFF7D9FF05460098401C0090009884
:1046B000B0F5A04F01D0002DF2D03120FFF7CCFF94
:1046C00008B1012400E00024204638BD0146002046
:1046D000C34A106820F0F80040EAC100106070473B
:1046E000C349086070470021BD4A703211701170D3
:1046F000012802D004280AD104E00121B84A70320E
:10470000117005E00521B64A7032117000E000BF5B
:1047100000BF7047B7490860704770B5049C41EA14
:1047200082150126C6EB530645EA0645054345EAD0
:104730000465AB4E361D356070BDAD4908667047E7
:10474000820142EA0172A64B84331A607047A8497D
:104750008866704710B5830143EA016343EA027338
:104760009F4C8834236010BDA14908677047A04959
:10477000C864704702460020994B0833186820F03F
:10478000EC6042EA01031843954B08331860704708
:1047900002460020924B0833186820F0784042EA25
:1047A000010318438E4B0833186070470146002000
:1047B0008B4A0832106820F00300084310607047ED
:1047C00087480830006800F00C0070470146002060
:1047D000834A0832106820F0F000084310607047E8
:1047E000014600207E4A0832106820F4E050084359
:1047F0001060704701460020794A0832106820F4A2
:10480000604040EAC10010607047F0B5002100220E
:104810000024022500260223714F08373F6807F065
:104820000C0121B1042905D0082937D105E0724FC8
:10483000076036E0714F076033E0694F3F1D3F6806
:10484000C7F38056664F3F1D3F6807F03F036EB1C8
:104850006A4FB7FBF3F7DFF888C10CF1040CDCF802
:1048600000C0CCF3881C07FB0CF40CE0624FB7FBD4
:10487000F3F7DFF86CC10CF1040CDCF800C0CCF3EA
:10488000881C07FB0CF4564F3F1D3F68C7F30147D8
:104890007F1C7D00B4FBF5F7076002E0564F076010
:1048A00000BF00BF4E4F08373F6807F0F00109090D
:1048B000534F7A5C0768D7404760494F08373F68D5
:1048C00007F4E051890A4E4F7A5C4768D740876009
:1048D000434F08373F6807F46041490B484F7A5C03
:1048E0004768D740C760F0BD002100F44072B2F5C0
:1048F000407F0AD13A4A0832116821F4F811414A3E
:1049000002401143364A08321160354A703212684B
:10491000C0F30B031A43324B70331A6070473549AA
:104920004439086070473349403908607047364958
:104930000860704701460020294A8C32106820F038
:104940001F004A1E1043264A8C32106070470146F1
:104950000020234A8C32106820F4F8504A1E40EAA6
:1049600002201F4A8C3210607047014600201C4A0A
:104970008C32106820F440100843106070470146E4
:104980000020174A8C32106820F440000843106061
:10499000704701460020124A8C32106820F44030E3
:1049A00008431060704719490860704739B10C4AD4
:1049B0003032126802430A4B30331A6006E0084A6C
:1049C000303212688243064B30331A607047F9B1B7
:1049D000034A343212680243014B34331A601CE03C
:1049E00000380240FFFFF6EA1030002400300020BB
:1049F00000004742800E47420024F40000127A0073
:104A000001010020FFFCFF0F5C014742E01147421B
:104A10008F4A126882438E4B1A60704739B18C4AB4
:104A2000121D126802438A4B1B1D1A6006E0884A59
:104A3000121D12688243864B1B1D1A60704739B1E4
:104A4000834A0C3212680243814B0C331A6006E031
:104A50007F4A0C32126882437D4B0C331A607047D8
:104A600039B17B4A103212680243794B10331A6015
:104A700006E0774A103212688243754B10331A6091
:104A8000704739B1724A243A12680243704B243B92
:104A90001A6006E06E4A243A126882436C4B243B4B
:104AA0001A60704739B16A4A203A12680243684B6B
:104AB000203B1A6006E0664A203A12688243644B43
:104AC000203B1A60704739B1614A1C3A12680243B0
:104AD0005F4B1C3B1A6006E05D4A1C3A1268824339
:104AE0005B4B1C3B1A60704739B1594A143A126843
:104AF0000243574B143B1A6006E0554A143A1268B9
:104B00008243534B143B1A60704739B1504A103AF4
:104B1000126802434E4B103B1A6006E04C4A103AB2
:104B2000126882434A4B103B1A60704739B1484AB9
:104B30001C3212680243464B1C331A6006E0444A9A
:104B40001C3212688243424B1C331A60704739B1E1
:104B50003F4A2032126802433D4B20331A6006E080
:104B60003B4A203212688243394B20331A60704727
:104B700039B1374A243212680243354B24331A6064
:104B800006E0334A243212688243314B24331A60E0
:104B9000704739B12E4A2C32126802432C4B2C3309
:104BA0001A6006E02A4A2C3212688243284B2C33C2
:104BB0001A60704739B1264A303212680243244BDA
:104BC00030331A6006E0224A303212688243204BAA
:104BD00030331A607047012808D11D493C310968FB
:104BE00041F008011A4A3C32116007E018493C3193
:104BF000096821F00801164A3C321160704739B14A
:104C0000134A273A12780243114B273B1A7006E0E9
:104C10000F4A273A127882430D4B273B1A70704790
:104C20000B484030006840F080700949403108600E
:104C3000704701460020064A283A12680A400AB125
:104C4000012000E0002070470149263908707047B4
:104C500034380240704700000FB4044910B503AA6D
:104C6000029800F093FB10BC5DF814FBF8000020E4
:104C70000FB41CB5074B06AA7B4469460090059803
:104C800000F06BFB0020694600F07AFB1CBC5DF86D
:104C900014FB0000050700002DE9F0410646002442
:104CA00010687529314616A510D0AFF30080002892
:104CB00002DA404213A507E031688A0701D512A540
:104CC00002E0490704D511A5012401E0AFF30080FB
:104CD00000210A2206F1240709E0B0FBF2FCB0FB38
:104CE000F2F302FB1C00303078541846491C0028AF
:104CF000F3D123462A463046BDE8F04100F0BFB864
:104D0000000000002D0000002B000000200000002B
:104D100070B504460D4621461068AFF30080218827
:104D2000090502D50F4A7A4402E00E4A7A440E324F
:104D3000002104F1240305E000F00F060009965D50
:104D40005E54491C0028F7D120780023000704D5C1
:104D5000702D02D009B1022311322046BDE8704007
:104D600000F08DB83A2C00002DE9F0474FF0000A12
:104D700089460446C0F820A02046E16888470028FC
:104D800076D0252806D0D4E901219047206A401C1E
:104D90002062F1E7E168204600258847C4F81CA09E
:104DA00006460027C4F818A02A2E09D0304601F084
:104DB00051F838B304EB8708303EC8F8186019E0A2
:104DC00059F8041B204604EB87029161E16888478B
:104DD000012F064618D1E069002820DA25F02005C9
:104DE0001DE0D8F8180000EB800006EB40003038DA
:104DF000C8F818002046E1688847064601F02AF8FE
:104E00000028EED1012F0AD02E2E08D12046E168CD
:104E100088477F1C0646022F45F02005C4DBA069A9
:104E2000002803DA404245F00105A061E80701D0FF
:104E300025F01005B6B1A6F14100192802D8203698
:104E400045F400654A463146204625604D46FBF74D
:104E5000D5F958B1012806D0ED1D25F0070000F165
:104E6000080989E704E005F1040985E730468AE787
:104E7000206ABDE8F08770477047704770472DE99A
:104E8000F0470D4699469246044600F12408016811
:104E9000880604D5E06921F01001216000E00120BE
:104EA000A84201DD471B00E00027A1697A1902EB47
:104EB0000900081AA0612078C00602D42046AFF38A
:104EC0000080002608E0D4E901211AF80600904786
:104ED000206A401C761C20624E45F4DB2078C00618
:104EE0000AD52046AFF3008006E0D4E90121302046
:104EF0009047206A401C2062381EA7F10107F4DCAD
:104F000007E0D4E9012118F805009047206A401C09
:104F10002062281EA5F10105F3DC2046AFF30080D6
:104F20002078000602D50220BDE8F0870120FBE7CB
:104F300070472DE9FF4F0C461E464FF0FF378BB0F0
:104F4000D2E90001DDF860800A908A46C1F30A5573
:104F500005B93D46002108464FF00000BAF1000FA8
:104F600000F4400005DA00EB80004FF4400101EA54
:104F700050004FEA9059B9F1010F00DDB9460A9887
:104F800050EA4A000ED044F61050A5F2FF354543D2
:104F90002F14B8F1000F1ED07542291E1EDDC9F175
:104FA00000021CE0B8F1010F4FF0000001D03021E9
:104FB00003E0F24305E02154401CB042FBDB3046E5
:104FC0000022002121540B99C1F80880C1E900207A
:104FD0000FB0BDE8F08FBD1B6D1CDEE74A4600DA5E
:104FE000694206A800F06EFA06AB93E8070003AB2F
:104FF00083E8070050460A9900F04CFB8DE8070053
:10500000A0F500501F3800900398002D0ADD42F2F1
:105010001F014A460844002303A90390684600F094
:10502000B5FD09E0A0F500504A461F38002303A94A
:105030000390684600F0BFFD8DE807000004000CF7
:1050400003D04FF0FF30410800E01046B8F1000FE8
:1050500003D00022009215461EE0751E05D400F014
:10506000ABF9303262556D1EF9D5B34601220843C3
:1050700002D000227F1C04E02078302801D10022D9
:105080007F1E002A099784D01DE0112D07DA00F059
:1050900093F9303262556D1C50EA0102F5D1084394
:1050A00002D00098C8B10EE00021681E05E0235C24
:1050B000625C63542254401E491C8142F7DBAB46BC
:1050C000A81B401E0990002004F80B000B98099AB9
:1050D000C0F80880C0E9002B7AE711264FF00008DD
:1050E00057E72DE9F04F88460446D21D22F007010C
:1050F00091B0D1E90001CDE90A0100F093FE02462A
:105100000B98C00F01D02D2007E02068810701D542
:105110002B2002E0202101EAC000032A099001D0DF
:10512000072A05DB03464146204600F08BF90BE1D8
:105130002078800601D5E06900E00620B8F1650F0F
:10514000814606D0B8F1660F18D0B8F1670F70D15C
:1051500031E00020B9F1110F009001DB112301E0D3
:1051600009F101030AAA01A90CA8FFF7E2FEDDE993
:105170000C70002609F10105834647E001204B46EB
:1051800000904FF000470AAA01A90CA8FFF7D1FE32
:10519000DDE90DB00C995D46002610B909F101005A
:1051A0000D18B9EB050003D4C0F1FF3609F1010574
:1051B000A5EB09002BE0B9F1010F01DA4FF001096D
:1051C0000020B9F1110F0090484601DD112300E0E5
:1051D00003460AAA01A90CA8FFF7ABFEDDE90C7093
:1051E0004D4600268346207800070AD4AB4500DAF6
:1051F0005D4601A8012D04DD411911F8011C30297B
:1052000007D04F4502DA17F1040F04DA0120824675
:105210000FE06D1EEEE7002F02DCED1B3E4403E0C5
:10522000781CA84200DD7D1CB81B00F1010A4FF07C
:1052300000472078000703D4AA4501DB4FF0FF3A6E
:105240000021B7F1004F0DF143088DF8431024D031
:1052500002202B23002F01DA7F422D230A21021E78
:10526000A0F1010000DC5FB197FBF1FC97FBF1F2CC
:1052700001FB1C7C17460CF1300C08F801CDEEE761
:10528000A8F1010003702188090501D5452100E03E
:105290006521A0F1010800F8011C09980FA9A1EBF4
:1052A0000807FF1D00B10120411901EBEA70A16957
:1052B0003844081A401EA0612078C00602D4204657
:1052C000AFF30080099828B1D4E901219047206A02
:1052D000401C20622078C00622D52046AFF3008013
:1052E0001EE0002E04DBB34502DD01A8805D00E076
:1052F0003020D4E901219047206A401C2062761CAE
:10530000AAF101005FEA000A0AD100F051F8C06872
:105310000168405CD4E901219047206A401C20626A
:10532000281EA5F10105DCDC07E0D4E9012118F80D
:10533000010B9047206A401C2062381EA7F101072C
:10534000F3DC2046AFF30080032011B041E60000FB
:1053500001694A1C02610878704700B58FB0CDE939
:1053600001310021059105497944CDE90310114629
:105370006846FFF7F9FC0FB000BD0000E5FFFFFF36
:105380000A6802F8010B0A6070470000074B70B50D
:105390000D467B44FFF7E1FF0446284600F004F980
:1053A00010B14FF0FF3070BD204670BDA9D6FFFF91
:1053B000004870474401002030B5B0F10A024FEABE
:1053C000900E71F100034EEA817EB0EB0E0061EBAE
:1053D00091014FEA101E4EEA017E10EB0E0041EBE8
:1053E00011114FEA102E4EEA016E10EB0E0041EB48
:1053F00011214FEA104E4EEA014E10EB0E0041EB28
:105400001141401841F100014FEAD00040EA4170DB
:105410004FEAD10110EB80054FEA810444EA907411
:1054200044EB01046D1944EB0404521BA3414FF0FB
:10543000000348BF0A3200D530BD401C41F10001D5
:1054400030BD00002DE9F0411F46044603260168E7
:10545000072A01F4006004DB08B116A505E016A5D3
:1054600003E008B115A500E015A521F010002060AB
:10547000A069C01EA0610FB1401EA0612046AFF31D
:1054800000804FB1D4E9012138469047206A401C82
:105490002062C01C206206E0206AFAE7D4E90121FC
:1054A00015F8010B9047761EF8D22046AFF3008026
:1054B000BDE8F0814E414E006E616E00494E4600DF
:1054C000696E66002DE9F047814616468AB0354878
:1054D00078440DC88DE80D0032487844801C03AC38
:1054E0000DC884E80D0041F69B300844372190FB3D
:1054F000F1F290FBF1F5A5F1800501FB12041B3CD4
:1055000002D56442012000E00020DFF898A0804628
:105510000027FA44AAF1BE0A0EE0E0070AD032469C
:10552000684607EB470101230AEB810100F043FBCA
:105530008DE8070064107F1C002CEED1194F7F44CA
:10554000AE3F19E0E80715D007EB04100DF1180A7B
:1055500090E80E008AE80E00C068F04201D1981968
:1055600008903246012306A903A800F024FB03ABF0
:1055700083E807006D10641C002DE3D14FF0010398
:1055800032466946B8F1000F03A802D000F0FEFAD7
:1055900001E000F010FBC9E90001C9F808200AB0D9
:1055A000BDE8F08734250000007B00F080007047E4
:1055B00000487047240100207546FFF7F9FFAE460A
:1055C00005006946534620F00700854618B020B50F
:1055D000FDF7CAFDBDE820404FF000064FF0000780
:1055E0004FF000084FF0000B21F00701AC46ACE88B
:1055F000C009ACE8C009ACE8C009ACE8C0098D46F8
:10560000704710B50446AFF300802046BDE8104057
:10561000FAF716BE4FF0013C50F8042B51F8043B4A
:105620009A4221D1A2EB0C03934313EACC1317D176
:1056300050F8042B51F8043B9A4215D1A2EB0C030D
:10564000934313EACC130BD150F8042B51F8043BCD
:105650009A4209D1A2EB0C03934313EACC13DBD09B
:105660004FF00000704700BFD01A01BAB1FA81F1C3
:1056700001F0180122FA01F0CB40C1F12001DBB2A8
:10568000C0B2C01A2CFA01F3D11A914311EAC31126
:10569000E6D170475FEA400C08BF91F0000F4FEA77
:1056A0008C234FEAC12243EA51514FEA1C5018BFE4
:1056B00000F5F0404FEA300018BF41F000415FEACA
:1056C0006C5C00F02980BCF1FF3F08BF40F08040D7
:1056D0007047130C06BF12044FF0100C4FF0000C73
:1056E000130E04BF12020CF1080C130F04BF1201B9
:1056F0000CF1040C930F04BF92000CF1020CD30FB9
:1057000004BF52000CF1010C11464FF00002A0F151
:105710001F00A0EB0C00704711F0004F08BF70474E
:1057200031F000413FF4D5AF0B0C06BF09044FF038
:10573000100C4FF0000C0B0E04BF09020CF1080C0A
:105740000B0F04BF09010CF1040C8B0F04BF89007F
:105750000CF1020CCB0F04BF49000CF1010CCCF191
:105760002003A0EB0C0022FA03F302FA0CF241EA48
:10577000030100F10100704720F07F4C80EA030034
:1057800023F07F47ACEB070303F57C5300F00040A8
:1057900003F1FF032DE980494FEA154B09B44FEAA5
:1057A000144325EA0B4E24EA03480FF2042606EBC5
:1057B000132749083E785FEA320203FB0667C7F504
:1057C000000707FB06F64FEA54374FEAD64606F1C4
:1057D000020607FB066CCCF1005C4FEA1C472CEA82
:1057E000074C07FB06F40CFB06F504EB15464FEAE5
:1057F000961634BF00204FF000404FEAD13706FB29
:1058000007FC4FEA1C4C0CFB0BF7D21B03FB0CF7FD
:1058100061EB07010CFB0EF7B0EB074072EB174290
:105820000CFB08F734BFA2EB0742B2EB074261EB77
:1058300017414FEA0C444FEA910706FB07FC4FEA79
:105840001C4C0CFB0BF7B0EBC74072EB573203FB61
:105850000CF734BFA2EBC742B2EBC74261EB573142
:105860000CFB0EF7B0EBC70072EB57720CFB08F79E
:1058700034BFA2EBC702B2EBC70261EB5771039FC3
:105880004FEA816141EA921104EBCC044FEAD1372F
:105890004FEA826206FB07FC42EA90124FEA806000
:1058A0004FEA1C4C0CFB0BF7D21B03FB0CF761EB14
:1058B00007010CFB0EF7B0EB074072EB17420CFB35
:1058C00008F734BFA2EB0742B2EB074261EB174186
:1058D0004FEA8C554FEA910704EB9C2406FB07FC2A
:1058E0004FEA1C4C0CFB0BF7B0EBC74072EB573286
:1058F00003FB0CF734BFA2EBC742B2EBC74261EB2C
:1059000057310CFB0EF7B0EBC70072EB57720CFB74
:1059100008F734BFA2EBC702B2EBC70261EB5771C5
:1059200015EB4C254FEA816141EA92114FEA826200
:105930004FEAD13742EA901206FB07FC44F100041B
:105940004FEA80604FEA1C4C0CFB0BF7D21B03FBA9
:105950000CF761EB07010CFB0EF7B0EB074072EBA5
:1059600017420CFB08F734BFA2EB0742B2EB074229
:1059700061EB174115EB1C154FEA813141EA924169
:105980004FEA823242EA90424FEA80304FEA0C7688
:1059900044F1000448EA03434EEA0B484FF0000E7E
:1059A000B2EB080C71EB030724BF624639464EEB9D
:1059B0000E0E4FF0000B0018524149414BEB0B0B00
:1059C000B2EB080C71EB03077BF1000B24BF6246BE
:1059D00039464EEB0E0E4FF0000B00185241494174
:1059E0004BEB0B0BB2EB080C71EB03077BF1000BDD
:1059F00024BF624639464EEB0E0E51EA020718BF2D
:105A000046F0010616EB0E7655F1000254F1000146
:105A100003D5BDE88901BDE80088BDE88901BDE87E
:105A20000048B619524141EB0101A3F1010370474F
:105A300080807F7E7D7C7B7A7978777676757473CB
:105A4000727171706F6E6E6D6C6C6B6A6A6968688A
:105A5000676666656464636362616160605F5F5E20
:105A60005E5D5D5C5C5B5B5A5A5959585857575696
:105A700056555555545453535252525151505050FB
:105A80004F4F4F4E4E4D4D4D4C4C4C4B4B4B4A4A4D
:105A90004A49494948484847474747464646454591
:105AA00045444444444343434342424242414141CA
:105AB000002B9C4630D477002BD01CB54FEA37071B
:105AC00003B44FF010004FF01001BAF1000F06D0F0
:105AD000BCF1000FDCBF40F0080040F008014FF0BF
