:020000040800F2
:1000000038080020DD6400082D0800082F080008CB
:1000100033080008370800083B080008000000000B
:100020000000000000000000000000003F08000881
:1000300041080008000000004308000845080008C7
:10004000F7640008F7640008F7640008F764000824
:10005000F7640008F7640008F7640008F764000814
:10006000F7640008F7640008F7640008F764000804
:10007000F7640008F7640008F7640008F7640008F4
:10008000F7640008F7640008F7640008F7640008E4
:10009000F7640008F7640008F7640008F7640008D4
:1000A000F7640008F7640008F7640008F7640008C4
:1000B0006F5F00083560000803610008F7640008FE
:1000C000F7640008F7640008F7640008F7640008A4
:1000D000F7640008955B00089F5C00083B5000082F
:1000E000F7640008F7640008F7640008F764000884
:1000F000F7640008F7640008F7640008F764000874
:10010000F7640008F7640008CF610008F76400088E
:10011000F7640008F76400088F210008AF62000848
:10012000F7640008F7640008F7640008F764000843
:10013000F7640008F7640008F7640008F764000833
:10014000F7640008F7640008F7640008F764000823
:10015000F7640008F7640008F7640008F764000813
:10016000F7640008F7640008F7640008F764000803
:10017000F7640008F7640008F7640008F7640008F3
:10018000F7640008F764000800F002F800F06FF868
:100190000AA090E8000C82448344AAF10107DA45E2
:1001A00001D100F064F8AFF2090EBAE80F0013F0C5
:1001B000010F18BFFB1A43F001031847FCA9000008
:1001C0001CAA00000A444FF0000C10F8013B13F089
:1001D000070408BF10F8014B1D1108BF10F8015BA0
:1001E000641E05D010F8016B641E01F8016BF9D193
:1001F00013F0080F1EBF10F8014BAD1C0C1B09D1EA
:100200006D1E58BF01F801CBFAD505E014F8016B5B
:1002100001F8016B6D1EF9D59142D6D370470000ED
:100220000023002400250026103A28BF78C1FBD8FF
:10023000520728BF30C148BF0B607047662909F0DC
:100240006580642907F0DC86782907F0158700208F
:1002500070471FB509F055F808F054FA0400002063
:10026000002108F0C1FFE0601FBD10B510BD08F00F
:1002700065FB1146FFF7EDFF00F008F808F083FB7F
:1002800003B4FFF7F2FF03BC05F020FC08B54FF400
:10029000A06006F043F9A82005F096FB4FF4E1308A
:1002A00005F022FC4FF4165005F081FD4FF4E130CB
:1002B00004F058FE05F069FB02F00EFE04F0A1F810
:1002C00004F01EFA04F022FC532140F2F31006F071
:1002D00081F805F0EDFD05F059FE05F0BBFE05F0D7
:1002E0001FFF42F2CF01962005F080FF04F0E3FCEF
:1002F000002004F05DF8F84800234FF6FF7201215A
:100300000090084603F04FFDF4A007F06DFE8AE26E
:10031000F548007801280ED1F448F54909680160D4
:100320000078F449087008460178F3A007F05CFEF5
:100330000020ED490870EF480078642874D2DFE8A7
:1003400000F0323F4C596674818E9B9F73737373B8
:100350007373A3A9AFB7BFF6FEF3F2F173737373B0
:100360007373F0EFEEEDECEBEAE9E8E773737373A8
:100370007373E6E573E4E3E2E1E0DF7373737373D1
:100380007373DEDDDCDBDAD9D8D7D6D5737373733C
:100390007373D4D3D2D1D0CFCECDCCCB7373737390
:1003A0007373CAC9C8C70020D7490870D74CE3780F
:1003B000A2786178207804F006FD04F044FC2EE277
:1003C0000020D1490870D14CE378A2786178207878
:1003D00004F0F9FC04F045FC21E20020CA49087051
:1003E000CA4CE378A2786178207804F0ECFC04F041
:1003F00054FC14E20020C4490870C44CE378A2788D
:100400006178207804F0DFFC04F039FC07E200207A
:10041000BD490870BD4CE378A2786178207804F07B
:10042000D2FC04F064FCFAE1F8E10020B64908705F
:10043000B64CE378A2786178207804F0C4FC04F02C
:1004400048FCECE10020B0490870B04CE378A27899
:100450006178207804F0B7FC04F057FCDFE100205D
:10046000A9490870A94CE378A2786178207804F053
:10047000AAFC04F058FCD2E10A2004F070FCCEE1A2
:100480000A2004F086FCCAE100209F49087004F0AD
:1004900012FCC4E100209C49087004F00CFCBEE191
:1004A00001F0E0FF04F0FBFA012097490870B6E183
:1004B00001F0D8FF04F0F3FA022093490870AEE18E
:1004C00001F0D0FF04F0EBFA03208F490870A6E199
:1004D0009CE193E18AE181E178E16FE166E15DE130
:1004E00054E14BE142E139E130E127E11EE115E160
:1004F000EAE0E1E0D8E0CFE0C6E0BDE0B4E0ABE0A8
:10050000A2E099E090E087E07EE075E070E06BE0CB
:1005100062E059E050E047E041E03BE035E02EE0AA
:1005200027E025E023E01AE011E008E0FFE701F012
:1005300099FF04F0B4FA0420734908706FE101F0E8
:1005400091FF04F0ACFA05206F49087067E101F0F3
:1005500089FF04F0A4FA06206B4908705FE101F0FE
:1005600081FF04F09CFA07206749087057E156E1C3
:1005700055E10A220121002000F0D0FB4FE10A22C0
:100580000021084600F0CAFB49E13121604806F02D
:1005900099FA44E132215E4806F094FA3FE13321B2
:1005A0005B4806F08FFA3AE101F05CFF04F077FA5D
:1005B0000A205549087032E101F054FF04F06FFA47
:1005C0000B20514908702AE101F04CFF04F067FA52
:1005D0000C204D49087022E101F044FF04F05FFA5D
:1005E0000D20494908701AE101204A49087016E1B6
:1005F00000204849087012E101F034FF04F04FFA7E
:100600000E20414908700AE101F02CFF04F047FA7E
:100610000F203D49087002E101F024FF04F03FFA89
:10062000102039490870FAE001F01CFF04F037FA95
:10063000112035490870F2E001F014FF04F02FFAA0
:10064000142031490870EAE001F00CFF04F027FAA9
:1006500015202D490870E2E0B7EE000A012211468C
:10066000104600F0F9F9DAE0B7EE000A00220121A5
:10067000084600F0F1F9D2E09FED270A012202219D
:10068000104600F0E9F9CAE09FED230A002202219A
:10069000012000F0E1F9C2E09FED1F0A01220321D1
:1006A000104600F0D9F9BAE09FED1B0A00220321A1
:1006B000012000F0D1F9B2E0B7EE000A01221146A4
:1006C000022000F0C9F9AAE0B7EE000A00220121D9
:1006D000022000F0C1F9A2E0A7010020B3F5CABCD6
:1006E000BBAFCDEAB3C90A0001000020060000201C
:1006F0000200002010000020CAD5B5BD7531D6B863
:10070000C1EEA3BA25780A00E80000208701002086
:100710000044004086010020CDCCCC3D1FED020AF4
:1007200001220221084600F097F978E01FED060A41
:1007300000220221084600F08FF970E01FED0A0A3E
:1007400001220321022000F087F968E01FED0E0A64
:1007500000220321022000F07FF960E0B7EE000ADA
:1007600001221146032000F077F958E0B7EE000AA5
:1007700000220121032000F06FF950E01FED1A0A5A
:1007800001220221032000F067F948E01FED1E0A54
:1007900000220221032000F05FF940E01FED220A51
:1007A00001220321084600F057F938E01FED260A20
:1007B00000220321084600F04FF930E0B7EE000AAE
:1007C00001221146042000F047F928E0B7EE000AA4
:1007D00000220121042000F03FF920E01FED320A41
:1007E00001220221042000F037F918E01FED360A3B
:1007F00000220221042000F02FF910E01FED3A0A38
:1008000001220321042000F027F908E01FED3E0A31
:1008100000220321042000F01FF900E000BF00BF08
:1008200064200149087073E510000020704700BF84
:10083000FEE700BFFEE700BFFEE700BFFEE7704730
:1008400070477047704700000CB500200190009081
:100850007648006840F480307449086000BF7348EF
:10086000006800F4003000900198401C019000984E
:1008700018B90198B0F5A04FF1D16C48006800F4A8
:10088000003010B10120009001E00020009000989D
:10089000012846D165484030006840F080506349E7
:1008A000403108606248006840F440406049086098
:1008B0005E48083000685D490831086008460068F5
:1008C00040F4004008600846006840F4A05008600A
:1008D0005848091F0860081F006840F08070091F11
:1008E000086000BF5148006800F000700028F9D08F
:1008F00040F20570504908604C480830006820F00C
:1009000003004A49083108600846006840F00200C8
:10091000086000BF45480830006800F00C00082857
:10092000F8D10CBD10B54548006840F4700043494B
:1009300008603E48006840F001003C490860002023
:100940003A4908310860394800683D49084037494C
:1009500008603C48091D0860081F006820F48020DA
:10096000091F0860002031490C310860FFF76CFF57
:100970004FF0006031498039086010BD70B500202B
:100980000022022300240221284D08352D6805F09D
:100990000C0020B1042806D0082834D107E02A4DE5
:1009A0002A4E356033E02A4D284E35602FE01F4D2A
:1009B0002D1D2D68C5F380541C4D2D1D2D6805F08F
:1009C0003F0154B1224DB5FBF1F5184E361D366886
:1009D000C6F3881605FB06F209E01B4DB5FBF1F5E1
:1009E000124E361D3668C6F3881605FB06F20F4D0B
:1009F0002D1D2D68C5F301456D1C6B00B2FBF3F591
:100A0000124E356003E0104D104E356000BF00BF40
:100A1000064D08352D68C5F303150E4E705D0B4D60
:100A20002D68C540094E356070BD00000038024099
:100A30000070004008544007003C024088ED00E090
:100A4000FFFFF6FE103000240024F4001800002000
:100A500000127A001C00002070B52DED088B84B0C8
:100A600006460C461546B0EE408A012E06D0022EF0
:100A70003BD0032E72D0042E6FD1A6E0012C0FD1F3
:100A80003DB1F84890ED000A30EE080A80ED000A0A
:100A900006E0F44890ED000A30EE480A80ED000AC6
:100AA000022C0FD13DB1F04890ED000A30EE080A5B
:100AB00080ED000A06E0EC4890ED000A30EE480AAE
:100AC00080ED000A032C0FD13DB1E84890ED000AFB
:100AD00030EE080A80ED000A06E0E44890ED000AD6
:100AE00030EE480A80ED000AA7E0012C0FD13DB19D
:100AF000DF4890ED000A30EE080A80ED000A06E0BB
:100B0000DB4890ED000A30EE480A80ED000A022C26
:100B10000FD13DB1D74890ED000A30EE080A80EDC4
:100B2000000A06E0D34890ED000A30EE480A80ED56
:100B3000000A032C0FD13DB1CF4890ED000A30EEF2
:100B4000080A80ED000A06E0CB4890ED000A30EE7E
:100B5000480A80ED000A70E000E06DE0012C0FD142
:100B60003DB1C64890ED000A30EE080A80ED000A5B
:100B700006E0C24890ED000A30EE480A80ED000A17
:100B8000022C0FD13DB1BE4890ED000A30EE080AAC
:100B900080ED000A06E0BA4890ED000A30EE480AFF
:100BA00080ED000A032C0FD13DB1B64890ED000A4C
:100BB00030EE080A80ED000A06E0B24890ED000A27
:100BC00030EE480A80ED000A37E0012C0FD13DB12C
:100BD000AD4890ED000A30EE080A80ED000A06E00C
:100BE000A94890ED000A30EE480A80ED000A022C78
:100BF0000FD13DB1A54890ED000A30EE080A80ED16
:100C0000000A06E0A14890ED000A30EE480A80EDA7
:100C1000000A032C0FD13DB19D4890ED000A30EE43
:100C2000080A80ED000A06E0994890ED000A30EECF
:100C3000480A80ED000A00E000BF00BF8B48006852
:100C400008F0EEFA41EC190B8748006808F0E8FA62
:100C500041EC1A0B8348006808F0E2FA41EC1B0BE8
:100C60008DED029B8DED00AB53EC1B2B89A007F0A3
:100C7000BBF98148006808F0D3FA41EC190B7D48B4
:100C8000006808F0CDFA41EC1A0B7948006808F0CA
:100C9000C7FA41EC1B0B8DED029B8DED00AB53ECC5
:100CA0001B2B82A007F0A0F97648006808F0B8FA7C
:100CB00041EC190B7248006808F0B2FA41EC1A0BCB
:100CC0006E48006808F0ACFA41EC1B0B8DED029BFE
:100CD0008DED00AB53EC1B2B6EA007F085F96C4833
:100CE000006808F09DFA41EC190B6848006808F0AC
:100CF00097FA41EC1A0B6448006808F091FA41EC4D
:100D00001B0B8DED029B8DED00AB53EC1B2B67A0F5
:100D100007F06AF904B0BDEC088B70BD052878D2E5
:100D2000DFE800F0035E7891E40061BB654BD3ED32
:100D3000000A00EE102AB8EE400A30EEC00A83ED39
:100D4000000A614BD3ED000A00EE102AB8EE400A0B
:100D500030EEC00A83ED000A5C4BD3ED000A00EED2
:100D6000102AB8EE400A30EEC00A83ED000A584B54
:100D7000D3ED000A00EE102AB8EE400A30EEC00AA9
:100D800083ED000A2BE04F4BD3ED000A00EE102A52
:100D9000B8EE400A30EE800A83ED000A4A4BD3EDEC
:100DA000000A00EE102AB8EE400A30EE800A83ED09
:100DB000000A464BD3ED000A00EE102AB8EE400AB6
:100DC00030EE800A83ED000A414BD3ED000A00EEBD
:100DD000102AB8EE400A30EE800A83ED000A9FE048
:100DE00059B9384BD3ED000A00EE102AB8EE400A8C
:100DF00030EEC00A83ED000A0AE0324BD3ED000A60
:100E000000EE102AB8EE400A30EE800A83ED000AA8
:100E100086E084E059B92C4BD3ED000A00EE102A8D
:100E2000B8EE400A30EEC00A83ED000A0AE0264B15
:100E3000D3ED000A00EE102AB8EE400A30EE800A28
:100E400083ED000A6CE059B9204BD3ED000A00EEA7
:100E5000102AB8EE400A30EEC00A83ED000A44E0E2
:100E600038E0000044000020480000204C00002032
:100E70005000002054000020580000205C0000209A
:100E80006000002064000020680000206C0000204A
:100E9000700000205B25302E31662025302E316613
:100EA0002025302E31665D09000000005B25302EC4
:100EB00031662025302E31662025302E31665D0AC0
:100EC00000000000740000207C000020840000204E
:100ED0008C000020FE4BD3ED000A00EE102AB8EE85
:100EE000400A30EE800A83ED000A19E059B9F94B47
:100EF000D3ED000A00EE102AB8EE400A30EEC00A28
:100F000083ED000A0AE0F34BD3ED000A00EE102A4D
:100F1000B8EE400A30EE800A83ED000A00E000BF20
:100F200000BF7047052835D2DFE800F003141C2409
:100F30002C0000EE101AB8EE400AE64A82ED000AD4
:100F4000E34A82ED000AE44A82ED000AE34A82EDB8
:100F5000000A20E000EE101AB8EE400ADF4A82EDE7
:100F6000000A18E000EE101AB8EE400ADA4A82EDE4
:100F7000000A10E000EE101AB8EE400AD44A82EDE2
:100F8000000A08E000EE101AB8EE400AD14A82EDDD
:100F9000000A00E000BF00BF7047D148007800F0B1
:100FA000800060B3CE48007800F07F0000EE100AA9
:100FB000B8EEC00AC94880ED000AC948007800F0C0
:100FC0007F0000EE100AB8EEC00AC34880ED000AA8
:100FD000C348007800F07F0000EE100AB8EEC00AA7
:100FE000BB4880ED000ABE48007800F07F0000EEAC
:100FF000100AB8EEC00AB74880ED000A13E0B3EE5D
:101000000E0AB64880ED000AB3EE0E0AB24880ED33
:10101000000AB3EE0E0AAE4880ED000AB3EE0E0AE7
:10102000AC4880ED000A7047AD49097841F0800175
:10103000AB4A1170114609780143117070470128BD
:1010400006D002282DD0032854D004287BD17BE081
:1010500091ED000AB8EEC00AA24AD2ED000AB4EE41
:10106000E00AF1EE10FA05DD92ED000ABDEEC00ACD
:1010700081ED000A91ED000AB8EEC00A994AD2ED5E
:10108000000AF1EE600AB4EEE00AF1EE10FA07D2BF
:1010900092ED000AB1EE400ABDEEC00A81ED000AF1
:1010A0007CE091ED000AB8EEC00A8F4AD2ED000A4A
:1010B000B4EEE00AF1EE10FA05DD92ED000ABDEEA5
:1010C000C00A81ED000A91ED000AB8EEC00A864A16
:1010D000D2ED000AF1EE600AB4EEE00AF1EE10FA89
:1010E00007D292ED000AB1EE400ABDEEC00A81EDD2
:1010F000000A53E091ED000AB8EEC00A7B4AD2ED37
:10110000000AB4EEE00AF1EE10FA05DD92ED000AF5
:10111000BDEEC00A81ED000A91ED000AB8EEC00AEA
:10112000724AD2ED000AF1EE600AB4EEE00AF1EE86
:1011300010FA07D292ED000AB1EE400ABDEEC00AE5
:1011400081ED000A2AE028E091ED000AB8EEC00A1D
:10115000674AD2ED000AB4EEE00AF1EE10FA05DDBE
:1011600092ED000ABDEEC00A81ED000A91ED000A81
:10117000B8EEC00A5E4AD2ED000AF1EE600AB4EEA3
:10118000E00AF1EE10FA07D292ED000AB1EE400A41
:10119000BDEEC00A81ED000A00E000BF00BF70474D
:1011A00008B5F0EE401A4D4890ED000A31EEC00A45
:1011B000B0EE401A4F4890ED000A31EE400AB0EE12
:1011C000402A4D4890ED000A4C48D0ED000A20EE30
:1011D000200A4B4880ED000A4A4890ED000A60EE74
:1011E000010AF2EE042A80EEA20A4748D0ED000A76
:1011F00060EE820AF2EE042A80EEA23A30EE030A92
:101200003F48D0ED000A30EE200ABDEEC00A8DED59
:10121000000A384880ED001A69460120FFF70FFFE9
:10122000009808BD08B5F0EE401A2B4890ED000A72
:1012300031EEC00AB0EE401A344890ED000A31EEAB
:10124000400AB0EE402A324890ED000A3148D0ED15
:10125000000A20EE200A304880ED000A2F4890ED69
:10126000000A60EE010AF2EE042A80EEA20A2C487F
:10127000D0ED000A60EE820AF2EE042A80EEA23A75
:1012800030EE030A2448D0ED000A30EE200ABDEE0D
:10129000C00A8DED000A1D4880ED001A6946022043
:1012A000FFF7CDFE009808BD08B5F0EE401A0848DB
:1012B00090ED000A31EEC00AB0EE401A194890EDE8
:1012C000000A31EE400AB0EE402A17482EE0000036
:1012D000840000208C0000207C000020740000208E
:1012E000940000207800002080000020880000206A
:1012F00090000020980000209C0000204800002062
:10130000A0000020440000204C000020A400002089
:10131000A800002054000020AC0000205000002055
:1013200058000020B0000020B400002090ED000A1A
:10133000AC48D0ED000A20EE200AAB4880ED000A50
:10134000AA4890ED000A60EE010AF2EE042A80EE4F
:10135000A20AA748D0ED000A60EE820AF2EE042A43
:1013600080EEA23A30EE030A9F48D0ED000A30EE3C
:10137000200ABDEEC00A8DED000A9E4880ED001ADD
:1013800069460320FFF75BFE009808BD08B5F0EE44
:10139000401A994890ED000A31EEC00AB0EE401AAA
:1013A000964890ED000A31EE400AB0EE402A94488B
:1013B00090ED000A9348D0ED000A20EE200A9248F2
:1013C00080ED000A914890ED000A60EE010AF2EE0D
:1013D000042A80EEA20A8E48D0ED000A60EE820A4E
:1013E000F2EE042A80EEA23A30EE030A8648D0EDEF
:1013F000000A30EE200ABDEEC00A8DED000A7F48DB
:1014000080ED001A69460420FFF719FE009808BD18
:10141000F0EE400A7F49097801EE901AF8EE611A61
:1014200070EEE11AB0EE610A7B49D1ED001A70EE60
:10143000611AB0EE611A7949D1ED001AB7EE002AAF
:1014400071EE821AC1ED001AB3EE0E2AF4EEC21A42
:10145000F1EE10FA30DDDFED721AC1ED001A7149BC
:10146000D1ED001A71EE801AC1ED001AD1ED001A0B
:101470009FED6D2AF4EEC21AF1EE10FA03D2DFED01
:101480006A1AC1ED001A6749D1ED001A9FED672A6B
:10149000F4EEC21AF1EE10FA03DDDFED641AC1EDCD
:1014A000001A6049D1ED001A614991ED002A61EE00
:1014B000821A6049C1ED001A5F49D1ED001A21EE90
:1014C000802ADFED5E2AC2EE221A5D4991ED002AE4
:1014D00022EE012AF2EE042A82EE223A71EE831AFB
:1014E000544991ED002A71EE821AFDEEE11A11EED7
:1014F000900A494981ED000A7047F0EE400A4549DB
:10150000097801EE901AF8EE611A70EEE11AB0EE69
:10151000610A4C49D1ED001A70EE611AB0EE611A01
:101520004949D1ED001AB7EE002A71EE821AC1EDD9
:10153000001AB3EE0E2AF4EEC21AF1EE10FA30DD04
:10154000DFED371AC1ED001A4049D1ED001A71EEF6
:10155000801AC1ED001AD1ED001A9FED332AF4EE86
:10156000C21AF1EE10FA03D2DFED2F1AC1ED001A04
:101570003649D1ED001A9FED2D2AF4EEC21AF1EE94
:1015800010FA03DDDFED291AC1ED001A2F49D1ED64
:10159000001A2F4991ED002A61EE821A2D49C1ED02
:1015A000001A2D49D1ED001A21EE802ADFED232A01
:1015B000C2EE221A294991ED002A22EE012AF2EE0A
:1015C000042A82EE223A71EE831A224991ED002A12
:1015D00071EE821AFDEEE11A11EE900A194981EDC1
:1015E000000A704760000020B80000205C00002066
:1015F00064000020B00000208C000020BC0000200F
:10160000C00000206C000020C40000206800002002
:101610007000002095000020C8000020D4000020A9
:1016200000000000CC0000200000FAC30000FA43D4
:1016300030000020D00000202C0000200000C84214
:1016400034000020D8000020E4000020DC0000204E
:101650003C000020E0000020380000204000002076
:1016600010B52DED088B86B0022003F015F8041E8E
:1016700001DB204600E06042FE490860032003F0E1
:101680000BF8041E01DB204600E06042F949486087
:10169000042003F001F8041E01DB204600E0604254
:1016A000F4498860052002F0F7FF041E01DB2046A4
:1016B00000E06042EF49C860EF480078D0BB0846C0
:1016C000D0ED000AF8EEE00AB0EE600AFFF768FD20
:1016D000EA4909780844EA490860E648D0ED010A79
:1016E000F8EEE00AB0EE600AFFF79CFDE3494978A6
:1016F0000844E349091D0860DE48D0ED020AF8EE0F
:10170000E00AB0EE600AFFF7CFFDDC4989780844B3
:10171000DB490C310860D748D0ED030AF8EEE00A47
:10172000B0EE600AFFF732FED449C9780844D449C4
:1017300008310860CF48C0680090CE48836842688E
:101740000168D0A006F050FCCD4808300068009039
:10175000CB480C300368CA48001D0268001F0168AE
:10176000CEA006F041FCD248006807F059FD41ECDC
:10177000180BD048006807F053FD41EC190BCE4818
:10178000006807F04DFD41EC1A0BCC48006807F0EB
:1017900047FD41EC1B0B8DED048B8DED029B8DED18
:1017A00000AB53EC1B2BC6A006F01EFCCAA006F033
:1017B0001BFC06B0BDEC088B10BD10B504460B2C0D
:1017C00074D2DFE804F07306111B25303D4A5764DC
:1017D0006C0003F038FA0020C04908700120C049AD
:1017E000087003F07DF862E003F03BFA0220BB4989
:1017F0000870BB49087003F073F858E003F04DFA25
:101800000320B6490870B649087003F069F84EE045
:1018100003F035FA0120B14908700420B04908707E
:1018200003F05EF843E0002003F08DF9022003F09E
:10183000AAF9022003F0C7F9022003F0E4F936E028
:10184000022003F080F9002003F09DF9022003F04C
:10185000BAF9022003F0D7F929E0022003F073F966
:10186000022003F090F9002003F0ADF9022003F00C
:10187000CAF91CE0022003F066F9022003F083F9A4
:10188000022003F0A0F9002003F0BDF90FE003F0FF
:10189000DAF91E2201210020FFF740FA07E01E229C
:1018A00000210846FFF73AFA01E0FFE700BF00BF5A
:1018B000FFF7D6FE10BD10B502F04FFF8949088032
:1018C00002F071FF884908808848007880B90F22AB
:1018D00000210846FFF722FA03F0D1F903207F49DF
:1018E00008707F49087081480078401C7F49087063
:1018F00002F0F6FF7B48008840F2E931884203D0CD
:10190000784800880B2817D178480078012813D12F
:1019100076480078401C7549087003F0CCF903F054
:10192000BEF80F2201210020FFF7F8F909207049C5
:10193000087000206F490870FFF792FE10BD10B5C7
:1019400002F00BFF6749088002F02DFF664908800E
:101950006648007878B90F20FFF766FB03F08FF92F
:1019600001205E49087004205D4908705F480078D6
:10197000401C5E49087002F0B3FF5B480088C0B9A4
:101980005A480078012814D158480078401C57491B
:10199000087003F090F903F082F857480078564930
:1019A0000870FFF7FAFA08205149087000205149E1
:1019B0000870FFF755FE10BD10B502F0CEFE494984
:1019C000088002F0F0FE484908804848007850B985
:1019D00003F055F90120414908700420404908707E
:1019E00001204249087002F07BFF3E48008840F227
:1019F000E931884208D13D480078012804D13B48AC
:101A00000078401C394908703648008840F2564139
:101A1000884208D135480078022804D1334800783C
:101A2000401C324908702F48008840F2E931884252
:101A300008D12E480078032804D12C480078401C97
:101A40002A4908702748008840F25641884208D148
:101A500026480078042804D124480078401C2349F3
:101A600008702048008840F2E93188424DD11F4873
:101A7000007843E0C4010020860100208701002097
:101A800034040140B1E0C2EBC6F75B256420256455
:101A90002025642025645D090000000050574D5B3F
:101AA00025642025642025642025645D090000004C
:101AB0008C000020840000207C00002074000020A6
:101AC00054535B252E306620252E306620252E307F
:101AD0006620252E30665D000A000000840100208B
:101AE00085010020EC000020EE000020E90000202D
:101AF00014000020E800002094000020052804D1F4
:101B0000F9480078401CF8490870F848008840F20D
:101B10005641884208D1F4480078062804D1F2489A
:101B20000078401CF0490870F048008840F2E93124
:101B3000884208D1EC480078072804D1EA480078A8
:101B4000401CE9490870E948008840F25641884243
:101B50000BD1E5480078082807D10F20FFF764FA79
:101B6000E1480078401CE0490870E048008840F2F5
:101B7000E931884216D1DC480078092812D103F0F7
:101B80007EF80020DA4908700120DA490870DA4846
:101B90000078D9490870FFF700FAD3480078401C54
:101BA000D1490870D548008840F2E931884208D10F
:101BB000CD4800780A2804D1CB480078401CCA4997
:101BC0000870CE48008840F25641884208D1C64885
:101BD00000780B2804D1C4480078401CC249087022
:101BE000C648008840F2E931884212D1BE480078E8
:101BF0000C280ED103F05FF802F051FF0020C0491D
:101C000008700620BF490870B7480078401CB649E4
:101C10000870FFF725FD10BD10B502F09EFDB34919
:101C2000088002F0C0FDB5490880AF48007848B987
:101C300003F017F80220AE490870AE490870012081
:101C4000A949087002F04CFEAC48008840F2E93126
:101C5000884208D1A4480078012804D1A24800781D
:101C6000401CA1490870A548008840F256418842AE
:101C700008D19D480078022804D19B480078401C78
:101C8000994908709D48008840F2E931884208D19E
:101C900095480078032804D193480078401C924965
:101CA00008709648008840F25641884208D18E4814
:101CB0000078042804D18C480078401C8A490870B8
:101CC0008A48008840F2E931884212D1864800787B
:101CD00005280ED102F0E1FF0320854908708549EF
:101CE00008700420884908707F480078401C7E49AD
:101CF000087085480078002808DD7B4800780628B1
:101D000004D181480078401E7F4908707E480078E1
:101D100040B975480078062804D173480078401C03
:101D2000714908707148008840F2E931884208D151
:101D30006D480078072804D16B480078401C6A4938
:101D400008706A48008840F25641884208D16648C7
:101D50000078082804D164480078401C6249087063
:101D60006248008840F2E931884208D15E48007834
:101D7000092804D15C480078401C5B4908705B4826
:101D8000008840F25641884208D1574800780A2816
:101D900004D155480078401C5349087053480088C6
:101DA00040F2E931884210D14F4800780B280CD11D
:101DB00002F081FF02F073FE0020514908700520F7
:101DC000504908700C2048490870FFF749FC10BDC5
:101DD00010B502F0C2FC4549088002F0E4FC474916
:101DE00008804148007860B90F20FFF71DF902F024
:101DF00054FF03203E4908703E49087001203A49CB
:101E0000087002F06DFD3948008840F2E9318842DF
:101E10000CD135480078012808D1022032490870D9
:101E20003548007834490870FFF7B7F82F48008824
:101E300040F25641884206D12B480078022802D150
:101E40000320294908702948008840F2E931884276
:101E500006D125480078032802D1042022490870C1
:101E60002248008840F25641884206D11E48007838
:101E7000042802D105201C4908701C48008840F243
:101E8000E931884213D11848007805280FD10F2076
:101E9000FFF7CAF802F0D7FE0020154908700120AC
:101EA0001449087010480078401C0F4908700F480A
:101EB0000088B0B90C480078062812D107200A49DA
:101EC000087002F0F8FE02F0EAFD04200D490870E7
:101ED0000948007808490870FFF75FF800200849B2
:101EE0000870FFF7BDFB10BDE9000020EC000020EA
:101EF000840100208501002094000020EE000020D5
:101F0000E800002014000020EA00002010B502F0D4
:101F100024FCFE49088002F046FCFD490880FD488B
:101F2000007848B902F08FFE0020FB4908700120BC
:101F3000FA490870F749087002F0D2FCF4480088AA
:101F400040F2E931884208D1F2480078012804D1F2
:101F5000F0480078401CEF490870ED48008840F2D6
:101F60005641884208D1EB480078022804D1E9485C
:101F70000078401CE7490870E548008840F2E931E4
:101F8000884208D1E3480078032804D1E14800786A
:101F9000401CE0490870DE48008840F25641884203
:101FA00008D1DC480078042804D1DA480078401CC5
:101FB000D8490870D648008840F2E931884208D1F3
:101FC000D4480078052804D1D2480078401CD14973
:101FD0000870CF48008840F2564188420BD1CD4866
:101FE0000078062807D1CB480078401CC949087002
:101FF0000F20FFF719F8C648008840F2E9318842FF
:1020000003D0C34800880B280FD1C24800780728A6
:102010000BD102F042FE0320BF490870BF4908708F
:10202000BC480078401CBB490870FFF719FBB84852
:102030000088C0B9B7480078082814D1B54800789E
:10204000401CB449087002F036FE02F028FDB44886
:102050000078B3490870FEF7A0FF0220B14908706C
:102060000020B149087010BD10B502F076FBA749F9
:10207000088002F098FBA6490880A648007848B975
:102080000F20FEF7D1FF02F008FEA2480078401CA6
:10209000A04908709D48008840F2E931884216D175
:1020A0009C480078012812D102F0CDFD9C480078B0
:1020B0009B490870FEF771FF0020974908700120C6
:1020C0009649087093480078401C9249087002F0C5
:1020D00007FC8F48008840F2E931884208D18D48DA
:1020E0000078022804D18B480078401C8949087088
:1020F0008748008840F25641884208D185480078D8
:10210000032804D183480078401C82490870804825
:10211000008840F2E931884208D17E4800780428DE
:1021200004D17C480078401C7A49087078480088BF
:1021300040F2564188420BD176480078052807D1F5
:1021400003207A49087073480078401C7149087070
:1021500076480078002808DD6E480078062804D10B
:1021600072480078401E714908707048007858B96C
:1021700068480078062807D102F09DFD00206A49D2
:102180000870012067490870FFF76AFA10BD10B5A2
:102190000121674805F00BFB002856D06248007803
:1021A00016284CD2DFE800F00B0C0F1215181B1E7E
:1021B000212223272B2F33373B3F4B4B43473FE015
:1021C000FFF752FF3CE0FFF7A1FE39E0FFF700FE0A
:1021D00036E0FFF721FD33E0FFF7EEFB30E0FFF7DD
:1021E000AEFB2DE0FFF767FB2AE029E028E00120A5
:1021F000FFF7E3FA24E00220FFF7DFFA20E00320F4
:10220000FFF7DBFA1CE00420FFF7D7FA18E00520FF
:10221000FFF7D3FA14E00620FFF7CFFA10E007200B
:10222000FFF7CBFA0CE00820FFF7C7FA08E0092017
:10223000FFF7C3FA04E00A20FFF7BFFA00E000BF8F
:1022400000BF01213A4805F0C3FA10BD10B502F0F5
:1022500084FA2E49088002F0A6FA2D4908802B48FE
:10226000008840F2E931884208D129480088884234
:1022700004D102F020FD02F012FC32E02348008875
:1022800040F25641884205D02048008840F24C4137
:10229000884202D102F0F3FC23E01C4800886F283A
:1022A00003D01A4800880B2802D102F0F6FC18E08F
:1022B0001748008840F25641884205D014480088EB
:1022C00040F24C41884202D102F0CBFC09E01048B8
:1022D00000886F2803D00E4800880B2801D102F037
:1022E000B2FC10BD10B502F038FA0849088002F0BF
:1022F0005AFA0749088007480078F8B902F0B1FC9B
:102300000020054908700220044913E0EC00002079
:10231000EE000020E900002084010020850100205B
:102320009400002014000020E8000020EA000020B3
:102330000010004008700120F849087002F0D0FA3F
:10234000F748008840F2E931884206D1F348007826
:10235000012802D10220F1490870F148008840F2BA
:102360005641884206D1ED480078022802D1032068
:10237000EA490870EA48008840F2E931884206D10B
:10238000E6480078032802D10420E4490870E448B4
:10239000008840F25641884206D1E048007804287F
:1023A00002D10520DD490870DD48008840F2E9319E
:1023B00088420ED1D948007805280AD102F05FFC86
:1023C0000120D84908700420D74908700620D34955
:1023D0000870D648008840F2E931884206D1CF48DB
:1023E0000078072802D10820CC490870CF4800881F
:1023F00040F25641884206D1C8480078082802D1E8
:102400000920C6490870C948008840F2E93188426D
:1024100006D1C2480078092802D10A20BF490870B5
:10242000C248008840F25641884206D1BB48007835
:102430000A2802D10B20B9490870BC48008840F234
:10244000E93188420DD1B54800780B2809D102F056
:1024500032FC02F024FB0020B54908700C20AF4983
:10246000087010BD0020AD4908700A20B1490870FD
:10247000704770B50546002419E0285D312804D066
:10248000322807D033280FD109E000F0C6FD00F054
:1024900069FB0AE000F0F6FD00F0B9FB05E000F092
:1024A00026FE00F0E7FB00E000BF00BF641C032C29
:1024B000E3DB70BD10B504462078312802D100F06E
:1024C000ACFD0AE02078322802D100F0DBFD04E008
:1024D0002078332801D100F00AFE00F043FB10BD44
:1024E00010B504466078312802D100F096FD0AE06C
:1024F0006078322802D100F0C5FD04E0607833280E
:1025000001D100F0F4FD00F082FB10BD10B50446CF
:10251000A078312802D100F080FD0AE0A0783228AE
:1025200002D100F0AFFD04E0A078332801D100F023
:10253000DEFD00F09FFB10BD10B504462079312868
:1025400002D100F007FE0AE02079322802D100F023
:102550002BFE04E02079332801D100F04FFE10BD9E
:1025600010B504466079312802D100F0F3FD0AE08D
:102570006079322802D100F017FE04E06079332838
:1025800001D100F03BFE10BD10B50446A079312802
:1025900002D100F0DFFD0AE0A079322802D100F07C
:1025A00003FE04E0A079332801D100F027FE10BD1E
:1025B00070B50546052419E0285D312804D032287D
:1025C00007D033280FD109E000F0C4FD00F0CAFAAB
:1025D0000AE000F0E9FD00F01AFB05E000F00EFE55
:1025E00000F048FB00E000BF00BF641C082CE3DBE8
:1025F00070BD70B504460D46012D13D100F06DFB82
:102600002078312802D100F090FE20E02078322896
:1026100002D100F0BEFE1AE02078332817D100F076
:1026200050FE14E0022D12D100F057FB2079312822
:1026300002D100F07AFE0AE02079322802D100F0BF
:10264000A8FE04E02079332801D100F03AFE70BDE5
:1026500070B504460D46012D13D100F091FB607852
:10266000312802D100F061FE20E06078322802D1EA
:1026700000F08FFE1AE06078332817D100F021FEB9
:1026800014E0022D12D100F07BFB6079312802D1D9
:1026900000F04BFE0AE06079322802D100F079FEAA
:1026A00004E06079332801D100F00BFE70BD70B5F5
:1026B00004460D46012D13D100F0B5FBA07831285A
:1026C00002D100F032FE20E0A078322802D100F0E2
:1026D00060FE1AE0A078332817D100F0F2FD14E074
:1026E000022D12D100F09FFBA079312802D100F019
:1026F0001CFE0AE0A079322802D100F04AFE04E074
:10270000A079332801D100F0DCFD70BD70B505461D
:102710000E460024012E2CD100BF27E0E900002046
:10272000EE0000208401002085010020EC00002044
:10273000E8000020EA000020285D312804D032287B
:1027400007D033280FD109E000F0C7FA00F0EDFD03
:102750000AE000F015FB00F01CFE05E000F063FB52
:1027600000F0AFFD00E000BF00BF641C032CE3DB02
:102770001FE0022E1DD1042419E0285D312804D069
:10278000322807D033280FD109E000F0A6FA00F074
:10279000CCFD0AE000F0F4FA00F0FBFD05E000F0EB
:1027A00042FB00F08EFD00E000BF00BF641C072C60
:1027B000E3DB70BD70B504460D46012D13D12078C2
:1027C000312802D100F04FFE0AE02078322802D1F1
:1027D00000F07DFE04E02078332801D100F010FEE7
:1027E00000F0C0F914E0022D12D12079312802D175
:1027F00000F039FE0AE02079322802D100F067FEAD
:1028000004E02079332801D100F0FAFD00F0AAF9A4
:1028100070BD70B504460D46012D13D16078312886
:1028200002D100F020FE0AE06078322802D100F0E8
:102830004EFE04E06078332801D100F0E1FD00F0A5
:10284000E6F914E0022D12D16079312802D100F0AE
:102850000AFE0AE06079322802D100F038FE04E076
:102860006079332801D100F0CBFD00F0D0F970BDC4
:1028700070B504460D46012D13D1A078312802D140
:1028800000F0F1FD0AE0A078322802D100F01FFE2E
:1028900004E0A078332801D100F0B2FD00F0EAF99D
:1028A00014E0022D12D1A079312802D100F0DBFD15
:1028B0000AE0A079322802D100F009FE04E0A079F4
:1028C000332801D100F09CFD00F0D4F970BD10B5A3
:1028D000044600F002FA2078312802D100F063FEAD
:1028E0000AE02078322802D100F091FE04E020783E
:1028F000332801D100F024FE10BD10B5044600F0CD
:102900003FFA6078312802D100F04DFE0AE060788D
:10291000322802D100F07BFE04E06078332801D138
:1029200000F00EFE10BD10B5044600F07CFAA07851
:10293000312802D100F037FE0AE0A078322802D117
:1029400000F065FE04E0A078332801D100F0F8FD26
:1029500010BD10B5044600F0C0F92078312802D12E
:1029600000F0FAFE0AE02078322802D100F02BFFB6
:1029700004E02078332801D100F07FFE10BD10B5AF
:10298000044600F0FDF96078312802D100F0E4FE41
:102990000AE06078322802D100F015FF04E0607888
:1029A000332801D100F069FE10BD10B5044600F0D7
:1029B0003AFAA078312802D100F0CEFE0AE0A078E1
:1029C000322802D100F0FFFE04E0A078332801D1C4
:1029D00000F053FE10BD000070B505460E463446AB
:1029E00005E0FE4804600F2003F050F8A41EAC423E
:1029F000F7D270BD70B505460E46344605E0F7487F
:102A000004600D2003F042F8A41CAC42F7D970BD5D
:102A100070B505460E46344605E0F04804600F20C8
:102A200003F034F8A41CAC42F7D970BD70B505466C
:102A30000E46344605E0EA4884630F2003F026F88A
:102A4000A41CAC42F7D970BD70B505460E4634469D
:102A500005E0E44804600F2003F018F8641CAC4261
:102A6000F7D970BD10B54FF44870DC4908604FF4D9
:102A7000FA7003F00BF840F22440DA4908604FF492
:102A8000487003F003F84FF4487140F28B30FFF7C1
:102A9000BFFFC82002F0FAFF4FF45C7140F2BF3074
:102AA000FFF7C4FFC82002F0F1FF10BD10B54FF4CE
:102AB0004870CA49086002F0E9FF40F22440C94961
:102AC00008604FF4487002F0E1FF4FF4487140F2A3
:102AD0008B30FFF79DFFC82002F0D8FF4FF4337111
:102AE00040F2BF30FFF7A2FF10BD10B540F2BF307B
:102AF000BB4988634FF4487002F0C8FF40F224409D
:102B0000B84908604FF4487002F0C0FF40F28B30C3
:102B1000B24908604FF4FA7002F0B8FF10BD10B56A
:102B200040F22440AF4908604FF4FA7002F0AEFF63
:102B300040F2BF30AA4988634FF4967002F0A6FFB6
:102B400040F28B30A54908604FF4FA7002F09EFF06
:102B50004FF44870A149091D08604FF4FA7002F063
:102B600095FF10BD10B5A04800889C49091D08605C
:102B70004FF4487002F08AFF9C480088974908602B
:102B80004FF4617002F082FF40F2244198480088BF
:102B9000FFF75AFF4FF4487002F078FF954800881D
:102BA0008F4988634FF4487002F070FF40F28E2026
:102BB0008B4948634FF4487002F068FF40F22440AC
:102BC000884908604FF4487002F060FF40F2BF305F
:102BD000834988634FF4487002F058FF40F28B300D
:102BE0007E4908604FF4487002F050FF4FF4D770F0
:102BF0007A49091D08604FF4167002F047FF4FF440
:102C0000167077494863C82002F040FF10BD10B528
:102C1000794800887149091D08604FF4487002F036
:102C200035FF764800886D4908604FF4487002F01F
:102C30002DFF40F2244172480088FFF705FF4FF452
:102C4000487002F023FF6F480088654988634FF49D
:102C5000487002F01BFF40F28E20614948634FF438
:102C6000487002F013FFFFF75AFF4FF416705C49EB
:102C7000486310BD10B5644800885849091D0860B4
:102C80004FF4617002F002FF604800885349086009
:102C90004FF4487002F0FAFE40F224415C4800888C
:102CA000FFF7D2FE4FF4487002F0F0FE594800885A
:102CB0004B4988634FF4487002F0E8FE40F28E20E2
:102CC000474948634FF4487002F0E0FEFFF727FFE2
:102CD0004FF416704249486310BD10B540F28E2083
:102CE0003F494863404800883C49091D08604FF44B
:102CF000487002F0CBFE40F28B313C480088FFF771
:102D000087FEC82002F0C2FE3A4800883449886332
:102D10004FF4487002F0BAFE40F224413448008873
:102D2000FFF792FE4FF4487002F0B0FE4FF4397096
:102D30002B4948634FF4487002F0A8FE40F2BF30C0
:102D4000274988634FF4487002F0A0FE40F2244007
:102D5000244908604FF4487002F098FE40F28B302E
:102D60001E4908604FF4487002F090FE4FF4D7708F
:102D70001A49091D08604FF4487002F087FE10BD23
:102D800010B540F28E20164948631B48008813494D
:102D9000091D08604FF4487002F078FE40F28B3154
:102DA00016480088FFF734FEC82002F06FFE154871
:102DB00000880B4988634FF4487002F067FE40F2C8
:102DC00024410F480088FFF73FFE4FF4487002F09F
:102DD0005DFE4FF43970024948631DE0341800402D
:102DE0000040014034440140720100207001002085
:102DF0006E0100206C0100207A0100207801002083
:102E00007601002074010020820100208001002052
:102E10007E0100207C0100204FF4487002F036FE55
:102E2000FFF77DFE10BD10B540F28E20FE494863CD
:102E3000FE480088FE4908604FF4487002F026FE04
:102E400040F28B31FB480088FFF7E2FDC82002F01A
:102E50001DFEF9480088F44988634FF4487002F079
:102E600015FE40F22441F5480088FFF7EDFD4FF4D0
:102E7000487002F00BFE4FF43970EB4948634FF491
:102E8000487002F003FEFFF74AFE10BD10B54FF484
:102E90001670E5494863401002F0F8FD40F20A4020
:102EA000E74908604FF4967002F0F0FD40F23640BA
:102EB000DF49091F08604FF4967002F0E7FD4FF4F8
:102EC000D770DB4908604FF4FA7002F0DFFD40F282
:102ED000E240D549886310BD10B540F2FD30D449B9
:102EE000091F08604FF4FA7002F0D0FD4FF4E07053
:102EF000CF4908604FF4FA7002F0C8FD4FF4167025
:102F0000C9494863642002F0C1FD40F2C440C6498B
:102F100088634FF4FA7002F0B9FD40F23440C849BA
:102F2000086010BD10B540F2B710C14908604FF4F9
:102F3000487002F0ABFD40F2022140F2EE20FFF7B4
:102F400059FD4FF4967002F0A1FD40F20A40BC49D1
:102F500008604FF4487002F099FD40F23640B449E1
:102F6000091F08604FF4487002F090FD40F2E24003
:102F7000AD4988634FF4FA7002F088FD10BD10B5BA
:102F80004FF41670A84948634FF4E070A8490860F0
:102F90004FF4C87002F07AFD40F2E240A249886323
:102FA0004FF4967002F072FD40F21240A049091FE2
:102FB00008604FF4FA7002F069FD40F20A40A0493F
:102FC00008604FF4967002F061FD10BD10B54FF42B
:102FD00016709549486340F2C910954908604FF44E
:102FE000C87002F053FD40F294408F4988634FF45B
:102FF000967002F04BFD40F2B5308D49091F086014
:103000004FF4FA7002F042FD40F20A408C49086029
:103010004FF4967002F03AFD10BD10B58948008853
:10302000834908604FF4FA7002F030FD864800884A
:103030007D4988634FF4487002F028FD4FF44870D2
:103040007B49091F086002F021FD804800887C4907
:1030500008604FF4487002F019FD4FF448717C4845
:103060000088FFF7B9FC4FF4967002F00FFD4FF4A3
:1030700039706D4948634FF4487002F007FDFFF75F
:10308000F1FC10BD10B573480088694908606420E0
:1030900002F0FCFC70480088634988634FF41670A6
:1030A00002F0F4FC4FF448706149091F08604FF4C6
:1030B0002F7002F0EBFC69480088614908604FF40A
:1030C000487002F0E3FC4FF4487165480088FFF750
:1030D00083FCC82002F0DAFC4FF43E70524948638A
:1030E0004FF4487002F0D2FCFFF7BCFC10BD10B5E5
:1030F0005C4800884E490860C82002F0C7FC5A4866
:103100000088494988634FF4487002F0BFFC4FF4CF
:1031100048704749091F086002F0B8FC534800880E
:10312000474908604FF4487002F0B0FC4FF4487112
:103130004F480088FFF750FCC82002F0A7FC4FF46E
:103140003970394948634FF47A7002F09FFCFFF7F9
:1031500089FC10BD10B547480088354908604FF418
:10316000967002F093FC444800882F4988634FF41E
:10317000487002F08BFC4FF448702D49091F08601D
:1031800002F084FC3D4800882D4908604FF44870E7
:1031900002F07CFC4FF4487139480088FFF71CFCB2
:1031A000642002F073FC10BD10B536480088204939
:1031B00008604FF4967002F069FC334800881A49A1
:1031C00088634FF4487002F061FC4FF4487018496E
:1031D000091F086002F05AFC2C4800881849086052
:1031E0004FF4487002F052FC4FF4487128480088B0
:1031F000FFF7F2FB642002F049FC10BD10B5254832
:1032000000880B49086024480088074988634FF408
:10321000487002F03BFC4FF448700549091F0860F4
:1032200002F034FC1D483BE00040014082010020D8
:1032300038180040800100207C0100207E01002021
:1032400034440140FA000020F4000020F600002081
:10325000F800002002010020FC000020FE000020F9
:10326000000100200A0100200401002006010020C6
:1032700008010020120100200C0100200E01002096
:10328000100100201A010020140100201601002066
:1032900018010020220100201C0100201E01002036
:1032A0000088FE4908604FF4487002F0EFFB4FF4CD
:1032B0004871FB480088FFF78FFB642002F0E6FBB3
:1032C00010BD10B5F7480088F74988634FF448707F
:1032D00002F0DCFB4FF44870F449086002F0D6FBC2
:1032E000F3480088F149091D08604FF4487002F066
:1032F000CDFBF0480088E94908604FF4487002F0BF
:10330000C5FB4FF44871EC480088FFF765FB64206B
:1033100002F0BCFB4FF41670E34948634FF4487069
:1033200002F0B4FBFFF7C2FB10BD10B5E348008804
:10333000DD4988634FF4FA7002F0A8FB4FF448703F
:10334000DA49086002F0A2FBDD480088D749091D70
:1033500008604FF4487002F099FBDA480088CF49C2
:1033600008604FF4487002F091FB4FF44871D64862
:103370000088FFF731FBC82002F088FB4FF416707D
:10338000C94948634FF47A7002F080FBFFF78EFB67
:1033900010BD10B5CD480088C34988634FF448700C
:1033A00002F074FB4FF44870C049086002F06EFBF5
:1033B000C7480088BD49091D08604FF4487002F0F5
:1033C00065FBC4480088B54908604FF4487002F0B6
:1033D0005DFB4FF44871C0480088FFF7FDFAC82034
:1033E00002F054FB4FF41670AF4948634FF47A7003
:1033F00002F04CFBFFF75AFBC82002F047FB10BD60
:1034000010B5A8480088A84988634FF4487002F0B6
:103410003DFB4FF44870A549086002F037FBA44813
:103420000088A249091D0860C82002F02FFBA148AE
:1034300000889A4908604FF4487002F027FB4FF467
:1034400048719D480088FFF7C7FAC82002F01EFBAC
:103450004FF43970944948634FF4487002F016FBFA
:10346000FFF724FB10BD10B5944800888E4988638F
:103470004FF4487002F00AFB4FF448708B49086023
:1034800002F004FB8E4800888849091D08604FF44B
:10349000487002F0FBFA8B480088804908604FF4BE
:1034A000FA7002F0F3FA4FF4487187480088FFF78A
:1034B00093FAC82002F0EAFA4FF439707A49486367
:1034C0004FF4487002F0E2FAFFF7F0FA10BD10B5C1
:1034D0007E480088744988634FF4487002F0D6FA39
:1034E0004FF448707149086002F0D0FA78480088BB
:1034F0006E49091D08604FF4487002F0C7FA75481C
:103500000088664908604FF4FA7002F0BFFA4FF481
:10351000487171480088FFF75FFAC82002F0B6FAD8
:103520004FF43970604948634FF4487002F0AEFAC6
:10353000FFF7BCFA4FF4D7705C49091D086010BD55
:1035400010B566480088584988634FF4167002F039
:103550009DFA4FF448705549086002F097FA6048A8
:1035600000885249091D08604FF4487002F08EFA35
:103570005C480088494908604FF4487002F086FAB8
:103580004FF4487158480088FFF726FAC82002F027
:103590007DFA4FF4167044494863C82002F076FA69
:1035A000FFF784FA10BD10B5504800883E49886383
:1035B0004FF4167002F06AFA4FF448703B49086005
:1035C00002F064FA4A4800883849091D08604FF43F
:1035D000487002F05BFA47480088304908604FF4B1
:1035E000487002F053FA4FF4487143480088FFF7DF
:1035F000F3F9C82002F04AFA4FF416702A494863DA
:103600004FF4487002F042FAFFF750FA10BD10B5BF
:103610003A480088244988634FF4167002F036FA5D
:1036200040F25A20214908604FF4487002F02EFA07
:10363000334800881D49091D08604FF4487002F0A6
:1036400025FA30480088154908604FF4487002F0A8
:103650001DFA4FF448712C480088FFF7BDF9C820C7
:1036600002F014FA4FF416700F4948634FF4487093
:1036700002F00CFAFFF71AFA10BD10B523480088C3
:10368000094988634FF4167002F000FA4FF448704D
:103690000649086002F0FAF91D483BE03444014055
:1036A0002001002024010020004001403418004087
:1036B0002A01002026010020280100202C010020E2
:1036C000320100202E0100203001002034010020B2
:1036D0003A01002036010020380100203C01002082
:1036E000420100203E010020400100204401002052
:1036F0004A01002046010020480100204C01002022
:10370000520100204E0100205001002054010020F1
:103710005A0100200088464908604FF4487002F0C2
:10372000B5F944480088444908604FF4FA7002F043
:10373000ADF94FF4487141480088FFF74DF9322048
:1037400002F0A4F94FF416703D494863C82002F016
:103750009DF9FFF787F910BD10B53A480088384940
:1037600088634FF4167002F091F940F2EE20304970
:10377000091F08604FF4487002F088F93248008849
:103780002B490860322002F081F9322002F07EF9E4
:103790002E480088284908604FF4FA7002F076F944
:1037A00040F2EE212A480088FFF716F9322002F095
:1037B0006DF94FF4167022494863C82002F066F98B
:1037C000FFF750F910BD10B5224800881C498863E6
:1037D0004FF4167002F05AF94FF448701449091F5B
:1037E000086002F053F91C48008811490860322033
:1037F00002F04CF9322002F049F9184800880E49CD
:1038000008604FF4FA7002F041F94FF4487114481F
:103810000088FFF7E1F8322002F038F94FF4167013
:1038200007494863C82002F031F9FFF71BF910BDC2
:10383000381800405601002034440140580100204F
:10384000004001405C010020620100205E01002078
:1038500060010020640100206A0100206601002050
:103860006801002030B5014601F01F04C1F3451383
:10387000CA0AE50205EB43151544A8B230BD2DE98F
:10388000F04706460F4690469A46002445464FEAC2
:103890004800C0F103094AE07A1991B2321990B296
:1038A000524600F0D7FE7A1991B2321B90B25246BE
:1038B00000F0D0FE7A1B91B2321990B2524600F05D
:1038C000C9FE7A1B91B2321B90B2524600F0C2FE82
:1038D0003A1991B2721990B2524600F0BBFE3A19F1
:1038E00091B2721B90B2524600F0B4FE3A1B91B2F4
:1038F000721990B2524600F0ADFE3A1B91B2721BA3
:1039000090B2524600F0A6FEB9F1000F05DA04208D
:1039100000FB049000F1060907E0601B042101FB95
:10392000009000F10A09681E85B2601C84B2AC42A6
:10393000B2DBAC4237D17A1991B2321990B2524609
:1039400000F088FE7A1991B2321990B2524600F016
:1039500081FE7A1B91B2321990B2524600F07AFE83
:103960007A1B91B2321B90B2524600F073FE3A19A4
:1039700091B2721990B2524600F06CFE3A1991B2AF
:10398000721B90B2524600F065FE3A1B91B272195A
:1039900090B2524600F05EFE3A1B91B2721B90B29A
:1039A000524600F057FEBDE8F0872DE9FF4F83B087
:1039B000804689464946404600F042FE0598A0EB05
:1039C00008050698A0EB0906002D02DB01200290F5
:1039D00003E04FF0FF3002906D42002E02DB012029
:1039E000019003E04FF0FF30019076424FEA450A24
:1039F0004FEA460BB54219DDABEB0504002712E098
:103A000049464046109A00F025FE002C05DBA4EB49
:103A10000A04019848441FFA80F95C440298404423
:103A20001FFA80F87F1CAF42EADD18E0AAEB06041B
:103A3000002712E049464046109A00F00BFE002C89
:103A400005DBA4EB0B04029840441FFA80F85444B1
:103A5000019848441FFA80F97F1CB742EADD07B09D
:103A6000BDE8F08F2DE9F84305460C4616461F4683
:103A7000DDF820804EF67D700090A81982B22346B2
:103A800021462846FFF791FF42F6651004F1010C2C
:103A9000BC441FFA8CF305EB060CACF1010C1FFAC9
:103AA0008CF204F1010C1FFA8CF105EB060CACF161
:103AB000010C00901FFA8CF0FFF777FF42F66510BB
:103AC0000090E01983B2A81982B2E01981B22846A9
:103AD000FFF76BFF4EF67D700090E01983B22A4627
:103AE00021462846FFF761FF04F1010CBC44ACF10C
:103AF000020C1FFA8CF305F1010CB444ACF1020C7A
:103B00001FFA8CF204F1010C1FFA8CF105F1010C83
:103B10001FFA8CF0CDF80080FFF747FFBDE8F8836F
:103B20002DE9F84305460C4616461F46DDF8208071
:103B3000B8F1000F39D14EF67D700090A81982B20D
:103B4000234621462846FFF730FF42F6651004F170
:103B5000010CBC441FFA8CF305EB060CACF1010C14
:103B60001FFA8CF204F1010C1FFA8CF105EB060C24
:103B7000ACF1010C00901FFA8CF0FFF716FF42F633
:103B800065100090E01983B2A81982B2E01981B2E1
:103B90002846FFF70AFF4EF67D700090E01983B2C9
:103BA0002A4621462846FFF700FFB8F1010F39D118
:103BB00042F665100090A81982B223462146284695
:103BC000FFF7F3FE4EF67D7004F1010CBC441FFAC2
:103BD0008CF305EB060CACF1010C1FFA8CF204F12E
:103BE000010C1FFA8CF105EB060CACF1010C0090F6
:103BF0001FFA8CF0FFF7D9FE4EF67D700090E019A9
:103C000083B2A81982B2E01981B22846FFF7CDFE2F
:103C100042F665100090E01983B22A4621462846F4
:103C2000FFF7C3FEB8F1020F39D14FF6FF700090D5
:103C3000A81982B2234621462846FFF7B6FE4FF662
:103C4000FF7004F1010CBC441FFA8CF305EB060C69
:103C5000ACF1010C1FFA8CF204F1010C1FFA8CF18B
:103C600005EB060CACF1010C00901FFA8CF0FFF78D
:103C70009CFE4FF6FF700090E01983B2A81982B243
:103C8000E01981B22846FFF790FE4FF6FF700090D2
:103C9000E01983B22A4621462846FFF786FEBDE892
:103CA000F883F8B504460D4616461F4644F2082030
:103CB0002B463246294600902046FFF776FE48F212
:103CC00010406A1C93B291B2621C009090B23246CE
:103CD000FFF76BFE44F208203B462246294600903F
:103CE0002046FFF762FE48F21040631C9AB26B1C3C
:103CF00099B2631C009098B23B46FFF756FE4FF610
:103D0000FF703B463246394600902046FFF74DFE95
:103D10004FF6FF703B463246294600903046FFF78B
:103D200044FEF8BDF8B506460F4614461D464FF64C
:103D3000FF703B462246394600903046FFF735FE7D
:103D40004FF6FF702B463246394600903046FFF75B
:103D50002CFE48F210406A1E93B291B2721C009081
:103D600090B22246FFF721FE44F208202B4622465D
:103D7000294600903046FFF718FE48F21040631EB7
:103D80009AB27B1C99B2631E009098B22B46FFF743
:103D90000CFE44F208202B4622463946009020466D
:103DA000FFF703FEF8BD2DE9FF4F81B007468A46B5
:103DB0009B46DDF8388050E098F800003A284ADA4F
:103DC00098F80090B9F1300F04DBA9F1300000F051
:103DD000FF0907E0B9F12B0F02D14FF00A0901E00A
:103DE0004FF00009002531E000242BE0FA4901EBF7
:103DF000C91000EB4500005D009000261EE0802009
:103E000030410099084050B10AEB050291B207EB2E
:103E1000C402324490B2039A00F01CFC0CE00398F8
:103E2000584509D00AEB050291B207EBC4023244AF
:103E300090B25A4600F00EFC701CC6B2082EDEDBB3
:103E4000601CC4B2022CD1DB681CC5B2402DCBDB98
:103E500007F1130087B208F1010898F80000002864
:103E6000AAD105B0BDE8F08F2DE9F84F0746884686
:103E700093469A46DDF828900097B3E099F8000041
:103E800080283DDA99F800600D2E05D1009F08F1D9
:103E900010001FFA80F830E0202E03DDA6F120008C
:103EA00086B200E00026002422E000251CE004EB9E
:103EB0000610CA49085C80212941084040B108EB3E
:103EC000040291B27A1990B25A4600F0C3FB09E09D
:103ED000D34507D008EB040291B27A1990B252464A
:103EE00000F0B8FB681CC5B2082DE0DB601CC4B252
:103EF000102CDADB07F1080087B209F1010971E043
:103F0000002668E006EB0610B54911F8100099F894
:103F1000001088425DD106EB0610B14901EB40006C
:103F2000407899F80110884253D100244FE00025D1
:103F300020E006EB0610AA4901EB4000801C10F8B7
:103F4000141080202841014041B108EB040291B2D5
:103F50007A1990B25A4600F07DFB09E0D34507D0AC
:103F600008EB040291B27A1990B2524600F072FB4B
:103F7000681CC5B2082DDCDB002524E006EB06102A
:103F8000974901EB4000801C012101EB4401405C9A
:103F900080212941084048B108EB040291B27A1906
:103FA000083290B25A4600F055FB0AE0D34508D0DB
:103FB00008EB040291B27A19083290B2524600F02E
:103FC00049FB681CC5B2082DD8DB601CC4B2102C9C
:103FD000ADDB701C86B2322E94DB09F1020907F1C9
:103FE000100087B299F8000000287FF447AFBDE8C1
:103FF000F88F2DE9F05F0646884693469A46DDF82D
:104000002890E2E099F80000802835DA99F80070ED
:10401000202F03DDA7F1200087B200E00027002554
:1040200022E000241CE005EB07106C49095C8020AD
:104030002041014041B108EB050291B2321990B222
:104040005A4600F007FB09E0D34507D008EB05020C
:1040500091B2321990B2524600F0FCFA601CC4B220
:10406000082CE0DB681CC5B2102DDADB09F1010970
:1040700006F1080086B2A8E000279EE007EB870063
:1040800000EB4710574911F8100099F800108842CA
:104090007CD107EB870000EB4710524901EB400051
:1040A000407899F801108842F2D1002580E0002480
:1040B00023E007EB870000EB47104A4901EB400083
:1040C000801C05EB4501405C80212141084040B146
:1040D00008EB050291B2321990B25A4600F0BAFAD2
:1040E00009E0D34507D008EB050291B2321990B22E
:1040F000524600F0AFFA601CC4B2082CD9DB002491
:1041000026E007EB870000EB4710364901EB400043
:10411000801C05EB4501491C405C80212141084081
:1041200048B108EB050291B23219083290B25A46F2
:1041300000F090FA0AE0D34508D008EB050291B2EE
:104140003219083290B2524600F084FA601CC4B2B0
:10415000082CD6DB002427E007EB870000EB471094
:10416000204901EB4000801C05EB4501891C405CA7
:1041700080212141084050B108EB050291B232196B
:10418000103290B25A4600F065FA0BE013E0D345C6
:1041900008D008EB050291B23219103290B25246A3
:1041A00000F058FA601CC4B2082CD5DB681CC5B2FC
:1041B000182DFFF67CAF781C87B2142FFFF65EAF88
:1041C00009F1020906F1180086B299F800000028EA
:1041D0007FF418AFBDE8F09F019900081093000824
:1041E000829E00086AA500082DE9F05F0746884610
:1041F00092469946002531E000242BE019490A989F
:1042000001EBC01000EB850010F804B000261DE0A3
:104210008020304100EA0B0050B108EB050291B25A
:1042200007EBC402324490B2524600F013FA0BE09E
:10423000CA4509D008EB050291B207EBC40232442B
:1042400090B24A4600F006FA701CC6B2082EDFDBB8
:10425000601CC4B2042CD1DB681CC5B2202DCBDBA2
:10426000BDE8F09F019900081CB50121162003F05C
:1042700065FD4FF4E050009002208DF8050001200C
:104280008DF8040000208DF806006946F94802F018
:104290003BFA082000906946F74802F035FA4FF4DF
:1042A000806000906946F54802F02EFA1CBD00219E
:1042B000082116E000F0800222B10822EE4B1833EC
:1042C0001A8003E00822EC4B1A331A804FF4806204
:1042D000E84B1A331A809B1E1A804206100E4A1EA3
:1042E000D1B20029E6DC704710B504464FF4805087
:1042F000E0491A3108804010891E08802012FFF71B
:10430000D6FFE0B2FFF7D3FF4FF48050D949183100
:10431000088010BD10B504464FF48050D5491A31BD
:104320000880401008802046FFF7C1FF4FF48050FE
:10433000D0491831088010BD10B504464FF48050A4
:10434000CC491A3108804010891E08802046FFF7AA
:10435000AEFF4FF48050C7491831088010BDF0B54A
:1043600005460C4616461F462A20FFF7D3FF0020BD
:10437000FFF7E2FFE8B2FFF7DFFF0020FFF7DCFF07
:10438000B11CC8B2FFF7D8FF2B20FFF7C3FF0020F6
:10439000FFF7D2FFE0B2FFF7CFFF0020FFF7CCFF1F
:1043A000791CC8B2FFF7C8FF2C20FFF7B3FFF0BDA0
:1043B00070B506469F237F2200210846FFF7CFFFF6
:1043C0002C20FFF7A7FF002408E0002503E030467B
:1043D000FFF78AFF6D1CA02DF9D3641C802CF4D349
:1043E00070BD10B54FF48060A4494883642001F08B
:1043F0004DFB4FF48060A1490883322001F046FB59
:1044000010BD10B5FFF730FFFFF7EBFF1120FFF7EE
:1044100081FF782001F03AFBB120FFF77BFF0120FC
:10442000FFF78AFF2C20FFF787FF2D20FFF784FF7F
:10443000B220FFF76FFF0120FFF77EFF2C20FFF770
:104440007BFF2D20FFF778FFB320FFF763FF0120EC
:10445000FFF772FF2C20FFF76FFF2D20FFF76CFF97
:104460000120FFF769FF2C20FFF766FF2D20FFF7E3
:1044700063FFB420FFF74EFF0720FFF75DFFC0206A
:10448000FFF748FFA220FFF757FF0220FFF754FF76
:104490008420FFF751FFC120FFF73CFFC520FFF745
:1044A0004BFFC220FFF736FF0A20FFF745FF002031
:1044B000FFF742FFC320FFF72DFF8A20FFF73CFFE5
:1044C0002A20FFF739FFC420FFF724FF8A20FFF7D7
:1044D00033FFEE20FFF730FFC520FFF71BFF0E2054
:1044E000FFF72AFF3620FFF715FFC020FFF724FF54
:1044F000E020FFF70FFF0F20FFF71EFF1A20FFF746
:104500001BFF0F20FFF718FF1820FFF715FF2F20C4
:10451000FFF712FF2820FFF70FFF2020FFF70CFF07
:104520002220FFF709FF1F20FFF706FF1B20FFF7E0
:1045300003FF2320FFF700FF3720FFF7FDFE0020D9
:10454000FFF7FAFE0720FFF7F7FE0220FFF7F4FE61
:104550001020FFF7F1FEE120FFF7DCFE0F20FFF750
:10456000EBFE1B20FFF7E8FE0F20FFF7E5FE17200C
:10457000FFF7E2FE3320FFF7DFFE2C20FFF7DCFE23
:104580002920FFF7D9FE2E20FFF7D6FE3020FFF7B7
:10459000D3FE3020FFF7D0FE3920FFF7CDFE3F20BD
:1045A000FFF7CAFE0020FFF7C7FE0720FFF7C4FE93
:1045B0000320FFF7C1FE1020FFF7BEFE2A20FFF701
:1045C000A9FE0020FFF7B8FE0220FFF7B5FE00208D
:1045D000FFF7B2FE8220FFF7AFFE2B20FFF79AFE17
:1045E0000020FFF7A9FE0320FFF7A6FE0020FFF73B
:1045F000A3FE7B20FFF7A0FEF020FFF78BFE01203B
:10460000FFF79AFEF620FFF785FE0020FFF794FEE5
:104610003A20FFF77FFE0520FFF78EFE2920FFF7E7
:1046200079FE4EF67D70FFF7C3FE10BD30B505462E
:104630000C462846FFF76EFE2046FFF77DFE30BD94
:1046400030B504460D462B46224629462046FFF744
:1046500086FE30BD70B504460D461646681C83B212
:10466000601C82B229462046FFF779FE3046FFF7EC
:104670003BFE70BD000402400008024000100240F2
:1046800060B505460E4631462846FFF7D9FFE0B231
:10469000FFF752FE204660BD0146022906D00329DD
:1046A0000DD0042913D005291FD117E04FF0804207
:1046B000526A10B200224FF080435A6217E00D4A4E
:1046C000126812B2504200220A4B1A600FE00A4AE6
:1046D000126810B20022084B1A6008E0074A1268FC
:1046E00010B20022054B1A6001E0002000BF00BF9D
:1046F000704700002404004024080040240C0040BF
:104700001CB501217F2003F019FB00208DF8040067
:1047100001208DF80700C00200906946E34801F0CF
:10472000F3FF512000906946E14801F0EDFF4FF49E
:10473000607000906946DF4801F0E6FF4FF460408A
:1047400000906946DC4801F0DFFF4AF60320009044
:104750006946DA4801F0D8FF1CBD10B54FF400518E
:10476000D64802F033F84FF47A7110FB01F44FF49D
:104770000041D24802F02AF800EBC00101EB001022
:1047800004EB80044FF40061CC4802F01FF800EB0A
:10479000800004EB40044FF40071C84802F016F8A2
:1047A000204480B210BD10B51021C14802F00EF8AF
:1047B0004FF47A7110FB01F44021BD4802F006F875
:1047C00000EBC00101EB001004EB80040121B848AC
:1047D00001F0FCFF00EB800004EB40044FF40061AB
:1047E000B24801F0F3FF204480B210BD10B50121A2
:1047F000B24801F0EBFF4FF47A7110FB01F44FF473
:104800008041AD4801F0E2FF00EBC00101EB001078
:1048100004EB80048021A74801F0D8FF00EB800062
:1048200004EB40044FF40071A24801F0CFFF204494
:1048300080B210BD10B50221A04801F0C7FF4FF4AF
:104840007A7110FB01F44FF480719A4801F0BEFFB9
:1048500000EBC00101EB001004EB80044FF40041B9
:10486000954801F0B3FF00EB800004EB40044FF4E7
:104870000051914801F0AAFF204480B210BDF8B564
:10488000FFF7D8FF0446FFF7B1FF0546FFF78BFFA0
:104890000646FFF762FF07462B463246394688A098
:1048A000009403F0A1FBF8BD10B58A4800780528F4
:1048B00011D2DFE800F00304070A0D000CE000F05D
:1048C000C2F909E000F0CDF906E000F0E6F903E0F6
:1048D00000F0D5F900E000BF00BFFCF75EFB10BDA3
:1048E0002DE9F041FFF739FF0446FFF75CFF07466B
:1048F000FFF77CFF0546FFF79DFF064676480078E8
:10490000002835D173480078012831D10B2C05D00F
:104910006F2C03D040F2F33084420BD10F210120E1
:10492000FCF700FB0F210220FCF7FCFA6BA003F060
:104930005BFBB2E040F24C40844207D040F256406C
:10494000844203D040F24D4084420BD10F2103201A
:10495000FCF7E8FA0F210420FCF7E4FA61A003F069
:1049600043FB9AE0FFF7A0FF60A003F03DFB94E05B
:1049700059480078012825D156480078042821D1CB
:104980000B2F01D06F2F07D10A210320FCF7CAFAA1
:1049900058A003F029FB80E040F24C40874203D04E
:1049A00040F25640874207D10A210420FCF7BAFAA8
:1049B00052A003F019FB70E0FFF776FF51A003F05F
:1049C00013FB6AE044480078022835D1414800785A
:1049D000022831D10B2D05D06F2D03D040F2F330DA
:1049E00085420BD10F210320FCF79CFA0F210420F4
:1049F000FCF798FA39A003F0F7FA4EE040F24C4089
:104A0000854207D040F25640854203D040F24D40E7
:104A100085420BD10F210120FCF784FA0F210220DF
:104A2000FCF780FA2FA003F0DFFA36E0FFF73CFF37
:104A30002EA003F0D9FA30E02748007803282CD1C3
:104A400024480078032828D10B2E05D06F2E03D0E0
:104A500040F2F330864207D10A210220FCF762FAC5
:104A600024A003F0C1FA18E040F24C40864207D07F
:104A700040F25640864203D040F24D40864207D174
:104A80000A210120FCF74EFA1CA003F0ADFA04E065
:104A9000FFF70AFF1BA003F0A7FABDE8F081002092
:104AA0000D4908700B49087070470000000802406B
:104AB000000C0240001002400014024000180240A6
:104AC000BAECCDE25B2564202564202564202564B2
:104AD0005D0000008501002084010020CDF9D7F39E
:104AE00020000000CDF9D3D220000000BCCCD0F8CB
:104AF00020000000CDF9D7F300000000CDF9D3D29B
:104B000000000000BCCCD0F8000000001CB5012162
:104B1000302003F013F91E20009001208DF80400CE
:104B200000208DF806008DF8070002208DF80500A2
:104B30006946FE4801F0E8FDAA2000906946FC485D
:104B400001F0E2FD1CBD10B504463CB90221F84855
:104B500001F058FE0821F64801F052FE012C07D161
:104B60000221F34801F04CFE0821F14801F04AFE11
:104B7000022C07D10221EE4801F044FE0821EC4846
:104B800001F040FE10BD10B504463CB92021E848B4
:104B900001F038FE8021E64801F032FE012C07D1F9
:104BA0002021E34801F02CFE8021E14801F02AFE9B
:104BB000022C07D12021DE4801F024FE8021DC48B0
:104BC00001F020FE10BD10B504463CB91021D748B5
:104BD00001F018FE0421D54801F012FE012C07D186
:104BE0001021D24801F00CFE0421D04801F00AFE49
:104BF000022C07D11021CD4801F004FE0421CB483E
:104C000001F000FE10BD10B504463CB90221C748B2
:104C100001F0F8FD0821C54801F0F2FD012C07D193
:104C20000221C24801F0ECFD0821C04801F0EAFD74
:104C3000022C07D10221BD4801F0E4FD0821BB4848
:104C400001F0E0FD10BD10B50020FFF77CFF002053
:104C5000FFF799FF0020FFF7B6FF0020FFF7D3FF13
:104C600010BD10B50120FFF76EFF0120FFF78BFF8D
:104C70000120FFF7A8FF0120FFF7C5FF10BD10B509
:104C80000020FFF760FF0120FFF77DFF0120FFF705
:104C90009AFF0020FFF7B7FF10BD10B50120FFF706
:104CA00052FF0020FFF76FFF0020FFF78CFF01206D
:104CB000FFF7A9FF10BD10B50220FFF744FF022047
:104CC000FFF761FF0220FFF77EFF0220FFF79BFF47
:104CD00010BD10B50020FFF736FF0220FFF753FF8D
:104CE0000220FFF770FF0020FFF78DFF10BD10B509
:104CF0000220FFF728FF0020FFF745FF0020FFF705
:104D000062FF0220FFF77FFF10BD10B50120FFF703
:104D10001AFF0120FFF737FF0020FFF754FF0020A4
:104D2000FFF771FF10BD10B50020FFF70CFF00204A
:104D3000FFF729FF0120FFF746FF0120FFF763FF80
:104D400010BD10B50020FFF7FEFE0220FFF71BFF8D
:104D50000120FFF738FF0220FFF755FF10BD10B507
:104D60000446744800782044724908700846407828
:104D70002044487008468078204488700846C078EF
:104D80002044C8700846427801786BA003F02CF9E3
:104D900010BD10B5044667480078001B65490870CF
:104DA00008464078001B487008468078001B8870D1
:104DB0000846C078001BC8700846427801785EA09B
:104DC00003F012F910BD30B55D4C2478A04204DD2B
:104DD0005B4C2478574D2C702046594C2478A142C6
:104DE00004DD574C2478534D6C702146544C247884
:104DF000A24204DD524C24784E4DAC702246504CF9
:104E00002478A34204DD4E4C24784A4DEC702346AE
:104E10004C4C2478012C04D1002423462246214600
:104E20002046494C2060241D2160474C0C342260F0
:104E3000241F236030BD10B5F0EE401A30EEE14A79
:104E400034EE014AB0EE442A30EEA14A34EE414A33
:104E5000F0EE442A30EEE14A34EE414AB0EE443AF4
:104E600030EEA14A34EE014AF0EE443AB0EE420A86
:104E7000B4EEE20AF1EE10FA01D2B0EE620AB4EE3C
:104E8000C30AF1EE10FA01D2B0EE430AB4EEE30A1F
:104E9000F1EE10FA01D2B0EE630A2948007804EE70
:104EA000100AB8EE444AB4EEC40AF1EE10FA2FDD4F
:104EB000C2EE004A2248007804EE100AB8EE444AD6
:104EC00024EE844AB0EE442AC2EE804A1C480078A0
:104ED00004EE100AB8EE444A24EE844AF0EE442A66
:104EE000C3EE004A1648007804EE100AB8EE444AB1
:104EF00024EE844AB0EE443AC3EE804A104800786B
:104F000004EE100AB8EE444A24EE844AF0EE443A25
:104F1000BCEEE34A14EE104AA3B2BCEEC24A14EE51
:104F2000104AA2B2BCEEC34A10E0000000100240DA
:104F300000140240870100200925642C202564000C
:104F40008B010020860100203404014014EE104A39
:104F5000A1B2BCEEE24A14EE104AA0B2FFF733FF52
:104F600010BD000010B588B004460121082002F0F1
:104F7000E5FE0121880402F02AFF07220821F748F4
:104F800001F04DFC07220921F44801F048FC4FF4E0
:104F90008070069002208DF81C008DF81D00012005
:104FA0008DF81E008DF81F0006A9EC4801F0ACFB3F
:104FB0004FF40070069002208DF81C008DF81D0043
:104FC00000208DF81E008DF81F0006A9E34801F0AF
:104FD0009BFB02940020ADF80C00ADF80E00ADF87C
:104FE0001000ADF814000C20ADF8120002A9DC4846
:104FF00001F0B5FC0121DA4801F039FD012240F24F
:105000002551D74801F0E9FD4021D54801F017FEB0
:1050100027208DF8040002208DF8050003208DF86C
:10502000060001208DF8070001A801F07CFA4FF47A
:10503000A06001F073FA08B010BD10B5002440F272
:105040002551C74801F004FE002874D0C44801F07F
:105050003DFDC4B2C34804700078012807D1C2A046
:1050600000F003FEFDF7D9FFFDF77CFDECE2BD4843
:105070000078022807D1BEA000F0F7FDFEF702F885
:10508000FDF7C5FDE0E2B7480078032807D1BAA0D4
:1050900000F0EBFDFEF72BF8FDF7ECFDD4E2B14894
:1050A0000078042809D1B6A000F0DFFDFEF752F821
:1050B000FDF7FCFCFDF756FDC6E2AA48007805287E
:1050C00009D1B1A000F0D1FDFEF76EF8FDF7EEFCBE
:1050D000FDF79DFDB8E2A3480078062809D1ACA0F1
:1050E00000F0C3FDFEF78AF8FDF7E0FCFDF7C2FD16
:1050F000AAE29C480078072807D1A7A000F0B5FDD8
:10510000FDF7EBFDFEF7DDF89EE2964800780828F3
:1051100007D1A3A000F0A9FDFDF732FEFEF705F9C7
:1051200092E290480078092806D19FA000F09DFDEA
:10513000FEF72FF988E28CE28A4800780A2807D126
:105140009BA000F092FDFDF7C8FDFEF7F9F97BE2A8
:10515000844800780B2807D197A000F086FDFDF762
:105160000FFEFEF720FA6FE27E4800780C2807D188
:1051700093A000F07AFDFDF756FEFEF748FA63E2D1
:10518000784800780D2807D18FA000F06EFDFDF75C
:10519000A4FDFEF772FA57E2724800780E2807D194
:1051A0008BA000F062FDFDF7EBFDFEF7D5FA4BE2B8
:1051B0006C4800780F2807D187A000F056FDFDF756
:1051C00032FEFEF700FB3FE266480078102805D16A
:1051D00083A000F04AFDFDF77FFE35E261480078CC
:1051E000112805D180A000F040FDFDF7C8FE2BE29C
:1051F0005C480078122805D17EA000F036FDFDF74E
:10520000E5FE21E257480078132805D17BA000F085
:105210002CFDFDF73BFE17E252480078152805D11A
:1052200078A000F022FDFDF760FC0DE24D4800780B
:10523000162803D177A000F018FD05E24948007850
:10524000172804D14FF4397076494863FCE145488A
:105250000078182804D14FF4167072494863F3E1BE
:1052600040480078192803D16FA000F0FEFCEBE164
:105270003C4800781A280DD16DA000F0F6FC694872
:10528000406BC01C674948630846416B6AA002F046
:10529000ABFED9E1334800781B280DD169A000F09E
:1052A000E4FC6048406BC01E5E4948630846416BA1
:1052B00061A002F099FEC7E12A4800781C280FD1AE
:1052C00062A000F0D2FC5748806B6249097808441C
:1052D000544988630846816B5FA002F085FEB3E104
:1052E000204800781D280FD15EA000F0BEFC4D487C
:1052F000806B58490978401A4A4988630846816B8F
:1053000055A002F071FE9FE1164800781E280FD1CB
:1053100056A000F0AAFC574800684E490978084496
:10532000544908600846016853A002F05DFE8BE115
:105330000C4800781F280FD152A000F096FC4D4871
:10534000006844490978401A4A49086008460168DB
:1053500049A002F049FE77E198E00000000C02400D
:10536000004800408C010020735F310D0A000000EE
:10537000735F320D0A000000735F330D0A000000F6
:10538000785F310D0A000000785F320D0A000000DE
:10539000785F330D0A00000072305F310D0A0000A3
:1053A00072305F320D0A000072305F330D0A000068
:1053B00072315F310D0A000072315F320D0A000058
:1053C00072315F330D0A000072325F310D0A000046
:1053D00072325F320D0A000072325F330D0A000034
:1053E00071725F6F6E0D0A00746F705F7363616E30
:1053F0000D0A0000756E6465720D0A0072657365B2
:10540000740D0A006D6964646C6573746174650D74
:105410000A0000006B656C5F76616C75652D0D0A86
:1054200000000000004001406772617370330000AB
:105430007A6875612B0D0A0041726D302025640A6F
:10544000000000007A6875612D0D0A0041726D310F
:105450002B0D0A008D01002041726D312025640A58
:105460000000000041726D312D0D0A0041726D3255
:105470002B0D0A003444014041726D322025640A2C
:105480000000000041726D322D0D0A007348007853
:1054900020280FD172A000F0E8FB73480068734920
:1054A00009780844704908600846016870A002F055
:1054B0009BFDC9E06948007821280FD16FA000F05A
:1054C000D4FB6948006869490978401A6649086050
:1054D0000846016866A002F087FDB5E05F480078E5
:1054E000222811D167A000F0C0FB5F48001D0068B2
:1054F0005E49097808445C49091D0860084601684E
:1055000062A002F071FD9FE054480078232811D179
:1055100061A000F0AAFB5448001D006853490978B7
:10552000401A5149091D08600846016857A002F059
:105530005BFD89E04948007824280DD158A000F08F
:1055400094FB4A480078C01C484908700846017816
:1055500055A002F049FD77E04048007825280DD19C
:1055600053A000F082FB41480078C01E3F490870FC
:10557000084601784CA002F037FD65E03748007816
:10558000262805D14CA000F070FBFDF7A6FB5BE0E0
:1055900032480078272805D14BA000F066FBFDF7C4
:1055A000EFFB51E02D480078282805D14AA000F0F3
:1055B0005CFBFDF738FC47E028480078292805D136
:1055C00049A000F052FBFDF7CDFA3DE023480078FA
:1055D0002A2805D148A000F048FBFDF718FB33E06E
:1055E0001E4800782B2805D147A000F03EFBFDF7B0
:1055F00041FB29E0194800782C2805D146A000F08D
:1056000034FBFDF72FFA1FE0144800782D281BD13A
:105610004448416B44A002F0E7FC4248816BAFF282
:10562000C81002F0E1FC44480168AFF2B41002F087
:10563000DBFC0D4801680EA002F0D6FC0A48001DF4
:10564000016812A002F0D0FC40F225513B4801F065
:105650003AFB3A4801F03AFA10BD00008C010020F4
:1056600041726D332B0D0A00341800408D0100206B
:1056700041726D332025640A0000000041726D33D1
:105680002D0D0A0041726D342B0D0A0041726D34EC
:105690002025640A0000000041726D342D0D0A00BF
:1056A00074656D2B0D0A000074656D2025640A0079
:1056B00074656D2D0D0A000067726173705F706C08
:1056C00061796C6F6164310067726173705F706CD7
:1056D00061796C6F6164320067726173705F706CC6
:1056E00061796C6F61643300706C6163655F706CCD
:1056F00061796C6F61643100706C6163655F706CBF
:1057000061796C6F61643200706C6163655F706CAD
:1057100061796C6F6164330061726D5F6261636BAC
:1057200000000000004001400D0A0D0A41726D307A
:105730002025640A00000000344401400048004075
:1057400070B58AB004460E4640F2DC5501210804CB
:1057500002F04EFB0121102002F0F0FA0322052195
:10576000934801F05CF803220621914801F057F8B4
:105770006020089002208DF8240003208DF8250079
:1057800000208DF8260001208DF8270008A9884800
:1057900000F0BAFFB0B2ADF814000020ADF816006A
:1057A0000694ADF81C0005A9824801F048FB602072
:1057B000ADF800000120ADF802000020ADF80C00AB
:1057C000029569467B4801F0CFFB0821794801F03A
:1057D00058FD6020ADF800000120ADF802000295F0
:1057E0000020ADF80C006946724801F0F6FB082174
:1057F000704801F04FFD01216E4801F08BFB012143
:105800006C4801F096FF01216A4801F0A1FB0AB043
:1058100070BD70B58AB004460D4640F2DC560121D9
:10582000480402F0E5FA0121202002F087FA032261
:105830000621614800F0F3FF4020089002208DF817
:10584000240003208DF8250000208DF8260001207B
:105850008DF8270008A9584800F056FFA8B2ADF807
:1058600014000020ADF816000694ADF81C0005A940
:10587000524801F0E4FA6020ADF800000120ADF8D4
:1058800002000020ADF80C00029669464B4801F07A
:105890006BFB0821494801F0F4FC0121474801F065
:1058A00039FB0121454801F044FF0121434801F043
:1058B0004FFB0AB070BD70B58AB004460E4640F288
:1058C000DC550121402002F082FA0121022002F081
:1058D00035FA09220E213A4800F0A1FF09220F21D2
:1058E000374800F09CFF4FF44040089002208DF8AC
:1058F000240003208DF8250000208DF826000120CB
:105900008DF8270008A92E4800F0FEFEB0B2ADF8D1
:1059100014000020ADF816000694ADF81C0005A98F
:10592000284801F08CFA6020ADF800000120ADF8A5
:10593000020002950020ADF80C006946214801F0F4
:1059400013FB08211F4801F09CFC6020ADF800000B
:105950000120ADF802000020ADF80C000295694668
:10596000184801F03AFB0821164801F093FC012188
:10597000144801F0CFFA0121124801F0DAFE0121AA
:10598000104801F0E5FA0AB070BD10B540F24F11B1
:1059900042F20F70FFF7D4FE40F24F1142F20F7047
:1059A000FFF737FFA72142F20F70FFF784FF10BD0A
:1059B0000010024000400140001402400044014039
:1059C000000402400018004010B504466FF00400C7
:1059D00000F0F6FDE11704EB5171C1F3C701394A3C
:1059E00011701046007800EB4001C1EBC0104FF67B
:1059F000FF7101EAC0003449088010BD0146314AF8
:105A000012784A434FF0E0235A6100229A611A4605
:105A1000126942F001021A6100BF4FF0E0221069E2
:105A200000F001021AB100F48032002AF5D04FF0E4
:105A3000E022126922F001024FF0E0231A610022F5
:105A40009A6170470146204A12884A434FF0E0238A
:105A50005A6100229A611A46126942F001021A61E3
:105A600000BF4FF0E022106900F001021AB100F40B
:105A70008032002AF5D04FF0E022126922F00102B4
:105A80004FF0E0231A6100229A61704770B5044616
:105A90004FF4077094FBF0F0C6B24FF4077094FB1C
:105AA000F0F100FB114085B205E04FF40770FFF7FD
:105AB000C9FF701EC6B2002EF7D115B12846FFF7F8
:105AC000C1FF70BD8E01002090010020014600BF83
:105AD000704700BF4C4A128802F04002002AF9D0F9
