:020000040800F2
:10000000180900203D7E00086D1000086F100008E0
:1000100073100008771000087B1000080000000033
:100020000000000000000000000000007F10000839
:1000300081100008000000008310000885100008EF
:10004000577E0008577E0008577E0008577E00083C
:10005000577E0008577E0008577E0008577E00082C
:10006000577E0008577E0008577E0008577E00081C
:10007000577E0008577E0008577E0008577E00080C
:10008000577E0008577E0008577E0008577E0008FC
:10009000577E0008577E0008577E0008577E0008EC
:1000A000577E0008577E0008577E0008577E0008DC
:1000B000BB7800088D790008617A0008577E000837
:1000C000577E0008577E0008577E0008577E0008BC
:1000D000577E00081D730008E3740008F3660008EB
:1000E000577E0008577E0008577E0008577E00089C
:1000F000577E0008577E0008577E0008577E00088C
:10010000577E0008577E00082F7B0008577E0008A6
:10011000577E0008577E0008373600080F7C00081D
:10012000577E0008577E0008577E0008577E00085B
:10013000577E0008577E0008577E0008577E00084B
:10014000577E0008577E0008577E0008577E00083B
:10015000577E0008577E0008577E0008577E00082B
:10016000577E0008577E0008577E0008577E00081B
:10017000577E0008577E0008577E0008577E00080B
:10018000577E0008577E000800F002F800F075F86E
:100190000AA090E8000C82448344AAF10107DA45E2
:1001A00001D100F06AF8AFF2090EBAE80F0013F0BF
:1001B000010F18BFFB1A43F00103184710C10000DC
:1001C00030C100000A444FF0000C10F8013B13F05E
:1001D000070408BF10F8014B1D1108BF10F8015BA0
:1001E000641E05D010F8016B641E01F8016BF9D193
:1001F00013F0080F1EBF10F8014BAD1C0C1B09D1EA
:100200006D1E58BF01F801CBFAD505E014F8016B5B
:1002100001F8016B6D1EF9D59142D6D370470000ED
:100220000023002400250026103A28BF78C1FBD8FF
:10023000520728BF30C148BF0B60704766290AF0DB
:100240005585642909F0B683782909F0EF8363297D
:1002500009F02A87732909F02F87002070471FB5FE
:100260000AF03FFD09F03EFF0400002000210AF0E3
:10027000ABFCE0601FBD10B510BD0AF04FF8114691
:10028000FFF7EDFF00F008F80AF06DF803B4FFF790
:10029000F2FF03BC06F0DEFF08B54FF4A06007F0E4
:1002A000EDFDA82006F054FF4FF4E13006F0E0FF2A
:1002B0004FF4165007F0ECF94FF4E13006F0AEF9C8
:1002C00006F0C9FE04F00CF806F0E4FE06F020FF8C
:1002D00005F09DFA05F040FC05F074FF532140F253
:1002E000F31007F027FD07F089FA07F0F5FA07F099
:1002F0005DFB07F0C5FB42F2CF01962007F026FC1C
:1003000006F035F8002005F059FAF74800234FF6BB
:10031000FF7201210090084604F04BFFF3A009F0A2
:1003200013FBFDE3002006F0CAFE012810D1F249BC
:1003300008604FF47A7006F06DFF0020EF49C1F8B5
:10034000B40202F075FC05F02CFF0120EC490870A6
:10035000EC48007801280ED1EB48EC4909680160AF
:100360000078EB49087008460178EAA009F0ECFA39
:100370000020E4490870E64800786A2877D2DFE870
:1003800000F035424F5C697784919EA2767676764E
:100390007676A6ACB2F0F8EDECEBEAE97676767616
:1003A0007676E8E7E6E5E4E3E2E1E0DF76767676A6
:1003B0007676DEDDDCDBDAD9D8D7D6767676767659
:1003C0007676D5D4D3D2D1D0CFCECDCC7676767644
:1003D0007676CBCAC9C8C7C6C5C4C3C27676767698
:1003E0007676C1C0BFBE7676BDBCBBBA0020C4491C
:1003F0000870CC4CE378A2786178207806F03FF85A
:1004000005F07DFF73E20020BD490870C54CE3781C
:10041000A2786178207806F032F805F07EFF66E277
:100420000020B7490870BF4CE378A2786178207843
:1004300006F025F805F08DFF59E20020B04908705C
:10044000B84CE378A2786178207806F018F805F0C7
:1004500072FF4CE20020AA490870B24CE378A278FF
:100460006178207806F00BF805F09DFF3FE23DE251
:100470000020A3490870AB4CE378A278617820781B
:1004800005F0FDFF05F081FF31E200209C49087076
:10049000A44CE378A2786178207805F0F0FF05F0AD
:1004A00090FF24E20020964908709E4CE378A278E1
:1004B0006178207805F0E3FF05F091FF17E2012055
:1004C0008D49086013E200208B4908600FE200208C
:1004D0008B49087005F04BFF09E20020884908703D
:1004E00005F045FF03E202F0A3FB05F05AFE0120F0
:1004F00083490870FBE18CE083E07AE071E0EDE194
:10050000E4E1DBE1D2E1C9E1C0E1B7E1AEE1A5E1BF
:100510009CE193E18AE181E178E16FE166E15DE1EF
:1005200054E14BE142E139E130E127E11EE115E11F
:100530000CE103E1D0E0C7E0BEE0BCE0B7E0B2E030
:10054000A9E0A0E097E08EE089E084E07FE073E03E
:1005500067E03EE035E02CE023E01AE011E008E03F
:10056000FFE702F065FB05F01CFE022064490870FD
:10057000BDE102F05DFB05F014FE03206049087048
:10058000B5E102F055FB05F00CFE04205C49087053
:10059000ADE102F04DFB05F004FE0520584908705E
:1005A000A5E102F045FB05F0FCFD0620544908706A
:1005B0009DE102F03DFB05F0F4FD07205049087075
:1005C00095E102F035FB05F0ECFD08204C49087080
:1005D0008DE102F02DFB05F0E4FD0920484908708B
:1005E00085E102F025FB05F0DCFD0A204449087096
:1005F0007DE102F01DFB05F0D4FD0B2040490870A1
:1006000075E102F015FB05F0CCFD0C203C490870AB
:100610006DE102F00DFB05F0C4FD0D2038490870B6
:1006200065E105220121002000F098FF3E480069A5
:10063000401D3D4908615AE105220021084600F0AD
:100640008DFF39480069401F374908614FE137A0E5
:1006500006F003FF4BE136A006F0FFFE47E135A0B0
:1006600006F0FBFE43E102F0E3FA05F09AFD1420E8
:10067000234908703BE102F0DBFA05F092FD1520FA
:100680001F49087033E102F0D3FA05F08AFD162005
:100690001B4908702BE102F0CBFA05F082FD172010
:1006A0001749087023E10120234908701FE1002049
:1006B000214908701BE11AE102F0BAFA05F071FD58
:1006C00018200F49087012E102F0B2FA05F069FD36
:1006D00019200B4908700AE102F0AAFA05F061FD41
:1006E0001A200749087002E1D1010020B3F5CABC05
:1006F000BBAFCDEAB3C90A00B48240420080404299
:10070000EC00002001000020060000200200002074
:1007100010000020CAD5B5BD7531D6B8C1EEA3BA58
:1007200025780A00B001002094010020310000006B
:100730003200000033000000AF01002002F078FA20
:1007400005F02FFD1B20F8490870D0E002F070FA88
:1007500005F027FD1C20F4490870C8E002F068FA93
:1007600005F01FFD1D20F0490870C0E0B7EE000A3B
:1007700001221146104600F08FFDB8E0B7EE000AE6
:1007800000220121084600F087FDB0E09FEDE70A56
:1007900001220221104600F07FFDA8E09FEDE30A50
:1007A00000220221012000F077FDA0E0B7EE000A50
:1007B00001220321104600F06FFD98E0B7EE000A19
:1007C00000220321012000F067FD90E0B7EE000A4F
:1007D00001221146022000F05FFD88E0B7EE000A1A
:1007E00000220121022000F057FD80E09FEDCF0A9A
:1007F00001220221084600F04FFD78E09FEDCB0A70
:1008000000220221084600F047FD70E0B7EE000A22
:1008100001220321022000F03FFD68E0B7EE000A4C
:1008200000220321022000F037FD60E0B7EE000A4D
:1008300001221146032000F02FFD58E0B7EE000A18
:1008400000220121032000F027FD50E09FEDB70AB0
:1008500001220221032000F01FFD48E09FEDB30AB2
:1008600000220221032000F017FD40E09FEDB00AB6
:1008700001220321084600F00FFD38E09FEDAC0A8D
:1008800000220321084600F007FD30E0B7EE000A21
:1008900001221146042000F0FFFC28E0B7EE000A18
:1008A00000220121042000F0F7FC20E09FED9F0AC8
:1008B00001220221042000F0EFFC18E09FED9B0ACA
:1008C00000220221042000F0E7FC10E09FED980ACE
:1008D00001220321042000F0DFFC08E09FED940AD0
:1008E00000220321042000F0D7FC00E000BF00BF7D
:1008F0006420904908709048007810287DD2DFE885
:1009000000F008092037529DC5F0EEEDECEBEAE966
:10091000E8E7D5E2012089490860AFF2F01006F05F
:10092000CFFD87A000234FF6FF72642100900220C4
:1009300004F0A0FC84A009F007F800207E490870AC
:10094000BEE201207D490860AFF21C2006F0B8FD30
:1009500082A000234FF6FF7264210090022004F071
:1009600089FC81A008F0F0FF002073490870A7E21D
:1009700083A000234FF6FF7264210090022004F050
:1009800079FC824802F087FF804802F09AFF7F4896
:1009900002F0ADFF02F04CF903206349087000201B
:1009A000654908708CE27AA008F0CEFF0020202371
:1009B000B42264210090022005F074F87DA0002389
:1009C0004FF6FF7264210090022004F053FC0121D5
:1009D0007D4803F024F801217B4803F04FF8012102
:1009E000794803F07AF879A008F0AEFF00202023C0
:1009F000B42264210090022000E060E205F052F889
:100A00007DA000234FF6FF7264210090022004F0C5
:100A100031FC01216C4803F0D5F801216A4803F04C
:100A200000F90121684803F02BF902F001F90420D4
:100A30003D49087000204049087041E273A008F069
:100A400083FF00202023B42264210090022005F0BF
:100A500029F876A000234FF6FF726421009002204F
:100A600004F008FC584803F03AF9574803F04DF9F0
:100A7000554803F060F902F0DBF805202A490870B8
:100A800003F0A7FC00202C49087019E26CA008F0C4
:100A90005BFF00202023B42264210090022005F097
:100AA00001F86EA000234FF6FF726421009002202F
:100AB00004F0E0FB642006F0ADFB01201F49086054
:100AC000AFF2903006F0FCFC00201B490870F7E103
:100AD000D4E18AE16DE14BE137E115E101E1DFE0CD
:100AE000FFE762A008F030FF00202023B422642139
:100AF0000090022004F0D6FF64A000234FF6FF729E
:100B000064210090022004F0B5FB644802F005FF68
:100B100002F08EF80620044908700020064900E023
:100B2000CFE10870CCE10000EC0000200AD7233CA4
:100B3000CDCCCC3D1000002011000020B4824042FA
:100B4000C9A8C2EB00000000BBFAD0B5B1DBC4A35A
:100B5000CABD5BC9A8C2EB5D0A0000004F56C9A818
:100B6000C3E8C9CFB2E30000BBFAD0B5B1DBC4A380
:100B7000CABD5B4F56C9A8C3E8C9CFB2E35D0A003E
:100B8000D7A5C8A1C9CFB2E300000000C901002069
:100B9000BBFAD0B5B1DBC4A3CABD5BB4D6BCD3B974
:100BA000A4C7F8B7C5D6C320C9CFB2E3C4A3CABD92
:100BB0005D0A0000B4D6BCD3B9A4C7F8C9CFB2E36C
:100BC000B7C5D6C300000000D1010020BBFAD0B5E4
:100BD000B1DBC4A3CABD5BB4D6BCD3B9A4C7F8D635
:100BE000D8D0C2D7A5C8A1CEEFC1CF20C9CFB2E31C
:100BF000C4A3CABD5D0A0000B4D6BCD3B9A4C7F86B
:100C0000D6D8D0C2D7A5C8A100000000BBFAD0B585
:100C1000B1DBC4A3CABD5BB0EBB3C9C6B7C7F8C9E3
:100C2000CFB2E3B7C5D6C35D0A000000B0EBB3C9CD
:100C3000C6B7C7F8C9CFB2E3B7C5D6C30000000036
:100C4000BBFAD0B5B1DBC4A3CABD5BC9A8C3E8CFAA
:100C5000C2B2E3CEEFC1CF5D0A000000C9A8C3E86D
:100C6000CFC2B2E3CEEFC1CF00000000BBFAD0B5D7
:100C7000B1DBC4A3CABD5BD7BCB1B8B5DAD2BBB4D3
:100C8000CED7A5C8A1CFC2B2E35D0A00B5DAD2BB08
:100C9000B4CED7A5C8A1CFC2B2E30000CD010020D9
:100CA00089A008F051FE00202023B4226421009086
:100CB000022004F0F7FE8BA000234FF6FF726421A0
:100CC0000090022004F0D6FA4FF439708849486346
:100CD00001F0AEFF072087490870002086490870A0
:100CE000EEE086A008F030FE03F00FF903F05FF9A4
:100CF0008A4802F029FE01F09BFF08207D49087018
:100D000000207D490870DBE085A008F01DFE002072
:100D10002023B42264210090022004F0C3FE87A0A7
:100D200000234FF6FF7264210090022004F0A2FA23
:100D30004FF439706E49486301F07AFF09206D491C
:100D4000087000206C490870BAE07FA008F0FCFD34
:100D500003F0DBF803F074F9704802F028FE01F0AC
:100D600067FF0A2063490870002063490870A7E004
:100D70007CA008F0E9FD00202023B422642100902B
:100D8000022004F08FFE7EA000234FF6FF72642144
:100D90000090022004F06EFA4FF439705449486311
:100DA00001F046FF0B20534908700D20524908708E
:100DB00086E076A008F0C8FD00202023B42264213C
:100DC0000090022004F06EFE78A000234FF6FF7220
:100DD00064210090022004F04DFA03F096F803F02D
:100DE0005FF90E20444908706AE073A008F0ACFD7A
:100DF00000202023B42264210090022004F052FE3F
:100E000077A000234FF6FF7264210090022004F0C7
:100E100031FA0221764802F002FE0221744802F003
:100E20002DFE0221724802F058FE72A008F08CFDDF
:100E300000202023B42264210090022004F032FE1E
:100E400077A000234FF6FF7264210090022004F087
:100E500011FA0221664802F0B5FE0221644802F050
:100E6000E0FE0221624802F00BFF01F0E1FE0C20DF
:100E70002049087000202049087021E06CA008F08B
:100E800063FD00202023B42264210090022004F09E
:100E900009FE71A000234FF6FF726421009002202A
:100EA00004F0E8F9524802F05CFF514802F078FF84
:100EB0004F4802F08BFF00200F49087000E000BF90
:100EC00000BFFFF72FBA0000BBFAD0B5B1DBC4A357
:100ED000CABD5BB5DAD2BBB4CED7A6D7D3B1D5BA2B
:100EE000CF5D0A00D7A6D7D3B1D5BACF3100000065
:100EF00000400140EC00002011000020BBFAD0B5FA
:100F0000B1DBC4A3CABD5BBBFAD0B5B1DBB5DAD2E5
:100F1000BBB4CECAD5BBD85D0A000000CD0100200D
:100F2000BBFAD0B5B1DBC4A3CABD5BB5DAB6FEB4BB
:100F3000CED7A6D7D3B1D5BACF5D0A00D7A6D7D31F
:100F4000B1D5BACF32000000BBFAD0B5B1DBC4A333
:100F5000CABD5BD7BCB1B8B5DAC8FDB4CED7A5C899
:100F6000A15D0A00BBFAD0B5B1DBC4A3CABD5BB5B5
:100F7000DAC8FDB4CED7A6D7D3B1D5BACF5D0A00B3
:100F8000D7A6D7D3B1D5BACF33000000BBFAD0B5BE
:100F9000B1DBC4A3CABD5BCFC2B2E3D7A5C8A1B5BC
:100FA000DAC8FDB4CEB4E6B7C55D0A00CFC2B2E37D
:100FB000B7C5D6C333000000BBFAD0B5B1DBC4A3BC
:100FC000CABD5BB4D6BCD3B9A4C7F8B7C5D6C3CE27
:100FD000EFC1CF20CFC2B2E3C4A3CABD5D0A0000F7
:100FE000BCD3B9A4C7F8CFC2B2E3B7C5D6C300001B
:100FF000D1010020BBFAD0B5B1DBC4A3CABD5BB43C
:10100000D6BCD3B9A4C7F8D6D8D0C2D7A5C8A1CE6C
:10101000EFC1CF20CFC2B2E3C4A3CABD5D0A0000B6
:10102000BCD3B9A4C7F8CFC2B2E3D7A5C8A100000A
:10103000BBFAD0B5B1DBC4A3CABD5BB0EBB3C9C6C4
:10104000B7C7F8B7C5D6C3CEEFC1CF20CFC2B2E382
:10105000C4A3CABD5D0A0000B0EBB3C9C6B7C7F8E8
:10106000CFC2B2E3B7C5D6C300000000704700BFCF
:10107000FEE700BFFEE700BFFEE700BFFEE77047E8
:1010800070477047704700000CB500200190009039
:101090007648006840F480307449086000BF7348A7
:1010A000006800F4003000900198401C0190009806
:1010B00018B90198B0F5A04FF1D16C48006800F460
:1010C000003010B10120009001E000200090009855
:1010D000012846D165484030006840F0805063499F
:1010E000403108606248006840F440406049086050
:1010F0005E48083000685D490831086008460068AD
:1011000040F4004008600846006840F4A0500860C1
:101110005848091F0860081F006840F08070091FC8
:10112000086000BF5148006800F000700028F9D046
:1011300040F20570504908604C480830006820F0C3
:1011400003004A49083108600846006840F0020080
:10115000086000BF45480830006800F00C0008280F
:10116000F8D10CBD10B54548006840F47000434903
:1011700008603E48006840F001003C4908600020DB
:101180003A4908310860394800683D490840374904
:1011900008603C48091D0860081F006820F4802092
:1011A000091F0860002031490C310860FFF76CFF0F
:1011B0004FF0006031498039086010BD70B50020E3
:1011C0000022022300240221284D08352D6805F055
:1011D0000C0020B1042806D0082834D107E02A4D9D
:1011E0002A4E356033E02A4D284E35602FE01F4DE2
:1011F0002D1D2D68C5F380541C4D2D1D2D6805F047
:101200003F0154B1224DB5FBF1F5184E361D36683D
:10121000C6F3881605FB06F209E01B4DB5FBF1F598
:10122000124E361D3668C6F3881605FB06F20F4DC2
:101230002D1D2D68C5F301456D1C6B00B2FBF3F548
:10124000124E356003E0104D104E356000BF00BFF8
:10125000064D08352D68C5F303150E4E705D0B4D18
:101260002D68C540094E356070BD00000038024051
:101270000070004008544007003C024088ED00E048
:10128000FFFFF6FE103000240024F40014000020BC
:1012900000127A001800002070B52DED088B84B084
:1012A00006460C461546B0EE408A012E06D0022EA8
:1012B0003BD0032E72D0042E6FD1A6E0012C0FD1AB
:1012C0003DB1F84890ED000A30EE080A80ED000AC2
:1012D00006E0F44890ED000A30EE480A80ED000A7E
:1012E000022C0FD13DB1F04890ED000A30EE080A13
:1012F00080ED000A06E0EC4890ED000A30EE480A66
:1013000080ED000A032C0FD13DB1E84890ED000AB2
:1013100030EE080A80ED000A06E0E44890ED000A8D
:1013200030EE480A80ED000AA7E0012C0FD13DB154
:10133000DF4890ED000A30EE080A80ED000A06E072
:10134000DB4890ED000A30EE480A80ED000A022CDE
:101350000FD13DB1D74890ED000A30EE080A80ED7C
:10136000000A06E0D34890ED000A30EE480A80ED0E
:10137000000A032C0FD13DB1CF4890ED000A30EEAA
:10138000080A80ED000A06E0CB4890ED000A30EE36
:10139000480A80ED000A70E000E06DE0012C0FD1FA
:1013A0003DB1C64890ED000A30EE080A80ED000A13
:1013B00006E0C24890ED000A30EE480A80ED000ACF
:1013C000022C0FD13DB1BE4890ED000A30EE080A64
:1013D00080ED000A06E0BA4890ED000A30EE480AB7
:1013E00080ED000A032C0FD13DB1B64890ED000A04
:1013F00030EE080A80ED000A06E0B24890ED000ADF
:1014000030EE480A80ED000A37E0012C0FD13DB1E3
:10141000AD4890ED000A30EE080A80ED000A06E0C3
:10142000A94890ED000A30EE480A80ED000A022C2F
:101430000FD13DB1A54890ED000A30EE080A80EDCD
:10144000000A06E0A14890ED000A30EE480A80ED5F
:10145000000A032C0FD13DB19D4890ED000A30EEFB
:10146000080A80ED000A06E0994890ED000A30EE87
:10147000480A80ED000A00E000BF00BF8B4800680A
:1014800009F0BEFB41EC190B8748006809F0B8FB76
:1014900041EC1A0B8348006809F0B2FB41EC1B0BCE
:1014A0008DED029B8DED00AB53EC1B2B89A008F05A
:1014B0004BFA8148006809F0A3FB41EC190B7D4809
:1014C000006809F09DFB41EC1A0B7948006809F0AF
:1014D00097FB41EC1B0B8DED029B8DED00AB53ECAC
:1014E0001B2B7CA008F030FA7648006809F088FBD6
:1014F00041EC190B7248006809F082FB41EC1A0BB1
:101500006E48006809F07CFB41EC1B0B8DED029BE3
:101510008DED00AB53EC1B2B6EA008F015FA6C4858
:10152000006809F06DFB41EC190B6848006809F090
:1015300067FB41EC1A0B6448006809F061FB41EC61
:101540001B0B8DED029B8DED00AB53EC1B2B67A0AD
:1015500008F0FAF904B0BDEC088B70BD052878D20C
:10156000DFE800F0035E7891E40061BB654BD3EDEA
:10157000000A00EE102AB8EE400A30EEC00A83EDF1
:10158000000A614BD3ED000A00EE102AB8EE400AC3
:1015900030EEC00A83ED000A5C4BD3ED000A00EE8A
:1015A000102AB8EE400A30EEC00A83ED000A584B0C
:1015B000D3ED000A00EE102AB8EE400A30EEC00A61
:1015C00083ED000A2BE04F4BD3ED000A00EE102A0A
:1015D000B8EE400A30EE800A83ED000A4A4BD3EDA4
:1015E000000A00EE102AB8EE400A30EE800A83EDC1
:1015F000000A464BD3ED000A00EE102AB8EE400A6E
:1016000030EE800A83ED000A414BD3ED000A00EE74
:10161000102AB8EE400A30EE800A83ED000A9FE0FF
:1016200059B9384BD3ED000A00EE102AB8EE400A43
:1016300030EEC00A83ED000A0AE0324BD3ED000A17
:1016400000EE102AB8EE400A30EE800A83ED000A60
:1016500086E084E059B92C4BD3ED000A00EE102A45
:10166000B8EE400A30EEC00A83ED000A0AE0264BCD
:10167000D3ED000A00EE102AB8EE400A30EE800AE0
:1016800083ED000A6CE059B9204BD3ED000A00EE5F
:10169000102AB8EE400A30EEC00A83ED000A44E09A
:1016A00038E00000400000204400002048000020F6
:1016B0004C00002050000020540000205800002062
:1016C0005C00002060000020640000206800002012
:1016D0006C0000205B25302E31662025302E3266CE
:1016E0002025302E31665D09000000005B25302E7C
:1016F00031662025302E32662025302E31665D0A77
:101700000000000070000020780000208000002011
:1017100088000020FE4BD3ED000A00EE102AB8EE40
:10172000400A30EE800A83ED000A19E059B9F94BFE
:10173000D3ED000A00EE102AB8EE400A30EEC00ADF
:1017400083ED000A0AE0F34BD3ED000A00EE102A05
:10175000B8EE400A30EE800A83ED000A00E000BFD8
:1017600000BF7047052835D2DFE800F003141C24C1
:101770002C0000EE101AB8EE400AE64A82ED000A8C
:10178000E34A82ED000AE44A82ED000AE34A82ED70
:10179000000A20E000EE101AB8EE400ADF4A82ED9F
:1017A000000A18E000EE101AB8EE400ADA4A82ED9C
:1017B000000A10E000EE101AB8EE400AD44A82ED9A
:1017C000000A08E000EE101AB8EE400AD14A82ED95
:1017D000000A00E000BF00BF7047D148007800F069
:1017E000800060B3CE48007800F07F0000EE100A61
:1017F000B8EEC00AC94880ED000AC948007800F078
:101800007F0000EE100AB8EEC00AC34880ED000A5F
:10181000C348007800F07F0000EE100AB8EEC00A5E
:10182000BB4880ED000ABE48007800F07F0000EE63
:10183000100AB8EEC00AB74880ED000A13E09FED29
:10184000B90AB64880ED000A9FEDB60AB24880EDAD
:10185000000A9FEDB40AAE4880ED000A9FEDB10A80
:10186000AC4880ED000A704700B50146AC480170F5
:10187000007840F08000AA4A1070FFF7AEFF00BD6C
:10188000012806D002282DD0032854D004287BD16B
:101890007BE091ED000AB8EEC00AA34AD2ED000A3F
:1018A000B4EEE00AF1EE10FA05DD92ED000ABDEEAD
:1018B000C00A81ED000A91ED000AB8EEC00A9A4A0A
:1018C000D2ED000AF1EE600AB4EEE00AF1EE10FA91
:1018D00007D292ED000AB1EE400ABDEEC00A81EDDA
:1018E000000A7CE091ED000AB8EEC00A8F4AD2ED02
:1018F000000AB4EEE00AF1EE10FA05DD92ED000AFE
:10190000BDEEC00A81ED000A91ED000AB8EEC00AF2
:10191000864AD2ED000AF1EE600AB4EEE00AF1EE7A
:1019200010FA07D292ED000AB1EE400ABDEEC00AED
:1019300081ED000A53E091ED000AB8EEC00A7C4A3E
:10194000D2ED000AB4EEE00AF1EE10FA05DD92EDF8
:10195000000ABDEEC00A81ED000A91ED000AB8EE62
:10196000C00A734AD2ED000AF1EE600AB4EEE00A52
:10197000F1EE10FA07D292ED000AB1EE400ABDEE88
:10198000C00A81ED000A2AE028E091ED000AB8EED5
:10199000C00A684AD2ED000AB4EEE00AF1EE10FA8D
:1019A00005DD92ED000ABDEEC00A81ED000A91ED61
:1019B000000AB8EEC00A5F4AD2ED000AF1EE600AF2
:1019C000B4EEE00AF1EE10FA07D292ED000AB1EEA1
:1019D000400ABDEEC00A81ED000A00E000BF00BF72
:1019E000704708B5F0EE401A4C4890ED000A31EE11
:1019F000C00AB0EE401A504890ED000A31EE400A9D
:101A0000B0EE402A4D4890ED000A30EE010A80ED1C
:101A1000000A90ED000ADFED4A0AB4EEE00AF1EEAA
:101A200010FA03D29FED460A80ED000A434890ED7C
:101A3000000ADFED440AB4EEE00AF1EE10FA03DD2D
:101A40009FED400A80ED000A3C4890ED000A3E48B8
:101A5000D0ED000A20EE200A3C4880ED000A3C4808
:101A600090ED000A60EE010AF2EE042A80EEA20A6E
:101A70003848D0ED000A60EE820AF2EE042A80EEC9
:101A8000A23A30EE030A3148D0ED000A30EE200AC7
:101A9000BDEEC00A8DED000A274880ED001A6946A8
:101AA0000120FFF7EDFE009808BD08B5F0EE401AE2
:101AB000194890ED000A31EEC00AB0EE401A2648EF
:101AC00090ED000A31EE400AB0EE402A234890ED36
:101AD000000A30EE010A80ED000A90ED000ADFED09
:101AE000180AB4EEE00AF1EE10FA03D29FED140AE0
:101AF00080ED000A194890ED000ADFED120AB4EEFD
:101B0000E00AF1EE10FA2DDD9FED0E0A28E000004C
:101B10008000002088000020780000207000002055
:101B20009000002000000C42740000207C00002087
:101B3000840000208C0000209C000020A0000020D9
:101B4000000048C20000484244000020A4000020D9
:101B50004000002048000020A8000020AC00002029
:101B600080ED000AF14890ED000AF148D0ED000A3E
:101B700020EE200AEF4880ED000AEF4890ED000AC1
:101B800060EE010AF2EE042A80EEA20AEB48D0EDE4
:101B9000000A60EE820AF2EE042A80EEA23A30EEEB
:101BA000030AE448D0ED000A30EE200ABDEEC00A78
:101BB0008DED000AE24880ED001A69460220FFF729
:101BC0005FFE009808BD08B5F0EE401ADD4890EDC4
:101BD000000A31EEC00AB0EE401ADB4890ED000A70
:101BE00031EE400AB0EE402AD84890ED000A30EEBF
:101BF000010A80ED000A90ED000A5FED2F0AB4EEB5
:101C0000E00AF1EE10FA03D21FED330A80ED000A6C
:101C1000CE4890ED000A5FED350AB4EEE00AF1EE31
:101C200010FA03DD1FED390A80ED000AC74890ED78
:101C3000000AC748D0ED000A20EE200AC54880ED12
:101C4000000AC54890ED000A60EE010AF2EE042A8F
:101C500080EEA20AC148D0ED000A60EE820AF2EEE0
:101C6000042A80EEA23A30EE030ABA48D0ED000A08
:101C700030EE200ABDEEC00A8DED000AB24880EDBC
:101C8000001A69460320FFF7FBFD009808BD08B560
:101C9000F0EE401AB24890ED000A31EEC00AB0EE04
:101CA000401AB04890ED000A31EE400AB0EE402AEA
:101CB000AD4890ED000A30EE010A80ED000A90ED8B
:101CC000000A5FED610AB4EEE00AF1EE10FA03D209
:101CD0001FED650A80ED000AA34890ED000A5FED54
:101CE000670AB4EEE00AF1EE10FA03DD1FED6B0AAD
:101CF00080ED000A9C4890ED000A9C48D0ED000A57
:101D000020EE200A9A4880ED000A9A4890ED000AD9
:101D100060EE010AF2EE042A80EEA20A9648D0EDA7
:101D2000000A60EE820AF2EE042A80EEA23A30EE59
:101D3000030A8F48D0ED000A30EE200ABDEEC00A3B
:101D40008DED000A874880ED001A69460420FFF7F0
:101D500097FD009808BDF0EE400A8849097801EE29
:101D6000901AF8EE611A70EEE11AB0EE610A844939
:101D7000D1ED001A70EE611AB0EE611A8149D1ED11
:101D8000001AB7EE002A71EE821AC1ED001AB3EE06
:101D90000E2AF4EEC21AF1EE10FA30DDDFED7A1AF7
:101DA000C1ED001A7949D1ED001A71EE801AC1ED2A
:101DB000001AD1ED001A9FED762AF4EEC21AF1EE68
:101DC00010FA03D2DFED721AC1ED001A6F49D1ED9E
:101DD000001A9FED702AF4EEC21AF1EE10FA03DD3C
:101DE000DFED6C1AC1ED001A6849D1ED001A6A499D
:101DF00091ED002A61EE821A6849C1ED001A684926
:101E0000D1ED001A21EE802ADFED662AC2EE221AF9
:101E1000654991ED002A22EE012AF2EE042A82EEB3
:101E2000223A71EE831A5D4991ED002A71EE821A11
:101E3000FDEEE11A11EE900A514981ED000A70475A
:101E4000F0EE400A4D49097801EE901AF8EE611A59
:101E500070EEE11AB0EE610A5449D1ED001A70EE4D
:101E6000611AB0EE611A5249D1ED001AB7EE002A9C
:101E700071EE821AC1ED001AB3EE0E2AF4EEC21A08
:101E8000F1EE10FA30DDDFED401AC1ED001A4949DC
:101E9000D1ED001A71EE801AC1ED001AD1ED001AD1
:101EA0009FED3B2AF4EEC21AF1EE10FA03D2DFEDF9
:101EB000381AC1ED001A3F49D1ED001A9FED352ABD
:101EC000F4EEC21AF1EE10FA03DDDFED321AC1EDC5
:101ED000001A3849D1ED001A374991ED002A61EE18
:101EE000821A3649C1ED001A3549D1ED001A21EEAA
:101EF000802ADFED2C2AC2EE221A324991ED002A07
:101F000022EE012AF2EE042A82EE223A71EE831AC0
:101F10002A4991ED002A71EE821AFDEEE11A11EEC6
:101F2000900A224981ED000A70470000AC000020B1
:101F300050000020B00000204C0000205400002081
:101F4000A800002080000020B4000020B80000207D
:101F50005C000020BC000020580000206000002031
:101F600088000020C0000020C4000020680000207D
:101F7000C8000020640000206C00002098000020B1
:101F8000CC000020D800002000000000D00000207D
:101F90000000FAC30000FA432C000020D400002007
:101FA000280000200000C84230000020DC00002093
:101FB000E8000020E000002038000020E4000020BD
:101FC000340000203C00002010B52DED088B86B0B9
:101FD000022003F08FFD041E01DB204600E060427A
:101FE000FD490860032003F085FD041E01DB204647
:101FF00000E06042F8494860042003F07BFD041EC5
:1020000001DB204600E06042F3498860052003F0D0
:1020100071FD041E01DB204600E06042EE49C8600D
:10202000EE48007800287BD1ED480078012836D1B1
:10203000ECA007F089FCE848D0ED000AF8EEE00AD1
:10204000B0EE600AFFF7CDFC4042E9490860E24883
:10205000D0ED010AF8EEE00AB0EE600AFFF725FDC8
:102060004042E349091D0860DB48D0ED020AF8EE62
:10207000E00AB0EE600AFFF7A6FD4042DC490C31F1
:102080000860D548D0ED030AF8EEE00AB0EE600A29
:10209000FFF7FDFD4042D649083108603AE0CE48DE
:1020A000D0ED000AF8EEE00AB0EE600AFFF799FC06
:1020B000D04909780844CE490860C748D0ED010AE4
:1020C000F8EEE00AB0EE600AFFF7EFFCC949497884
:1020D0000844C749091D0860BF48D0ED020AF8EE60
:1020E000E00AB0EE600AFFF76EFDC2498978084445
:1020F000BF490C310860B848D0ED030AF8EEE00A99
:10210000B0EE600AFFF7C3FDBA49C9780844B84980
:1021100008310860B648083000686438AE49486144
:10212000B5480078002844D0AB48C0680090AA4861
:10213000836842680168B1A007F006FCAC4808302B
:1021400000680090AA480C300368A948001D026886
:10215000001F0168AFA007F0F7FBB348006808F064
:102160004FFD41EC180BB148006808F049FD41EC07
:10217000190BAF48006808F043FD41EC1A0BAD485D
:10218000006808F03DFD41EC1B0B8DED048B8DEDDF
:10219000029B8DED00AB53EC1B2BA7A007F0D4FBEB
:1021A000AC480378AC480288AC480188ACA007F082
:1021B000CBFB06B0BDEC088B10BD10B5044603F098
:1021C000F8FCA649088003F01AFDA349088003F033
:1021D00039FDA949088003F059FDA8490880062067
:1021E000FFF742FB002C74D19C48008840F2E93193
:1021F000884213D19848008888420FD19E480088B1
:1022000088420BD19D480088884207D19CA007F0E6
:102210009BFB04F0ACF803F0C4FF5AE08F48008841
:1022200040F25641884205D08C48008840F24C412B
:10223000884229D18848008840F25641884205D01A
:102240008548008840F24C4188421DD18A48008868
:1022500040F25641884205D08748008840F24C4100
:10226000884211D18548008840F25641884205D005
:102270008248008840F24C41884205D182A007F094
:1022800063FB04F0ACF824E0744800886F2803D0A6
:10229000724800880B281CD16F4800886F2803D033
:1022A0006D4800880B2814D1734800886F2803D02C
:1022B000714800880B280CD1704800886F2803D023
:1022C0006E4800880B2804D172A007F03DFB04F093
:1022D00086F8012C73D16948008840F2E9318842C0
:1022E0000CD15D48008848B904F041F803F059FF6B
:1022F00000206B4908706B49087060E05648008800
:1023000098BB5E4800886F2809D05C48008840F27E
:10231000F331884203D0594800880B2802D103F0DA
:10232000FCFF4CE05548008840F2564188420AD0F4
:102330005248008840F24D41884204D04F480088FE
:10234000491E884202D103F0DAFF38E04B4800888A
:1023500040F25741884209D15148007830B903F022
:10236000DCFF16204E49087029E010E04348008841
:1023700040F25741884222D1494801780078401EF6
:10238000474A107001291AD103F0B9FF17E032480B
:1023900000880B2803D030480088012802D104F0BF
:1023A00010F80CE02C48008840F24C41884204D0E0
:1023B00029480088B0F57A7F01D104F010F8022C8A
:1023C00072D12D48008840F2E931884277D1234804
:1023D000008800B969E072E094010020AF0100209C
:1023E000F8000020CDA3B3B5C4A3CABD000000000F
:1023F00034040140B0010020F9000020B1E0C2EB3C
:10240000C6F75B25642025642025642025645D09CA
:102410000000000050574D5B256420256420256492
:102420002025645D09000000880000208000002055
:10243000780000207000002054535B252E30662069
:10244000252E306620252E306620252E30665D092B
:1024500000000000ED000020F2000020F00000204D
:10246000485B2564207C2025645D09737465705B7E
:1024700025645D0A00000000F4000020F600002042
:102480005BCDA3B3B55D00005B596177CFF2D7F3A5
:102490005D0000005B596177CFF2D3D25D00000090
:1024A000FA000020EC00002051E003F060FF03F090
:1024B00078FE0020FE490870FE4908708CE0FE4856
:1024C000008898BBFD4800886F2809D0FB48008829
:1024D00040F2F331884203D0F84800880B2802D13B
:1024E00003F029FF78E0F548008840F25641884221
:1024F0000AD0F248008840F24D41884204D0EF48AB
:102500000088491E884202D103F023FF64E0EB48B3
:10251000008840F25741884209D1E548007830B937
:1025200003F009FF1620E249087055E010E0E34887
:10253000008840F2574188424ED1DD48017800784A
:10254000401EDB4A1070012946D103F002FF43E030
:10255000D94800880B2803D0D7480088012802D129
:1025600003F02FFF38E0D448008840F24C41884205
:1025700004D0D1480088B0F57A7F02D103F02FFF54
:102580002AE0CD48008840F25641884205D0CA482A
:10259000008840F24C4188420CD1C848008840F283
:1025A0005641884203D0C54800880B2802D103F069
:1025B00016FF11E0C04800886F2803D0BE4800888D
:1025C0000B2809D1BD4800886F2803D0BB4800887C
:1025D0000B2801D103F003FFFFF7F6FC10BD10B587
:1025E00004460B2C78D2DFE804F07706111B253067
:1025F0003D4A57646D0003F082FE0020B049087028
:102600000120B049087003F097FB66E003F085FEF7
:102610000220AB490870AB49087003F08DFB5CE009
:1026200003F097FE0320A6490870A649087003F03E
:1026300083FB52E003F07FFE0120A14908700420D3
:10264000A049087003F078FB47E0002003F0D7FDB5
:10265000022003F0F4FD022003F011FE022003F03B
:102660002EFE3AE0022003F0CAFD002003F0E7FD51
:10267000022003F004FE022003F021FE2DE00220E0
:1026800003F0BDFD022003F0DAFD002003F0F7FDAA
:10269000022003F014FE20E0022003F0B0FD02202F
:1026A00003F0CDFD022003F0EAFD002003F007FE59
:1026B00013E003F024FE0020834908701E20FFF77A
:1026C000D3F80AE003F029FE01207F4908700020BA
:1026D000FFF7CAF801E0FFE700BF00BFFFF774FC97
:1026E00010BD10B503F065FA7349088003F087FA4E
:1026F000764908807648007888B903F00EFE0220FB
:102700006F4908706F4908700020724908701F20D7
:10271000714908706E480078401C6D49087003F0DC
:102720000BFB6D480078002808DD69480078012817
:1027300004D169480078401E6749087066480078EF
:1027400040B963480078012804D161480078401CF2
:102750005F4908705D48008840F2E931884208D13D
:102760005B480078022804D159480078401C584939
:1027700008705648008840F25641884208D15448B3
:102780000078032804D152480078401C5049087052
:102790004E48008840F2E931884208D14C48007820
:1027A000042804D14A480078401C49490870474829
:1027B000008840F25641884208D1454800780528F3
:1027C00004D143480078401C414908703F480088C4
:1027D00040F2E931884212D13D48007806280ED1F6
:1027E00003F0B7FD032036490870364908701F20F2
:1027F0003949087036480078401C35490870364819
:102800000078002808DD32480078072804D13248D3
:102810000078401E304908702F48007840B92C4895
:102820000078072804D12A480078401C28490870FD
:102830002148008840F2E931884208D124480078D4
:10284000082804D122480078401C214908701A4801
:10285000008840F25641884208D11D480078092876
:1028600004D11B480078401C19490870174800889B
:1028700050B9174800780A2806D103F04EFD1448D5
:102880000078401C124908700B48008878B910483D
:1028900000780B280BD103F06AFD03F082FC0020C6
:1028A000044908700A480078401C0949087010BDA6
:1028B000FA000020EC000020F0000020F4000020CE
:1028C000AC010020AD010020F8000020F200002043
:1028D000ED000020AE010020EE00002010B503F056
:1028E00068F9FE49088003F08AF9FD49088003F081
:1028F000CDF9FC490880FC48007888B92320FEF710
:10290000B3FF03F00AFD0220F8490870F849087087
:102910000120F8490870F4480078401CF24908701A
:1029200003F00AFAEE48008840F2E931884208D103
:10293000ED480078012804D1EB480078401CEA49B2
:102940000870E748008840F25641884208D1E648BE
:102950000078022804D1E4480078401CE24908705D
:10296000DF48008840F2E931884208D1DE4800782B
:10297000032804D1DC480078401CDB490870D848A3
:10298000008840F25641884208D1D7480078042890
:1029900004D1D5480078401CD3490870D04800883D
:1029A00040F25641884205D0CD48008840F2E931D6
:1029B000884218D1CC480078052814D11920FEF798
:1029C00053FF03F0C6FC0120CA4908700320C74921
:1029D0000870C74908702320C7490870C2480078AA
:1029E000401CC1490870C4480078002808DDBE4872
:1029F0000078062804D1C0480078401EBE490870FF
:102A0000BD48007840B9B8480078062804D1B648D7
:102A10000078401CB4490870B048008840F2E931A1
:102A2000884208D1B0480078072804D1AE48007821
:102A3000401CAD490870A948008840F256418842C0
:102A40000BD1A9480078082807D1A7480078401C76
:102A5000A54908700F20FEF707FFA048008840F244
:102A6000E931884203D09D4800886F280BD19E48E9
:102A70000078092807D19C480078401C9A490870C2
:102A80000720FEF7F1FE9548008840F25641884243
:102A90001AD1954800780A2816D193480078401C2E
:102AA0009149087003F063FC03F07BFB002093491D
:102AB0000870FEF792FE0020914908709148007856
:102AC00010B90F2090490870FFF77EFA10BD10B5BD
:102AD000044603F06EF88149088003F090F88049BD
:102AE00008808148007898B91920FEF7BDFEB3EE42
:102AF000090A864880ED000A03F02BFC03207B497D
:102B000008707B49087078480078401C7649087046
:102B100003F012F97148008840F2E93188420DD182
:102B200071480078012809D16F480078401C6E492F
:102B30000870002071490870FEF74FFE6748008852
:102B400040F25641884208D167480078022804D1F3
:102B500065480078401C644908706048008840F26D
:102B6000E931884208D160480078032804D15E48E2
:102B70000078401C5C4908705848008840F2564173
:102B8000884208D158480078042804D15648007873
:102B9000401C554908705148008840F2E93188428C
:102BA00016D151480078052812D10A20FEF75CFEA4
:102BB00003F0A5FB00204D49087001204C49087026
:102BC00000204C49087048480078401C464908706D
:102BD0004248008828BB44480078062825D142484E
:102BE0000078401C4049087003F0C1FB03F0D9FA9B
:102BF000002042490870FEF7F0FD9FED450A43486A
:102C000080ED000A002043490870434908702A20DB
:102C10003B4908703B48007818B91CB104203A4978
:102C2000087002E00E2038490870FFF7CDF910BD9A
:102C300000202D4908700A202F490870704710B5F0
:102C40000446601E3549085C322869D103F01EF83D
:102C5000244908802448007878B90F20FEF704FE44
:102C600003F069FB01202149087004202049087005
:102C70001D480078401C1C49087003F05DF8194895
:102C8000008858B918480078012807D110201A493F
:102C9000087015480078401C1349087016480078E1
:102CA000002808DD10480078022804D11248007876
:102CB000401E114908701048007840B90A48007851
:102CC000022804D108480078401C074908700648CB
:102CD000007803283FD10448007822E0F00000206B
:102CE000F2000020F6000020ED000020AC010020E2
:102CF000AD010020AE010020EE0000209000002079
:102D0000EC000020F90000201100002094000020B9
:102D100000000C42FD000020FE000020CD0100203C
:102D200026E0401CF949087003F021FB03F039FA52
:102D3000FFF77EFF0020F6490870FEF74EFD0020E9
:102D4000F4490870F448007800287DD1012C03D1A3
:102D50000820F249087077E0022C03D10A20EF49DD
:102D6000087071E0032C6FD10C20EC4908706BE007
:102D700002F045FFEA490880E448007878B90F205E
:102D8000FEF772FD03F0D7FA0120E649087004202F
:102D9000E5490870DD480078401CDC49087002F005
:102DA000CBFFDF48008858B9D8480078012807D100
:102DB0000320DE490870D5480078401CD3490870CC
:102DC000DA480078002808DDD0480078022804D1CD
:102DD000D6480078401ED5490870D448007840B9DC
:102DE000CA480078022804D1C8480078401CC74966
:102DF0000870C6480078032826D1C4480078401CD3
:102E0000C249087003F0B3FA03F0CBF9FFF710FFE3
:102E10000020BF490870FEF7E0FC0020BD490870A3
:102E2000BD48007880B9012C03D10820BB49087047
:102E30000AE0022C03D10A20B849087004E0032CF0
:102E400002D10C20B5490870FFF7BEF810BD10B5CF
:102E5000044602F0AEFEB6490880AC48007870B96E
:102E60000F20FEF701FD03F074FA0320AD4908704E
:102E7000AD490870A5480078401CA449087002F0CC
:102E80005BFFAB48008840F2E931884203D0A84894
:102E900000880B2822D19D48007801281ED19B482C
:102EA0000078401C9949087003F061FA03F079F941
:102EB000002097490870FEF790FC002095490870A3
:102EC0009548007850B9012C03D109209349087026
:102ED00004E0022C02D10B2090490870FFF774F82F
:102EE00010BD10B502F065FE9149088002F087FE22
:102EF0008B4908808548007850B903F01CFA0120FE
:102F00008849087004208849087001207F490870AA
:102F100002F012FF8648008840F2E931884208D169
:102F20007A480078012804D178480078401C774915
:102F300008707F48008840F25641884208D17348A3
:102F40000078022804D171480078401C6F4908704D
:102F50007748008840F2E931884208D16B48007810
:102F6000032804D169480078401C684908707048FB
:102F7000008840F25641884208D16448007804280D
:102F800004D162480078401C604908706848008895
:102F900040F2E931884208D15C480078052804D124
:102FA0005A480078401C594908706148008840F22E
:102FB0005641884208D155480078062804D1534824
:102FC0000078401C514908705948008840F2E931A6
:102FD000884208D14D480078072804D14B48007832
:102FE000401C4A4908705248008840F256418842C5
:102FF0000BD146480078082807D11920FEF734FC89
:1030000042480078401C414908704948008840F215
:10301000E93188421CD13D480078092818D103F0D5
:103020006EF90020434908703E49087001203E496E
:103030000870002036490870FEF7CFFB334800784F
:10304000401C32490870394800780B303749087005
:1030500036480078002808DD2C4800780A2804D17A
:1030600032480078401E314908703048007840B935
:10307000264800780A2804D124480078401C2349B7
:1030800008702748008840F2E931884208D11F487B
:1030900000780B2804D11D480078401C1B4908709B
:1030A0001F48008840F2564188420BD117480078EB
:1030B0000C2807D115480078401C144908700C20D2
:1030C000FEF7D2FB1648008840F2E93188421AD157
:1030D0000E4800780D2816D10C480078401C0B498A
:1030E000087003F044F903F05CF800200849087008
:1030F000FEF773FB0020074908700748007810B9F5
:10310000062006490870FEF75FFF10BDED000020A5
:1031100090000020EC000020F900002011000020A9
:10312000F2000020AC010020AD010020EE000020E4
:10313000F0000020AE01002010B502F03AFDFE497B
:10314000088002F05CFDFD49088002F09FFDFC490B
:103150000880FC48007888B92320FEF785FB03F03F
:10316000DCF80220F8490870F84908700120F84995
:103170000870F4480078401CF249087002F0DCFD49
:10318000EE48008840F2E931884208D1ED480078E5
:10319000012804D1EB480078401CEA490870E74850
:1031A000008840F25641884208D1E648007802285B
:1031B00004D1E4480078401CE2490870DF480088E8
:1031C00040F2E931884208D1DE480078032804D172
:1031D000DC480078401CDB490870D848008840F281
:1031E0005641884208D1D7480078042804D1D548F0
:1031F0000078401CD3490870D048008840F25641FE
:10320000884205D0CD48008840F2E931884218D183
:10321000CC480078052814D11920FEF725FB03F0CF
:1032200098F80120CA4908700320C7490870C749A7
:1032300008702320C7490870C2480078401CC14963
:103240000870C4480078002808DDBE4800780628C9
:1032500004D1C0480078401EBE490870BD480078BF
:1032600040B9B8480078062804D1B6480078401C18
:10327000B4490870B048008840F2E931884208D16A
:10328000B0480078072804D1AE480078401CAD490A
:103290000870A948008840F25641884208D1A948E0
:1032A0000078082804D1A7480078401CA549087078
:1032B000A148008840F2E931884208D1A14800784D
:1032C000092804D19F480078401C9E4908709A48FC
:1032D000008840F2564188420BD19A4800780A286B
:1032E00007D198480078401C964908700F20FEF7D7
:1032F000BBFA93480088D0B9924800780B2816D1C1
:1033000090480078401C8F49087003F030F802F0B4
:1033100048FF002090490870FEF75FFA00208F49AF
:1033200008708F48007810B905208E490870FEF7A4
:103330004BFE10BD10B502F03CFC7F49088002F046
:103340005EFC7E49088002F0A1FC7D4908807D4832
:10335000007860B92820FEF787FA02F0D0FF00203D
:10336000794908700120794908707649087002F09F
:10337000E3FC7248008840F2E931884208D1714884
:103380000078012804D16F480078401C6D4908700E
:103390006A48008840F25641884208D1694800785E
:1033A000022804D167480078401C664908706348C9
:1033B000008840F2E931884208D162480078032849
:1033C00004D160480078401C5E4908705B48008862
:1033D00040F25641884208D15A480078042804D166
:1033E00058480078401C574908705448008840F2FB
:1033F000E931884208D153480078052804D1514862
:103400000078401C4F4908704C48008840F25641F3
:1034100088420BD14B480078062807D149480078EC
:10342000401C484908700F20FEF71EFA43480088E8
:1034300040F2E931884203D0404800880B2811D17E
:103440004048007807280DD1FEF70EFA02F081FF00
:1034500003203D4908703D4908703A480078401CF7
:1034600038490870FEF7B0FD34480088D0B93548B7
:103470000078082816D133480078401C314908707C
:1034800002F075FF02F08DFE002033490870FEF750
:10349000A4F92920314908703148007810B9022078
:1034A0003049087010BD10B502F083FB2249088036
:1034B00002F0A5FB214908802248007860B923204A
:1034C000FEF7D2F902F06FFF1E480078401C1D493C
:1034D000087023201F4908701E480078002808DD66
:1034E00018480078012804D11A480078401E19496C
:1034F00008701148008840F2E931884218D111481B
:103500000078012814D11348007888B902F0F7FE3A
:103510001E20FEF7A9F900200D4908700A4908701D
:1035200001200A49087007480078401C05490870C6
:1035300002F002FC014817E0F0000020F200002039
:10354000F6000020ED000020AC010020AD010020BD
:10355000AE010020EE00002090000020EC000020D2
:10356000F900002011000020008840F2E931884273
:1035700007D1F948007820B9F7480078401CF6498F
:103580000870F648008840F25641884208D1F24857
:103590000078012804D1F0480078401CEE490870FA
:1035A000EE48008840F2E931884208D1EA480078C4
:1035B000022804D1E8480078401CE7490870E74831
:1035C000008840F2564188420FD1E3480078032832
:1035D0000BD1E3490870E0480078401CDE490870D0
:1035E000E0480078401CDF490870DD48007800287A
:1035F00008DDDC480078032804D1D9480078401E53
:10360000D7490870D648007890B9D6480078032882
:103610000ED102F0ACFE02F0C4FD0020D2490870C9
:10362000CD490870D148007810B90120D049087000
:10363000FEF7CAFC10BD10B50121CE4805F067FDAC
:1036400000286ED0C84800782B2878D2DFE800F038
:1036500016171A1D2124272B2F33373B3F4277772C
:103660007777777745494D5155595D61656B777728
:103670007777777777777777776F730060E0FFF703
:1036800012FF5DE0FFF756FE5AE00120FFF71FFA38
:1036900056E0FFF751FD53E0FFF723FC50E0012017
:1036A000FFF7CDFA4CE00120FFF7D1FB48E0022004
:1036B000FFF7C5FA44E00220FFF7C9FB40E0032012
:1036C000FFF7BDFA3CE00220FFF701FA38E0FFF710
:1036D00005F935E0FFF705F832E00120FEF77FFF3E
:1036E0002EE00220FEF77BFF2AE00320FEF777FFA3
:1036F00026E00420FEF773FF22E00520FEF76FFFAF
:103700001EE00620FEF76BFF1AE00720FEF767FFBA
:1037100016E00820FEF763FF12E00920FEF75FFFC6
:103720000EE012E00BE00A20FEF759FF08E001204E
:10373000FEF743FD04E00220FEF73FFD00E000BF7E
:1037400000BF01218B4805F0F3FC10BD10B502F05D
:1037500030FA8949088002F052FA8049088081488D
:10376000007878B90F20FEF77FF802F0E4FD012021
:10377000824908700420824908707A480078401C09
:103780007849087002F0D8FA74480088D0B97548B2
:103790000078012816D173480078401C71490870E0
:1037A00002F0E5FD02F0FDFC002076490870FEF70E
:1037B00014F800206C4908706C48007810B9082093
:1037C0006B490870FEF700FC10BD10B502F0F1F96E
:1037D0006949088002F013FA60490880614800785E
:1037E00070B90F20FEF740F802F0B3FD03206349E3
:1037F0000870634908705B480078401C594908709C
:1038000002F09AFA5C48008840F2E931884203D01D
:10381000594800880B281AD152480078012816D13F
:1038200050480078401C4F49087002F0A0FD02F09B
:10383000B8FC002053490870FDF7CFFF00204A492B
:1038400008704A48007810B9092049490870FEF705
:10385000BBFB10BD70B50546002419E0285D31287A
:1038600004D0322807D033280FD109E000F0D1FD71
:1038700000F09DFB0AE000F000FE00F0E1FB05E037
:1038800000F02FFE00F00CFC00E000BF00BF641C45
:10389000032CE3DB70BD10B504462078312802D13B
:1038A00000F0B7FD0AE02078322802D100F0E5FDF3
:1038B00004E02078332801D100F013FE00F077FBFC
:1038C00010BD10B504466078312802D100F0A1FD8A
:1038D0000AE06078322802D100F0CFFD04E0607881
:1038E000332801D100F0FDFD00F0AAFB10BD10B59A
:1038F0000446A078312802D100F08BFD0AE0A078C0
:10390000322802D100F0B9FD04E0A078332801D1BB
:1039100000F0E7FD00F0C4FB10BD10B504462078B0
:10392000312802D100F011FE0DE02078322802D1BA
:1039300000F034FE07E02078332804D100F057FE71
:1039400011A006F001F810BD10B5044660783128CA
:103950001ED100F0FAFD29E0FB000020F20000205B
:10396000EE000020ED000020EC000020F900002017
:103970001100002000100040F0000020AC010020E9
:10398000AD01002090000020D7A5BAECC9AB000023
:103990006078322805D100F001FEF7A005F0D4FFD1
:1039A00004E06078332801D100F021FE10BD10B58D
:1039B0000446A078312805D100F0C7FDF0A005F03D
:1039C000C3FF0AE0A078322802D100F0E7FD04E04E
:1039D000A078332801D100F00AFE10BD70B505466D
:1039E000052419E0285D312804D0322807D0332877
:1039F0000FD109E000F0A9FD00F0D9FA0AE000F0CB
:103A0000CDFD00F01DFB05E000F0F1FD00F048FBEE
:103A100000E000BF00BF641C082CE3DB70BD70B584
:103A200004460D46012D13D100F06AFB20783128A1
:103A300002D100F07AFE20E02078322802D100F096
:103A4000A6FE1AE02078332817D100F03CFE14E0DF
:103A5000022D12D100F054FB2079312802D100F060
:103A600064FE0AE02079322802D100F090FE04E0E2
:103A70002079332801D100F026FE70BD70B50446D0
:103A80000D46012D13D100F086FB6078312802D15C
:103A900000F04BFE20E06078322802D100F077FE83
:103AA0001AE06078332817D100F00DFE14E0022DE3
:103AB00012D100F070FB6079312802D100F035FEA0
:103AC0000AE06079322802D100F061FE04E06079FA
:103AD000332801D100F0F7FD70BD70B504460D46E6
:103AE000012D13D100F0AAFBA078312802D100F0FB
:103AF0001CFE20E0A078322802D100F048FE1AE037
:103B0000A078332817D100F0DEFD14E0022D12D189
:103B100000F094FBA079312802D100F006FE0AE003
:103B2000A079322802D100F032FE04E0A0793328D7
:103B300001D100F0C8FD70BD70B505460E460024E9
:103B4000012E1ED100BF19E0285D312804D0322893
:103B500007D033280FD109E000F0D2FA00F0E5FDDC
:103B60000AE000F018FB00F012FE05E000F066FB32
:103B700000F0A9FD00E000BF00BF641C032CE3DBE4
:103B80001FE0022E1DD1042419E0285D312804D045
:103B9000322807D033280FD109E000F0B1FA00F045
:103BA000C4FD0AE000F0F7FA00F0F1FD05E000F0D6
:103BB00045FB00F088FD00E000BF00BF641C072C3F
:103BC000E3DB70BD70B504460D46012D13D120789E
:103BD000312802D100F03FFE0AE02078322802D1DD
:103BE00000F06BFE04E02078332801D100F001FEE4
:103BF00000F056FA14E0022D12D12079312802D1BA
:103C000000F029FE0AE02079322802D100F055FEAA
:103C100004E02079332801D100F0EBFD00F040FAF8
:103C200070BD70B504460D46012D13D16078312862
:103C300002D100F010FE0AE06078322802D100F0D4
:103C40003CFE04E06078332801D100F0D2FD00F0A2
:103C5000F7F914E0022D12D16079312802D100F079
:103C6000FAFD0AE06079322802D100F026FE04E075
:103C70006079332801D100F0BCFD00F0E1F970BD9E
:103C800070B504460D46012D13D1A078312802D11C
:103C900000F0E1FD0AE0A078322802D100F00DFE2C
:103CA00004E0A078332801D100F0A3FD00F07FF9F3
:103CB00014E0022D12D1A079312802D100F0CBFD01
:103CC0000AE0A079322802D100F0F7FD04E0A079E3
:103CD000332801D100F08DFD00F069F970BD10B5F9
:103CE000044600F0ABFA2078312802D100F04DFEF6
:103CF0000AE02078322802D100F079FE04E0207832
:103D0000332801D100F00FFE10BD10B5044600F0BD
:103D100042FA6078312802D100F037FE0AE060787C
:103D2000322802D100F063FE04E06078332801D12C
:103D300000F0F9FD10BD10B5044600F0E1F9A078DF
:103D4000312802D100F021FE0AE0A078322802D109
:103D500000F04DFE04E0A078332801D100F0E3FD2F
:103D600010BD10B5044600F069FA207931280BD156
:103D700000F000FF13E00000D7A5C2CCC9AB0000E3
:103D8000D7A5C0B6C9AB00002079322802D100F017
:103D900023FF04E02079332801D100F05AFE10BD42
:103DA00010B5044600F0F7F96079312802D100F02F
:103DB000E1FE0AE06079322802D100F00DFF04E054
:103DC0006079332801D100F044FE10BD10B50446DF
:103DD00000F096F9A079312802D100F0CBFE0AE07C
:103DE000A079322802D100F0F7FE04E0A079332850
:103DF00001D100F02EFE10BD70B505460E463446CA
:103E000005E0FE480460092003F004FAE41EAC4219
:103E1000F7D270BD70B505460E46344605E0F7484A
:103E20000460092003F0F6F9A41CAC42F7D970BD78
:103E300070B505460E46344605E0F048046009209A
:103E400003F0E8F9A41CAC42F7D970BD70B5054683
:103E50000E46344605E0EA488463082003F0DAF9A8
:103E6000E41CAC42F7D970BD70B505460E46344629
:103E700005E0E44804600B2003F0CCF9A41CAC423C
:103E8000F7D970BD10B54FF44870DC490860322096
:103E900003F0C0F940F26A40DA490860642003F098
:103EA000B9F940F2523140F29330FFF7C1FF4FF4BD
:103EB000617140F2A130FFF7C9FFC82003F0AAF9F1
:103EC00010BD10B540F2E630CC49091D08604FF432
:103ED0004870091F0860322003F09CF940F26A40E4
:103EE000C8490860642003F095F940F2523140F26D
:103EF0008B30FFF79DFF4FF4617140F2A130FFF767
:103F0000A5FFC82003F086F910BD10B54FF4487026
:103F1000BA490860322003F07DF940F22440B949E3
:103F20000860642003F076F940F2523140F29D308F
:103F3000FFF77EFF40F2523140F2BF30FFF786FFBD
:103F400010BD10B540F2BF30AD4988631E2003F0AC
:103F500061F940F22440AB490860462003F05AF969
:103F600040F28B30A5490860642003F053F910BD7E
:103F700010B540F22440A349086040F2BF30A04988
:103F800088634FF4967003F045F940F28B309B49FB
:103F900008604FF4FA7003F03DF94FF44870974908
:103FA000091D08604FF4967003F034F910BD10B588
:103FB000954800889149091D08604FF4FA7003F094
:103FC00029F9924800888E498863642003F022F919
:103FD0008F48008889490860642003F01BF940F28B
:103FE00024418C480088FFF73FFF322003F012F98C
:103FF00089480088824948634FF4967003F00AF9B3
:1040000040F224407F49086040F2BF307C49886319
:10401000322003F0FFF840F28B30784908604FF40B
:10402000FA7003F0F7F84FF4D7707449091D08606F
:10403000C82003F0EFF84FF416707149486310BDC3
:1040400010B5764800886D49091D08604FF461700D
:1040500003F0E0F87248008869498863962003F00D
:10406000D9F87048008865490860642003F0D2F8E8
:1040700040F224416C480088FFF7F6FE322003F03E
:10408000C9F8654800885E4948634FF4967003F0AC
:10409000C1F8FFF76DFF4FF416705949486310BD22
:1040A00010B5624800885549091D08604FF44870F2
:1040B00003F0B0F85E48008851498863642003F03B
:1040C000A9F85C4800884D490860322003F0A2F846
:1040D00040F2244158480088FFF7C6FE322003F022
:1040E00099F84D480088464948634FF4967003F0AC
:1040F00091F8FFF73DFF4FF416704149486310BD3A
:1041000010B5454800883E4948633F4800883B4910
:10411000091D08604FF42F7003F07CF83B480088BD
:1041200037498863322003F075F8394800883349ED
:104130000860322003F06EF840F2244135480088D0
:10414000FFF792FE642003F065F84FF439702C49B4
:1041500048634FF4967003F05DF840F2BF30284991
:104160008863322003F056F840F224402549086065
:10417000322003F04FF840F28B30204908603220A3
:1041800003F048F84FF4D7701C49091D086032202D
:1041900003F040F810BD10B5322003F03BF81E4884
:1041A0000088174948631D4800881449091D0860A4
:1041B0004FF4617003F02EF81948008810498863A5
:1041C000322003F027F8174800880C490860642063
:1041D00003F020F840F2244113480088FFF744FE22
:1041E000322003F017F84FF43970054948634FF453
:1041F000967003F00FF8FFF7BBFE10BD34180040B7
:104200000040014034440140800100207A01002038
:104210007E0100207C010020000100208801002098
:1042200082010020860100208401002090010020EE
:104230008A0100208E0100208C01002010B5FE486C
:104240000088FE494863FE480088FE4908604FF434
:10425000617002F0DFFFFC480088F8498863322073
:1042600002F0D8FFF9480088F649091F0860642069
:1042700002F0D0FF40F22441F5480088FFF7F4FD3A
:10428000322002F0C7FF4FF43970EC4948634FF415
:10429000967002F0BFFFFFF76BFE10BD10B54FF434
:1042A0001670E649486340F20A40EA490860642013
:1042B00002F0B0FF40F23640E249091F08604FF4B7
:1042C000967002F0A7FF4FF4D770DE4908604FF4F4
:1042D000FA7002F09FFF40F2E240D849886310BDB7
:1042E00010B540F2FD30D749091F08604FF4FA704D
:1042F00002F090FF4FF4E070D24908604FF4FA707A
:1043000002F088FF4FF41670CC494863642002F035
:1043100081FF4FF46170C9498863C82002F07AFFB9
:1043200040F23440CB49086040F2C440C34988633E
:1043300010BD10B540F2B710C24908604FF4487084
:1043400002F068FF40F2022140F2EE20FFF762FD2A
:104350004FF4967002F05EFF40F20A40BD490860DB
:104360004FF4487002F056FF40F23640B549091F3D
:1043700008604FF4487002F04DFF40F2E240AF4950
:1043800088634FF4FA7002F045FF10BD10B54FF48A
:104390001670AA4948634FF4E070AA4908601420D7
:1043A00002F038FF40F2E240A4498863322002F074
:1043B00031FF40F21240A349091F0860322002F089
:1043C00029FF40F20A40A3490860322002F022FF90
:1043D00010BD10B54FF416709849486340F2C910EB
:1043E0009849086040F2944094498863322002F072
:1043F00011FF40F2B5309349091F0860642002F0B4
:1044000009FF40F20A4093490860642002F002FF6D
:1044100010BD10B5904800888A4908604FF4C870F4
:1044200002F0F8FE8D48008884498863322002F04B
:10443000F1FE4FF448708349091F08604FF49670ED
:1044400002F0E8FE86480088824908604FF4C87090
:1044500002F0E0FE40F2C62182480088FFF7CCFC63
:10446000642002F0D7FE4FF4397074494863C820C5
:1044700002F0D0FEFFF706FD10BD10B57A480088A7
:10448000704908604FF4C87002F0C4FE7748008895
:104490006A498863322002F0BDFE4FF448706949D2
:1044A000091F08604FF4967002F0B4FE704800884F
:1044B000684908604FF4967002F0ACFE40F2C621E5
:1044C0006C480088FFF798FC642002F0A3FE4FF4CC
:1044D0003E705A494863C82002F09CFEFFF7D2FCA8
:1044E00010BD10B564480088564908604FF42F701D
:1044F00002F090FE6148008850498863322002F043
:1045000089FE4FF448704F49091F08604FF49670B8
:1045100002F080FE5A4800884E4908604FF49670B9
:1045200002F078FE40F2C62156480088FFF764FC8E
:10453000642002F06FFE4FF4397040494863C82090
:1045400002F068FEFFF79EFC10BD10B54E480088D3
:104550003C4908604FF4967002F05CFE4B480088BE
:1045600036498863C82002F055FE4FF4487035493B
:10457000091F0860C82002F04DFE454800883549F3
:104580000860C82002F046FE40F28A2141480088B7
:10459000FFF732FC642002F03DFE10BD10B53E482E
:1045A0000088284908604FF4967002F033FE3B48BB
:1045B000008822498863C82002F02CFE4FF448701E
:1045C0002049091F0860C82002F024FE34480088F2
:1045D00020490860C82002F01DFE40F28A213148BF
:1045E0000088FFF709FC642002F014FE10BD10B52E
:1045F0002D480088134908604FF4967002F00AFEB7
:104600002A4800880D4988634FF4967002F002FE34
:104610004FF448700B49091F08604FF4967002F080
:10462000F9FD234800880B490860C82002F0F2FD1C
:1046300040F28A211F483FE0000100200040014075
:1046400090010020381800408A0100208E010020CF
:104650008C010020344401400801002002010020A8
:104660000401002006010020100100200A010020A2
:104670000C0100200E010020180100201201002072
:104680001401002016010020200100201A01002042
:104690001C0100201E010020280100202201002012
:1046A0002401002026010020300100202A010020E2
:1046B0002C0100202E0100200088FFF79DFB6420C4
:1046C00002F0A8FD10BD10B5FE480088FE49086044
:1046D0004FF4FA7002F09EFDFC480088FC498863A4
:1046E000322002F097FD4FF44870F749091F086027
:1046F000322002F08FFDF7480088F7490860322029
:1047000002F088FD4FF44871F4480088FFF774FB0D
:10471000322002F07FFD4FF41670ED494863C82047
:1047200002F078FDFFF7F1FB10BD10B5EC480088F2
:10473000E54908604FF4FA7002F06CFDE948008822
:10474000E3498863322002F065FD4FF44870DE498A
:10475000091F0860322002F05DFDE3480088DE4951
:104760000860322002F056FD4FF44871DF4800889F
:10477000FFF742FB322002F04DFD4FF41670D44992
:104780004863C82002F046FDFFF7BFFB10BD10B51F
:10479000D7480088CC4908604FF4167002F03AFD03
:1047A000D4480088CA498863322002F033FD4FF4B0
:1047B0004870C549091F0860322002F02BFDCE4821
:1047C0000088C5490860322002F024FD4FF448718A
:1047D000CA480088FFF710FB322002F01BFD4FF49F
:1047E0001670BB494863C82002F014FDFFF78DFB2B
:1047F00010BD10B5B3480088B34908604FF4167077
:1048000002F008FDB1480088B1498863322002F007
:1048100001FD4FF44870AC49091F0860142002F0F4
:10482000F9FCAC480088AC490860322002F0F2FC88
:104830004FF44871A9480088FFF7DEFA322002F0F1
:10484000E9FC4FF43970A2494863C82002F0E2FC49
:10485000FFF75BFB10BD10B5A14800889A490860BE
:104860004FF42F7002F0D6FC9E4800889849886368
:10487000322002F0CFFC4FF448709349091F0860C2
:10488000322002F0C7FC9848008893490860322023
:1048900002F0C0FC4FF4487194480088FFF7ACFA6E
:1048A000322002F0B7FC4FF4397089494863C820C0
:1048B00002F0B0FCFFF729FB10BD10B58C48008852
:1048C000814908604FF42F7002F0A4FC89480088E9
:1048D0007F498863322002F09DFC4FF448707A498A
:1048E000091F0860322002F095FC834800887A494D
:1048F0000860322002F08EFC4FF448717F48008837
:10490000FFF77AFA322002F085FC4FF439707049D3
:104910004863C82002F07EFCFFF7F7FA4FF4D77027
:104920006949086010BD10B575480088664908607F
:104930004FF4FA7002F06EFC724800886449886394
:10494000642002F067FC4FF448705F49091F08605B
:10495000322002F05FFC6C4800885F49086032201A
:1049600002F058FC4FF4487168480088FFF744FA99
:10497000642002F04FFC4FF4167055494863C8207C
:1049800002F048FCFFF7C1FA10BD10B5604800887E
:104990004D4908604FF4FA7002F03CFC5D48008815
:1049A0004B498863322002F035FC4FF44870464989
:1049B000091F0860322002F02DFC57480088464944
:1049C0000860322002F026FC4FF4487153480088FA
:1049D000FFF712FA322002F01DFC4FF416703C492A
:1049E0004863C82002F016FCFFF78FFA10BD10B51F
:1049F0004B480088344908604FF4FA7002F00AFC12
:104A00004848008832498863642002F003FC4FF470
:104A100048702D49091F0860322002F0FBFB424814
:104A200000882D490860322002F0F4FB4FF44871F1
:104A30003E480088FFF7E0F9642002F0EBFB4FF4FA
:104A4000167023494863C82002F0E4FBFFF75DFAC3
:104A500010BD10B5364800881B4908604FF4FA7045
:104A600002F0D8FB3348008819498863322002F0ED
:104A7000D1FB4FF448701449091F0860642002F00C
:104A8000C9FB2D48008814490860322002F0C2FB9F
:104A90004FF4487129480088FFF7AEF9642002F00E
:104AA000B9FB4FF416700A494863C82002F0B2FB04
:104AB0004FF448700449091F0860962002F0AAFBD1
:104AC0003EE000003801002038180040320100208C
:104AD00000400140340100203444014036010020F0
:104AE000400100203A0100203C0100203E0100204E
:104AF000480100204201002044010020460100201E
:104B0000500100204A0100204C0100204E010020ED
:104B100058010020520100205401002056010020BD
:104B2000600100205A0100205C0100205E0100208D
:104B3000680100206201002064010020660100205D
:104B400040F26A403F490860642002F063FB40F293
:104B5000523140F2BE30FFF76BF9962002F05AFB5B
:104B60004FF4617140F2A130FFF770F9C82002F0F4
:104B700051FB10BD10B534480088344908604FF42B
:104B8000167002F047FB32480088324988633220B1
:104B900002F040FB40F2EE202C49091F086064201F
:104BA00002F038FB2C48008826490860642002F097
:104BB00031FB40F2EE2129480088FFF71DF9322031
:104BC00002F028FB4FF4167022494863C82002F017
:104BD00021FBFFF757F910BD10B5214800881B498C
:104BE00008604FF4FA7002F015FB1E48008819495E
:104BF0008863322002F00EFB4FF448701349091FFE
:104C00000860642002F006FB322002F003FB164825
:104C100000880C490860322002F0FCFA4FF4487119
:104C200012480088FFF7E8F8642002F0F3FA4FF426
:104C3000167008494863C82002F0ECFAFFF722F921
:104C400010BD0000344401407001002038180040BD
:104C50006A010020004001406C0100206E0100202C
:104C600078010020720100207401002076010020EC
:104C700030B5014601F01F04C1F34513CA0AE5022D
:104C800005EB43151544A8B230BD2DE9F0470646A3
:104C90000F4690469A46002445464FEA4800C0F128
:104CA00003094AE07A1991B2321990B2524600F0E3
:104CB000D7FE7A1991B2321B90B2524600F0D0FE64
:104CC0007A1B91B2321990B2524600F0C9FE7A1B9B
:104CD00091B2321B90B2524600F0C2FE3A1991B224
:104CE000721990B2524600F0BBFE3A1991B2721B93
:104CF00090B2524600F0B4FE3A1B91B2721990B2D3
:104D0000524600F0ADFE3A1B91B2721B90B2524671
:104D100000F0A6FEB9F1000F05DA042000FB0490B4
:104D200000F1060907E0601B042101FB009000F17F
:104D30000A09681E85B2601C84B2AC42B2DBAC4288
:104D400037D17A1991B2321990B2524600F088FEEA
:104D50007A1991B2321990B2524600F081FE7A1B54
:104D600091B2321990B2524600F07AFE7A1B91B29B
:104D7000321B90B2524600F073FE3A1991B272198A
:104D800090B2524600F06CFE3A1991B2721B90B28A
:104D9000524600F065FE3A1B91B2721990B252462B
:104DA00000F05EFE3A1B91B2721B90B2524600F0C8
:104DB00057FEBDE8F0872DE9FF4F83B08046894656
:104DC0004946404600F042FE0598A0EB08050698CB
:104DD000A0EB0906002D02DB0120029003E04FF05A
:104DE000FF3002906D42002E02DB0120019003E0B3
:104DF0004FF0FF30019076424FEA450A4FEA460BEA
:104E0000B54219DDABEB0504002712E049464046E8
:104E1000109A00F025FE002C05DBA4EB0A04019893
:104E200048441FFA80F95C44029840441FFA80F815
:104E30007F1CAF42EADD18E0AAEB0604002712E06F
:104E400049464046109A00F00BFE002C05DBA4EB0F
:104E50000B04029840441FFA80F8544401984844D7
:104E60001FFA80F97F1CB742EADD07B0BDE8F08F7A
:104E70002DE9F84305460C4616461F46DDF820800E
:104E80004EF67D700090A81982B22346214628462E
:104E9000FFF791FF42F6651004F1010CBC441FFAC4
:104EA0008CF305EB060CACF1010C1FFA8CF204F14B
:104EB000010C1FFA8CF105EB060CACF1010C009013
:104EC0001FFA8CF0FFF777FF42F665100090E019AB
:104ED00083B2A81982B2E01981B22846FFF76BFFAE
:104EE0004EF67D700090E01983B22A46214628468E
:104EF000FFF761FF04F1010CBC44ACF1020C1FFA96
:104F00008CF305F1010CB444ACF1020C1FFA8CF2E5
:104F100004F1010C1FFA8CF105F1010C1FFA8CF061
:104F2000CDF80080FFF747FFBDE8F8832DE9F8438F
:104F300005460C4616461F46DDF82080B8F1000FE6
:104F400039D14EF67D700090A81982B223462146D1
:104F50002846FFF730FF42F6651004F1010CBC440F
:104F60001FFA8CF305EB060CACF1010C1FFA8CF266
:104F700004F1010C1FFA8CF105EB060CACF1010CED
:104F800000901FFA8CF0FFF716FF42F665100090B4
:104F9000E01983B2A81982B2E01981B22846FFF75E
:104FA0000AFF4EF67D700090E01983B22A46214632
:104FB0002846FFF700FFB8F1010F39D142F665101E
:104FC0000090A81982B2234621462846FFF7F3FE37
:104FD0004EF67D7004F1010CBC441FFA8CF305EB16
:104FE000060CACF1010C1FFA8CF204F1010C1FFA53
:104FF0008CF105EB060CACF1010C00901FFA8CF063
:10500000FFF7D9FE4EF67D700090E01983B2A81923
:1050100082B2E01981B22846FFF7CDFE42F6651054
:105020000090E01983B22A4621462846FFF7C3FEC6
:10503000B8F1020F39D14FF6FF700090A81982B273
:10504000234621462846FFF7B6FE4FF6FF7004F1CF
:10505000010CBC441FFA8CF305EB060CACF1010CFF
:105060001FFA8CF204F1010C1FFA8CF105EB060C0F
:10507000ACF1010C00901FFA8CF0FFF79CFE4FF68C
:10508000FF700090E01983B2A81982B2E01981B2D2
:105090002846FFF790FE4FF6FF700090E01983B2AC
:1050A0002A4621462846FFF786FEBDE8F883F8B574
:1050B00004460D4616461F4644F208202B4632464B
:1050C000294600902046FFF776FE48F210406A1C01
:1050D00093B291B2621C009090B23246FFF76BFE21
:1050E00044F208203B462246294600902046FFF71E
:1050F00062FE48F21040631C9AB26B1C99B2631CAA
:10510000009098B23B46FFF756FE4FF6FF703B46C5
:105110003246394600902046FFF74DFE4FF6FF70AD
:105120003B463246294600903046FFF744FEF8BD24
:10513000F8B506460F4614461D464FF6FF703B462F
:105140002246394600903046FFF735FE4FF6FF7095
:105150002B463246394600903046FFF72CFE48F287
:1051600010406A1E93B291B2721C009090B2224617
:10517000FFF721FE44F208202B46224629460090E4
:105180003046FFF718FE48F21040631E9AB27B1CAF
:1051900099B2631E009098B22B46FFF70CFE44F2C2
:1051A00008202B462246394600902046FFF703FE92
:1051B000F8BD2DE9FF4F81B007468A469B46DDF8D2
:1051C000388050E098F800003A284ADA98F80090C1
:1051D000B9F1300F04DBA9F1300000F0FF0907E05E
:1051E000B9F12B0F02D14FF00A0901E04FF000098D
:1051F000002531E000242BE0FA4901EBC91000EB57
:105200004500005D009000261EE08020304100999E
:10521000084050B10AEB050291B207EBC4023244D8
:1052200090B2039A00F01CFC0CE00398584509D09A
:105230000AEB050291B207EBC402324490B25A461F
:1052400000F00EFC701CC6B2082EDEDB601CC4B27F
:10525000022CD1DB681CC5B2402DCBDB07F113005B
:1052600087B208F1010898F800000028AAD105B01B
:10527000BDE8F08F2DE9F84F0746884693469A46D9
:10528000DDF828900097B3E099F8000080283DDA17
:1052900099F800600D2E05D1009F08F110001FFA4B
:1052A00080F830E0202E03DDA6F1200086B200E079
:1052B0000026002422E000251CE004EB0610CA4969
:1052C000085C80212941084040B108EB040291B2FA
:1052D0007A1990B25A4600F0C3FB09E0D34507D0D3
:1052E00008EB040291B27A1990B2524600F0B8FB72
:1052F000681CC5B2082DE0DB601CC4B2102CDADBE0
:1053000007F1080087B209F1010971E0002668E0A1
:1053100006EB0610B54911F8100099F80010884204
:105320005DD106EB0610B14901EB4000407899F8D9
:105330000110884253D100244FE0002520E006EB05
:105340000610AA4901EB4000801C10F814108020C0
:105350002841014041B108EB040291B27A1990B2A0
:105360005A4600F07DFB09E0D34507D008EB040264
:1053700091B27A1990B2524600F072FB681CC5B225
:10538000082DDCDB002524E006EB0610974901EB35
:105390004000801C012101EB4401405C8021294137
:1053A000084048B108EB040291B27A19083290B271
:1053B0005A4600F055FB0AE0D34508D008EB04023A
:1053C00091B27A19083290B2524600F049FB681C3B
:1053D000C5B2082DD8DB601CC4B2102CADDB701C2C
:1053E00086B21E2E94DB09F1020907F1100087B284
:1053F00099F8000000287FF447AFBDE8F88F2DE949
:10540000F05F0646884693469A46DDF82890E2E02B
:1054100099F80000802835DA99F80070202F03DD14
:10542000A7F1200087B200E00027002522E0002439
:105430001CE005EB07106C49095C8020204101400D
:1054400041B108EB050291B2321990B25A4600F010
:1054500007FB09E0D34507D008EB050291B23219EA
:1054600090B2524600F0FCFA601CC4B2082CE0DB9B
:10547000681CC5B2102DDADB09F1010906F108003C
:1054800086B2A8E000279EE007EB870000EB4710FC
:10549000574911F8100099F8001088427CD107EBA9
:1054A000870000EB4710524901EB4000407899F823
:1054B00001108842F2D1002580E0002423E007EBB0
:1054C000870000EB47104A4901EB4000801C05EBC8
:1054D0004501405C80212141084040B108EB0502B4
:1054E00091B2321990B25A4600F0BAFA09E0D345A7
:1054F00007D008EB050291B2321990B2524600F083
:10550000AFFA601CC4B2082CD9DB002426E007EBFC
:10551000870000EB4710364901EB4000801C05EB8B
:105520004501491C405C80212141084048B108EBFD
:10553000050291B23219083290B25A4600F090FA40
:105540000AE0D34508D008EB050291B232190832BF
:1055500090B2524600F084FA601CC4B2082CD6DB2C
:10556000002427E007EB870000EB4710204901EB00
:105570004000801C05EB4501891C405C80212141D5
:10558000084050B108EB050291B23219103290B2C6
:105590005A4600F065FA0BE013E0D34508D008EB5B
:1055A000050291B23219103290B2524600F058FA08
:1055B000601CC4B2082CD5DB681CC5B2182DFFF6E0
:1055C0007CAF781C87B2142FFFF65EAF09F1020999
:1055D00006F1180086B299F8000000287FF418AF91
:1055E000BDE8F09FE1B20008F0AC000862B8000826
:1055F00080BC00082DE9F05F074688469246994630
:10560000002531E000242BE019490A9801EBC01075
:1056100000EB850010F804B000261DE0802030412A
:1056200000EA0B0050B108EB050291B207EBC4028F
:10563000324490B2524600F013FA0BE0CA4509D04A
:1056400008EB050291B207EBC402324490B24A461D
:1056500000F006FA701CC6B2082EDFDB601CC4B274
:10566000042CD1DB681CC5B2202DCBDBBDE8F09F3C
:10567000E1B200081CB50121162004F00FF84FF428
:10568000E050009002208DF8050001208DF8040004
:1056900000208DF806006946F94802F0E5FC082074
:1056A00000906946F74802F0DFFC4FF480600090FC
:1056B0006946F54802F0D8FC1CBD0021082116E01F
:1056C00000F0800222B10822EE4B18331A8003E06A
:1056D0000822EC4B1A331A804FF48062E84B1A33DD
:1056E0001A809B1E1A804206100E4A1ED1B2002953
:1056F000E6DC704710B504464FF48050E0491A319B
:1057000008804010891E08802012FFF7D6FFE0B203
:10571000FFF7D3FF4FF48050D9491831088010BDEE
:1057200010B504464FF48050D5491A310880401016
:1057300008802046FFF7C1FF4FF48050D049183150
:10574000088010BD10B504464FF48050CC491A3182
:1057500008804010891E08802046FFF7AEFF4FF4F6
:105760008050C7491831088010BDF0B505460C4679
:1057700016461F462A20FFF7D3FF0020FFF7E2FF5F
:10578000E8B2FFF7DFFF0020FFF7DCFFB11CC8B273
:10579000FFF7D8FF2B20FFF7C3FF0020FFF7D2FF52
:1057A000E0B2FFF7CFFF0020FFF7CCFF791CC8B2B3
:1057B000FFF7C8FF2C20FFF7B3FFF0BD70B506461A
:1057C0009F237F2200210846FFF7CFFF2C20FFF701
:1057D000A7FF002408E0002503E03046FFF78AFF1A
:1057E0006D1CA02DF9D3641C802CF4D370BD10B5B2
:1057F0004FF48060A4494883642001F00BFD4FF40E
:105800008060A1490883322001F004FD10BD10B56D
:10581000FFF730FFFFF7EBFF1120FFF781FF782044
:1058200001F0F8FCB120FFF77BFF0120FFF78AFFB2
:105830002C20FFF787FF2D20FFF784FFB220FFF712
:105840006FFF0120FFF77EFF2C20FFF77BFF2D204D
:10585000FFF778FFB320FFF763FF0120FFF772FF28
:105860002C20FFF76FFF2D20FFF76CFF0120FFF7C3
:1058700069FF2C20FFF766FF2D20FFF763FFB420A0
:10588000FFF74EFF0720FFF75DFFC020FFF748FF3F
:10589000A220FFF757FF0220FFF754FF8420FFF7F5
:1058A00051FFC120FFF73CFFC520FFF74BFFC2208F
:1058B000FFF736FF0A20FFF745FF0020FFF742FF02
:1058C000C320FFF72DFF8A20FFF73CFF2A20FFF7B8
:1058D00039FFC420FFF724FF8A20FFF733FFEE20B3
:1058E000FFF730FFC520FFF71BFF0E20FFF72AFF51
:1058F0003620FFF715FFC020FFF724FFE020FFF759
:105900000FFF0F20FFF71EFF1A20FFF71BFF0F20CE
:10591000FFF718FF1820FFF715FF2F20FFF712FFE2
:105920002820FFF70FFF2020FFF70CFF2220FFF7B2
:1059300009FF1F20FFF706FF1B20FFF703FF2320AF
:10594000FFF700FF3720FFF7FDFE0020FFF7FAFE0C
:105950000720FFF7F7FE0220FFF7F4FE1020FFF705
:10596000F1FEE120FFF7DCFE0F20FFF7EBFE1B202E
:10597000FFF7E8FE0F20FFF7E5FE1720FFF7E2FE36
:105980003320FFF7DFFE2C20FFF7DCFE2920FFF796
:10599000D9FE2E20FFF7D6FE3020FFF7D3FE3020B1
:1059A000FFF7D0FE3920FFF7CDFE3F20FFF7CAFEFC
:1059B0000020FFF7C7FE0720FFF7C4FE0320FFF714
:1059C000C1FE1020FFF7BEFE2A20FFF7A9FE00202F
:1059D000FFF7B8FE0220FFF7B5FE0020FFF7B2FE8A
:1059E0008220FFF7AFFE2B20FFF79AFE0020FFF783
:1059F000A9FE0320FFF7A6FE0020FFF7A3FE7B20F1
:105A0000FFF7A0FEF020FFF78BFE0120FFF79AFEC4
:105A1000F620FFF785FE0020FFF794FE3A20FFF7FF
:105A20007FFE0520FFF78EFE2920FFF779FE4EF658
:105A30007D70FFF7C3FE10BD30B505460C46284605
:105A4000FFF76EFE2046FFF77DFE30BD30B5044601
:105A50000D462B46224629462046FFF786FE30BDDE
:105A600070B504460D461646681C83B2601C82B2AF
:105A700029462046FFF779FE3046FFF73BFE70BD12
:105A800000040240000802400010024060B50546D4
:105A90000E4631462846FFF7D9FFE0B2FFF752FE27
:105AA000204660BD2DE9F04704460E4617461D46C8
:105AB000DDF820A07019401E83B2E019401E82B2AA
:105AC00031462046FFF751FE2C20FFF729FEA04665
:105AD0000BE0A94604E05046FFF70CFE09F101096E
