:020000040800F2
:1000000020090020A56E0008710B0008730B000882
:10001000770B00087B0B00087F0B00080000000036
:10002000000000000000000000000000830B00083A
:10003000850B000800000000870B0008890B0008F2
:10004000BF6E0008BF6E0008BF6E0008BF6E0008DC
:10005000BF6E0008BF6E0008BF6E0008BF6E0008CC
:10006000BF6E0008BF6E0008BF6E0008BF6E0008BC
:10007000BF6E0008BF6E0008BF6E0008BF6E0008AC
:10008000BF6E0008BF6E0008BF6E0008BF6E00089C
:10009000BF6E0008BF6E0008BF6E0008BF6E00088C
:1000A000BF6E0008BF6E0008BF6E0008BF6E00087C
:1000B00023690008F5690008C96A0008BF6E0008D6
:1000C000BF6E0008BF6E0008BF6E0008BF6E00085C
:1000D000BF6E0008DD630008A365000883580008B0
:1000E000BF6E0008BF6E0008BF6E0008BF6E00083C
:1000F000BF6E0008BF6E0008BF6E0008BF6E00082C
:10010000BF6E0008BF6E0008976B0008BF6E000846
:10011000BF6E0008BF6E0008A72A0008776C0008B1
:10012000BF6E0008BF6E0008BF6E0008BF6E0008FB
:10013000BF6E0008BF6E0008BF6E0008BF6E0008EB
:10014000BF6E0008BF6E0008BF6E0008BF6E0008DB
:10015000BF6E0008BF6E0008BF6E0008BF6E0008CB
:10016000BF6E0008BF6E0008BF6E0008BF6E0008BB
:10017000BF6E0008BF6E0008BF6E0008BF6E0008AB
:10018000BF6E0008BF6E000800F002F800F072F8C1
:100190000AA090E8000C82448344AAF10107DA45E2
:1001A00001D100F067F8AFF2090EBAE80F0013F0C2
:1001B000010F18BFFB1A43F00103184744B40000B5
:1001C00064B400000A444FF0000C10F8013B13F037
:1001D000070408BF10F8014B1D1108BF10F8015BA0
:1001E000641E05D010F8016B641E01F8016BF9D193
:1001F00013F0080F1EBF10F8014BAD1C0C1B09D1EA
:100200006D1E58BF01F801CBFAD505E014F8016B5B
:1002100001F8016B6D1EF9D59142D6D370470000ED
:100220000023002400250026103A28BF78C1FBD8FF
:10023000520728BF30C148BF0B607047662909F0DC
:100240008985642908F0EA83782908F023847329D2
:1002500008F06687002070471FB509F076FD08F0AA
:1002600075FF04000020002109F0E2FCE0601FBDE2
:1002700010B510BD09F086F81146FFF7EDFF00F04C
:1002800009F809F0A4F803B4FFF7F2FF03BC06F085
:1002900041F8000008B54FF4A06006F023FEA82046
:1002A00005F0B6FF4FF4E13006F042F84FF4165077
:1002B00006F02FFA4FF4E13005F078FA05F089FFE7
:1002C00003F010FA04F069FC04F0E4FD05F042F8D4
:1002D000532140F2F31006F061FD06F0C3FA06F078
:1002E0002FFB06F097FB06F0FFFB42F2CF019620B2
:1002F00006F060FC05F003F9002004F025FCF74847
:1003000000234FF6FF7201210090084604F017F910
:10031000F3A008F04DFBACE3F448007801280ED1BF
:10032000F348F449096801600078F3490870084609
:100330000178F2A008F03CFB0020EC490870EE4880
:100340000078642874D2DFE800F0323F4C596674BC
:10035000818E9B9F737373737373A3A9AFB7BFF63B
:10036000FEF3F2F1737373737373F0EFEEEDECEB76
:10037000EAE9E8E7737373737373E6E573E4E3E242
:10038000E1E0DF73737373737373DEDDDCDBDAD983
:10039000D8D7D6D5737373737373D4D3D2D1D0CF68
:1003A000CECDCCCB737373737373CAC9C8C7002027
:1003B000D6490870D64CE378A2786178207805F0A9
:1003C00026F905F064F84AE20020D0490870D04CC4
:1003D000E378A2786178207805F019F905F065F8DE
:1003E0003DE20020C9490870C94CE378A2786178E1
:1003F000207805F00CF905F074F830E20020C349CC
:100400000870C34CE378A2786178207805F0FFF893
:1004100005F059F823E20020BC490870BC4CE37891
:10042000A2786178207805F0F2F805F084F816E2F9
:1004300014E20020B5490870B54CE378A2786178E1
:10044000207805F0E4F805F068F808E20020AF49EC
:100450000870AF4CE378A2786178207805F0D7F87F
:1004600005F077F8FBE10020A8490870A84CE37874
:10047000A2786178207805F0CAF805F078F8EEE106
:100480000A2005F090F8EAE10A2005F0A6F8E6E176
:1004900000209E49087005F032F8E0E100209B49F9
:1004A000087005F02CF8DAE102F028FC04F042FFB5
:1004B000012096490870D2E102F020FC04F03AFFD6
:1004C000022092490870CAE102F018FC04F032FFE1
:1004D00003208E490870C2E1B8E1AFE1A6E19DE1D9
:1004E00094E18BE182E179E170E167E15EE155E160
:1004F0004CE143E13AE131E128E11FE116E1E4E0BA
:10050000DBE0D2E0C9E0C0E0B7E0AEE0A5E09CE00F
:1005100093E08AE085E080E077E06EE065E05CE013
:1005200057E052E04DE041E035E02CE023E01AE0F6
:1005300011E008E0FFE702F0E1FB04F0FBFE04201D
:10054000724908708BE102F0D9FB04F0F3FE05203C
:100550006E49087083E102F0D1FB04F0EBFE062047
:100560006A4908707BE102F0C9FB04F0E3FE072052
:100570006649087073E102F0C1FB04F0DBFE08205D
:10058000624908706BE102F0B9FB04F0D3FE092068
:100590005E49087063E105220121002000F060FD42
:1005A0005C480069401D5B49086158E10522002153
:1005B000084600F055FD57480069401F554908613D
:1005C0004DE155A005F0A9FF49E154A005F0A5FFB4
:1005D00045E153A005F0A1FF41E102F08FFB04F0DB
:1005E000A9FE0A204949087039E102F087FB04F0AE
:1005F000A1FE0B204549087031E102F07FFB04F0B9
:1006000099FE0C204149087029E102F077FB04F0C3
:1006100091FE0D203D49087021E1012041490870FB
:100620001DE100203F49087019E102F067FB04F06A
:1006300081FE0E203549087011E102F05FFB04F0E5
:1006400079FE0F203149087009E102F057FB04F0F0
:1006500071FE10202D49087001E102F04FFB04F0FB
:1006600069FE112029490870F9E002F047FB04F007
:1006700061FE142025490870F1E002F03FFB04F010
:1006800059FE152021490870E9E0B7EE000A012261
:100690001146104600F082FBE1E0B7EE000A0022AE
:1006A0000121084600F07AFBD9E09FED1F0A0122E4
:1006B0000221104600F072FBD1E09FED1B0A0022E0
:1006C0000221012000F06AFBC9E0B7EE000A012216
:1006D0000321104600F062FBC1E00000D9010020B8
:1006E000B3F5CABCBBAFCDEAB3C90A000100002014
:1006F000060000200200002010000020CAD5B5BD71
:100700007531D6B8C1EEA3BA25780A00F8000020EA
:10071000B80100209C0100203100000032000000E0
:1007200033000000B70100200AD7233CB7EE000ACF
:1007300000220321012000F031FB90E0B7EE000A17
:1007400001221146022000F029FB88E0B7EE000AE2
:1007500000220121022000F021FB80E01FED0E0AA3
:1007600001220221084600F019FB78E01FED120A71
:1007700000220221084600F011FB70E0B7EE000AEB
:1007800001220321022000F009FB68E0B7EE000A15
:1007900000220321022000F001FB60E0B7EE000A16
:1007A00001221146032000F0F9FA58E0B7EE000AE2
:1007B00000220121032000F0F1FA50E01FED260A8B
:1007C00001220221032000F0E9FA48E01FED2A0A85
:1007D00000220221032000F0E1FA40E09FEDA50A8B
:1007E00001220321084600F0D9FA38E09FEDA10A62
:1007F00000220321084600F0D1FA30E0B7EE000AEB
:1008000001221146042000F0C9FA28E0B7EE000AE0
:1008100000220121042000F0C1FA20E01FED3E0A71
:1008200001220221042000F0B9FA18E01FED420A6B
:1008300000220221042000F0B1FA10E09FED8D0AA1
:1008400001220321042000F0A9FA08E09FED890AA3
:1008500000220321042000F0A1FA00E000BF00BF45
:10086000642085490870854800780E2879D2DFE831
:1008700000F00708101A2C5368798898ABBECBECAF
:10088000F6E0AFF26C1005F048FE00207B490870DE
:10089000EEE002F07DFFAFF27C1005F03EFE00209E
:1008A00076490870E4E0764802F050FA744802F0A5
:1008B00063FA734802F076FA02F020FA03207149D5
:1008C000087000206D490870D2E06FA008F070F841
:1008D0000121734802F0D9FA0121714802F004FBAA
:1008E00001216F4802F02FFB6EA008F061F8012192
:1008F0006B4802F09DFB0121694802F0D1FB012108
:10090000674802F0FCFB02F0F9F904205D49087029
:1009100000205A490870ABE069A008F049F8604827
:1009200002F01CFC5E4802F02FFC5D4802F042FC25
:1009300002F0E4F905205349087000204F4908707F
:1009400096E067A008F034F802F045FF642005F057
:10095000C1FCAFF2342005F0E0FD002047490870EB
:1009600086E084E065A008F023F86C4802F030FAD5
:1009700002F0C4F906204349087000203F4908707E
:1009800076E067A008F014F84FF439706A494863BC
:1009900002F0B4F907203B4908700020374908707D
:1009A00066E066A008F004F802F0BEFC02F00CFD60
:1009B0005A4802F021FA02F0A1F9082031490870E2
:1009C00000202E49087053E062A007F0F1FF02F00A
:1009D000ABFC02F041FD514802F022FA02F08EF920
:1009E00008202849087000202449087040E002F0DF
:1009F0009BFC02F060FD02F081F90A202149087099
:100A000000201E49087033E00221254802F03DFA1B
:100A10000221234802F068FA0221214802F093FAE9
:100A200002211F4802F004FB02211D4802F038FB9E
:100A300002211B4802F063FB02F060F90B20114910
:100A4000087000200D49087012E0154802F0C8FB3C
:100A5000134802F0DBFB124802F0EEFB02F04EF905
:100A60000C200849087000200449087000E000BF0D
:100A700000BF51E4CDCCCC3D10000020140000207C
:100A8000D1010020F8000020BBFAD0B5B1DBC4A32F
:100A9000CABD5BB5DAD2BBB4CEB7C5D6C35D000064
:100AA000D9010020BBFAD0B5B1DBC4A3CABD5BD667
:100AB000D8D0C2D7A5C8A1CEEFC1CF5D000000003D
:100AC000BBFAD0B5B1DBC4A3CABD5BB0EBB3C9C63A
:100AD000B7C7F8CFC2B2E3B7C5D6C35D0000000008
:100AE000BBFAD0B5B1DBC4A3CABD5BC9A8C3E8CF0C
:100AF000C2B2E3CEEFC1CF5D00000000BBFAD0B5BB
:100B0000B1DBC4A3CABD5BD7BCB1B8B5DAD2BBB444
:100B1000CED7A5C8A1CFC2B2E35D0000D5010020A9
:100B2000BBFAD0B5B1DBC4A3CABD5BD7A6D7D3B1DE
:100B3000D5BACF5D0000000000400140BBFAD0B53F
:100B4000B1DBC4A3CABD5BBBFAD0B5B1DBCAD5BBB0
:100B5000D85D0000BBFAD0B5B1DBC4A3CABD5BD77A
:100B6000BCB1B8B5DAB6FEB4CED7A5C8A15D000059
:100B7000704700BFFEE700BFFEE700BFFEE700BF13
:100B8000FEE7704770477047704700000CB50020C3
:100B9000019000907648006840F480307449086005
:100BA00000BF7348006800F4003000900198401CBA
:100BB0000190009818B90198B0F5A04FF1D16C4898
:100BC000006800F4003010B10120009001E0002026
:100BD00000900098012846D165484030006840F0F8
:100BE00080506349403108606248006840F44040EA
:100BF000604908605E48083000685D490831086057
:100C00000846006840F4004008600846006840F468
:100C1000A05008605848091F0860081F006840F08D
:100C20008070091F086000BF5148006800F0007024
:100C30000028F9D040F20570504908604C4808304F
:100C4000006820F003004A4908310860084600683F
:100C500040F00200086000BF45480830006800F01E
:100C60000C000828F8D10CBD10B54548006840F4C8
:100C70007000434908603E48006840F001003C496C
:100C8000086000203A4908310860394800683D4949
:100C90000840374908603C48091D0860081F006883
:100CA00020F48020091F0860002031490C310860C1
:100CB000FFF76CFF4FF0006031498039086010BDCC
:100CC00070B500200022022300240221284D08359F
:100CD0002D6805F00C0020B1042806D0082834D176
:100CE00007E02A4D2A4E356033E02A4D284E356004
:100CF0002FE01F4D2D1D2D68C5F380541C4D2D1D5B
:100D00002D6805F03F0154B1224DB5FBF1F5184EA9
:100D1000361D3668C6F3881605FB06F209E01B4D42
:100D2000B5FBF1F5124E361D3668C6F3881605FB85
:100D300006F20F4D2D1D2D68C5F301456D1C6B008E
:100D4000B2FBF3F5124E356003E0104D104E3560E6
:100D500000BF00BF064D08352D68C5F303150E4EC4
:100D6000705D0B4D2D68C540094E356070BD0000AB
:100D7000003802400070004008544007003C024028
:100D800088ED00E0FFFFF6FE103000240024F400A0
:100D90001800002000127A001C00002070B52DED14
:100DA000088B84B006460C461546B0EE408A012EEC
:100DB00006D0022E3BD0032E72D0042E6FD1A6E0B7
:100DC000012C0FD13DB1F84890ED000A30EE080A31
:100DD00080ED000A06E0F44890ED000A30EE480A83
:100DE00080ED000A022C0FD13DB1F04890ED000AD1
:100DF00030EE080A80ED000A06E0EC4890ED000AAB
:100E000030EE480A80ED000A032C0FD13DB1E848CE
:100E100090ED000A30EE080A80ED000A06E0E44892
:100E200090ED000A30EE480A80ED000AA7E0012CA0
:100E30000FD13DB1DF4890ED000A30EE080A80ED99
:100E4000000A06E0DB4890ED000A30EE480A80ED2B
:100E5000000A022C0FD13DB1D74890ED000A30EEC8
:100E6000080A80ED000A06E0D34890ED000A30EE53
:100E7000480A80ED000A032C0FD13DB1CF4890ED18
:100E8000000A30EE080A80ED000A06E0CB4890ED3B
:100E9000000A30EE480A80ED000A70E000E06DE0E4
:100EA000012C0FD13DB1C64890ED000A30EE080A82
:100EB00080ED000A06E0C24890ED000A30EE480AD4
:100EC00080ED000A022C0FD13DB1BE4890ED000A22
:100ED00030EE080A80ED000A06E0BA4890ED000AFC
:100EE00030EE480A80ED000A032C0FD13DB1B64820
:100EF00090ED000A30EE080A80ED000A06E0B248E4
:100F000090ED000A30EE480A80ED000A37E0012C2F
:100F10000FD13DB1AD4890ED000A30EE080A80EDEA
:100F2000000A06E0A94890ED000A30EE480A80ED7C
:100F3000000A022C0FD13DB1A54890ED000A30EE19
:100F4000080A80ED000A06E0A14890ED000A30EEA4
:100F5000480A80ED000A032C0FD13DB19D4890ED69
:100F6000000A30EE080A80ED000A06E0994890ED8C
:100F7000000A30EE480A80ED000A00E000BF00BF22
:100F80008B48006808F070FE41EC190B8748006838
:100F900008F06AFE41EC1A0B8348006808F064FE12
:100FA00041EC1B0B8DED029B8DED00AB53EC1B2B2D
:100FB00089A007F0FDFC8148006808F055FE41EC6F
:100FC000190B7D48006808F04FFE41EC1A0B794878
:100FD000006808F049FE41EC1B0B8DED029B8DED86
:100FE00000AB53EC1B2B7CA007F0E2FC76480068BA
:100FF00008F03AFE41EC190B7248006808F034FE24
:1010000041EC1A0B6E48006808F02EFE41EC1B0BF9
:101010008DED029B8DED00AB53EC1B2B6EA007F00A
:10102000C7FC6C48006808F01FFE41EC190B6848CB
:10103000006808F019FE41EC1A0B6448006808F0DB
:1010400013FE41EC1B0B8DED029B8DED00AB53ECC1
:101050001B2B67A007F0ACFC04B0BDEC088B70BD87
:10106000052878D2DFE800F0035E7891E40061BBE8
:10107000654BD3ED000A00EE102AB8EE400A30EEC0
:10108000C00A83ED000A614BD3ED000A00EE102A7E
:10109000B8EE400A30EEC00A83ED000A5C4BD3ED97
:1010A000000A00EE102AB8EE400A30EEC00A83EDC6
:1010B000000A584BD3ED000A00EE102AB8EE400AA1
:1010C00030EEC00A83ED000A2BE04F4BD3ED000A4F
:1010D00000EE102AB8EE400A30EE800A83ED000AD6
:1010E0004A4BD3ED000A00EE102AB8EE400A30EE6B
:1010F000800A83ED000A464BD3ED000A00EE102A69
:10110000B8EE400A30EE800A83ED000A414BD3ED81
:10111000000A00EE102AB8EE400A30EE800A83ED95
:10112000000A9FE059B9384BD3ED000A00EE102AAF
:10113000B8EE400A30EEC00A83ED000A0AE0324BF6
:10114000D3ED000A00EE102AB8EE400A30EE800A15
:1011500083ED000A86E084E059B92C4BD3ED000AF8
:1011600000EE102AB8EE400A30EEC00A83ED000A05
:101170000AE0264BD3ED000A00EE102AB8EE400A32
:1011800030EE800A83ED000A6CE059B9204BD3EDB4
:10119000000A00EE102AB8EE400A30EEC00A83EDD5
:1011A000000A44E038E0000044000020480000202D
:1011B0004C00002050000020540000205800002067
:1011C0005C00002060000020640000206800002017
:1011D0006C000020700000205B25302E3166202539
:1011E000302E32662025302E31665D090000000069
:1011F0005B25302E31662025302E32662025302E9C
:1012000031665D0A00000000740000207C000020B0
:10121000840000208C000020FE4BD3ED000A00EE7D
:10122000102AB8EE400A30EE800A83ED000A19E079
:1012300059B9F94BD3ED000A00EE102AB8EE400A76
:1012400030EEC00A83ED000A0AE0F34BD3ED000A4A
:1012500000EE102AB8EE400A30EE800A83ED000A54
:1012600000E000BF00BF7047052835D2DFE800F07E
:1012700003141C242C0000EE101AB8EE400AE64AB3
:1012800082ED000AE34A82ED000AE44A82ED000A98
:10129000E34A82ED000A20E000EE101AB8EE400AA0
:1012A000DF4A82ED000A18E000EE101AB8EE400A9C
:1012B000DA4A82ED000A10E000EE101AB8EE400A99
:1012C000D44A82ED000A08E000EE101AB8EE400A97
:1012D000D14A82ED000A00E000BF00BF704710B5A0
:1012E000D048007800F0800078B3CFA007F060FB12
:1012F000CC48007800F07F0000EE100AB8EEC00A7B
:10130000C74880ED000AC748007800F07F0000EE73
:10131000100AB8EEC00AC14880ED000AC148007842
:1013200000F07F0000EE100AB8EEC00AB94880ED68
:10133000000ABC48007800F07F0000EE100AB8EE0A
:10134000C00AB54880ED000A14E0FFE7B3EE0E0ACC
:10135000B34880ED000AB3EE0E0AB04880ED000AF3
:10136000B3EE0E0AAB4880ED000AB3EE0E0AAA48AF
:1013700080ED000A10BD10B50446AA48047000783C
:1013800040F08000A7490870FFF7A9FF10BD0128B1
:1013900006D002282DD0032854D004287BD17BE02E
:1013A00091ED000AB8EEC00AA04AD2ED000AB4EEF0
:1013B000E00AF1EE10FA05DD92ED000ABDEEC00A7A
:1013C00081ED000A91ED000AB8EEC00A974AD2ED0D
:1013D000000AF1EE600AB4EEE00AF1EE10FA07D26C
:1013E00092ED000AB1EE400ABDEEC00A81ED000A9E
:1013F0007CE091ED000AB8EEC00A8D4AD2ED000AF9
:10140000B4EEE00AF1EE10FA05DD92ED000ABDEE51
:10141000C00A81ED000A91ED000AB8EEC00A844AC4
:10142000D2ED000AF1EE600AB4EEE00AF1EE10FA35
:1014300007D292ED000AB1EE400ABDEEC00A81ED7E
:10144000000A53E091ED000AB8EEC00A794AD2EDE5
:10145000000AB4EEE00AF1EE10FA05DD92ED000AA2
:10146000BDEEC00A81ED000A91ED000AB8EEC00A97
:10147000704AD2ED000AF1EE600AB4EEE00AF1EE35
:1014800010FA07D292ED000AB1EE400ABDEEC00A92
:1014900081ED000A2AE028E091ED000AB8EEC00ACA
:1014A000654AD2ED000AB4EEE00AF1EE10FA05DD6D
:1014B00092ED000ABDEEC00A81ED000A91ED000A2E
:1014C000B8EEC00A5C4AD2ED000AF1EE600AB4EE52
:1014D000E00AF1EE10FA07D292ED000AB1EE400AEE
:1014E000BDEEC00A81ED000A00E000BF00BF7047FA
:1014F00008B5F0EE401A4A4890ED000A31EEC00AF5
:10150000B0EE401A4D4890ED000A31EE400AB0EEC0
:10151000402A9FED4B0A4B4880ED000A4A4890ED67
:10152000000A30EE010A80ED000A90ED000ADFEDBE
:10153000470AB4EEE00AF1EE10FA03D29FED430A37
:1015400080ED000A404890ED000ADFED410AB4EE5C
:10155000E00AF1EE10FA03DD9FED3D0A80ED000A8E
:10156000394890ED000A3B48D0ED000A20EE200AF1
:10157000394880ED000A394890ED000A60EE010A12
:10158000F2EE042A80EEA20A3548D0ED000A60EEA1
:10159000820AF2EE042A80EEA23A30EE030A2E48C6
:1015A000D0ED000A30EE200ABDEEC00A8DED000A33
:1015B000224880ED001A69460120FFF7E8FE0098F6
:1015C00008BD08B5F0EE401A144890ED000A31EE5F
:1015D000C00AB0EE401A234890ED000A31EE400AEE
:1015E000B0EE402A9FED160A1F4880ED000A1F4802
:1015F00090ED000A30EE010A80ED000A90ED000A3D
:10160000DFED120AB4EEE00AF1EE10FA32D29FEDED
:101610000F0A2DE0840000208C0000207C000020B8
:101620007400002094000020696E00007800002003
:1016300080000020880000209000002098000020FA
:1016400000000000A40000209C000020000048C210
:101650000000484248000020A00000204400002074
:101660004C000020A8000020B4000020AC000020A6
:1016700080ED000AFD4890ED000A5FED0B0AB4EE24
:10168000E00AF1EE10FA03DD1FED0F0A80ED000A0B
:10169000F64890ED000AF648D0ED000A20EE200A48
:1016A000F44880ED000AF44890ED000A60EE010A6B
:1016B000F2EE042A80EEA20AF048D0ED000A60EEB5
:1016C000820AF2EE042A80EEA23A30EE030AE948DA
:1016D000D0ED000A30EE200ABDEEC00A8DED000A02
:1016E000E74880ED001A69460220FFF750FE009897
:1016F00008BD08B5F0EE401AE24890ED000A31EE60
:10170000C00AB0EE401AE04890ED000A31EE400AFF
:10171000B0EE402A1FED360ADC4880ED000ADC48B6
:1017200090ED000A30EE010A80ED000A90ED000A0B
:101730005FED3A0AB4EEE00AF1EE10FA03D21FEDC3
:101740003D0A80ED000AD24890ED000A5FED400AA4
:10175000B4EEE00AF1EE10FA03DD1FED430A80ED6E
:10176000000ACB4890ED000ACA48D0ED000A20EEEE
:10177000200AC94880ED000AC84890ED000A60EED2
:10178000010AF2EE042A80EEA20AC548D0ED000A52
:1017900060EE820AF2EE042A80EEA23A30EE030AEC
:1017A000BD48D0ED000A30EE200ABDEEC00A8DED36
:1017B000000AB54880ED001A69460320FFF7E7FDEF
:1017C000009808BD08B5F0EE401AB64890ED000A42
:1017D00031EEC00AB0EE401AB34890ED000A31EE87
:1017E000400AB0EE402A1FED6A0AB04880ED000AB8
:1017F000AF4890ED000A30EE010A80ED000A90ED4E
:10180000000A5FED6E0AB4EEE00AF1EE10FA03D2C0
:101810001FED720A80ED000AA54890ED000A5FED09
:10182000740AB4EEE00AF1EE10FA03DD1FED780A57
:1018300080ED000A9E4890ED000A9E48D0ED000A17
:1018400020EE200A9C4880ED000A9C4890ED000A9A
:1018500060EE010AF2EE042A80EEA20A9848D0ED6A
:10186000000A60EE820AF2EE042A80EEA23A30EE1E
:10187000030A9148D0ED000A30EE200ABDEEC00AFE
:101880008DED000A884880ED001A69460420FFF7B4
:101890007EFD009808BDF0EE400A8A49097801EE05
:1018A000901AF8EE611A70EEE11AB0EE610A8649FC
:1018B000D1ED001A70EE611AB0EE611A8349D1EDD4
:1018C000001AB7EE002A71EE821AC1ED001AB3EECB
:1018D0000E2AF4EEC21AF1EE10FA30DD5FEDA81A0E
:1018E000C1ED001A7A49D1ED001A71EE801AC1EDEE
:1018F000001AD1ED001A9FED772AF4EEC21AF1EE2C
:1019000010FA03D2DFED731AC1ED001A7049D1ED60
:10191000001A9FED712AF4EEC21AF1EE10FA03DDFF
:10192000DFED6D1AC1ED001A6949D1ED001A6B495E
:1019300091ED002A61EE821A6949C1ED001A6949E8
:10194000D1ED001A21EE802ADFED672AC2EE221ABD
:10195000664991ED002A22EE012AF2EE042A82EE77
:10196000223A71EE831A5E4991ED002A71EE821AD5
:10197000FDEEE11A11EE900A534981ED000A70471D
:10198000F0EE400A4F49097801EE901AF8EE611A1C
:1019900070EEE11AB0EE610A5549D1ED001A70EE11
:1019A000611AB0EE611A5349D1ED001AB7EE002A60
:1019B00071EE821AC1ED001AB3EE0E2AF4EEC21ACD
:1019C000F1EE10FA30DD5FEDE21AC1ED001A4A497E
:1019D000D1ED001A71EE801AC1ED001AD1ED001A96
:1019E0009FED3C2AF4EEC21AF1EE10FA03D2DFEDBD
:1019F000391AC1ED001A4049D1ED001A9FED362A7F
:101A0000F4EEC21AF1EE10FA03DDDFED331AC1ED88
:101A1000001A3949D1ED001A384991ED002A61EEDA
:101A2000821A3749C1ED001A3649D1ED001A21EE6C
:101A3000802ADFED2D2AC2EE221A334991ED002AC9
:101A400022EE012AF2EE042A82EE223A71EE831A85
:101A50002B4991ED002A71EE821AFDEEE11A11EE8A
:101A6000900A234981ED000A70470000AC00002075
:101A700054000020B000002050000020580000203A
:101A8000A800002084000020B8000020C40000202E
:101A9000BC00002060000020C00000205C0000208E
:101AA000640000208C000020C8000020D40000202A
:101AB000CC0000206C000020D00000206800002036
:101AC0007000002095000020D8000020E4000020D5
:101AD000DC0000200000FAC30000FA4330000020C0
:101AE000E00000202C0000200000C842340000204C
:101AF000E8000020F4000020EC0000203C00002062
:101B0000F0000020380000204000002010B52DED2E
:101B1000088B86B0022003F08BF9041E01DB2046FF
:101B200000E06042FE490860032003F081F9041ED2
:101B300001DB204600E06042F9494860042003F0E0
:101B400077F9041E01DB204600E06042F44988601A
:101B5000052003F06DF9041E01DB204600E0604221
:101B6000EF49C860EF48007800287BD1EE48007844
:101B7000012836D1EDA006F01BFFE948D0ED000AA0
:101B8000F8EEE00AB0EE600AFFF7B2FC4042EA4924
:101B90000860E348D0ED010AF8EEE00AB0EE600A12
:101BA000FFF70FFD4042E449091D0860DC48D0ED15
:101BB000020AF8EEE00AB0EE600AFFF79AFD404232
:101BC000DD490C310860D648D0ED030AF8EEE00A92
:101BD000B0EE600AFFF7F6FD4042D74908310860D1
:101BE0003AE0CF48D0ED000AF8EEE00AB0EE600A25
:101BF000FFF77EFCD14909780844CF490860C848FE
:101C0000D0ED010AF8EEE00AB0EE600AFFF7D9FC69
:101C1000CA4949780844C849091D0860C048D0ED40
:101C2000020AF8EEE00AB0EE600AFFF762FDC3496F
:101C300089780844C0490C310860B948D0ED030ADE
:101C4000F8EEE00AB0EE600AFFF7BCFDBB49C978C8
:101C50000844B94908310860B7480830006864385A
:101C6000AF494861AE48C0680090AD48836842689B
:101C70000168B3A006F09CFEAF48083000680090F1
:101C8000AD480C300368AC48001D0268001F0168B5
:101C9000B1A006F08DFEB548006807F0E5FF41EC05
:101CA000180BB348006807F0DFFF41EC190BB1488F
:101CB000006807F0D9FF41EC1A0BAF48006807F045
:101CC000D3FF41EC1B0B8DED048B8DED029B8DED55
:101CD00000AB53EC1B2BA9A006F06AFEAE480378BC
:101CE000AE480288AE480188AEA006F061FE06B09C
:101CF000BDEC088B10BD10B504460B2C78D2DFE884
:101D000004F07706111B25303D4A57646D0003F03F
:101D1000BEFB0020A94908700120A949087003F002
:101D2000A9F966E003F0C1FB0220A4490870A449A8
:101D3000087003F09FF95CE003F0D3FB03209F4998
:101D400008709F49087003F095F952E003F0BBFB5F
:101D500001209A49087004209949087003F08AF913
:101D600047E0002003F013FB022003F030FB0220C9
:101D700003F04DFB022003F06AFB3AE0022003F07F
:101D800006FB002003F023FB022003F040FB0220AF
:101D900003F05DFB2DE0022003F0F9FA022003F0CE
:101DA00016FB002003F033FB022003F050FB20E081
:101DB000022003F0ECFA022003F009FB022003F0FA
:101DC00026FB002003F043FB13E003F060FB002040
:101DD000554908701E20FFF7CEFA0AE003F065FBB4
:101DE0000120514908700020FFF7C5FA01E0FFE724
:101DF00000BF00BFFFF78AFE10BD10B5044603F018
:101E000076F86749088003F098F86449088003F081
:101E1000B7F86C49088003F0D7F86B4908800620B2
:101E2000FFF7A9FA002C74D15D48008840F2E9312F
:101E3000884213D15948008888420FD161480088F0
:101E400088420BD160480088884207D15FA006F025
:101E5000AFFD03F054FB03F06DFA5AE050480088E0
:101E600040F25641884205D04D48008840F24C412E
:101E7000884229D14948008840F25641884205D01D
:101E80004648008840F24C4188421DD14D480088A8
:101E900040F25641884205D04A48008840F24C4101
:101EA000884211D14848008840F25641884205D006
:101EB0004548008840F24C41884205D145A006F0D3
:101EC00077FD03F054FB24E0354800886F2803D0E9
:101ED000334800880B281CD1304800886F2803D075
:101EE0002E4800880B2814D1364800886F2803D06C
:101EF000344800880B280CD1334800886F2803D061
:101F0000314800880B2804D135A006F051FD03F0BC
:101F10002EFB012C6AD12C48008840F2E93166E0A2
:101F20009C010020B701002004010020CDA3B3B51F
:101F3000C4A3CABD0000000034040140B801002061
:101F4000B1E0C2EBC6F75B25642025642025642040
:101F500025645D090000000050574D5B2564202575
:101F6000642025642025645D090000008C000020A9
:101F7000840000207C0000207400002054535B2566
:101F80002E306620252E306620252E306620252E08
:101F900030665D0900000000F9000020FE0000200E
:101FA000FC000020485B2564207C2025645D0973CB
:101FB0007465705B25645D0A00000000B4010020B8
:101FC000B501002000010020020100205BCDA3B379
:101FD000B55D00005B596177CFF2D7F35D0000007B
:101FE0005B596177CFF2D3D25D00000050E08842A8
:101FF0000AD1FE48008838B903F081FA03F09AF953
:102000000020FB4908706FE0F848008898BBF94849
:1020100000886F2809D0F748008840F2F3318842E1
:1020200003D0F44800880B2802D103F03EFA5BE0AD
:10203000F048008840F2564188420AD0ED480088B6
:1020400040F24D41884204D0EA480088491E884247
:1020500002D103F01CFA47E0E648008840F25741FD
:10206000884209D1E248007830B903F01EFA162000
:10207000DF49087038E00CE0DE48008840F2574144
:10208000884231D1DA48007801282DD103F0FFF9D8
:102090002AE0D648008840F25641884205D0D3480D
:1020A000008840F24C4188420CD1D248008840F26E
:1020B0005641884203D0CF4800880B2802D103F054
:1020C00056FA11E0C94800886F2803D0C748008835
:1020D0000B2809D1C74800886F2803D0C54800885D
:1020E0000B2801D103F043FAFFF710FD10BD10B526
:1020F00002F0FDFEC049088002F01FFFBB490880C6
:10210000BE48007870B90F20FFF735F903F0E9F900
:102110000320BB490870BB490870B8480078401CD0
:10212000B649087002F0A6FFB348008840F2E931D2
:10213000884203D0B04800880B281AD1AF480078F5
:10214000012816D1AD480078401CAC49087003F056
:10215000D6F903F0EFF80020AB490870FFF7BFF89D
:102160000020AA490870AA48007810B90920A94996
:102170000870FFF7CBFC10BD10B502F0B8FE9E4909
:10218000088002F0DAFE994908809C48007878B906
:102190000F20FFF7F0F803F096F901209849087036
:1021A00004209849087095480078401C93490870AD
:1021B00002F060FF8D480088D0B99048007801286F
:1021C00016D18E480078401C8C49087003F097F9AE
:1021D00003F0B0F800208C490870FFF780F8002069
:1021E0008A4908708A48007810B90820894908701F
:1021F000FFF78CFC10BD10B502F079FE7E49088017
:1022000002F09BFE794908807C48007850B903F0C1
:102210005AF901207A49087004207A49087001208F
:102220007649087002F026FF7348008840F2E931D1
:10223000884208D171480078012804D16F4800789D
:10224000401C6E4908706C48008840F25641884234
:1022500008D16A480078022804D168480078401CF8
:10226000664908706448008840F2E931884208D124
:1022700062480078032804D160480078401C5F4918
:1022800008705D48008840F25641884208D15B489A
:102290000078042804D159480078401C5749087038
:1022A0005548008840F2E931884208D15348007807
:1022B000052804D151480078401C504908704E4808
:1022C000008840F25641884208D14C4800780628E0
:1022D00004D14A480078401C4849087046480088A4
:1022E00040F2E931884208D144480078072804D1F7
:1022F00042480078401C414908703F48008840F23D
:10230000564188420BD13D480078082807D1192052
:10231000FFF731F839480078401C384908703648D2
:10232000008840F2E93188421CD1344800780928FD
:1023300018D103F0ACF80020374908703049087014
:1023400001203049087000202F490870FEF7C7FFB0
:102350002A480078401C29490870304800780B3022
:102360002E4908702D480078002808DD23480078A1
:102370000A2804D129480078401E284908702748B7
:10238000007840B91D4800780A2804D11B4800781D
:10239000401C1A4908701548008840F2E93188420B
:1023A00008D1164800780B2804D114480078401C46
:1023B000124908700D48008840F2564188420BD1FE
:1023C0000E4800780C2807D10C480078401C0B49B7
:1023D00008700C20FEF7CFFF0448008840F2E93176
:1023E000884235D1054800780D2819E0FE0000200C
:1023F0000601002002010020FC000020F90000205E
:10240000B4010020B501002094000020F800002055
:102410000501002014000020B6010020FA00002071
:1024200016D1FE480078401CFC49087003F067F89C
:1024300002F080FF0020FA490870FEF750FF0020EC
:10244000F8490870F848007810B90620F749087074
:10245000FFF75CFB10BD10B502F049FDF4490880A0
:1024600002F06BFDF349088002F0AEFDF2490880EE
:10247000EA48007870B903F018F80220EF490870B4
:10248000EF4908700020EF490870E4480078401CCC
:10249000E249087002F0EEFDE648008840F2E931BA
:1024A000884208D1DD480078012804D1DB48007853
:1024B000401CDA490870DF48008840F256418842E3
:1024C00008D1D6480078022804D1D4480078401CAE
:1024D000D2490870D748008840F2E931884208D1D3
:1024E000CE480078032804D1CC480078401CCB4962
:1024F0000870D048008840F25641884208D1C74849
:102500000078042804D1C5480078401CC3490870ED
:10251000C748008840F2E931884205D0C4480088A5
:1025200040F25641884218D1BC480078052814D1A1
:102530000F20FEF720FF02F0D4FF0020C1490870F1
:102540000320BE490870BE4908700F20BE490870BC
:10255000B2480078401CB1490870BB480078002898
:1025600008DDAE480078062804D1B7480078401E40
:10257000B5490870B448007840B9A84800780628E2
:1025800004D1A6480078401CA4490870A8480088D7
:1025900040F2E931884208D1A0480078072804D1E8
:1025A0009E480078401C9D490870A148008840F270
:1025B0005641884208D199480078082804D19748A4
:1025C0000078401C954908709948008840F2E9312C
:1025D000884208D191480078092804D18F480078B2
:1025E000401C8E4908709248008840F2564188424B
:1025F00008D18A4800780A2804D188480078401C0D
:10260000864908708C480088D0B9844800780B2827
:1026100016D182480078401C8049087002F06FFF94
:1026200002F088FE00207E490870FEF758FE002068
:102630007C4908707C48007810B905207B490870F7
:10264000FFF764FA10BD10B502F051FC784908801C
:1026500002F073FC774908807048007870B919203F
:10266000FEF789FE02F03DFF0320744908707449AB
:1026700008706A480078401C6849087002F0FAFC4B
:102680006B48008840F2E93188420DD163480078F8
:10269000012809D161480078401C60490870002079
:1026A0005F490870FEF71BFE6148008840F2564102
:1026B000884208D159480078022804D15748007848
:1026C000401C564908705A48008840F2E931884257
:1026D00008D152480078032804D150480078401CA3
:1026E0004E4908705248008840F25641884208D14D
:1026F0004A480078042804D148480078401C4749DB
:1027000008704B48008840F2E931884216D14348AE
:102710000078052812D114204C49087002F0B7FE49
:1027200000204649087001204549087000204549AD
:1027300008703A480078401C3849087037480078DB
:10274000062810D1414908780978491E3F4B197075
:10275000FEF711FE3D480078062804D12F48007886
:10276000401C2E49087032480088E0B92B48007898
:10277000072818D129480078401C2849087002F021
:10278000BEFE02F0D7FD002025490870FEF7A7FD28
:1027900000202E490870234908702348007810B99A
:1027A000042022490870FFF7B1F910BD10B502F0FE
:1027B0009EFB1F49088002F0C0FB1E490880174895
:1027C000007848B902F063FE00201C49087001201F
:1027D0001B4908701149087002F04CFC154800882C
:1027E00040F2E931884208D10C480078012804D130
:1027F0000A480078401C094908700E48008840F2D9
:102800005641884208D105480078022804D103487F
:102810000078401C01490870064819E0F9000020C2
:1028200094000020F8000020050100201400002082
:10283000FC000020FE00002002010020B401002066
:10284000B5010020B6010020FA0000200801002098
:10285000008840F2E931884208D1FE480078032818
:1028600004D1FC480078401CFA490870FA480088F6
:1028700040F25641884208D1F6480078042804D135
:10288000F4480078401CF3490870F348008840F28F
:10289000E931884208D1EF480078052804D1ED4895
:1028A0000078401CEB490870EB48008840F2564124
:1028B00088420BD1E7480078062807D1E548007820
:1028C000401CE44908700F20FEF755FDE2480088DF
:1028D00040F2E931884203D0DF4800880B2812D14A
:1028E000DC48007807280ED10A20FEF744FD02F0EC
:1028F000F8FD0320D9490870D9490870D5480078F7
:10290000401CD4490870FFF701F9D3480088D0B9BA
:10291000D0480078082816D1CE480078401CCD4910
:10292000087002F0ECFD02F005FD0020CD490870B2
:10293000FEF7D5FC0020CC490870CC48007810B9CF
:102940000220CB49087010BD10B502F0D0FAC94979
:10295000088002F0F2FAC0490880BE48007860B9E9
:102960001920FEF708FD02F0E6FDBA480078401C89
:10297000B84908702320C0490870BF480078002873
:1029800008DDB4480078012804D1BB480078401E17
:10299000B9490870B748008840F2E93188421AD135
:1029A000AC480078012816D1B348007898B902F0F5
:1029B0006EFD0020AB490870FEF791FC0020AF4986
:1029C0000870A64908700120A5490870A148007840
:1029D000401CA049087002F04DFB9F48008840F25F
:1029E000E931884207D1A648007820B9A448007888
:1029F000401CA34908709848008840F2564188421C
:102A000008D19F480078012804D19D480078401CD7
:102A10009B4908709048008840F2E931884208D10B
:102A200097480078022804D195480078401C9449C2
:102A300008708948008840F2564188420FD190487A
:102A4000007803280BD18C4908708D480078401C11
:102A50008B4908707F480078401C7E490870864882
:102A60000078002808DD7B480078032804D18248DC
:102A70000078401E804908707F48007880B975480A
:102A8000007803280CD102F03AFD00207649087046
:102A90007B4908707548007810B9012074490870A6
:102AA000FFF734F810BD10B50121764805F063FB3F
:102AB00000285CD06C480078162852D2DFE800F07D
:102AC0000B0C0F1215181B1E2125292D3135393DF0
:102AD00041455151494D45E0FFF736FF42E0FFF7D0
:102AE00065FE3FE0FFF7AFFD3CE0FFF7B4FC39E0E7
:102AF000FFF781FB36E0FFF73FFB33E0FFF7F7FA24
:102B000030E00120FFF779F92CE00020FFF775F99C
:102B100028E00120FFF7EFF824E00220FFF7EBF8B0
:102B200020E00320FFF7E7F81CE00420FFF7E3F8BC
:102B300018E00520FFF7DFF814E00620FFF7DBF8C8
:102B400010E00720FFF7D7F80CE00820FFF7D3F8D4
:102B500008E00920FFF7CFF804E00A20FFF7CBF8E0
:102B600000E000BF00BF0121464805F015FB10BD85
:102B700010B502F0BCF93F49088002F0DEF9364991
:102B800008803448007850B902F08FFC00203349A7
:102B9000087002203249087001202E49087002F0A6
:102BA00069FA2D48008840F2E931884206D1294867
:102BB0000078012802D102202649087026480088A2
:102BC00040F25641884206D122480078022802D1BC
:102BD0000320204908702048008840F2E9318842EB
:102BE00006D11C480078032802D104201949087036
:102BF0001948008840F25641884206D115480078AD
:102C0000042802D10520134908701348008840F2B7
:102C1000E93188420ED10F48007805280AD102F028
:102C200052FC01200D49087004200D49087006204F
:102C3000084908700F48008840F2E931884206D1FF
:102C400004480078072802D1082002490870094882
:102C5000008819E0F9000020FE000020B4010020E7
:102C6000B501002094000020F8000020050100209C
:102C700014000020FC000020FA000020B601002013
:102C8000070100200010004040F25641884206D162
:102C9000F8480078082802D10920F6490870F6485B
:102CA000008840F2E931884206D1F24800780928CC
:102CB00002D10A20EF490870EF48008840F25641DF
:102CC000884206D1EB4800780A2802D10B20E94956
:102CD0000870E948008840F2E93188420DD1E548A2
:102CE00000780B2809D102F00AFC02F023FB002037
:102CF000E24908700C20DF49087010BD0020DD4952
:102D000008700A20DE490870704770B50546002437
:102D100019E0285D312804D0322807D033280FD19C
:102D200009E000F078FD00F04FFB0AE000F0A6FD9E
:102D300000F092FB05E000F0D4FD00F0BCFB00E0E9
:102D400000BF00BF641C032CE3DB70BD10B504465C
:102D50002078312802D100F05EFD0AE02078322888
:102D600002D100F08BFD04E02078332801D100F07F
:102D7000B8FD00F029FB10BD10B50446607831287D
:102D800002D100F048FD0AE06078322802D100F05C
:102D900075FD04E06078332801D100F0A2FD00F059
:102DA0005BFB10BD10B50446A078312802D100F0BD
:102DB00032FD0AE0A078322802D100F05FFD04E085
:102DC000A078332801D100F08CFD00F074FB10BD19
:102DD00010B504462079312802D100F0B5FD0AE093
:102DE0002079322802D100F0D8FD04E02079332880
:102DF00001D100F0FBFD10BD10B50446607931280B
:102E000002D100F0A1FD0AE06079322802D100F081
:102E1000C4FD04E06079332801D100F0E7FD10BD66
:102E200010B50446A079312802D100F08DFD0AE0EA
:102E3000A079322802D100F0B0FD04E0A079332857
:102E400001D100F0D3FD10BD70B50546052419E091
:102E5000285D312804D0322807D033280FD109E06B
:102E600000F072FD00F0B0FA0AE000F096FD00F00C
:102E7000F3FA05E000F0BAFD00F01DFB00E000BF32
:102E800000BF641C082CE3DB70BD70B504460D4622
:102E9000012D13D100F03EFB2078312802D100F043
:102EA0003BFE20E02078322802D100F066FE1AE0D6
:102EB0002078332817D100F0C0FD14E0022D12D184
:102EC00000F028FB2079312802D100F025FE0AE02D
:102ED0002079322802D100F050FE04E02079332816
:102EE00001D100F0AAFD70BD70B504460D46012D5C
:102EF00013D100F059FB6078312802D100F00CFEAC
:102F000020E06078322802D100F037FE1AE06078C5
:102F1000332817D100F091FD14E0022D12D100F0FA
:102F200043FB6079312802D100F0F6FD0AE06079B8
:102F3000322802D100F021FE04E06079332801D16B
:102F400000F07BFD70BD70B504460D46012D13D118
:102F500000F059FBA078312802D100F0DDFD20E01F
:102F6000A078322802D100F008FE1AE0A0783328B9
:102F700017D100F062FD14E0022D12D100F043FBE6
:102F8000A079312802D100F0C7FD0AE0A0793228EB
:102F900002D100F0F2FD04E0A079332801D100F065
:102FA0004CFD70BD70B505460E460024012E1ED1A5
:102FB00000BF19E0285D312804D0322807D033281B
:102FC0000FD109E000F0A6FA00F0A6FD0AE000F03B
:102FD000EBFA00F0D2FD05E000F015FB00F02DFD4E
:102FE00000E000BF00BF641C032CE3DB1FE0022EE7
:102FF0001DD1042419E0285D312804D0322807D0DF
:1030000033280FD109E000F085FA00F085FD0AE0D1
:1030100000F0CAFA00F0B1FD05E000F0F4FA00F0AB
:103020000CFD00E000BF00BF641C072CE3DB70BD9B
:1030300070B504460D46012D13D12078312802D1F8
:1030400000F0FDFD0AE02078322802D100F028FED1
:1030500004E02078332801D100F0C0FD00F0B4F97D
:103060001DE0022D1BD1207931280BD100F0E7FDA6
:1030700013E00000F9000020FC000020F800002010
:10308000FA0000202079322802D100F009FE04E085
:103090002079332801D100F0A1FD00F095F970BD31
:1030A00070B504460D46012D13D16078312802D148
:1030B00000F0C5FD0AE06078322802D100F0F0FD92
:1030C00004E06078332801D100F088FD00F0C4F9F5
:1030D00014E0022D12D16079312802D100F0AFFD49
:1030E0000AE06079322802D100F0DAFD04E060796C
:1030F000332801D100F072FD00F0AEF970BD70B55B
:1031000004460D46012D13D1A078312802D100F0DC
:1031100096FD0AE0A078322802D100F0C1FD04E05B
:10312000A078332801D100F059FD00F0C4F914E073
:10313000022D12D1A079312802D100F080FD0AE0E1
:10314000A079322802D100F0ABFD04E0A079332849
:1031500001D100F043FD00F0AEF970BD10B504469A
:1031600000F0D8F92078312802D100F0FDFD0AE006
:103170002078322802D100F028FE04E0207833289D
:1031800001D100F0C0FD10BD10B5044600F00CFAEE
:103190006078312802D100F0E7FD0AE0607832283B
:1031A00002D100F012FE04E06078332801D100F073
:1031B000AAFD10BD10B5044600F025FAA07831280C
:1031C00002D100F0D1FD0AE0A078322802D100F04F
:1031D000FCFD04E0A078332801D100F094FD10BD7F
:1031E00010B5044600F096F92078312802D100F09D
:1031F0004CFE0AE02078322802D100F077FE04E08D
:103200002078332801D100F00FFE10BD10B5044620
:1032100000F0CAF96078312802D100F036FE0AE0E9
:103220006078322802D100F061FE04E06078332833
:1032300001D100F0F9FD10BD10B5044600F0E3F92E
:10324000A078312802D100F020FE0AE0A0783228D0
:1032500002D100F04BFE04E0A078332801D100F049
:10326000E3FD10BD70B505460E46344605E0FD4849
:103270000460082003F02EF8E41EAC42F7D270BDC3
:1032800070B505460E46344605E0F6480460082051
:1032900003F020F8A41CAC42F7D970BD70B5054608
:1032A0000E46344605E0EF480460082003F012F8AB
:1032B000A41CAC42F7D970BD70B505460E46344625
:1032C00005E0E9488463082003F004F8E41CAC42FC
:1032D000F7D970BD70B505460E46344605E0E348A3
:1032E0000460082002F0F6FFA41CAC42F7D970BDC0
:1032F00010B54FF44870DB490860322002F0EAFF55
:1033000040F22440D9490860642002F0E3FF40F213
:10331000523140F28B30FFF7C1FF4FF4617140F240
:10332000A130FFF7C9FF10BD10B54FF44870CD496B
:103330000860322002F0CEFF40F22440CB49086002
:10334000642002F0C7FF4FF45C7140F28B30FFF74E
:10335000A5FF40F2523140F2A130FFF7ADFF10BDA2
:1033600010B540F2BF30C04988631E2002F0B2FFA2
:1033700040F22440BD490860462002F0ABFF40F215
:10338000D930B8490860642002F0A4FF10BD10B520
:1033900040F22440B549086040F2BF30B24988632A
:1033A000322002F097FF40F28B30AE4908604FF4B4
:1033B000FA7002F08FFF4FF44870AA49091D0860A7
:1033C000C82002F087FF10BD10B5A9480088A549A4
:1033D000091D08604FF4FA7002F07CFFA5480088D0
:1033E000A0490860322002F075FF40F22441A24853
:1033F0000088FFF76FFF322002F06CFF9F480088C3
:1034000099498863642002F065FF40F28E20964956
:103410004863962002F05EFF40F224409349086022
:1034200040F2BF3090498863322002F053FF40F2EF
:103430008B308C4908604FF4FA7002F04BFF4FF468
:10344000D7708849091D0860C82002F043FF4FF477
:1034500016708549486310BD10B5894800888149B8
:10346000091D08604FF4487002F034FF8548008859
:103470007C490860642002F02DFF40F2244182481C
:103480000088FFF727FF322002F024FF7F480088E2
:1034900075498863962002F01DFF40F28E20724924
:1034A0004863C82002F016FFFFF771FF4FF4167053
:1034B0006D49486310BD10B5754800886949091DFC
:1034C00008604FF4FA7002F005FF72480088654901
:1034D0000860322002F0FEFE40F224416E4800886F
:1034E000FFF7F8FE322002F0F5FE6C4800885E49D6
:1034F0008863642002F0EEFE40F28E205A49486351
:10350000C82002F0E7FEFFF742FF4FF4167056495D
:10351000486310BD10B540F28E20534948635448AB
:1035200000885049091D08604FF4167002F0D2FE61
:10353000504800884B490860322002F0CBFE4F48CB
:10354000008849498863322002F0C4FE40F22441D9
:1035500049480088FFF7BEFE642002F0BBFE4FF42E
:10356000397041494863C82002F0B4FE40F2BF30D0
:103570003D498863322002F0ADFE40F224403B49D1
:103580000860322002F0A6FE40F28B303549086018
:10359000322002F09FFE4FF4D7703249091D0860B7
:1035A000322002F097FE10BD10B540F28E202E4959
:1035B0004863334800882B49091D08604FF4617047
:1035C00002F088FE2F48008826490860642002F037
:1035D00081FE2E48008824498863322002F07AFE5A
:1035E00040F2244128480088FFF774FE322002F0A0
:1035F00071FE4FF439701C494863C82002F06AFE1E
:10360000FFF7C5FE10BD10B540F28E201649486385
:103610001F4800881349091D08604FF4617002F0CB
:1036200059FE1C4800880F490860642002F052FED1
:103630001A4800880C498863322002F04BFE40F2A1
:10364000244115480088FFF745FE322002F042FE73
:103650004FF4397004494863C82002F03BFEFFF77D
:1036600096FE10BD34180040004001403444014033
:1036700088010020860100208401002082010020B2
:10368000900100208E0100208C0100208A01002082
:103690009801002096010020940100209201002052
:1036A00010B54FF41670FD49486340F20A40FC49DA
:1036B0000860642002F00EFE40F23640F9490860CE
:1036C0004FF4967002F006FE4FF4D770F549091DCD
:1036D00008604FF4FA7002F0FDFD40F2E240EF495D
:1036E000886310BD10B540F2FD30EE4908604FF41C
:1036F000FA7002F0EFFD4FF4E070EA49091D08602E
:103700004FF4FA7002F0E6FD4FF41670E349486397
:10371000642002F0DFFD4FF46170E0498863C82047
:1037200002F0D8FD40F23440DD49086040F2C44068
:10373000DA49886310BD10B540F2B710D949091DA8
:1037400008604FF4487002F0C5FD40F2022140F2DB
:10375000EE20FFF795FD4FF4967002F0BBFD40F2AE
:103760000A40CF4908604FF4487002F0B3FD40F2C0
:103770003640CC4908604FF4487002F0ABFD40F28F
:10378000E240C64988634FF4FA7002F0A3FD10BD11
:1037900010B54FF41670C14948634FF4E070C14949
:1037A000091D0860142002F095FD40F2E240BB497B
:1037B0008863322002F08EFD40F21240B949086061
:1037C000322002F087FD40F20A40B54908603220FD
:1037D00002F080FD10BD10B54FF41670AF4948637C
:1037E00040F2C910AF49091D086040F29440AB494E
:1037F0008863322002F06EFD40F2B530A9490860BE
:10380000642002F067FD40F20A40A5490860642088
:1038100002F060FD10BD10B5A3480088A149091D44
:103820000860C82002F056FDA04800889B498863C4
:10383000322002F04FFD4FF448709A4908604FF46F
:10384000967002F047FD9A480088954908604FF449
:10385000C87002F03FFD40F2C62196480088FFF78D
:1038600001FD642002F036FD4FF439708B49486346
:10387000C82002F02FFDFFF73BFD10BD10B58E48AC
:1038800000888849091D0860642002F023FD8B48E8
:10389000008882498863322002F01CFD4FF4487092
:1038A000804908604FF4967002F014FD8448008847
:1038B0007B4908604FF4967002F00CFD40F2C6217F
:1038C00080480088FFF7CEFC642002F003FD4FF42F
:1038D0003E7072494863C82002F0FCFCFFF708FD07
:1038E00010BD10B5784800886E49091D0860C820D1
:1038F00002F0F0FC7548008868498863322002F0C5
:10390000E9FC4FF44870674908604FF4967002F084
:10391000E1FC6F480088624908604FF4967002F03D
:10392000D9FC40F2C6216B480088FFF79BFC64205D
:1039300002F0D0FC4FF4397058494863C82002F0B7
:10394000C9FCFFF7D5FC10BD10B563480088554988
:10395000091D08604FF4967002F0BCFC5F480088B7
:103960004E498863C82002F0B5FC4FF448704D49B9
:103970000860C82002F0AEFC594800884849086039
:10398000C82002F0A7FC40F28A2156480088FFF7C1
:1039900069FC642002F09EFC10BD10B552480088FE
:1039A0004049091D08604FF4967002F093FC4F489F
:1039B00000883A498863C82002F08CFC4FF44870B4
:1039C00038490860C82002F085FC4948008834491D
:1039D0000860C82002F07EFC40F28A214548008839
:1039E000FFF740FC642002F075FC10BD10B54248A2
:1039F00000882C49091D08604048008827498863D1
:103A00004FF4967002F066FC4FF448702549086048
:103A10004FF4967002F05EFC394800882049086037
:103A2000C82002F057FC40F28A2136480088FFF790
:103A300019FC642002F04EFC10BD10B5324800881D
:103A400016498863322002F045FC30480088154949
:103A5000091D0860642002F03DFC4FF448701149D4
:103A60000860322002F036FC294800880C490860C2
:103A7000322002F02FFC4FF4487126480088FFF7EF
:103A8000F1FB322002F026FC4FF416700349486324
:103A9000C82002F01FFCFFF747FC10BD00400140AA
:103AA0003444014034180040100100200A01002075
:103AB0000C0100200E01002018010020120100203E
:103AC0001401002016010020200100201A0100200E
:103AD0001C0100201E0100202801002022010020DE
:103AE0002401002026010020300100202A010020AE
:103AF0002C0100202E01002038010020320100207E
:103B000034010020360100203A010020400100204D
:103B10003C0100203E01002010B5FE480088FE490F
:103B20008863322002F0D6FBFC480088FC4908601C
:103B3000642002F0CFFB4FF44870F949091F086078
:103B4000322002F0C7FBF7480088F74908603220AE
:103B500002F0C0FB4FF44871F4480088FFF782FB85
:103B6000322002F0B7FB4FF41670EB494863C820CF
:103B700002F0B0FBFFF7D8FB10BD10B5EC48008891
:103B8000E5498863322002F0A5FBEA480088E44951
:103B90000860642002F09EFB4FF44870E049091F62
:103BA0000860322002F096FBE3480088DE49086096
:103BB000322002F08FFB4FF44871E0480088FFF795
:103BC00051FB322002F086FB4FF41670D249486355
:103BD000C82002F07FFBFFF7A7FB10BD10B5D84847
:103BE0000088CD498863322002F074FBD5480088F4
:103BF000CB490860642002F06DFB4FF44870C8495F
:103C0000091F0860142002F065FBCF480088C649F0
:103C10000860322002F05EFB4FF44871CB48008808
:103C2000FFF720FB322002F055FB4FF43970BA4900
:103C30004863C82002F04EFBFFF776FB10BD10B5BD
:103C4000B4480088B4498863322002F043FBB3488B
:103C50000088B3490860642002F03CFB4FF44870D0
:103C6000AF49091F0860322002F034FBAD480088DC
:103C7000AD490860322002F02DFB4FF44871AB488B
:103C80000088FFF7EFFA322002F024FB4FF439707E
:103C9000A1494863C82002F01DFBFFF745FB10BD9A
:103CA00010B5A34800889C498863322002F012FBBB
:103CB000A04800889A490860642002F00BFB4FF48A
:103CC00048709749091F0860322002F003FB9A48A8
:103CD000008895490860322002F0FCFA4FF44871E0
:103CE00096480088FFF7BEFA322002F0F3FA4FF44C
:103CF000397089494863C82002F0ECFA4FF4D77054
:103D00008749086010BD10B59148008882498863D2
:103D1000322002F0DFFA8F48008881490860642071
:103D200002F0D8FA4FF448707D49091F086032202C
:103D300002F0D0FA884800887B490860322002F0FF
:103D4000C9FA4FF4487185480088FFF78BFA642060
:103D500002F0C0FA4FF416706F494863C82002F0B1
:103D6000B9FAFFF7E1FA10BD10B57D4800886A493D
:103D70008863322002F0AEFA7A4800886849086009
:103D8000642002F0A7FA4FF448706549091F0860E3
:103D9000322002F09FFA744800886349086032209C
:103DA00002F098FA4FF4487170480088FFF75AFA09
:103DB000322002F08FFA4FF4167057494863C8203A
:103DC00002F088FAFFF7B0FA10BD10B56848008815
:103DD00051498863322002F07DFA664800885049D4
:103DE0000860642002F076FA40F25A204C49091F1C
:103DF0000860322002F06EFA5F4800884A49086085
:103E0000322002F067FA4FF448715C480088FFF7EF
:103E100029FA642002F05EFA4FF416703E494863B6
:103E2000C82002F057FA10BD10B5554800883A492D
:103E30008863322002F04EFA524800883849086000
:103E4000642002F047FA4FF448703549091F0860B2
:103E5000322002F03FFA4C48008833490860322093
:103E600002F038FA4FF4487148480088FFF7FAF931
:103E7000642002F02FFA4FF4167027494863C820D7
:103E800002F028FAFFF734FA10BD10B54048008858
:103E900021498863322002F01DFA3E4800882049FB
:103EA0000860322002F016FA40F2EE201C49091F89
:103EB0000860642002F00EFA374800881A4908604A
:103EC000642002F007FA40F2EE2134480088FFF740
:103ED000C9F9322002F0FEF94FF416700E4948631A
:103EE000C82002F0F7F9FFF703FA10BD10B52C480F
:103EF000008809498863322002F0ECF929480088DB
:103F000007490860642002F0E5F94FF4487004495D
:103F1000091F49E042010020004001404801002003
:103F2000381800404401002034440140460100207C
:103F30004A010020500100204C0100204E010020C9
:103F40003A010020400100203C0100203E010020F9
:103F50005201002058010020540100205601002089
:103F60005A010020600100205C0100205E01002059
:103F70006201002068010020640100206601002029
:103F80006A010020700100206C0100206E010020F9
:103F900072010020780100207401002076010020C9
:103FA0007A010020800100200860642002F092F96C
:103FB000322002F08FF90D4800880D490860322048
:103FC00002F088F94FF448710A480088FFF74AF96F
:103FD000642002F07FF94FF4167007494863C82047
:103FE00002F078F9FFF784F910BD00007C01002091
:103FF000344401407E0100200040014030B50146BC
:1040000001F01F04C1F34513CA0AE50205EB43158D
:104010001544A8B230BD2DE9F04706460F4690463C
:104020009A46002445464FEA4800C0F103094AE099
:104030007A1991B2321990B2524600F0D7FE7A192D
:1040400091B2321B90B2524600F0D0FE7A1B91B270
:10405000321990B2524600F0C9FE7A1B91B2321B5F
:1040600090B2524600F0C2FE3A1991B2721990B263
:10407000524600F0BBFE3A1991B2721B90B2524602
:1040800000F0B4FE3A1B91B2721990B2524600F0A1
:10409000ADFE3A1B91B2721B90B2524600F0A6FEE2
:1040A000B9F1000F05DA042000FB049000F10609C5
:1040B00007E0601B042101FB009000F10A09681E63
:1040C00085B2601C84B2AC42B2DBAC4237D17A1903
:1040D00091B2321990B2524600F088FE7A1991B22C
:1040E000321990B2524600F081FE7A1B91B2321919
:1040F00090B2524600F07AFE7A1B91B2321B90B217
:10410000524600F073FE3A1991B2721990B25246BB
:1041100000F06CFE3A1991B2721B90B2524600F058
:1041200065FE3A1B91B2721990B2524600F05EFEE3
:104130003A1B91B2721B90B2524600F057FEBDE896
:10414000F0872DE9FF4F83B08046894649464046B7
:1041500000F042FE0598A0EB08050698A0EB0906C2
:10416000002D02DB0120029003E04FF0FF300290AF
:104170006D42002E02DB0120019003E04FF0FF3082
:10418000019076424FEA450A4FEA460BB54219DDE7
:10419000ABEB0504002712E049464046109A00F0B8
:1041A00025FE002C05DBA4EB0A04019848441FFA05
:1041B00080F95C44029840441FFA80F87F1CAF42AB
:1041C000EADD18E0AAEB0604002712E04946404663
:1041D000109A00F00BFE002C05DBA4EB0B040298F8
:1041E00040441FFA80F85444019848441FFA80F96B
:1041F0007F1CB742EADD07B0BDE8F08F2DE9F84338
:1042000005460C4616461F46DDF820804EF67D70AA
:104210000090A81982B2234621462846FFF791FF55
:1042200042F6651004F1010CBC441FFA8CF305EB57
:10423000060CACF1010C1FFA8CF204F1010C1FFA10
:104240008CF105EB060CACF1010C00901FFA8CF020
:10425000FFF777FF42F665100090E01983B2A819C6
:1042600082B2E01981B22846FFF76BFF4EF67D70EF
:104270000090E01983B22A4621462846FFF761FFE5
:1042800004F1010CBC44ACF1020C1FFA8CF305F1F3
:10429000010CB444ACF1020C1FFA8CF204F1010CD5
:1042A0001FFA8CF105F1010C1FFA8CF0CDF800809B
:1042B000FFF747FFBDE8F8832DE9F84305460C46B4
:1042C00016461F46DDF82080B8F1000F39D14EF6B2
:1042D0007D700090A81982B2234621462846FFF738
:1042E00030FF42F6651004F1010CBC441FFA8CF358
:1042F00005EB060CACF1010C1FFA8CF204F1010C79
:104300001FFA8CF105EB060CACF1010C00901FFAC2
:104310008CF0FFF716FF42F665100090E01983B2AB
:10432000A81982B2E01981B22846FFF70AFF4EF6BB
:104330007D700090E01983B22A4621462846FFF797
:1043400000FFB8F1010F39D142F665100090A819AD
:1043500082B2234621462846FFF7F3FE4EF67D70D3
:1043600004F1010CBC441FFA8CF305EB060CACF114
:10437000010C1FFA8CF204F1010C1FFA8CF105EB11
:10438000060CACF1010C00901FFA8CF0FFF7D9FE7F
:104390004EF67D700090E01983B2A81982B2E01940
:1043A00081B22846FFF7CDFE42F665100090E01975
:1043B00083B22A4621462846FFF7C3FEB8F1020F12
:1043C00039D14FF6FF700090A81982B223462146DA
:1043D0002846FFF7B6FE4FF6FF7004F1010CBC440F
:1043E0001FFA8CF305EB060CACF1010C1FFA8CF2F2
:1043F00004F1010C1FFA8CF105EB060CACF1010C79
:1044000000901FFA8CF0FFF79CFE4FF6FF700090B3
:10441000E01983B2A81982B2E01981B22846FFF7E9
:1044200090FE4FF6FF700090E01983B22A462146B5
:104430002846FFF786FEBDE8F883F8B504460D462A
:1044400016461F4644F208202B4632462946009065
:104450002046FFF776FE48F210406A1C93B291B2F4
:10446000621C009090B23246FFF76BFE44F20820C7
:104470003B462246294600902046FFF762FE48F25E
:104480001040631C9AB26B1C99B2631C009098B2E6
:104490003B46FFF756FE4FF6FF703B463246394625
:1044A00000902046FFF74DFE4FF6FF703B46324628
:1044B000294600903046FFF744FEF8BDF8B50646A1
:1044C0000F4614461D464FF6FF703B4622463946BE
:1044D00000903046FFF735FE4FF6FF702B46324610
:1044E000394600903046FFF72CFE48F210406A1E15
:1044F00093B291B2721C009090B22246FFF721FE57
:1045000044F208202B462246294600903046FFF709
:1045100018FE48F21040631E9AB27B1C99B2631ECB
:10452000009098B22B46FFF70CFE44F208202B4671
:104530002246394600902046FFF703FEF8BD2DE9DC
:10454000FF4F81B007468A469B46DDF8388050E031
:1045500098F800003A284ADA98F80090B9F1300F3C
:1045600004DBA9F1300000F0FF0907E0B9F12B0FDF
:1045700002D14FF00A0901E04FF00009002531E0B7
:1045800000242BE0FA4901EBC91000EB4500005D67
:10459000009000261EE0802030410099084050B174
:1045A0000AEB050291B207EBC402324490B2039ABF
:1045B00000F01CFC0CE00398584509D00AEB0502FA
:1045C00091B207EBC402324490B25A4600F00EFC9E
:1045D000701CC6B2082EDEDB601CC4B2022CD1DB1C
:1045E000681CC5B2402DCBDB07F1130087B208F180
:1045F000010898F800000028AAD105B0BDE8F08FA6
:104600002DE9F84F0746884693469A46DDF82890EC
:104610000097B3E099F8000080283DDA99F800602F
:104620000D2E05D1009F08F110001FFA80F830E030
:10463000202E03DDA6F1200086B200E00026002433
:1046400022E000251CE004EB0610CA49085C80212A
:104650002941084040B108EB040291B27A1990B2A6
:104660005A4600F0C3FB09E0D34507D008EB04022B
:1046700091B27A1990B2524600F0B8FB681CC5B2EC
:10468000082DE0DB601CC4B2102CDADB07F1080057
:1046900087B209F1010971E0002668E006EB061017
:1046A000B54911F8100099F8001088425DD106EB69
:1046B0000610B14901EB4000407899F8011088429A
:1046C00053D100244FE0002520E006EB0610AA4954
:1046D00001EB4000801C10F814108020284101409C
:1046E00041B108EB040291B27A1990B25A4600F037
:1046F0007DFB09E0D34507D008EB040291B27A199B
:1047000090B2524600F072FB681CC5B2082DDCDB8B
:10471000002524E006EB0610974901EB4000801CC1
:10472000012101EB4401405C80212941084048B14E
:1047300008EB040291B27A19083290B25A4600F09E
:1047400055FB0AE0D34508D008EB040291B27A1970
:10475000083290B2524600F049FB681CC5B2082DE1
:10476000D8DB601CC4B2102CADDB701C86B2322EBC
:1047700094DB09F1020907F1100087B299F80000F3
:1047800000287FF447AFBDE8F88F2DE9F05F0646BB
:10479000884693469A46DDF82890E2E099F80000B2
:1047A000802835DA99F80070202F03DDA7F120006A
:1047B00087B200E00027002522E000241CE005EB82
:1047C00007106C49095C80202041014041B108EB91
:1047D000050291B2321990B25A4600F007FB09E087
:1047E000D34507D008EB050291B2321990B2524678
:1047F00000F0FCFA601CC4B2082CE0DB681CC5B2F7
:10480000102DDADB09F1010906F1080086B2A8E0F3
:1048100000279EE007EB870000EB4710574911F88F
:10482000100099F8001088427CD107EB870000EB5C
:104830004710524901EB4000407899F80110884236
:10484000F2D1002580E0002423E007EB870000EB95
:1048500047104A4901EB4000801C05EB4501405CD4
:1048600080212141084040B108EB050291B2321984
:1048700090B25A4600F0BAFA09E0D34507D008EBE7
:10488000050291B2321990B2524600F0AFFA601CA4
:10489000C4B2082CD9DB002426E007EB870000EB2C
:1048A0004710364901EB4000801C05EB4501491CCF
:1048B000405C80212141084048B108EB050291B2DB
:1048C0003219083290B25A4600F090FA0AE0D34505
:1048D00008D008EB050291B23219083290B2524664
:1048E00000F084FA601CC4B2082CD6DB002427E058
:1048F00007EB870000EB4710204901EB4000801CCC
:1049000005EB4501891C405C80212141084050B1E4
:1049100008EB050291B23219103290B25A4600F0FB
:1049200065FA0BE013E0D34508D008EB050291B21D
:104930003219103290B2524600F058FA601CC4B2DC
:10494000082CD5DB681CC5B2182DFFF67CAF781C8F
:1049500087B2142FFFF65EAF09F1020906F11800C5
:1049600086B299F8000000287FF418AFBDE8F09FE8
:1049700049A30008589D0008CAA80008B2AF000863
:104980002DE9F05F0746884692469946002531E0BA
:1049900000242BE019490A9801EBC01000EB8500B8
:1049A00010F804B000261DE08020304100EA0B0022
:1049B00050B108EB050291B207EBC402324490B249
:1049C000524600F013FA0BE0CA4509D008EB050285
:1049D00091B207EBC402324490B24A4600F006FAA4
:1049E000701CC6B2082EDFDB601CC4B2042CD1DB05
:1049F000681CC5B2202DCBDBBDE8F09F49A30008A1
:104A00001CB50121162003F07DFE4FF4E05000900C
:104A100002208DF8050001208DF8040000208DF89B
:104A200006006946F94802F053FB082000906946E9
:104A3000F74802F04DFB4FF4806000906946F5485E
:104A400002F046FB1CBD0021082116E000F08002A8
:104A500022B10822EE4B18331A8003E00822EC4BF7
:104A60001A331A804FF48062E84B1A331A809B1E67
:104A70001A804206100E4A1ED1B20029E6DC7047A9
:104A800010B504464FF48050E0491A3108804010B8
:104A9000891E08802012FFF7D6FFE0B2FFF7D3FF90
:104AA0004FF48050D9491831088010BD10B5044624
:104AB0004FF48050D5491A310880401008802046B4
:104AC000FFF7C1FF4FF48050D0491831088010BD66
:104AD00010B504464FF48050CC491A31088040107C
:104AE000891E08802046FFF7AEFF4FF48050C7496B
:104AF0001831088010BDF0B505460C4616461F4615
:104B00002A20FFF7D3FF0020FFF7E2FFE8B2FFF70C
:104B1000DFFF0020FFF7DCFFB11CC8B2FFF7D8FFB2
:104B20002B20FFF7C3FF0020FFF7D2FFE0B2FFF713
:104B3000CFFF0020FFF7CCFF791CC8B2FFF7C8FFFA
:104B40002C20FFF7B3FFF0BD70B506469F237F22F0
:104B500000210846FFF7CFFF2C20FFF7A7FF002416
:104B600008E0002503E03046FFF78AFF6D1CA02D0A
:104B7000F9D3641C802CF4D370BD10B54FF4806061
:104B8000A4494883642001F0A5FB4FF48060A1494B
:104B90000883322001F09EFB10BD10B5FFF730FFF7
:104BA000FFF7EBFF1120FFF781FF782001F092FB68
:104BB000B120FFF77BFF0120FFF78AFF2C20FFF7D2
:104BC00087FF2D20FFF784FFB220FFF76FFF012042
:104BD000FFF77EFF2C20FFF77BFF2D20FFF778FFEC
:104BE000B320FFF763FF0120FFF772FF2C20FFF7D0
:104BF0006FFF2D20FFF76CFF0120FFF769FF2C20CE
:104C0000FFF766FF2D20FFF763FFB420FFF74EFF8D
:104C10000720FFF75DFFC020FFF748FFA220FFF746
:104C200057FF0220FFF754FF8420FFF751FFC120F8
:104C3000FFF73CFFC520FFF74BFFC220FFF736FF11
:104C40000A20FFF745FF0020FFF742FFC320FFF7D0
:104C50002DFF8A20FFF73CFF2A20FFF739FFC420F1
:104C6000FFF724FF8A20FFF733FFEE20FFF730FF26
:104C7000C520FFF71BFF0E20FFF72AFF3620FFF7A6
:104C800015FFC020FFF724FFE020FFF70FFF0F20E4
:104C9000FFF71EFF1A20FFF71BFF0F20FFF718FF7B
:104CA0001820FFF715FF2F20FFF712FF2820FFF72E
:104CB0000FFF2020FFF70CFF2220FFF709FF1F2026
:104CC000FFF706FF1B20FFF703FF2320FFF700FF7E
:104CD0003720FFF7FDFE0020FFF7FAFE0720FFF761
:104CE000F7FE0220FFF7F4FE1020FFF7F1FEE120AF
:104CF000FFF7DCFE0F20FFF7EBFE1B20FFF7E8FEBF
:104D00000F20FFF7E5FE1720FFF7E2FE3320FFF745
:104D1000DFFE2C20FFF7DCFE2920FFF7D9FE2E2036
:104D2000FFF7D6FE3020FFF7D3FE3020FFF7D0FE8E
:104D30003920FFF7CDFE3F20FFF7CAFE0020FFF726
:104D4000C7FE0720FFF7C4FE0320FFF7C1FE1020B7
:104D5000FFF7BEFE2A20FFF7A9FE0020FFF7B8FEEE
:104D60000220FFF7B5FE0020FFF7B2FE8220FFF71A
:104D7000AFFE2B20FFF79AFE0020FFF7A9FE0320CD
:104D8000FFF7A6FE0020FFF7A3FE7B20FFF7A0FEA3
:104D9000F020FFF78BFE0120FFF79AFEF620FFF7C9
:104DA00085FE0020FFF794FE3A20FFF77FFE0520E6
:104DB000FFF78EFE2920FFF779FE4EF67D70FFF794
:104DC000C3FE10BD30B505460C462846FFF76EFE03
:104DD0002046FFF77DFE30BD30B504460D462B461C
:104DE000224629462046FFF786FE30BD70B50446B0
:104DF0000D461646681C83B2601C82B229462046C6
:104E0000FFF779FE3046FFF73BFE70BD000402401D
:104E1000000802400010024060B505460E463146CB
:104E20002846FFF7D9FFE0B2FFF752FE204660BDEB
:104E30000146022906D003290DD0042912D00529E4
:104E40001ED116E04FF08042526A10B200224FF09D
:104E500080435A6216E00C4A126810B200220A4BD4
:104E60001A600FE0094A126810B20022074B1A605C
:104E700008E0074A126810B20022054B1A6001E0F0
:104E8000002000BF00BF70472404004024080040F9
:104E9000240C00401CB501217F2003F033FC0020CE
:104EA0008DF8040001208DF80700C00200906946CB
:104EB000F64802F00DF9512000906946F44802F0DE
:104EC00007F94FF4607000906946F24802F000F96B
:104ED0004FF4604000906946EF4802F0F9F84AF656
:104EE000032000906946ED4802F0F2F81CBD10B5B1
:104EF0004FF40051E94802F04DF94FF47A7110FB7C
:104F000001F44FF40041E54802F044F900EBC00120
:104F100001EB001004EB80044FF40061DF4802F065
:104F200039F900EB800004EB40044FF40071DB48DA
:104F300002F030F9204480B210BD10B51021D448E1
:104F400002F028F94FF47A7110FB01F44021D048A7
:104F500002F020F900EBC00101EB001004EB80042B
:104F60000121CB4802F016F900EB800004EB40046D
:104F70004FF40061C54802F00DF9204480B210BD25
:104F800010B50121C54802F005F94FF47A7110FB04
:104F900001F44FF48041C04802F0FCF800EBC0017E
:104FA00001EB001004EB80048021BA4802F0F2F813
:104FB00000EB800004EB40044FF40071B54802F0B0
:104FC000E9F8204480B210BD10B50221B34802F0C8
:104FD000E1F84FF47A7110FB01F44FF48071AD48A1
:104FE00002F0D8F800EBC00101EB001004EB8004E4
:104FF0004FF40041A84802F0CDF800EB800004EB2C
:1050000040044FF40051A44802F0C4F8204480B298
:1050100010BDF8B5FFF7D8FF0446FFF7B1FF05460E
:10502000FFF78BFF0646FFF762FF07462B46324627
:1050300039469BA0009403F0BBFCF8BD10B59D4819
:105040000078052811D2DFE800F00304070A0D00FC
:105050000CE000F01CFA09E000F027FA06E000F08E
:1050600040FA03E000F02FFA00E000BF00BFFCF7B9
:1050700036F910BD2DE9F041FFF739FF0446FFF77F
:105080005CFF0646FFF77CFF0546FFF79DFF0746DE
:1050900089480078002861D18648007801285DD1D0
:1050A00086480078A8B30B2C05D06F2C03D040F2B3
:1050B000F330844210D10F210120FCF7D5F80F21E5
:1050C0000220FCF7D1F81E210320FCF7CDF81E21A9
:1050D0000420FCF7C9F82BE140F24C40844207D091
:1050E00040F25640844203D040F24D40844211D1F8
:1050F0000F210320FCF7B8F80F210420FCF7B4F8C7
:105100001E210120FCF7B0F81E210220FCF7ACF8AC
:105110000EE106E040F2E9308442DCD1FFF78EFF79
:1051200006E10B2C05D06F2C03D040F2F330844203
:1051300002D100F00EFAFBE040F24C40844207D06E
:1051400040F25640844203D040F24D40844202D1A6
:1051500000F00DFAECE0FFF771FFE9E05648007847
:10516000012830D15348007804282CD10B2E05D0CB
:105170006F2E03D040F2F330864208D10A2103207B
:10518000FCF772F81E210420FCF76EF8D0E040F224
:105190004C40864207D040F25640864203D040F24F
:1051A0004D40864208D10A210420FCF75DF81E21FB
:1051B0000320FCF759F8BBE040F2E93086428AD17F
:1051C000FFF73CFFB4E03C48007802287CD1394826
:1051D0000078022878D139480078A8B30B2D05D083
:1051E0006F2D03D040F2F330854210D10F21032000
:1051F000FCF73AF80F210420FCF736F81E210120B5
:10520000FCF732F81E210220FCF72EF890E040F265
:105210004C40854207D040F25640854203D040F2D0
:105220004D40854211D10F210120FCF71DF80F21BF
:105230000220FCF719F81E210320FCF715F81E21A7
:105240000420FCF711F873E006E040F2E9308542F3
:105250006ED1FFF7F3FE6BE00B2D05D06F2D03D061
:1052600040F2F330854202D100F073F960E040F281
:105270004C40854207D040F25640854203D040F270
:105280004D4085421DD100F072F951E00008024006
:10529000000C0240001002400014024000180240BE
:1052A000BAECCDE25B2564202564202564202564CA
:1052B0005D000000B5010020B4010020B60100200F
:1052C00002E0FFF7BBFE33E01F48007803282FD130
:1052D0001E48007803282BD10B2F05D06F2F03D049
:1052E00040F2F330874208D105210220FBF7BCFFD2
:1052F0001E210120FBF7B8FF1AE040F24C40874224
:1053000007D040F25640874203D040F24D408742DA
:1053100008D105210120FBF7A7FF1E210220FBF782
:10532000A3FF05E040F2E930874201D1FFF786FE96
:10533000BDE8F0810020044908700449087001208C
:105340000349087070470000B4010020B501002037
:10535000B60100201CB50121302003F0D3F91E2036
:10536000009001208DF8040000208DF806008DF8D3
:10537000070002208DF805006946FE4801F0A8FEEE
:10538000AA2000906946FC4801F0A2FE1CBD10B5A1
:1053900004463CB90221F84801F018FF0821F648FC
:1053A00001F012FF012C07D10221F34801F00CFF9C
:1053B0000821F14801F00AFF022C07D10221EE4832
:1053C00001F004FF0821EC4801F000FF10BD10B50A
:1053D00004463CB92021E84801F0F8FE8021E64867
:1053E00001F0F2FE012C07D12021E34801F0ECFE90
:1053F0008021E14801F0EAFE022C07D12021DE489D
:1054000001F0E4FE8021DC4801F0E0FE10BD10B5A3
:1054100004463CB91021D74801F0D8FE0421D548F4
:1054200001F0D2FE012C07D11021D24801F0CCFEB0
:105430000421D04801F0CAFE022C07D11021CD482A
:1054400001F0C4FE0421CB4801F0C0FE10BD10B530
:1054500004463CB90221C74801F0B8FE0821C548FE
:1054600001F0B2FE012C07D10221C24801F0ACFECE
:105470000821C04801F0AAFE022C07D10221BD4834
:1054800001F0A4FE0821BB4801F0A0FE10BD10B53C
:105490000020FFF77CFF0020FFF799FF0020FFF7B7
:1054A000B6FF0020FFF7D3FF10BD10B50120FFF7B6
:1054B0006EFF0120FFF78BFF0120FFF7A8FF0120FF
:1054C000FFF7C5FF10BD10B50020FFF760FF0120FA
:1054D000FFF77DFF0120FFF79AFF0020FFF7B7FFDE
:1054E00010BD10B50120FFF752FF0020FFF76FFF3E
:1054F0000020FFF78CFF0120FFF7A9FF10BD10B5BA
:105500000220FFF744FF0220FFF761FF0220FFF7B0
:105510007EFF0220FFF79BFF10BD10B50020FFF7B4
:1055200036FF0220FFF753FF0220FFF770FF002035
:10553000FFF78DFF10BD10B50220FFF728FF0020F8
:10554000FFF745FF0020FFF762FF0220FFF77FFF14
:1055500010BD10B50120FFF71AFF0120FFF737FF3C
:105560000020FFF754FF0020FFF771FF10BD10B5BA
:105570000020FFF70CFF0020FFF729FF0120FFF7B5
:1055800046FF0120FFF763FF10BD10B50020FFF7B5
:10559000FEFE0220FFF71BFF0120FFF738FF02206D
:1055A000FFF755FF10BD10B504467448007820443D
:1055B0007249087008464078204448700846807850
:1055C000204488700846C0782044C8700846427855
:1055D00001786BA003F0ECF910BD10B504466748E4
:1055E0000078001B6549087008464078001B487029
:1055F00008468078001B88700846C078001BC87079
:105600000846427801785EA003F0D2F910BD30B5AB
:105610005D4C2478A04204DD5B4C2478574D2C70FF
:105620002046594C2478A14204DD574C2478534D30
:105630006C702146544C2478A24204DD524C2478EC
:105640004E4DAC702246504C2478A34204DD4E4CA3
:1056500024784A4DEC7023464C4C2478012C04D11C
:1056600000242346224621462046494C2060241D22
:105670002160474C0C342260241F236030BD10B5DC
:10568000F0EE401A30EEE14A34EE014AB0EE442A20
:1056900030EEA14A34EE414AF0EE442A30EEE14ABF
:1056A00034EE414AB0EE443A30EEA14A34EE014ABB
:1056B000F0EE443AB0EE420AB4EEE20AF1EE10FA2D
:1056C00001D2B0EE620AB4EEC30AF1EE10FA01D2D2
:1056D000B0EE430AB4EEE30AF1EE10FA01D2B0EEF6
:1056E000630A2948007804EE100AB8EE444AB4EE82
:1056F000C40AF1EE10FA2FDDC2EE004A224800780B
:1057000004EE100AB8EE444A24EE844AB0EE442A6D
:10571000C2EE804A1C48007804EE100AB8EE444AF3
:1057200024EE844AF0EE442AC3EE004A164800787C
:1057300004EE100AB8EE444A24EE844AB0EE443A2D
:10574000C3EE804A1048007804EE100AB8EE444ACE
:1057500024EE844AF0EE443ABCEEE34A14EE104ADA
:10576000A3B2BCEEC24A14EE104AA2B2BCEEC34AC7
:1057700010E000000010024000140240B8010020B8
:105780000925642C20256400BC010020B7010020FD
:105790003404014014EE104AA1B2BCEEE24A14EE09
:1057A000104AA0B2FFF733FF10BD000010B588B05B
:1057B00004460121082002F0A5FF0121880402F01F
:1057C000EAFF07220821F74801F00DFD0722092111
:1057D000F44801F008FD4FF48070069002208DF827
:1057E0001C008DF81D0001208DF81E008DF81F0093
:1057F00006A9EC4801F06CFC4FF400700690022002
:105800008DF81C008DF81D0000208DF81E008DF80D
:105810001F0006A9E34801F05BFC02940020ADF8EC
:105820000C00ADF80E00ADF81000ADF814000C201F
:10583000ADF8120002A9DC4801F075FD0121DA483B
:1058400001F0F9FD012240F22551D74801F0A9FEEF
:105850004021D54801F0D7FE27208DF80400022012
:105860008DF8050003208DF8060001208DF8070053
:1058700001A801F03CFB4FF4A06001F033FB08B03D
:1058800010BD10B5002440F22551C74801F0C4FEF8
:10589000002874D0C44801F0FDFDC4B2C3480470B0
:1058A0000078012807D1C2A000F04DFEFDF7B3FF3C
:1058B000FDF78AFDECE2BD480078022807D1BEA0C2
:1058C00000F041FEFDF7DAFFFDF7C6FDE0E2B74864
:1058D0000078032807D1BAA000F035FEFEF701F8E2
:1058E000FDF7E9FDD4E2B1480078042809D1B6A05B
:1058F00000F029FEFEF728F8FDF716FDFDF764FD20
:10590000C6E2AA480078052809D1B1A000F01BFE24
:10591000FEF743F8FDF708FDFDF79EFDB8E2A3484A
:105920000078062809D1ACA000F00DFEFEF75EF865
:10593000FDF7FAFCFDF7BFFDAAE29C4800780728B6
:1059400007D1A7A000F0FFFDFDF7E4FDFEF775F815
:105950009EE296480078082807D1A3A000F0F3FD46
:10596000FDF722FEFEF7D8F892E290480078092869
:1059700006D19FA000F0E7FDFEF7FFF888E28CE279
:105980008A4800780A2807D19BA000F0DCFDFDF7CB
:10599000C1FDFEF7B8F97BE2844800780B2807D1F7
:1059A00097A000F0D0FDFDF7FFFDFEF7DDF96FE2F7
:1059B0007E4800780C2807D193A000F0C4FDFDF7C5
:1059C00022FEFEF702FA63E2784800780D2807D13C
:1059D0008FA000F0B8FDFDF79DFDFEF725FA57E218
:1059E000724800780E2807D18BA000F0ACFDFDF7BF
:1059F000DBFDFEF74AFA4BE26C4800780F2807D12E
:105A000087A000F0A0FDFDF7FEFDFEF76FFA3FE274
:105A100066480078102805D183A000F094FDFDF7BA
:105A200061FE35E261480078112805D180A000F0C0
:105A30008AFDFDF7ADFE2BE25C480078122805D107
:105A40007EA000F080FDFDF7C6FE21E257480078F9
:105A5000132805D17BA000F076FDFDF721FE17E2AB
:105A600052480078152805D178A000F06CFDFDF7AC
:105A700077FC0DE24D480078162803D177A000F09E
:105A800062FD05E249480078172804D14FF43970C7
:105A900076494863FCE145480078182804D14FF462
:105AA000167072494863F3E140480078192803D121
:105AB0006FA000F048FDEBE13C4800781A280DD1BA
:105AC0006DA000F040FD6948406BC01C6749486309
:105AD0000846416B6AA002F06BFFD9E133480078B9
