:020000040800F2
:1000000018090020256C00087D0B00087F0B0008F4
:10001000830B0008870B00088B0B00080000000012
:100020000000000000000000000000008F0B00082E
:10003000910B000800000000930B0008950B0008CE
:100040003F6C00083F6C00083F6C00083F6C0008E4
:100050003F6C00083F6C00083F6C00083F6C0008D4
:100060003F6C00083F6C00083F6C00083F6C0008C4
:100070003F6C00083F6C00083F6C00083F6C0008B4
:100080003F6C00083F6C00083F6C00083F6C0008A4
:100090003F6C00083F6C00083F6C00083F6C000894
:1000A0003F6C00083F6C00083F6C00083F6C000884
:1000B000A366000875670008496800083F6C0008DF
:1000C0003F6C00083F6C00083F6C00083F6C000864
:1000D0003F6C0008C16100086B63000867560008A8
:1000E0003F6C00083F6C00083F6C00083F6C000844
:1000F0003F6C00083F6C00083F6C00083F6C000834
:100100003F6C00083F6C0008176900083F6C00084E
:100110003F6C00083F6C000893270008F76900084F
:100120003F6C00083F6C00083F6C00083F6C000803
:100130003F6C00083F6C00083F6C00083F6C0008F3
:100140003F6C00083F6C00083F6C00083F6C0008E3
:100150003F6C00083F6C00083F6C00083F6C0008D3
:100160003F6C00083F6C00083F6C00083F6C0008C3
:100170003F6C00083F6C00083F6C00083F6C0008B3
:100180003F6C00083F6C000800F002F800F072F8C5
:100190000AA090E8000C82448344AAF10107DA45E2
:1001A00001D100F067F8AFF2090EBAE80F0013F0C2
:1001B000010F18BFFB1A43F001031847C4B1000038
:1001C000E4B100000A444FF0000C10F8013B13F0BA
:1001D000070408BF10F8014B1D1108BF10F8015BA0
:1001E000641E05D010F8016B641E01F8016BF9D193
:1001F00013F0080F1EBF10F8014BAD1C0C1B09D1EA
:100200006D1E58BF01F801CBFAD505E014F8016B5B
:1002100001F8016B6D1EF9D59142D6D370470000ED
:100220000023002400250026103A28BF78C1FBD8FF
:10023000520728BF30C148BF0B607047662909F0DC
:100240004984642908F0AA82782908F0E382732996
:1002500008F02686002070471FB509F036FC08F02C
:1002600035FE04000020002109F0A2FBE0601FBD64
:1002700010B510BD08F046FF1146FFF7EDFF00F086
:1002800009F808F064FF03B4FFF7F2FF03BC05F0C0
:1002900033FF000008B54FF4A06006F0E3FCA8208F
:1002A00005F0A8FE4FF4E13005F034FF4FF416508E
:1002B00006F0F1F84FF4E13005F06AF905F07BFE45
:1002C00003F0C1F804F08DFB04F008FD04F034FFE6
:1002D000532140F2F31006F021FC06F083F906F0FA
:1002E000EFF906F057FA06F0BFFA42F2CF01962076
:1002F00006F020FB04F0F5FF002004F049FBF7486E
:1003000000234FF6FF7201210090084604F03BF8ED
:10031000F3A008F00DFAB1E31821F44803F070FDE2
:10032000F348007801280ED1F248F34909680160CA
:100330000078F249087008460178F1A008F0F8F951
:100340000020EB490870ED480078642874D2DFE89B
:1003500000F0323F4C596674818E9B9F73737373A8
:100360007373A3A9AFB7BFF6FEF3F2F173737373A0
:100370007373F0EFEEEDECEBEAE9E8E77373737398
:100380007373E6E573E4E3E2E1E0DF7373737373C1
:100390007373DEDDDCDBDAD9D8D7D6D5737373732C
:1003A0007373D4D3D2D1D0CFCECDCCCB7373737380
:1003B0007373CAC9C8C70020D5490870D54CE37803
:1003C000A2786178207805F014F804F052FF48E232
:1003D0000020CF490870CF4CE378A278617820786C
:1003E00005F007F804F053FF3BE20020C84908700D
:1003F000C84CE378A2786178207804F0FAFF04F022
:1004000062FF2EE20020C2490870C24CE378A27855
:100410006178207804F0EDFF04F047FF21E200202E
:10042000BB490870BB4CE378A2786178207804F06F
:10043000E0FF04F072FF14E212E20020B4490870F9
:10044000B44CE378A2786178207804F0D2FF04F00D
:1004500056FF06E20020AE490870AE4CE378A27861
:100460006178207804F0C5FF04F065FFF9E1002011
:10047000A7490870A74CE378A2786178207804F047
:10048000B8FF04F066FFECE10A2004F07EFFE8E12B
:100490000A2004F094FFE4E100209D49087004F074
:1004A00020FFDEE100209A49087004F01AFFD8E12D
:1004B00002F091FA04F030FE012095490870D0E175
:1004C00002F089FA04F028FE022091490870C8E180
:1004D00002F081FA04F020FE03208D490870C0E18B
:1004E000B6E1ADE1A4E19BE192E189E180E177E150
:1004F0006EE165E15CE153E14AE141E138E12FE180
:1005000026E11DE114E1E0E0D7E0CEE0C5E0BCE08B
:10051000B3E0AAE0A1E098E08FE086E081E07CE033
:1005200073E06AE061E058E053E04EE049E03DE00E
:1005300031E028E023E01AE011E008E0FFE702F0F4
:100540004AFA04F0E9FD04207149087089E102F0DB
:1005500042FA04F0E1FD05206D49087081E102F0E6
:100560003AFA04F0D9FD06206949087079E102F0F1
:1005700032FA04F0D1FD07206549087071E10920C5
:10058000654908706DE102F026FA04F0C5FD092006
:100590005F49087065E105220121002000F066FD39
:1005A00052480069401D514908615AE10522002165
:1005B000084600F05BFD4D480069401F4B4908614B
:1005C0004FE156A005F09BFE4BE155A005F097FECC
:1005D00047E154A005F093FE43E102F0FCF904F07A
:1005E0009BFD0A204A4908703BE102F0F4F904F04F
:1005F00093FD0B204649087033E102F0ECF904F05A
:100600008BFD0C20424908702BE102F0E4F904F064
:1006100083FD0D203E49087023E101204249087006
:100620001FE10020404908701BE102F0D4F904F0FA
:1006300073FD0E203649087013E102F0CCF904F086
:100640006BFD0F20324908700BE102F0C4F904F091
:1006500063FD10202E49087003E102F0BCF904F09C
:100660005BFD11202A490870FBE002F0B4F904F0A8
:1006700053FD142026490870F3E002F0ACF904F0B1
:100680004BFD152022490870EBE0B7EE000A01226D
:100690001146104600F088FBE3E0B7EE000A0022A6
:1006A0000121084600F080FBDBE09FED200A0122DB
:1006B0000221104600F078FBD3E09FED1C0A0022D7
:1006C0000221012000F070FBCBE0B7EE000A01220E
:1006D0000321104600F068FBC3E00000D0010020B9
:1006E000B3F5CABCBBAFCDEAB3C90A009401002080
:1006F0000100002006000020020000201000002061
:10070000CAD5B5BD7531D6B8C1EEA3BA25780A00F1
:10071000F8000020B001002014000020310000008B
:100720003200000033000000AF0100200AD7233C54
:10073000B7EE000A00220321012000F035FB90E013
:10074000B7EE000A01221146022000F02DFB88E0DE
:10075000B7EE000A00220121022000F025FB80E014
:100760001FED0E0A01220221084600F01DFB78E071
:100770001FED120A00220221084600F015FB70E06E
:10078000B7EE000A01220321022000F00DFB68E011
:10079000B7EE000A00220321022000F005FB60E012
:1007A000B7EE000A01221146032000F0FDFA58E0DE
:1007B000B7EE000A00220121032000F0F5FA50E014
:1007C0001FED260A01220221032000F0EDFA48E085
:1007D0001FED2A0A00220221032000F0E5FA40E082
:1007E0009FEDA70A01220321084600F0DDFA38E058
:1007F0009FEDA30A00220321084600F0D5FA30E05D
:10080000B7EE000A01221146042000F0CDFA28E0DC
:10081000B7EE000A00220121042000F0C5FA20E012
:100820001FED3E0A01220221042000F0BDFA18E06B
:100830001FED420A00220221042000F0B5FA10E068
:100840009FED8F0A01220321042000F0ADFA08E099
:100850009FED8B0A00220321042000F0A5FA00E09E
:1008600000BF00BF642087490870874800780E28C1
:100870007BD2DFE800F00708121C2E556A7B8A9AAB
:10088000ADC0CDEFF9E002F0DEFDAFF2701005F083
:1008900036FD00207C490870EFE002F027FEAFF241
:1008A000801005F02CFD002077490870E5E07748BE
:1008B00002F0B9F8754802F0CCF8744802F0DFF89D
:1008C00002F089F803207249087000206E49087010
:1008D000D3E070A007F02CFF0121744802F042F928
:1008E0000121724802F06DF90121704802F098F977
:1008F0006FA007F01DFF01216C4802F017FA0121DB
:100900006A4802F042FA0121684802F06DFA02F0EA
:1009100062F804205E49087000205B490870ACE072
:100920006AA007F005FF614802F08DFA5F4802F007
:10093000A0FA5E4802F0B3FA02F04DF805205449DF
:10094000087000205049087097E068A007F0F0FE9A
:1009500002F0F3FD642005F0AFFBAFF2382005F0A4
:10096000CEFC00204849087087E085E066A007F0CB
:10097000DFFE6D4802F099F802F02DF80620444998
:10098000087000204049087077E068A007F0D0FEAA
:100990004FF439706B49486302F01DF807203C4959
:1009A000087000203849087067E067A007F0C0FEB3
:1009B00002F035FB02F08FFB5B4802F08AF802F090
:1009C0000AF808203249087000202F49087054E0C6
:1009D00063A007F0ADFE02F022FB02F0D1FB52480B
:1009E00002F08BF801F0F7FF082029490870002079
:1009F0002549087041E002F012FB02F0F4FB01F01F
:100A0000EAFF0A202249087000201F49087034E0DC
:100A10000221264802F0A6F80221244802F0D1F86B
:100A20000221224802F0FCF80221204802F07EF95F
:100A300002211E4802F0A9F902211C4802F0D4F953
:100A400001F0C9FF0B201249087000200E49087000
:100A500013E0FFE7154802F038FA144802F04BFAA9
:100A6000124802F05EFA01F0B6FF0C200849087047
:100A700000200549087000E000BF00BF4CE4000002
:100A8000CDCCCC3D1000002014000020C801002077
:100A9000F8000020BBFAD0B5B1DBC4A3CABD5BB57A
:100AA000DAD2BBB4CEB7C5D6C35D0000D0010020FA
:100AB000BBFAD0B5B1DBC4A3CABD5BD6D8D0C2D710
:100AC000A5C8A1CEEFC1CF5D00000000BBFAD0B534
:100AD000B1DBC4A3CABD5BB0EBB3C9C6B7C7F8CF1F
:100AE000C2B2E3B7C5D6C35D00000000BBFAD0B503
:100AF000B1DBC4A3CABD5BC9A8C3E8CFC2B2E3CE11
:100B0000EFC1CF5D00000000BBFAD0B5B1DBC4A3DC
:100B1000CABD5BD7BCB1B8B5DAD2BBB4CED7A5C815
:100B2000A1CFC2B2E35D0000CC010020BBFAD0B57A
:100B3000B1DBC4A3CABD5BD7A6D7D3B1D5BACF5D4D
:100B40000000000000400140BBFAD0B5B1DBC4A3F7
:100B5000CABD5BBBFAD0B5B1DBCAD5BBD85D00005E
:100B6000BBFAD0B5B1DBC4A3CABD5BD7BCB1B8B5C5
:100B7000DAB6FEB4CED7A5C8A15D0000704700BFAD
:100B8000FEE700BFFEE700BFFEE700BFFEE77047DD
:100B900070477047704700000CB50020019000902E
:100BA0007648006840F480307449086000BF73489C
:100BB000006800F4003000900198401C01900098FB
:100BC00018B90198B0F5A04FF1D16C48006800F455
:100BD000003010B10120009001E00020009000984A
:100BE000012846D165484030006840F08050634994
:100BF000403108606248006840F440406049086045
:100C00005E48083000685D490831086008460068A1
:100C100040F4004008600846006840F4A0500860B6
:100C20005848091F0860081F006840F08070091FBD
:100C3000086000BF5148006800F000700028F9D03B
:100C400040F20570504908604C480830006820F0B8
:100C500003004A49083108600846006840F0020075
:100C6000086000BF45480830006800F00C00082804
:100C7000F8D10CBD10B54548006840F470004349F8
:100C800008603E48006840F001003C4908600020D0
:100C90003A4908310860394800683D4908403749F9
:100CA00008603C48091D0860081F006820F4802087
:100CB000091F0860002031490C310860FFF76CFF04
:100CC0004FF0006031498039086010BD70B50020D8
:100CD0000022022300240221284D08352D6805F04A
:100CE0000C0020B1042806D0082834D107E02A4D92
:100CF0002A4E356033E02A4D284E35602FE01F4DD7
:100D00002D1D2D68C5F380541C4D2D1D2D6805F03B
:100D10003F0154B1224DB5FBF1F5184E361D366832
:100D2000C6F3881605FB06F209E01B4DB5FBF1F58D
:100D3000124E361D3668C6F3881605FB06F20F4DB7
:100D40002D1D2D68C5F301456D1C6B00B2FBF3F53D
:100D5000124E356003E0104D104E356000BF00BFED
:100D6000064D08352D68C5F303150E4E705D0B4D0D
:100D70002D68C540094E356070BD00000038024046
:100D80000070004008544007003C024088ED00E03D
:100D9000FFFFF6FE103000240024F40018000020AD
:100DA00000127A001C00002070B52DED088B84B075
:100DB00006460C461546B0EE408A012E06D0022E9D
:100DC0003BD0032E72D0042E6FD1A6E0012C0FD1A0
:100DD0003DB1F84890ED000A30EE080A80ED000AB7
:100DE00006E0F44890ED000A30EE480A80ED000A73
:100DF000022C0FD13DB1F04890ED000A30EE080A08
:100E000080ED000A06E0EC4890ED000A30EE480A5A
:100E100080ED000A032C0FD13DB1E84890ED000AA7
:100E200030EE080A80ED000A06E0E44890ED000A82
:100E300030EE480A80ED000AA7E0012C0FD13DB149
:100E4000DF4890ED000A30EE080A80ED000A06E067
:100E5000DB4890ED000A30EE480A80ED000A022CD3
:100E60000FD13DB1D74890ED000A30EE080A80ED71
:100E7000000A06E0D34890ED000A30EE480A80ED03
:100E8000000A032C0FD13DB1CF4890ED000A30EE9F
:100E9000080A80ED000A06E0CB4890ED000A30EE2B
:100EA000480A80ED000A70E000E06DE0012C0FD1EF
:100EB0003DB1C64890ED000A30EE080A80ED000A08
:100EC00006E0C24890ED000A30EE480A80ED000AC4
:100ED000022C0FD13DB1BE4890ED000A30EE080A59
:100EE00080ED000A06E0BA4890ED000A30EE480AAC
:100EF00080ED000A032C0FD13DB1B64890ED000AF9
:100F000030EE080A80ED000A06E0B24890ED000AD3
:100F100030EE480A80ED000A37E0012C0FD13DB1D8
:100F2000AD4890ED000A30EE080A80ED000A06E0B8
:100F3000A94890ED000A30EE480A80ED000A022C24
:100F40000FD13DB1A54890ED000A30EE080A80EDC2
:100F5000000A06E0A14890ED000A30EE480A80ED54
:100F6000000A032C0FD13DB19D4890ED000A30EEF0
:100F7000080A80ED000A06E0994890ED000A30EE7C
:100F8000480A80ED000A00E000BF00BF8B480068FF
:100F900008F02AFD41EC190B8748006808F024FD91
:100FA00041EC1A0B8348006808F01EFD41EC1B0B56
:100FB0008DED029B8DED00AB53EC1B2B89A007F050
:100FC000B7FB8148006808F00FFD41EC190B7D4824
:100FD000006808F009FD41EC1A0B7948006808F038
:100FE00003FD41EC1B0B8DED029B8DED00AB53EC33
:100FF0001B2B7CA007F09CFB7648006808F0F4FCF3
:1010000041EC190B7248006808F0EEFC41EC1A0B39
:101010006E48006808F0E8FC41EC1B0B8DED029B6C
:101020008DED00AB53EC1B2B6EA007F081FB6C48E1
:10103000006808F0D9FC41EC190B6848006808F01A
:10104000D3FC41EC1A0B6448006808F0CDFC41EC7D
:101050001B0B8DED029B8DED00AB53EC1B2B67A0A2
:1010600007F066FB04B0BDEC088B70BD052878D294
:10107000DFE800F0035E7891E40061BB654BD3EDDF
:10108000000A00EE102AB8EE400A30EEC00A83EDE6
:10109000000A614BD3ED000A00EE102AB8EE400AB8
:1010A00030EEC00A83ED000A5C4BD3ED000A00EE7F
:1010B000102AB8EE400A30EEC00A83ED000A584B01
:1010C000D3ED000A00EE102AB8EE400A30EEC00A56
:1010D00083ED000A2BE04F4BD3ED000A00EE102AFF
:1010E000B8EE400A30EE800A83ED000A4A4BD3ED99
:1010F000000A00EE102AB8EE400A30EE800A83EDB6
:10110000000A464BD3ED000A00EE102AB8EE400A62
:1011100030EE800A83ED000A414BD3ED000A00EE69
:10112000102AB8EE400A30EE800A83ED000A9FE0F4
:1011300059B9384BD3ED000A00EE102AB8EE400A38
:1011400030EEC00A83ED000A0AE0324BD3ED000A0C
:1011500000EE102AB8EE400A30EE800A83ED000A55
:1011600086E084E059B92C4BD3ED000A00EE102A3A
:10117000B8EE400A30EEC00A83ED000A0AE0264BC2
:10118000D3ED000A00EE102AB8EE400A30EE800AD5
:1011900083ED000A6CE059B9204BD3ED000A00EE54
:1011A000102AB8EE400A30EEC00A83ED000A44E08F
:1011B00038E0000044000020480000204C000020DF
:1011C0005000002054000020580000205C00002047
:1011D0006000002064000020680000206C000020F7
:1011E000700000205B25302E31662025302E3266BF
:1011F0002025302E31665D09000000005B25302E71
:1012000031662025302E32662025302E31665D0A6B
:1012100000000000740000207C00002084000020FA
:101220008C000020FE4BD3ED000A00EE102AB8EE31
:10123000400A30EE800A83ED000A19E059B9F94BF3
:10124000D3ED000A00EE102AB8EE400A30EEC00AD4
:1012500083ED000A0AE0F34BD3ED000A00EE102AFA
:10126000B8EE400A30EE800A83ED000A00E000BFCD
:1012700000BF7047052835D2DFE800F003141C24B6
:101280002C0000EE101AB8EE400AE64A82ED000A81
:10129000E34A82ED000AE44A82ED000AE34A82ED65
:1012A000000A20E000EE101AB8EE400ADF4A82ED94
:1012B000000A18E000EE101AB8EE400ADA4A82ED91
:1012C000000A10E000EE101AB8EE400AD44A82ED8F
:1012D000000A08E000EE101AB8EE400AD14A82ED8A
:1012E000000A00E000BF00BF7047D148007800F05E
:1012F000800060B3CE48007800F07F0000EE100A56
:10130000B8EEC00AC94880ED000AC948007800F06C
:101310007F0000EE100AB8EEC00AC34880ED000A54
:10132000C348007800F07F0000EE100AB8EEC00A53
:10133000BB4880ED000ABE48007800F07F0000EE58
:10134000100AB8EEC00AB74880ED000A13E0B3EE09
:101350000E0AB64880ED000AB3EE0E0AB24880EDE0
:10136000000AB3EE0E0AAE4880ED000AB3EE0E0A94
:10137000AC4880ED000A704700B50146AC480078E3
:1013800040F08000AA4A10701046007808431070A0
:10139000FFF7ABFF00BD012806D002282DD003289F
:1013A00054D004287BD17BE091ED000AB8EEC00A4E
:1013B000A04AD2ED000AB4EEE00AF1EE10FA05DD23
:1013C00092ED000ABDEEC00A81ED000A91ED000A1F
:1013D000B8EEC00A974AD2ED000AF1EE600AB4EE08
:1013E000E00AF1EE10FA07D292ED000AB1EE400ADF
:1013F000BDEEC00A81ED000A7CE091ED000AB8EE76
:10140000C00A8D4AD2ED000AB4EEE00AF1EE10FAFD
:1014100005DD92ED000ABDEEC00A81ED000A91EDF6
:10142000000AB8EEC00A844AD2ED000AF1EE600A62
:10143000B4EEE00AF1EE10FA07D292ED000AB1EE36
:10144000400ABDEEC00A81ED000A53E091ED000AAA
:10145000B8EEC00A794AD2ED000AB4EEE00AF1EE25
:1014600010FA05DD92ED000ABDEEC00A81ED000A1A
:1014700091ED000AB8EEC00A704AD2ED000AF1EE12
:10148000600AB4EEE00AF1EE10FA07D292ED000A1B
:10149000B1EE400ABDEEC00A81ED000A2AE028E064
:1014A00091ED000AB8EEC00A654AD2ED000AB4EE2A
:1014B000E00AF1EE10FA05DD92ED000ABDEEC00A79
:1014C00081ED000A91ED000AB8EEC00A5C4AD2ED47
:1014D000000AF1EE600AB4EEE00AF1EE10FA07D26B
:1014E00092ED000AB1EE400ABDEEC00A81ED000A9D
:1014F00000E000BF00BF704708B5F0EE401A4B484F
:1015000090ED000A31EEC00AB0EE401A4D4890ED61
:10151000000A31EE400AB0EE402A9FED4B0A4B48DC
:1015200080ED000A4A4890ED000A30EE010A80ED95
:10153000000A90ED000ADFED470AB4EEE00AF1EE92
:1015400010FA03D29FED430A80ED000A404890ED67
:10155000000ADFED410AB4EEE00AF1EE10FA03DD15
:101560009FED3D0A80ED000A394890ED000A3B48A6
:10157000D0ED000A20EE200A394880ED000A3948F3
:1015800090ED000A60EE010AF2EE042A80EEA20A53
:101590003548D0ED000A60EE820AF2EE042A80EEB1
:1015A000A23A30EE030A2E48D0ED000A30EE200AAF
:1015B000BDEEC00A8DED000A224880ED001A694692
:1015C0000120FFF7E8FE009808BD08B5F0EE401ACC
:1015D000154890ED000A31EEC00AB0EE401A2348DB
:1015E00090ED000A31EE400AB0EE402A9FED160A57
:1015F0001F4880ED000A1F4890ED000A30EE010AF6
:1016000080ED000A90ED000ADFED120AB4EEE00A68
:10161000F1EE10FA03D29FED0F0A80ED000A2BE0E5
:10162000840000208C0000207C000020740000203A
:101630009400002078000020800000208800002016
:10164000900000209800002000000000A40000206E
:101650009C000020000048C20000484248000020D2
:10166000A0000020440000204C000020A800002022
:10167000B4000020AC000020FD4890ED000A5FEDB2
:101680000A0AB4EEE00AF1EE10FA03DD1FED0E0ACD
:1016900080ED000AF64890ED000AF648D0ED000A09
:1016A00020EE200AF44880ED000AF44890ED000A8C
:1016B00060EE010AF2EE042A80EEA20AF048D0EDB4
:1016C000000A60EE820AF2EE042A80EEA23A30EEC0
:1016D000030AE948D0ED000A30EE200ABDEEC00A48
:1016E0008DED000AE74880ED001A69460220FFF7F9
:1016F00052FE009808BD08B5F0EE401AE24890EDA1
:10170000000A31EEC00AB0EE401AE04890ED000A3F
:1017100031EE400AB0EE402A1FED350ADC4880ED7C
:10172000000ADC4890ED000A30EE010A80ED000A64
:1017300090ED000A5FED390AB4EEE00AF1EE10FA1E
:1017400003D21FED3C0A80ED000AD24890ED000A5A
:101750005FED3F0AB4EEE00AF1EE10FA03DD1FED93
:10176000420A80ED000ACB4890ED000ACA48D0ED4D
:10177000000A20EE200AC94880ED000AC84890ED12
:10178000000A60EE010AF2EE042A80EEA20AC548C1
:10179000D0ED000A60EE820AF2EE042A80EEA23A50
:1017A00030EE030ABD48D0ED000A30EE200ABDEE4F
:1017B000C00A8DED000AB54880ED001A6946032085
:1017C000FFF7E9FD009808BD08B5F0EE401AB648ED
:1017D00090ED000A31EEC00AB0EE401AB34890ED29
:1017E000000A31EE400AB0EE402A1FED690AB04807
:1017F00080ED000AAF4890ED000A30EE010A80ED5E
:10180000000A90ED000A5FED6D0AB4EEE00AF1EE19
:1018100010FA03D21FED710A80ED000AA54890ED81
:10182000000A5FED730AB4EEE00AF1EE10FA03DD90
:101830001FED770A80ED000A9E4890ED000A9E4851
:10184000D0ED000A20EE200A9C4880ED000A9C485A
:1018500090ED000A60EE010AF2EE042A80EEA20A80
:101860009848D0ED000A60EE820AF2EE042A80EE7B
:10187000A23A30EE030A9148D0ED000A30EE200A79
:10188000BDEEC00A8DED000A884880ED001A694659
:101890000420FFF780FD009808BDF0EE400A8A4959
:1018A000097801EE901AF8EE611A70EEE11AB0EEC6
:1018B000610A8649D1ED001A70EE611AB0EE611A24
:1018C0008349D1ED001AB7EE002A71EE821AC1EDFC
:1018D000001AB3EE0E2AF4EEC21AF1EE10FA30DD61
:1018E0005FEDA71AC1ED001A7A49D1ED001A71EE29
:1018F000801AC1ED001AD1ED001A9FED772AF4EE9F
:10190000C21AF1EE10FA03D2DFED731AC1ED001A1C
:101910007049D1ED001A9FED712AF4EEC21AF1EE72
:1019200010FA03DDDFED6D1AC1ED001A6949D1ED42
:10193000001A6B4991ED002A61EE821A6949C1EDE6
:10194000001A6949D1ED001A21EE802ADFED672ADD
:10195000C2EE221A664991ED002A22EE012AF2EE29
:10196000042A82EE223A71EE831A5E4991ED002A32
:1019700071EE821AFDEEE11A11EE900A534981EDE3
:10198000000A7047F0EE400A4F49097801EE901ABC
:10199000F8EE611A70EEE11AB0EE610A5549D1ED28
:1019A000001A70EE611AB0EE611A5349D1ED001AB7
:1019B000B7EE002A71EE821AC1ED001AB3EE0E2ABC
:1019C000F4EEC21AF1EE10FA30DD5FEDE11AC1ED6E
:1019D000001A4A49D1ED001A71EE801AC1ED001AC1
:1019E000D1ED001A9FED3C2AF4EEC21AF1EE10FA86
:1019F00003D2DFED391AC1ED001A4049D1ED001ACA
:101A00009FED362AF4EEC21AF1EE10FA03DDDFED97
:101A1000331AC1ED001A3949D1ED001A384991ED58
:101A2000002A61EE821A3749C1ED001A3649D1ED1C
:101A3000001A21EE802ADFED2D2AC2EE221A334948
:101A400091ED002A22EE012AF2EE042A82EE223AD9
:101A500071EE831A2B4991ED002A71EE821AFDEE88
:101A6000E11A11EE900A234981ED000A7047000047
:101A7000AC00002054000020B000002050000020E6
:101A800058000020A800002084000020B80000209A
:101A9000C4000020BC00002060000020C000002026
:101AA0005C000020640000208C000020C8000020A2
:101AB000D4000020CC0000206C000020D0000020CA
:101AC000680000207000002095000020D800002051
:101AD000E4000020DC0000200000FAC30000FA430C
:101AE00030000020E00000202C0000200000C84250
:101AF00034000020E8000020F4000020EC0000206A
:101B00003C000020F00000203800002040000020B1
:101B100010B52DED088B86B0022003F0ADF8041E41
:101B200001DB204600E06042F8490860032003F032
:101B3000A3F8041E01DB204600E06042F349486040
:101B4000042003F099F8041E01DB204600E0604207
:101B5000EE498860052003F08FF8041E01DB204663
:101B600000E06042E949C860E9480078F0BB0846F7
:101B7000D0ED000AF8EEE00AB0EE600AFFF7BCFC18
:101B8000E44909780844E4490860E048D0ED010AD6
:101B9000F8EEE00AB0EE600AFFF717FDDD4949787C
:101BA0000844DD49091D0860D848D0ED020AF8EE66
:101BB000E00AB0EE600AFFF79EFDD6498978084436
:101BC000D5490C310860D148D0ED030AF8EEE00A9F
:101BD000B0EE600AFFF7F8FDCE49C9780844CE4957
:101BE0000831086008460068643800E001E0C74931
:101BF0004861C648C0680090C4488368426801686C
:101C0000C6A006F095FDC448083000680090C248A0
:101C10000C300368C048001D0268001F0168C5A0A1
:101C200006F086FDC848006807F0DEFE41EC180BA0
:101C3000C648006807F0D8FE41EC190BC44800689C
:101C400007F0D2FE41EC1A0BC248006807F0CCFE48
:101C500041EC1B0B8DED048B8DED029B8DED00ABEC
:101C600053EC1B2BBCA006F063FDC2480378C248AE
:101C70000288C2480188C2A006F05AFD06B0BDEC39
:101C8000088B10BD10B504460B2C70D2DFE804F0B1
:101C90006F06111B25303D4A57646A0003F0E9FACC
:101CA0000020BD4908700120BC49087003F006F906
:101CB0005EE003F0ECFA0220B7490870B7490870FB
:101CC00003F0FCF854E003F0FEFA0320B249087078
:101CD000B249087003F0F2F84AE003F0E6FA012096
:101CE000AD4908700420AD49087003F0E7F83FE003
:101CF000002003F03EFA022003F05BFA022003F01A
:101D000078FA022003F095FA32E0022003F031FA6B
:101D1000002003F04EFA022003F06BFA022003F0D9
:101D200088FA25E0022003F024FA022003F041FAA9
:101D3000002003F05EFA022003F07BFA18E0022094
:101D400003F017FA022003F034FA022003F051FAEC
:101D5000002003F06EFA0BE003F08BFA1E20FFF771
:101D60000BFB05E00020FFF707FB01E0FFE700BFEA
:101D700000BFFFF7CDFE10BD10B502F0DCFF7F49BC
:101D8000088002F0FEFF7C4908807C48008840F211
:101D9000E931884208D178480088884204D103F0AC
:101DA000A0FA03F0B9F932E07448008840F25641D5
:101DB000884205D07148008840F24C41884202D1E7
:101DC00003F073FA23E06D4800886F2803D06B4856
:101DD00000880B2802D103F076FA18E066480088E4
:101DE00040F25641884205D06348008840F24C4199
:101DF000884202D103F04BFA09E05F4800886F285F
:101E000003D05D4800880B2801D103F032FA10BDE1
:101E100010B502F090FF5949088002F0B2FF564910
:101E200008805448007870B90F20FFF7A5FA03F036
:101E30004AFA032058490870584908704D480078FC
:101E4000401C4C49087003F039F84C48008840F2B7
:101E5000E931884203D0494800880B2817D145480A
:101E60000078012813D143480078401C414908708C
:101E700003F037FA03F050F9002049490870FFF7E2
:101E800034FA092047490870002047490870FFF7D5
:101E90003FFE10BD10B502F04EFF3849088002F039
:101EA00070FF354908803348007878B90F20FFF774
:101EB00063FA03F0FAF90120374908700420374922
:101EC00008702C480078401C2A49087002F0F6FF80
:101ED00029480088B8B927480078012813D1254837
:101EE0000078401C2349087003F0FBF903F014F953
:101EF00000202B490870FFF7F8F9082029490870DD
:101F0000002029490870FFF703FE10BD940100204E
:101F1000AF010020B001002034040140B1E0C2EB69
:101F2000C6F75B25642025642025642025645D09AF
:101F30000000000050574D5B256420256420256477
:101F40002025645D090000008C0000208400002032
:101F50007C0000207400002054535B252E30662046
:101F6000252E306620252E306620252E30665D0910
:101F700000000000F9000020FE000020FC0000200E
:101F8000485B2564207C2025645D09737465705B63
:101F900025645D0A00000000AC010020AD010020B6
:101FA0009400002014000020F800002010B502F07A
:101FB000C2FEFE49088002F0E4FEFD490880FD48AB
:101FC000007850B903F071F90120FB490870042032
:101FD000FA4908700120F749087002F06FFFF348D2
:101FE000008840F2E931884208D1F248007801289F
:101FF00004D1F0480078401CEE490870EB48008896
:1020000040F25641884208D1EA480078022804D1BB
:10201000E8480078401CE7490870E448008840F22E
:10202000E931884208D1E3480078032804D1E14827
:102030000078401CDF490870DC48008840F25641B7
:10204000884208D1DB480078042804D1D9480078B8
:10205000401CD8490870D548008840F2E9318842D0
:1020600008D1D4480078052804D1D2480078401C13
:10207000D0490870CD48008840F25641884208D1C6
:10208000CC480078062804D1CA480078401CC949C9
:102090000870C648008840F2E931884208D1C54836
:1020A0000078072804D1C3480078401CC149087053
:1020B000BE48008840F2564188420BD1BD480078A6
:1020C000082807D11920FFF757F9BA480078401CB3
:1020D000B8490870B548008840F2E93188421CD1FF
:1020E000B4480078092818D103F0C3F80020B44997
:1020F0000870B14908700120B04908700020B1494A
:102100000870FFF7F2F8AB480078401CA949087046
:10211000AD4800780B30AC490870AB480078002817
:1021200008DDA44800780A2804D1A7480078401E9A
:10213000A5490870A448007840B99E4800780A284C
:1021400004D19C480078401C9A490870984800883F
:1021500040F2E931884208D1964800780B2804D132
:1021600094480078401C934908709148008840F2D8
:102170005641884208D18F4800780C2804D18D48F8
:102180000078401C8B4908708948008840F2E9318A
:10219000884212D1874800780D280ED185480078F2
:1021A000401C8449087003F09CF802F0B5FF002041
:1021B00086490870062086490870FFF7A9FC10BD03
:1021C00010B502F0B8FD7949088002F0DAFD7849CF
:1021D000088002F01DFE7F4908807648007870B9BB
:1021E00003F055F802207449087074490870002003
:1021F000734908706F480078401C6E49087002F0FF
:102200005DFE6B48008840F2E931884208D1694898
:102210000078012804D167480078401C654908709F
:102220006348008840F25641884208D161480078EE
:10223000022804D15F480078401C5E4908705C4861
:10224000008840F2E931884208D15A4800780328D2
:1022500004D158480078401C5649087054480088FA
:1022600040F25641884208D152480078042804D1EF
:1022700050480078401C4F4908704C48008840F294
:10228000E931884205D04948008840F256418842E9
:1022900018D148480078052814D10F20FFF76CF8B2
:1022A00003F011F8002046490870032042490870E5
:1022B000424908700F20444908703E480078401C8D
:1022C0003C49087040480078002808DD394800780B
:1022D000062804D13C480078401E3B4908703A4823
:1022E000007840B933480078062804D13148007896
:1022F000401C304908702D48008840F2E93188427E
:1023000008D12C480078072804D12A480078401CBE
:10231000284908702548008840F25641884208D173
:1023200024480078082804D122480078401C21491C
:1023300008701E48008840F2E931884208D11D48E3
:102340000078092804D11B480078401C19490870FE
:102350001648008840F25641884208D11548007856
:102360000A2804D113480078401C12490870194803
:102370000088B8B90F4800780B2813D10D480078B1
:10238000401C0C49087002F0ACFF02F0C5FE0020B2
:102390000C490870FEF7A9FF05200D4908700020C0
:1023A0000A490870FFF7B4FB10BD0000FC000020D4
:1023B000FE000020F9000020AC010020AD0100204B
:1023C000AE01002094000020FA000020F800002058
:1023D000140000200201002010B502F0ACFCF94905
:1023E000088002F0CEFCF8490880F848007870B9FF
:1023F0001920FEF7C1FF02F066FF0320F4490870C0
:10240000F4490870F1480078401CF049087002F067
:1024100055FDEC48008840F2E93188420DD1EB4887
:102420000078012809D1E9480078401CE749087084
:102430000020E9490870FEF758FFE248008840F2A2
:102440005641884208D1E1480078022804D1DF488B
:102450000078401CDD490870DA48008840F2E93114
:10246000884208D1D9480078032804D1D748007899
:10247000401CD6490870D348008840F25641884233
:1024800008D1D2480078042804D1D0480078401CF4
:10249000CE490870CB48008840F2E931884216D115
:1024A000CA480078052812D10F20FEF765FF02F018
:1024B000E0FE0020C64908700120C64908700020CF
:1024C000C6490870C1480078401CC0490870BD4822
:1024D0000088B8B9BD480078062813D1BB480078F9
:1024E000401CBA49087002F0FCFE02F015FE042000
:1024F000BB4908700020B8490870FEF7F6FE0020BE
:10250000B8490870FFF704FB10BD10B502F013FCCA
:10251000AC49088002F035FCAB490880AB48007834
:1025200048B902F0A6FE0020A94908700120A94977
:102530000870A649087002F0C1FCA348008840F268
:10254000E931884208D1A1480078012804D19F4888
:102550000078401C9D4908709B48008840F2564115
:10256000884208D199480078022804D19748007819
:10257000401C964908709448008840F2E93188422E
:1025800008D192480078032804D190480078401C74
:102590008E4908708C48008840F25641884208D124
:1025A0008A480078042804D188480078401C87496C
:1025B00008708548008840F2E931884208D1834894
:1025C0000078052804D181480078401C7F490870B4
:1025D0007D48008840F2564188420BD17B48007804
:1025E000062807D179480078401C784908700F20E8
:1025F000FEF7C2FE7448008840F2E931884203D0F9
:10260000714800880B2812D17048007807280ED135
:102610000A20FEF7B1FE02F056FE03206C49087056
:102620006C49087069480078401C68490870FFF7D9
:102630006FFA65480088B8B964480078082813D153
:1026400062480078401C6149087002F04AFE02F0BE
:1026500063FD002060490870FEF747FE02206049D4
:10266000087000205F49087010BD10B502F063FBD0
:102670005449088002F085FB53490880534800788C
:1026800048B90F20FEF778FE02F047FE4F48007869
:10269000401C4E4908704B48008840F2E93188429E
:1026A00017D14A480078012813D102F0E2FD00203A
:1026B00049490870FEF719FE00204849087044494E
:1026C000087001204349087040480078401C3F4989
:1026D000087002F0F3FB3C48008840F2E931884280
:1026E00008D13A480078022804D138480078401CC4
:1026F000364908703448008840F25641884208D173
:1027000032480078032804D130480078401C2F4913
:1027100008702D48008840F2E931884208D12B48E2
:102720000078042804D129480078401C2749087003
:102730002548008840F2564188420BD12348007852
:10274000052807D103202849087020480078401C3C
:102750001E49087024480078002808DD1B480078CE
:10276000062804D120480078401E1F4908701E48E2
:10277000007858B915480078062807D102F0B1FD55
:10278000002018490870012015490870FFF7C0F9AA
:1027900010BD10B50121154805F0ADFB00286ED025
:1027A00010480078162864D2DFE800F00B222528B4
:1027B0002B2E313437383B3F43474B4F53576363DE
:1027C0005B5F57E0FC000020FE000020F9000020C5
:1027D000AC010020AD01002094000020AE010020DB
:1027E00014000020F8000020FA0000200010004033
:1027F000FFF73BFF3EE0FFF788FE3BE0FFF7ECFD15
:1028000038E0FFF7DDFC35E0FFF7D0FB32E0FFF703
:1028100041FB2FE0FFF7FCFA2CE02BE0FFF7ACFACE
:1028200028E00120FFF72EFA24E00220FFF72AFA21
:1028300020E00320FFF726FA1CE00420FFF722FA2D
:1028400018E00520FFF71EFA14E00620FFF71AFA39
:1028500010E00720FFF716FA0CE00820FFF712FA45
:1028600008E00920FFF70EFA04E00A20FFF70AFA51
:1028700000E000BF00BF0121FB4805F04DFB10BD8B
:1028800010B502F058FAF949088002F07AFAF849CE
:102890000880F848007850B902F0F9FC0020F649A9
:1028A00008700220F54908700120F249087002F012
:1028B00005FBEF48008840F2E931884206D1ED4837
:1028C0000078012802D10220EA490870E84800880F
:1028D00040F25641884206D1E6480078022802D1EB
:1028E0000320E4490870E248008840F2E931884258
:1028F00006D1E0480078032802D10420DD490870A1
:10290000DB48008840F25641884206D1D948007819
:10291000042802D10520D7490870D548008840F224
:10292000E93188420ED1D348007805280AD102F057
:10293000BCFC0120D04908700420D0490870062052
:10294000CC490870C948008840F2E931884206D174
:10295000C8480078072802D10820C6490870C34833
:10296000008840F25641884206D1C24800780828C3
:1029700002D10920BF490870BC48008840F2E93103
:10298000884206D1BB480078092802D10A20B949FB
:102990000870B648008840F25641884206D1B548D2
:1029A00000780A2802D10B20B2490870AF4800888D
:1029B00040F2E93188420DD1AE4800780B2809D1A8
:1029C00002F08FFC02F0A8FB0020AD4908700C203B
:1029D000A849087010BD0020A64908700A20A9491E
:1029E0000870704770B50546002419E0285D31284D
:1029F00004D0322807D033280FD109E000F0C4FDFD
:102A000000F069FB0AE000F0F4FD00F0B9FB05E01E
:102A100000F024FE00F0E7FB00E000BF00BF641CF4
:102A2000032CE3DB70BD10B504462078312802D1B9
:102A300000F0AAFD0AE02078322802D100F0D9FD8A
:102A400004E02078332801D100F008FE00F043FBB9
:102A500010BD10B504466078312802D100F094FD15
:102A60000AE06078322802D100F0C3FD04E060780B
:102A7000332801D100F0F2FD00F082FB10BD10B54B
:102A80000446A078312802D100F07EFD0AE0A0784B
:102A9000322802D100F0ADFD04E0A078332801D146
:102AA00000F0DCFD00F09FFB10BD10B5044620795E
:102AB000312802D100F005FE0AE02079322802D147
:102AC00000F029FE04E02079332801D100F04DFE0A
:102AD00010BD10B504466079312802D100F0F1FD37
:102AE0000AE06079322802D100F015FE04E0607936
:102AF000332801D100F039FE10BD10B50446A0798D
:102B0000312802D100F0DDFD0AE0A079322802D19F
:102B100000F001FE04E0A079332801D100F025FE89
:102B200010BD70B50546052419E0285D312804D094
:102B3000322807D033280FD109E000F0C2FD00F0A1
:102B4000CAFA0AE000F0E7FD00F01AFB05E000F029
:102B50000CFE00F048FB00E000BF00BF641C082C26
:102B6000E3DB70BD70B504460D46012D13D100F0B6
:102B70006DFB2078312802D100F08EFE20E0207815
:102B8000322802D100F0BCFE1AE02078332817D199
:102B900000F04EFE14E0022D12D100F057FB207918
:102BA000312802D100F078FE0AE02079322802D1E3
:102BB00000F0A6FE04E02079332801D100F038FEB1
:102BC00070BD70B504460D46012D13D100F091FB88
:102BD0006078312802D100F05FFE20E06078322872
:102BE00002D100F08DFE1AE06078332817D100F092
:102BF0001FFE14E0022D12D100F07BFB607931281A
:102C000002D100F049FE0AE06079322802D100F0DA
:102C100077FE04E06079332801D100F009FE70BD31
:102C200070B504460D46012D13D100F0B4FBA07819
:102C3000312802D100F030FE31E0A078322802D1F4
:102C400000F05EFE2BE0A078332828D100F0F0FDE4
:102C500025E0022D23D100F09EFBA079312813D16D
:102C600000F01AFE1BE0000000100040FC000020F5
:102C7000FE000020F9000020AC010020AD01002082
:102C8000F8000020FA000020A079322802D100F0DC
:102C900037FE04E0A079332801D100F0C9FD70BDF2
:102CA00070B505460E460024012E1ED100BF19E066
:102CB000285D312804D0322807D033280FD109E00D
:102CC00000F0C4FA00F0E8FD0AE000F012FB00F0AA
:102CD00017FE05E000F05FFB00F0AAFD00E000BF7A
:102CE00000BF641C032CE3DB1FE0022E1DD1042473
:102CF00019E0285D312804D0322807D033280FD1BD
:102D000009E000F0A3FA00F0C7FD0AE000F0F1FAD4
:102D100000F0F6FD05E000F03EFB00F089FD00E06C
:102D200000BF00BF641C072CE3DB70BD70B5044618
:102D30000D46012D13D12078312802D100F04AFE32
:102D40000AE02078322802D100F078FE04E02078F2
:102D5000332801D100F00BFE00F0BDF914E0022D84
:102D600012D12079312802D100F034FE0AE0207916
:102D7000322802D100F062FE04E02079332801D12C
:102D800000F0F5FD00F0A7F970BD70B504460D46E2
:102D9000012D13D16078312802D100F01BFE0AE02A
:102DA0006078322802D100F049FE04E060783328D0
:102DB00001D100F0DCFD00F0E3F914E0022D12D1A6
:102DC0006079312802D100F005FE0AE060793228EE
:102DD00002D100F033FE04E06079332801D100F025
:102DE000C6FD00F0CDF970BD70B504460D46012D4D
:102DF00013D1A078312802D100F0ECFD0AE0A078D0
:102E0000322802D100F01AFE04E0A078332801D164
:102E100000F0ADFD00F0E7F914E0022D12D1A07929
:102E2000312802D100F0D6FD0AE0A079322802D183
:102E300000F004FE04E0A079332801D100F097FDF2
:102E400000F0D1F970BD10B5044600F0FFF920780C
:102E5000312802D100F05EFE0AE02078322802D14B
:102E600000F08CFE04E02078332801D100F01FFE32
:102E700010BD10B5044600F03CFA6078312802D14C
:102E800000F048FE0AE06078322802D100F076FEB9
:102E900004E06078332801D100F009FE10BD10B5C0
:102EA000044600F078FAA078312802D100F032FE12
:102EB0000AE0A078322802D100F060FE04E0A07899
:102EC000332801D100F0F3FD10BD10B5044600F029
:102ED000BDF92078312802D100F0F4FE0AE0207814
:102EE000322802D100F025FF04E02078332801D1F8
:102EF00000F078FE10BD10B5044600F0FAF96078D5
:102F0000312802D100F0DEFE0AE06078322802D1DA
:102F100000F00FFF04E06078332801D100F062FE7A
:102F200010BD10B5044600F036FAA078312802D161
:102F300000F0C8FE0AE0A078322802D100F0F9FEC5
:102F400004E0A078332801D100F04CFE10BD000051
:102F500070B505460E46344605E0FE4804600F2075
:102F600003F0AAF8A41EAC42F7D270BD70B50546B6
:102F70000E46344605E0F74804600D2003F09CF847
:102F8000A41CAC42F7D970BD70B505460E46344658
:102F900005E0F04804600F2003F08EF8A41CAC425A
:102FA000F7D970BD70B505460E46344605E0EA48CF
:102FB00084630F2003F080F8A41CAC42F7D970BDE5
:102FC00070B505460E46344605E0E44804600F201F
:102FD00003F072F8641CAC42F7D970BD10B54FF421
:102FE0004870DC4908604FF4FA7003F065F840F26D
:102FF0002440DA4908604FF4487003F05DF84FF45C
:10300000487140F28B30FFF7BFFFC82003F054F83F
:103010004FF45C7140F2BF30FFF7C4FF10BD10B534
:103020004FF44870CB49086003F046F840F2244062
:10303000CA4908604FF4487003F03EF84FF44871F5
:1030400040F28B30FFF7A0FFC82003F035F84FF4B3
:10305000337140F2BF30FFF7A5FF10BD10B540F24D
:10306000BF30BD4988634FF4487003F025F840F243
:103070002440BA4908604FF4487003F01DF840F24C
:103080008B30B44908604FF4FA7003F015F810BDA6
:1030900010B540F22440B14908604FF4FA7003F0D3
:1030A0000BF840F2BF30AC4988634FF4967003F0E0
:1030B00003F840F28B30A74908604FF4FA7002F031
:1030C000FBFF4FF44870A349091D08604FF4FA70E4
:1030D00002F0F2FF10BD10B5A14800889D49091DFE
:1030E00008604FF4487002F0E7FF9E480088994955
:1030F000086040F2EE2002F0DFFF40F224419A48DF
:103100000088FFF75DFF4FF4FA7002F0D5FF974893
:103110000088914988634FF4487002F0CDFF40F277
:103120008E208D4948634FF4487002F0C5FF40F28D
:1031300024408A4908604FF4487002F0BDFF40F215
:10314000BF30854988634FF4487002F0B5FF40F204
:103150008B30804908604FF4487002F0ADFF4FF4A7
:10316000D7707C49091D08604FF4167002F0A4FF67
:103170004FF4167078494863C82002F09DFF10BDD7
:1031800010B57B4800887349091D08604FF44870EA
:1031900002F092FF774800886E49086040F2EE2006
:1031A00002F08AFF40F2244173480088FFF708FFCD
:1031B0004FF4FA7002F080FF704800886649886317
:1031C0004FF4487002F078FF40F28E206249486365
:1031D0004FF4487002F070FFFFF75AFF4FF416707B
:1031E0005D49486310BD10B5654800885949091DFF
:1031F00008604FF4617002F05FFF62480088554933
:10320000086040F2EE2002F057FF40F224415E4891
:103210000088FFF7D5FE4FF4FA7002F04DFF5B48CF
:1032200000884D4988634FF4487002F045FF40F232
:103230008E20494948634FF4487002F03DFFFFF784
:1032400027FF4FF416704449486310BD10B540F293
:103250008E2041494863424800883E49091D086064
:103260004FF4487002F028FF40F28B313D4800884F
:10327000FFF78AFEC82002F01FFF3C48008836494D
:1032800088634FF4487002F017FF40F2244136483B
:103290000088FFF795FE4FF4FA7002F00DFF4FF42F
:1032A00039702D4948634FF4487002F005FF40F231
:1032B000BF30294988634FF4487002F0FDFE40F2A8
:1032C0002440264908604FF4487002F0F5FE40F2B1
:1032D0008B30204908604FF4487002F0EDFE4FF447
:1032E000D7701C49091D08604FF4487002F0E4FED5
:1032F00010BD10B540F28E20174948631C48008865
:103300001449091D08604FF4487002F0D5FE40F2E0
:103310008B3118480088FFF737FEC82002F0CCFE3A
:10332000164800880C4988634FF4487002F0C4FEC8
:1033300040F2244110480088FFF742FEC82002F006
:10334000BBFE4FF43970044948634FF4487002F0F3
:10335000B3FE1DE0341800400040014034440140F9
:1033600082010020800100207E0100207C010020DD
:103370008A010020880100208601002084010020AD
:1033800092010020900100208E0100208C0100207D
:10339000FFF77EFE10BD10B540F28E20FE49486357
:1033A000FE480088FE4908604FF4487002F084FE31
:1033B00040F28B31FB480088FFF7E6FDC82002F0A1
:1033C0007BFEF9480088F449886340F2EE2002F061
:1033D00073FE40F22441F5480088FFF7F1FDC82054
:1033E00002F06AFE4FF43970EB4948634FF44870BD
:1033F00002F062FEFFF74CFE10BD10B54FF41670E0
:10340000E5494863401002F057FE40F20A40E8499F
:1034100008604FF4967002F04FFE40F23640E049EB
:10342000091F08604FF4967002F046FE4FF4D77003
:10343000DB4908604FF4FA7002F03EFE40F2E240D1
:10344000D549886310BD10B540F2FD30D449091F3D
:1034500008604FF4FA7002F02FFE4FF4E070D0498C
:1034600008604FF4FA7002F027FE4FF41670CA4954
:103470004863642002F020FE40F2C440C6498863DD
:103480004FF4FA7002F018FE40F23440C849086068
:1034900010BD10B540F2B710C14908604FF4487034
:1034A00002F00AFE40F2022140F2EE20FFF75EFD3C
:1034B0004FF4967002F000FE40F20A40BC490860EA
:1034C0004FF4487002F0F8FD40F23640B449091F4D
:1034D00008604FF4487002F0EFFD40F2E240AE4960
:1034E00088634FF4FA7002F0E7FD10BD10B54FF499
:1034F0001670A94948634FF4E070A94908604FF479
:10350000C87002F0D9FD40F2E240A34988634FF44D
:10351000967002F0D1FD40F21240A149091F0860E7
:103520004FF4FA7002F0C8FD40F20A40A04908606A
:103530004FF4967002F0C0FD10BD10B54FF4167038
:103540009549486340F2C910954908604FF4C87026
:1035500002F0B2FD40F294408F4988634FF49670B8
:1035600002F0AAFD40F2B5308D49091F08604FF402
:10357000FA7002F0A1FD40F20A408D4908604FF454
:10358000967002F099FD10BD10B58A4800888449F4
:1035900008604FF4FA7002F08FFD874800887E497A
:1035A00088634FF4487002F087FD4FF448707C49FF
:1035B000091F086002F080FD804800887C4908608F
:1035C0004FF4487002F078FD4FF448717C48008851
:1035D000FFF7BEFC4FF4967002F06EFD4FF43970A9
:1035E0006D4948634FF4487002F066FDFFF7F6FC42
:1035F00010BD10B57348008869490860642002F066
:103600005BFD71480088644988634FF4167002F0CE
:1036100053FD4FF448706249091F08604FF42F7042
:1036200002F04AFD69480088614908604FF448701B
:1036300002F042FD4FF4487165480088FFF788FCAE
:10364000C82002F039FD4FF43E70534948634FF4EF
:10365000487002F031FDFFF7C1FC10BD10B55D48A8
:1036600000884F490860C82002F026FD5A480088AB
:10367000494988634FF4487002F01EFD4FF44870CA
:103680004749091F086002F017FD5448008848495F
:1036900008604FF4487002F00FFD4FF44871504835
:1036A0000088FFF755FCC82002F006FD4FF4397082
:1036B000394948634FF47A7002F0FEFCFFF78EFC44
:1036C00010BD10B547480088354908604FF4967022
:1036D00002F0F2FC444800882F4988634FF4487098
:1036E00002F0EAFC4FF448702D49091F086002F00F
:1036F000E3FC3E4800882E4908604FF4487002F011
:10370000DBFC4FF448713A480088FFF721FC642045
:1037100002F0D2FC10BD10B5364800882049086080
:103720004FF4967002F0C8FC334800881A49886349
:103730004FF4487002F0C0FC4FF448701849091F5C
:10374000086002F0B9FC2D480088194908604FF460
:10375000487002F0B1FC4FF4487129480088FFF727
:10376000F7FB642002F0A8FC10BD10B525480088C6
:103770000B49086024480088074988634FF4487063
:1037800002F09AFC4FF448700549091F086002F0E6
:1037900093FC1E4800883BE000400140920100205D
:1037A00038180040900100208C0100208E0100207C
:1037B000344401400A0100200401002006010020D9
:1037C00008010020120100200C0100200E01002041
:1037D000100100201A010020140100201601002011
:1037E00018010020220100201C0100201E010020E1
:1037F000200100202A0100202401002026010020B1
:1038000028010020320100202C0100202E01002080
:10381000FE4908604FF4487002F04EFC4FF44871C6
:10382000FB480088FFF794FB642002F045FC10BDC4
:1038300010B5F8480088F84988634FF4487002F0E2
:103840003BFC4FF44870F549086002F035FCF44841
:103850000088F249091D08604FF4487002F02CFC02
:10386000F0480088E94908604FF4487002F024FCF1
:103870004FF44871EC480088FFF76AFB642002F0BF
:103880001BFC4FF41670E44948634FF4487002F093
:1038900013FCFFF7C4FB10BD10B5E4480088DE49F7
:1038A00088634FF4FA7002F007FC4FF44870DB496C
:1038B000086002F001FCDE480088D849091D086054
:1038C0004FF4487002F0F8FBDA480088CF490860EE
:1038D0004FF4487002F0F0FB4FF44871D64800886E
:1038E000FFF736FBC82002F0E7FB4FF41670CA4919
:1038F00048634FF47A7002F0DFFBFFF790FB10BDD6
:1039000010B5CE480088C44988634FF4487002F06F
:10391000D3FB4FF44870C149086002F0CDFBC848A2
:103920000088BE49091D08604FF4487002F0C4FBCE
:10393000C4480088B54908604FF4487002F0BCFBE9
:103940004FF44871C0480088FFF702FBC82002F01E
:10395000B3FB4FF41670B04948634FF47A7002F02D
:10396000ABFBFFF75CFBC82002F0A6FB10BD10B557
:10397000A8480088A84988634FF4487002F09CFB6F
:103980004FF44870A549086002F096FBA4480088EF
:10399000A249091D0860C82002F08EFBA1480088DA
:1039A0009A4908604FF4487002F086FB4FF4487162
:1039B0009D480088FFF7CCFAC82002F07DFB4FF449
:1039C0003970954948634FF4487002F075FBFFF772
:1039D00026FB10BD10B5954800888F4988634FF4C9
:1039E000487002F069FB4FF448708C49086002F09F
:1039F00063FB8F4800888949091D08604FF44870AF
:103A000002F05AFB8B480088804908604FF4FA7036
:103A100002F052FB4FF4487187480088FFF798FA8C
:103A2000C82002F049FB4FF439707B4948634FF4DA
:103A3000487002F041FBFFF7F2FA10BD10B57F4865
:103A40000088754988634FF4487002F035FB4FF4E5
:103A500048707249086002F02FFB794800886F496E
:103A6000091D08604FF4487002F026FB7548008875
:103A7000664908604FF4FA7002F01EFB4FF448717B
:103A800071480088FFF764FAC82002F015FB4FF474
:103A90003970614948634FF4487002F00DFBFFF73D
:103AA000BEFA4FF4D7705D49091D086010BD10B50E
:103AB00066480088584988634FF4167002F0FCFA93
:103AC0004FF448705549086002F0F6FA60480088E3
:103AD0005249091D08604FF4487002F0EDFA5D4844
:103AE00000884A4908604FF4487002F0E5FA4FF444
:103AF000487159480088FFF72BFAC82002F0DCFA19
:103B00004FF4167044494863C82002F0D5FAFFF715
:103B100086FA10BD10B5514800883F4988634FF4BC
:103B2000167002F0C9FA4FF448703C49086002F080
:103B3000C3FA4B4800883949091D08604FF44870A2
:103B400002F0BAFA47480088304908604FF44870DC
:103B500002F0B2FA4FF4487143480088FFF7F8F9D1
:103B6000C82002F0A9FA4FF416702B4948634FF4AD
:103B7000487002F0A1FAFFF752FA10BD10B53B48A9
:103B80000088254988634FF4167002F095FA4FF4C7
:103B900048702249086002F08FFA354800881F49B2
:103BA000091D08604FF4487002F086FA3148008819
:103BB000164908604FF4487002F07EFA4FF44871DD
:103BC0002D480088FFF7C4F9C82002F075FA4FF4B9
:103BD0001670114948634FF4487002F06DFAFFF710
:103BE0001EFA10BD10B5254800880B4988634FF4B4
:103BF000167002F061FA4FF448700849086002F04C
:103C00005BFA1F4800880549091D3BE03444014028
:103C100030010020340100200040014034180040F1
:103C20003A01002036010020380100203C0100202C
:103C3000420100203E0100204001002044010020FC
:103C40004A01002046010020480100204C010020CC
:103C5000520100204E01002050010020540100209C
:103C60005A01002056010020580100205C0100206C
:103C7000620100205E01002060010020640100203C
:103C80006A01002008604FF4487002F015FA4348BA
:103C90000088434908604FF4FA7002F00DFA4FF4BF
:103CA000487140480088FFF753F9322002F004FAC7
:103CB0004FF416703C494863C82002F0FDF9FFF745
:103CC0008DF910BD10B539480088374988634FF425
:103CD000167002F0F1F940F2EE20354908604FF419
:103CE000487002F0E9F9334800883149091D08603D
:103CF000322002F0E1F9322002F0DEF92E4800888D
:103D0000274908604FF4FA7002F0D6F940F2EE212C
:103D10002A480088FFF71CF9322002F0CDF94FF451
:103D2000167021494863C82002F0C6F9FFF756F91A
:103D300010BD10B5224800881B4988634FF41670E7
:103D400002F0BAF94FF448701949086002F0B4F96A
:103D50001C4800881649091D0860322002F0ACF9A1
:103D6000322002F0A9F9184800880D4908604FF484
:103D7000FA7002F0A1F94FF4487114480088FFF777
:103D8000E7F8322002F098F94FF4167006494863BC
:103D9000C82002F091F9FFF721F910BD660100205B
:103DA0003444014068010020004001406C010020C3
:103DB00034180040720100206E01002070010020C4
:103DC000740100207A010020760100207801002093
:103DD0001849088000BF1749091F098801F08001B0
:103DE0000029F8D0704700B502460B4603E0107872
:103DF000FFF7EEFF521C181EA3F10103F7D100BD1F
:103E00007CB504460D460CA0006801900BA000682C
:103E10000090022101A8FFF7E6FF29462046FFF7A0
:103E2000E2FF02216846FFF7DEFF05A002F07DFAFF
:103E30007CBD00000448004003FC0000FC030000BF
:103E40003100000030B5014601F01F04C1F34513F5
:103E5000CA0AE50205EB43151544A8B230BD2DE9A9
:103E6000F04706460F4690469A46002445464FEADC
:103E70004800C0F103094AE07A1991B2321990B2B0
:103E8000524600F0D7FE7A1991B2321B90B25246D8
:103E900000F0D0FE7A1B91B2321990B2524600F077
:103EA000C9FE7A1B91B2321B90B2524600F0C2FE9C
:103EB0003A1991B2721990B2524600F0BBFE3A190B
:103EC00091B2721B90B2524600F0B4FE3A1B91B20E
:103ED000721990B2524600F0ADFE3A1B91B2721BBD
:103EE00090B2524600F0A6FEB9F1000F05DA0420A8
:103EF00000FB049000F1060907E0601B042101FBB0
:103F0000009000F10A09681E85B2601C84B2AC42C0
:103F1000B2DBAC4237D17A1991B2321990B2524623
:103F200000F088FE7A1991B2321990B2524600F030
:103F300081FE7A1B91B2321990B2524600F07AFE9D
:103F40007A1B91B2321B90B2524600F073FE3A19BE
:103F500091B2721990B2524600F06CFE3A1991B2C9
:103F6000721B90B2524600F065FE3A1B91B2721974
:103F700090B2524600F05EFE3A1B91B2721B90B2B4
:103F8000524600F057FEBDE8F0872DE9FF4F83B0A1
:103F9000804689464946404600F042FE0598A0EB1F
:103FA00008050698A0EB0906002D02DB012002900F
:103FB00003E04FF0FF3002906D42002E02DB012043
:103FC000019003E04FF0FF30019076424FEA450A3E
:103FD0004FEA460BB54219DDABEB0504002712E0B2
:103FE00049464046109A00F025FE002C05DBA4EB64
:103FF0000A04019848441FFA80F95C44029840443E
:104000001FFA80F87F1CAF42EADD18E0AAEB060435
:10401000002712E049464046109A00F00BFE002CA3
:1040200005DBA4EB0B04029840441FFA80F85444CB
:10403000019848441FFA80F97F1CB742EADD07B0B7
:10404000BDE8F08F2DE9F84305460C4616461F469D
:10405000DDF820804EF67D700090A81982B22346CC
:1040600021462846FFF791FF42F6651004F1010C46
:10407000BC441FFA8CF305EB060CACF1010C1FFAE3
:104080008CF204F1010C1FFA8CF105EB060CACF17B
:10409000010C00901FFA8CF0FFF777FF42F66510D5
:1040A0000090E01983B2A81982B2E01981B22846C3
:1040B000FFF76BFF4EF67D700090E01983B22A4641
:1040C00021462846FFF761FF04F1010CBC44ACF126
:1040D000020C1FFA8CF305F1010CB444ACF1020C94
:1040E0001FFA8CF204F1010C1FFA8CF105F1010C9E
:1040F0001FFA8CF0CDF80080FFF747FFBDE8F8838A
:104100002DE9F84305460C4616461F46DDF820808B
:10411000B8F1000F39D14EF67D700090A81982B227
:10412000234621462846FFF730FF42F6651004F18A
:10413000010CBC441FFA8CF305EB060CACF1010C2E
:104140001FFA8CF204F1010C1FFA8CF105EB060C3E
:10415000ACF1010C00901FFA8CF0FFF716FF42F64D
:1041600065100090E01983B2A81982B2E01981B2FB
:104170002846FFF70AFF4EF67D700090E01983B2E3
:104180002A4621462846FFF700FFB8F1010F39D132
:1041900042F665100090A81982B2234621462846AF
:1041A000FFF7F3FE4EF67D7004F1010CBC441FFADC
:1041B0008CF305EB060CACF1010C1FFA8CF204F148
:1041C000010C1FFA8CF105EB060CACF1010C009010
:1041D0001FFA8CF0FFF7D9FE4EF67D700090E019C3
:1041E00083B2A81982B2E01981B22846FFF7CDFE4A
:1041F00042F665100090E01983B22A46214628460F
:10420000FFF7C3FEB8F1020F39D14FF6FF700090EF
:10421000A81982B2234621462846FFF7B6FE4FF67C
:10422000FF7004F1010CBC441FFA8CF305EB060C83
:10423000ACF1010C1FFA8CF204F1010C1FFA8CF1A5
:1042400005EB060CACF1010C00901FFA8CF0FFF7A7
:104250009CFE4FF6FF700090E01983B2A81982B25D
:10426000E01981B22846FFF790FE4FF6FF700090EC
:10427000E01983B22A4621462846FFF786FEBDE8AC
:10428000F883F8B504460D4616461F4644F208204A
:104290002B463246294600902046FFF776FE48F22C
:1042A00010406A1C93B291B2621C009090B23246E8
:1042B000FFF76BFE44F208203B4622462946009059
:1042C0002046FFF762FE48F21040631C9AB26B1C56
:1042D00099B2631C009098B23B46FFF756FE4FF62A
:1042E000FF703B463246394600902046FFF74DFEB0
:1042F0004FF6FF703B463246294600903046FFF7A6
:1043000044FEF8BDF8B506460F4614461D464FF666
:10431000FF703B462246394600903046FFF735FE97
:104320004FF6FF702B463246394600903046FFF775
:104330002CFE48F210406A1E93B291B2721C00909B
:1043400090B22246FFF721FE44F208202B46224677
:10435000294600903046FFF718FE48F21040631ED1
:104360009AB27B1C99B2631E009098B22B46FFF75D
:104370000CFE44F208202B46224639460090204687
:10438000FFF703FEF8BD2DE9FF4F81B007468A46CF
:104390009B46DDF8388050E098F800003A284ADA69
:1043A00098F80090B9F1300F04DBA9F1300000F06B
:1043B000FF0907E0B9F12B0F02D14FF00A0901E024
:1043C0004FF00009002531E000242BE0FA4901EB11
:1043D000C91000EB4500005D009000261EE0802023
:1043E00030410099084050B10AEB050291B207EB49
:1043F000C402324490B2039A00F01CFC0CE0039813
:10440000584509D00AEB050291B207EBC4023244C9
:1044100090B25A4600F00EFC701CC6B2082EDEDBCD
:10442000601CC4B2022CD1DB681CC5B2402DCBDBB2
:1044300007F1130087B208F1010898F8000000287E
:10444000AAD105B0BDE8F08F2DE9F84F07468846A0
:1044500093469A46DDF828900097B3E099F800005B
:1044600080283DDA99F800600D2E05D1009F08F1F3
:1044700010001FFA80F830E0202E03DDA6F12000A6
:1044800086B200E00026002422E000251CE004EBB8
:104490000610CA49085C80212941084040B108EB58
:1044A000040291B27A1990B25A4600F0C3FB09E0B7
:1044B000D34507D008EB040291B27A1990B2524664
:1044C00000F0B8FB681CC5B2082DE0DB601CC4B26C
:1044D000102CDADB07F1080087B209F1010971E05D
:1044E000002668E006EB0610B54911F8100099F8AF
:1044F000001088425DD106EB0610B14901EB400087
:10450000407899F80110884253D100244FE00025EB
:1045100020E006EB0610AA4901EB4000801C10F8D1
:10452000141080202841014041B108EB040291B2EF
:104530007A1990B25A4600F07DFB09E0D34507D0C6
:1045400008EB040291B27A1990B2524600F072FB65
:10455000681CC5B2082DDCDB002524E006EB061044
:10456000974901EB4000801C012101EB4401405CB4
:1045700080212941084048B108EB040291B27A1920
:10458000083290B25A4600F055FB0AE0D34508D0F5
:1045900008EB040291B27A19083290B2524600F048
:1045A00049FB681CC5B2082DD8DB601CC4B2102CB6
:1045B000ADDB701C86B2322E94DB09F1020907F1E3
:1045C000100087B299F8000000287FF447AFBDE8DB
:1045D000F88F2DE9F05F0646884693469A46DDF847
:1045E0002890E2E099F80000802835DA99F8007008
:1045F000202F03DDA7F1200087B200E0002700256F
:1046000022E000241CE005EB07106C49095C8020C7
:104610002041014041B108EB050291B2321990B23C
:104620005A4600F007FB09E0D34507D008EB050226
:1046300091B2321990B2524600F0FCFA601CC4B23A
:10464000082CE0DB681CC5B2102DDADB09F101098A
:1046500006F1080086B2A8E000279EE007EB87007D
:1046600000EB4710574911F8100099F800108842E4
:104670007CD107EB870000EB4710524901EB40006B
:10468000407899F801108842F2D1002580E000249A
:1046900023E007EB870000EB47104A4901EB40009D
:1046A000801C05EB4501405C80212141084040B160
:1046B00008EB050291B2321990B25A4600F0BAFAEC
:1046C00009E0D34507D008EB050291B2321990B248
:1046D000524600F0AFFA601CC4B2082CD9DB0024AB
:1046E00026E007EB870000EB4710364901EB40005E
:1046F000801C05EB4501491C405C8021214108409C
:1047000048B108EB050291B23219083290B25A460C
:1047100000F090FA0AE0D34508D008EB050291B208
:104720003219083290B2524600F084FA601CC4B2CA
:10473000082CD6DB002427E007EB870000EB4710AE
:10474000204901EB4000801C05EB4501891C405CC1
:1047500080212141084050B108EB050291B2321985
:10476000103290B25A4600F065FA0BE013E0D345E0
:1047700008D008EB050291B23219103290B25246BD
:1047800000F058FA601CC4B2082CD5DB681CC5B216
:10479000182DFFF67CAF781C87B2142FFFF65EAFA2
:1047A00009F1020906F1180086B299F80000002804
:1047B0007FF418AFBDE8F09FC9A00008D89A0008A0
:1047C0004AA6000832AD00082DE9F05F074688468A
:1047D00092469946002531E000242BE019490A98B9
:1047E00001EBC01000EB850010F804B000261DE0BE
:1047F0008020304100EA0B0050B108EB050291B275
:1048000007EBC402324490B2524600F013FA0BE0B8
:10481000CA4509D008EB050291B207EBC402324445
:1048200090B24A4600F006FA701CC6B2082EDFDBD2
:10483000601CC4B2042CD1DB681CC5B2202DCBDBBC
:10484000BDE8F09FC9A000081CB50121162003F0A7
:1048500019FE4FF4E050009002208DF80500012071
:104860008DF8040000208DF806006946F94802F032
:10487000EFFA082000906946F74802F0E9FA4FF491
:10488000806000906946F54802F0E2FA1CBD002104
:10489000082116E000F0800222B10822EE4B183306
:1048A0001A8003E00822EC4B1A331A804FF480621E
:1048B000E84B1A331A809B1E1A804206100E4A1EBD
:1048C000D1B20029E6DC704710B504464FF48050A1
:1048D000E0491A3108804010891E08802012FFF735
:1048E000D6FFE0B2FFF7D3FF4FF48050D94918311B
:1048F000088010BD10B504464FF48050D5491A31D8
:104900000880401008802046FFF7C1FF4FF4805018
:10491000D0491831088010BD10B504464FF48050BE
:10492000CC491A3108804010891E08802046FFF7C4
:10493000AEFF4FF48050C7491831088010BDF0B564
:1049400005460C4616461F462A20FFF7D3FF0020D7
:10495000FFF7E2FFE8B2FFF7DFFF0020FFF7DCFF21
:10496000B11CC8B2FFF7D8FF2B20FFF7C3FF002010
:10497000FFF7D2FFE0B2FFF7CFFF0020FFF7CCFF39
:10498000791CC8B2FFF7C8FF2C20FFF7B3FFF0BDBA
:1049900070B506469F237F2200210846FFF7CFFF10
:1049A0002C20FFF7A7FF002408E0002503E0304695
:1049B000FFF78AFF6D1CA02DF9D3641C802CF4D363
:1049C00070BD10B54FF48060A4494883642001F0A5
:1049D00073FB4FF48060A1490883322001F06CFB27
:1049E00010BD10B5FFF730FFFFF7EBFF1120FFF709
:1049F00081FF782001F060FBB120FFF77BFF0120F1
:104A0000FFF78AFF2C20FFF787FF2D20FFF784FF99
:104A1000B220FFF76FFF0120FFF77EFF2C20FFF78A
:104A20007BFF2D20FFF778FFB320FFF763FF012006
:104A3000FFF772FF2C20FFF76FFF2D20FFF76CFFB1
:104A40000120FFF769FF2C20FFF766FF2D20FFF7FD
:104A500063FFB420FFF74EFF0720FFF75DFFC02084
:104A6000FFF748FFA220FFF757FF0220FFF754FF90
:104A70008420FFF751FFC120FFF73CFFC520FFF75F
:104A80004BFFC220FFF736FF0A20FFF745FF00204B
:104A9000FFF742FFC320FFF72DFF8A20FFF73CFFFF
:104AA0002A20FFF739FFC420FFF724FF8A20FFF7F1
:104AB00033FFEE20FFF730FFC520FFF71BFF0E206E
:104AC000FFF72AFF3620FFF715FFC020FFF724FF6E
:104AD000E020FFF70FFF0F20FFF71EFF1A20FFF760
:104AE0001BFF0F20FFF718FF1820FFF715FF2F20DF
:104AF000FFF712FF2820FFF70FFF2020FFF70CFF22
:104B00002220FFF709FF1F20FFF706FF1B20FFF7FA
:104B100003FF2320FFF700FF3720FFF7FDFE0020F3
:104B2000FFF7FAFE0720FFF7F7FE0220FFF7F4FE7B
:104B30001020FFF7F1FEE120FFF7DCFE0F20FFF76A
:104B4000EBFE1B20FFF7E8FE0F20FFF7E5FE172026
:104B5000FFF7E2FE3320FFF7DFFE2C20FFF7DCFE3D
:104B60002920FFF7D9FE2E20FFF7D6FE3020FFF7D1
:104B7000D3FE3020FFF7D0FE3920FFF7CDFE3F20D7
:104B8000FFF7CAFE0020FFF7C7FE0720FFF7C4FEAD
:104B90000320FFF7C1FE1020FFF7BEFE2A20FFF71B
:104BA000A9FE0020FFF7B8FE0220FFF7B5FE0020A7
:104BB000FFF7B2FE8220FFF7AFFE2B20FFF79AFE31
:104BC0000020FFF7A9FE0320FFF7A6FE0020FFF755
:104BD000A3FE7B20FFF7A0FEF020FFF78BFE012055
:104BE000FFF79AFEF620FFF785FE0020FFF794FE00
:104BF0003A20FFF77FFE0520FFF78EFE2920FFF702
:104C000079FE4EF67D70FFF7C3FE10BD30B5054648
:104C10000C462846FFF76EFE2046FFF77DFE30BDAE
:104C200030B504460D462B46224629462046FFF75E
:104C300086FE30BD70B504460D461646681C83B22C
:104C4000601C82B229462046FFF779FE3046FFF706
:104C50003BFE70BD0004024000080240001002400C
:104C600060B505460E4631462846FFF7D9FFE0B24B
:104C7000FFF752FE204660BD0146022906D00329F7
:104C80000DD0042912D005291ED116E04FF0804224
:104C9000526A10B200224FF080435A6216E00C4A6A
:104CA000126810B200220A4B1A600FE0094A12681B
:104CB00010B20022074B1A6008E0074A126810B2CF
:104CC0000022054B1A6001E0002000BF00BF7047C2
:104CD0002404004024080040240C00401CB501219D
:104CE0007F2003F0CFFB00208DF8040001208DF819
:104CF0000700C00200906946FA4802F0A9F8512066
:104D000000906946F84802F0A3F84FF460700090F4
:104D10006946F64802F09CF84FF4604000906946FE
:104D2000F34802F095F84AF6032000906946F148EE
:104D300002F08EF81CBD10B54FF40051ED4802F0A2
:104D4000E9F84FF47A7110FB01F44FF40041E9489F
:104D500002F0E0F800EBC00101EB001004EB80046E
:104D60004FF40061E34802F0D5F800EB800004EB5B
:104D700040044FF40071DF4802F0CCF8204480B2C8
:104D800010BD10B51021D84802F0C4F84FF47A7164
:104D900010FB01F44021D44802F0BCF800EBC00144
:104DA00001EB001004EB80040121CF4802F0B2F8BF
:104DB00000EB800004EB40044FF40061C94802F0AE
:104DC000A9F8204480B210BD10B50121C94802F0F5
:104DD000A1F84FF47A7110FB01F44FF48041C448FC
:104DE00002F098F800EBC00101EB001004EB800426
:104DF0008021BE4802F08EF800EB800004EB4004F6
:104E00004FF40071B94802F085F8204480B210BD1B
:104E100010B50221B74802F07DF84FF47A7110FB0B
:104E200001F44FF48071B14802F074F800EBC00156
:104E300001EB001004EB80044FF40041AC4802F099
:104E400069F800EB800004EB40044FF40051A848DF
:104E500002F060F8204480B210BDF8B5FFF7D8FF2B
:104E60000446FFF7B1FF0546FFF78BFF0646FFF745
:104E700062FF07462B46324639469FA0009403F056
:104E800057FCF8BD10B5A1480078052811D2DFE81D
:104E900000F00304070A0D000CE000F0EAF909E055
:104EA00000F0F5F906E000F00EFA03E000F0FDF97D
:104EB00000E000BF00BFFCF718FA10BD2DE9F0417B
:104EC000FFF739FF0446FFF75CFF0646FFF77CFF5C
:104ED0000546FFF79DFF07468D480078002850D112
:104EE0008A48007801284CD18A48007860B30B2C9E
:104EF00005D06F2C03D040F2F330844208D10F214B
:104F00000120FCF7B7F90F210220FCF7B3F9E6E026
:104F100040F24C40844207D040F25640844203D0D5
:104F200040F24D40844208D10F210320FCF7A2F942
:104F30000F210420FCF79EF9D1E040F2E9308442D1
:104F4000E5D1FFF79FFFCAE00B2C05D06F2C03D0F3
:104F500040F2F330844202D100F0EDF9BFE040F2BC
:104F60004C40844207D040F25640844203D040F285
:104F70004D40844202D100F0ECF9B0E0FFF782FF2F
:104F8000ADE063480078012828D160480078042803
:104F900024D10B2E05D06F2E03D040F2F330864281
:104FA00004D10A210320FCF765F998E040F24C4057
:104FB000864207D040F25640864203D040F24D4030
:104FC000864204D10A210420FCF754F987E040F21C
:104FD000E930864201D1FFF755FF80E04C48007868
:104FE000022850D14948007802284CD1494800781D
:104FF00060B30B2D05D06F2D03D040F2F330854206
:1050000008D10F210320FCF735F90F210420FCF70C
:1050100031F964E040F24C40854207D040F25640FE
:10502000854203D040F24D40854208D10F21012036
:10503000FCF720F90F210220FCF71CF94FE040F2A9
:10504000E93085424BD1FFF71DFF48E00B2D05D01D
:105050006F2D03D040F2F330854202D100F06BF99E
:105060003DE040F24C40854207D040F25640854238
:1050700003D040F24D40854202D100F06AF92EE0A3
:10508000FFF700FF2BE022480078032827D11F48B4
:105090000078032823D10B2F05D06F2F03D040F2C7
:1050A000F330874204D105210220FCF7E3F816E033
:1050B00040F24C40874207D040F25640874203D02E
:1050C00040F24D40874204D105210120FCF7D2F87F
:1050D00005E040F2E930874201D1FFF7D3FEBDE899
:1050E000F081000000080240000C02400010024065
:1050F0000014024000180240BAECCDE25B256420A7
:1051000025642025642025645D000000AD01002099
:10511000AC010020AE0100200020044908700449C1
:10512000087001200349087070470000AC0100209E
:10513000AD010020AE0100201CB50121302003F09C
:10514000A1F91E20009001208DF8040000208DF8A8
:1051500006008DF8070002208DF805006946FE481C
:1051600001F076FEAA2000906946FC4801F070FE2E
:105170001CBD10B504463CB90221F84801F0E6FE1A
:105180000821F64801F0E0FE012C07D10221F34886
:1051900001F0DAFE0821F14801F0D8FE022C07D117
:1051A0000221EE4801F0D2FE0821EC4801F0CEFECB
:1051B00010BD10B504463CB92021E84801F0C6FEF8
:1051C0008021E64801F0C0FE012C07D12021E348F0
:1051D00001F0BAFE8021E14801F0B8FE022C07D1AF
:1051E0002021DE4801F0B2FE8021DC4801F0AEFE55
:1051F00010BD10B504463CB91021D74801F0A6FEF9
:105200000421D54801F0A0FE012C07D11021D2487D
:1052100001F09AFE0421D04801F098FE022C07D13B
:105220001021CD4801F092FE0421CB4801F08EFE02
:1052300010BD10B504463CB90221C74801F086FEF6
:105240000821C54801F080FE012C07D10221C24887
:1052500001F07AFE0821C04801F078FE022C07D147
:105260000221BD4801F072FE0821BB4801F06EFE2C
:1052700010BD10B50020FFF77CFF0020FFF799FF5D
:105280000020FFF7B6FF0020FFF7D3FF10BD10B5D9
:105290000120FFF76EFF0120FFF78BFF0120FFF7D2
:1052A000A8FF0120FFF7C5FF10BD10B50020FFF7D4
:1052B00060FF0120FFF77DFF0120FFF79AFF00202C
:1052C000FFF7B7FF10BD10B50120FFF752FF002018
:1052D000FFF76FFF0020FFF78CFF0120FFF7A9FF0A
:1052E00010BD10B50220FFF744FF0220FFF761FF59
:1052F0000220FFF77EFF0220FFF79BFF10BD10B5D5
:105300000020FFF736FF0220FFF753FF0220FFF7D0
:1053100070FF0020FFF78DFF10BD10B50220FFF7D2
:1053200028FF0020FFF745FF0020FFF762FF022063
:10533000FFF77FFF10BD10B50120FFF71AFF012016
:10534000FFF737FF0020FFF754FF0020FFF771FF42
:1053500010BD10B50020FFF70CFF0020FFF729FF5C
:105360000120FFF746FF0120FFF763FF10BD10B5D6
:105370000020FFF7FEFE0220FFF71BFF0120FFF7D2
:1053800038FF0220FFF755FF10BD10B504467448E2
:1053900000782044724908700846407820444870DC
:1053A00008468078204488700846C0782044C87039
:1053B0000846427801786BA003F0BAF910BD10B529
:1053C000044667480078001B654908700846407825
:1053D000001B487008468078001B88700846C0781B
:1053E000001BC8700846427801785EA003F0A0F95F
:1053F00010BD30B55D4C2478A04204DD5B4C2478B0
:10540000574D2C702046594C2478A14204DD574C4E
:105410002478534D6C702146544C2478A24204DD0C
:10542000524C24784E4DAC702246504C2478A34206
:1054300004DD4E4C24784A4DEC7023464C4C2478C5
:10544000012C04D100242346224621462046494C03
:105450002060241D2160474C0C342260241F2360EF
:1054600030BD10B5F0EE401A30EEE14A34EE014A9C
:10547000B0EE442A30EEA14A34EE414AF0EE442A1E
:1054800030EEE14A34EE414AB0EE443A30EEA14A01
:1054900034EE014AF0EE443AB0EE420AB4EEE20ACB
:1054A000F1EE10FA01D2B0EE620AB4EEC30AF1EEE8
:1054B00010FA01D2B0EE430AB4EEE30AF1EE10FAAC
:1054C00001D2B0EE630A2948007804EE100AB8EE63
:1054D000444AB4EEC40AF1EE10FA2FDDC2EE004ADF
:1054E0002248007804EE100AB8EE444A24EE844ABA
:1054F000B0EE442AC2EE804A1C48007804EE100A3E
:10550000B8EE444A24EE844AF0EE442AC3EE004A40
:105510001648007804EE100AB8EE444A24EE844A95
:10552000B0EE443AC3EE804A1048007804EE100A08
:10553000B8EE444A24EE844AF0EE443ABCEEE34A24
:1055400014EE104AA3B2BCEEC24A14EE104AA2B244
:10555000BCEEC34A10E000000010024000140240FC
:10556000B00100200925642C20256400B40100202E
:10557000AF0100203404014014EE104AA1B2BCEE89
:10558000E24A14EE104AA0B2FFF733FF10BD00004C
:1055900010B588B004460121082002F073FF0121F4
:1055A000880402F0B8FF07220821F74801F0DBFC6D
:1055B00007220921F44801F0D6FC4FF480700690D0
:1055C00002208DF81C008DF81D0001208DF81E00B2
:1055D0008DF81F0006A9EC4801F03AFC4FF400706A
:1055E000069002208DF81C008DF81D0000208DF81B
:1055F0001E008DF81F0006A9E34801F029FC029463
:105600000020ADF80C00ADF80E00ADF81000ADF8BC
:1056100014000C20ADF8120002A9DC4801F043FD93
:105620000121DA4801F0C7FD012240F22551D74897
:1056300001F077FE4021D54801F0A5FE27208DF826
:10564000040002208DF8050003208DF806000120DB
:105650008DF8070001A801F00AFB4FF4A06001F0EB
:1056600001FB08B010BD10B5002440F22551C74819
:1056700001F092FE002874D0C44801F0CBFDC4B202
:10568000C34804700078012807D1C2A000F04DFE85
:10569000FDF77AFFFDF71FFDECE2BD480078022818
:1056A00007D1BEA000F041FEFDF7A3FFFDF768FDA6
:1056B000E0E2B7480078032807D1BAA000F035FE31
:1056C000FDF7CCFFFDF78FFDD4E2B1480078042848
:1056D00009D1B6A000F029FEFDF7F3FFFDF79FFC0E
:1056E000FDF7F9FCC6E2AA480078052809D1B1A067
:1056F00000F01BFEFEF70FF8FDF791FCFDF740FDF3
:10570000B8E2A3480078062809D1ACA000F00DFE4D
:10571000FEF72BF8FDF783FCFDF765FDAAE29C4838
:105720000078072807D1A7A000F0FFFDFDF78EFD48
:10573000FEF77EF89EE296480078082807D1A3A0DD
:1057400000F0F3FDFDF7D5FDFEF7A6F892E29048D4
:105750000078092806D19FA000F0E7FDFEF7D0F8F9
:1057600088E28CE28A4800780A2807D19BA000F0E2
:10577000DCFDFDF76BFDFEF79AF97BE284480078CB
:105780000B2807D197A000F0D0FDFDF7B2FDFEF782
:10579000C1F96FE27E4800780C2807D193A000F091
:1057A000C4FDFDF7F8FDFEF7E9F963E278480078FB
:1057B0000D2807D18FA000F0B8FDFDF747FDFEF7DB
:1057C00011FA57E2724800780E2807D18BA000F03A
:1057D000ACFDFDF78EFDFEF775FA4BE26C480078E4
:1057E0000F2807D187A000F0A0FDFDF7D4FDFEF73C
:1057F000A0FA3FE266480078102805D183A000F0A7
:1058000094FDFDF720FE35E261480078112805D1AE
:1058100080A000F08AFDFDF769FE2BE25C4800786D
:10582000122805D17EA000F080FDFDF786FE21E262
:1058300057480078132805D17BA000F076FDFDF7CE
:10584000DCFD17E252480078152805D178A000F059
:105850006CFDFDF703FC0DE24D480078162803D1DE
:1058600077A000F062FD05E249480078172804D1CE
:105870004FF4397076494863FCE1454800781828B0
:1058800004D14FF4167072494863F3E14048007840
:10589000192803D16FA000F048FDEBE13C480078E7
:1058A0001A280DD16DA000F040FD6948406BC01C66
:1058B000674948630846416B6AA002F039FFD9E1A5
:1058C000334800781B280DD169A000F02EFD6048F8
:1058D000406BC01E5E4948630846416B61A002F000
:1058E00027FFC7E12A4800781C280FD162A000F0EA
:1058F0001CFD5748806B6249097808445449886305
:105900000846816B5FA002F013FFB3E120480078E6
:105910001D280FD15EA000F008FD4D48806B58494E
:105920000978401A4A4988630846816B55A002F0FD
:10593000FFFE9FE1164800781E280FD156A000F008
:10594000F4FC574800684E490978084454490860F7
:105950000846016853A002F0EBFE8BE10C4800788A
:105960001F280FD152A000F0E0FC4D4800684449C8
:105970000978401A4A4908600846016849A002F0BF
:10598000D7FE77E198E00000000C0240004800409C
:10599000B5010020735F310D0A000000735F320D06
:1059A0000A000000735F330D0A000000785F310DBC
:1059B0000A000000785F320D0A000000785F330DA6
:1059C0000A00000072305F310D0A000072305F3251
:1059D0000D0A000072305F330D0A000072315F3132
:1059E0000D0A000072315F320D0A000072315F3320
:1059F0000D0A000072325F310D0A000072325F3210
:105A00000D0A000072325F330D0A000071725F6F81
:105A10006E0D0A00746F705F7363616E0D0A000093
:105A2000756E6465720D0A0072657365740D0A0007
:105A30006D6964646C6573746174650D0A000000BF
:105A40006B656C5F76616C75652D0D0A000000005A
:105A50000040014067726173703300007A687561BD
:105A60002B0D0A0041726D302025640A00000000F1
:105A70007A6875612D0D0A0041726D312B0D0A0097
:105A8000B601002041726D312025640A000000003B
:105A900041726D312D0D0A0041726D322B0D0A00DD
:105AA0003444014041726D322025640A0000000038
:105AB00041726D322D0D0A007348007820280FD1F5
:105AC00072A000F032FC73480068734909780844FA
:105AD000704908600846016870A002F029FEC9E01C
