:020000040800F2
:100000003009002039930008D1100008D3100008EF
:10001000D7100008DB100008DF1000080000000007
:10002000000000000000000000000000E3100008D5
:10003000E510000800000000E7100008E9100008C3
:1000400053930008539300085393000853930008F8
:1000500053930008539300085393000853930008E8
:1000600053930008539300085393000853930008D8
:1000700053930008539300085393000853930008C8
:1000800053930008539300085393000853930008B8
:1000900053930008539300085393000853930008A8
:1000A0005393000853930008539300085393000898
:1000B000B78D0008898E00085D8F000853930008F3
:1000C0005393000853930008539300085393000878
:1000D0005393000821880008E7890008B7740008D6
:1000E0005393000853930008539300085393000858
:1000F0005393000853930008539300085393000848
:1001000053930008539300082B9000085393000862
:100110005393000853930008393E00080B910008E0
:100120005393000853930008539300085393000817
:100130005393000853930008539300085393000807
:1001400053930008539300085393000853930008F7
:1001500053930008539300085393000853930008E7
:1001600053930008539300085393000853930008D7
:1001700053930008539300085393000853930008C7
:10018000539300085393000800F002F800F075F84C
:100190000AA090E8000C82448344AAF10107DA45E2
:1001A00001D100F06AF8AFF2090EBAE80F0013F0BF
:1001B000010F18BFFB1A43F0010318470CD60000CB
:1001C0002CD600000A444FF0000C10F8013B13F04D
:1001D000070408BF10F8014B1D1108BF10F8015BA0
:1001E000641E05D010F8016B641E01F8016BF9D193
:1001F00013F0080F1EBF10F8014BAD1C0C1B09D1EA
:100200006D1E58BF01F801CBFAD505E014F8016B5B
:1002100001F8016B6D1EF9D59142D6D370470000ED
:100220000023002400250026103A28BF78C1FBD8FF
:10023000520728BF30C148BF0B60704766290BF0DA
:10024000D38764290AF0348678290AF06D866329F9
:100250000BF0A88173290BF0AD81002070471FB50A
:100260000BF0BDFF0BF0BCF90400002000210BF0E7
:1002700029FFE0601FBD10B510BD0BF0CDFA11468F
:10028000FFF7EDFF00F008F80BF0EBFA03B4FFF70F
:10029000F2FF03BC08F060FA08B54FF4A06009F063
:1002A0006BF8A82008F0D6F94FF4E13008F062FAB4
:1002B0004FF4165008F06AFC4FF4E13007F090F864
:1002C00008F06BF904F067FD08F086F906F07BF999
:1002D00006F01EFB06F058FE532140F2F31008F022
:1002E000A7FF08F009FD08F075FD08F0DDFD08F036
:1002F00045FE42F2CF01962008F0A6FE06F019FF57
:10030000002006F037F9F9A00AF09CFDECE300208C
:1003100008F077F901280BD1F748007840B903F0CD
:1003200082F806F020FE0120F4490870F2490870B6
:10033000F348007801280ED1F248F34909680160BA
:100340000078F249087008460178F1A00AF07AFDB9
:100350000020EB490870ED48007873286FD2DFE881
:1003600000F03A4754616F7C8996A3A76E6E6E6E5B
:100370006E6EABB1F1F9EEEDECEBEAE96E6E6E6E1E
:100380006E6EE8E7E6E5E4E3E2E1E0DF6E6E6E6EF6
:100390006E6EDEDDDCDBDAD9D8D7D66E6E6E6E6EB1
:1003A0006E6ED5D4D3D2D1D0CFCECDCC6E6E6E6E94
:1003B0006E6ECBCAC9C8C7C6C5C4C3C26E6E6E6EE8
:1003C0006E6EC1C0BFBE6E6EBDBCBBBA6E6E6E6ED1
:1003D0006E6EB9B8B7000020C8490870D04CE378F9
:1003E000A2786178207806F02CFF06F06AFE86E29B
:1003F0000020C2490870CA4CE378A278617820785E
:1004000006F01FFF06F06BFE79E20020BB49087082
:10041000C34CE378A2786178207806F012FF06F0EA
:100420007AFE6CE20020B5490870BD4CE378A278F2
:100430006178207806F005FF06F05FFE5FE25DE27E
:100440000020AE490870B64CE378A2786178207835
:1004500006F0F7FE06F089FE51E20020A749087079
:10046000AF4CE378A2786178207806F0EAFE06F0D7
:100470006EFE44E20020A1490870A94CE378A278FE
:100480006178207806F0DDFE06F07DFE37E2002080
:100490009A490870A24CE378A2786178207806F037
:1004A000D0FE06F07EFE2AE201209E49086026E288
:1004B00000209C49086022E200209049087006F064
:1004C00038FE1CE200208D49087006F032FE16E26C
:1004D00010E20BE29EE095E08CE083E07AE0FDE143
:1004E000F4E1EBE1E2E1D9E1D0E1C7E1BEE1B5E160
:1004F000ACE1A3E19AE191E188E17FE176E16DE190
:1005000064E15BE152E149E140E137E12EE125E1BF
:100510001CE113E1E1E0D8E0CFE0CDE0C8E0C3E0CA
:10052000BAE0B1E0A8E09FE09AE095E090E084E0D6
:1005300078E047E03EE035E02CE023E01AE011E00F
:1005400008E0FFE702F06FFF06F00DFD01206B49A8
:100550000870D4E102F067FF06F005FD022067494C
:100560000870CCE102F05FFF06F0FDFC0320634958
:100570000870C4E102F057FF06F0F5FC04205F4963
:100580000870BCE102F04FFF06F0EDFC05205B496E
:100590000870B4E102F047FF06F0E5FC0620574979
:1005A0000870ACE102F03FFF06F0DDFC0720534984
:1005B0000870A4E102F037FF06F0D5FC08204F498F
:1005C00008709CE102F02FFF06F0CDFC09204B499A
:1005D000087094E102F027FF06F0C5FC0A204749A5
:1005E00008708CE102F01FFF06F0BDFC0B204349B0
:1005F000087084E102F017FF06F0B5FC0C203F49BB
:1006000008707CE102F00FFF06F0ADFC0D203B49C5
:10061000087074E102F007FF06F0A5FC0E203749D0
:1006200008706CE105220121002000F0C9FF3E485E
:100630000069401D3C49086161E10522002108462E
:1006400000F0BEFF38480069401F3749086156E195
:1006500036A008F084F952E135A008F080F94EE1A7
:1006600034A008F07CF94AE102F0DDFE06F07BFCE4
:1006700014202249087042E102F0D5FE06F073FC16
:1006800015201E4908703AE102F0CDFE06F06BFC21
:1006900016201A49087032E102F0C5FE06F063FC2C
:1006A0001720164908702AE101202349087026E125
:1006B00000202149087022E121E102F0B4FE06F099
:1006C00052FC18200D49087019E102F0ACFE06F04A
:1006D0004AFC19200949087011E102F0A4FE06F055
:1006E00042FC1A200549087009E10000B3F5CABCB4
:1006F000BBAFCDEAB3C90A0012000020EC00002015
:100700000100002006000020020000201000002050
:10071000CAD5B5BD7531D6B8C1EEA3BA25780A00E1
:10072000CC010020B4824042B00100203100000022
:100730003200000033000000CB01002002F073FE05
:1007400006F011FC1B20FD490870D8E002F06BFE9A
:1007500006F009FC1C20F9490870D0E002F063FEA5
:1007600006F001FC1D20F5490870C8E0B7EE000A4C
:1007700001221146104600F0C1FDC0E0B7EE000AAC
:1007800000220121084600F0B9FDB8E09FEDEC0A17
:1007900001220221104600F0B1FDB0E09FEDE80A11
:1007A00000220221012000F0A9FDA8E0B7EE000A16
:1007B00001220321104600F0A1FDA0E0B7EE000ADF
:1007C00000220321012000F099FD98E0B7EE000A15
:1007D00001221146022000F091FD90E0B7EE000AE0
:1007E00000220121022000F089FD88E09FEDD40A5B
:1007F00001220221084600F081FD80E09FEDD00A31
:1008000000220221084600F079FD78E0B7EE000AE8
:1008100001220321022000F071FD70E0B7EE000A12
:1008200000220321022000F069FD68E0B7EE000A13
:1008300001221146032000F061FD60E0B7EE000ADE
:1008400000220121032000F059FD58E09FEDBC0A71
:1008500001220221032000F051FD50E09FEDB80A73
:1008600000220221032000F049FD48E09FEDB50A77
:1008700001220321084600F041FD40E09FEDB10A4E
:1008800000220321084600F039FD38E0B7EE000AE7
:1008900001221146042000F031FD30E0B7EE000ADD
:1008A00000220121042000F029FD28E09FEDA40A88
:1008B00001220221042000F021FD20E09FEDA00A8A
:1008C00000220221042000F019FD18E09FED9D0A8E
:1008D00001220321042000F011FD10E09FED990A90
:1008E00000220321042000F009FD08E001209649C0
:1008F000087004E000209449087000E000BF00BFC9
:1009000064209249087092480078102876D2DFE877
:1009100000F00809293754A1C9F5F3F2F1F0EFEE20
:10092000EDECFAE2AFF2FC1008F04CF80FE0894869
:100930000068113887490860C82007F0EDFE854837
:100940000068113083490860C82007F0E5FE82483E
:1009500080793028EBD081A00AF074FA00207C491D
:100960000870DAE282A00AF06DFAAFF23C2008F0DB
:1009700029F881A00AF066FA002075490870CCE2D7
:1009800083A000234FF6FF7264210090022005F03F
:100990004DFB824803F088FB804803F09BFB7F48B7
:1009A00003F0AEFB02F03FFD03206449087004F041
:1009B00067FF002066490870AFE279A00AF042FAAA
:1009C00000202023B42264210090022005F046FF7D
:1009D0007CA000234FF6FF7264210090022005F0F6
:1009E00025FB01215C4803F007FC01215A4803F074
:1009F0009CFC0121584803F0C7FC00E08CE276A083
:100A00000AF020FA00202023B42264210090022062
:100A100005F024FF7BA000234FF6FF7264210090B5
:100A2000022005F003FB01214B4803F022FD0121C8
:100A3000494803F04DFD0121474803F078FD02F0DD
:100A4000F2FC04203D49087004F0B5FF0020404945
:100A5000087062E270A00AF0F5F900202023B422A9
:100A600064210090022005F0F9FE73A000234FF6E8
:100A7000FF7264210090022005F0D8FA364803F096
:100A800085FD354803F0BAFD334803F0CDFD02F093
:100A9000CAFC05202949087004F0B3FF00202C4946
:100AA00008703AE269A00AF0CDF900202023B422B0
:100AB00064210090022005F0D1FE6BA000234FF6C8
:100AC000FF7264210090022005F0B0FA642007F064
:100AD00023FE012068490860AFF2A83007F072FFDA
:100AE00000201B49087018E218E2E0E194E170E18F
:100AF0004EE13AE118E1FCE0DAE0FFE75FA00AF03E
:100B0000A1F900202023B42264210090022005F0E6
:100B1000A5FE62A000234FF6FF7264210090022020
:100B200005F084FA614803F001FB02F07CFC06202A
:100B300002490870002006490870EEE1EC00002030
:100B40000AD7233CCDCCCC3DF9000020100000207A
:100B50001100002038180040ED010020BBFAD0B58C
:100B6000B1DBC4A3CABD5BC9A8C2EB5D0A0000002B
:100B70004F56B7A2320A0000BBFAD0B5B1DBC4A30E
:100B8000CABD5B4F56C9A8C3E8C9CFB2E35D0A002E
:100B9000D7A5C8A1C9CFB2E300000000E50100203D
:100BA000BBFAD0B5B1DBC4A3CABD5BB4D6BCD3B964
:100BB000A4C7F8B7C5D6C320C9CFB2E3C4A3CABD82
:100BC0005D0A0000B4D6BCD3B9A4C7F8C9CFB2E35C
:100BD000B7C5D6C300000000BBFAD0B5B1DBC4A3D3
:100BE000CABD5BB4D6BCD3B9A4C7F8D6D8D0C2D7D7
:100BF000A5C8A1CEEFC1CF20C9CFB2E3C4A3CABD5F
:100C00005D0A0000B4D6BCD3B9A4C7F8D6D8D0C208
:100C1000D7A5C8A100000000BBFAD0B5B1DBC4A3C2
:100C2000CABD5BB0EBB3C9C6B7C7F8C9CFB2E3B7AB
:100C3000C5D6C35D0A000000B0EBB3C9C6B7C7F89C
:100C4000C9CFB2E3B7C5D6C300000000BBFAD0B528
:100C5000B1DBC4A3CABD5BC9A8C3E8CFC2B2E3CEAF
:100C6000EFC1CF5D0A000000C9A8C3E8CFC2B2E35C
:100C7000CEEFC1CF00000000B4824042BBFAD0B535
:100C8000B1DBC4A3CABD5BD7BCB1B8B5DAD2BBB4C3
:100C9000CED7A5C8A1CFC2B2E35D0A00B5DAD2BBF8
:100CA000B4CED7A5C8A1CFC2B2E30000E9010020AD
:100CB0009BA00AF0C7F800202023B42264210090F2
:100CC000022005F0CBFD9DA000234FF6FF726421AA
:100CD0000090022005F0AAF94FF439709A49486350
:100CE00002F0A1FB0720994908700020984908707C
:100CF00013E198A00AF0A6F89E48006808389D49BC
:100D00000860322007F008FD03F02EFE03F0A8FE75
:100D1000994803F022FA02F086FB08208B490870FC
:100D200000208B490870F8E094A00AF08BF80020AE
:100D30002023B42264210090022005F08FFD96A0AC
:100D400000234FF6FF7264210090022005F06EF937
:100D50004FF439707C49486302F065FB09207B49F8
:100D6000087000207A490870D7E08EA00AF06AF86F
:100D700003F0FAFD03F0BDFE7F4803F005FA02F030
:100D800052FB0A2071490870002071490870C4E0C4
:100D90008BA00AF057F800202023B4226421009091
:100DA000022005F05BFD8DA000234FF6FF72642149
:100DB0000090022005F03AF94FF439706249486317
:100DC00002F031FB0B206149087000206049087077
:100DD000A3E085A00AF036F800202023B422642185
:100DE0000090022005F03AFD87A000234FF6FF7225
:100DF00064210090022005F019F903F0B5FD03F01D
:100E0000A8FE02F010FB0C205049087004F05EFDB3
:100E100000204F49087080E07EA00AF013F80020FF
:100E20002023B42264210090022005F017FD83A046
:100E300000234FF6FF7264210090022005F0F6F8BF
:100E40000221824803F0D8F90221804803F06DFAAC
:100E500002217E4803F098FA7DA009F0F3FF0020FC
:100E60002023B42264210090022005F0F7FC83A027
:100E700000234FF6FF7264210090022005F0D6F89F
:100E80000221724803F0F5FA0221704803F020FBBA
:100E900002216E4803F04BFB02F0C5FA0D202B49EE
:100EA000087004F088FD00202949087035E077A01B
:100EB00009F0C8FF00202023B42264210090022002
:100EC00005F0CCFC7BA000234FF6FF72642100905C
:100ED000022005F0ABF87C48007848B95B4803F085
:100EE000B9FB5A4803F0F5FB584803F008FC08E04A
:100EF000564803F01AFC554803F04EFC534803F0E3
:100F000061FC02F090FA0E20104908700020104990
:100F100008706E49087000E000BF00BFFFF7F7B926
:100F2000BBFAD0B5B1DBC4A3CABD5BB5DAD2BBB4E2
:100F3000CED7A6D7D3B1D5BACF5D0A00D7A6D7D31F
:100F4000B1D5BACF3100000000400140EC000020D4
:100F500011000020BBFAD0B5B1DBC4A3CABD5BBB96
:100F6000FAD0B5B1DBB5DAD2BBB4CECAD5BBD85D49
:100F70000A00000038180040E9010020BBFAD0B593
:100F8000B1DBC4A3CABD5BB5DAB6FEB4CED7A6D773
:100F9000D3B1D5BACF5D0A00D7A6D7D3B1D5BACFD2
:100FA00032000000BBFAD0B5B1DBC4A3CABD5BD729
:100FB000BCB1B8B5DAC8FDB4CED7A5C8A15D0A00EA
:100FC000BBFAD0B5B1DBC4A3CABD5BB5DAC8FDB40A
:100FD000CED7A6D7D3B1D5BACF5D0A00D7A6D7D37F
:100FE000B1D5BACF33000000BBFAD0B5B1DBC4A392
:100FF000CABD5BCFC2B2E3D7A5C8A1B5DAC8FDB4FC
:10100000CEB4E6B7C55D0A00CFC2B2E3B7C5D6C35A
:1010100033000000BBFAD0B5B1DBC4A3CABD5BB4DA
:10102000D6BCD3B9A4C7F8B7C5D6C3CEEFC1CF20BD
:10103000CFC2B2E3C4A3CABD5D0A0000BCD3B9A449
:10104000C7F8CFC2B2E3B7C5D6C30000ED01002098
:10105000BBFAD0B5B1DBC4A3CABD5BB4D6BCD3B9AF
:10106000A4C7F8D6D8D0C2D7A5C8A1CEEFC1CF208B
:10107000CFC2B2E3C4A3CABD5D0A0000BCD3B9A409
:10108000C7F8CFC2B2E3D7A5C8A10000BBFAD0B55C
:10109000B1DBC4A3CABD5BB0EBB3C9C6B7C7F8B771
:1010A000C5D6C3CEEFC1CF20CFC2B2E3C4A3CABD61
:1010B0005D0A0000B0EBB3C9C6B7C7F8CFC2B2E350
:1010C000B7C5D6C300000000FA00002012000020BF
:1010D000704700BFFEE700BFFEE700BFFEE700BFAE
:1010E000FEE7704770477047704700000CB500205E
:1010F000019000907648006840F4803074490860A0
:1011000000BF7348006800F4003000900198401C54
:101110000190009818B90198B0F5A04FF1D16C4832
:10112000006800F4003010B10120009001E00020C0
:1011300000900098012846D165484030006840F092
:1011400080506349403108606248006840F4404084
:10115000604908605E48083000685D4908310860F1
:101160000846006840F4004008600846006840F403
:10117000A05008605848091F0860081F006840F028
:101180008070091F086000BF5148006800F00070BF
:101190000028F9D040F20570504908604C480830EA
:1011A000006820F003004A490831086008460068DA
:1011B00040F00200086000BF45480830006800F0B9
:1011C0000C000828F8D10CBD10B54548006840F463
:1011D0007000434908603E48006840F001003C4907
:1011E000086000203A4908310860394800683D49E4
:1011F0000840374908603C48091D0860081F00681E
:1012000020F48020091F0860002031490C3108605B
:10121000FFF76CFF4FF0006031498039086010BD66
:1012200070B500200022022300240221284D083539
:101230002D6805F00C0020B1042806D0082834D110
:1012400007E02A4D2A4E356033E02A4D284E35609E
:101250002FE01F4D2D1D2D68C5F380541C4D2D1DF5
:101260002D6805F03F0154B1224DB5FBF1F5184E44
:10127000361D3668C6F3881605FB06F209E01B4DDD
:10128000B5FBF1F5124E361D3668C6F3881605FB20
:1012900006F20F4D2D1D2D68C5F301456D1C6B0029
:1012A000B2FBF3F5124E356003E0104D104E356081
:1012B00000BF00BF064D08352D68C5F303150E4E5F
:1012C000705D0B4D2D68C540094E356070BD000046
:1012D000003802400070004008544007003C0240C3
:1012E00088ED00E0FFFFF6FE103000240024F4003B
:1012F0001400002000127A001800002070B52DEDB7
:10130000088B84B006460C461546B0EE408A012E86
:1013100006D0022E3BD0032E72D0042E6FD1A6E051
:10132000012C0FD13DB1F84890ED000A30EE080ACB
:1013300080ED000A06E0F44890ED000A30EE480A1D
:1013400080ED000A022C0FD13DB1F04890ED000A6B
:1013500030EE080A80ED000A06E0EC4890ED000A45
:1013600030EE480A80ED000A032C0FD13DB1E84869
:1013700090ED000A30EE080A80ED000A06E0E4482D
:1013800090ED000A30EE480A80ED000AA7E0012C3B
:101390000FD13DB1DF4890ED000A30EE080A80ED34
:1013A000000A06E0DB4890ED000A30EE480A80EDC6
:1013B000000A022C0FD13DB1D74890ED000A30EE63
:1013C000080A80ED000A06E0D34890ED000A30EEEE
:1013D000480A80ED000A032C0FD13DB1CF4890EDB3
:1013E000000A30EE080A80ED000A06E0CB4890EDD6
:1013F000000A30EE480A80ED000A70E000E06DE07F
:10140000012C0FD13DB1C64890ED000A30EE080A1C
:1014100080ED000A06E0C24890ED000A30EE480A6E
:1014200080ED000A022C0FD13DB1BE4890ED000ABC
:1014300030EE080A80ED000A06E0BA4890ED000A96
:1014400030EE480A80ED000A032C0FD13DB1B648BA
:1014500090ED000A30EE080A80ED000A06E0B2487E
:1014600090ED000A30EE480A80ED000A37E0012CCA
:101470000FD13DB1AD4890ED000A30EE080A80ED85
:10148000000A06E0A94890ED000A30EE480A80ED17
:10149000000A022C0FD13DB1A54890ED000A30EEB4
:1014A000080A80ED000A06E0A14890ED000A30EE3F
:1014B000480A80ED000A032C0FD13DB19D4890ED04
:1014C000000A30EE080A80ED000A06E0994890ED27
:1014D000000A30EE480A80ED000A00E000BF00BFBD
:1014E0008B4800680AF00AFE41EC190B8748006837
:1014F0000AF004FE41EC1A0B834800680AF0FEFD76
:1015000041EC1B0B8DED029B8DED00AB53EC1B2BC7
:1015100089A009F097FC814800680AF0EFFD41ECD2
:10152000190B7D4800680AF0E9FD41EC1A0B794877
:1015300000680AF0E3FD41EC1B0B8DED029B8DED85
:1015400000AB53EC1B2B7CA009F07CFC76480068B8
:101550000AF0D4FD41EC190B724800680AF0CEFD88
:1015600041EC1A0B6E4800680AF0C8FD41EC1B0BF9
:101570008DED029B8DED00AB53EC1B2B6EA009F0A3
:1015800061FC6C4800680AF0B9FD41EC190B684831
:1015900000680AF0B3FD41EC1A0B644800680AF0D9
:1015A000ADFD41EC1B0B8DED029B8DED00AB53ECC3
:1015B0001B2B67A009F046FC04B0BDEC088B70BD86
:1015C000052878D2DFE800F0035E7891E40061BB83
:1015D000654BD3ED000A00EE102AB8EE400A30EE5B
:1015E000C00A83ED000A614BD3ED000A00EE102A19
:1015F000B8EE400A30EEC00A83ED000A5C4BD3ED32
:10160000000A00EE102AB8EE400A30EEC00A83ED60
:10161000000A584BD3ED000A00EE102AB8EE400A3B
:1016200030EEC00A83ED000A2BE04F4BD3ED000AE9
:1016300000EE102AB8EE400A30EE800A83ED000A70
:101640004A4BD3ED000A00EE102AB8EE400A30EE05
:10165000800A83ED000A464BD3ED000A00EE102A03
:10166000B8EE400A30EE800A83ED000A414BD3ED1C
:10167000000A00EE102AB8EE400A30EE800A83ED30
:10168000000A9FE059B9384BD3ED000A00EE102A4A
:10169000B8EE400A30EEC00A83ED000A0AE0324B91
:1016A000D3ED000A00EE102AB8EE400A30EE800AB0
:1016B00083ED000A86E084E059B92C4BD3ED000A93
:1016C00000EE102AB8EE400A30EEC00A83ED000AA0
:1016D0000AE0264BD3ED000A00EE102AB8EE400ACD
:1016E00030EE800A83ED000A6CE059B9204BD3ED4F
:1016F000000A00EE102AB8EE400A30EEC00A83ED70
:10170000000A44E038E000004000002044000020CF
:10171000480000204C000020500000205400002011
:10172000580000205C0000206000002064000020C1
:10173000680000206C0000205B25302E31662025DB
:10174000302E32662025302E31665D090000000003
:101750005B25302E31662025302E32662025302E36
:1017600031665D0A00000000700000207800002053
:101770008000002088000020FE4BD3ED000A00EE20
:10178000102AB8EE400A30EE800A83ED000A19E014
:1017900059B9F94BD3ED000A00EE102AB8EE400A11
:1017A00030EEC00A83ED000A0AE0F34BD3ED000AE5
:1017B00000EE102AB8EE400A30EE800A83ED000AEF
:1017C00000E000BF00BF7047052835D2DFE800F019
:1017D00003141C242C0000EE101AB8EE400AE64A4E
:1017E00082ED000AE34A82ED000AE44A82ED000A33
:1017F000E34A82ED000A20E000EE101AB8EE400A3B
:10180000DF4A82ED000A18E000EE101AB8EE400A36
:10181000DA4A82ED000A10E000EE101AB8EE400A33
:10182000D44A82ED000A08E000EE101AB8EE400A31
:10183000D14A82ED000A00E000BF00BF7047D148E6
:10184000007800F0800060B3CE48007800F07F00A0
:1018500000EE100AB8EEC00AC94880ED000AC94877
:10186000007800F07F0000EE100AB8EEC00AC3480E
:1018700080ED000AC348007800F07F0000EE100AF7
:10188000B8EEC00ABB4880ED000ABE48007800F000
:101890007F0000EE100AB8EEC00AB74880ED000ADB
:1018A00013E09FEDB90AB64880ED000A9FEDB60A35
:1018B000B24880ED000A9FEDB40AAE4880ED000A00
:1018C0009FEDB10AAC4880ED000A704700B50146B3
:1018D000AC480170007840F08000AA4A1070FFF711
:1018E000AEFF00BD012806D002282DD0032854D019
:1018F00004287BD17BE091ED000AB8EEC00AA34A30
:10190000D2ED000AB4EEE00AF1EE10FA05DD92ED38
:10191000000ABDEEC00A81ED000A91ED000AB8EEA2
:10192000C00A9A4AD2ED000AF1EE600AB4EEE00A6B
:10193000F1EE10FA07D292ED000AB1EE400ABDEEC8
:10194000C00A81ED000A7CE091ED000AB8EEC00A01
:101950008F4AD2ED000AB4EEE00AF1EE10FA05DD8E
:1019600092ED000ABDEEC00A81ED000A91ED000A79
:10197000B8EEC00A864AD2ED000AF1EE600AB4EE73
:10198000E00AF1EE10FA07D292ED000AB1EE400A39
:10199000BDEEC00A81ED000A53E091ED000AB8EEF9
:1019A000C00A7C4AD2ED000AB4EEE00AF1EE10FA69
:1019B00005DD92ED000ABDEEC00A81ED000A91ED51
:1019C000000AB8EEC00A734AD2ED000AF1EE600ACE
:1019D000B4EEE00AF1EE10FA07D292ED000AB1EE91
:1019E000400ABDEEC00A81ED000A2AE028E091ED30
:1019F000000AB8EEC00A684AD2ED000AB4EEE00A66
:101A0000F1EE10FA05DD92ED000ABDEEC00A81ED9F
:101A1000000A91ED000AB8EEC00A5F4AD2ED000A52
:101A2000F1EE600AB4EEE00AF1EE10FA07D292EDA0
:101A3000000AB1EE400ABDEEC00A81ED000A00E0E6
:101A400000BF00BF704708B5F0EE401A4C4890ED5B
:101A5000000A31EEC00AB0EE401A504890ED000A7C
:101A600031EE400AB0EE402A4D4890ED000A30EECB
:101A7000010A80ED000A90ED000ADFED4A0AB4EE9B
:101A8000E00AF1EE10FA03D29FED460A80ED000A5B
:101A9000434890ED000ADFED440AB4EEE00AF1EEAF
:101AA00010FA03DD9FED400A80ED000A3C4890EDFE
:101AB000000A3E48D0ED000A20EE200A3C4880EDA6
:101AC000000A3C4890ED000A60EE010AF2EE042A9A
:101AD00080EEA20A3848D0ED000A60EE820AF2EEEB
:101AE000042A80EEA23A30EE030A3148D0ED000A13
:101AF00030EE200ABDEEC00A8DED000A274880EDC9
:101B0000001A69460120FFF7EDFE009808BD08B5F0
:101B1000F0EE401A194890ED000A31EEC00AB0EE1E
:101B2000401A264890ED000A31EE400AB0EE402AF5
:101B3000234890ED000A30EE010A80ED000A90ED96
:101B4000000ADFED180AB4EEE00AF1EE10FA03D253
:101B50009FED140A80ED000A194890ED000ADFEDB0
:101B6000120AB4EEE00AF1EE10FA2DDD9FED0E0A36
:101B700028E000008000002088000020780000207D
:101B8000700000209000002000000C427400002033
:101B90007C000020840000208C0000209C0000209D
:101BA000A0000020000048C200004842440000207D
:101BB000A40000204000002048000020A8000020D1
:101BC000AC00002080ED000AF14890ED000AF148D9
:101BD000D0ED000A20EE200AEF4880ED000AEF4821
:101BE00090ED000A60EE010AF2EE042A80EEA20AED
:101BF000EB48D0ED000A60EE820AF2EE042A80EE95
:101C0000A23A30EE030AE448D0ED000A30EE200A92
:101C1000BDEEC00A8DED000AE24880ED001A69466B
:101C20000220FFF75FFE009808BD08B5F0EE401AED
:101C3000DD4890ED000A31EEC00AB0EE401ADB48F4
:101C400090ED000A31EE400AB0EE402AD84890EDFF
:101C5000000A30EE010A80ED000A90ED000A5FED07
:101C60002F0AB4EEE00AF1EE10FA03D21FED330AA8
:101C700080ED000ACE4890ED000A5FED350AB4EE23
:101C8000E00AF1EE10FA03DD1FED390A80ED000ADB
:101C9000C74890ED000AC748D0ED000A20EE200AA0
:101CA000C54880ED000AC54890ED000A60EE010AC3
:101CB000F2EE042A80EEA20AC148D0ED000A60EEDE
:101CC000820AF2EE042A80EEA23A30EE030ABA4803
:101CD000D0ED000A30EE200ABDEEC00A8DED000AFC
:101CE000B24880ED001A69460320FFF7FBFD00981B
:101CF00008BD08B5F0EE401AB24890ED000A31EE8A
:101D0000C00AB0EE401AB04890ED000A31EE400A29
:101D1000B0EE402AAD4890ED000A30EE010A80EDA9
:101D2000000A90ED000A5FED610AB4EEE00AF1EE00
:101D300010FA03D21FED650A80ED000AA34890ED6A
:101D4000000A5FED670AB4EEE00AF1EE10FA03DD77
:101D50001FED6B0A80ED000A9C4890ED000A9C483C
:101D6000D0ED000A20EE200A9A4880ED000A9A4839
:101D700090ED000A60EE010AF2EE042A80EEA20A5B
:101D80009648D0ED000A60EE820AF2EE042A80EE58
:101D9000A23A30EE030A8F48D0ED000A30EE200A56
:101DA000BDEEC00A8DED000A874880ED001A694635
:101DB0000420FFF797FD009808BDF0EE400A88491F
:101DC000097801EE901AF8EE611A70EEE11AB0EEA1
:101DD000610A8449D1ED001A70EE611AB0EE611A01
:101DE0008149D1ED001AB7EE002A71EE821AC1EDD9
:101DF000001AB3EE0E2AF4EEC21AF1EE10FA30DD3C
:101E0000DFED7A1AC1ED001A7949D1ED001A71EEB1
:101E1000801AC1ED001AD1ED001A9FED762AF4EE7A
:101E2000C21AF1EE10FA03D2DFED721AC1ED001AF8
:101E30006F49D1ED001A9FED702AF4EEC21AF1EE4F
:101E400010FA03DDDFED6C1AC1ED001A6849D1ED1F
:101E5000001A6A4991ED002A61EE821A6849C1EDC3
:101E6000001A6849D1ED001A21EE802ADFED662ABA
:101E7000C2EE221A654991ED002A22EE012AF2EE05
:101E8000042A82EE223A71EE831A5D4991ED002A0E
:101E900071EE821AFDEEE11A11EE900A514981EDC0
:101EA000000A7047F0EE400A4D49097801EE901A99
:101EB000F8EE611A70EEE11AB0EE610A5449D1ED04
:101EC000001A70EE611AB0EE611A5249D1ED001A93
:101ED000B7EE002A71EE821AC1ED001AB3EE0E2A97
:101EE000F4EEC21AF1EE10FA30DDDFED401AC1ED6A
:101EF000001A4949D1ED001A71EE801AC1ED001A9D
:101F0000D1ED001A9FED3B2AF4EEC21AF1EE10FA61
:101F100003D2DFED381AC1ED001A3F49D1ED001AA6
:101F20009FED352AF4EEC21AF1EE10FA03DDDFED73
:101F3000321AC1ED001A3849D1ED001A374991ED36
:101F4000002A61EE821A3649C1ED001A3549D1EDF9
:101F5000001A21EE802ADFED2C2AC2EE221A324925
:101F600091ED002A22EE012AF2EE042A82EE223AB4
:101F700071EE831A2A4991ED002A71EE821AFDEE64
:101F8000E11A11EE900A224981ED000A7047000023
:101F9000AC00002050000020B00000204C000020C9
:101FA00054000020A800002080000020B400002081
:101FB000B80000205C000020BC0000205800002079
:101FC0006000002088000020C0000020C400002025
:101FD00068000020C8000020640000206C00002081
:101FE00098000020CC000020D80000200000000055
:101FF000D00000200000FAC30000FA432C000020AB
:10200000D4000020280000200000C842300000203A
:10201000DC000020E8000020E00000203800002064
:10202000E4000020340000203C00002010B52DED1D
:10203000088B86B0022004F039FC041E01DB204628
:1020400000E06042FD490860032004F02FFC041EFC
:1020500001DB204600E06042F8494860042004F0BB
:1020600025FC041E01DB204600E06042F349886045
:10207000052004F01BFC041E01DB204600E060424A
:10208000EE49C860EE48007800287BD1ED48007822
:10209000012836D1ECA008F0D5FEE848D0ED000AC2
:1020A000F8EEE00AB0EE600AFFF7CDFC4042E949E5
:1020B0000860E248D0ED010AF8EEE00AB0EE600AEE
:1020C000FFF725FD4042E349091D0860DB48D0EDDC
:1020D000020AF8EEE00AB0EE600AFFF7A6FD404201
:1020E000DC490C310860D548D0ED030AF8EEE00A6F
:1020F000B0EE600AFFF7FDFD4042D64908310860A6
:102100003AE0CE48D0ED000AF8EEE00AB0EE600A00
:10211000FFF799FCD04909780844CE490860C748C0
:10212000D0ED010AF8EEE00AB0EE600AFFF7EFFC2E
:10213000C94949780844C749091D0860BF48D0ED1E
:10214000020AF8EEE00AB0EE600AFFF76EFDC2493F
:1021500089780844BF490C310860B848D0ED030ABB
:10216000F8EEE00AB0EE600AFFF7C3FDBA49C9789D
:102170000844B84908310860B64808300068643837
:10218000AE494861B5480078002844D0AB48C068E3
:102190000090AA48836842680168B1A008F052FE26
:1021A000AC48083000680090AA480C300368A94881
:1021B000001D0268001F0168AFA008F043FEB3488D
:1021C000006809F09BFF41EC180BB148006809F06A
:1021D00095FF41EC190BAF48006809F08FFF41EC07
:1021E0001A0BAD48006809F089FF41EC1B0B8DED1F
:1021F000048B8DED029B8DED00AB53EC1B2BA7A048
:1022000008F020FEAC480378AC480288AC4801884E
:10221000ACA008F017FE06B0BDEC088B10BD10B5E1
:10222000044604F0A2FBA649088004F0C4FBA349BD
:10223000088004F0E3FBA949088004F003FCA849E6
:1022400008800620FFF742FB002C74D19C480088D0
:1022500040F2E931884213D19848008888420FD172
:102260009E48008888420BD19D480088884207D14B
:102270009CA008F0E7FD04F05CFF04F074FE5AE057
:102280008F48008840F25641884205D08C4800882B
:1022900040F24C41884229D18848008840F256419A
:1022A000884205D08548008840F24C4188421DD1C3
:1022B0008A48008840F25641884205D08748008805
:1022C00040F24C41884211D18548008840F2564185
:1022D000884205D08248008840F24C41884205D1AE
:1022E00082A008F0AFFD04F05CFF24E07448008891
:1022F0006F2803D0724800880B281CD16F480088D3
:102300006F2803D06D4800880B2814D173480088CB
:102310006F2803D0714800880B280CD170480088C2
:102320006F2803D06E4800880B2804D172A008F0F3
:1023300089FD04F036FF012C73D16948008840F212
:10234000E93188420CD15D48008848B904F0F1FEBB
:1023500004F009FE00206B4908706B49087060E0CA
:102360005648008898BB5E4800886F2809D05C48B2
:10237000008840F2F331884203D0594800880B2886
:1023800002D104F0ACFE4CE05548008840F25641C2
:1023900088420AD05248008840F24D41884204D019
:1023A0004F480088491E884202D104F08AFE38E076
:1023B0004B48008840F25741884209D15148007883
:1023C00030B904F08CFE16204E49087029E010E068
:1023D0004348008840F25741884222D14948017859
:1023E0000078401E474A107001291AD104F069FE96
:1023F00017E0324800880B2803D0304800880128B5
:1024000002D104F0C0FE0CE02C48008840F24C41A0
:10241000884204D029480088B0F57A7F01D104F0C1
:10242000C0FE022C72D12D48008840F2E93188426A
:1024300077D12348008800B969E072E0B00100203C
:10244000CB010020F8000020CDA3B3B5C4A3CABDC2
:102450000000000034040140CC010020F9000020FD
:10246000B1E0C2EBC6F75B2564202564202564201B
:1024700025645D090000000050574D5B2564202550
:10248000642025642025645D090000008800002088
:1024900080000020780000207000002054535B254D
:1024A0002E306620252E306620252E306620252EE3
:1024B00030665D0900000000ED000020F200002001
:1024C000F0000020485B2564207C2025645D0973B2
:1024D0007465705B25645D0A00000000F400002054
:1024E000F60000205BCDA3B3B55D00005B596177BA
:1024F000CFF2D7F35D0000005B596177CFF2D3D202
:102500005D000000FB000020EC00002051E004F022
:1025100010FE04F028FD0020FE490870FE490870F6
:102520008CE0FE48008898BBFD4800886F2809D0E1
:10253000FB48008840F2F331884203D0F848008815
:102540000B2802D104F0D9FD78E0F548008840F26C
:10255000564188420AD0F248008840F24D418842F4
:1025600004D0EF480088491E884202D104F0D3FD10
:1025700064E0EB48008840F25741884209D1E548C1
:10258000007830B904F0B9FD1620E249087055E032
:1025900010E0E348008840F2574188424ED1DD48C0
:1025A00001780078401EDB4A1070012946D104F002
:1025B000B2FD43E0D94800880B2803D0D7480088F3
:1025C000012802D104F0DFFD38E0D448008840F251
:1025D0004C41884204D0D1480088B0F57A7F02D1BE
:1025E00004F0DFFD2AE0CD48008840F256418842E1
:1025F00005D0CA48008840F24C4188420CD1C848F6
:10260000008840F25641884203D0C54800880B2814
:1026100002D104F0C6FD11E0C04800886F2803D045
:10262000BE4800880B2809D1BD4800886F2803D018
:10263000BB4800880B2801D104F0B3FD032C11D155
:10264000B848008840F2E93188420CD1B648008889
:1026500048B904F06EFD04F086FC0020AD49087016
:10266000AD4908708CE0B048008898BBAD48008840
:102670006F2809D0AB48008840F2F331884203D07C
:10268000A84800880B2802D104F01BFD78E0A5487B
:10269000008840F2564188420AD0A248008840F2A1
:1026A0004D41884204D09F480088491E884202D18B
:1026B00004F015FD64E09B48008840F257418842D1
:1026C00009D19448007830B904F0FBFC16209149F8
:1026D000087055E010E09348008840F25741884266
:1026E0004ED18C4801780078401E8A4A107001292A
:1026F00046D104F0F4FC43E08B4800880B2803D05B
:1027000089480088012802D104F03DFD38E0864860
:10271000008840F24C41884204D083480088B0F5DC
:102720007A7F02D104F03DFD2AE07F48008840F224
:102730005641884205D07C48008840F24C4188428E
:102740000CD17848008840F25641884203D0754841
:1027500000880B2802D104F024FD11E072480088A3
:102760006F2803D0704800880B2809D16D48008875
:102770006F2803D06B4800880B2801D104F011FDAD
:10278000FFF754FC10BD10B504460B2C78D2DFE8DF
:1027900004F07706111B25303D4A57646D0004F0A4
:1027A00090FC00206149087001206149087004F024
:1027B0009FF966E004F093FC02205C4908705C49D4
:1027C000087004F095F95CE004F0A5FC032057497B
:1027D00008705749087004F08BF952E004F08DFC42
:1027E00001205249087004205149087004F080F912
:1027F00047E0002004F0E5FB022004F002FC022088
:1028000004F01FFC022004F03CFC3AE0022004F03B
:10281000D8FB002004F0F5FB022004F012FC02209B
:1028200004F02FFC2DE0022004F0CBFB022004F08A
:10283000E8FB002004F005FC022004F022FC20E06C
:10284000022004F0BEFB022004F0DBFB022004F0B7
:10285000F8FB002004F015FC13E004F032FC00202B
:10286000344908701E20FFF731F80AE004F037FC05
:102870000120304908700020FFF728F801E0FFE749
:1028800000BF00BFFFF7D2FB10BD10B504F06DF81C
:102890002249088004F0B2F82149088004F08BF83E
:1028A000204908802448007801287DD123480078F9
:1028B000A0B92320FFF70AF804F011FC02201B49FD
:1028C00008701B49087000201D4908701F201D4911
:1028D00008701A480078401C184908701948007898
:1028E000002808DD15480078012804D11548007833
:1028F000401E144908701348007840B90F4800780A
:10290000012804D10D480078401C0C490870054886
:10291000008819E0FB000020EC000020F0000020FF
:10292000F4000020F2000020F6000020C801002082
:10293000C9010020F8000020FA000020ED0000206E
:10294000CA010020EE00002040F2E931884208D19F
:10295000FE480078022804D1FC480078401CFB495E
:102960000870FB48008840F25641884208D1F74879
:102970000078032804D1F5480078401CF34908701A
:10298000F348008840F2E931884208D1EF480078E6
:10299000042804D1ED480078401CEC490870EC484C
:1029A000008840F2564100E0A8E088420BD1E74899
:1029B0000078052807D11420FEF788FFE348007847
:1029C000401CE2490870E248008840F2E931884240
:1029D00012D1DE48007806280ED104F09CFB0320BB
:1029E000DC490870DC4908701F20DC490870D748B2
:1029F0000078401CD5490870D8480078002808DDC8
:102A0000D2480078072804D1D4480078401ED34922
:102A10000870D248007840B9CC480078072804D123
:102A2000CA480078401CC9490870CD48008840F267
:102A3000E931884208D1C5480078082804D1C34844
:102A40000078401CC1490870C548008840F25641D2
:102A5000884208D1BD480078092804D1BB480078D5
:102A6000401CBA490870BA48008858B9B74800787D
:102A70000A2807D10520B9490870B4480078401CDD
:102A8000B2490870B5480078002808DDAF480078E2
:102A90000B2804D1B1480078401EB0490870AF48F7
:102AA000007878B9A94800780B280BD104F05BFABC
:102AB00004F015FB0A20FEF709FFA4480078401C2B
:102AC000A2490870A648008828B1A548008840F2AD
:102AD000E93188420FD19D4800780C280BD104F0D1
:102AE00028FB04F040FA00209E49087097480078BF
:102AF000401C9649087003F0FBFFCDE09348007836
:102B000070B904F030FA2320FEF7E0FE04F0E7FA93
:102B10001F20924908708D480078401C8B4908702E
:102B20008E480078002808DD88480078012804D104
:102B30008A480078401E894908708848007840B962
:102B400082480078012804D180480078401C7F49E1
:102B500008707F48008840F2E931884208D17B48FC
:102B60000078022804D179480078401C7749087021
:102B7000774800886F2808D174480078032804D16A
:102B800072480078401C714908707148008840F212
:102B9000E931884208D16D480078042804D16B4897
:102BA0000078401C69490870694800886F280BD17B
:102BB00066480078052807D11420FEF787FE634891
:102BC0000078401C614908706148008840F2E93192
:102BD000884205D05E48008840F25641884208D1BC
:102BE0005A480078062804D158480078401C5749B4
:102BF0000870574800886F2808D154480078072883
:102C000004D152480078401C50490870564800884A
:102C100050B94E480078082806D104F07CFA4B4899
:102C20000078401C494908704948008858B947480D
:102C30000078092807D113204849087043480078D4
:102C4000401C4249087045480078002808DD3F488C
:102C500000780A2804D141480078401E3F49087096
:102C60003E48007840B9394800780A2804D13748EE
:102C70000078401C35490870344800780B280BD187
:102C800004F057FA04F06FF90020364908702F4815
:102C90000078401C2D490870FFF7C8F910BD10B529
:102CA00003F063FE2E49088003F085FE2849088062
:102CB00003F0C8FE2D4908802D48007800287CD1FB
:102CC0002248007888B92320FEF700FE04F007FAB6
:102CD0000220204908702049087001202549087009
:102CE0001A480078401C194908701948008840F2B9
:102CF000E931884208D115480078012804D11348E9
:102D00000078401C114908701148008840F2564173
:102D1000884208D10D480078022804D10B48007879
:102D2000401C0A4908700A48008840F2E93188428C
:102D300008D106480078032804D104480078401CD4
:102D4000024908700248008816E00000ED000020EB
:102D5000F2000020C8010020C9010020EE00002080
:102D6000F0000020EC000020F4000020F60000201D
:102D7000FA000020CA01002040F25641884208D1E2
:102D8000FE480078042804D1FC480078401CFB4928
:102D90000870FB48008840F25641884205D0F84848
:102DA000008840F2E93188421AD1F44800780528B9
:102DB00016D11920FEF78AFD00E084E004F0ABF99B
:102DC0000120F04908700320EF490870EF490870AE
:102DD0002320EF490870E9480078401CE749087053
:102DE000EB480078002808DDE4480078062804D184
:102DF000E7480078401EE6490870E548007840B989
:102E0000DE480078062804D1DC480078401CDB4905
:102E10000870E048008840F2E931884208D1D7487C
:102E20000078072804D1D5480078401CD3490870A1
:102E3000D848008840F2564188420BD1CF480078EC
:102E4000082807D1CD480078401CCC4908700F20D5
:102E5000FEF73CFDCF48008840F2E931884203D0BC
:102E6000CC4800886F280BD1C4480078092807D1C6
:102E7000C2480078401CC14908700720FEF726FDB3
:102E8000C448008840F2564188421BD1BB480078B4
:102E90000A28FAD1B9480078401CB849087004F0F3
:102EA00048F904F060F80020BB490870FEF7C7FC41
:102EB0000020BA490870BA4800780028E5D10F20F0
:102EC000B8490870EBE0AD48007888B92320FEF7D8
:102ED000FDFC04F004F90220AB490870AB4908700E
:102EE0000120A8490870A5480078401CA349087033
:102EF000A348008840F2E931884208D19F48007811
:102F0000012804D19D480078401C9C4908709C48C9
:102F1000008840F25641884208D19848007802283B
:102F200004D196480078401C944908709448008861
:102F300040F2E931884208D190480078032804D152
:102F40008E480078401C8D4908708D48008840F2FA
:102F50005641884208D189480078042804D187481E
:102F60000078401C854908708548008840F2564129
:102F7000884205D08248008840F2E931884218D161
:102F80007E480078052814D11920FEF79FFC04F034
:102F9000C2F801207B49087003207B4908707B49F7
:102FA000087023207A49087074480078401C7349DF
:102FB000087077480078002808DD704800780628F7
:102FC00004D173480078401E714908707048007839
:102FD00040B96A480078062804D168480078401C47
:102FE000664908706B48008840F2E931884208D190
:102FF00062480078072804D160480078401C5F4987
:1030000008706448008840F25641884208D15B4805
:103010000078082804D159480078401C57490870A6
:103020005C48008840F2E931884208D15348007872
:10303000092804D151480078401C5049087055486F
:10304000008840F2564188420BD14C4800780A284B
:1030500007D14A480078401C484908700D20FEF707
:1030600035FC51480088D0B9444800780B2816D167
:1030700042480078401C4149087004F05AF803F0B7
:1030800072FF002044490870FEF7D9FB0020434935
:1030900008704348007810B90F204249087003F0C7
:1030A00027FDFEF7C3FF10BD10B5044603F05DFC1D
:1030B0003849088003F07FFC31490880012C77D122
:1030C0002E48007898B91920FEF700FCB3EE090AE3
:1030D000364880ED000A04F01EF803202A490870E3
:1030E0002A49087025480078401C2449087029485E
:1030F000008840F2E93188420DD12048007801284B
:1031000009D11E480078401C1C4908700020224943
:103110000870FEF794FB1F48008840F25641884231
:1031200008D116480078022804D114480078401CC1
:10313000124908701748008840F2E931884208D1E6
:103140000E480078032804D10C480078401C0B4935
:1031500008701048008840F2564188422CD1074838
:103160000078042828D1B2EE0E0A104880ED000A3B
:103170000F20FEF7ABFB014800781AE0ED000020BD
:10318000F2000020CA010020C8010020C90100206F
:10319000EE000020F000002090000020EC00002055
:1031A000F900002011000020F6000020940000200B
:1031B00049E0401CFC490870FC48008840F2E931B5
:1031C000884216D1F8480078052812D10720FEF76A
:1031D0007DFB03F076FF0020F54908700120F549DA
:1031E00008700020F4490870EF480078401CEE4950
:1031F000087003F07DFCFEF719FFEC4800880028FA
:1032000020D1E94800780628FAD1E7480078401C28
:10321000E549087003F08DFF03F0A5FE0020E749A3
:103220000870FEF70CFB9FEDE60AE64880ED000A09
:103230002A20E5490870E54800780028E0D10420FC
:10324000E34908709EE0D8480078B0B91920FEF72D
:103250003DFBB3EE090ADB4880ED000A03F05BFF9B
:103260000320D3490870D34908701F20D94908703A
:10327000CD480078401CCC49087003F039FCD54893
:103280000078002808DDC8480078012804D1D1481A
:103290000078401ECF490870CE48007840B9C24837
:1032A0000078012804D1C0480078401CBE4908704D
:1032B000BE48008840F2E931884208D1BA48007817
:1032C000022804D1B8480078401CB7490870B748B4
:1032D000008840F25641884210D1B3480078032854
:1032E0000CD1B2EE0E0AB74880ED000A0F20FEF7AF
:1032F000EDFAAD480078401CAB490870AB48008837
:1033000040F2E931884216D1A7480078042812D14A
:103310000720FEF7DBFA03F0D4FE0020A449087072
:103320000120A44908700020A34908709E48007835
:10333000401C9D49087003F0DBFBFEF777FE9B48BD
:103340000088F8B99848007805281BD1964800787D
:10335000401C9549087003F0ECFE03F004FE0020C9
:1033600096490870FEF76BFA9FED950A954880ED37
:10337000000A2A20944908709448007810B90E2059
:103380009349087010BD10B5044603F0EEFA874962
:1033900008808548007870B90F20FEF797FA03F08F
:1033A000BAFE032082490870824908707E4800787E
:1033B000401C7D49087003F09BFB7C48008840F26C
:1033C000E931884203D0794800880B2828D1764813
:1033D0000078012824D174480078401C7249087094
:1033E00003F0A7FE03F0BFFD002074490870FEF74C
:1033F00026FA0020744908707448007880B9012CBE
:1034000003D10920724908700AE0022C03D10B2075
:103410006F49087004E0032C02D10D206C4908703C
:10342000FEF704FE10BD00205F4908700A206949BC
:103430000870704710B50446601E6749085C322862
:103440006DD103F0FFFA654908805748007878B9D4
:103450000F20FEF73BFA03F050FE0120544908709C
:1034600004205449087050480078401C4E490870A8
:1034700003F03EFB5948008858B94B4800780128B2
:1034800007D110205349087047480078401C46492E
:10349000087050480078002808DD4348007802286A
:1034A00004D14C480078401E4A49087049480078C9
:1034B00040B93D480078022804D13B480078401CC0
:1034C000394908703848007803281BD136480078FD
:1034D000401C3549087003F02CFE03F044FDFFF753
:1034E000A2FF002035490870FEF7A9F900203649EF
:1034F00008703648007800287FD1012C03D10820BD
:103500003349087079E0022C03D10A203049087051
:1035100073E0032C71D10C202D4908706DE003F08D
:103520004AFA2F4908802048007878B90F20FEF722
:10353000CDF903F0E2FD01201D49087004201D496A
:10354000087019480078401C1749087003F0D0FA39
:103550002348008840B914480078012804D1124853
:103560000078401C104908700F480078022844D1A8
:103570000D480078401C0C49087003F0DAFD03F098
:10358000F2FCFFF750FF00200C490870FEF757F9D6
:1035900000200D4908700D48007840BB012C21D156
:1035A00008200B49087028E0ED000020F000002002
:1035B000C8010020C9010020CA010020900000209D
:1035C00000000C4294000020EC000020F9000020D4
:1035D00011000020EE000020E9010020F60000208C
:1035E000F2000020022C03D10A20FE49087004E0FA
:1035F000032C02D10C20FB490870FEF717FD10BD0B
:1036000010B503F0B2F9F849088003F0D4F9F7498E
:103610000880F748007850B903F06FFD0120F549A4
:1036200008700420F44908700120F149087003F083
:103630005FFAED48008840F2E931884208D1EC4851
:103640000078012804D1EA480078401CE849087055
:10365000E548008840F25641884208D1E4480078A5
:10366000022804D1E2480078401CE1490870DE4895
:10367000008840F2E931884208D1DD48007803280B
:1036800004D1DB480078401CD9490870D64800882E
:1036900040F25641884208D1D5480078042804D128
:1036A000D3480078401CD2490870CF48008840F2C7
:1036B000E931884208D1CE480078052804D1CC48A9
:1036C0000078401CCA490870C748008840F256413B
:1036D000884208D1C6480078062804D1C44800783A
:1036E000401CC3490870C048008840F2E931884254
:1036F0000DD1BF480078072809D1FEF7A0F81220A5
:10370000FEF7E4F8BA480078401CB9490870B6489A
:10371000008840F25641884208D1B5480078082810
:1037200004D1B3480078401CB1490870AE48008805
:1037300040F2E93188421AD1AD480078092816D103
:1037400003F0BFFC0020AD490870AA4908700120B1
:10375000A94908700020AA490870FEF770F8A4482B
:103760000078401CA24908700B20A6490870A548A3
:103770000078002808DD9E4800780A2804D1A14876
:103780000078401E9F4908709E48007840B99848CC
:1037900000780A2804D196480078401C94490870A3
:1037A0009248008840F2E931884208D19048007878
:1037B0000B2804D18E480078401C8D4908708B4836
:1037C000008840F2564188420BD1894800780C2885
:1037D00007D187480078401C854908700C20FEF707
:1037E00075F88248008840F2E93188421AD1804851
:1037F00000780D2816D17E480078401C7C4908705E
:1038000003F097FC03F0AFFB00207D490870FEF742
:1038100016F800207C4908707C48007810B9062012
:1038200070490870FEF702FC10BD10B503F09DF85A
:103830006D49088003F0BFF86C49088003F002F975
:10384000734908806A48007888B92320FEF73EF85B
:1038500003F045FC022067490870674908700120A1
:103860006649087062480078401C6149087003F09E
:103870003FF95E48008840F2E931884208D15C484F
:103880000078012804D15A480078401C5849087033
:103890005648008840F25641884208D15448007882
:1038A000022804D152480078401C514908704F4802
:1038B000008840F2E931884208D14D480078032859
:1038C00004D14B480078401C49490870474800889B
:1038D00040F25641884208D145480078042804D176
:1038E00043480078401C424908704048008840F234
:1038F0005641884205D03D48008840F2E93188426F
:1039000018D13B480078052814D11920FDF7DEFFB7
:1039100003F001FC01203949087003203549087083
:103920003549087023203749087031480078401C19
:103930002F49087033480078002808DD2C480078AB
:10394000062804D12F480078401E2E4908702D48C3
:10395000007840B926480078062804D12448007829
:10396000401C234908702048008840F2E931884211
:1039700008D11F480078072804D11D480078401C52
:103980001B4908701848008840F25641884208D107
:1039900017480078082804D115480078401C1449BD
:1039A00008701148008840F2E931884208D1104877
:1039B0000078092804D10E480078401C0C49087092
:1039C0000948008840F25641884225D108480078CD
:1039D0000A2821D106480078401C054908700D20AE
:1039E00018E0000011000020F0000020F20000208C
:1039F000ED000020C8010020C9010020CA010020FC
:103A000090000020EE000020EC000020F9000020D3
:103A1000F6000020FDF75AFFF9480088D0B9F948B0
:103A200000780B2816D1F7480078401CF54908703B
:103A300003F07FFB03F097FA0020F3490870FDF7CD
:103A4000FEFE0020F1490870F148007810B9052009
:103A5000F0490870FEF7EAFA10BD10B502F085FFD4
:103A6000ED49088002F0A7FFEC49088002F0EAFF68
:103A7000E3490880E348007880B92820FDF726FF55
:103A800003F01FFB0020E64908700120E54908709B
:103A90000220E54908700120DA49087003F028F88F
:103AA000DE48008840F2E931884208D1D5480078E4
:103AB000012804D1D3480078401CD2490870D74867
:103AC000008840F25641884208D1CE48007802284A
:103AD00004D1CC480078401CCA490870CF480088FF
:103AE00040F2E931884208D1C6480078032804D161
:103AF000C4480078401CC3490870C848008840F298
:103B00005641884208D1BF480078042804D1BD48F6
:103B10000078401CBB490870C048008840F2E93179
:103B2000884208D1B7480078052804D1B548007804
:103B3000401CB4490870B948008840F25641884298
:103B40000BD1B0480078062807D1AE480078401C59
:103B5000AC4908700F20FDF7B9FEB048008840F26C
:103B6000E931884203D0AD4800880B2814D1A5481C
:103B70000078072810D1FDF7A9FE03F0CCFA032046
:103B8000A7490870A74908700120A74908709D48F7
:103B90000078401C9B490870FEF748FA9F4800884F
:103BA000D0B998480078082816D196480078401C6B
:103BB0009449087003F0BDFA03F0D5F9002092494A
:103BC0000870FDF73CFE2920904908709048007865
:103BD00010B902208F49087010BD10B502F0C5FE63
:103BE0008D49088002F0E7FE8C49088085480078FE
:103BF000C8B92320FDF76AFE03F0B7FA00208B490D
:103C0000087080480078401C7E490870232088494D
:103C100008708148008818B900208449087002E0C3
:103C20000120824908708148007800287ED18048B0
:103C30000078002808DD73480078012804D17C480A
:103C40000078401E7A4908707348008840F2E931D4
:103C5000884218D16B480078012814D17448007844
:103C600088B903F02EFA1E20FDF730FE00206E49C1
:103C700008706B49087001206A4908706148007833
:103C8000401C604908706548008840F2E93188426C
:103C900007D16848007820B966480078401C65491B
:103CA00008705E48008840F25641884208D1614859
:103CB0000078012804D15F480078401C5D490870F5
:103CC0005648008840F2E931884208D159480078C6
:103CD000022804D157480078401C564908704F48C4
:103CE000008840F2564188420DD15248007803289E
:103CF00009D150480078401C4E490870414800786E
:103D0000401C404908703F480078032873D103F0F5
:103D100010FA03F028F900203C4908704549087062
:103D2000424908703A480078002800E004E062D177
:103D30000120384908705EE03D480078002808DD21
:103D400030480078012804D139480078401E3849AD
:103D500008703148008840F2E931884218D129487A
:103D60000078012814D13248007888B903F0A9F905
:103D70001E20FDF7ABFD00202B4908702849087074
:103D80000120284908701F480078401C1D49087010
:103D90002248008840F2E931884208D11948007869
:103DA000022804D117480078401C164908701B48A7
:103DB000008840F25641884208D112480078032812
:103DC00004D110480078401C0E4908700D48007856
:103DD000042810D103F0ADF903F0C5F800200B4919
:103DE000087014490870114908700948007810B922
:103DF00001200849087002F07BFEFEF717F910BD9C
:103E0000F6000020ED00002090000020EC000020D3
:103E1000F900002011000020F0000020F200002036
:103E2000C8010020C9010020CA010020FD000020B7
:103E3000EE000020FC00002010B50121FE4806F035
:103E4000E4FB002872D0FD4800782C286FD2DFE810
:103E500000F016171A1D2124272B2F33373B3F4321
:103E6000467F7F7F7F7F494D5155595D6165696F01
:103E70007F7F7F7F7F7F7F7F7F7F7F73777B68E020
:103E8000FFF7ABFE65E0FFF7E8FD62E00120FFF71A
:103E90000BF95EE0FFF7C9FC5BE0FFF7B1FB58E010
:103EA0000120FFF7C7FA54E00120FFF76CFA50E059
:103EB0000220FFF7BFFA4CE00220FFF764FA48E067
:103EC0000320FFF7B7FA44E00320FFF75CFA40E075
:103ED0000220FFF7E9F83CE0FEF7E1FE39E0FEF7EB
:103EE000D4FC36E00120FEF74EFC32E00220FEF763
:103EF0004AFC2EE00320FEF746FC2AE00420FEF7F1
:103F000042FC26E00520FEF73EFC22E00620FEF7FC
:103F10003AFC1EE00720FEF736FC1AE00820FEF708
:103F200032FC16E00920FEF72EFC12E016E00FE04E
:103F30000A20FEF728FC0CE00120FEF770F908E0EB
:103F40000220FEF76CF904E00320FEF768F900E0B8
:103F500000BF00BF0121B84806F068FB10BD10B5D6
:103F600002F003FDB649088002F025FDB54908803E
:103F7000B548007878B90F20FDF7A8FC03F0BDF82C
:103F80000120B24908700420B1490870AE48007899
:103F9000401CAD49087002F0ABFDAA480088D0B9BA
:103FA000A9480078012816D1A7480078401CA649E6
:103FB000087003F0BEF802F0D6FF0020A549087093
:103FC000FDF73DFC00209D490870A348007810B91A
:103FD0000820A2490870FEF729F810BD10B502F0BC
:103FE000C4FC9749088002F0E6FC96490880964890
:103FF000007870B90F20FDF769FC03F08CF80320FE
:1040000092490870924908708F480078401C8E4988
:10401000087002F06DFD8A48008840F2E93188425C
:1040200003D0874800880B281AD1874800780128D8
:1040300016D185480078401C8349087003F079F850
:1040400002F091FF002083490870FDF7F8FB002083
:104050007A4908708048007810B909207F490870B3
:10406000FDF7E4FF10BD70B50546002419E0285D9A
:10407000312804D0322807D033280FD109E000F0CE
:1040800023FF00F0EDFC0AE000F052FF00F031FDEC
:1040900005E000F081FF00F05CFD00E000BF00BF24
:1040A000641C032CE3DB70BD10B504462078312876
:1040B00002D100F009FF0AE02078322802D100F096
:1040C00037FF04E02078332801D100F065FF00F0CD
:1040D000C7FC10BD10B504466078312802D100F04D
:1040E000F3FE0AE06078322802D100F021FF04E0FC
:1040F0006078332801D100F04FFF00F0FAFC10BDCA
:1041000010B50446A078312802D100F0DDFE0AE0A7
:10411000A078322802D100F00BFF04E0A078332809
:1041200001D100F039FF00F014FD10BD10B50446B8
:104130002078312802D100F063FF0DE0207832288A
:1041400002D100F0BDFF07E02078332804D100F051
:10415000E0FF43A006F076FE10BD10B5044660787F
:10416000312802D100F04CFF0DE06078322805D1F3
:1041700000F0A6FF3CA006F065FE04E0607833285E
:1041800001D100F0C6FF10BD10B50446A07831285B
:1041900005D100F035FF36A006F054FE0AE0A07805
:1041A000322802D100F08CFF04E0A078332801D13E
:1041B00000F0AFFF10BD70B50546052419E0285D7D
:1041C000312804D0322807D033280FD109E000F07D
:1041D00017FF00F045FC0AE000F072FF00F089FCD8
:1041E00005E000F096FF00F0B4FC00E000BF00BF67
:1041F000641C082CE3DB70BD70B504460D46012D30
:104200005BD14FF439701C494863C82004F084FA2C
:1042100040F2BF3018498863322004F07DFA40F242
:10422000244016490860322004F076FA40F28B30C0
:1042300013490860322025E000100040EC00002007
:10424000F0000020F2000020ED000020C801002056
:10425000C901002090000020F9000020110000207A
:10426000D7A5BAECC9AB0000D7A5C2CCC9AB00003A
:10427000D7A5C0B6C9AB000000400140344401409E
:104280003418004004F048FA4FF4D770FE49086033
:10429000322004F041FA2078312802D100F0C8FF22
:1042A00042E02078322802D100F090FF3CE02078F4
:1042B000332839D100F058FF36E0022D34D14FF4C5
:1042C0003970F2494863C82004F026FA40F2BF3042
:1042D000EE498863322004F01FFA40F22440EC4992
:1042E0000860322004F018FA40F28B30E649091FCA
:1042F0000860322004F010FA4FF4D770E2490860E9
:10430000322004F009FA2079312802D100F090FF20
:104310000AE02079322802D100F058FF04E0207929
:10432000332801D100F020FF70BD70B504460D4662
:10433000012D13D100F0AAFC6078312802D100F0E1
:1043400077FF20E06078322802D100F03FFF1AE0CA
:104350006078332817D100F007FF14E0022D12D146
:1043600000F094FC6079312802D100F061FF0AE08E
:104370006079322802D100F029FF04E06079332807
:1043800001D100F0F1FE70BD70B504460D46012D5F
:1043900013D100F0AEFCA078312802D100F048FF24
:1043A00020E0A078322802D100F010FF1AE0A078B7
:1043B000332817D100F0D8FE14E0022D12D100F0FE
:1043C00098FCA079312802D100F032FF0AE0A079F0
:1043D000322802D100F0FAFE04E0A079332801D19E
:1043E00000F0C2FE70BD70B505460E460024012ED9
:1043F0001ED100BF19E0285D312804D0322807D033
:1044000033280FD109E000F0D4FB00F0DFFE0AE012
:1044100000F03CFC00F00CFF05E000F06AFC00F04E
:10442000A3FE00E000BF00BF641C032CE3DB1FE021
:10443000022E1DD1042419E0285D312804D0322831
:1044400007D033280FD109E000F0B3FB00F0BEFE27
:104450000AE000F01BFC00F0EBFE05E000F049FC78
:1044600000F082FE00E000BF00BF641C072CE3DB0D
:1044700070BD70B504460D46012D13D1207831284A
:1044800002D100F06BFF0AE02078322802D100F060
:1044900033FF04E02078332801D100F0FBFE00F068
:1044A00058FB14E0022D12D12079312802D100F0FE
:1044B00055FF0AE02079322802D100F01DFF04E008
:1044C0002079332801D100F0E5FE00F042FB70BDF9
:1044D00070B504460D46012D13D16078312802D104
:1044E00000F03CFF0AE06078322802D100F004FFBF
:1044F00004E06078332801D100F0CCFE00F0F9FA36
:1045000014E0022D12D16079312802D100F026FF8B
:104510000AE06079322802D100F0EEFE04E0607912
:10452000332801D100F0B6FE00F0E3FA70BD70B59B
:1045300004460D46012D13D1A078312802D100F098
:104540000DFF0AE0A078322802D100F0D5FE04E089
:10455000A078332801D100F09DFE00F081FA14E02C
:10456000022D12D1A079312802D100F0F7FE0AE025
:10457000A079322802D100F0BFFE04E0A0793328F0
:1045800001D100F087FE00F06BFA70BD10B5044653
:104590004FF439703D494863C82004F0BDF840F23B
:1045A00024403B49086040F2BF30384988634FF4EB
:1045B000967004F0B1F840F28B303349091F08605F
:1045C0004FF4FA7004F0A8F84FF448702E490860D0
:1045D0004FF4967004F0A0F82078312802D100F052
:1045E00097FF0AE02078322802D100F01FFF04E094
:1045F0002078332801D100F0E7FE10BD10B5044645
:1046000000F044FB6078312802D100F081FF0AE01D
:104610006078322802D100F009FF04E06078332886
:1046200001D100F0D1FE10BD10B5044600F0C1FA72
:10463000A078312802D100F06BFF0AE0A078322880
:1046400002D100F0F3FE04E0A078332801D100F09D
:10465000BBFE10BD10B504464FF439700B494863DA
:10466000C82004F059F840F224400949086040F29B
:10467000BF30064988634FF4967004F04DF840F25D
:104680008B300149091F05E0381800400040014007
:104690003444014008604FF4FA7004F03DF84FF4E0
:1046A0004870534908604FF4967004F035F820794B
:1046B000312802D100F0E1FF0AE02079322802D14E
:1046C00000F0A9FF04E02079332801D100F052FF67
:1046D00010BD10B5044600F0D9FA6079312802D136
:1046E00000F0CBFF0AE06079322802D100F093FF9E
:1046F00004E06079332801D100F03CFF10BD10B513
:10470000044600F056FAA079312802D100F0B5FF36
:104710000AE0A079322802D100F07DFF04E0A07900
:10472000332801D100F026FF10BD10B504464FF428
:10473000397030494863C82003F0EEFF40F29A30E8
:104740002B49091F08604FF4FA7003F0E5FF40F2AF
:10475000AF302949086040F27C40264988634FF415
:10476000967003F0D9FF4FF4617021490860401042
:1047700003F0D2FF2079312802D101F03FF80AE09E
:104780002079322802D100F0F3FF04E020793328A9
:1047900001D100F0A7FF10BD10B5044600F076FA75
:1047A0006079312802D101F029F80AE060793228D5
:1047B00002D100F0DDFF04E06079332801D100F080
:1047C00091FF10BD10B5044600F0F3F9A07931282F
:1047D00002D101F013F80AE0A079322802D100F0EA
:1047E000C7FF04E0A079332801D100F07BFF10BDA2
:1047F00038180040004001403444014070B505467F
:104800000E46344605E0FE480460092003F084FFAC
:10481000E41EAC42F7D270BD70B505460E46344674
:1048200005E0F7480460092003F076FFA41CAC42C1
:10483000F7D970BD70B505460E46344605E0F04820
:104840000460092003F068FFA41CAC42F7D970BDD6
:1048500070B505460E46344605E0EA4884630820F4
:1048600003F05AFFE41CAC42F7D970BD70B50546A1
:104870000E46344605E0E44804600B2003F04CFF8C
:10488000A41CAC42F7D970BD70B505460E4634463F
:1048900005E0DB4804600C2003F03EFFA41EAC42A0
:1048A000F7D270BD10B54FF44870D549086032207A
:1048B00003F032FF40F26A40D3490860642003F0FD
:1048C0002BFF40F2523140F29330FFF7B3FF4FF429
:1048D000617140F2A130FFF7BBFFC82003F01CFF5D
:1048E00010BD10B540F2E630C549091D08604FF40F
:1048F0004870091F0860322003F00EFF40F26A4042
:10490000C1490860642003F007FF40F2523140F2D1
:104910008B30FFF78FFF642003F0FEFE4FF46171D0
:1049200040F2A130FFF794FF642003F0F5FE10BDC4
:1049300010B54FF44870B2490860322003F0ECFE25
:1049400040F22440B0490860642003F0E5FE40F2E4
:10495000523140F29D30FFF76DFF40F2523140F28C
:10496000BF30FFF775FF10BD10B540F29620A54986
:104970008863642003F0D0FE40F25230A049086002
:10498000642003F0C9FE40F2523140F29D30FFF73F
:1049900051FF40F2523140F2BF30FFF759FF64201F
:1049A00003F0BAFE40F224409749086010BD10B5EC
:1049B00040F2BF30934988631E2003F0ADFE40F201
:1049C000244091490860462003F0A6FE40F28B3057
:1049D0008B490860642003F09FFE10BD10B540F2C3
:1049E00024408949086040F2BF30864988634FF40B
:1049F000967003F091FE40F28B30814908604FF4CD
:104A0000FA7003F089FE4FF448707D49091D086073
:104A10004FF4967003F080FE10BD10B54FF4167081
:104A200078494863322003F077FE4FF448707449A8
:104A30000860642003F070FE40F2AF3072490860F5
:104A4000642003F069FE40F2523140F29D30FFF7DE
:104A5000F1FE4FF4617140F27440FFF7F9FE10BDB2
:104A600010B56A4800886649091D08604FF4FA705D
:104A700003F052FE6648008862498863642003F0B0
:104A80004BFE644800885E490860642003F044FEE1
:104A900040F2244160480088FFF7E8FE322003F02E
:104AA0003BFE5E480088574948634FF4967003F018
:104AB00033FE40F224405449086040F2BF3051496F
:104AC0008863322003F028FE40F28B304C490860A6
:104AD0004FF4FA7003F020FE4FF4D7704849091DD7
:104AE0000860C82003F018FE4FF41670454948636B
:104AF00010BD10B54A4800884149091D08604FF4AF
:104B0000617003F009FE474800883E49886396209B
:104B100003F002FE4448008839490860642003F02D
:104B2000FBFD40F2244141480088FFF79FFE322000
:104B300003F0F2FD39480088324948634FF496701B
:104B400003F0EAFDFFF74AFF4FF416702D49486362
:104B500010BD10B5364800882949091D08604FF47A
:104B6000487003F0D9FD33480088264988636420E3
:104B700003F0D2FD3048008821490860322003F05C
:104B8000CBFD40F224412D480088FFF76FFE322014
:104B900003F0C2FD214800881A4948634FF496701B
:104BA00003F0BAFDFFF71AFF4FF41670154948637A
:104BB00010BD10B519480088124948631348008891
:104BC0000F49091D08604FF42F7003F0A5FD104830
:104BD00000880C498863322003F09EFD0D48008850
:104BE00007490860322003F097FD40F224410A484B
:104BF0000088FFF73BFE642003F08EFD20E00000FC
:104C00003418004000400140344401409E0100201F
:104C1000980100209C0100209A0100200001002042
:104C2000A6010020A0010020A4010020A201002074
:104C3000AE010020A8010020AC010020AA01002044
:104C40004FF43970FE4948634FF4967003F064FDE9
:104C500040F2BF30FA498863322003F05DFD40F234
:104C60002440F8490860322003F056FD40F28B30B2
:104C7000F5490860322003F04FFD4FF4D770F24938
:104C8000091D0860322003F047FD10BD10B5322029
:104C900003F042FDED480088E9494863EC4800888C
:104CA000E949091D08604FF4617003F035FDE948DA
:104CB0000088E3498863322003F02EFDE64800882F
:104CC000E1490860642003F027FD40F22441E348F5
:104CD0000088FFF7CBFD322003F01EFD4FF4397042
:104CE000D74948634FF4967003F016FDFFF776FE40
:104CF00010BD10B5D5480088D1494863D848008810
:104D0000D149091D08604FF4617003F005FDD548D5
:104D10000088CB498863322003F0FEFCD24800882B
:104D2000C9490860642003F0F7FC40F22441CF48F1
:104D30000088FFF79BFD322003F0EEFC4FF4397042
:104D4000BF4948634FF4967003F0E6FCFFF746FE58
:104D500010BD10B54FF41670B949486340F20A40CF
:104D6000B8490860642003F0D7FC40F23640B649E9
:104D700008604FF4967003F0CFFC4FF4D770B2493F
:104D8000091D08604FF4FA7003F0C6FC40F2E240DF
:104D9000AB49886310BD10B540F2FD30AA490860E8
:104DA0004FF4FA7003F0B8FC4FF4E070A649091D07
:104DB00008604FF4FA7003F0AFFC4FF41670A0498E
:104DC0004863642003F0A8FC4FF461709C49886339
:104DD000C82003F0A1FC40F234409A49086040F238
:104DE000C4409749886310BD10B540F2B71096498A
:104DF000091D08604FF4487003F08EFC40F2022158
:104E000040F2EE20FFF708FD4FF4967003F084FCAB
:104E100040F20A408B4908604FF4487003F07CFC74
:104E200040F23640884908604FF4487003F074FC43
:104E300040F2E240824988634FF4FA7003F06CFC60
:104E400010BD10B54FF416707D4948634FF4E07003
:104E50007D49091D0860142003F05EFC40F2E24029
:104E600077498863322003F057FC40F212407649BC
:104E70000860322003F050FC40F20A40714908609B
:104E8000322003F049FC10BD10B54FF416706C4988
:104E9000486340F2C9106C49091D086040F2944013
:104EA00067498863322003F037FC40F2B530664929
:104EB0000860642003F030FC40F20A406149086059
:104EC000642003F029FC10BD10B5694800885E49D4
:104ED000091D08604FF4C87003F01EFC6548008887
:104EE00057498863322003F017FC4FF44870564945
:104EF00008604FF4967003F00FFC5F48008851493A
:104F000008604FF4C87003F007FC40F2C6215B480C
:104F10000088FFF773FC642003F0FEFB4FF4397048
:104F200047494863C82003F0F7FBFFF7BBFC10BDFF
:104F300010B5534800884449091D08604FF4C870F3
:104F400003F0EAFB4F4800883D498863322003F0B4
:104F5000E3FB4FF448703C4908604FF4967003F04F
:104F6000DBFB49480088374908604FF4967003F02E
:104F7000D3FB40F2C62145480088FFF73FFC642080
:104F800003F0CAFB4FF43E702D494863C82003F07C
:104F9000C3FBFFF787FC10BD10B53D4800882A49C8
:104FA000091D08604FF42F7003F0B6FB39480088E4
:104FB00023498863322003F0AFFB4FF44870224945
:104FC00008604FF4967003F0A7FB334800881D4932
:104FD00008604FF4967003F09FFB40F2C6212F4803
:104FE0000088FFF70BFC642003F096FB4FF4397048
:104FF00013494863C82003F08FFBFFF753FC10BD33
:1050000010B5274800881049091D08604FF49670B4
:1050100003F082FB2348008809498863C82003F015
:105020007BFB4FF4487008490860C82003F074FB0C
:105030001D48008803490860C82003F06DFB35E077
:105040000040014034440140341800400001002079
:10505000A6010020A0010020A4010020A201002040
:10506000AE010020A8010020AC010020AA01002010
:105070000801002002010020040100200601002098
:10508000100100200A0100200C0100200E01002068
:105090001801002012010020140100201601002038
:1050A000200100201A0100201C01002040F28A216A
:1050B000F7480088FFF7A2FB642003F02DFB10BD2A
:1050C00010B5F4480088F44908604FF4967003F076
:1050D00023FBF2480088F2498863C82003F01CFBD8
:1050E0004FF44870EC49091F0860C82003F014FB16
:1050F000EC480088EC490860C82003F00DFB40F242
:105100008A21EA480088FFF779FB642003F004FB5A
:1051100010BD10B5E6480088DF4908604FF496706E
:1051200003F0FAFAE3480088DD4988634FF496708B
:1051300003F0F2FA4FF44870D749091F08604FF4A2
:10514000967003F0E9FADC480088D7490860C82067
:1051500003F0E2FA40F28A21D8480088FFF74EFBBC
:10516000642003F0D9FA10BD10B5D5480088CA49AB
:1051700008604FF4FA7003F0CFFAD2480088C849AB
:105180008863322003F0C8FA4FF44870C249091FFF
:105190000860322003F0C0FACB480088C24908609A
:1051A000322003F0B9FA4FF44871C8480088FFF77D
:1051B00025FB322003F0B0FA4FF41670B84948636B
:1051C000C82003F0A9FAFFF7B3FB10BD10B5C04823
:1051D0000088B14908604FF4FA7003F09DFABD48A9
:1051E0000088AF498863322003F096FA4FF4487084
:1051F000A949091F0860322003F08EFAB6480088DA
:10520000A9490860322003F087FA4FF44871B34887
:105210000088FFF7F3FA322003F07EFA4FF416709D
:105220009F494863C82003F077FAFFF781FB10BD60
:1052300010B5AB480088984908604FF4167003F029
:105240006BFAA848008896498863322003F064FA14
:105250004FF448709049091F0860322003F05CFA4F
:10526000A148008890490860322003F055FA4FF4B5
:1052700048719E480088FFF7C1FA322003F04CFACB
:105280004FF4167086494863C82003F045FAFFF7CB
:105290004FFB10BD10B58A4800887F4908604FF465
:1052A000167003F039FA874800887D4988633220F8
:1052B00003F032FA4FF448707749091F0860142050
:1052C00003F02AFA8048008877490860322003F00A
:1052D00023FA4FF448717D480088FFF78FFA322097
:1052E00003F01AFA4FF439706D494863C82003F08F
:1052F00013FAFFF71DFB10BD10B57548008866490D
:1053000008604FF42F7003F007FA72480088644970
:105310008863322003F000FA4FF448705E49091F99
:105320000860322003F0F8F96B4800885E49086095
:10533000322003F0F1F94FF4487168480088FFF714
:105340005DFA322003F0E8F94FF4397054494863AC
:10535000C82003F0E1F9FFF7EBFA10BD10B5604883
:1053600000884D4908604FF42F7003F0D5F95D486F
:1053700000884B498863322003F0CEF94FF448701F
:105380004549091F0860322003F0C6F956480088D5
:1053900045490860322003F0BFF94FF44871534883
:1053A0000088FFF72BFA322003F0B6F94FF439707A
:1053B0003B494863C82003F0AFF9FFF7B9FA4FF44F
:1053C000D7703549086010BD10B54948008832498A
:1053D00008604FF4FA7003F09FF94648008830499E
:1053E0008863642003F098F94FF448702A49091F34
:1053F0000860322003F090F93F4800882A4908608D
:10540000322003F089F94FF448713C480088FFF7D7
:10541000F5F9642003F080F94FF4167020494863D1
:10542000C82003F079F9FFF783FA10BD10B53448AE
:105430000088194908604FF4FA7003F06DF931489B
:10544000008817498863322003F066F94FF44870EA
:105450001149091F0860322003F05EF92A480088CC
:1054600011490860322003F057F94FF4487127487A
:105470000088FFF7C3F9322003F04EF94FF416709D
:1054800007494863C82003F047F9FFF751FA10BDF8
:105490001E010020280100203818004022010020B1
:1054A0000040014024010020344401402601002036
:1054B000300100202A0100202C0100202E010020B4
:1054C0003801002032010020340100203601002084
:1054D000400100203A0100203C0100203E01002054
:1054E0004801002042010020440100204601002024
:1054F000500100204A0100204C0100204E010020F4
:1055000058010020520100205401002056010020C3
:1055100010B5FE480088FE4908604FF4FA7003F0A9
:10552000FBF8FC480088FC498863642003F0F4F829
:105530004FF44870F649091F0860322003F0ECF878
:10554000F6480088F6490860322003F0E5F84FF489
:105550004871F4480088FFF751F9642003F0DCF843
:105560004FF41670EC494863C82003F0D5F8FFF7F4
:10557000DFF910BD10B5EC480088E54908604FF42C
:10558000FA7003F0C9F8E9480088E34988633220DB
:1055900003F0C2F84FF44870DD49091F0860642029
:1055A00003F0BAF8E2480088DD490860322003F0D1
:1055B000B3F84FF44871DF480088FFF71FF9642003
:1055C00003F0AAF84FF41670D3494863C82003F0DB
:1055D000A3F84FF44870CE49091F0860962003F0E5
:1055E0009BF840F26A40CE490860642003F094F8CA
:1055F00040F2523140F2BE30FFF71CF9962003F022
:105600008BF84FF4617140F2A130FFF721F9C82007
:1056100003F082F810BD10B5C7480088BC49086087
:105620004FF4167003F078F8C4480088BA498863CC
:10563000322003F071F840F2EE20B549091F0860EE
:10564000642003F069F8BE480088B549086064200A
:1056500003F062F840F2EE21BA480088FFF7CEF876
:10566000322003F059F84FF41670AB494863C82054
:1056700003F052F8FFF716F910BD10B5B2480088D4
:10568000A34908604FF4FA7003F046F8AF48008869
:10569000A1498863322003F03FF84FF448709C49D9
:1056A000091F0860642003F037F8322003F034F853
:1056B000A74800889A490860322003F02DF84FF47B
:1056C0004871A4480088FFF799F8642003F024F893
:1056D0004FF4167090494863C82003F01DF8FFF797
:1056E000E1F810BD10B59C480088894908604FF466
:1056F000FA7003F011F899480088874988633220CE
:1057000003F00AF84FF448708149091F08606420CB
:1057100003F002F89248008881490860642002F092
:10572000FBFF40F2EE218F480088FFF7ADF83220F2
:1057300002F0F2FF8C480088774948634FF4967076
:1057400002F0EAFF4FF40B707149091F08604FF433
:10575000967002F0E1FFC82002F0DEFF40F2CB209D
:105760006D494863FA2002F0D7FFFFF756F910BDE4
:1057700010B57E480088664908604FF4FA7002F060
:10578000CBFF7B48008864498863322002F0C4FF65
:105790004FF448705E49091F0860642002F0BCFFA6
:1057A000744800885E490860642002F0B5FF40F24A
:1057B000EE2171480088FFF767F8322002F0ACFF55
:1057C0006E480088544948634FF4967002F0A4FF75
:1057D00040F275204E49091F08604FF4967002F0A0
:1057E0009BFFC82002F098FF40F2CB204A49486353
:1057F000FA2002F091FFFFF710F910BD10B56048D4
:105800000088434908604FF4FA7002F085FF5D4854
:10581000008841498863322002F07EFF4FF44870CF
:105820003B49091F0860642002F076FF5648008853
:105830003B490860642002F06FFF40F2EE215348BC
:105840000088FFF721F8322002F066FF50480088F8
:10585000314948634FF4967002F05EFF4FF41470C4
:105860002B49091F0860C82002F056FF40F2CB20E8
:1058700029494863FA2002F04FFFFFF7CEF810BD28
:1058800010B54448008824494863434800882049AB
:1058900008604FF42F7002F03FFF404800881E4917
:1058A0008863322002F038FF3D4800881849091FFC
:1058B0000860322002F030FF40F22441394800886D
:1058C000FEF7D4FF642002F027FF10BD10B5314869
:1058D000008811494863304800880D4908604FF43A
:1058E0002F7002F019FF2D4800880B498863322081
:1058F00002F012FF2A4800880549091F086032207B
:1059000002F00AFF40F2244126484DE060010020E9
:10591000381800405A010020004001405C0100207E
:10592000344401405E010020680100206201002033
:105930006401002066010020700100206A0100203F
:105940006C0100206E01002078010020720100200F
:105950007401002076010020820100207C010020DB
:105960007E010020800100207A0100208C010020AF
:1059700086010020880100208A0100208401002087
:105980009601002090010020920100209401002047
:105990008E010020000100209E01002098010020BF
:1059A0009C0100209A0100200088FEF75FFF642020
:1059B00002F0B2FE10BD10B51448008814494863C7
:1059C00014480088144908604FF4617002F0A4FE86
:1059D000124800880E498863322002F09DFE10486C
:1059E00000880D49091F0860642002F095FE40F20E
:1059F00024410C480088FEF739FF322002F08CFE6B
:105A000010BD10B5FFF740FA10BD000000010020E6
:105A100000400140AE01002038180040A8010020DD
:105A2000AC010020AA01002030B5014601F01F049E
:105A3000C1F34513CA0AE50205EB43151544A8B2A4
:105A400030BD2DE9F04706460F4690469A460024A1
:105A500045464FEA4800C0F103094AE07A1991B27D
:105A6000321990B2524600F0D7FE7A1991B2321B29
:105A700090B2524600F0D0FE7A1B91B2321990B229
:105A8000524600F0C9FE7A1B91B2321B90B25246C8
:105A900000F0C2FE3A1991B2721990B2524600F06B
:105AA000BBFE3A1991B2721B90B2524600F0B4FE9E
:105AB0003A1B91B2721990B2524600F0ADFE3A1BF9
:105AC00091B2721B90B2524600F0A6FEB9F1000FDF
:105AD00005DA042000FB049000F1060907E0601BD2
