:020000040800F2
:1000000018090020AD6D00087D0B00087F0B00086B
:10001000830B0008870B00088B0B00080000000012
:100020000000000000000000000000008F0B00082E
:10003000910B000800000000930B0008950B0008CE
:10004000C76D0008C76D0008C76D0008C76D0008C0
:10005000C76D0008C76D0008C76D0008C76D0008B0
:10006000C76D0008C76D0008C76D0008C76D0008A0
:10007000C76D0008C76D0008C76D0008C76D000890
:10008000C76D0008C76D0008C76D0008C76D000880
:10009000C76D0008C76D0008C76D0008C76D000870
:1000A000C76D0008C76D0008C76D0008C76D000860
:1000B0002B680008FD680008D1690008C76D0008BA
:1000C000C76D0008C76D0008C76D0008C76D000840
:1000D000C76D0008F1620008B76400089757000870
:1000E000C76D0008C76D0008C76D0008C76D000820
:1000F000C76D0008C76D0008C76D0008C76D000810
:10010000C76D0008C76D00089F6A0008C76D00082A
:10011000C76D0008C76D00087F2800087F6B0008C6
:10012000C76D0008C76D0008C76D0008C76D0008DF
:10013000C76D0008C76D0008C76D0008C76D0008CF
:10014000C76D0008C76D0008C76D0008C76D0008BF
:10015000C76D0008C76D0008C76D0008C76D0008AF
:10016000C76D0008C76D0008C76D0008C76D00089F
:10017000C76D0008C76D0008C76D0008C76D00088F
:10018000C76D0008C76D000800F002F800F072F8B3
:100190000AA090E8000C82448344AAF10107DA45E2
:1001A00001D100F067F8AFF2090EBAE80F0013F0C2
:1001B000010F18BFFB1A43F0010318474CB30000AE
:1001C0006CB300000A444FF0000C10F8013B13F030
:1001D000070408BF10F8014B1D1108BF10F8015BA0
:1001E000641E05D010F8016B641E01F8016BF9D193
:1001F00013F0080F1EBF10F8014BAD1C0C1B09D1EA
:100200006D1E58BF01F801CBFAD505E014F8016B5B
:1002100001F8016B6D1EF9D59142D6D370470000ED
:100220000023002400250026103A28BF78C1FBD8FF
:10023000520728BF30C148BF0B607047662909F0DC
:100240000D85642908F06E83782908F0A783732947
:1002500008F0EA86002070471FB509F0FAFC08F0A4
:10026000F9FE04000020002109F066FCE0601FBDDB
:1002700010B510BD09F00AF81146FFF7EDFF00F0C8
:1002800009F809F028F803B4FFF7F2FF03BC05F002
:10029000CBFF000008B54FF4A06006F0A7FDA82032
:1002A00005F040FF4FF4E13005F0CCFF4FF416505D
:1002B00006F0B3F94FF4E13005F002FA05F013FF50
:1002C00003F027F904F0F3FB04F06EFD04F0CCFF1B
:1002D000532140F2F31006F0E5FC06F047FA06F071
:1002E000B3FA06F01BFB06F083FB42F2CF01962027
:1002F00006F0E4FB05F08DF8002004F0AFFBF748B2
:1003000000234FF6FF7201210090084604F0A1F887
:10031000F3A008F0D1FAB1E31821F44803F0D6FDB8
:10032000F348007801280ED1F248F34909680160CA
:100330000078F249087008460178F1A008F0BCFA8C
:100340000020EB490870ED480078642874D2DFE89B
:1003500000F0323F4C596674818E9B9F73737373A8
:100360007373A3A9AFB7BFF6FEF3F2F173737373A0
:100370007373F0EFEEEDECEBEAE9E8E77373737398
:100380007373E6E573E4E3E2E1E0DF7373737373C1
:100390007373DEDDDCDBDAD9D8D7D6D5737373732C
:1003A0007373D4D3D2D1D0CFCECDCCCB7373737380
:1003B0007373CAC9C8C70020D5490870D54CE37803
:1003C000A2786178207805F0ACF804F0EAFF48E202
:1003D0000020CF490870CF4CE378A278617820786C
:1003E00005F09FF804F0EBFF3BE20020C8490870DD
:1003F000C84CE378A2786178207805F092F804F090
:10040000FAFF2EE20020C2490870C24CE378A278BD
:100410006178207805F085F804F0DFFF21E2002004
:10042000BB490870BB4CE378A2786178207805F06E
:1004300078F805F00AF814E212E20020B4490870D6
:10044000B44CE378A2786178207805F06AF804F07B
:10045000EEFF06E20020AE490870AE4CE378A278C9
:100460006178207805F05DF804F0FDFFF9E10020E7
:10047000A7490870A74CE378A2786178207805F046
:1004800050F804F0FEFFECE10A2005F016F8E8E170
:100490000A2005F02CF8E4E100209D49087004F0E2
:1004A000B8FFDEE100209A49087004F0B2FFD8E1FD
:1004B00002F0F2FA04F0C8FE012095490870D0E17C
:1004C00002F0EAFA04F0C0FE022091490870C8E187
:1004D00002F0E2FA04F0B8FE03208D490870C0E192
:1004E000B6E1ADE1A4E19BE192E189E180E177E150
:1004F0006EE165E15CE153E14AE141E138E12FE180
:1005000026E11DE114E1E0E0D7E0CEE0C5E0BCE08B
:10051000B3E0AAE0A1E098E08FE086E081E07CE033
:1005200073E06AE061E058E053E04EE049E03DE00E
:1005300031E028E023E01AE011E008E0FFE702F0F4
:10054000ABFA04F081FE04207149087089E102F0E1
:10055000A3FA04F079FE05206D49087081E102F0EC
:100560009BFA04F071FE06206949087079E102F0F7
:1005700093FA04F069FE07206549087071E10920CB
:10058000654908706DE102F087FA04F05DFE09200C
:100590005F49087065E105220121002000F066FD39
:1005A00052480069401D514908615AE10522002165
:1005B000084600F05BFD4D480069401F4B4908614B
:1005C0004FE156A005F033FF4BE155A005F02FFF9A
:1005D00047E154A005F02BFF43E102F05DFA04F07F
:1005E00033FE0A204A4908703BE102F055FA04F054
:1005F0002BFE0B204649087033E102F04DFA04F05F
:1006000023FE0C20424908702BE102F045FA04F069
:100610001BFE0D203E49087023E10120424908706D
:100620001FE10020404908701BE102F035FA04F098
:100630000BFE0E203649087013E102F02DFA04F08B
:1006400003FE0F20324908700BE102F025FA04F096
:10065000FBFD10202E49087003E102F01DFA04F0A2
:10066000F3FD11202A490870FBE002F015FA04F0AE
:10067000EBFD142026490870F3E002F00DFA04F0B7
:10068000E3FD152022490870EBE0B7EE000A0122D5
:100690001146104600F088FBE3E0B7EE000A0022A6
:1006A0000121084600F080FBDBE09FED200A0122DB
:1006B0000221104600F078FBD3E09FED1C0A0022D7
:1006C0000221012000F070FBCBE0B7EE000A01220E
:1006D0000321104600F068FBC3E00000D5010020B4
:1006E000B3F5CABCBBAFCDEAB3C90A00980100207C
:1006F0000100002006000020020000201000002061
:10070000CAD5B5BD7531D6B8C1EEA3BA25780A00F1
:10071000F8000020B4010020140000203100000087
:100720003200000033000000B30100200AD7233C50
:10073000B7EE000A00220321012000F035FB90E013
:10074000B7EE000A01221146022000F02DFB88E0DE
:10075000B7EE000A00220121022000F025FB80E014
:100760001FED0E0A01220221084600F01DFB78E071
:100770001FED120A00220221084600F015FB70E06E
:10078000B7EE000A01220321022000F00DFB68E011
:10079000B7EE000A00220321022000F005FB60E012
:1007A000B7EE000A01221146032000F0FDFA58E0DE
:1007B000B7EE000A00220121032000F0F5FA50E014
:1007C0001FED260A01220221032000F0EDFA48E085
:1007D0001FED2A0A00220221032000F0E5FA40E082
:1007E0009FEDA70A01220321084600F0DDFA38E058
:1007F0009FEDA30A00220321084600F0D5FA30E05D
:10080000B7EE000A01221146042000F0CDFA28E0DC
:10081000B7EE000A00220121042000F0C5FA20E012
:100820001FED3E0A01220221042000F0BDFA18E06B
:100830001FED420A00220221042000F0B5FA10E068
:100840009FED8F0A01220321042000F0ADFA08E099
:100850009FED8B0A00220321042000F0A5FA00E09E
:1008600000BF00BF642087490870874800780E28C1
:100870007BD2DFE800F00708121C2E556A7B8A9AAB
:10088000ADC0CDEFF9E002F044FEAFF2701005F01C
:10089000CEFD00207C490870EFE002F08DFEAFF243
:1008A000801005F0C4FD002077490870E5E0774826
:1008B00002F01AF9754802F02DF9744802F040F977
:1008C00002F0EAF803207249087000206E490870AF
:1008D000D3E070A007F0F0FF0121744802F0B9F9ED
:1008E0000121724802F0E4F90121704802F00FFA88
:1008F0006FA007F0E1FF01216C4802F07DFA0121B1
:100900006A4802F0A8FA0121684802F0D3FA02F01E
:10091000C3F804205E49087000205B490870ACE011
:100920006AA007F0C9FF614802F0F3FA5F4802F0DD
:1009300006FB5E4802F019FB02F0AEF805205449B0
:10094000087000205049087097E068A007F0B4FFD5
:1009500002F059FE642005F047FCAFF2382005F0A4
:1009600066FD00204849087087E085E066A007F032
:10097000A3FF6D4802F0FAF802F08EF80620444911
:10098000087000204049087077E068A007F094FFE5
:100990004FF439706B49486302F07EF807203C49F8
:1009A000087000203849087067E067A007F084FFEE
:1009B00002F09BFB02F0F5FB5B4802F0EBF802F063
:1009C0006BF808203249087000202F49087054E065
:1009D00063A007F071FF02F088FB02F037FC524879
:1009E00002F002F902F058F80820294908700020A6
:1009F0002549087041E002F078FB02F05AFC02F051
:100A00004BF80A202249087000201F49087034E082
:100A10000221264802F01DF90221244802F048F97B
:100A20000221224802F073F90221204802F0E4F981
:100A300002211E4802F00FFA02211C4802F03AFA85
:100A400002F02AF80B201249087000200E490870A5
:100A500013E0FFE7154802F09EFA144802F0B1FADD
:100A6000124802F0C4FA02F017F80C200849087086
:100A700000200549087000E000BF00BF4CE4000002
:100A8000CDCCCC3D1000002014000020CD01002072
:100A9000F8000020BBFAD0B5B1DBC4A3CABD5BB57A
:100AA000DAD2BBB4CEB7C5D6C35D0000D5010020F5
:100AB000BBFAD0B5B1DBC4A3CABD5BD6D8D0C2D710
:100AC000A5C8A1CEEFC1CF5D00000000BBFAD0B534
:100AD000B1DBC4A3CABD5BB0EBB3C9C6B7C7F8CF1F
:100AE000C2B2E3B7C5D6C35D00000000BBFAD0B503
:100AF000B1DBC4A3CABD5BC9A8C3E8CFC2B2E3CE11
:100B0000EFC1CF5D00000000BBFAD0B5B1DBC4A3DC
:100B1000CABD5BD7BCB1B8B5DAD2BBB4CED7A5C815
:100B2000A1CFC2B2E35D0000D1010020BBFAD0B575
:100B3000B1DBC4A3CABD5BD7A6D7D3B1D5BACF5D4D
:100B40000000000000400140BBFAD0B5B1DBC4A3F7
:100B5000CABD5BBBFAD0B5B1DBCAD5BBD85D00005E
:100B6000BBFAD0B5B1DBC4A3CABD5BD7BCB1B8B5C5
:100B7000DAB6FEB4CED7A5C8A15D0000704700BFAD
:100B8000FEE700BFFEE700BFFEE700BFFEE77047DD
:100B900070477047704700000CB50020019000902E
:100BA0007648006840F480307449086000BF73489C
:100BB000006800F4003000900198401C01900098FB
:100BC00018B90198B0F5A04FF1D16C48006800F455
:100BD000003010B10120009001E00020009000984A
:100BE000012846D165484030006840F08050634994
:100BF000403108606248006840F440406049086045
:100C00005E48083000685D490831086008460068A1
:100C100040F4004008600846006840F4A0500860B6
:100C20005848091F0860081F006840F08070091FBD
:100C3000086000BF5148006800F000700028F9D03B
:100C400040F20570504908604C480830006820F0B8
:100C500003004A49083108600846006840F0020075
:100C6000086000BF45480830006800F00C00082804
:100C7000F8D10CBD10B54548006840F470004349F8
:100C800008603E48006840F001003C4908600020D0
:100C90003A4908310860394800683D4908403749F9
:100CA00008603C48091D0860081F006820F4802087
:100CB000091F0860002031490C310860FFF76CFF04
:100CC0004FF0006031498039086010BD70B50020D8
:100CD0000022022300240221284D08352D6805F04A
:100CE0000C0020B1042806D0082834D107E02A4D92
:100CF0002A4E356033E02A4D284E35602FE01F4DD7
:100D00002D1D2D68C5F380541C4D2D1D2D6805F03B
:100D10003F0154B1224DB5FBF1F5184E361D366832
:100D2000C6F3881605FB06F209E01B4DB5FBF1F58D
:100D3000124E361D3668C6F3881605FB06F20F4DB7
:100D40002D1D2D68C5F301456D1C6B00B2FBF3F53D
:100D5000124E356003E0104D104E356000BF00BFED
:100D6000064D08352D68C5F303150E4E705D0B4D0D
:100D70002D68C540094E356070BD00000038024046
:100D80000070004008544007003C024088ED00E03D
:100D9000FFFFF6FE103000240024F40018000020AD
:100DA00000127A001C00002070B52DED088B84B075
:100DB00006460C461546B0EE408A012E06D0022E9D
:100DC0003BD0032E72D0042E6FD1A6E0012C0FD1A0
:100DD0003DB1F84890ED000A30EE080A80ED000AB7
:100DE00006E0F44890ED000A30EE480A80ED000A73
:100DF000022C0FD13DB1F04890ED000A30EE080A08
:100E000080ED000A06E0EC4890ED000A30EE480A5A
:100E100080ED000A032C0FD13DB1E84890ED000AA7
:100E200030EE080A80ED000A06E0E44890ED000A82
:100E300030EE480A80ED000AA7E0012C0FD13DB149
:100E4000DF4890ED000A30EE080A80ED000A06E067
:100E5000DB4890ED000A30EE480A80ED000A022CD3
:100E60000FD13DB1D74890ED000A30EE080A80ED71
:100E7000000A06E0D34890ED000A30EE480A80ED03
:100E8000000A032C0FD13DB1CF4890ED000A30EE9F
:100E9000080A80ED000A06E0CB4890ED000A30EE2B
:100EA000480A80ED000A70E000E06DE0012C0FD1EF
:100EB0003DB1C64890ED000A30EE080A80ED000A08
:100EC00006E0C24890ED000A30EE480A80ED000AC4
:100ED000022C0FD13DB1BE4890ED000A30EE080A59
:100EE00080ED000A06E0BA4890ED000A30EE480AAC
:100EF00080ED000A032C0FD13DB1B64890ED000AF9
:100F000030EE080A80ED000A06E0B24890ED000AD3
:100F100030EE480A80ED000A37E0012C0FD13DB1D8
:100F2000AD4890ED000A30EE080A80ED000A06E0B8
:100F3000A94890ED000A30EE480A80ED000A022C24
:100F40000FD13DB1A54890ED000A30EE080A80EDC2
:100F5000000A06E0A14890ED000A30EE480A80ED54
:100F6000000A032C0FD13DB19D4890ED000A30EEF0
:100F7000080A80ED000A06E0994890ED000A30EE7C
:100F8000480A80ED000A00E000BF00BF8B480068FF
:100F900008F0EEFD41EC190B8748006808F0E8FD09
:100FA00041EC1A0B8348006808F0E2FD41EC1B0B92
:100FB0008DED029B8DED00AB53EC1B2B89A007F050
:100FC0007BFC8148006808F0D3FD41EC190B7D489B
:100FD000006808F0CDFD41EC1A0B7948006808F074
:100FE000C7FD41EC1B0B8DED029B8DED00AB53EC6F
:100FF0001B2B7CA007F060FC7648006808F0B8FD69
:1010000041EC190B7248006808F0B2FD41EC1A0B74
:101010006E48006808F0ACFD41EC1B0B8DED029BA7
:101020008DED00AB53EC1B2B6EA007F045FC6C481C
:10103000006808F09DFD41EC190B6848006808F055
:1010400097FD41EC1A0B6448006808F091FD41ECF3
:101050001B0B8DED029B8DED00AB53EC1B2B67A0A2
:1010600007F02AFC04B0BDEC088B70BD052878D2CF
:10107000DFE800F0035E7891E40061BB654BD3EDDF
:10108000000A00EE102AB8EE400A30EEC00A83EDE6
:10109000000A614BD3ED000A00EE102AB8EE400AB8
:1010A00030EEC00A83ED000A5C4BD3ED000A00EE7F
:1010B000102AB8EE400A30EEC00A83ED000A584B01
:1010C000D3ED000A00EE102AB8EE400A30EEC00A56
:1010D00083ED000A2BE04F4BD3ED000A00EE102AFF
:1010E000B8EE400A30EE800A83ED000A4A4BD3ED99
:1010F000000A00EE102AB8EE400A30EE800A83EDB6
:10110000000A464BD3ED000A00EE102AB8EE400A62
:1011100030EE800A83ED000A414BD3ED000A00EE69
:10112000102AB8EE400A30EE800A83ED000A9FE0F4
:1011300059B9384BD3ED000A00EE102AB8EE400A38
:1011400030EEC00A83ED000A0AE0324BD3ED000A0C
:1011500000EE102AB8EE400A30EE800A83ED000A55
:1011600086E084E059B92C4BD3ED000A00EE102A3A
:10117000B8EE400A30EEC00A83ED000A0AE0264BC2
:10118000D3ED000A00EE102AB8EE400A30EE800AD5
:1011900083ED000A6CE059B9204BD3ED000A00EE54
:1011A000102AB8EE400A30EEC00A83ED000A44E08F
:1011B00038E0000044000020480000204C000020DF
:1011C0005000002054000020580000205C00002047
:1011D0006000002064000020680000206C000020F7
:1011E000700000205B25302E31662025302E3266BF
:1011F0002025302E31665D09000000005B25302E71
:1012000031662025302E32662025302E31665D0A6B
:1012100000000000740000207C00002084000020FA
:101220008C000020FE4BD3ED000A00EE102AB8EE31
:10123000400A30EE800A83ED000A19E059B9F94BF3
:10124000D3ED000A00EE102AB8EE400A30EEC00AD4
:1012500083ED000A0AE0F34BD3ED000A00EE102AFA
:10126000B8EE400A30EE800A83ED000A00E000BFCD
:1012700000BF7047052835D2DFE800F003141C24B6
:101280002C0000EE101AB8EE400AE64A82ED000A81
:10129000E34A82ED000AE44A82ED000AE34A82ED65
:1012A000000A20E000EE101AB8EE400ADF4A82ED94
:1012B000000A18E000EE101AB8EE400ADA4A82ED91
:1012C000000A10E000EE101AB8EE400AD44A82ED8F
:1012D000000A08E000EE101AB8EE400AD14A82ED8A
:1012E000000A00E000BF00BF7047D148007800F05E
:1012F000800060B3CE48007800F07F0000EE100A56
:10130000B8EEC00AC94880ED000AC948007800F06C
:101310007F0000EE100AB8EEC00AC34880ED000A54
:10132000C348007800F07F0000EE100AB8EEC00A53
:10133000BB4880ED000ABE48007800F07F0000EE58
:10134000100AB8EEC00AB74880ED000A13E0B3EE09
:101350000E0AB64880ED000AB3EE0E0AB24880EDE0
:10136000000AB3EE0E0AAE4880ED000AB3EE0E0A94
:10137000AC4880ED000A704700B50146AC480078E3
:101380000843AB4A10701046007840F0800010709F
:10139000FFF7ABFF00BD012806D002282DD003289F
:1013A00054D004287BD17BE091ED000AB8EEC00A4E
:1013B000A04AD2ED000AB4EEE00AF1EE10FA05DD23
:1013C00092ED000ABDEEC00A81ED000A91ED000A1F
:1013D000B8EEC00A974AD2ED000AF1EE600AB4EE08
:1013E000E00AF1EE10FA07D292ED000AB1EE400ADF
:1013F000BDEEC00A81ED000A7CE091ED000AB8EE76
:10140000C00A8D4AD2ED000AB4EEE00AF1EE10FAFD
:1014100005DD92ED000ABDEEC00A81ED000A91EDF6
:10142000000AB8EEC00A844AD2ED000AF1EE600A62
:10143000B4EEE00AF1EE10FA07D292ED000AB1EE36
:10144000400ABDEEC00A81ED000A53E091ED000AAA
:10145000B8EEC00A794AD2ED000AB4EEE00AF1EE25
:1014600010FA05DD92ED000ABDEEC00A81ED000A1A
:1014700091ED000AB8EEC00A704AD2ED000AF1EE12
:10148000600AB4EEE00AF1EE10FA07D292ED000A1B
:10149000B1EE400ABDEEC00A81ED000A2AE028E064
:1014A00091ED000AB8EEC00A654AD2ED000AB4EE2A
:1014B000E00AF1EE10FA05DD92ED000ABDEEC00A79
:1014C00081ED000A91ED000AB8EEC00A5C4AD2ED47
:1014D000000AF1EE600AB4EEE00AF1EE10FA07D26B
:1014E00092ED000AB1EE400ABDEEC00A81ED000A9D
:1014F00000E000BF00BF704708B5F0EE401A4B484F
:1015000090ED000A31EEC00AB0EE401A4D4890ED61
:10151000000A31EE400AB0EE402A9FED4B0A4B48DC
:1015200080ED000A4A4890ED000A30EE010A80ED95
:10153000000A90ED000ADFED470AB4EEE00AF1EE92
:1015400010FA03D29FED430A80ED000A404890ED67
:10155000000ADFED410AB4EEE00AF1EE10FA03DD15
:101560009FED3D0A80ED000A394890ED000A3B48A6
:10157000D0ED000A20EE200A394880ED000A3948F3
:1015800090ED000A60EE010AF2EE042A80EEA20A53
:101590003548D0ED000A60EE820AF2EE042A80EEB1
:1015A000A23A30EE030A2E48D0ED000A30EE200AAF
:1015B000BDEEC00A8DED000A224880ED001A694692
:1015C0000120FFF7E8FE009808BD08B5F0EE401ACC
:1015D000154890ED000A31EEC00AB0EE401A2348DB
:1015E00090ED000A31EE400AB0EE402A9FED160A57
:1015F0001F4880ED000A1F4890ED000A30EE010AF6
:1016000080ED000A90ED000ADFED120AB4EEE00A68
:10161000F1EE10FA03D29FED0F0A80ED000A2BE0E5
:10162000840000208C0000207C000020740000203A
:101630009400002078000020800000208800002016
:10164000900000209800002000000000A40000206E
:101650009C000020000048C20000484248000020D2
:10166000A0000020440000204C000020A800002022
:10167000B4000020AC000020FD4890ED000A5FEDB2
:101680000A0AB4EEE00AF1EE10FA03DD1FED0E0ACD
:1016900080ED000AF64890ED000AF648D0ED000A09
:1016A00020EE200AF44880ED000AF44890ED000A8C
:1016B00060EE010AF2EE042A80EEA20AF048D0EDB4
:1016C000000A60EE820AF2EE042A80EEA23A30EEC0
:1016D000030AE948D0ED000A30EE200ABDEEC00A48
:1016E0008DED000AE74880ED001A69460220FFF7F9
:1016F00052FE009808BD08B5F0EE401AE24890EDA1
:10170000000A31EEC00AB0EE401AE04890ED000A3F
:1017100031EE400AB0EE402A1FED350ADC4880ED7C
:10172000000ADC4890ED000A30EE010A80ED000A64
:1017300090ED000A5FED390AB4EEE00AF1EE10FA1E
:1017400003D21FED3C0A80ED000AD24890ED000A5A
:101750005FED3F0AB4EEE00AF1EE10FA03DD1FED93
:10176000420A80ED000ACB4890ED000ACA48D0ED4D
:10177000000A20EE200AC94880ED000AC84890ED12
:10178000000A60EE010AF2EE042A80EEA20AC548C1
:10179000D0ED000A60EE820AF2EE042A80EEA23A50
:1017A00030EE030ABD48D0ED000A30EE200ABDEE4F
:1017B000C00A8DED000AB54880ED001A6946032085
:1017C000FFF7E9FD009808BD08B5F0EE401AB648ED
:1017D00090ED000A31EEC00AB0EE401AB34890ED29
:1017E000000A31EE400AB0EE402A1FED690AB04807
:1017F00080ED000AAF4890ED000A30EE010A80ED5E
:10180000000A90ED000A5FED6D0AB4EEE00AF1EE19
:1018100010FA03D21FED710A80ED000AA54890ED81
:10182000000A5FED730AB4EEE00AF1EE10FA03DD90
:101830001FED770A80ED000A9E4890ED000A9E4851
:10184000D0ED000A20EE200A9C4880ED000A9C485A
:1018500090ED000A60EE010AF2EE042A80EEA20A80
:101860009848D0ED000A60EE820AF2EE042A80EE7B
:10187000A23A30EE030A9148D0ED000A30EE200A79
:10188000BDEEC00A8DED000A884880ED001A694659
:101890000420FFF780FD009808BDF0EE400A8A4959
:1018A000097801EE901AF8EE611A70EEE11AB0EEC6
:1018B000610A8649D1ED001A70EE611AB0EE611A24
:1018C0008349D1ED001AB7EE002A71EE821AC1EDFC
:1018D000001AB3EE0E2AF4EEC21AF1EE10FA30DD61
:1018E0005FEDA71AC1ED001A7A49D1ED001A71EE29
:1018F000801AC1ED001AD1ED001A9FED772AF4EE9F
:10190000C21AF1EE10FA03D2DFED731AC1ED001A1C
:101910007049D1ED001A9FED712AF4EEC21AF1EE72
:1019200010FA03DDDFED6D1AC1ED001A6949D1ED42
:10193000001A6B4991ED002A61EE821A6949C1EDE6
:10194000001A6949D1ED001A21EE802ADFED672ADD
:10195000C2EE221A664991ED002A22EE012AF2EE29
:10196000042A82EE223A71EE831A5E4991ED002A32
:1019700071EE821AFDEEE11A11EE900A534981EDE3
:10198000000A7047F0EE400A4F49097801EE901ABC
:10199000F8EE611A70EEE11AB0EE610A5549D1ED28
:1019A000001A70EE611AB0EE611A5349D1ED001AB7
:1019B000B7EE002A71EE821AC1ED001AB3EE0E2ABC
:1019C000F4EEC21AF1EE10FA30DD5FEDE11AC1ED6E
:1019D000001A4A49D1ED001A71EE801AC1ED001AC1
:1019E000D1ED001A9FED3C2AF4EEC21AF1EE10FA86
:1019F00003D2DFED391AC1ED001A4049D1ED001ACA
:101A00009FED362AF4EEC21AF1EE10FA03DDDFED97
:101A1000331AC1ED001A3949D1ED001A384991ED58
:101A2000002A61EE821A3749C1ED001A3649D1ED1C
:101A3000001A21EE802ADFED2D2AC2EE221A334948
:101A400091ED002A22EE012AF2EE042A82EE223AD9
:101A500071EE831A2B4991ED002A71EE821AFDEE88
:101A6000E11A11EE900A234981ED000A7047000047
:101A7000AC00002054000020B000002050000020E6
:101A800058000020A800002084000020B80000209A
:101A9000C4000020BC00002060000020C000002026
:101AA0005C000020640000208C000020C8000020A2
:101AB000D4000020CC0000206C000020D0000020CA
:101AC000680000207000002095000020D800002051
:101AD000E4000020DC0000200000FAC30000FA430C
:101AE00030000020E00000202C0000200000C84250
:101AF00034000020E8000020F4000020EC0000206A
:101B00003C000020F00000203800002040000020B1
:101B100010B5022003F016F9041E01DB204600E098
:101B20006042FE490860032003F00CF9041E01DB4B
:101B3000204600E06042F9494860042003F002F9C1
:101B4000041E01DB204600E06042F4498860052065
:101B500003F0F8F8041E01DB204600E06042EF4984
:101B6000C860EF48007800287BD1EE480078012853
:101B700036D1EDA006F0A0FEE848D0ED000AF8EE60
:101B8000E00AB0EE600AFFF7B7FC4042E94908609E
:101B9000E248D0ED010AF8EEE00AB0EE600AFFF785
:101BA00014FD4042E349091D0860DC48D0ED020AFB
:101BB000F8EEE00AB0EE600AFFF79DFD4042DD4915
:101BC0000C310860D548D0ED030AF8EEE00AB0EE1B
:101BD000600AFFF7F9FD4042D649083108603AE053
:101BE000CE48D0ED000AF8EEE00AB0EE600AFFF74A
:101BF00083FCD14909780844CE490860C748D0ED34
:101C0000010AF8EEE00AB0EE600AFFF7DEFCCA490E
:101C100049780844C749091D0860C048D0ED020A48
:101C2000F8EEE00AB0EE600AFFF765FDC249897878
:101C30000844C0490C310860B848D0ED030AF8EEFA
:101C4000E00AB0EE600AFFF7BFFDBB49C97808445F
:101C5000B84908310860B748083000686438AF49AF
:101C6000486110BD10B504460B2C78D2DFE804F0B3
:101C70007706111B25303D4A57646E0003F091FB37
:101C80000020AE4908700120AD49087003F07CF9CE
:101C900066E003F094FB0220A8490870A849087088
:101CA00003F072F95CE003F0A6FB0320A34908707F
:101CB000A349087003F068F952E003F08EFB01209D
:101CC0009E49087004209E49087003F05DF947E0C2
:101CD000002003F0E6FA022003F003FB022003F0E9
:101CE00020FB022003F03DFB3AE0022003F0D9FA8A
:101CF000002003F0F6FA022003F013FB022003F0A9
:101D000030FB2DE0022003F0CCFA022003F0E9FAC8
:101D1000002003F006FB022003F023FB20E002205A
:101D200003F0BFFA022003F0DCFA022003F0F9FA14
:101D3000002003F016FB13E003F033FB0020794989
:101D400008701E20FFF718FB0AE008E003F037FBDD
:101D50000120744908700020FFF70EFB00E000BF6F
:101D600000BFFFF7D5FE10BD10B5044603F049F8DB
:101D70007449088003F06BF87349088003F08AF80F
:101D80007249088003F0AAF8714908800A20FFF719
:101D9000F3FA002C69D16B48008840F2E93188429F
:101DA00010D16948008888420CD168480088884270
:101DB00008D167480088884204D103F02AFB03F069
:101DC00043FA52E05F48008840F25641884205D00D
:101DD0005C48008840F24C41884224D15A4800882F
:101DE00040F25641884205D05748008840F24C41A5
:101DF000884218D15548008840F25641884205D0A3
:101E00005248008840F24C4188420CD1504800882A
:101E100040F25641884203D04D4800880B2802D139
:101E200003F02FFB21E0474800886F2803D0454886
:101E300000880B2819D1444800886F2803D04248F5
:101E400000880B2811D1414800886F2803D03F48F3
:101E500000880B2809D13E4800886F2803D03C48F1
:101E600000880B2801D103F00CFB012C38D1354838
:101E7000008840F2E931884207D13348008820B910
:101E800003F0C7FA03F0E0F92AE02F48008840F297
:101E90005641884205D02C48008840F24C41884287
:101EA0000CD12B48008840F25641884203D0284884
:101EB00000880B2802D103F0E4FA11E022480088E0
:101EC0006F2803D0204800880B2809D120480088BB
:101ED0006F2803D01E4800880B2801D103F0D1FAE7
:101EE00010BD10B502F08DFF1649088002F0AFFF5B
:101EF000154908801748007870B90F20FFF73CFAA1
:101F000003F079FA03200D4908700D490870114853
:101F10000078401C0F4908701EE000009801002066
:101F2000B301002004010020CDA3B3B5C4A3CABDF2
:101F30000000000034040140B4010020B001002082
:101F4000B1010020FC000020FE0000200001002064
:101F500002010020F900002003F016F8FE48008876
:101F600040F2E931884203D0FB4800880B281AD19F
:101F7000FA480078012816D1F8480078401CF74943
:101F8000087003F046FA03F05FF90020F449087086
:101F9000FFF7ABF90020F3490870F348007810B957
:101FA0000920F2490870FFF7B3FD10BD10B502F02B
:101FB00028FFE949088002F04AFFED490880E74818
:101FC000007878B90F20FFF7D7F903F006FA01205F
:101FD000E84908700420E8490870E0480078401C8F
:101FE000DE49087002F0D0FFE1480088D0B9DB4834
:101FF0000078012816D1D9480078401CD7490870CC
:1020000003F007FA03F020F90020D5490870FFF724
:102010006CF90020D3490870D348007810B9082023
:10202000D2490870FFF774FD10BD10B502F0E9FE4B
:10203000C949088002F00BFFCD490880C7480078E5
:1020400050B903F0CAF90120CA4908700420CA49EE
:1020500008700120C149087002F096FFBE48008850
:1020600040F2E931884208D1BC480078012804D107
:10207000BA480078401CB9490870B748008840F257
:102080005641884208D1B5480078022804D1B348A7
:102090000078401CB1490870AF48008840F2E9312F
:1020A000884208D1AD480078032804D1AB480078B5
:1020B000401CAA490870A848008840F2564188424E
:1020C00008D1A6480078042804D1A4480078401C10
:1020D000A2490870A048008840F2E931884208D13E
:1020E0009E480078052804D19C480078401C9B49F4
:1020F00008709948008840F25641884208D19748B4
:102100000078062804D195480078401C934908704F
:102110009148008840F2E931884208D18F48007820
:10212000072804D18D480078401C8C4908708A48E3
:10213000008840F2564188420BD188480078082830
:1021400007D11920FFF718F984480078401C83490B
:1021500008708148008840F2E93188421CD17F48EC
:102160000078092818D103F01CF900208349087071
:102170008049087001208049087000207849087063
:10218000FFF7B3F875480078401C744908707C4824
:1021900000780B307A49087079480078002808DD0B
:1021A0006E4800780A2804D175480078401E7449AA
:1021B00008707348007840B9684800780A2804D14C
:1021C00066480078401C654908706948008840F2FC
:1021D000E931884208D1614800780B2804D15F4872
:1021E0000078401C5D4908706148008840F2564103
:1021F00088420BD1594800780C2807D157480078FD
:10220000401C564908700C20FFF7B6F85848008863
:1022100040F2E93188421AD1504800780D2816D191
:102220004E480078401C4D49087003F0F2F803F066
:102230000BF800204A490870FFF757F80020494979
:1022400008704948007810B9062048490870FFF71F
:102250005FFC10BD10B502F0D4FD3F49088002F0CC
:10226000F6FD4349088002F039FE464908803B48A4
:10227000007870B903F0A3F802203E4908703E4987
:10228000087000203D49087034480078401C3349EC
:10229000087002F079FE3648008840F2E931884241
:1022A00008D12E480078012804D12C480078401C21
:1022B0002A4908702E48008840F25641884208D1C9
:1022C00026480078022804D124480078401C23497D
:1022D00008702748008840F2E931884208D11F4839
:1022E0000078032804D11D480078401C1B49087061
:1022F0001F48008840F25641884208D117480078AC
:10230000042804D115480078401C1449087012486C
:10231000008840F2E931884205D00F48008840F239
:102320005641884231D10D48007805282DD10F2023
:10233000FFF722F803F05FF800201049087003202F
:102340000C4908700C4908700F200D4908700348AB
:102350000078401C014917E0FC000020F900002033
:1023600094000020F8000020050100201400002047
:10237000FE000020B0010020B1010020B2010020C9
:10238000FA000020020100200870FE4800780028B2
:1023900008DDFD480078062804D1FA480078401E80
:1023A000F8490870F748007840B9F74800780628DF
:1023B00004D1F5480078401CF3490870F3480088C0
:1023C00040F2E931884208D1EF480078072804D16B
:1023D000ED480078401CEC490870EC48008840F259
:1023E0005641884208D1E8480078082804D1E648D8
:1023F0000078401CE4490870E448008840F2E93164
:10240000884208D1E0480078092804D1DE480078E5
:10241000401CDD490870DD48008840F25641884282
:1024200008D1D94800780A2804D1D7480078401C40
:10243000D5490870D6480088D0B9D34800780B2811
:1024400016D1D1480078401CCF49087002F0E1FF56
:1024500002F0FAFE0020CF490870FEF746FF002088
:10246000CD490870CD48007810B90520CC490870D6
:10247000FFF74EFB10BD10B502F0C3FCC349088046
:1024800002F0E5FCC7490880BF48007870B9192000
:10249000FEF772FF02F0AFFF0320C3490870C34983
:1024A0000870B9480078401CB749087002F06CFD0C
:1024B000B648008840F2E93188420DD1B248007830
:1024C000012809D1B0480078401CAF4908700020AD
:1024D000B0490870FEF709FFAC48008840F2564149
:1024E000884208D1A8480078022804D1A64800787C
:1024F000401CA5490870A548008840F2E93188428F
:1025000008D1A1480078032804D19F480078401CD6
:102510009D4908709D48008840F25641884208D184
:1025200099480078042804D197480078401C9649BF
:1025300008709648008840F2E931884216D19248E6
:102540000078052812D10C20FEF716FF02F029FFB3
:102550000020954908700120944908700020944992
:10256000087089480078401C8749087087480088AF
:10257000D0B985480078062816D183480078401CD9
:102580008149087002F045FF02F05EFE002081499B
:102590000870FEF7AAFE00207F4908707F48007887
:1025A00010B904207E490870FFF7B2FA10BD10B5CB
:1025B00002F027FC7549088002F049FC794908803F
:1025C0007148007848B902F0ECFE002076490870A6
:1025D0000120764908706C49087002F0D5FC7148FA
:1025E000008840F2E931884208D167480078012824
:1025F00004D165480078401C634908706948008828
:1026000040F25641884208D15F480078022804D140
:102610005D480078401C5C4908706248008840F2C0
:10262000E931884208D158480078032804D1564837
:102630000078401C544908705A48008840F25641BE
:10264000884208D150480078042804D14E480078C8
:10265000401C4D4908705348008840F2E9318842D7
:1026600008D149480078052804D147480078401C23
:10267000454908704B48008840F2564188420BD1CA
:1026800041480078062807D13F480078401C3E4961
:1026900008700F20FEF770FE4248008840F2E931D2
:1026A000884203D03F4800880B2812D13648007872
:1026B00007280ED10A20FEF75FFE02F09CFE0320E1
:1026C00039490870394908702F480078401C2E4954
:1026D0000870FFF71DFA33480088D0B92A480078FF
:1026E000082816D128480078401C2749087002F0B5
:1026F00090FE02F0A9FD002026490870FEF7F5FDC6
:102700000020254908702548007810B90220244986
:10271000087010BD10B502F074FB1C49088002F06F
:1027200096FB204908801848007848B90F20FEF72A
:1027300023FE02F08AFE14480078401C12490870FB
:102740001248008840F2E931884217D10E480078DB
:10275000012813D102F025FE00200E490870FEF773
:10276000C4FD0020124908700F49087001200F496C
:10277000087005480078401C0349087002F004FC0A
:10278000084817E0FA000020F9000020FC000020B3
:102790000201002094000020F80000200501002024
:1027A00014000020FE000020B0010020B101002034
:1027B000B2010020008840F2E931884207D1F9488F
:1027C000007820B9F7480078401CF6490870F648B0
:1027D000008840F25641884208D1F248007801282A
:1027E00004D1F0480078401CEE490870EE4800889B
:1027F00040F2E931884208D1EA480078022804D141
:10280000E8480078401CE7490870E748008840F233
:10281000564188420FD1E348007803280BD1E349A1
:102820000870E0480078401CDE490870E0480078F5
:10283000401CDF490870DD480078002808DDDC48CE
:102840000078032804D1D9480078401ED749087081
:10285000D648007880B9D648007803280CD102F019
:10286000D8FD0020D3490870CE490870D2480078BE
:1028700010B90120D1490870FFF74AF910BD10B511
:102880000121CF4805F0FBFB002859D0C94800784A
:1028900016284FD2DFE800F00B0C0F1215181B1E84
:1028A0002122262A2E32363A3E424E4E464A42E0F7
:1028B000FFF730FF3FE0FFF77AFE3CE0FFF7DBFD7C
:1028C00039E0FFF7C7FC36E0FFF7AFFB33E0FFF777
:1028D0006DFB30E0FFF705FB2DE02CE00020FFF75B
:1028E00043FA28E00120FFF7BDF924E00220FFF7BA
:1028F000B9F920E00320FFF7B5F91CE00420FFF749
:10290000B1F918E00520FFF7ADF914E00620FFF754
:10291000A9F910E00720FFF7A5F90CE00820FFF760
:10292000A1F908E00920FFF79DF904E00A20FFF76C
:1029300099F900E000BF00BF0121A14805F0B0FBFC
:1029400010BD10B502F05DFA9E49088002F07FFAD2
:10295000954908809648007850B902F030FD002073
:10296000994908700220994908700120904908701F
:1029700002F00AFB8C48008840F2E931884206D117
:102980008B480078012802D10220894908708648C6
:10299000008840F25641884206D1854800780228D6
:1029A00002D10320824908707F48008840F2E93153
:1029B000884206D17E480078032802D104207C4951
:1029C00008707948008840F25641884206D178481C
:1029D0000078042802D105207549087072480088E3
:1029E00040F2E93188420ED17148007805280AD1B9
:1029F00002F0F3FC01207449087004207349087048
:102A000006206B4908706F48008840F2E93188421F
:102A100006D167480078072802D108206449087069
:102A20006848008840F25641884206D160480078E4
:102A3000082802D109205E4908706248008840F2E7
:102A4000E931884206D15A480078092802D10A2083
:102A5000574908705B48008840F25641884206D1C9
:102A6000534800780A2802D10B2051490870554874
:102A7000008840F2E93188420DD14D4800780B289A
:102A800009D102F0C6FC02F0DFFB002049490870C2
:102A90000C204749087010BD0020454908700A20E5
:102AA00042490870704770B50546002419E0285D5A
:102AB000312804D0322807D033280FD109E000F0A4
:102AC000C9FD00F06EFB0AE000F0F9FD00F0BEFB6E
:102AD00005E000F029FE00F0ECFB00E000BF00BFC5
:102AE000641C032CE3DB70BD10B50446207831284C
:102AF00002D100F0AFFD0AE02078322802D100F0C8
:102B0000DEFD04E02078332801D100F00DFE00F056
:102B100048FB10BD10B504466078312802D100F0A2
:102B200099FD0AE06078322802D100F0C8FD04E087
:102B30006078332801D100F0F7FD00F087FB10BD6D
:102B400010B50446A078312802D100F083FD0AE0D8
:102B5000A078322802D100F0B2FD04E0A07833283A
:102B600001D100F0E1FD00F0A4FB10BD10B504465A
:102B70002079312802D100F00AFE0AE020793228BB
:102B800002D100F02EFE04E02079332801D100F0BC
:102B900052FE10BD10B504466079312818D100F0FE
:102BA000F6FD20E006010020FE000020FA000020D3
:102BB000F9000020F800002005010020140000208A
:102BC00000100040FC000020B0010020B1010020F6
:102BD0006079322802D100F004FE04E060793328E5
:102BE00001D100F028FE10BD10B50446A0793128AF
:102BF00002D100F0CCFD0AE0A079322802D100F029
:102C0000F0FD04E0A079332801D100F014FE10BDDE
:102C100070B50546052419E0285D312804D0322816
:102C200007D033280FD109E000F0B1FD00F0B9FA68
:102C30000AE000F0D6FD00F009FB05E000F0FBFD26
:102C400000F037FB00E000BF00BF641C082CE3DB92
:102C500070BD70B504460D46012D13D100F05CFB2C
:102C60002078312802D100F07DFE20E02078322843
:102C700002D100F0ABFE1AE02078332817D100F023
:102C80003DFE14E0022D12D100F046FB20793128E0
:102C900002D100F067FE0AE02079322802D100F06C
:102CA00095FE04E02079332801D100F027FE70BDA5
:102CB00070B504460D46012D13D100F080FB6078FD
:102CC000312802D100F04EFE20E06078322802D197
:102CD00000F07CFE1AE06078332817D100F00EFE79
:102CE00014E0022D12D100F06AFB6079312802D184
:102CF00000F038FE0AE06079322802D100F066FE6A
:102D000004E06079332801D100F0F8FD70BD70B5A2
:102D100004460D46012D13D100F0A3FBA078312805
:102D200002D100F01FFE20E0A078322802D100F08E
:102D30004DFE1AE0A078332817D100F0DFFD14E033
:102D4000022D12D100F08DFBA079312802D100F0C4
:102D500009FE0AE0A079322802D100F037FE04E033
:102D6000A079332801D100F0C9FD70BD70B50546CA
:102D70000E460024012E1ED100BF19E0285D312827
:102D800004D0322807D033280FD109E000F0C4FA6C
:102D900000F0E8FD0AE000F012FB00F017FE05E08D
:102DA00000F05FFB00F0AAFD00E000BF00BF641C64
:102DB000032CE3DB1FE0022E1DD1042419E0285D63
:102DC000312804D0322807D033280FD109E000F091
:102DD000A3FA00F0C7FD0AE000F0F1FA00F0F6FDFA
:102DE00005E000F03EFB00F089FD00E000BF00BF01
:102DF000641C072CE3DB70BD70B504460D46012D45
:102E000013D12078312802D100F04AFE0AE0207860
:102E1000322802D100F078FE04E02078332801D176
:102E200000F00BFE00F0BDF914E0022D12D1207964
:102E3000312802D100F034FE0AE02079322802D194
:102E400000F062FE04E02079332801D100F0F5FDA6
:102E500000F0A7F970BD70B504460D46012D13D1E1
:102E60006078312802D100F01BFE0AE06078322839
:102E700002D100F049FE04E06078332801D100F06F
:102E8000DCFD00F0E3F914E0022D12D16079312865
:102E900002D100F005FE0AE06079322802D100F08C
:102EA00033FE04E06079332801D100F0C6FD00F064
:102EB000CDF970BD70B504460D46012D13D1A07833
:102EC000312802D100F0ECFD0AE0A078322802D1CE
:102ED00000F01AFE04E0A078332801D100F0ADFD27
:102EE00000F0E7F914E0022D12D1A079312802D1C7
:102EF00000F0D6FD0AE0A079322802D100F004FEED
:102F000004E0A079332801D100F097FD00F0D1F959
:102F100070BD10B5044600F0FFF92078312802D1C9
:102F200000F05EFE0AE02078322802D100F08CFE2C
:102F300004E02078332801D100F01FFE10BD10B549
:102F4000044600F03CFA6078312802D100F048FED7
:102F50000AE06078322802D100F076FE04E0607862
:102F6000332801D100F009FE10BD10B5044600F071
:102F700078FAA078312802D100F032FE0AE0A07879
:102F8000322802D100F060FE04E0A078332801D19D
:102F900000F0F3FD10BD10B5044600F0BDF9207837
:102FA000312802D100F0F4FE0AE02078322802D164
:102FB00000F025FF04E02078332801D100F078FEEE
:102FC00010BD10B5044600F0FAF96078312802D13E
:102FD00000F0DEFE0AE06078322802D100F00FFF38
:102FE00004E06078332801D100F062FE10BD10B516
:102FF000044600F036FAA078312802D100F0C8FE6D
:103000000AE0A078322802D100F0F9FE04E0A078AE
:10301000332801D100F04CFE10BD000070B505460C
:103020000E46344605E0FE4804600F2003F0DCF84D
:10303000A41EAC42F7D270BD70B505460E463446AC
:1030400005E0F74804600D2003F0CEF8A41CAC4264
:10305000F7D970BD70B505460E46344605E0F04818
:1030600004600F2003F0C0F8A41CAC42F7D970BD77
:1030700070B505460E46344605E0EA4884630F20E5
:1030800003F0B2F8A41CAC42F7D970BD70B5054688
:103090000E46344605E0E44804600F2003F0A4F82F
:1030A000641CAC42F7D970BD10B54FF44870DC49D0
:1030B00008604FF4FA7003F097F840F22440DA49C0
:1030C00008604FF4487003F08FF84FF4487140F2F5
:1030D0008B30FFF7BFFFC82003F086F84FF45C7118
:1030E00040F2BF30FFF7C4FF10BD10B54FF4487079
:1030F000CB49086003F078F840F22440CA490860E0
:103100004FF4487003F070F84FF4487140F28B3080
:10311000FFF7A0FFC82003F067F84FF4337140F2C7
:10312000BF30FFF7A5FF10BD10B540F2BF30BD495D
:1031300088634FF4487003F057F840F22440BA49CE
:1031400008604FF4487003F04FF840F28B30B449F8
:1031500008604FF4FA7003F047F810BD10B540F264
:103160002440B14908604FF4FA7003F03DF840F292
:10317000BF30AC4988634FF4967003F035F840F2E5
:103180008B30A74908604FF4FA7003F02DF84FF424
:103190004870A349091D08604FF4FA7003F024F841
:1031A00010BD10B5A14800889D49091D08604FF465
:1031B000487003F019F89E4800889949086040F269
:1031C000EE2003F011F840F224419A480088FFF7FE
:1031D0005DFF4FF4FA7003F007F8974800889149B3
:1031E00088634FF4487002F0FFFF40F28E208D4953
:1031F00048634FF4487002F0F7FF40F224408A49D8
:1032000008604FF4487002F0EFFF40F2BF3085498C
:1032100088634FF4487002F0E7FF40F28B3080493A
:1032200008604FF4487002F0DFFF4FF4D7707C491C
:10323000091D08604FF4167002F0D6FF4FF41670A7
:1032400078494863C82002F0CFFF10BD10B57B4815
:1032500000887349091D08604FF4487002F0C4FFEC
:10326000774800886E49086040F2EE2002F0BCFF0B
:1032700040F2244173480088FFF708FF4FF4FA70CA
:1032800002F0B2FF70480088664988634FF44870C6
:1032900002F0AAFF40F28E20624948634FF4487062
:1032A00002F0A2FFFFF75AFF4FF416705D49486322
:1032B00010BD10B5654800885949091D08604FF4D4
:1032C000617002F091FF624800885549086040F241
:1032D000EE2002F089FF40F224415E480088FFF7AB
:1032E000D5FE4FF4FA7002F07FFF5B4800884D492D
:1032F00088634FF4487002F077FF40F28E2049490E
:1033000048634FF4487002F06FFFFFF727FF4FF458
:1033100016704449486310BD10B540F28E204149F3
:103320004863424800883E49091D08604FF44870D0
:1033300002F05AFF40F28B313D480088FFF78AFEC9
:10334000C82002F051FF3C480088364988634FF49A
:10335000487002F049FF40F2244136480088FFF7E8
:1033600095FE4FF4FA7002F03FFF4FF439702D498B
:1033700048634FF4487002F037FF40F2BF302949EC
:1033800088634FF4487002F02FFF40F22440264932
:1033900008604FF4487002F027FF40F28B3020495C
:1033A00008604FF4487002F01FFF4FF4D7701C49BB
:1033B000091D08604FF4487002F016FF10BD10B5EB
:1033C00040F28E20174948631C4800881449091DA3
:1033D00008604FF4487002F007FF40F28B31184844
:1033E0000088FFF737FEC82002F0FEFE164800886E
:1033F0000C4988634FF4487002F0F6FE40F2244115
:1034000010480088FFF742FEC82002F0EDFE4FF49E
:103410003970044948634FF4487002F0E5FE1DE03E
:10342000341800400040014034440140860100202F
:103430008401002082010020800100208E010020F4
:103440008C0100208A0100208801002096010020C4
:10345000940100209201002090010020FFF77EFEE1
:1034600010BD10B540F28E20FE494863FE4800882A
:10347000FE4908604FF4487002F0B6FE40F28B310E
:10348000FB480088FFF7E6FDC82002F0ADFEF948D2
:103490000088F449886340F2EE2002F0A5FE40F275
:1034A0002441F5480088FFF7F1FDC82002F09CFE9A
:1034B0004FF43970EB4948634FF4487002F094FEC2
:1034C000FFF74CFE10BD10B54FF41670E549486388
:1034D000401002F089FE40F20A40E84908604FF4CB
:1034E000967002F081FE40F23640E049091F086004
:1034F0004FF4967002F078FE4FF4D770DB49086005
:103500004FF4FA7002F070FE40F2E240D549886351
:1035100010BD10B540F2FD30D449091F08604FF4CA
:10352000FA7002F061FE4FF4E070D04908604FF489
:10353000FA7002F059FE4FF41670CA4948636420CD
:1035400002F052FE40F2C440C64988634FF4FA705C
:1035500002F04AFE40F23440C849086010BD10B580
:1035600040F2B710C14908604FF4487002F03CFEC9
:1035700040F2022140F2EE20FFF75EFD4FF496701C
:1035800002F032FE40F20A40BC4908604FF4487035
:1035900002F02AFE40F23640B449091F08604FF499
:1035A000487002F021FE40F2E240AE4988634FF4D9
:1035B000FA7002F019FE10BD10B54FF41670A9494B
:1035C00048634FF4E070A94908604FF4C87002F0F6
:1035D0000BFE40F2E240A34988634FF4967002F07C
:1035E00003FE40F21240A149091F08604FF4FA702F
:1035F00002F0FAFD40F20A40A04908604FF49670CC
:1036000002F0F2FD10BD10B54FF4167095494863F5
:1036100040F2C910954908604FF4C87002F0E4FD0B
:1036200040F294408F4988634FF4967002F0DCFDBD
:1036300040F2B5308D49091F08604FF4FA7002F06E
:10364000D3FD40F20A408D4908604FF4967002F0B5
:10365000CBFD10BD10B58A480088844908604FF43E
:10366000FA7002F0C1FD874800887E4988634FF4F4
:10367000487002F0B9FD4FF448707C49091F08609A
:1036800002F0B2FD804800887C4908604FF4487021
:1036900002F0AAFD4FF448717C480088FFF7BEFC99
:1036A0004FF4967002F0A0FD4FF439706D494863F5
:1036B0004FF4487002F098FDFFF7F6FC10BD10B50E
:1036C0007348008869490860642002F08DFD7148E4
:1036D0000088644988634FF4167002F085FD4FF44A
:1036E00048706249091F08604FF42F7002F07CFD9A
:1036F00069480088614908604FF4487002F074FD21
:103700004FF4487165480088FFF788FCC82002F034
:103710006BFD4FF43E70534948634FF4487002F01C
:1037200063FDFFF7C1FC10BD10B55D4800884F492F
:103730000860C82002F058FD5A480088494988634B
:103740004FF4487002F050FD4FF448704749091F8C
:10375000086002F049FD54480088484908604FF469
:10376000487002F041FD4FF4487150480088FFF75F
:1037700055FCC82002F038FD4FF4397039494863D0
:103780004FF47A7002F030FDFFF78EFC10BD10B5DB
:1037900047480088354908604FF4967002F024FDD0
:1037A000444800882F4988634FF4487002F01CFD9C
:1037B0004FF448702D49091F086002F015FD3E487E
:1037C00000882E4908604FF4487002F00DFD4FF458
:1037D00048713A480088FFF721FC642002F004FD9C
:1037E00010BD10B536480088204908604FF4967027
:1037F00002F0FAFC334800881A4988634FF4487095
:1038000002F0F2FC4FF448701849091F086002F0FA
:10381000EBFC2D480088194908604FF4487002F00D
:10382000E3FC4FF4487129480088FFF7F7FB642058
:1038300002F0DAFC10BD10B5254800880B4908607D
:1038400024480088074988634FF4487002F0CCFC94
:103850004FF448700549091F086002F0C5FC1E4876
:1038600000883BE0004001409601002038180040ED
:103870009401002090010020920100203444014076
:103880000E010020080100200A0100200C01002088
:103890001601002010010020120100201401002058
:1038A0001E010020180100201A0100201C01002028
:1038B00026010020200100202201002024010020F8
:1038C0002E010020280100202A0100202C010020C8
:1038D000360100203001002032010020FE4908603E
:1038E0004FF4487002F080FC4FF44871FB480088A8
:1038F000FFF794FB642002F077FC10BD10B5F84888
:103900000088F84988634FF4487002F06DFC4FF46A
:103910004870F549086002F067FCF4480088F249F5
:10392000091D08604FF4487002F05EFCF048008802
:10393000E94908604FF4487002F056FC4FF44871B2
:10394000EC480088FFF76AFB642002F04DFC4FF45E
:103950001670E44948634FF4487002F045FCFFF7E5
:10396000C4FB10BD10B5E4480088DE4988634FF4FD
:10397000FA7002F039FC4FF44870DB49086002F03D
:1039800033FCDE480088D849091D08604FF44870B0
:1039900002F02AFCDA480088CF4908604FF44870EA
:1039A00002F022FC4FF44871D6480088FFF736FB3E
:1039B000C82002F019FC4FF41670CA4948634FF44E
:1039C0007A7002F011FCFFF790FB10BD10B5CE48E5
:1039D0000088C44988634FF4487002F005FC4FF436
:1039E0004870C149086002F0FFFBC8480088BE4922
:1039F000091D08604FF4487002F0F6FBC4480088C7
:103A0000B54908604FF4487002F0EEFB4FF448717E
:103A1000C0480088FFF702FBC82002F0E5FB4FF426
:103A20001670B04948634FF47A7002F0DDFBFFF77F
:103A30005CFBC82002F0D8FB10BD10B5A848008878
:103A4000A84988634FF4487002F0CEFB4FF44870E9
:103A5000A549086002F0C8FBA4480088A249091DD6
:103A60000860C82002F0C0FBA14800889A4908609D
:103A70004FF4487002F0B8FB4FF448719D4800883D
:103A8000FFF7CCFAC82002F0AFFB4FF4397095492C
:103A900048634FF4487002F0A7FBFFF726FB10BD08
:103AA00010B5954800888F4988634FF4487002F03C
:103AB0009BFB4FF448708C49086002F095FB8F48DF
:103AC00000888949091D08604FF4487002F08CFB9A
:103AD0008B480088804908604FF4FA7002F084FB3C
:103AE0004FF4487187480088FFF798FAC82002F021
:103AF0007BFB4FF439707B4948634FF4487002F008
:103B000073FBFFF7F2FA10BD10B57F4800887549C6
:103B100088634FF4487002F067FB4FF448707249B5
:103B2000086002F061FB794800886F49091D086050
:103B30004FF4487002F058FB7548008866490860E9
:103B40004FF4FA7002F050FB4FF44871714800884E
:103B5000FFF764FAC82002F047FB4FF4397061495F
:103B600048634FF4487002F03FFBFFF7BEFA4FF492
:103B7000D7705D49091D086010BD10B56648008802
:103B8000584988634FF4167002F02EFB4FF44870CA
:103B90005549086002F028FB604800885249091D19
:103BA00008604FF4487002F01FFB5D4800884A49E6
:103BB00008604FF4487002F017FB4FF44871594801
:103BC0000088FFF72BFAC82002F00EFB4FF41670A6
:103BD00044494863C82002F007FBFFF786FA10BD8E
:103BE00010B5514800883F4988634FF4167002F0C1
:103BF000FBFA4FF448703C49086002F0F5FA4B4874
:103C000000883949091D08604FF4487002F0ECFA49
:103C100047480088304908604FF4487002F0E4FAE1
:103C20004FF4487143480088FFF7F8F9C82002F0C4
:103C3000DBFA4FF416702B4948634FF4487002F0DA
:103C4000D3FAFFF752FA10BD10B53B48008825495A
:103C500088634FF4167002F0C7FA4FF44870224997
:103C6000086002F0C1FA354800881F49091D086044
:103C70004FF4487002F0B8FA3148008816490860DD
:103C80004FF4487002F0B0FA4FF448712D480088A4
:103C9000FFF7C4F9C82002F0A7FA4FF416701149D3
:103CA00048634FF4487002F09FFAFFF71EFA10BD08
:103CB00010B5254800880B4988634FF4167002F050
:103CC00093FA4FF448700849086002F08DFA1F48D3
:103CD00000880549091D3BE03444014034010020BF
:103CE0003801002000400140341800403E0100200F
:103CF0003A0100203C010020400100204601002044
:103D00004201002044010020480100204E01002013
:103D10004A0100204C0100205001002056010020E3
:103D20005201002054010020580100205E010020B3
:103D30005A0100205C010020600100206601002083
:103D40006201002064010020680100206E01002053
:103D500008604FF4487002F047FA4348008843492E
:103D600008604FF4FA7002F03FFA4FF4487140488F
:103D70000088FFF753F9322002F036FA4FF416703C
:103D80003C494863C82002F02FFAFFF78DF910BDB7
:103D900010B539480088374988634FF4167002F02F
:103DA00023FA40F2EE20354908604FF4487002F0E3
:103DB0001BFA334800883149091D0860322002F09F
:103DC00013FA322002F010FA2E48008827490860C2
:103DD0004FF4FA7002F008FA40F2EE212A48008807
:103DE000FFF71CF9322002F0FFF94FF41670214959
:103DF0004863C82002F0F8F9FFF756F910BD10B576
:103E0000224800881B4988634FF4167002F0ECF9D1
:103E10004FF448701949086002F0E6F91C48008820
:103E20001649091D0860322002F0DEF9322002F046
:103E3000DBF9184800880D4908604FF4FA7002F069
:103E4000D3F94FF4487114480088FFF7E7F832209F
:103E500002F0CAF94FF4167006494863C82002F010
:103E6000C3F9FFF721F910BD6A0100203444014075
:103E70006C01002000400140700100203418004017
:103E800076010020720100207401002078010020DA
:103E90007E0100207A0100207C0100201849088062
:103EA00000BF1749091F098801F080010029F8D0D7
:103EB000704700B502460B4603E01078FFF7EEFFAF
:103EC000521C181EA3F10103F7D100BD7CB50446B6
:103ED0000D460CA0006801900BA000680090022124
:103EE00001A8FFF7E6FF29462046FFF7E2FF02217F
:103EF0006846FFF7DEFF05A002F0AFFA7CBD0000C8
:103F00000448004003FC0000FC03000031000000F6
:103F100030B5014601F01F04C1F34513CA0AE5029A
:103F200005EB43151544A8B230BD2DE9F047064610
:103F30000F4690469A46002445464FEA4800C0F195
:103F400003094AE07A1991B2321990B2524600F050
:103F5000D7FE7A1991B2321B90B2524600F0D0FED1
:103F60007A1B91B2321990B2524600F0C9FE7A1B08
:103F700091B2321B90B2524600F0C2FE3A1991B291
:103F8000721990B2524600F0BBFE3A1991B2721B00
:103F900090B2524600F0B4FE3A1B91B2721990B240
:103FA000524600F0ADFE3A1B91B2721B90B25246DF
:103FB00000F0A6FEB9F1000F05DA042000FB049022
:103FC00000F1060907E0601B042101FB009000F1ED
:103FD0000A09681E85B2601C84B2AC42B2DBAC42F6
:103FE00037D17A1991B2321990B2524600F088FE58
:103FF0007A1991B2321990B2524600F081FE7A1BC2
:1040000091B2321990B2524600F07AFE7A1B91B208
:10401000321B90B2524600F073FE3A1991B27219F7
:1040200090B2524600F06CFE3A1991B2721B90B2F7
:10403000524600F065FE3A1B91B2721990B2524698
:1040400000F05EFE3A1B91B2721B90B2524600F035
:1040500057FEBDE8F0872DE9FF4F83B080468946C3
:104060004946404600F042FE0598A0EB0805069838
:10407000A0EB0906002D02DB0120029003E04FF0C7
:10408000FF3002906D42002E02DB0120019003E020
:104090004FF0FF30019076424FEA450A4FEA460B57
:1040A000B54219DDABEB0504002712E04946404656
:1040B000109A00F025FE002C05DBA4EB0A04019801
:1040C00048441FFA80F95C44029840441FFA80F883
:1040D0007F1CAF42EADD18E0AAEB0604002712E0DD
:1040E00049464046109A00F00BFE002C05DBA4EB7D
:1040F0000B04029840441FFA80F854440198484445
:104100001FFA80F97F1CB742EADD07B0BDE8F08FE7
:104110002DE9F84305460C4616461F46DDF820807B
:104120004EF67D700090A81982B22346214628469B
:10413000FFF791FF42F6651004F1010CBC441FFA31
:104140008CF305EB060CACF1010C1FFA8CF204F1B8
:10415000010C1FFA8CF105EB060CACF1010C009080
:104160001FFA8CF0FFF777FF42F665100090E01918
:1041700083B2A81982B2E01981B22846FFF76BFF1B
:104180004EF67D700090E01983B22A4621462846FB
:10419000FFF761FF04F1010CBC44ACF1020C1FFA03
:1041A0008CF305F1010CB444ACF1020C1FFA8CF253
:1041B00004F1010C1FFA8CF105F1010C1FFA8CF0CF
:1041C000CDF80080FFF747FFBDE8F8832DE9F843FD
:1041D00005460C4616461F46DDF82080B8F1000F54
:1041E00039D14EF67D700090A81982B2234621463F
:1041F0002846FFF730FF42F6651004F1010CBC447D
:104200001FFA8CF305EB060CACF1010C1FFA8CF2D3
:1042100004F1010C1FFA8CF105EB060CACF1010C5A
:1042200000901FFA8CF0FFF716FF42F66510009021
:10423000E01983B2A81982B2E01981B22846FFF7CB
:104240000AFF4EF67D700090E01983B22A4621469F
:104250002846FFF700FFB8F1010F39D142F665108B
:104260000090A81982B2234621462846FFF7F3FEA4
:104270004EF67D7004F1010CBC441FFA8CF305EB83
:10428000060CACF1010C1FFA8CF204F1010C1FFAC0
:104290008CF105EB060CACF1010C00901FFA8CF0D0
:1042A000FFF7D9FE4EF67D700090E01983B2A81991
:1042B00082B2E01981B22846FFF7CDFE42F66510C2
:1042C0000090E01983B22A4621462846FFF7C3FE34
:1042D000B8F1020F39D14FF6FF700090A81982B2E1
:1042E000234621462846FFF7B6FE4FF6FF7004F13D
:1042F000010CBC441FFA8CF305EB060CACF1010C6D
:104300001FFA8CF204F1010C1FFA8CF105EB060C7C
:10431000ACF1010C00901FFA8CF0FFF79CFE4FF6F9
:10432000FF700090E01983B2A81982B2E01981B23F
:104330002846FFF790FE4FF6FF700090E01983B219
:104340002A4621462846FFF786FEBDE8F883F8B5E1
:1043500004460D4616461F4644F208202B463246B8
:10436000294600902046FFF776FE48F210406A1C6E
:1043700093B291B2621C009090B23246FFF76BFE8E
:1043800044F208203B462246294600902046FFF78B
:1043900062FE48F21040631C9AB26B1C99B2631C17
:1043A000009098B23B46FFF756FE4FF6FF703B4633
:1043B0003246394600902046FFF74DFE4FF6FF701B
:1043C0003B463246294600903046FFF744FEF8BD92
:1043D000F8B506460F4614461D464FF6FF703B469D
:1043E0002246394600903046FFF735FE4FF6FF7003
:1043F0002B463246394600903046FFF72CFE48F2F5
:1044000010406A1E93B291B2721C009090B2224684
:10441000FFF721FE44F208202B4622462946009051
:104420003046FFF718FE48F21040631E9AB27B1C1C
:1044300099B2631E009098B22B46FFF70CFE44F22F
:1044400008202B462246394600902046FFF703FEFF
:10445000F8BD2DE9FF4F81B007468A469B46DDF83F
:10446000388050E098F800003A284ADA98F800902E
:10447000B9F1300F04DBA9F1300000F0FF0907E0CB
:10448000B9F12B0F02D14FF00A0901E04FF00009FA
:10449000002531E000242BE0FA4901EBC91000EBC4
:1044A0004500005D009000261EE08020304100990C
:1044B000084050B10AEB050291B207EBC402324446
:1044C00090B2039A00F01CFC0CE00398584509D008
:1044D0000AEB050291B207EBC402324490B25A468D
:1044E00000F00EFC701CC6B2082EDEDB601CC4B2ED
:1044F000022CD1DB681CC5B2402DCBDB07F11300C9
:1045000087B208F1010898F800000028AAD105B088
:10451000BDE8F08F2DE9F84F0746884693469A4646
:10452000DDF828900097B3E099F8000080283DDA84
:1045300099F800600D2E05D1009F08F110001FFAB8
:1045400080F830E0202E03DDA6F1200086B200E0E6
:104550000026002422E000251CE004EB0610CA49D6
:10456000085C80212941084040B108EB040291B267
:104570007A1990B25A4600F0C3FB09E0D34507D040
:1045800008EB040291B27A1990B2524600F0B8FBDF
:10459000681CC5B2082DE0DB601CC4B2102CDADB4D
:1045A00007F1080087B209F1010971E0002668E00F
:1045B00006EB0610B54911F8100099F80010884272
:1045C0005DD106EB0610B14901EB4000407899F847
:1045D0000110884253D100244FE0002520E006EB73
:1045E0000610AA4901EB4000801C10F8141080202E
:1045F0002841014041B108EB040291B27A1990B20E
:104600005A4600F07DFB09E0D34507D008EB0402D1
:1046100091B27A1990B2524600F072FB681CC5B292
:10462000082DDCDB002524E006EB0610974901EBA2
:104630004000801C012101EB4401405C80212941A4
:10464000084048B108EB040291B27A19083290B2DE
:104650005A4600F055FB0AE0D34508D008EB0402A7
:1046600091B27A19083290B2524600F049FB681CA8
:10467000C5B2082DD8DB601CC4B2102CADDB701C99
:1046800086B2322E94DB09F1020907F1100087B2DD
:1046900099F8000000287FF447AFBDE8F88F2DE9B6
:1046A000F05F0646884693469A46DDF82890E2E099
:1046B00099F80000802835DA99F80070202F03DD82
:1046C000A7F1200087B200E00027002522E00024A7
:1046D0001CE005EB07106C49095C8020204101407B
:1046E00041B108EB050291B2321990B25A4600F07E
:1046F00007FB09E0D34507D008EB050291B2321958
:1047000090B2524600F0FCFA601CC4B2082CE0DB08
:10471000681CC5B2102DDADB09F1010906F10800A9
:1047200086B2A8E000279EE007EB870000EB471069
:10473000574911F8100099F8001088427CD107EB16
:10474000870000EB4710524901EB4000407899F890
:1047500001108842F2D1002580E0002423E007EB1D
:10476000870000EB47104A4901EB4000801C05EB35
:104770004501405C80212141084040B108EB050221
:1047800091B2321990B25A4600F0BAFA09E0D34514
:1047900007D008EB050291B2321990B2524600F0F0
:1047A000AFFA601CC4B2082CD9DB002426E007EB6A
:1047B000870000EB4710364901EB4000801C05EBF9
:1047C0004501491C405C80212141084048B108EB6B
:1047D000050291B23219083290B25A4600F090FAAE
:1047E0000AE0D34508D008EB050291B2321908322D
:1047F00090B2524600F084FA601CC4B2082CD6DB9A
:10480000002427E007EB870000EB4710204901EB6D
:104810004000801C05EB4501891C405C8021214142
:10482000084050B108EB050291B23219103290B233
:104830005A4600F065FA0BE013E0D34508D008EBC8
:10484000050291B23219103290B2524600F058FA75
:10485000601CC4B2082CD5DB681CC5B2182DFFF64D
:104860007CAF781C87B2142FFFF65EAF09F1020906
:1048700006F1180086B299F8000000287FF418AFFE
:10488000BDE8F09F51A20008609C0008D2A7000874
:10489000BAAE00082DE9F05F074688469246994671
:1048A000002531E000242BE019490A9801EBC010E3
:1048B00000EB850010F804B000261DE08020304198
:1048C00000EA0B0050B108EB050291B207EBC402FD
:1048D000324490B2524600F013FA0BE0CA4509D0B8
:1048E00008EB050291B207EBC402324490B24A468B
:1048F00000F006FA701CC6B2082EDFDB601CC4B2E2
:10490000042CD1DB681CC5B2202DCBDBBDE8F09FA9
:1049100051A200081CB50121162003F077FE4FF4C8
:10492000E050009002208DF8050001208DF8040071
:1049300000208DF806006946F94802F04DFB08207A
:1049400000906946F74802F047FB4FF48060009002
:104950006946F54802F040FB1CBD0021082116E025
:1049600000F0800222B10822EE4B18331A8003E0D7
:104970000822EC4B1A331A804FF48062E84B1A334A
:104980001A809B1E1A804206100E4A1ED1B20029C0
:10499000E6DC704710B504464FF48050E0491A3108
:1049A00008804010891E08802012FFF7D6FFE0B271
:1049B000FFF7D3FF4FF48050D9491831088010BD5C
:1049C00010B504464FF48050D5491A310880401084
:1049D00008802046FFF7C1FF4FF48050D0491831BE
:1049E000088010BD10B504464FF48050CC491A31F0
:1049F00008804010891E08802046FFF7AEFF4FF464
:104A00008050C7491831088010BDF0B505460C46E6
:104A100016461F462A20FFF7D3FF0020FFF7E2FFCC
:104A2000E8B2FFF7DFFF0020FFF7DCFFB11CC8B2E0
:104A3000FFF7D8FF2B20FFF7C3FF0020FFF7D2FFBF
:104A4000E0B2FFF7CFFF0020FFF7CCFF791CC8B220
:104A5000FFF7C8FF2C20FFF7B3FFF0BD70B5064687
:104A60009F237F2200210846FFF7CFFF2C20FFF76E
:104A7000A7FF002408E0002503E03046FFF78AFF87
:104A80006D1CA02DF9D3641C802CF4D370BD10B51F
:104A90004FF48060A4494883642001F0A5FB4FF4E3
:104AA0008060A1490883322001F09EFB10BD10B543
:104AB000FFF730FFFFF7EBFF1120FFF781FF7820B2
:104AC00001F092FBB120FFF77BFF0120FFF78AFF87
:104AD0002C20FFF787FF2D20FFF784FFB220FFF780
:104AE0006FFF0120FFF77EFF2C20FFF77BFF2D20BB
:104AF000FFF778FFB320FFF763FF0120FFF772FF96
:104B00002C20FFF76FFF2D20FFF76CFF0120FFF730
:104B100069FF2C20FFF766FF2D20FFF763FFB4200D
:104B2000FFF74EFF0720FFF75DFFC020FFF748FFAC
:104B3000A220FFF757FF0220FFF754FF8420FFF762
:104B400051FFC120FFF73CFFC520FFF74BFFC220FC
:104B5000FFF736FF0A20FFF745FF0020FFF742FF6F
:104B6000C320FFF72DFF8A20FFF73CFF2A20FFF725
:104B700039FFC420FFF724FF8A20FFF733FFEE2020
:104B8000FFF730FFC520FFF71BFF0E20FFF72AFFBE
:104B90003620FFF715FFC020FFF724FFE020FFF7C6
:104BA0000FFF0F20FFF71EFF1A20FFF71BFF0F203C
:104BB000FFF718FF1820FFF715FF2F20FFF712FF50
:104BC0002820FFF70FFF2020FFF70CFF2220FFF720
:104BD00009FF1F20FFF706FF1B20FFF703FF23201D
:104BE000FFF700FF3720FFF7FDFE0020FFF7FAFE7A
:104BF0000720FFF7F7FE0220FFF7F4FE1020FFF773
:104C0000F1FEE120FFF7DCFE0F20FFF7EBFE1B209B
:104C1000FFF7E8FE0F20FFF7E5FE1720FFF7E2FEA3
:104C20003320FFF7DFFE2C20FFF7DCFE2920FFF703
:104C3000D9FE2E20FFF7D6FE3020FFF7D3FE30201E
:104C4000FFF7D0FE3920FFF7CDFE3F20FFF7CAFE69
:104C50000020FFF7C7FE0720FFF7C4FE0320FFF781
:104C6000C1FE1020FFF7BEFE2A20FFF7A9FE00209C
:104C7000FFF7B8FE0220FFF7B5FE0020FFF7B2FEF7
:104C80008220FFF7AFFE2B20FFF79AFE0020FFF7F0
:104C9000A9FE0320FFF7A6FE0020FFF7A3FE7B205E
:104CA000FFF7A0FEF020FFF78BFE0120FFF79AFE32
:104CB000F620FFF785FE0020FFF794FE3A20FFF76D
:104CC0007FFE0520FFF78EFE2920FFF779FE4EF6C6
:104CD0007D70FFF7C3FE10BD30B505460C46284673
:104CE000FFF76EFE2046FFF77DFE30BD30B504466F
:104CF0000D462B46224629462046FFF786FE30BD4C
:104D000070B504460D461646681C83B2601C82B21C
:104D100029462046FFF779FE3046FFF73BFE70BD7F
:104D200000040240000802400010024060B5054641
:104D30000E4631462846FFF7D9FFE0B2FFF752FE94
:104D4000204660BD0146022906D003290DD0042962
:104D500012D005291ED116E04FF08042526A10B2DF
:104D600000224FF080435A6216E00C4A126810B2DB
:104D700000220A4B1A600FE0094A126810B20022A2
:104D8000074B1A6008E0074A126810B20022054B70
:104D90001A6001E0002000BF00BF704724040040FB
:104DA00024080040240C00401CB501217F2003F0A2
:104DB0002DFC00208DF8040001208DF80700C002B2
:104DC00000906946F64802F007F9512000906946C4
:104DD000F44802F001F94FF4607000906946F2481F
:104DE00002F0FAF84FF4604000906946EF4802F094
:104DF000F3F84AF6032000906946ED4802F0ECF81B
:104E00001CBD10B54FF40051E94802F047F94FF4CA
:104E10007A7110FB01F44FF40041E54802F03EF9CD
:104E200000EBC00101EB001004EB80044FF40061C3
:104E3000DF4802F033F900EB800004EB40044FF44C
:104E40000071DB4802F02AF9204480B210BD10B591
:104E50001021D44802F022F94FF47A7110FB01F4CA
:104E60004021D04802F01AF900EBC00101EB00101C
:104E700004EB80040121CB4802F010F900EB800024
:104E800004EB40044FF40061C54802F007F92044E8
:104E900080B210BD10B50121C54802F0FFF84FF4F3
:104EA0007A7110FB01F44FF48041C04802F0F6F82B
:104EB00000EBC00101EB001004EB80048021BA4834
:104EC00002F0ECF800EB800004EB40044FF40071BA
:104ED000B54802F0E3F8204480B210BD10B50221BD
:104EE000B34802F0DBF84FF47A7110FB01F44FF491
:104EF0008071AD4802F0D2F800EBC00101EB001068
:104F000004EB80044FF40041A84802F0C7F800EB1E
:104F1000800004EB40044FF40051A44802F0BEF8B6
:104F2000204480B210BDF8B5FFF7D8FF0446FFF764
:104F3000B1FF0546FFF78BFF0646FFF762FF074606
:104F40002B46324639469BA0009403F0B5FCF8BDD1
:104F500010B59D480078052811D2DFE800F0030461
:104F6000070A0D000CE000F01CFA09E000F027FA37
:104F700006E000F040FA03E000F02FFA00E000BF86
:104F800000BFFCF7B2F910BD2DE9F041FFF739FF82
:104F90000446FFF75CFF0646FFF77CFF0546FFF778
:104FA0009DFF074689480078002861D1864800782F
:104FB00001285DD186480078A8B30B2C05D06F2C52
:104FC00003D040F2F330844210D10F210120FCF7CE
:104FD00051F90F210220FCF74DF91E210320FCF7A7
:104FE00049F91E210420FCF745F92BE140F24C4021
:104FF000844207D040F25640844203D040F24D40F4
:10500000844211D10F210320FCF734F90F21042031
:10501000FCF730F91E210120FCF72CF91E2102209B
:10502000FCF728F90EE106E040F2E9308442DCD1D9
:10503000FFF78EFF06E10B2C05D06F2C03D040F25A
:10504000F330844202D100F00EFAFBE040F24C4013
:10505000844207D040F25640844203D040F24D4093
:10506000844202D100F00DFAECE0FFF771FFE9E0B5
:1050700056480078012830D15348007804282CD1B4
:105080000B2E05D06F2E03D040F2F330864208D1AC
:105090000A210320FCF7EEF81E210420FCF7EAF8B1
:1050A000D0E040F24C40864207D040F25640864263
:1050B00003D040F24D40864208D10A210420FCF77B
:1050C000D9F81E210320FCF7D5F8BBE040F2E93007
:1050D00086428AD1FFF73CFFB4E03C4800780228C2
:1050E0007CD139480078022878D139480078A8B3B3
:1050F0000B2D05D06F2D03D040F2F330854210D137
:105100000F210320FCF7B6F80F210420FCF7B2F8BA
:105110001E210120FCF7AEF81E210220FCF7AAF8A0
:1051200090E040F24C40854207D040F25640854224
:1051300003D040F24D40854211D10F210120FCF7F0
:1051400099F80F210220FCF795F81E210320FCF7A7
:1051500091F81E210420FCF78DF873E006E040F280
:10516000E93085426ED1FFF7F3FE6BE00B2D05D0E1
:105170006F2D03D040F2F330854202D100F073F975
:1051800060E040F24C40854207D040F256408542F4
:1051900003D040F24D4085421DD100F072F951E03C
:1051A00000080240000C02400010024000140240BF
:1051B00000180240BAECCDE25B256420256420256E
:1051C000642025645D000000B1010020B0010020D2
:1051D000B201002002E0FFF7BBFE33E01F48007879
:1051E00003282FD11E48007803282BD10B2F05D080
:1051F0006F2F03D040F2F330874208D105210220FF
:10520000FCF738F81E210120FCF734F81AE040F2D0
:105210004C40874207D040F25640874203D040F2CC
:105220004D40874208D105210120FCF723F81E21BB
:105230000220FCF71FF805E040F2E930874201D177
:10524000FFF786FEBDE8F08100200449087004499C
:10525000087001200349087070470000B001002069
:10526000B1010020B20100201CB50121302003F063
:10527000CDF91E20009001208DF8040000208DF84B
:1052800006008DF8070002208DF805006946FE48EB
:1052900001F0A2FEAA2000906946FC4801F09CFEA5
:1052A0001CBD10B504463CB90221F84801F012FFBC
:1052B0000821F64801F00CFF012C07D10221F34828
:1052C00001F006FF0821F14801F004FF022C07D18C
:1052D0000221EE4801F0FEFE0821EC4801F0FAFE42
:1052E00010BD10B504463CB92021E84801F0F2FE9B
:1052F0008021E64801F0ECFE012C07D12021E34893
:1053000001F0E6FE8021E14801F0E4FE022C07D125
:105310002021DE4801F0DEFE8021DC4801F0DAFECB
:1053200010BD10B504463CB91021D74801F0D2FE9B
:105330000421D54801F0CCFE012C07D11021D24820
:1053400001F0C6FE0421D04801F0C4FE022C07D1B2
:105350001021CD4801F0BEFE0421CB4801F0BAFE79
:1053600010BD10B504463CB90221C74801F0B2FE99
:105370000821C54801F0ACFE012C07D10221C2482A
:1053800001F0A6FE0821C04801F0A4FE022C07D1BE
:105390000221BD4801F09EFE0821BB4801F09AFEA3
:1053A00010BD10B50020FFF77CFF0020FFF799FF2C
:1053B0000020FFF7B6FF0020FFF7D3FF10BD10B5A8
:1053C0000120FFF76EFF0120FFF78BFF0120FFF7A1
:1053D000A8FF0120FFF7C5FF10BD10B50020FFF7A3
:1053E00060FF0120FFF77DFF0120FFF79AFF0020FB
:1053F000FFF7B7FF10BD10B50120FFF752FF0020E7
:10540000FFF76FFF0020FFF78CFF0120FFF7A9FFD8
:1054100010BD10B50220FFF744FF0220FFF761FF27
:105420000220FFF77EFF0220FFF79BFF10BD10B5A3
:105430000020FFF736FF0220FFF753FF0220FFF79F
:1054400070FF0020FFF78DFF10BD10B50220FFF7A1
:1054500028FF0020FFF745FF0020FFF762FF022032
:10546000FFF77FFF10BD10B50120FFF71AFF0120E5
:10547000FFF737FF0020FFF754FF0020FFF771FF11
:1054800010BD10B50020FFF70CFF0020FFF729FF2B
:105490000120FFF746FF0120FFF763FF10BD10B5A5
:1054A0000020FFF7FEFE0220FFF71BFF0120FFF7A1
:1054B00038FF0220FFF755FF10BD10B504467448B1
:1054C00000782044724908700846407820444870AB
:1054D00008468078204488700846C0782044C87008
:1054E0000846427801786BA003F0E6F910BD10B5CC
:1054F000044667480078001B6549087008464078F4
:10550000001B487008468078001B88700846C078E9
:10551000001BC8700846427801785EA003F0CCF901
:1055200010BD30B55D4C2478A04204DD5B4C24787E
:10553000574D2C702046594C2478A14204DD574C1D
:105540002478534D6C702146544C2478A24204DDDB
:10555000524C24784E4DAC702246504C2478A342D5
:1055600004DD4E4C24784A4DEC7023464C4C247894
:10557000012C04D100242346224621462046494CD2
:105580002060241D2160474C0C342260241F2360BE
:1055900030BD10B5F0EE401A30EEE14A34EE014A6B
:1055A000B0EE442A30EEA14A34EE414AF0EE442AED
:1055B00030EEE14A34EE414AB0EE443A30EEA14AD0
:1055C00034EE014AF0EE443AB0EE420AB4EEE20A9A
:1055D000F1EE10FA01D2B0EE620AB4EEC30AF1EEB7
:1055E00010FA01D2B0EE430AB4EEE30AF1EE10FA7B
:1055F00001D2B0EE630A2948007804EE100AB8EE32
:10560000444AB4EEC40AF1EE10FA2FDDC2EE004AAD
:105610002248007804EE100AB8EE444A24EE844A88
:10562000B0EE442AC2EE804A1C48007804EE100A0C
:10563000B8EE444A24EE844AF0EE442AC3EE004A0F
:105640001648007804EE100AB8EE444A24EE844A64
:10565000B0EE443AC3EE804A1048007804EE100AD7
:10566000B8EE444A24EE844AF0EE443ABCEEE34AF3
:1056700014EE104AA3B2BCEEC24A14EE104AA2B213
:10568000BCEEC34A10E000000010024000140240CB
:10569000B40100200925642C20256400B8010020F5
:1056A000B30100203404014014EE104AA1B2BCEE54
:1056B000E24A14EE104AA0B2FFF733FF10BD00001B
:1056C00010B588B004460121082002F09FFF012197
:1056D000880402F0E4FF07220821F74801F007FDE3
:1056E00007220921F44801F002FD4FF48070069072
:1056F00002208DF81C008DF81D0001208DF81E0081
:105700008DF81F0006A9EC4801F066FC4FF400700C
:10571000069002208DF81C008DF81D0000208DF8E9
:105720001E008DF81F0006A9E34801F055FC029405
:105730000020ADF80C00ADF80E00ADF81000ADF88B
:1057400014000C20ADF8120002A9DC4801F06FFD36
:105750000121DA4801F0F3FD012240F22551D7483A
:1057600001F0A3FE4021D54801F0D1FE27208DF89D
:10577000040002208DF8050003208DF806000120AA
:105780008DF8070001A801F036FB4FF4A06001F08E
:105790002DFB08B010BD10B5002440F22551C748BC
:1057A00001F0BEFE002874D0C44801F0F7FDC4B279
:1057B000C34804700078012807D1C2A000F04DFE54
:1057C000FDF748FFFDF7EDFCECE2BD48007802284C
:1057D00007D1BEA000F041FEFDF771FFFDF736FDD9
:1057E000E0E2B7480078032807D1BAA000F035FE00
:1057F000FDF79AFFFDF75DFDD4E2B148007804287B
:1058000009D1B6A000F029FEFDF7C1FFFDF76DFC40
:10581000FDF7C7FCC6E2AA480078052809D1B1A067
:1058200000F01BFEFDF7DDFFFDF75FFCFDF70EFD51
:10583000B8E2A3480078062809D1ACA000F00DFE1C
:10584000FDF7F9FFFDF751FCFDF733FDAAE29C4897
:105850000078072807D1A7A000F0FFFDFDF75CFD49
:10586000FEF74CF89EE296480078082807D1A3A0DE
:1058700000F0F3FDFDF7A3FDFEF774F892E2904807
:105880000078092806D19FA000F0E7FDFEF79EF8FA
:1058900088E28CE28A4800780A2807D19BA000F0B1
:1058A000DCFDFDF739FDFEF768F97BE284480078FE
:1058B0000B2807D197A000F0D0FDFDF780FDFEF783
:1058C0008FF96FE27E4800780C2807D193A000F092
:1058D000C4FDFDF7C6FDFEF7B7F963E2784800782E
:1058E0000D2807D18FA000F0B8FDFDF715FDFEF7DC
:1058F000DFF957E2724800780E2807D18BA000F03C
:10590000ACFDFDF75CFDFEF743FA4BE26C48007816
:105910000F2807D187A000F0A0FDFDF7A2FDFEF73C
:105920006EFA3FE266480078102805D183A000F0A7
:1059300094FDFDF7EEFD35E261480078112805D1B0
:1059400080A000F08AFDFDF737FE2BE25C4800786E
:10595000122805D17EA000F080FDFDF754FE21E263
:1059600057480078132805D17BA000F076FDFDF79D
:10597000AAFD17E252480078152805D178A000F05A
:105980006CFDFDF7D1FB0DE24D480078162803D1E0
:1059900077A000F062FD05E249480078172804D19D
:1059A0004FF4397076494863FCE14548007818287F
:1059B00004D14FF4167072494863F3E1404800780F
:1059C000192803D16FA000F048FDEBE13C480078B6
:1059D0001A280DD16DA000F040FD6948406BC01C35
:1059E000674948630846416B6AA002F065FFD9E148
:1059F000334800781B280DD169A000F02EFD6048C7
:105A0000406BC01E5E4948630846416B61A002F0CE
:105A100053FFC7E12A4800781C280FD162A000F08C
:105A20001CFD5748806B62490978084454498863D3
:105A30000846816B5FA002F03FFFB3E12048007889
:105A40001D280FD15EA000F008FD4D48806B58491D
:105A50000978401A4A4988630846816B55A002F0CC
:105A60002BFF9FE1164800781E280FD156A000F0AA
:105A7000F4FC574800684E490978084454490860C6
:105A80000846016853A002F017FF8BE10C4800782C
:105A90001F280FD152A000F0E0FC4D480068444997
:105AA0000978401A4A4908600846016849A002F08E
:105AB00003FF77E198E00000000C0240004800403E
:105AC000B9010020735F310D0A000000735F320DD1
:105AD0000A000000735F330D0A000000785F310D8B
