:020000040800F2
:10000000C0060020751D0008490400084B040008C4
:100010004F040008530400085704000800000000C3
:100020000000000000000000000000005B04000869
:100030005D040008000000005F040008610400087F
:100040008F1D00088F1D00088F1D00088F1D0008E0
:100050008F1D00088F1D00088F1D00088F1D0008D0
:100060008F1D00088F1D00088F1D00088F1D0008C0
:100070008F1D00088F1D00088F1D00088F1D0008B0
:100080008F1D00088F1D00088F1D00088F1D0008A0
:100090008F1D00088F1D00088F1D00088F1D000890
:1000A0008F1D00088F1D00088F1D00088F1D000880
:1000B000CF190008891A0008451B00088F1D000889
:1000C0008F1D00088F1D00088F1D00088F1D000860
:1000D0008F1D0008711800088F1D00088F1D000873
:1000E0008F1D00088F1D00088F1D00088F1D000840
:1000F0008F1D00088F1D00088F1D00088F1D000830
:100100008F1D00088F1D0008011C00088F1D0008AE
:100110008F1D00088F1D0008AF0D00088F1D0008FF
:100120008F1D00088F1D00088F1D00088F1D0008FF
:100130008F1D00088F1D00088F1D00088F1D0008EF
:100140008F1D00088F1D00088F1D00088F1D0008DF
:100150008F1D00088F1D00088F1D00088F1D0008CF
:100160008F1D00088F1D00088F1D00088F1D0008BF
:100170008F1D00088F1D00088F1D00088F1D0008AF
:100180008F1D00088F1D000800F002F800F044F8F1
:100190000AA090E8000C82448344AAF10107DA45E2
:1001A00001D100F039F8AFF2090EBAE80F0013F0F0
:1001B000010F18BFFB1A43F001031847C4390000B0
:1001C000E4390000103A24BF78C878C1FAD8520741
:1001D00024BF30C830C144BF04680C6070470000C1
:1001E0000023002400250026103A28BF78C1FBD840
:1001F000520728BF30C148BF0B607047642903F025
:100200007F83782903F0B883002070471FB503F07F
:100210009DFC1FBD10B510BD03F066FC1146FFF735
:10022000F5FF00F009F803F084FC03B4FFF7F2FFD8
:1002300003BC01F0B9FA00004FF4A06001F0BAFD70
:10024000A82001F02FFA4FF4E13001F0BBFA00F0E2
:10025000ABFE01F033F8002141F61F4001F012FD22
:1002600041F61F41962001F0DBFC01F0FAF868A08E
:1002700003F006FBCAE06948007801280ED16848FF
:100280006849096801600078674908700846017884
:1002900066A003F0F5FA0020604908706248007813
:1002A000262872D2DFE800F013191F252B31373DC5
:1002B0004348A6A6A6A6A6A64D53596169727A829E
:1002C0008A8BA6A6A6A6A6A68C8D92979CA1002096
:1002D0005A49087001F08DF88DE0002057490870E8
:1002E00001F095F887E000205449087001F0ABF860
:1002F00081E000205149087001F097F87BE0002070
:100300004E49087001F0C9F875E000204B490870AB
:1003100001F0B5F86FE000204849087001F0CBF813
:1003200069E000204549087001F0D3F863E04FF41C
:100330007A7001F0EAF85EE04FF47A7001F0FFF8AD
:1003400059E000203D49087001F08BF853E000208F
:100350003A49087001F085F84DE000F010FE00F019
:100360009BFF01203549087045E000F008FE00F0D1
:1003700093FF0220314908703DE000F000FE00F0DC
:100380008BFF03202D49087035E033E000F0F7FDC6
:1003900000F082FF0420294908702CE000F0EFFDF6
:1003A00000F07AFF05202549087024E000F0E7FD01
:1003B00000F072FF0620214908701CE01BE01AE0E3
:1003C00019E031211E4801F0C9FF14E032211C4818
:1003D00001F0C4FF0FE03321194801F0BFFF0AE02C
:1003E0003421174801F0BAFF05E03521144801F027
:1003F000B5FF00E000BF00BF64200B490870114C3E
:10040000E388A2886188208801F09AFC33E7000025
:10041000B3F5CABCBBAFCDEAB3C90A0014000020D3
:10042000060000200200002012000020CAD5B5BD41
:100430007531D6B8C1EEA3BA257800002C00002093
:10044000004C004036000020704700BFFEE700BFB0
:10045000FEE700BFFEE700BFFEE77047704770474A
:10046000704700000CB500200190009076480068AD
:1004700040F480307449086000BF7348006800F49D
:10048000003000900198401C0190009818B9019824
:10049000B0F5A04FF1D16C48006800F4003010B105
:1004A0000120009001E0002000900098012846D132
:1004B00065484030006840F0805063494031086032
:1004C0006248006840F44040604908605E48083077
:1004D00000685D49083108600846006840F4004043
:1004E00008600846006840F4A05008605848091F9A
:1004F0000860081F006840F08070091F086000BF96
:100500005148006800F000700028F9D040F20570F2
:10051000504908604C480830006820F003004A4900
:10052000083108600846006840F00200086000BF1B
:1005300045480830006800F00C000828F8D10CBDD0
:1005400010B54548006840F47000434908603E48D3
:10055000006840F001003C49086000203A49083139
:100560000860394800683D490840374908603C4800
:10057000091D0860081F006820F48020091F08601A
:10058000002031490C310860FFF76CFF4FF000602C
:1005900031498039086010BD70B500200022022367
:1005A00000240221284D08352D6805F00C0020B1EB
:1005B000042806D0082834D107E02A4D2A4E356099
:1005C00033E02A4D284E35602FE01F4D2D1D2D683C
:1005D000C5F380541C4D2D1D2D6805F03F0154B10D
:1005E000224DB5FBF1F5184E361D3668C6F3881658
:1005F00005FB06F209E01B4DB5FBF1F5124E361D69
:100600003668C6F3881605FB06F20F4D2D1D2D68C2
:10061000C5F301456D1C6B00B2FBF3F5124E35605E
:1006200003E0104D104E356000BF00BF064D083589
:100630002D68C5F303150E4E705D0B4D2D68C5403A
:10064000094E356070BD0000003802400070004067
:1006500008544007003C024088ED00E0FFFFF6FE32
:10066000103000240024F4001800002000127A004A
:100670001C00002010B500F0F3FCFE49088000F0DB
:1006800022FDFD490880FD48007848B900F0B1FE20
:100690000020FB4908700120FA490870F7490870EA
:1006A00000F05FFDF448008840F2E931884206D14D
:1006B000F2480078012802D10220F0490870EE4883
:1006C000008840F25641884206D1EC480078022862
:1006D00002D10320E9490870E748008840F2E93177
:1006E000884206D1E5480078032802D10420E34976
:1006F0000870E148008840F25641884206D1DF4840
:100700000078042802D10520DC490870DA48008806
:1007100040F2E93188420ED1D848007805280AD144
:1007200000F083FE0120D64908700420D5490870E6
:100730000620D2490870CF48008840F2E93188424B
:1007400006D1CE480078062802D10720CB49087090
:10075000C848008840F25641884206D1C748007810
:10076000072802D10820C5490870C248008840F215
:10077000E931884206D1C1480078082802D1092011
:10078000BE490870BB48008840F25641884206D1F5
:10079000BA480078092802D10A20B8490870B5483B
:1007A000008840F2E93188420DD1B44800780A2827
:1007B00009D100F056FE00F06FFD0020B24908702C
:1007C0000B20AE49087010BD10B500F049FCA949D6
:1007D000088000F078FCA8490880A848007850B943
:1007E00000F015FE0020A64908700220A5490870F7
:1007F0000120A249087000F0B4FC9F48008840F234
:10080000E93188420ED19D48007801280AD100F0D4
:100810001AFE01209A49087003209A4908700220A4
:10082000964908709348008840F2E931884206D121
:1008300092480078022802D10320904908708D4820
:10084000008840F25641884206D18C48007803283F
:1008500002D10420894908708648008840F2E931B5
:10086000884206D185480078042802D105208349B2
:1008700008708048008840F25641884206D17F487F
:100880000078052802D106207C4908707948008844
:1008900040F2E93188420ED17848007806280AD122
:1008A00000F0B5FD002076490870022075490870F7
:1008B0000720724908707048008840F2E931884288
:1008C00006D16E480078072802D108206B490870CD
:1008D0006948008840F25641884206D1674800784E
:1008E000082802D10920654908706348008840F251
:1008F000E931884206D161480078092802D10A20EE
:100900005E4908705C48008840F25641884206D132
:100910005A4800780A2802D10B20584908705648D6
:10092000008840F2E93188420DD1544800780B2804
:1009300009D100F096FD00F0AFFC0020524908708C
:100940000C204E49087010BD10B500F089FB4949D4
:10095000088000F0B8FB484908804848007850B942
:1009600000F055FD002046490870022045490870F6
:1009700001204249087000F0F4FB3F48008840F233
:10098000E93188420ED13D48007801280AD100F0B3
:100990004CFD01203A49087004203A4908700220B1
:1009A000364908703348008840F2E931884206D160
:1009B00032480078022802D10320304908702D48BF
:1009C000008840F25641884206D12C48007803281E
:1009D00002D10420294908702648008840F2E931F4
:1009E000884206D125480078042802D105202349F1
:1009F00008702048008840F25641884206D11F48BE
:100A00000078052802D106201C4908701A48008881
:100A100088B91A48007806280DD1072017490870B0
:100A200000F01FFD00F038FC3421184801F096FC5E
:100A300000201549087010BD10B500F011FB0D49DC
:100A4000088000F040FB0C4908800C48007850B941
:100A500000F0F9FC01200A490870032009490870D8
:100A600001200649087000F07CFB0248008840F233
:100A7000E9310DE030000020320000202D00002080
:100A800034000020350000202C000020004C0040E5
:100A9000884206D1FE480078012802D10220FC4994
:100AA0000870FC48008840F25641884206D1F84858
:100AB0000078022802D10320F5490870F548008823
:100AC00040F2E931884206D1F1480078032802D18A
:100AD0000420EF490870EF48008840F256418842F0
:100AE00006D1EB480078042802D10520E8490870B7
:100AF000E848008840F2E931884212D1E4480078A1
:100B000005280ED10620E249087040F6B83000F002
:100B100016FD00F06EFC0020DF4908700120DF495F
:100B20000870DC480088A8B9D9480078062811D197
:100B30000720D749087000F094FC00F0ADFB33218A
:100B4000D74801F00BFC40F6B83000F0DEFC002086
:100B5000D449087010BD10B500F082FACD49088064
:100B600000F0B1FAD0490880C948007808B900F00F
:100B70006AFCC848008840F2E93188420CD1C44878
:100B8000007848B900F035FC0020C3490870012006
:100B9000C2490870BE49087000F0E3FAC2480088F4
:100BA00040F2E931884206D1B9480078012802D1E3
:100BB0000220B7490870BC48008840F2564188427C
:100BC00006D1B3480078022802D10320B04908704A
:100BD000B548008840F2E931884206D1AC48007837
:100BE000032802D10420AA490870AF48008840F2C7
:100BF0005641884206D1A6480078042802D1052033
:100C0000A3490870A848008840F2E931884206D11B
:100C10009F480078052802D106209D490870A24807
:100C2000008840F25641884206D19948007806284B
:100C300002D10720964908709B48008840F2E931AC
:100C4000884203D098480088092812D1904800783B
:100C500007280ED108208E49087040F6B83000F001
:100C60006EFC00F0E2FB01208B49087004208B49E8
:100C700008708D480088A8B985480078082811D1E7
:100C800009208349087000F0ECFB00F005FB40F6FA
:100C9000B83000F03AFC3221814801F05FFB0020BF
:100CA0008049087010BD10B500F0DAF97949088064
:100CB00000F009FA7C4908807548007808B900F00E
:100CC000C2FB7448008840F2E93188420CD1704878
:100CD000007848B900F08DFB00206F4908700120B2
:100CE0006E4908706A49087000F03BFA6E48008847
:100CF00040F2E931884206D165480078012802D1E6
:100D00000220634908706848008840F256418842D2
:100D100006D15F480078022802D103205C490870A0
:100D20006148008840F2E931884206D1584800788D
:100D3000032802D10420564908705B48008840F21D
:100D40005641884206D152480078042802D1052035
:100D50004F49087055480078002808DD4C48007855
:100D6000052804D151480078401E504908704F486A
:100D7000007800280ADC46480078052806D100F0F3
:100D800062FB00F089FA0620414908704648008855
:100D900060B93F480078062808D100F062FB0020C7
:100DA0004049087031213E4801F0D8FA10BD10B515
:100DB00001213F4802F047F910B33A48007807286C
:100DC00018D2DFE800F00405080B0E11140012E041
:100DD000FFF769FF0FE0FFF7BEFE0CE0FFF72CFE08
:100DE00009E0FFF7B1FD06E0FFF7EEFC03E0FFF7D7
:100DF00041FC00E000BF00BF01212D4802F034F9A2
:100E000010BD10B500F02CF92249088000F05BF904
:100E1000254908801E48007850B900F0F8FA0020F3
:100E20001D49087002201D490870012018490870EA
:100E300000F097F91C48008840F2E931884206D159
:100E400013480078012802D1022011490870164881
:100E5000008840F25641884206D10D4800780228A9
:100E600002D103200A4908700F48008840F2E93196
:100E7000884206D106480078032802D1042004499C
:100E800008700948008840F25641884219D111E0A3
:100E90002D0000203000002034000020350000200C
:100EA000004C00402C000020320000202E000020CA
:100EB0000010004035480078042802D1052033494D
:100EC00008703348008840F2E93188420ED12F483B
:100ED000007805280AD100F0A8FA01202D490870F1
:100EE00004202D4908700620284908702B480088E6
:100EF00040F2E931884206D124480078072802D11F
:100F00000820224908702548008840F2564188424E
:100F100006D11E480078082802D109201B49087014
:100F20001E48008840F2E931884206D1174800780F
:100F3000092802D10A20154908701848008840F293
:100F40005641884206D1114800780A2802D10B2068
:100F50000E4908701148008840F2E93188420DD1ED
:100F60000A4800780B2809D100F07BFA00F094F9C8
:100F700000200B4908700C200449087010BD0020A7
:100F8000024908700A200749087070472D000020A8
:100F90003200002034000020350000203000002006
:100FA0002C0000202E0000201CB50121052002F09D
:100FB00011FB1020009000208DF8040001208DF816
:100FC00007006946B74800F0EBFF4EF20F000090B3
:100FD0006946B54800F0E4FF1CBD1CB50421B248C9
:100FE00001F040F88DF800001021AE4801F03AF809
:100FF0008DF801000121AC4801F034F88DF80200B1
:101000004FF48041A84801F02DF88DF803004FF40B
:101010000041A54801F026F88DF804004FF4005176
:10102000A14801F01FF88DF8050002219E4801F04B
:1010300019F88DF8060008219B4801F013F88DF887
:101040000700002406E01DF8041098A002F018FC28
:10105000601CC4B2072CF6DD95A002F011FC1CBD8B
:1010600008B50421904800F0FDFF8DF80000102124
:101070008C4800F0F7FF8DF8010001218A4800F04C
:10108000F1FF8DF802004FF48041874800F0EAFF3D
:101090008DF803009DF800004FF47A7110FB01F009
:1010A0009DF8011001EBC10202EB011100EB810080
:1010B0009DF8021001EB810100EB41009DF8031047
:1010C000084480B208BD08B54FF40041764800F0EE
:1010D000C9FF8DF800004FF40051734800F0C2FFC3
:1010E0008DF801000221704800F0BCFF8DF802006D
:1010F00008216D4800F0B6FF8DF803009DF8000050
:101100004FF47A7110FB01F09DF8011001EBC10260
:1011100002EB011100EB81009DF8021001EB81014F
:1011200000EB41009DF80310084480B208BD10B5E3
:1011300060480078052811D2DFE800F00304070AB0
:101140000D000CE000F055F909E000F060F906E050
:1011500000F079F903E000F068F900E000BF00BF9B
:1011600010BD70B5FFF77CFF0546FFF7ACFF0446E6
:1011700051480078002839D14E48007820B1012824
:1011800003D0022830D115E02FE0092D01D0492DE0
:1011900002D100F090F90CE040F24C40854203D0BF
:1011A00040F25640854202D100F093F901E0FFF78A
:1011B000BEFF1AE0092D03D0492D01D0012D02D127
:1011C00000F025F90FE040F24C40854206D040F295
:1011D0005640854202D0B5F57A7F02D100F009F978
:1011E00001E0FFF7A4FF00E000BF00BF3248007835
:1011F000012850D12F48007830B1012805D00328AC
:1012000018D0042845D12FE044E0092C01D0492C06
:1012100002D100F050F90CE040F24C40844203D07F
:1012200040F25640844202D100F053F901E0FFF74A
:101230007EFF2FE0092C03D0492C01D0012C02D1D4
:1012400000F0E5F80FE040F24C40844206D040F256
:101250005640844202D0B4F57A7F02D100F0C9F83A
:1012600001E0FFF764FF15E0092C01D0492C02D101
:1012700000F021F90CE040F24C40844203D040F2EF
:101280005640844202D100F024F901E0FFF74FFFFD
:1012900000E000BF00BF70BD00200749087005498D
:1012A00008707047000002400008024025642000DA
:1012B0000A00000035000020340000201CB5012188
:1012C000302002F087F93C20009001208DF80400C6
:1012D00000208DF8060002208DF805006946EB48D5
:1012E00000F05EFEAA2000906946E84800F058FE33
:1012F0001CBD10B504463CB92021E54800F0CEFEE7
:101300008021E34800F0C8FE012C07D12021E048ED
:1013100000F0C2FE8021DE4800F0C0FE022C07D1A2
:101320002021DB4800F0BAFE8021D94800F0B6FE4B
:1013300010BD10B504463CB90821D54800F0AEFEFA
:101340000221D34800F0A8FE012C07D10821D04883
:1013500000F0A2FE0221CE4800F0A0FE022C07D130
:101360000821CB4800F09AFE0221C94800F096FE01
:1013700010BD10B504463CB90821C44800F08EFEEB
:101380002021C24800F088FE012C07D10821BF4867
:1013900000F082FE2021BD4800F080FE022C07D123
:1013A0000821BA4800F07AFE2021B84800F076FE05
:1013B00010BD10B504463CB91021B44800F06EFED3
:1013C0000421B24800F068FE012C07D11021AF487B
:1013D00000F062FE0421AD4800F060FE022C07D14F
:1013E0001021AA4800F05AFE0421A84800F056FE39
:1013F00010BD10B50020FFF77CFF0020FFF799FF1C
:101400000020FFF7B6FF0020FFF7D3FF10BD10B597
:101410000120FFF76EFF0120FFF78BFF0120FFF790
:10142000A8FF0120FFF7C5FF10BD10B50020FFF792
:1014300060FF0120FFF77DFF0120FFF79AFF0020EA
:10144000FFF7B7FF10BD10B50120FFF752FF0020D6
:10145000FFF76FFF0020FFF78CFF0120FFF7A9FFC8
:1014600010BD10B50220FFF744FF0220FFF761FF17
:101470000220FFF77EFF0220FFF79BFF10BD10B593
:101480000020FFF736FF0220FFF753FF0220FFF78F
:1014900070FF0020FFF78DFF10BD10B50220FFF791
:1014A00028FF0020FFF745FF0020FFF762FF022022
:1014B000FFF77FFF10BD10B50120FFF71AFF0120D5
:1014C000FFF737FF0020FFF754FF0020FFF771FF01
:1014D00010BD10B50020FFF70CFF0020FFF729FF1B
:1014E0000120FFF746FF0120FFF763FF10BD10B595
:1014F0000020FFF7FEFE0220FFF71BFF0120FFF791
:1015000038FF0220FFF755FF10BD10B504466148B3
:10151000008820445F49088008464088204448806D
:1015200008468088204488800846C0882044C880B7
:1015300008464288018858A002F0A2F910BD10B5F3
:10154000044654480088001B5249088008464088D9
:10155000001B488008468088001B88800846C08899
:10156000001BC8800846428801884BA002F088F919
:1015700010BD10B52DED088BF0EE408AB0EE609AEC
:10158000F0EE419A39EE680A30EE290AB0EE40AA30
:1015900039EE280A30EE690AF0EE40AA39EE680A00
:1015A00030EE690AB0EE40BA39EE280A30EE290A68
:1015B000F0EE40BAB0EE4A8AB4EEEA8AF1EE10FAE2
:1015C00001D2B0EE6A8AB4EECB8AF1EE10FA01D203
:1015D000B0EE4B8AB4EEEB8AF1EE10FA01D2B0EE27
:1015E0006B8A2F48008800EE100AB8EE400AB4EE6D
:1015F000C08AF1EE10FA2FDDCAEE080A28480088EA
:1016000000EE100AB8EE400A20EE800AB0EE40AAC2
:10161000CAEE880A2248008800EE100AB8EE400A96
:1016200020EE800AF0EE40AACBEE080A1C480088A3
:1016300000EE100AB8EE400A20EE800AB0EE40BA82
:10164000CBEE880A1648008800EE100AB8EE400A71
:1016500020EE800AF0EE40BABCEEEB0A10EE104A23
:10166000A3B2BCEECA0A10EE104AA2B2BCEECB0A7C
:1016700010EE104AA1B2BCEEEA0A10EE104AA0B277
:1016800000F05EFBBDEC088B10BD000000100240B6
:1016900000140240360000200925642C2025640037
:1016A0003E00002010B504466FF0040000F0D4FBAB
:1016B000E11704EB5171C1F3C701394A11701046AB
:1016C000007800EB4001C1EBC0104FF6FF7101EA5A
:1016D000C0003449088010BD0146314A12784A439F
:1016E0004FF0E0235A6100229A611A46126942F0D3
:1016F00001021A6100BF4FF0E022106900F0010200
:101700001AB100F48032002AF5D04FF0E0221269BD
:1017100022F001024FF0E0231A6100229A61704723
:101720000146204A12884A434FF0E0235A610022C2
:101730009A611A46126942F001021A6100BF4FF025
:10174000E022106900F001021AB100F48032002A90
:10175000F5D04FF0E022126922F001024FF0E023B1
:101760001A6100229A61704770B504464FF4077001
:1017700094FBF0F0C6B24FF4077094FBF0F100FB5D
:10178000114085B205E04FF40770FFF7C9FF701EE6
:10179000C6B2002EF7D115B12846FFF7C1FF70BDC4
:1017A0004000002042000020014600BF704700BFFB
:1017B0004C4A128802F04002002AF9D0C2B2494BCA
:1017C0009A80704710B588B004460121084601F0A0
:1017D00001FF0121102001F057FF07220921424893
:1017E00000F069FC07220A213F4800F064FC4FF436
:1017F000C060069002208DF81C008DF81D000020AE
:101800008DF81E0001208DF81F0006A9364800F053
:10181000C7FB02940020ADF80C00ADF80E00ADF847
:101820001000ADF814000C20ADF8120002A92D48EC
:1018300000F0E1FC01212B4800F065FD4021294822
:1018400000F049FE012240F22551264800F011FE29
:1018500025208DF8040003208DF805008DF8060082
:1018600001208DF8070001A800F0A9FA08B010BD0A
:1018700010B540F225511B4800F036FE88B31949D7
:101880008988C8B21949097869B919490978FE29BE
:1018900009D118490978FF2905D10121134A11708E
:1018A0000021154A117011490978012912D11349F3
:1018B000114A1278885410490978491C0E4A11704F
:1018C00011460978012905D10021084A117001212A
:1018D0000B4A117006490978064A117004490870CC
:1018E00000BF10BD001001400000024001000020B8
:1018F0004B0000204C0000204A0000200200002085
:101900001400002000B589B00121084601F0ABFEAB
:101910000121032001F05EFE2020079000208DF8B9
:10192000200001208DF8220000208DF823000220E5
:101930008DF8210007A92B4800F032FB0820079002
:1019400000208DF8200001208DF8220000208DF865
:10195000230002208DF8210007A9234800F020FB76
:1019600004A800F0ECFE0020ADF810004FF6FF7068
:1019700005900020ADF81800ADF8120004A94FF052
:10198000804000F0A8FE01A801F0B3FA0020ADF8F5
:101990000C0001A94FF0804001F074FA0121880782
:1019A00001F04EFB01221146900701F035FB0223A6
:1019B0001A460321580701F002FC00204FF0804135
:1019C00048620121880700F00FFF09B000BD10B583
:1019D0000121880701F037FB18B10121880701F0C8
:1019E00043FB10BD000002400004024000B589B076
:1019F0000121022001F037FE0121084601F0EAFD35
:101A0000C020079000208DF8200001208DF82200D2
:101A100000208DF8230007A9214800F0C1FA04A88E
:101A200000F08DFE0020ADF810004FF6FF7005901D
:101A30000020ADF81800ADF8120004A9194800F014
:101A40004AFE01A801F055FA0020ADF80C0001A9EA
:101A5000144801F017FA0121124801F0F1FA0122AD
:101A60001146104801F0D8FA02231A4603210D4806
:101A700001F0A5FB00200B49243108600121094831
:101A800000F0B2FE09B000BD10B50121054801F01B
:101A9000DAFA18B10121034801F0E6FA10BD00009E
:101AA000000002400004004000B589B0012104207C
:101AB00001F0D9FD0121022001F08CFDC020019030
:101AC00000208DF8080001208DF80A0000208DF814
:101AD0000B0001A9214800F063FA06A800F02FFED0
:101AE0000020ADF818004FF6FF7007900020ADF809
:101AF0002000ADF81A0006A9194800F0ECFD03A873
:101B000001F0F7F90020ADF8140003A9144801F022
:101B1000B9F90121124801F093FA01221146104847
:101B200001F07AFA02231A4603210D4801F047FB1F
:101B300000200B49243108600121094800F054FEBF
:101B400009B000BD10B50121054801F07CFA18B1BB
:101B50000121034801F088FA10BD00000004024092
:101B60000008004000B589B00121082001F07BFD8C
:101B70000121084601F02EFD0320019000208DF880
:101B8000080001208DF80A0000208DF80B0001A943
:101B9000214800F005FA06A800F0D1FD0020ADF8BC
:101BA00018004FF6FF7007900020ADF82000ADF848
:101BB0001A0006A9194800F08EFD03A801F099F952
:101BC0000020ADF8140003A9144801F05BF90121CD
:101BD000124801F035FA01221146104801F01CFAB2
:101BE00002231A4603210D4801F0E9FA00200B49AF
:101BF000243108600121094800F0F6FD09B000BD5C
:101C000010B50121054801F01EFA18B10121034861
:101C100001F02AFA10BD000000000240000C004054
:101C20007FB505460C460121102001F01CFD0295F0
:101C3000ADF804400020ADF80C00ADF8060001A995
:101C40000F4800F048FD01210D4801F0F9F901228B
:101C500011460B4801F0E0F936208DF80000002015
:101C60008DF8010001208DF802008DF80300684610
:101C700000F0A5F80121024800F0B6FD7FBD00008C
:101C80000010004030B58BB005460C460121022003
:101C900001F0FAFC0121042001F09CFC4FF470706B
:101CA000019002208DF8090001208DF80800002025
:101CB0008DF80A008DF80B0001A92B4800F070F98F
:101CC0000995ADF820400020ADF82800ADF82200BD
:101CD00008A9264800F0FFFC6020ADF80C000120A8
:101CE000ADF80E0000200590ADF8180003A91F48BC
:101CF00000F086FD03A91D4800F0BBFD03A91B48A9
:101D000000F004FE03A9194800F066FE08211748F8
:101D100000F003FF0821154800F008FF08211348D0
:101D200000F011FF0821114800F016FF01210F48B3
:101D300000F03CFD01210D4800F056FD0BB030BD18
:101D400010B50B4C2478012C04D1002423462246E4
:101D500021462046054C34342060241D2160241D7A
:101D60002260241D236010BD0008024000040140D1
:101D70004D0000200948804709480047FEE7FEE77C
:101D8000FEE7FEE7FEE7FEE7FEE7FEE7FEE7FEE72B
:101D900004480549054A064B704700004105000804
:101DA00089010008C0000020C0060020C0020020F9
:101DB000C002002032490143324A1160704770B5B9
:101DC000002100230F22C4781CB32E4C246804F495
:101DD000E064C4F5E064C4F30721C1F10404E3B294
:101DE0000A4144789C40E1B28478144021430C07B6
:101DF000210E254C05786155047804F01F05012457
:101E0000AC4005786D11AD0005F1E025C5F8004145
:101E100009E0047804F01F050124AC401B4D06784E
:101E2000761145F8264070BD194A0A400243154B09
:101E30001B1F1A60704739B1124A121D1268024303
:101E4000104B1B1D1A6006E00E4A121D12688243D9
:101E50000C4B1B1D1A607047042808D14FF0E0217D
:101E6000096941F004014FF0E022116107E04FF0F1
:101E7000E021096921F004014FF0E022116170476F
:101E80000000FA050CED00E000E400E080E100E075
:101E900080FFFF1F10B504469848844208D10121F5
:101EA000084601F002FC0021012001F0FEFB76E073
:101EB0009348844208D10121022001F0F6FB002161
:101EC000022001F0F2FB6AE08E48844208D1012131
:101ED000042001F0EAFB0021042001F0E6FB5EE0B3
:101EE0008948844208D10121082001F0DEFB00214D
:101EF000082001F0DAFB52E08448844208D1012135
:101F0000102001F0D2FB0021102001F0CEFB46E0B2
:101F10007F48844208D10121202001F0C6FB002126
:101F2000202001F0C2FB3AE07A48844208D1012126
:101F3000402001F0BAFB0021402001F0B6FB2EE06A
:101F40007548844208D10121802001F0AEFB0021B8
:101F5000802001F0AAFB22E07048844208D10121D0
:101F6000801501F0A2FB0021A01501F09EFB16E0F8
:101F70006B48844208D10121401501F096FB0021F5
:101F8000601501F092FB0AE06648844207D1012106
:101F9000001501F08AFB0021201501F086FB10BD21
:101FA000F0B50A4600210023002400BF3DE00125D2
:101FB00005FA01F3156805EA03049C4234D105686B
:101FC0004F000326BE40B543056015794E00B5406D
:101FD0000668354305601579012D02D01579022D6B
:101FE00016D185684F000326BE40B54385605579FC
:101FF0004E00B540866835438560456801268E40B1
:10200000B5434560456896798E40B6B23543456024
:10201000C5684F000326BE40B543C560D5794E0064
:10202000B540C6683543C560491C1029BFD3F0BD13
:102030004FF6FF7101600021017141718171C17121
:10204000704708B54FF480320092009A0A4300921C
:10205000009AC261C161009AC261C2690092C269FC
:10206000009208BD0246002013690B400BB101200D
:1020700000E0002070470146086980B270470246C0
:10208000002053690B400BB1012000E00020704795
:102090000146486980B270470183704741837047A9
:1020A0000AB1018300E04183704741617047426992
:1020B0004A4042617047F0B5002300244D07ED0E01
:1020C00002FA05F3CE1000F1200555F826504E0710
:1020D000F70E0F26BE40B543CF1000F1200646F89C
:1020E0002750CE1000F1200555F8265045EA03048C
:1020F000CE1000F1200545F82640F0BD000002405A
:102100000004024000080240000C0240001002409F
:102110000014024000180240001C0240002002404F
:10212000002402400028024010B50446FA488442C8
:1021300008D10121102001F0FCFA0021102001F04B
:10214000F8FA57E0F548844209D10121480401F02A
:10215000DFFA00214FF4003001F0DAFA4AE0F048EB
:10216000844209D10121880401F0D2FA00214FF400
:10217000802001F0CDFA3DE0EA48844209D10121F6
:10218000C80401F0C5FA00214FF4002001F0C0FAA4
:1021900030E0E548844209D10121080501F0B8FA90
:1021A00000214FF4801001F0B3FA23E0DF488442AD
:1021B00008D10121202001F0BCFA0021202001F0EB
:1021C000B8FA17E0DA48844209D10121880701F002
:1021D0009FFA00214FF0804001F09AFA0AE0D548BA
:1021E000844207D10121400501F092FA00216005E7
:1021F00001F08EFA10BD2DE9FF4705460E4600247A
:10220000A14600BFA046B08900B100BF2C8A24F4CB
:102210004054F08804432C82AC8941F20C60844322
:10222000B08831890843718908430443AC81AC8A82
:1022300024F44074B0890443AC82684601F0F9F894
:10224000B548854202D0B948854202D1DDF80C90EC
:1022500001E0DDF80890A88900F4004040B109EBE6
:10226000C90000EB091031684900B0FBF1F707E045
:1022700009EBC90000EB091031688900B0FBF1F7E8
:102280006420B7FBF0F004012009642101FB107801
:10229000A88900F4004040B1322000EBC800B0FB38
:1022A000F1F000F00700044308E0322000EB0810D2
:1022B0006421B0FBF1F000F00F0004432C81BDE875
:1022C000FF874FF41651016000218180C180018198
:1022D0000C21418100218181704710B50246002008
:1022E000108A20F470600B884C8823438C88234329
:1022F000CC8823431843108210BD00210180418007
:102300008180C180704721B1828942F4005282816C
:1023100004E082894DF6FF731A4082817047028B78
:1023200002F47F420283028B0A430283704721B189
:10233000828942F40042828103E08289C2F30E0264
:102340008281704721B1828A42F40062828204E075
:10235000828A4FF2FF731A4082827047C1F30802EB
:102360008280704701468888C0F308007047028A5F
:102370004FF6F0731A400282028A0A4302827047C3
:1023800021B1828942F00202828104E082894FF603
:10239000FD731A408281704782894FF2FF731A40A1
:1023A000828182890A4382817047028A4FF6DF73F5
:1023B0001A400282028A0A430282704721B1028ACD
:1023C00042F48042028204E0028A4BF6FF731A4014
:1023D00002827047818941F001018181704721B1FA
:1023E000828A42F00802828204E0828A4FF6F77302
:1023F0001A4082827047028BD2B20283028B42EA79
:1024000001220283704721B1828A42F02002828237
:1024100004E0828A4FF6DF731A408282704721B14E
:10242000828A42F01002828204E0828A4FF6EF73C1
:102430001A4082827047828A4FF6FB731A4082826A
:10244000828A0A438282704721B1828A42F0020264
:10245000828204E0828A4FF6FD731A4082827047BE
:102460001AB1838A0B43838202E0838A8B4383827F
:102470007047F0B50346002400260025002040F6F2
:102480006A17B94200D100BF1846C1F3421401F0E7
:102490001F06012707FA06F5012C01D10C3004E0D4
:1024A000022C01D1103000E014301AB107682F431C
:1024B000076002E00768AF430760F0BD02460020F6
:1024C000B1F5007F00D100BF13880B400BB1012094
:1024D00000E00020704701F40072B2F5007F00D1E7
:1024E00000BFCA430280704770B502460024002333
:1024F0000025002040F66A16B14200D100BFC1F3AA
:10250000421501F01F03012606FA03F3012D13D132
:102510009689334017E0000000100140004400405D
:1025200000480040004C00400050004000140140B2
:1025300000780040007C0040022D02D1168A334012
:1025400001E0968A33400C12012606FA04F416883C
:10255000344013B10CB1012000E0002070BD10B573
:102560000022002340F66A14A14200D100BF0A12E3
:1025700001249440A3B2DC43048010BD10B504468E
:10258000FE48844208D10121084601F0D2F800211A
:10259000012001F0CEF89DE0B4F1804F08D1012177
:1025A000084601F0B5F80021012001F0B1F891E0F2
:1025B000F348844208D10121022001F0A9F800214A
:1025C000022001F0A5F885E0EE48844208D10121FF
:1025D000042001F09DF80021042001F099F879E031
:1025E000E948844208D10121082001F091F8002136
:1025F000082001F08DF86DE0E448844208D1012103
:10260000102001F085F80021102001F081F861E030
:10261000DF48844208D10121202001F079F800210F
:10262000202001F075F855E0DA48844208D10121F4
:10263000022001F07EF80021022001F07AF849E042
:10264000D548844209D10121080401F072F8002123
:102650004FF4803001F06DF83CE0D048844209D15D
:102660000121480401F065F800214FF4003001F029
:1026700060F82FE0CA48844209D10121880401F0A2
:1026800058F800214FF4802001F053F822E0C548AB
:10269000844208D10121402001F03AF80021402075
:1026A00001F036F816E0C048844208D101218020AC
:1026B00001F02EF80021802001F02AF80AE0BB4842
:1026C000844207D10121801501F022F80021A015D4
:1026D00001F01EF810BD00220288A84B98420ED0CF
:1026E000AC4B98420BD0B0F1804F08D0A44B98422D
:1026F00005D0A44B984202D0A34B984204D14FF688
:102700008F731A404B881A43A04B984207D0A04BB6
:10271000984204D04FF6FF431A400B891A430280B7
:102720004B68C3620B880385944B984202D0994B47
:10273000984201D18B7A03860123838270474FF040
:10274000FF31416000210180018141808172704729
:102750000185828270470A46002101884FF68F73F7
:10276000194011430180704741627047C162704750
:102770000146486A70470146088D704721B10288BA
:1027800042F00202028004E002884FF6FD731A4014
:102790000280704721B1028842F00402028004E006
:1027A00002884FF6FB731A400280704721B10288FD
:1027B00042F08002028004E002884FF67F731A40E4
:1027C0000280704702884FF6F7731A400280028831
:1027D0000A430280704702884FF6FF431A40028086
:1027E00002880A430280704721B1028842F0010248
:1027F000028004E002884FF6FE731A4002807047A0
:1028000070B5002400220023058C4FF6FE7635407B
:102810000584028C8388048B4FF68F752C40B51E7F
:102820002C400D882C43751E2A408D892A434D88E3
:102830002A43524DA84202D0564DA84213D14FF61A
:10284000F7752A40CD892A434FF6FB752A408D88BB
:102850002A434FF6FF652B404FF6FF552B400D8A5C
:102860002B434D8A2B43838004838D684563028408
:1028700070BD70B5002400220023058C4FF6EF7662
:1028800035400584028C8388048B48F6FF752C4004
:102890004FF6FF452C400D884FF6FF7606EA0525DA
:1028A0002C434FF6DF752A408D8906EA05152A4329
:1028B0004D8806EA05152A43304DA84202D0354D11
:1028C000A8421DD14FF67F752A40CD894FF6FF767D
:1028D00006EA05152A434FF6BF752A408D8806EA99
:1028E00005152A434FF6FF352B404FF2FF752B405D
:1028F0000D8A06EA85052B434D8A06EA85052B439A
:10290000838004838D688563028470BD70B5002464
:1029100000220023058C4FF6FF6635400584028CAB
:102920008388848B4FF68F752C404FF6FC752C40B6
:102930000D882C434FF6FF552A408D894FF6FF76C0
:1029400006EA05252A434D8806EA05252A430B4D4C
:10295000A84202D00F4DA84238D14FF2FF752A404D
:10296000CD894FF6FF7606EA05252A434FF6FF3557
:102970002A408D8806EA05252A4319E00000014017
:102980000004004000080040000C0040001000401F
:102990000014004000040140004001400044014098
:1029A0000048014000180040001C0040002000408A
:1029B0004EF6FF752B404DF6FF752B400D8A06EA4B
:1029C00005152B434D8A06EA05152B438380848326
:1029D0008D68C563028470BD70B500220023002499
:1029E000058C4EF6FF7635400584038C8488828BF7
:1029F00048F6FF752A404FF6FF452A400D884FF6EE
:102A0000FF7606EA05252A434DF6FF752B408D8992
:102A100006EA05352B434D8806EA05352B43FE4D66
:102A2000A84202D0FD4DA84208D14BF6FF752C40BC
:102A30000D8A4FF6FF7606EA85152C438480828343
:102A40008D680564038470BD002101804180818010
:102A500081608181C18101824182704770B50346E6
:102A6000002000241846183001258D40ACB21D8C82
:102A7000A5431D8409B108290AD100EB610005684E
:102A80004FF68F76354005600568154305600FE009
:102A90000D1FC5F34E052844056848F6FF763540FE
:102AA000056005684FF6FF7606EA022635430560A5
:102AB00070BD4163704781637047C16370470164B3
:102AC00070470A460021018B4FF68F73194011435E
:102AD000018370470A460021018B48F6FF731940B5
:102AE0004FF6FF7303EA02231943018370470A4636
:102AF0000021818B4FF68F731940114381837047FA
:102B00000A460021818B48F6FF7319404FF6FF7388
:102B100003EA02231943818370470A460021018B8F
:102B20004FF6F77319401143018370470A4600219D
:102B3000018B4FF2FF7319404FF6FF7303EA022334
:102B40001943018370470A460021818B4FF6F773C2
:102B500019401143818370470A460021818B4FF24F
:102B6000FF7319404FF6FF7303EA02231943818371
:102B700070470A460021018B4FF6FB731940114341
:102B8000018370470A460021018B4FF6FF3319403D
:102B90004FF6FF7303EA02231943018370470A4685
:102BA0000021818B4FF6FB731940114381837047DD
:102BB0000A460021818B4FF6FF3319404FF6FF7311
:102BC00003EA02231943818370470A460021018BDF
:102BD0004FF67F7319401143018370470A46002165
:102BE000018BC1F30E014FF6FF7303EA0223194371
:102BF000018370470A460021818B4FF67F7319408D
:102C00001143818370470A460021818BC1F30E0175
:102C10004FF6FF7303EA02231943818370470A4684
:102C20000021018C4FF6FD73194011430184704758
:102C30000A460021018C4FF6F773194011430184B5
:102C400070470A460021018C4FF6DF7319404FF69A
:102C5000FF7303EA02131943018470470A460021F7
:102C6000018C4FF67F7319404FF6FF7303EA02138E
:102C70001943018470470A460021018C4FF6FF5327
:102C800019404FF6FF7303EA02231943018470478A
:102C90000A460021018C4FF2FF7319404FF6FF7373
:102CA00003EA02231943018470470A460021018C7C
:102CB0004DF6FF7319404FF6FF7303EA02331943D1
:102CC0000184704730B5002301248C40A3B2048CEA
:102CD0009C430484048C02FA01F5ADB22C430484B5
:102CE00030BD30B5002304248C40A3B2048C9C4337
:102CF0000484048C02FA01F5ADB22C43048430BD87
:102D0000828B4FF2FF331A408283828B4FF6FF7320
:102D100003EA01231A4382837047F0B50C46154637
:102D2000002100220026078C4EF6FF7C07EA0C07E4
:102D30000784818B028C4FF6FF7707EA043640F652
:102D4000FF4739404FF6FF7707EA052739434FF62B
:102D5000FF7707EA0337394345F6FF773A4046F4F1
:102D600080573A4381830284F0BD828B4FF6F37320
:102D70001A408283828B0A4382837047F0B50C46E7
:102D80001546002100220026078C4FF6FF6C07EA4B
:102D90000C070784818B028C4FF6FF7707EA042625
:102DA0004FF60C7739404FF6FF7707EA03172F43AA
:102DB00039434FF2FF573A4046F480773A438183D4
:102DC0000284F0BD028B4FF2FF331A400283028B64
:102DD0004FF6FF7303EA01231A4302837047F0B5ED
:102DE0000C461546002100220026078C4FF6EF7C8A
:102DF00007EA0C070784018B028C4FF6FF7707EA7E
:102E0000041640F6FF4739404FF6FF7707EA0337CD
:102E100039434FF6FF7703E0000001400004014012
:102E200007EA052739434FF65F773A4046F0100727
:102E30003A4301830284F0BD028B4FF6F3731A40CC
:102E40000283028B0A4302837047F0B50C46154695
:102E500000210022068C4FF6FE773E400684018B4F
:102E6000028C4FF60C7631407E1C06EA03162E4388
:102E700031434FF6F576324044F001063243018388
:102E80000284F0BD70B505460C46208850B92389F0
:102E9000A28861882846FFF7D8FFE1882846FFF717
:102EA000CBFF25E0208804280AD12389A2886188E5
:102EB0002846FFF794FFE1882846FFF783FF17E0D5
:102EC000208808280AD12389A28861882846FFF72C
:102ED00055FFE1882846FFF748FF09E02389A288CB
:102EE00061882846FFF719FFE1882846FFF708FFA9
:102EF00070BD002101804180012181800021C180BD
:102F0000018170472DE9F04105460C460026012756
:102F1000608808B9022600E00026A088012801D1B7
:102F2000022700E001272088A0B92389A2886188B0
:102F30002846FFF78AFFE1882846FFF77DFF2389AF
:102F40003A4631462846FFF74AFFE1882846FFF710
:102F500039FF13E02389A28861882846FFF73FFFE5
:102F6000E1882846FFF72EFF23893A463146284656
:102F7000FFF76BFFE1882846FFF75EFFBDE8F081B1
:102F80000146486B70470146886B70470146C86B25
:102F900070470146086C70470A884B881A438B8833
:102FA0001A43CB881A430B891A434B891A438B89DE
:102FB0001A43A0F84420704700210180418081809D
:102FC000C180018141818181704731B1B0F84420D5
:102FD00042F40042A0F8442005E0B0F84420C2F3D7
:102FE0000E02A0F84420704721B1828842F004020A
:102FF000828004E082884FF6FB731A40828070471B
:1030000021B1828842F00102828004E082884FF67A
:10301000FE731A40828070471AB183890B43838103
:1030200002E083898B438381704781827047024627
:103030000020138A0B400BB1012000E000207047F4
:10304000CA430282704730B50246002000230024A4
:10305000158A05EA0103958905EA010413B10CB14B
:10306000012000E0002030BDCA430282704741EADF
:103070000203A0F8483070471AB183890B4383815B
:1030800002E083898B438381704721B1828842F0BB
:103090000802828004E082884FF6F7731A4082802B
:1030A000704701894FF6F8721140018170470A4656
:1030B000002101894FF68F73194011430181704738
:1030C00030B504460D4629462046FFF7F0FF20891B
:1030D00040F00700208130BD2DE9F04104460D4647
:1030E00016461F46602D06D13B460122314620463A
:1030F000FFF775FE05E03B46012231462046FFF70B
:10310000A4FE29462046FFF7D2FF208940F00700A1
:103110002081BDE8F08130B50C4600210189C9B29B
:103120004FF6FF7505EA0325154325432943018121
:1031300030BD2DE9F04105460E461746984600245D
:1031400043463A4631462846FFF7E5FF2C894FF6BD
:10315000F870044044F007044FF68F70044044F0C8
:1031600070042C81BDE8F081F0B504460D4616468A
:103170001F463B46324629462046FFF7CCFF2089B2
:1031800040F480402081F0BD82884FF68F731A4052
:10319000828082880A438280704702894FF6F873E2
:1031A0001A40028102890A430281704702894FF660
:1031B0007F731A40028102890A4302817047F0B589
:1031C0000C4615461E460021002200230189028B71
:1031D000038C4FF6F877394021434FF6FC473A40CD
:1031E00040F201173A434FF6DD773B404FF6FF7749
:1031F00007EA06172F433B43018102830384F0BD96
:1032000021B1828842F08002828004E082884FF6F9
:103210007F731A4082807047A0F8501070470000FA
:10322000F948006840F00100F74908600020F649BD
:1032300008310860F4480068F4490840F249086021
:10324000F348091D0860F348EF4984310860F048ED
:103250001038091D0860EC48006820F48020EA4915
:1032600008600020E8490C310860E7498C310860AB
:1032700070470021E44A921C117011460870704793
:1032800010B501460022002300204A11012A02D174
:10329000DD4C236808E0022A03D1DB4C703423683C
:1032A00002E0D94C7434236801F01F0201249440D9
:1032B0001C400CB1012000E0002010BD38B50020FA
:1032C00000900024002500BF3120FFF7D9FF0546FC
:1032D0000098401C00900098B0F5A04F01D0002D40
:1032E000F2D03120FFF7CCFF08B1012400E0002428
:1032F000204638BD01460020C34A106820F0F8007F
:1033000040EAC10010607047C3490860704700215F
:10331000BD4A703211701170012802D004280AD100
:1033200004E00121B84A7032117005E00521B64A67
:103330007032117000E000BF00BF7047B7490860ED
:10334000704770B5049C41EA82150126C6EB53060E
:1033500045EA0645054345EA0465AB4E361D356032
:1033600070BDAD4908667047820142EA0172A64B02
:1033700084331A607047A8498866704710B5830186
:1033800043EA016343EA02739F4C8834236010BD13
:10339000A14908677047A049C864704702460020E9
:1033A000994B0833186820F0EC6042EA0103184397
:1033B000954B08331860704702460020924B083343
:1033C000186820F0784042EA010318438E4B083316
:1033D00018607047014600208B4A0832106820F0C0
:1033E000030008431060704787480830006800F009
:1033F0000C00704701460020834A0832106820F014
:10340000F000084310607047014600207E4A0832F1
:10341000106820F4E0500843106070470146002017
:10342000794A0832106820F4604040EAC100106018
:103430007047F0B500210022002402250026022357
:10344000714F08373F6807F00C0121B1042905D0FE
:10345000082937D105E0724F076036E0714F0760E9
:1034600033E0694F3F1D3F68C7F38056664F3F1DED
:103470003F6807F03F036EB16A4FB7FBF3F7DFF821
:1034800088C10CF1040CDCF800C0CCF3881C07FBED
:103490000CF40CE0624FB7FBF3F7DFF86CC10CF1F2
:1034A000040CDCF800C0CCF3881C07FB0CF4564F6E
:1034B0003F1D3F68C7F301477F1C7D00B4FBF5F754
:1034C000076002E0564F076000BF00BF4E4F08374D
:1034D0003F6807F0F0010909534F7A5C0768D7404D
:1034E0004760494F08373F6807F4E051890A4E4F5B
:1034F0007A5C4768D7408760434F08373F6807F4D6
:103500006041490B484F7A5C4768D740C760F0BDBF
:10351000002100F44072B2F5407F0AD13A4A0832E5
:10352000116821F4F811414A02401143364A083229
:103530001160354A70321268C0F30B031A43324BE4
:1035400070331A6070473549443908607047334911
:1035500040390860704736490860704701460020CE
:10356000294A8C32106820F01F004A1E1043264A58
:103570008C321060704701460020234A8C3210685C
:1035800020F4F8504A1E40EA02201F4A8C32106094
:103590007047014600201C4A8C32106820F440100D
:1035A00008431060704701460020174A8C321068AB
:1035B00020F4400008431060704701460020124A82
:1035C0008C32106820F4403008431060704719496D
:1035D0000860704739B10C4A3032126802430A4B16
:1035E00030331A6006E0084A303212688243064BD4
:1035F00030331A607047F9B1034A3432126802431B
:10360000014B34331A601CE000380240FFFFF6EA39
:10361000103000240030002000004742800E474256
:103620000024F40000127A004E000020FFFCFF0F7F
:103630005C014742E01147428F4A126882438E4B39
:103640001A60704739B18C4A121D126802438A4BC6
:103650001B1D1A6006E0884A121D12688243864BC1
:103660001B1D1A60704739B1834A0C32126802433D
:10367000814B0C331A6006E07F4A0C321268824399
:103680007D4B0C331A60704739B17B4A1032126897
:103690000243794B10331A6006E0774A1032126801
:1036A0008243754B10331A60704739B1724A243A1D
:1036B00012680243704B243B1A6006E06E4A243ABB
:1036C000126882436C4B243B1A60704739B16A4AD6
:1036D000203A12680243684B203B1A6006E0664AB3
:1036E000203A12688243644B203B1A60704739B11C
:1036F000614A1C3A126802435F4B1C3B1A6006E0A9
:103700005D4A1C3A126882435B4B1C3B1A6070474F
:1037100039B1594A143A12680243574B143B1A60A4
:1037200006E0554A143A12688243534B143B1A6020
:10373000704739B1504A103A126802434E4B103B61
:103740001A6006E04C4A103A126882434A4B103B1A
:103750001A60704739B1484A1C3212680243464B1E
:103760001C331A6006E0444A1C3212688243424B02
:103770001C331A60704739B13F4A20321268024345
:103780003D4B20331A6006E03B4A203212688243E8
:10379000394B20331A60704739B1374A24321268E6
:1037A0000243354B24331A6006E0334A2432126850
:1037B0008243314B24331A60704739B12E4A2C3280
:1037C000126802432C4B2C331A6006E02A4A2C3232
:1037D00012688243284B2C331A60704739B1264A4D
:1037E000303212680243244B30331A6006E0224A1A
:1037F000303212688243204B30331A607047012800
:1038000008D11D493C31096841F008011A4A3C328F
:10381000116007E018493C31096821F00801164A97
:103820003C321160704739B1134A273A127802438B
:10383000114B273B1A7006E00F4A273A1278824351
:103840000D4B273B1A7070470B484030006840F022
:103850008070094940310860704701460020064ADF
:10386000283A12680A400AB1012000E0002070479F
:10387000014926390870704734380240704700000B
:103880000FB4044910B503AA029800F0FFF810BC69
:103890005DF814FB440000202DE9F0410E4604467B
:1038A000002020622046E168884730B3252805D0F3
:1038B000D4E901219047206A401CF2E7E1682046E4
:1038C00000278847050018D0A5F14100192802D823
:1038D00020354FF400673246294620462760FCF722
:1038E0008DFC40B1012804D0F61D26F007060836ED
:1038F000D8E7361DD6E72846DAE7206ABDE8F0812A
:103900002DE9F0410646002410687529314616A5B8
:1039100010D0AFF30080002802DA404213A507E080
:1039200031688A0701D512A502E0490704D511A51F
:10393000012401E0AFF3008000210A2206F12407F0
:1039400009E0B0FBF2FCB0FBF2F302FB1C003030EC
:1039500078541846491C0028F3D123462A4630469D
:10396000BDE8F04100F038B8000000002D00000074
:103970002B0000002000000070B504460D462146D3
:103980001068AFF300802188090502D50F4A7A44F8
:1039900002E00E4A7A440E32002104F1240305E0CD
:1039A00000F00F060009965D5E54491C0028F7D10F
:1039B00020780023000704D5702D02D009B102231E
:1039C00011322046BDE8704000F006B8C401000086
:1039D00070477047704770472DE9F0470D4699468C
:1039E0009246044600F124080168880604D5E0697F
:1039F00021F01001216000E00120A84201DD471BF9
:103A000000E00027A1697A1902EB0900081AA061F9
:103A10002078C00602D42046AFF30080002608E0DC
:103A2000D4E901211AF806009047206A401C761C50
:103A300020624E45F4DB2078C0060AD52046AFF35D
:103A4000008006E0D4E9012130209047206A401C24
:103A50002062381EA7F10107F4DC07E0D4E9012158
:103A600018F805009047206A401C2062281EA5F126
:103A70000105F3DC2046AFF300802078000602D574
:103A80000220BDE8F0870120FBE70000074B70B57E
:103A90000D467B4400F011F80446284600F020F85B
:103AA00010B14FF0FF3070BD204670BD19DDFFFF33
:103AB00001694A1C02610878704700B58FB0CDE9F2
:103AC00001310021059105497944CDE903101146E2
:103AD0006846FFF7E1FE0FB000BD0000E5FFFFFF05
:103AE000007B00F080007047754600F02BF8AE4672
:103AF00005006946534620F00700854618B020B5FA
:103B0000FEF746F9BDE820404FF000064FF00007F1
:103B10004FF000084FF0000B21F00701AC46ACE875
:103B2000C009ACE8C009ACE8C009ACE8C0098D46E2
:103B3000704710B50446AFF300802046BDE8104042
:103B4000FCF773BB00487047600000204FF04070E6
:103B5000E1EE100A704730313233343536373839B8
:103B600041424344454640305800303132333435C9
:103B7000363738396162636465664030780000002A
:103B8000A03B00080000002060000000C401000805
:103B9000003C00086000002060060000E001000812
:103BA00000000000000000000000000032000100E2
:103BB00000000A0000000000007A030A0000000074
:103BC00000000000010203040607080900000A00C3
:103BD000000000000000204E204E204E204E007DB0
:103BE00000000000000000000000000000000000D5
:103BF0000000010203040102030406070809000093
:040000050800018965
:00000001FF
