:020000040800F2
:1000000030090020398F0008E1100008E3100008D3
:10001000E7100008EB100008EF10000800000000D7
:10002000000000000000000000000000F3100008C5
:10003000F510000800000000F7100008F910000893
:10004000538F0008538F0008538F0008538F000808
:10005000538F0008538F0008538F0008538F0008F8
:10006000538F0008538F0008538F0008538F0008E8
:10007000538F0008538F0008538F0008538F0008D8
:10008000538F0008538F0008538F0008538F0008C8
:10009000538F0008538F0008538F0008538F0008B8
:1000A000538F0008538F0008538F0008538F0008A8
:1000B000B7890008898A00085D8B0008538F000803
:1000C000538F0008538F0008538F0008538F000888
:1000D000538F000819840008DF8500086F7000083E
:1000E000538F0008538F0008538F0008538F000868
:1000F000538F0008538F0008538F0008538F000858
:10010000538F0008538F00082B8C0008538F000872
:10011000538F0008538F0008053A00080B8D000824
:10012000538F0008538F0008538F0008538F000827
:10013000538F0008538F0008538F0008538F000817
:10014000538F0008538F0008538F0008538F000807
:10015000538F0008538F0008538F0008538F0008F7
:10016000538F0008538F0008538F0008538F0008E7
:10017000538F0008538F0008538F0008538F0008D7
:10018000538F0008538F000800F002F800F075F854
:100190000AA090E8000C82448344AAF10107DA45E2
:1001A00001D100F06AF8AFF2090EBAE80F0013F0BF
:1001B000010F18BFFB1A43F0010318470CD20000CF
:1001C0002CD200000A444FF0000C10F8013B13F051
:1001D000070408BF10F8014B1D1108BF10F8015BA0
:1001E000641E05D010F8016B641E01F8016BF9D193
:1001F00013F0080F1EBF10F8014BAD1C0C1B09D1EA
:100200006D1E58BF01F801CBFAD505E014F8016B5B
:1002100001F8016B6D1EF9D59142D6D370470000ED
:100220000023002400250026103A28BF78C1FBD8FF
:10023000520728BF30C148BF0B60704766290BF0DA
:10024000D38564290AF0348478290AF06D846329FF
:100250000AF0A88773290AF0AD87002070471FB500
:100260000BF0BDFD0AF0BCFF0400002000210BF0E4
:1002700029FDE0601FBD10B510BD0BF0CDF8114693
:10028000FFF7EDFF00F008F80BF0EBF803B4FFF711
:10029000F2FF03BC08F05CF808B54FF4A06008F06A
:1002A0006BFEA82007F0D2FF4FF4E13008F05EF8B3
:1002B0004FF4165008F06AFA4FF4E13006F06CFE85
:1002C00007F047FF04F047FB07F062FF07F09EFFCF
:1002D00005F055FF06F0F8F806F032FC532140F225
:1002E000F31008F0A5FD08F007FB08F073FB08F019
:1002F000DBFB08F043FC42F2CF01962008F0A4FC9F
:1003000006F0F3FC002005F011FFFA4800234FF639
:10031000FF7201210090084605F003FCF6A00AF0E8
:1003200091FBF1E3002007F048FF012816D1F548C2
:10033000007898B90120F44908604FF47A7007F00A
:10034000E7FF0020F149C1F8B40202F0B8FE06F060
:10035000E6FB0120EE490870EA490870ED48007894
:1003600001280ED1EC48ED49096801600078EC499C
:10037000087008460178EBA00AF064FB0020E5490C
:100380000870E748007873286FD2DFE800F03A473A
:1003900054616F7C8996A3A76E6E6E6E6E6EABB164
:1003A000F0F8EDECEBEAE9E86E6E6E6E6E6EE7E685
:1003B000E5E4E3E2E1E0DFDE6E6E6E6E6E6EDDDCE4
:1003C000DBDAD9D8D7D6D56E6E6E6E6E6E6ED4D39C
:1003D000D2D1D0CFCECDCCCB6E6E6E6E6E6ECAC982
:1003E000C8C7C6C5C4C3C2C16E6E6E6E6E6EC0BFD6
:1003F000BEBD6E6EBCBBBAB96E6E6E6E6E6E6EB802
:10040000B7000020C2490870CA4CE378A27861782E
:10041000207806F0F2FC06F030FC80E20020BC49B7
:100420000870C44CE378A2786178207806F0E5FC87
:1004300006F031FC73E20020B5490870BD4CE3784A
:10044000A2786178207806F0D8FC06F040FC66E2DD
:100450000020AF490870B74CE378A2786178207823
:1004600006F0CBFC06F025FC59E257E20020A84933
:100470000870B04CE378A2786178207806F0BDFC73
:1004800006F04FFC4BE20020A1490870A94CE3782C
:10049000A2786178207806F0B0FC06F034FC3EE2E9
:1004A00000209B490870A34CE378A27861782078FB
:1004B00006F0A3FC06F043FC31E2002094490870EA
:1004C0009C4CE378A2786178207806F096FC06F0E0
:1004D00044FC24E201208C49086020E200208A4983
:1004E00008601CE200208A49087006F0FEFB16E254
:1004F00000208749087006F0F8FB10E20AE205E2E6
:1005000095E08CE083E07AE0F8E1EFE1E6E1DDE11F
:10051000D4E1CBE1C2E1B9E1B0E1A7E19EE195E12F
:100520008CE183E17AE171E168E15FE156E14DE15F
:1005300044E13BE132E129E120E117E10EE105E18F
:10054000D0E0C7E0C5E0C0E0BBE0B2E0A9E0A0E0D9
:1005500097E092E08DE088E07CE070E047E03EE0EC
:1005600035E02CE023E01AE011E008E0FFE702F0BC
:10057000A6FD06F0D4FA012065490870CFE102F02B
:100580009EFD06F0CCFA022061490870C7E102F036
:1005900096FD06F0C4FA03205D490870BFE102F041
:1005A0008EFD06F0BCFA042059490870B7E102F04C
:1005B00086FD06F0B4FA052055490870AFE102F057
:1005C0007EFD06F0ACFA062051490870A7E102F062
:1005D00076FD06F0A4FA07204D4908709FE102F06D
:1005E0006EFD06F09CFA08204949087097E102F078
:1005F00066FD06F094FA0920454908708FE102F083
:100600005EFD06F08CFA0A204149087087E102F08D
:1006100056FD06F084FA0B203D4908707FE102F098
:100620004EFD06F07CFA0C203949087077E102F0A3
:1006300046FD06F074FA0D20354908706FE1052279
:100640000121002000F0C4FF3B480069401D3A49E9
:10065000086164E105220021084600F0B9FF364830
:100660000069401F3449086159E134A007F073FF65
:1006700055E133A007F06FFF51E132A007F06BFFA7
:100680004DE102F01CFD06F04AFA142020490870E2
:1006900045E102F014FD06F042FA15201C490870ED
:1006A0003DE102F00CFD06F03AFA162018490870F8
:1006B00035E102F004FD06F032FA17201449087003
:1006C0002DE101202049087029E100201E49087011
:1006D00025E124E102F0F3FC06F021FA18200C4990
:1006E00008701CE102F0EBFC06F019FA1920084929
:1006F000087014E1ED010020B3F5CABCBBAFCDEA30
:10070000B3C90A0012000020B48240420080404277
:10071000EC00002001000020060000200200002064
:1007200010000020CAD5B5BD7531D6B8C1EEA3BA48
:1007300025780A00CC010020B00100203100000023
:100740003200000033000000CB01002002F0B7FCB3
:1007500006F0E5F91A20F1490870E0E002F0AFFC7C
:1007600006F0DDF91B20ED490870D8E002F0A7FC87
:1007700006F0D5F91C20E9490870D0E002F09FFC92
:1007800006F0CDF91D20E5490870C8E0B7EE000A73
:1007900001221146104600F0B9FDC0E0B7EE000A94
:1007A00000220121084600F0B1FDB8E09FEDDC0A0F
:1007B00001220221104600F0A9FDB0E09FEDD80A09
:1007C00000220221012000F0A1FDA8E0B7EE000AFE
:1007D00001220321104600F099FDA0E0B7EE000AC7
:1007E00000220321012000F091FD98E0B7EE000AFD
:1007F00001221146022000F089FD90E0B7EE000AC8
:1008000000220121022000F081FD88E09FEDC40A52
:1008100001220221084600F079FD80E09FEDC00A28
:1008200000220221084600F071FD78E0B7EE000AD0
:1008300001220321022000F069FD70E0B7EE000AFA
:1008400000220321022000F061FD68E0B7EE000AFB
:1008500001221146032000F059FD60E0B7EE000AC6
:1008600000220121032000F051FD58E09FEDAC0A69
:1008700001220221032000F049FD50E09FEDA80A6B
:1008800000220221032000F041FD48E09FEDA50A6F
:1008900001220321084600F039FD40E09FEDA10A46
:1008A00000220321084600F031FD38E0B7EE000ACF
:1008B00001221146042000F029FD30E0B7EE000AC5
:1008C00000220121042000F021FD28E09FED940A80
:1008D00001220221042000F019FD20E09FED900A82
:1008E00000220221042000F011FD18E09FED8D0A86
:1008F00001220321042000F009FD10E09FED890A88
:1009000000220321042000F001FD08E001208649B7
:10091000087004E000208449087000E000BF00BFB8
:100920006420824908708248007810287ED2DFE86F
:1009300000F00809203754A1C9F4F3F2F1F0EFEE0A
:10094000EDECDCE201207B490860AFF2102007F0FB
:1009500035FE79A000234FF6FF726421009002203B
:1009600005F040F976A00AF06DF800207049087093
:10097000C5E201206F490860AFF23C2007F01EFE7F
:1009800074A000234FF6FF7264210090022005F04E
:1009900029F973A00AF056F8002065490870AEE204
:1009A00075A000234FF6FF7264210090022005F02D
:1009B00019F9744803F05AF9724803F06DF9714857
:1009C00003F080F902F07BFB03205449087004F027
:1009D0003DFD00205649087091E26BA00AF032F804
:1009E00000202023B42264210090022005F012FD93
:1009F0006EA000234FF6FF7264210090022005F0E4
:100A0000F1F801216E4803F0D9F901216C4803F097
:100A10006FFA01216A4803F09AFA6AA00AF012F804
:100A200000202023B4226421009000E066E202202E
:100A300005F0F0FC6EA000234FF6FF7264210090D9
:100A4000022005F0CFF801215D4803F0F5FA0121FD
:100A50005B4803F020FB0121594803F04BFB02F0F7
:100A60002EFB04202D49087004F03CFD0020304985
:100A7000087044E263A009F0E5FF00202023B422BF
:100A800064210090022005F0C5FC66A000234FF60B
:100A9000FF7264210090022005F0A4F8484803F09A
:100AA00058FB474803F08DFB454803F0A0FB02F0DC
:100AB00006FB05201949087004F088FD00201C4938
:100AC00008701CE25CA009F0BDFF00202023B422C6
:100AD00064210090022005F09DFC5EA000234FF6EB
:100AE000FF7264210090022005F07CF8642007F07A
:100AF0000FFC01200F490860AFF2B83007F05EFD2F
:100B000000200B490870FAE1FAE1C2E176E152E116
:100B100030E11CE1FAE0E6E0C4E0A3E0EC000020F4
:100B20000AD7233CCDCCCC3DF9000020100000209A
:100B300011000020B4824042C9A8C2EB00000000AE
:100B4000BBFAD0B5B1DBC4A3CABD5BC9A8C2EB5D1B
:100B50000A0000004F56C9A8C3E8C9CFB2E300009D
:100B6000BBFAD0B5B1DBC4A3CABD5B4F56C9A8C39D
:100B7000E8C9CFB2E35D0A00D7A5C8A1C9CFB2E3E7
:100B800000000000E5010020BBFAD0B5B1DBC4A332
:100B9000CABD5BB4D6BCD3B9A4C7F8B7C5D6C32009
:100BA000C9CFB2E3C4A3CABD5D0A0000B4D6BCD3AA
:100BB000B9A4C7F8C9CFB2E3B7C5D6C300000000D7
:100BC000ED010020BBFAD0B5B1DBC4A3CABD5BB454
:100BD000D6BCD3B9A4C7F8D6D8D0C2D7A5C8A1CEA1
:100BE000EFC1CF20C9CFB2E3C4A3CABD5D0A0000E4
:100BF000B4D6BCD3B9A4C7F8D6D8D0C2D7A5C8A19B
:100C000000000000BBFAD0B5B1DBC4A3CABD5BB025
:100C1000EBB3C9C6B7C7F8C9CFB2E3B7C5D6C35D92
:100C20000A000000B0EBB3C9C6B7C7F8C9CFB2E33A
:100C3000B7C5D6C300000000BBFAD0B5B1DBC4A372
:100C4000CABD5BC9A8C3E8CFC2B2E3CEEFC1CF5DD6
:100C50000A000000C9A8C3E8CFC2B2E3CEEFC1CFFB
:100C600000000000A7A009F0EDFE00202023B42220
:100C700064210090022005F0CDFBAAA000234FF6CE
:100C8000FF7264210090022004F0ACFFA94803F039
:100C90002FF802F014FA0620A74908700020A7498F
:100CA00008702CE1A6A009F0CDFE00202023B4227C
:100CB00064210090022005F0ADFBA8A000234FF6B0
:100CC000FF7264210090022004F08CFF4FF4397011
:100CD000A549486302F0F3F90720974908700020FE
:100CE000964908700BE1A1A009F0ACFE03F01DFCD1
:100CF00003F097FC8F4803F012F802F0E0F90820A7
:100D00008D49087000208D490870F8E09FA009F017
:100D100099FE00202023B42264210090022005F0D7
:100D200079FBA1A000234FF6FF72642100900220FE
:100D300004F058FF4FF439708B49486302F0BFF953
:100D400009207D49087000207C490870D7E099A0EF
:100D500009F078FE03F0E9FB03F0ACFC754802F003
:100D6000F5FF02F0ACF90A207349087000207349BE
:100D70000870C4E096A009F065FE00202023B4228C
:100D800064210090022005F045FB98A000234FF657
:100D9000FF7264210090022004F024FF4FF43970A8
:100DA0007149486302F08BF90B20634908700020F9
:100DB00062490870A3E090A009F044FE00202023BF
:100DC000B42264210090022005F024FB92A00023AD
:100DD0004FF6FF7264210090022004F003FF03F03D
:100DE000A4FB03F097FC02F06AF90C20524908704A
:100DF00004F052FB00205149087080E089A009F0FE
:100E000021FE00202023B42264210090022005F05E
:100E100001FB8EA000234FF6FF7264210090022098
:100E200004F0E0FE02218D4802F0C8FF02218B4849
:100E300003F05EF80221894803F089F888A009F0E0
:100E400001FE00202023B42264210090022005F03E
:100E5000E1FA8EA000234FF6FF7264210090022079
:100E600004F0C0FE02217D4803F0E6F802217B4831
:100E700003F011F90221794803F03CF902F01FF95F
:100E80000D202D49087004F02DFB00202B4908701F
:100E900035E082A009F0D6FD00202023B422642191
:100EA0000090022005F0B6FA86A000234FF6FF72EC
:100EB00064210090022004F095FE8748007848B92C
:100EC000664803F0AAF9654803F0E5F9634803F0C2
:100ED000F8F908E0614803F00AFA604803F03FFAC5
:100EE0005E4803F052FA02F0EAF80E201249087048
:100EF0000020124908707949087000E000BF00BF67
:100F0000FFF710BABBFAD0B5B1DBC4A3CABD5BD73B
:100F1000BCB1B8B5DAD2BBB4CED7A5C8A1CFC2B2E6
:100F2000E35D0A00B5DAD2BBB4CED7A5C8A1CFC263
:100F3000B2E30000E9010020EC00002011000020D5
:100F4000BBFAD0B5B1DBC4A3CABD5BB5DAD2BBB4C2
:100F5000CED7A6D7D3B1D5BACF5D0A00D7A6D7D3FF
:100F6000B1D5BACF3100000000400140BBFAD0B586
:100F7000B1DBC4A3CABD5BBBFAD0B5B1DBB5DAD275
:100F8000BBB4CECAD5BBD85D0A000000BBFAD0B551
:100F9000B1DBC4A3CABD5BB5DAB6FEB4CED7A6D763
:100FA000D3B1D5BACF5D0A00D7A6D7D3B1D5BACFC2
:100FB00032000000BBFAD0B5B1DBC4A3CABD5BD719
:100FC000BCB1B8B5DAC8FDB4CED7A5C8A15D0A00DA
:100FD000BBFAD0B5B1DBC4A3CABD5BB5DAC8FDB4FA
:100FE000CED7A6D7D3B1D5BACF5D0A00D7A6D7D36F
:100FF000B1D5BACF33000000BBFAD0B5B1DBC4A382
:10100000CABD5BCFC2B2E3D7A5C8A1B5DAC8FDB4EB
:10101000CEB4E6B7C55D0A00CFC2B2E3B7C5D6C34A
:1010200033000000BBFAD0B5B1DBC4A3CABD5BB4CA
:10103000D6BCD3B9A4C7F8B7C5D6C3CEEFC1CF20AD
:10104000CFC2B2E3C4A3CABD5D0A0000BCD3B9A439
:10105000C7F8CFC2B2E3B7C5D6C30000ED01002088
:10106000BBFAD0B5B1DBC4A3CABD5BB4D6BCD3B99F
:10107000A4C7F8D6D8D0C2D7A5C8A1CEEFC1CF207B
:10108000CFC2B2E3C4A3CABD5D0A0000BCD3B9A4F9
:10109000C7F8CFC2B2E3D7A5C8A10000BBFAD0B54C
:1010A000B1DBC4A3CABD5BB0EBB3C9C6B7C7F8B761
:1010B000C5D6C3CEEFC1CF20CFC2B2E3C4A3CABD51
:1010C0005D0A0000B0EBB3C9C6B7C7F8CFC2B2E340
:1010D000B7C5D6C300000000FA00002012000020AF
:1010E000704700BFFEE700BFFEE700BFFEE700BF9E
:1010F000FEE7704770477047704700000CB500204E
:10110000019000907648006840F48030744908608F
:1011100000BF7348006800F4003000900198401C44
:101120000190009818B90198B0F5A04FF1D16C4822
:10113000006800F4003010B10120009001E00020B0
:1011400000900098012846D165484030006840F082
:1011500080506349403108606248006840F4404074
:10116000604908605E48083000685D4908310860E1
:101170000846006840F4004008600846006840F4F3
:10118000A05008605848091F0860081F006840F018
:101190008070091F086000BF5148006800F00070AF
:1011A0000028F9D040F20570504908604C480830DA
:1011B000006820F003004A490831086008460068CA
:1011C00040F00200086000BF45480830006800F0A9
:1011D0000C000828F8D10CBD10B54548006840F453
:1011E0007000434908603E48006840F001003C49F7
:1011F000086000203A4908310860394800683D49D4
:101200000840374908603C48091D0860081F00680D
:1012100020F48020091F0860002031490C3108604B
:10122000FFF76CFF4FF0006031498039086010BD56
:1012300070B500200022022300240221284D083529
:101240002D6805F00C0020B1042806D0082834D100
:1012500007E02A4D2A4E356033E02A4D284E35608E
:101260002FE01F4D2D1D2D68C5F380541C4D2D1DE5
:101270002D6805F03F0154B1224DB5FBF1F5184E34
:10128000361D3668C6F3881605FB06F209E01B4DCD
:10129000B5FBF1F5124E361D3668C6F3881605FB10
:1012A00006F20F4D2D1D2D68C5F301456D1C6B0019
:1012B000B2FBF3F5124E356003E0104D104E356071
:1012C00000BF00BF064D08352D68C5F303150E4E4F
:1012D000705D0B4D2D68C540094E356070BD000036
:1012E000003802400070004008544007003C0240B3
:1012F00088ED00E0FFFFF6FE103000240024F4002B
:101300001400002000127A001800002070B52DEDA6
:10131000088B84B006460C461546B0EE408A012E76
:1013200006D0022E3BD0032E72D0042E6FD1A6E041
:10133000012C0FD13DB1F84890ED000A30EE080ABB
:1013400080ED000A06E0F44890ED000A30EE480A0D
:1013500080ED000A022C0FD13DB1F04890ED000A5B
:1013600030EE080A80ED000A06E0EC4890ED000A35
:1013700030EE480A80ED000A032C0FD13DB1E84859
:1013800090ED000A30EE080A80ED000A06E0E4481D
:1013900090ED000A30EE480A80ED000AA7E0012C2B
:1013A0000FD13DB1DF4890ED000A30EE080A80ED24
:1013B000000A06E0DB4890ED000A30EE480A80EDB6
:1013C000000A022C0FD13DB1D74890ED000A30EE53
:1013D000080A80ED000A06E0D34890ED000A30EEDE
:1013E000480A80ED000A032C0FD13DB1CF4890EDA3
:1013F000000A30EE080A80ED000A06E0CB4890EDC6
:10140000000A30EE480A80ED000A70E000E06DE06E
:10141000012C0FD13DB1C64890ED000A30EE080A0C
:1014200080ED000A06E0C24890ED000A30EE480A5E
:1014300080ED000A022C0FD13DB1BE4890ED000AAC
:1014400030EE080A80ED000A06E0BA4890ED000A86
:1014500030EE480A80ED000A032C0FD13DB1B648AA
:1014600090ED000A30EE080A80ED000A06E0B2486E
:1014700090ED000A30EE480A80ED000A37E0012CBA
:101480000FD13DB1AD4890ED000A30EE080A80ED75
:10149000000A06E0A94890ED000A30EE480A80ED07
:1014A000000A022C0FD13DB1A54890ED000A30EEA4
:1014B000080A80ED000A06E0A14890ED000A30EE2F
:1014C000480A80ED000A032C0FD13DB19D4890EDF4
:1014D000000A30EE080A80ED000A06E0994890ED17
:1014E000000A30EE480A80ED000A00E000BF00BFAD
:1014F0008B4800680AF002FC41EC190B8748006831
:101500000AF0FCFB41EC1A0B834800680AF0F6FB7A
:1015100041EC1B0B8DED029B8DED00AB53EC1B2BB7
:1015200089A009F08FFA814800680AF0E7FB41ECD6
:10153000190B7D4800680AF0E1FB41EC1A0B794871
:1015400000680AF0DBFB41EC1B0B8DED029B8DED7F
:1015500000AB53EC1B2B7CA009F074FA76480068B2
:101560000AF0CCFB41EC190B724800680AF0C6FB8C
:1015700041EC1A0B6E4800680AF0C0FB41EC1B0BF3
:101580008DED029B8DED00AB53EC1B2B6EA009F093
:1015900059FA6C4800680AF0B1FB41EC190B684835
:1015A00000680AF0ABFB41EC1A0B644800680AF0D3
:1015B000A5FB41EC1B0B8DED029B8DED00AB53ECBD
:1015C0001B2B67A009F03EFA04B0BDEC088B70BD80
:1015D000052878D2DFE800F0035E7891E40061BB73
:1015E000654BD3ED000A00EE102AB8EE400A30EE4B
:1015F000C00A83ED000A614BD3ED000A00EE102A09
:10160000B8EE400A30EEC00A83ED000A5C4BD3ED21
:10161000000A00EE102AB8EE400A30EEC00A83ED50
:10162000000A584BD3ED000A00EE102AB8EE400A2B
:1016300030EEC00A83ED000A2BE04F4BD3ED000AD9
:1016400000EE102AB8EE400A30EE800A83ED000A60
:101650004A4BD3ED000A00EE102AB8EE400A30EEF5
:10166000800A83ED000A464BD3ED000A00EE102AF3
:10167000B8EE400A30EE800A83ED000A414BD3ED0C
:10168000000A00EE102AB8EE400A30EE800A83ED20
:10169000000A9FE059B9384BD3ED000A00EE102A3A
:1016A000B8EE400A30EEC00A83ED000A0AE0324B81
:1016B000D3ED000A00EE102AB8EE400A30EE800AA0
:1016C00083ED000A86E084E059B92C4BD3ED000A83
:1016D00000EE102AB8EE400A30EEC00A83ED000A90
:1016E0000AE0264BD3ED000A00EE102AB8EE400ABD
:1016F00030EE800A83ED000A6CE059B9204BD3ED3F
:10170000000A00EE102AB8EE400A30EEC00A83ED5F
:10171000000A44E038E000004000002044000020BF
:10172000480000204C000020500000205400002001
:10173000580000205C0000206000002064000020B1
:10174000680000206C0000205B25302E31662025CB
:10175000302E32662025302E31665D0900000000F3
:101760005B25302E31662025302E32662025302E26
:1017700031665D0A00000000700000207800002043
:101780008000002088000020FE4BD3ED000A00EE10
:10179000102AB8EE400A30EE800A83ED000A19E004
:1017A00059B9F94BD3ED000A00EE102AB8EE400A01
:1017B00030EEC00A83ED000A0AE0F34BD3ED000AD5
:1017C00000EE102AB8EE400A30EE800A83ED000ADF
:1017D00000E000BF00BF7047052835D2DFE800F009
:1017E00003141C242C0000EE101AB8EE400AE64A3E
:1017F00082ED000AE34A82ED000AE44A82ED000A23
:10180000E34A82ED000A20E000EE101AB8EE400A2A
:10181000DF4A82ED000A18E000EE101AB8EE400A26
:10182000DA4A82ED000A10E000EE101AB8EE400A23
:10183000D44A82ED000A08E000EE101AB8EE400A21
:10184000D14A82ED000A00E000BF00BF7047D148D6
:10185000007800F0800060B3CE48007800F07F0090
:1018600000EE100AB8EEC00AC94880ED000AC94867
:10187000007800F07F0000EE100AB8EEC00AC348FE
:1018800080ED000AC348007800F07F0000EE100AE7
:10189000B8EEC00ABB4880ED000ABE48007800F0F0
:1018A0007F0000EE100AB8EEC00AB74880ED000ACB
:1018B00013E09FEDB90AB64880ED000A9FEDB60A25
:1018C000B24880ED000A9FEDB40AAE4880ED000AF0
:1018D0009FEDB10AAC4880ED000A704700B50146A3
:1018E000AC480170007840F08000AA4A1070FFF701
:1018F000AEFF00BD012806D002282DD0032854D009
:1019000004287BD17BE091ED000AB8EEC00AA34A1F
:10191000D2ED000AB4EEE00AF1EE10FA05DD92ED28
:10192000000ABDEEC00A81ED000A91ED000AB8EE92
:10193000C00A9A4AD2ED000AF1EE600AB4EEE00A5B
:10194000F1EE10FA07D292ED000AB1EE400ABDEEB8
:10195000C00A81ED000A7CE091ED000AB8EEC00AF1
:101960008F4AD2ED000AB4EEE00AF1EE10FA05DD7E
:1019700092ED000ABDEEC00A81ED000A91ED000A69
:10198000B8EEC00A864AD2ED000AF1EE600AB4EE63
:10199000E00AF1EE10FA07D292ED000AB1EE400A29
:1019A000BDEEC00A81ED000A53E091ED000AB8EEE9
:1019B000C00A7C4AD2ED000AB4EEE00AF1EE10FA59
:1019C00005DD92ED000ABDEEC00A81ED000A91ED41
:1019D000000AB8EEC00A734AD2ED000AF1EE600ABE
:1019E000B4EEE00AF1EE10FA07D292ED000AB1EE81
:1019F000400ABDEEC00A81ED000A2AE028E091ED20
:101A0000000AB8EEC00A684AD2ED000AB4EEE00A55
:101A1000F1EE10FA05DD92ED000ABDEEC00A81ED8F
:101A2000000A91ED000AB8EEC00A5F4AD2ED000A42
:101A3000F1EE600AB4EEE00AF1EE10FA07D292ED90
:101A4000000AB1EE400ABDEEC00A81ED000A00E0D6
:101A500000BF00BF704708B5F0EE401A4C4890ED4B
:101A6000000A31EEC00AB0EE401A504890ED000A6C
:101A700031EE400AB0EE402A4D4890ED000A30EEBB
:101A8000010A80ED000A90ED000ADFED4A0AB4EE8B
:101A9000E00AF1EE10FA03D29FED460A80ED000A4B
:101AA000434890ED000ADFED440AB4EEE00AF1EE9F
:101AB00010FA03DD9FED400A80ED000A3C4890EDEE
:101AC000000A3E48D0ED000A20EE200A3C4880ED96
:101AD000000A3C4890ED000A60EE010AF2EE042A8A
:101AE00080EEA20A3848D0ED000A60EE820AF2EEDB
:101AF000042A80EEA23A30EE030A3148D0ED000A03
:101B000030EE200ABDEEC00A8DED000A274880EDB8
:101B1000001A69460120FFF7EDFE009808BD08B5E0
:101B2000F0EE401A194890ED000A31EEC00AB0EE0E
:101B3000401A264890ED000A31EE400AB0EE402AE5
:101B4000234890ED000A30EE010A80ED000A90ED86
:101B5000000ADFED180AB4EEE00AF1EE10FA03D243
:101B60009FED140A80ED000A194890ED000ADFEDA0
:101B7000120AB4EEE00AF1EE10FA2DDD9FED0E0A26
:101B800028E000008000002088000020780000206D
:101B9000700000209000002000000C427400002023
:101BA0007C000020840000208C0000209C0000208D
:101BB000A0000020000048C200004842440000206D
:101BC000A40000204000002048000020A8000020C1
:101BD000AC00002080ED000AF14890ED000AF148C9
:101BE000D0ED000A20EE200AEF4880ED000AEF4811
:101BF00090ED000A60EE010AF2EE042A80EEA20ADD
:101C0000EB48D0ED000A60EE820AF2EE042A80EE84
:101C1000A23A30EE030AE448D0ED000A30EE200A82
:101C2000BDEEC00A8DED000AE24880ED001A69465B
:101C30000220FFF75FFE009808BD08B5F0EE401ADD
:101C4000DD4890ED000A31EEC00AB0EE401ADB48E4
:101C500090ED000A31EE400AB0EE402AD84890EDEF
:101C6000000A30EE010A80ED000A90ED000A5FEDF7
:101C70002F0AB4EEE00AF1EE10FA03D21FED330A98
:101C800080ED000ACE4890ED000A5FED350AB4EE13
:101C9000E00AF1EE10FA03DD1FED390A80ED000ACB
:101CA000C74890ED000AC748D0ED000A20EE200A90
:101CB000C54880ED000AC54890ED000A60EE010AB3
:101CC000F2EE042A80EEA20AC148D0ED000A60EECE
:101CD000820AF2EE042A80EEA23A30EE030ABA48F3
:101CE000D0ED000A30EE200ABDEEC00A8DED000AEC
:101CF000B24880ED001A69460320FFF7FBFD00980B
:101D000008BD08B5F0EE401AB24890ED000A31EE79
:101D1000C00AB0EE401AB04890ED000A31EE400A19
:101D2000B0EE402AAD4890ED000A30EE010A80ED99
:101D3000000A90ED000A5FED610AB4EEE00AF1EEF0
:101D400010FA03D21FED650A80ED000AA34890ED5A
:101D5000000A5FED670AB4EEE00AF1EE10FA03DD67
:101D60001FED6B0A80ED000A9C4890ED000A9C482C
:101D7000D0ED000A20EE200A9A4880ED000A9A4829
:101D800090ED000A60EE010AF2EE042A80EEA20A4B
:101D90009648D0ED000A60EE820AF2EE042A80EE48
:101DA000A23A30EE030A8F48D0ED000A30EE200A46
:101DB000BDEEC00A8DED000A874880ED001A694625
:101DC0000420FFF797FD009808BDF0EE400A88490F
:101DD000097801EE901AF8EE611A70EEE11AB0EE91
:101DE000610A8449D1ED001A70EE611AB0EE611AF1
:101DF0008149D1ED001AB7EE002A71EE821AC1EDC9
:101E0000001AB3EE0E2AF4EEC21AF1EE10FA30DD2B
:101E1000DFED7A1AC1ED001A7949D1ED001A71EEA1
:101E2000801AC1ED001AD1ED001A9FED762AF4EE6A
:101E3000C21AF1EE10FA03D2DFED721AC1ED001AE8
:101E40006F49D1ED001A9FED702AF4EEC21AF1EE3F
:101E500010FA03DDDFED6C1AC1ED001A6849D1ED0F
:101E6000001A6A4991ED002A61EE821A6849C1EDB3
:101E7000001A6849D1ED001A21EE802ADFED662AAA
:101E8000C2EE221A654991ED002A22EE012AF2EEF5
:101E9000042A82EE223A71EE831A5D4991ED002AFE
:101EA00071EE821AFDEEE11A11EE900A514981EDB0
:101EB000000A7047F0EE400A4D49097801EE901A89
:101EC000F8EE611A70EEE11AB0EE610A5449D1EDF4
:101ED000001A70EE611AB0EE611A5249D1ED001A83
:101EE000B7EE002A71EE821AC1ED001AB3EE0E2A87
:101EF000F4EEC21AF1EE10FA30DDDFED401AC1ED5A
:101F0000001A4949D1ED001A71EE801AC1ED001A8C
:101F1000D1ED001A9FED3B2AF4EEC21AF1EE10FA51
:101F200003D2DFED381AC1ED001A3F49D1ED001A96
:101F30009FED352AF4EEC21AF1EE10FA03DDDFED63
:101F4000321AC1ED001A3849D1ED001A374991ED26
:101F5000002A61EE821A3649C1ED001A3549D1EDE9
:101F6000001A21EE802ADFED2C2AC2EE221A324915
:101F700091ED002A22EE012AF2EE042A82EE223AA4
:101F800071EE831A2A4991ED002A71EE821AFDEE54
:101F9000E11A11EE900A224981ED000A7047000013
:101FA000AC00002050000020B00000204C000020B9
:101FB00054000020A800002080000020B400002071
:101FC000B80000205C000020BC0000205800002069
:101FD0006000002088000020C0000020C400002015
:101FE00068000020C8000020640000206C00002071
:101FF00098000020CC000020D80000200000000045
:10200000D00000200000FAC30000FA432C0000209A
:10201000D4000020280000200000C842300000202A
:10202000DC000020E8000020E00000203800002054
:10203000E4000020340000203C00002010B52DED0D
:10204000088B86B0022004F00DFA041E01DB204646
:1020500000E06042FD490860032004F003FA041E1A
:1020600001DB204600E06042F8494860042004F0AB
:10207000F9F9041E01DB204600E06042F349886064
:10208000052004F0EFF9041E01DB204600E0604269
:10209000EE49C860EE48007800287BD1ED48007812
:1020A000012836D1ECA008F0CDFCE848D0ED000ABC
:1020B000F8EEE00AB0EE600AFFF7CDFC4042E949D5
:1020C0000860E248D0ED010AF8EEE00AB0EE600ADE
:1020D000FFF725FD4042E349091D0860DB48D0EDCC
:1020E000020AF8EEE00AB0EE600AFFF7A6FD4042F1
:1020F000DC490C310860D548D0ED030AF8EEE00A5F
:10210000B0EE600AFFF7FDFD4042D6490831086095
:102110003AE0CE48D0ED000AF8EEE00AB0EE600AF0
:10212000FFF799FCD04909780844CE490860C748B0
:10213000D0ED010AF8EEE00AB0EE600AFFF7EFFC1E
:10214000C94949780844C749091D0860BF48D0ED0E
:10215000020AF8EEE00AB0EE600AFFF76EFDC2492F
:1021600089780844BF490C310860B848D0ED030AAB
:10217000F8EEE00AB0EE600AFFF7C3FDBA49C9788D
:102180000844B84908310860B64808300068643827
:10219000AE494861B5480078002844D0AB48C068D3
:1021A0000090AA48836842680168B1A008F04AFC20
:1021B000AC48083000680090AA480C300368A94871
:1021C000001D0268001F0168AFA008F03BFCB34887
:1021D000006809F093FD41EC180BB148006809F064
:1021E0008DFD41EC190BAF48006809F087FD41EC0B
:1021F0001A0BAD48006809F081FD41EC1B0B8DED19
:10220000048B8DED029B8DED00AB53EC1B2BA7A037
:1022100008F018FCAC480378AC480288AC48018848
:10222000ACA008F00FFC06B0BDEC088B10BD10B5DB
:10223000044604F076F9A649088004F098F9A34909
:10224000088004F0B7F9A949088004F0D7F9A84933
:1022500008800620FFF742FB002C74D19C480088C0
:1022600040F2E931884213D19848008888420FD162
:102270009E48008888420BD19D480088884207D13B
:102280009CA008F0DFFB04F030FD04F048FC5AE0AD
:102290008F48008840F25641884205D08C4800881B
:1022A00040F24C41884229D18848008840F256418A
:1022B000884205D08548008840F24C4188421DD1B3
:1022C0008A48008840F25641884205D087480088F5
:1022D00040F24C41884211D18548008840F2564175
:1022E000884205D08248008840F24C41884205D19E
:1022F00082A008F0A7FB04F030FD24E074480088B9
:102300006F2803D0724800880B281CD16F480088C2
:102310006F2803D06D4800880B2814D173480088BB
:102320006F2803D0714800880B280CD170480088B2
:102330006F2803D06E4800880B2804D172A008F0E3
:1023400081FB04F00AFD012C73D16948008840F23A
:10235000E93188420CD15D48008848B904F0C5FCD9
:1023600004F0DDFB00206B4908706B49087060E0E9
:102370005648008898BB5E4800886F2809D05C48A2
:10238000008840F2F331884203D0594800880B2876
:1023900002D104F080FC4CE05548008840F25641E0
:1023A00088420AD05248008840F24D41884204D009
:1023B0004F480088491E884202D104F05EFC38E094
:1023C0004B48008840F25741884209D15148007873
:1023D00030B904F060FC16204E49087029E010E086
:1023E0004348008840F25741884222D14948017849
:1023F0000078401E474A107001291AD104F03DFCB4
:1024000017E0324800880B2803D0304800880128A4
:1024100002D104F094FC0CE02C48008840F24C41BE
:10242000884204D029480088B0F57A7F01D104F0B1
:1024300094FC022C72D12D48008840F2E931884288
:1024400077D12348008800B969E072E0B00100202C
:10245000CB010020F8000020CDA3B3B5C4A3CABDB2
:102460000000000034040140CC010020F9000020ED
:10247000B1E0C2EBC6F75B2564202564202564200B
:1024800025645D090000000050574D5B2564202540
:10249000642025642025645D090000008800002078
:1024A00080000020780000207000002054535B253D
:1024B0002E306620252E306620252E306620252ED3
:1024C00030665D0900000000ED000020F2000020F1
:1024D000F0000020485B2564207C2025645D0973A2
:1024E0007465705B25645D0A00000000F400002044
:1024F000F60000205BCDA3B3B55D00005B596177AA
:10250000CFF2D7F35D0000005B596177CFF2D3D2F1
:102510005D000000FB000020EC00002051E004F012
:10252000E4FB04F0FCFA0020FE490870FE49087044
:102530008CE0FE48008898BBFD4800886F2809D0D1
:10254000FB48008840F2F331884203D0F848008805
:102550000B2802D104F0ADFB78E0F548008840F28A
:10256000564188420AD0F248008840F24D418842E4
:1025700004D0EF480088491E884202D104F0A7FB2E
:1025800064E0EB48008840F25741884209D1E548B1
:10259000007830B904F08DFB1620E249087055E050
:1025A00010E0E348008840F2574188424ED1DD48B0
:1025B00001780078401EDB4A1070012946D104F0F2
:1025C00086FB43E0D94800880B2803D0D748008811
:1025D000012802D104F0B3FB38E0D448008840F26F
:1025E0004C41884204D0D1480088B0F57A7F02D1AE
:1025F00004F0B3FB2AE0CD48008840F256418842FF
:1026000005D0CA48008840F24C4188420CD1C848E5
:10261000008840F25641884203D0C54800880B2804
:1026200002D104F09AFB11E0C04800886F2803D063
:10263000BE4800880B2809D1BD4800886F2803D008
:10264000BB4800880B2801D104F087FBFFF7F6FC9C
:1026500010BD10B504460B2C78D2DFE804F07706E5
:10266000111B25303D4A57646D0004F006FB002025
:10267000B04908700120B049087004F015F866E010
:1026800004F009FB0220AB490870AB49087004F064
:102690000BF85CE004F01BFB0320A6490870A64978
:1026A000087004F001F852E004F003FB0120A14996
:1026B00008700420A049087003F0F6FF47E00020EE
:1026C00004F05BFA022004F078FA022004F095FA94
:1026D000022004F0B2FA3AE0022004F04EFA0020A0
:1026E00004F06BFA022004F088FA022004F0A5FA44
:1026F0002DE0022004F041FA022004F05EFA0020EE
:1027000004F07BFA022004F098FA20E0022004F0A2
:1027100034FA022004F051FA022004F06EFA00208C
:1027200004F08BFA13E004F0A8FA00208349087043
:102730001E20FFF7D3F80AE004F0ADFA01207F492C
:1027400008700020FFF7CAF801E0FFE700BF00BFF4
:10275000FFF774FC10BD10B503F0E3FE7349088069
:1027600003F005FF7649088076480078A0B9232059
:10277000FFF7B4F804F08FFA02206E4908706E4932
:1027800008700020704908701F20704908706D485B
:102790000078401C6B49087003F086FF6B48007896
:1027A000002808DD67480078012804D167480078D0
:1027B000401E664908706548007840B96148007855
:1027C000012804D15F480078401C5E4908705C48CD
:1027D000008840F2E931884208D15A48007802283E
:1027E00004D158480078401C564908705448008865
:1027F00040F25641884208D152480078032804D15B
:1028000050480078401C4F4908704D48008840F2FD
:10281000E931884208D14B480078042804D149485E
:102820000078401C474908704548008840F25641EE
:10283000884208D143480078052804D141480078EF
:10284000401C404908703E48008840F2E931884207
:1028500012D13C48007806280ED104F038FA032043
:1028600034490870344908701F20384908703548C9
:102870000078401C3349087034480078002808DD8F
:1028800030480078072804D130480078401E2F498E
:1028900008702E48007840B92A480078072804D1EB
:1028A00028480078401C274908702048008840F2DA
:1028B000E931884208D123480078082804D121480A
:1028C0000078401C1F4908701848008840F25641A3
:1028D000884208D11B480078092804D1194800789B
:1028E000401C184908701648008878B915480078C7
:1028F0000A280BD104F013F904F0CDF90A20FEF7F1
:10290000EDFF10480078401C0E4908700748008809
:1029100030BB0C4800780B2822D104F0E6F904F013
:10292000FEF815E0FB000020EC000020F000002085
:10293000F4000020C8010020C9010020F800002098
:10294000F2000020ED000020CA010020EE0000206F
:102950000020FB490870FB480078401CF9490870CA
:10296000FFF76CFB10BD10B503F0DBFDF6490880E6
:1029700003F0FDFDF549088003F040FEF4490880AE
:10298000F448007800287DD1EE48007888B92320EB
:10299000FEF7A4FF04F07FF90220EF490870EF4929
:1029A00008700120EE490870E6480078401CE549AF
:1029B0000870E648008840F2E931884208D1E148D1
:1029C0000078012804D1DF480078401CDD490870F8
:1029D000DE48008840F25641884208D1D948007844
:1029E000022804D1D7480078401CD6490870D7483F
:1029F000008840F2E931884208D1D24800780328A3
:102A000004D1D0480078401CCE490870CF480088D7
:102A100040F25641884208D1CA480078042804D1BF
:102A2000C8480078401CC7490870C848008840F270
:102A30005641884205D0C548008840F2E9318842B5
:102A400018D1C0480078052814D11920FEF746FF98
:102A500004F03DF90120C24908700320BE49087006
:102A6000BE4908702320BF490870B6480078401C52
:102A7000B4490870BB48007800280ADDB1480078E6
:102A8000062800E06BE004D1B6480078401EB54946
:102A90000870B448007840B9AA480078062804D1E4
:102AA000A8480078401CA7490870A748008840F251
:102AB000E931884208D1A3480078072804D1A14809
:102AC0000078401C9F4908709F48008840F256419A
:102AD00088420BD19B480078082807D19948007894
:102AE000401C984908700F20FEF7F8FE96480088B1
:102AF00040F2E931884203D0934800886F280BD117
:102B000090480078092807D18E480078401C8D49EC
:102B100008700720FEF7E2FE8B48008840F256411D
:102B200088421BD1874800780A28FAD18548007866
:102B3000401C8449087004F0D8F803F0F0FF00202E
:102B400089490870FEF783FE00207D490870874898
:102B500000780028E5D10F2085490870EBE079481E
:102B6000007888B92320FEF7B9FE04F094F802201B
:102B700079490870794908700120794908707148CD
:102B80000078401C6F4908707048008840F2E931B5
:102B9000884208D16B480078012804D16948007840
:102BA000401C684908706948008840F256418842D4
:102BB00008D164480078022804D162480078401C9B
:102BC000604908706148008840F2E931884208D1C4
:102BD0005C480078032804D15A480078401C5949C1
:102BE00008705A48008840F25641884208D155483A
:102BF0000078042804D153480078401C51490870DB
:102C00005248008840F25641884205D04F4800881B
:102C100040F2E931884218D14A480078052814D199
:102C20001920FEF75BFE04F052F801204C490870B1
:102C30000320494908704949087023204949087010
:102C400040480078401C3F490870464800780028FA
:102C500008DD3C480078062804D142480078401E30
:102C6000404908703F48007840B936480078062847
:102C700004D134480078401C32490870324800883A
:102C800040F2E931884208D12E480078072804D163
:102C90002C480078401C2B4908702B48008840F2D3
:102CA0005641884208D127480078082804D1254891
:102CB0000078401C234908702348008840F2E9311D
:102CC000884208D11F480078092804D11D4800789F
:102CD000401C1C4908701C48008840F2564188423C
:102CE0000BD1184800780A2807D116480078401CF4
:102CF000144908700F20FEF7F1FD15480088D0B97F
:102D0000104800780B2816D10E480078401C0D4959
:102D1000087003F0EAFF03F002FF00201249087078
:102D2000FEF795FD0020064908701048007810B99C
:102D30000F200F49087003F0B7FCFFF77FF910BDB3
:102D4000EC000020ED000020F0000020F200002048
:102D5000F6000020FA000020C8010020C901002070
:102D6000CA010020EE00002090000020F9000020A1
:102D70001100002010B5044603F0D3FBFE49088083
:102D800003F0F5FBFD490880012C7DD1FC4800785B
:102D900098B91920FEF7A2FDB3EE090AF94880EDB3
:102DA000000A03F094FF0320F7490870F749087000
:102DB000F3480078401CF2490870EF48008840F260
:102DC000E93188420DD1EE480078012809D1EC485C
:102DD0000078401CEA4908700020ED490870FEF7B1
:102DE00036FDE548008840F25641884208D1E44863
:102DF0000078022804D1E2480078401CE0490870BD
:102E0000DD48008840F2E931884208D1DC4800788A
:102E1000032804D1DA480078401CD9490870D64804
:102E2000008840F25641884210D1D54800780428E5
:102E30000CD1B2EE0E0AD34880ED000A0F20FEF747
:102E40004DFDCF480078401CCD490870CA48008825
:102E500040F2E931884216D1C9480078052812D1DC
:102E60000720FEF73BFD03F008FF0020C64908706D
:102E70000120C64908700020C6490870C048007883
:102E8000401CBF49087000E029E003F00DFCFFF78B
:102E9000D5F8B9480088002820D1B948007806281C
:102EA000FAD1B7480078401CB549087003F01DFFFF
:102EB00003F035FE0020B6490870FEF7C8FC9FED10
:102EC000B60AB04880ED000A2A20B4490870B44818
:102ED00000780028E0D10420B24908709EE0A8489C
:102EE0000078B0B91920FEF7F9FCB3EE090AA5483D
:102EF00080ED000A03F0EBFE0320A3490870A3490C
:102F000008701F20A84908709D480078401C9C4903
:102F1000087003F0C9FBA4480078002808DD984831
:102F20000078012804D1A0480078401E9E4908700E
:102F30009D48007840B992480078012804D1904813
:102F40000078401C8E4908708B48008840F2E931B7
:102F5000884208D18A480078022804D1884800783D
:102F6000401C874908708448008840F256418842D6
:102F700010D18348007803280CD1B2EE0E0A8148A4
:102F800080ED000A0F20FEF7A9FC7D480078401C68
:102F90007B4908707848008840F2E931884216D1B0
:102FA00077480078042812D10720FEF797FC03F039
:102FB00064FE0020744908700120744908700020E4
:102FC000744908706E480078401C6D49087003F021
:102FD0006BFBFFF733F868480088F8B96848007859
:102FE00005281BD166480078401C6549087003F02D
:102FF0007CFE03F094FD002065490870FEF727FC75
:103000009FED650A5F4880ED000A2A206349087039
:103010006348007810B90E206249087010BD10B5E1
:10302000044603F07EFA544908805548007870B988
:103030000F20FEF753FC03F04AFE032052490870AC
:10304000524908704E480078401C4D49087003F002
:103050002BFB4948008840F2E931884203D04648BA
:1030600000880B2828D146480078012824D14448FC
:103070000078401C4249087003F037FE03F04FFD12
:10308000002043490870FEF7E2FB00204349087026
:103090004348007880B9012C03D1092041490870C8
:1030A0000AE0022C03D10B203E49087004E0032CF7
:1030B00002D10D203B490870FEF7C0FF10BD002073
:1030C0002F4908700A2038490870704710B5044627
:1030D000601E3649085C32286CD103F08FFA3449FF
:1030E00008802748007878B90F20FEF7F7FB03F037
:1030F000E0FD01202449087004202449087020487C
:103100000078401C1E49087003F0CEFA2848008859
:1031100058B91B480078012807D1102022490870AF
:1031200017480078401C164908701F48007800288E
:1031300008DD13480078022804D11B480078401E9F
:10314000194908701848007840B90D4800780228DD
:1031500004D10B480078401C0949087008480078E1
:1031600003283BD106480078401C0549087003F04D
:10317000BCFD03F0D4FC1EE0F0000020F2000020B3
:10318000ED00002094000020C8010020C9010020AB
:1031900090000020CA01002000000C42EC0000203A
:1031A000F900002011000020EE000020E9010020BD
:1031B000F60000201FE0FFF782FF0020FE490870A4
:1031C000FEF745FB0020FD490870FD480078002807
:1031D00061D1012C03D10820FA4908705BE0022C70
:1031E00003D10A20F749087055E0032C53D10C2075
:1031F000F44908704FE003F0BAF9F3490880F34846
:10320000007878B90F20FEF769FB03F052FD01202A
:10321000EF4908700420EF490870EC480078401C22
:10322000EA49087003F040FAE748008840B9E748E7
:103230000078012804D1E5480078401CE349087073
:10324000E2480078022826D1E0480078401CDF4997
:10325000087003F04AFD03F062FCFFF730FF002026
:10326000D5490870FEF7F3FA0020D4490870D44815
:10327000007880B9012C03D10820D24908700AE0F7
:10328000022C03D10A20CF49087004E0032C02D19C
:103290000C20CC490870FEF7D1FE10BD10B503F02C
:1032A00040F9CD49088003F062F9C7490880C74852
:1032B000007850B903F0FDFC0120C54908700420D6
:1032C000C44908700120C149087003F0EDF9C248F3
:1032D000008840F2E931884208D1BC4800780128D2
:1032E00004D1BA480078401CB8490870BA48008830
:1032F00040F25641884208D1B4480078022804D1EF
:10330000B2480078401CB1490870B348008840F2C8
:10331000E931884208D1AD480078032804D1AB4890
:103320000078401CA9490870AB48008840F256411B
:10333000884208D1A5480078042804D1A348007821
:10334000401CA2490870A448008840F2E931884234
:1033500008D19E480078052804D19C480078401C7C
:103360009A4908709C48008840F25641884208D12A
:1033700096480078062804D194480078401C934968
:1033800008709548008840F2E931884208D18F489A
:103390000078072804D18D480078401C8B490870BC
:1033A0008D48008840F2564188420BD1874800780A
:1033B000082807D11920FEF791FA84480078401CAC
:1033C000824908708448008840F2E93188421AD165
:1033D0007E480078092816D103F04FFC00207F4971
:1033E00008707B49087001207A49087000207249F2
:1033F0000870FEF72CFA75480078401C7349087075
:103400000B207749087076480078002808DD6F485F
:1034100000780A2804D172480078401E704908706C
:103420006F48007840B9694800780A2804D1674895
:103430000078401C654908706348008840F2E93113
:10344000884208D1614800780B2804D15F48007891
:10345000401C5E4908705C48008840F25641884232
:103460000BD15A4800780C2807D158480078401CE6
:10347000564908700C20FEF731FA5348008840F294
:10348000E93188421AD1514800780D2816D14F48A9
:103490000078401C4D49087003F027FC03F03FFB07
:1034A000002045490870FEF7D2F900204349087012
:1034B0004348007810B9062042490870FEF7BEFD67
:1034C00010BD10B503F02DF84349088003F04FF804
:1034D0003D49088003F092F8424908803B48007853
:1034E00088B92320FEF7FAF903F0D5FB022038490A
:1034F000087038490870012038490870334800784E
:10350000401C3249087003F0CFF82F48008840F281
:10351000E931884208D12D480078012804D12B4890
:103520000078401C294908702748008840F256411D
:10353000884208D125480078022804D12348007821
:10354000401C224908702048008840F2E931884236
:1035500008D11E480078032804D11C480078401C7C
:103560001A4908701848008840F25641884208D12C
:1035700016480078042804D114480078401C1349E8
:1035800008701148008840F25641884205D00E4824
:10359000008840F2E931884231D10C480078052892
:1035A0002DD11920FEF79AF903F091FB01200B4968
:1035B00008700320064917E090000020EC0000206E
:1035C000F900002011000020F2000020ED00002092
:1035D000C8010020C9010020F0000020CA0100201D
:1035E000EE000020F60000200870F9490870232042
:1035F000F8490870F8480078401CF7490870F54809
:103600000078002808DDF4480078062804D1F14845
:103610000078401EEF490870EE48007840B9EE4847
:103620000078062804D1EC480078401CEA4908706C
:10363000EA48008840F2E931884208D1E64800783B
:10364000072804D1E4480078401CE3490870E348A7
:10365000008840F25641884208D1DF4800780828A7
:1036600004D1DD480078401CDB490870DB48008845
:1036700040F2E931884208D1D7480078092804D1BE
:10368000D5480078401CD4490870D448008840F2DE
:10369000564188420BD1D04800780A2807D1CE483D
:1036A0000078401CCC4908700F20FEF717F9CC4871
:1036B0000088D0B9C84800780B2816D1C6480078D1
:1036C000401CC549087003F010FB03F028FA0020E5
:1036D000C4490870FEF7BBF80020C3490870C3480E
:1036E000007810B90520C2490870FEF7A7FC10BD8C
:1036F00010B502F016FFB949088002F038FFBD4945
:10370000088002F07BFFB6490880B348007880B992
:103710002820FEF7E3F803F0B0FA0020B64908705D
:103720000120AB4908700220B44908700120AA4961
:10373000087002F0B9FFAF48008840F2E9318842D2
:1037400008D1A5480078012804D1A3480078401C7E
:10375000A1490870A748008840F25641884208D124
:103760009D480078022804D19B480078401C9A4963
:103770000870A048008840F2E931884208D1964894
:103780000078032804D194480078401C92490870BE
:103790009848008840F25641884208D18E48007807
:1037A000042804D18C480078401C8B49087091484B
:1037B000008840F2E931884208D18748007805281E
:1037C00004D185480078401C8349087089480088E6
:1037D00040F2564188420BD17F480078062807D135
:1037E0007D480078401C7C4908700F20FEF776F871
:1037F0008048008840F2E931884203D07D48008843
:103800000B2814D174480078072810D1FEF766F809
:1038100003F05DFA0320784908706D4908700120B3
:10382000764908706C480078401C6B490870FEF7B8
:1038300005FC70480088D0B967480078082816D180
:1038400065480078401C6449087003F04EFA03F0A4
:1038500066F9002063490870FDF7F9FF29206249E5
:1038600008706248007810B902206149087010BDE4
:1038700010B502F056FE5949088002F078FE5D4905
:1038800008805548007860B92320FEF727F803F038
:1038900048FA51480078401C4F49087023204D4990
:1038A00008704C480078002808DD4B480078012853
:1038B00004D148480078401E4649087047480088AF
:1038C00040F2E931884218D143480078012814D1E8
:1038D0004048007888B903F0D0F91E20FDF7FEFFBC
:1038E0000020464908704449087001203849087092
:1038F00039480078401C3849087002F0D5FE3D4830
:10390000008840F2E931884207D13D48007820B96B
:103910003B480078401C3A4908703648008840F21D
:103920005641884208D136480078012804D13448ED
:103930000078401C324908702E48008840F2E93176
:10394000884208D12E480078022804D12C480078FB
:10395000401C2B4908702748008840F25641884295
:103960000FD12748007803280BD11A490870244842
:103970000078401C2249087017480078401C1649FE
:10398000087014480078002808DD134800780328E0
:1039900004D110480078401E0E4908700D48007888
:1039A00090B90D48007803280ED103F09EF903F07A
:1039B000B6F800200C490870114908700B480078CF
:1039C00010B901200A490870FEF738FB10BD00004D
:1039D000C9010020EE000020ED000020F0000020D2
:1039E000F600002090000020EC000020F9000020EC
:1039F00011000020F2000020C8010020CA010020B0
:103A0000FC00002010B50121FE4806F0FEFB002856
:103A100072D0FD4800782B287CD2DFE800F0161722
:103A20001A1D2124272B2F33373B3F43467B7B7BBB
:103A30007B7B494D5155595D6165696F7B7B7B7B14
:103A40007B7B7B7B7B7B7B73770064E0FFF710FFE6
:103A500061E0FFF74DFE5EE00120FFF78BF95AE0D1
:103A6000FFF72FFD57E0FFF719FC54E00120FFF7A7
:103A70002DFB50E00120FFF7D2FA4CE00220FFF7C7
:103A800025FB48E00220FFF7CAFA44E00320FFF7D5
:103A90001DFB40E00320FFF7C2FA3CE00220FFF7E5
:103AA00069F938E0FEF75FFF35E0FEF754FE32E0DB
:103AB0000120FEF7CEFD2EE00220FEF7CAFD2AE02F
:103AC0000320FEF7C6FD26E00420FEF7C2FD22E03B
:103AD0000520FEF7BEFD1EE00620FEF7BAFD1AE047
:103AE0000720FEF7B6FD16E00820FEF7B2FD12E053
:103AF0000920FEF7AEFD0EE012E00BE00A20FEF713
:103B0000A8FD08E00120FEF792FB04E00220FEF78A
:103B10008EFB00E000BF00BF0121BA4806F086FB23
:103B200010BD10B502F0FDFCB849088002F01FFD81
:103B3000B7490880B748007878B90F20FDF7CEFE66
:103B400003F0B7F80120B44908700420B3490870A5
:103B5000B0480078401CAF49087002F0A5FDAC48A1
:103B60000088D0B9AB480078012816D1A948007860
:103B7000401CA849087003F0B8F802F0D0FF0020FC
:103B8000A7490870FDF763FE00209F490870A5480B
:103B9000007810B90820A4490870FEF74FFA10BD4C
:103BA00010B502F0BEFC9949088002F0E0FC98498B
:103BB00008809848007870B90F20FDF78FFE03F059
:103BC00086F8032094490870944908709148007859
:103BD000401C9049087002F067FD8C48008840F254
:103BE000E931884203D0894800880B281AD18948D6
:103BF0000078012816D187480078401C8549087054
:103C000003F073F802F08BFF002085490870FDF780
:103C10001EFE00207C4908708248007810B90920F7
:103C200081490870FEF70AFA10BD70B505460024F8
:103C300019E0285D312804D0322807D033280FD16D
:103C400009E000F021FF00F0ECFC0AE000F050FF7A
:103C500000F030FD05E000F07FFF00F05BFD00E0CC
:103C600000BF00BF641C032CE3DB70BD10B504462D
:103C70002078312802D100F007FF0AE020783228AE
:103C800002D100F035FF04E02078332801D100F0A4
:103C900063FF00F0C6FC10BD10B504466078312803
:103CA00002D100F0F1FE0AE06078322802D100F083
:103CB0001FFF04E06078332801D100F04DFF00F0D1
:103CC000F9FC10BD10B50446A078312802D100F0EF
:103CD000DBFE0AE0A078322802D100F009FF04E000
:103CE000A078332801D100F037FF00F013FD10BD9C
:103CF00010B504462078312802D100F061FF0DE0B4
:103D00002078322802D100F0BEFF07E02078332867
:103D100004D100F0E1FF45A006F094FE10BD10B5FF
:103D200004466078312802D100F04AFF0DE0607847
:103D3000322805D100F0A7FF3EA006F083FE04E084
:103D40006078332801D100F0C7FF10BD10B50446DC
:103D5000A078312805D100F033FF38A006F072FEBC
:103D60000AE0A078322802D100F08DFF04E0A078AC
:103D7000332801D100F0B0FF10BD70B50546052411
:103D800019E0285D312804D0322807D033280FD11C
:103D900009E000F015FF00F044FC0AE000F073FFBA
:103DA00000F088FC05E000F097FF00F0B3FC00E0B5
:103DB00000BF00BF641C082CE3DB70BD70B5044677
:103DC0000D46012D5CD14FF439701E494863C8205F
:103DD00004F09EFA40F2BF301A498863322004F0A2
:103DE00097FA40F2244018490860322004F090FA13
:103DF00040F28B3015490860322004F089FA4FF404
:103E0000D77025E000100040EC000020F0000020FA
:103E1000F2000020ED000020C8010020C9010020B0
:103E200090000020F900002011000020D7A5BAEC76
:103E3000C9AB0000D7A5C2CCC9AB0000D7A5C0B69E
:103E4000C9AB000000400140344401403418004038
:103E5000FE49091D0860322004F05AFA2078312802
:103E600002D100F096FF42E02078322802D100F023
:103E7000C2FF3CE02078332839D100F058FF36E00B
:103E8000022D34D14FF43970F1494863C82004F051
:103E90003FFA40F2BF30EE498863322004F038FA2E
:103EA00040F22440EB490860322004F031FA40F23D
:103EB0008B30E6490860322004F02AFA4FF4D770BC
:103EC000E249091D0860322004F022FA20793128E5
:103ED00002D100F05EFF0AE02079322802D100F022
:103EE0008AFF04E02079332801D100F020FF70BD63
:103EF00070B504460D46012D13D100F0A7FC607883
:103F0000312802D100F045FF20E06078322802D14C
:103F100000F071FF1AE06078332817D100F007FF36
:103F200014E0022D12D100F091FC6079312802D109
:103F300000F02FFF0AE06079322802D100F05BFF29
:103F400004E06079332801D100F0F1FE70BD70B556
:103F500004460D46012D13D100F0ABFCA0783128AA
:103F600002D100F016FF20E0A078322802D100F044
:103F700042FF1AE0A078332817D100F0D8FE14E0F1
:103F8000022D12D100F095FCA079312802D100F069
:103F900000FF0AE0A079322802D100F02CFF04E0F3
:103FA000A079332801D100F0C2FE70BD70B505467E
:103FB0000E460024012E1ED100BF19E0285D3128D5
:103FC00004D0322807D033280FD109E000F0D2FB0B
:103FD00000F0DFFE0AE000F039FC00F00CFF05E025
:103FE00000F067FC00F0A3FE00E000BF00BF641C0F
:103FF000032CE3DB1FE0022E1DD1042419E0285D11
:10400000312804D0322807D033280FD109E000F03E
:10401000B1FB00F0BEFE0AE000F018FC00F0EBFE81
:1040200005E000F046FC00F082FE00E000BF00BFAB
:10403000641C072CE3DB70BD70B504460D46012DF2
:1040400013D12078312802D100F039FF0AE020781E
:10405000322802D100F065FF04E02078332801D136
:1040600000F0FBFE00F056FB14E0022D12D1207987
:10407000312802D100F023FF0AE02079322802D152
:1040800000F04FFF04E02079332801D100F0E5FE75
:1040900000F040FB70BD70B504460D46012D13D1F4
:1040A0006078312802D100F00AFF0AE060783228F7
:1040B00002D100F036FF04E06078332801D100F02F
:1040C000CCFE00F0F7FA14E0022D12D1607931280D
:1040D00002D100F0F4FE0AE06079322802D100F04B
:1040E00020FF04E06079332801D100F0B6FE00F033
:1040F000E1FA70BD70B504460D46012D13D1A078CC
:10410000312802D100F0DBFE0AE0A078322802D18B
:1041100000F007FF04E0A078332801D100F09DFEF5
:1041200000F07FFA14E0022D12D1A079312802D1DB
:1041300000F0C5FE0AE0A079322802D100F0F1FEBD
:1041400004E0A079332801D100F087FE00F069FA7D
:1041500070BD10B504464FF439703D494863C8201E
:1041600004F0D6F840F224403A49086040F2BF30EB
:10417000374988634FF4967004F0CAF840F28B30E8
:10418000324908604FF4FA7004F0C2F84FF44870F6
:104190002E49091D08604FF4967004F0B9F8207894
:1041A000312802D100F025FF0AE02078322802D120
:1041B00000F051FF04E02078332801D100F0E7FE41
:1041C00010BD10B5044600F041FB6078312802D1E3
:1041D00000F00FFF0AE06078322802D100F03BFFC8
:1041E00004E06078332801D100F0D1FE10BD10B595
:1041F000044600F0BFFAA078312802D100F0F9FEA1
:104200000AE0A078322802D100F025FF04E0A0786F
:10421000332801D100F0BBFE10BD10B504464FF4A9
:1042200039700B494863C82004F072F840F224400A
:104230000849086040F2BF30054988634FF4967022
:1042400004F066F840F28B30004905E03418004075
:10425000004001403444014008604FF4FA7004F01B
:1042600057F84FF44870544908604FF4967004F0C2
:104270004FF82079312802D100F0B3FF0AE020790D
:10428000322802D100F0DFFF04E02079332801D189
:1042900000F056FF10BD10B5044600F0D7FA607963
:1042A000312802D100F09DFF0AE06079322802D166
:1042B00000F0C9FF04E06079332801D100F040FF2D
:1042C00010BD10B5044600F055FAA079312802D18E
:1042D00000F087FF0AE0A079322802D100F0B3FF96
:1042E00004E0A079332801D100F02AFF10BD10B5F9
:1042F00004464FF4397031494863C82004F008F887
:1043000040F224402E49086040F2BF302B498863B8
:104310004FF4967003F0FCFF40F28B302649091FE2
:1043200008604FF4FA7003F0F3FF4FF4487022492D
:1043300008604FF4E17003F0EBFF2079312802D1DF
:1043400000F0FCFF0AE02079322802D101F03CF8AD
:1043500004E02079332801D100F0AAFF10BD10B588
:10436000044600F073FA6079312802D100F0E6FFCC
:104370000AE06079322802D101F026F804E0607981
:10438000332801D100F094FF10BD10B5044600F0B1
:10439000F1F9A079312802D100F0D0FF0AE0A0792C
:1043A000322802D101F010F804E0A079332801D1BD
:1043B00000F07EFF10BD00003818004000400140B2
:1043C0003444014070B505460E46344605E0FE48CB
:1043D0000460092003F09CFFE41EAC42F7D270BDDC
:1043E00070B505460E46344605E0F74804600920DE
:1043F00003F08EFFA41CAC42F7D970BD70B5054622
:104400000E46344605E0F0480460092003F080FFC2
:10441000A41CAC42F7D970BD70B505460E463446B3
:1044200005E0EA488463082003F072FFE41CAC4214
:10443000F7D970BD70B505460E46344605E0E44830
:1044400004600B2003F064FFA41CAC42F7D970BDDC
:1044500070B505460E46344605E0DB4804600C2086
:1044600003F056FFA41EAC42F7D270BD10B54FF456
:104470004870D5490860322003F04AFF40F26A4094
:10448000D3490860642003F043FF40F2523140F208
:104490009330FFF7B3FF4FF4617140F2A130FFF7A3
:1044A000BBFFC82003F034FF10BD10B540F2E6306A
:1044B000C549091D08604FF44870091F0860322083
:1044C00003F026FF40F26A40C1490860642003F00F
:1044D0001FFF40F2523140F28B30FFF78FFF4FF455
:1044E000617140F2A130FFF797FFC82003F010FF81
:1044F00010BD10B54FF44870B3490860322003F086
:1045000007FF40F22440B2490860642003F000FF36
:1045100040F2523140F29D30FFF770FF40F25231CD
:1045200040F2BF30FFF778FF10BD10B540F2962083
:10453000A6498863642003F0EBFE40F25230A249A2
:104540000860322003F0E4FE40F2523140F2BF3006
:10455000FFF762FF642003F0DBFE40F2523140F2CD
:104560009D30FFF74BFF40F224409949086010BD91
:1045700010B540F2BF30954988631E2003F0C8FE95
:1045800040F2244092490860462003F0C1FE40F208
:104590008B308D490860642003F0BAFE10BD10B561
:1045A00040F224408A49086040F2BF30874988635E
:1045B0004FF4967003F0ACFE40F28B3082490860F5
:1045C0004FF4FA7003F0A4FE4FF448707E49091DC1
:1045D00008604FF4967003F09BFE10BD10B54FF4C9
:1045E00016707A494863322003F092FE4FF4487007
:1045F00075490860642003F08BFE40F23A4074492C
:104600000860642003F084FE40F2523140F29D3095
:10461000FFF7F4FE4FF4617140F2A130FFF7FCFEAA
:1046200010BD10B56B4800886749091D08604FF43C
:10463000FA7003F06DFE684800886449886364205E
:1046400003F066FE654800885F490860642003F057
:104650005FFE40F2244162480088FFF7EBFE322003
:1046600003F056FE5F480088584948634FF496703F
:1046700003F04EFE40F224405549086040F2BF303E
:1046800052498863322003F043FE40F28B304E499A
:1046900008604FF4FA7003F03BFE4FF4D7704A49BC
:1046A000091D0860C82003F033FE4FF41670474917
:1046B000486310BD10B54C4800884349091D086087
:1046C0004FF4617003F024FE484800883F49886336
:1046D000962003F01DFE464800883B490860642090
:1046E00003F016FE40F2244142480088FFF7A2FE84
:1046F000322003F00DFE3B480088344948634FF4F4
:10470000967003F005FEFFF74AFF4FF416702F492D
:10471000486310BD10B5384800882B49091D086052
:104720004FF4487003F0F4FD34480088274988634B
:10473000642003F0EDFD32480088234908603220F0
:1047400003F0E6FD40F224412E480088FFF772FE98
:10475000322003F0DDFD234800881C4948634FF4F4
:10476000967003F0D5FDFFF71AFF4FF41670174946
:10477000486310BD10B51B480088144948631548AC
:1047800000881149091D08604FF42F7003F0C0FD27
:10479000114800880D498863322003F0B9FD0F48A5
:1047A000008809490860322003F0B2FD40F224413C
:1047B0000B480088FFF73EFE642003F0A9FD4FF48C
:1047C0003970024948631FE034180040004001403E
:1047D000344401409C010020960100209A010020F1
:1047E00098010020FE000020A40100209E0100206E
:1047F000A2010020A0010020AC010020A6010020A1
:10480000AA010020A80100204FF4967003F080FD5B
:1048100040F2BF30FE498863322003F079FD40F258
:104820002440FC490860322003F072FD40F28B30D6
:10483000F9490860322003F06BFD4FF4D770F64958
:10484000091D0860322003F063FD10BD10B5322051
:1048500003F05EFDF1480088ED494863F0480088A8
:10486000ED49091D08604FF4617003F051FDED48FA
:104870000088E7498863322003F04AFDEA4800884F
:10488000E5490860642003F043FD40F22441E74815
:104890000088FFF7CFFD322003F03AFD4FF4397066
:1048A000DB4948634FF4967003F032FDFFF777FE63
:1048B00010BD10B5D9480088D5494863DC48008848
:1048C000D549091D08604FF4617003F021FDD948F6
:1048D0000088CF498863322003F01AFDD64800884B
:1048E000CD490860642003F013FD40F22441D34811
:1048F0000088FFF79FFD322003F00AFD4FF4397066
:10490000C34948634FF4967003F002FDFFF747FE7A
:1049100010BD10B54FF41670BD49486340F20A400F
:10492000BC490860642003F0F3FC40F23640BA4909
:1049300008604FF4967003F0EBFC4FF4D770B64963
:10494000091D08604FF4FA7003F0E2FC40F2E24007
:10495000AF49886310BD10B540F2FD30AE49086024
:104960004FF4FA7003F0D4FC4FF4E070AA49091D2B
:1049700008604FF4FA7003F0CBFC4FF41670A449B2
:104980004863642003F0C4FC4FF46170A04988635D
:10499000C82003F0BDFC40F234409E49086040F25C
:1049A000C4409B49886310BD10B540F2B7109A49C6
:1049B000091D08604FF4487003F0AAFC40F2022180
:1049C00040F2EE20FFF70CFD4FF4967003F0A0FCD0
:1049D00040F20A408F4908604FF4487003F098FC99
:1049E00040F236408C4908604FF4487003F090FC68
:1049F00040F2E240864988634FF4FA7003F088FC85
:104A000010BD10B54FF41670814948634FF4E07043
:104A10008149091D0860142003F07AFC40F2E2404D
:104A20007B498863322003F073FC40F212407A49DC
:104A30000860322003F06CFC40F20A4075490860BF
:104A4000322003F065FC10BD10B54FF416707049AC
:104A5000486340F2C9107049091D086040F2944053
:104A60006B498863322003F053FC40F2B5306A4949
:104A70000860642003F04CFC40F20A40654908607D
:104A8000642003F045FC10BD10B56D4800886249F4
:104A9000091D08604FF4C87003F03AFC69480088AB
:104AA0005B498863322003F033FC4FF448705A4965
:104AB00008604FF4967003F02BFC6348008855495A
:104AC00008604FF4C87003F023FC40F2C6215F4831
:104AD0000088FFF777FC642003F01AFC4FF439706C
:104AE0004B494863C82003F013FCFFF7BFFC10BD1F
:104AF00010B5574800884849091D08604FF4C87030
:104B000003F006FC5348008841498863322003F0D3
:104B1000FFFB4FF44870404908604FF4967003F073
:104B2000F7FB4D4800883B4908604FF4967003F04E
:104B3000EFFB40F2C62149480088FFF743FC6420A0
:104B400003F0E6FB4FF43E7031494863C82003F0A0
:104B5000DFFBFFF78BFC10BD10B5414800882E49E4
:104B6000091D08604FF42F7003F0D2FB3D48008808
:104B700027498863322003F0CBFB4FF44870264965
:104B800008604FF4967003F0C3FB37480088214952
:104B900008604FF4967003F0BBFB40F2C621334827
:104BA0000088FFF70FFC642003F0B2FB4FF439706C
:104BB00017494863C82003F0ABFBFFF757FC10BD53
:104BC00010B52B4800881449091D08604FF49670F1
:104BD00003F09EFB274800880D498863C82003F036
:104BE00097FB4FF448700C490860C82003F090FB15
:104BF0002148008807490860C82003F089FB40F27B
:104C00008A211E480088FFF7DDFB642038E00000A1
:104C1000004001403444014034180040FE000020B0
:104C2000A40100209E010020A2010020A00100207C
:104C3000AC010020A6010020AA010020A80100204C
:104C400006010020000100200201002004010020D4
:104C50000E010020080100200A0100200C010020A4
:104C60001601002010010020120100201401002074
:104C70001E010020180100201A0100201C01002044
:104C800003F046FB10BD10B5FE480088FE490860E1
:104C90004FF4967003F03CFBFC480088FC498863A5
:104CA000C82003F035FB4FF44870F749091F08602E
:104CB000C82003F02DFBF7480088F7490860C8209A
:104CC00003F026FB40F28A21F4480088FFF77AFBC4
:104CD000642003F01DFB10BD10B5F1480088EA49BF
:104CE00008604FF4967003F013FBEE480088E84923
:104CF00088634FF4967003F00BFB4FF44870E24961
:104D0000091F08604FF4967003F002FBE648008824
:104D1000E1490860C82003F0FBFA40F28A21E34829
:104D20000088FFF74FFB642003F0F2FA10BD10B5C6
:104D3000DF480088D44908604FF4FA7003F0E8FABD
:104D4000DC480088D2498863322003F0E1FA4FF44E
:104D50004870CD49091F0860322003F0D9FAD648BF
:104D60000088CD490860322003F0D2FA4FF4487130
:104D7000D2480088FFF726FB322003F0C9FA4FF42F
:104D80001670C3494863C82003F0C2FAFFF7B1FBAD
:104D900010BD10B5CA480088BB4908604FF4FA70CE
:104DA00003F0B6FAC7480088B9498863322003F097
:104DB000AFFA4FF44870B449091F0860322003F07D
:104DC000A7FAC1480088B4490860322003F0A0FA6D
:104DD0004FF44871BD480088FFF7F4FA322003F021
:104DE00097FA4FF41670AA494863C82003F090FA66
:104DF000FFF77FFB10BD10B5B5480088A2490860D9
:104E00004FF4167003F084FAB2480088A049886312
:104E1000322003F07DFA4FF448709B49091F086067
:104E2000322003F075FAAC4800889B4908603220B4
:104E300003F06EFA4FF44871A8480088FFF7C2FAF1
:104E4000322003F065FA4FF4167091494863C82088
:104E500003F05EFAFFF74DFB10BD10B594480088D3
:104E6000894908604FF4167003F052FA914800889F
:104E700087498863322003F04BFA4FF44870824927
:104E8000091F0860142003F043FA8B480088824908
:104E90000860322003F03CFA4FF4487187480088DC
:104EA000FFF790FA322003F033FA4FF43970784963
:104EB0004863C82003F02CFAFFF71BFB10BD10B5A8
:104EC0007F480088704908604FF42F7003F020FA83
:104ED0007C4800886E498863322003F019FA4FF449
:104EE00048706949091F0860322003F011FA7648BA
:104EF000008869490860322003F00AFA4FF44871CB
:104F000072480088FFF75EFA322003F001FA4FF48E
:104F100039705F494863C82003F0FAF9FFF7E9FAEE
:104F200010BD10B56A480088574908604FF42F70CB
:104F300003F0EEF96748008855498863322003F092
:104F4000E7F94FF448705049091F0860322003F018
:104F5000DFF96148008850490860322003F0D8F931
:104F60004FF448715D480088FFF72CFA322003F0B7
:104F7000CFF94FF4397046494863C82003F0C8F9A7
:104F8000FFF7B7FA4FF4D7703F49086010BD10B56E
:104F9000534800883C4908604FF4FA7003F0B8F9B0
:104FA000504800883A498863642003F0B1F94FF40F
:104FB00048703549091F0860322003F0A9F94A48B2
:104FC000008835490860322003F0A2F94FF4487197
:104FD00046480088FFF7F6F9642003F099F94FF48A
:104FE00016702B494863C82003F092F9FFF781FA45
:104FF00010BD10B53E480088234908604FF4FA7090
:1050000003F086F93B48008821498863322003F089
:105010007FF94FF448701C49091F0860322003F0E3
:1050200077F9354800881C490860322003F070F990
:105030004FF4487131480088FFF7C4F9322003F07B
:1050400067F94FF4167012494863C82003F060F9FD
:10505000FFF74FFA10BD10B5294800880A490860CB
:105060004FF4FA7003F054F9264800880849886321
:10507000642003F04DF94FF448700349091F08609C
:10508000322041E026010020381800402001002095
:10509000004001402201002034440140240100204E
:1050A0002E010020280100202A0100202C010020D0
:1050B00036010020300100203201002034010020A0
:1050C0003E010020380100203A0100203C01002070
:1050D0004601002040010020420100204401002040
:1050E0004E010020480100204A0100204C01002010
:1050F00056010020500100205201002054010020E0
:105100005E0100205801002003F002F9FE480088EB
:10511000FE490860322003F0FBF84FF44871FC4868
:105120000088FFF74FF9642003F0F2F84FF416708F
:10513000F8494863C82003F0EBF8FFF7DAF910BD2F
:1051400010B5F5480088F54908604FF4FA7003F08F
:10515000DFF8F3480088EF498863322003F0D8F87D
:105160004FF44870ED49091F0860642003F0D0F83F
:10517000EC480088E5490860322003F0C9F84FF494
:105180004871E9480088FFF71DF9642003F0C0F872
:105190004FF41670DF494863C82003F0B9F84FF4A4
:1051A0004870DE49091F0860962003F0B1F840F20C
:1051B0006A40D6490860642003F0AAF840F25231F0
:1051C00040F2BE30FFF71AF9962003F0A1F84FF431
:1051D000617140F2A130FFF71FF9C82003F098F881
:1051E00010BD10B5D1480088CC4908604FF4167046
:1051F00003F08EF8CE480088C6498863322003F059
:1052000087F840F2EE20C549091F0860642003F0CA
:105210007FF8C8480088BD490860642003F078F82A
:1052200040F2EE21C4480088FFF7CCF8322003F0AA
:105230006FF84FF41670B7494863C82003F068F858
:10524000FFF714F910BD10B5BC480088B3490860D9
:105250004FF4FA7003F05CF8B9480088AD498863F0
:10526000322003F055F84FF44870AC49091F08602C
:10527000642003F04DF8322003F04AF8B14800886A
:10528000A2490860322003F043F84FF44871AE4859
:105290000088FFF797F8642003F03AF84FF416708F
:1052A0009C494863C82003F033F8FFF7DFF810BDCE
:1052B00010B5A6480088994908604FF4FA7003F0C9
:1052C00027F8A348008893498863322003F020F828
:1052D0004FF448709149091F0860642003F018F8E2
:1052E0009C48008889490860642003F011F840F266
:1052F000EE2199480088FFF7ABF8322003F008F858
:1053000096480088834948634FF4967003F000F88C
:1053100040F206208149091F08604FF4967002F0A0
:10532000F7FFC82002F0F4FF40F2CB207949486330
:10533000FA2002F0EDFFFFF751F910BD10B58848D3
:105340000088764908604FF4FA7002F0E1FF854862
:10535000008870498863322002F0DAFF4FF4487009
:105360006E49091F0860642002F0D2FF7E48008861
:1053700066490860642002F0CBFF40F2EE217B48D2
:105380000088FFF765F8322002F0C2FF78480088F5
:10539000604948634FF4967002F0BAFF4FF41B70F7
:1053A0005E49091F08604FF4967002F0B1FFC820F3
:1053B00002F0AEFF40F2CB2056494863FA2002F0DB
:1053C000A7FFFFF70BF910BD10B56A4800885349D5
:1053D00008604FF4FA7002F09BFF674800884D495F
:1053E0008863322002F094FF4FF448704B49091F44
:1053F0000860642002F08CFF604800884349086020
:10540000642002F085FF40F2EE215D480088FFF73E
:105410001FF8322002F07CFF5A4800883D4948635B
:105420004FF4967002F074FF40F249203B49091F87
:105430000860C82002F06CFF40F2CB203549486379
:10544000FA2002F065FFFFF7C9F810BD10B54E480D
:105450000088304948634D480088304908604FF45F
:105460002F7002F055FF4A4800882A49886332208D
:1054700002F04EFF474800882849091F0860322083
:1054800002F046FF40F2244143480088FEF7D2FF75
:10549000642002F03DFF10BD10B53B4800881D4957
:1054A00048633A4800881D4908604FF42F7002F0A5
:1054B0002FFF3748008817498863322002F028FF01
:1054C000344800881549091F0860322002F020FF87
:1054D00040F2244130480088FEF7ACFF642002F01F
:1054E00017FF10BD10B5284800880A4948632B48AB
:1054F00000880A4908604FF4617002F009FF2848EB
:105500000088044988634DE05A010020344401407A
:105510005C01002000400140660100203818004076
:105520006001002062010020640100206E01002063
:10553000680100206A0100206C0100207601002033
:105540007001002072010020740100208001002001
:105550007A0100207C0100207E01002078010020DB
:105560008A0100208401002086010020880100209B
:1055700082010020940100208E0100209001002073
:10558000920100208C010020FE0000209C010020E0
:10559000960100209A01002098010020AC01002013
:1055A000A6010020322002F0B3FE0A4800880A4912
:1055B0000860642002F0ACFE40F2244107480088F5
:1055C000FEF738FF322002F0A3FE10BD10B5FFF742
:1055D0003BFA10BDAA01002034180040A8010020A9
:1055E00030B5014601F01F04C1F34513CA0AE502B4
:1055F00005EB43151544A8B230BD2DE9F04706462A
:105600000F4690469A46002445464FEA4800C0F1AE
:1056100003094AE07A1991B2321990B2524600F069
:10562000D7FE7A1991B2321B90B2524600F0D0FEEA
:105630007A1B91B2321990B2524600F0C9FE7A1B21
:1056400091B2321B90B2524600F0C2FE3A1991B2AA
:10565000721990B2524600F0BBFE3A1991B2721B19
:1056600090B2524600F0B4FE3A1B91B2721990B259
:10567000524600F0ADFE3A1B91B2721B90B25246F8
:1056800000F0A6FEB9F1000F05DA042000FB04903B
:1056900000F1060907E0601B042101FB009000F106
:1056A0000A09681E85B2601C84B2AC42B2DBAC420F
:1056B00037D17A1991B2321990B2524600F088FE71
:1056C0007A1991B2321990B2524600F081FE7A1BDB
:1056D00091B2321990B2524600F07AFE7A1B91B222
:1056E000321B90B2524600F073FE3A1991B2721911
:1056F00090B2524600F06CFE3A1991B2721B90B211
:10570000524600F065FE3A1B91B2721990B25246B1
:1057100000F05EFE3A1B91B2721B90B2524600F04E
:1057200057FEBDE8F0872DE9FF4F83B080468946DC
:105730004946404600F042FE0598A0EB0805069851
:10574000A0EB0906002D02DB0120029003E04FF0E0
:10575000FF3002906D42002E02DB0120019003E039
:105760004FF0FF30019076424FEA450A4FEA460B70
:10577000B54219DDABEB0504002712E0494640466F
:10578000109A00F025FE002C05DBA4EB0A0401981A
:1057900048441FFA80F95C44029840441FFA80F89C
:1057A0007F1CAF42EADD18E0AAEB0604002712E0F6
:1057B00049464046109A00F00BFE002C05DBA4EB96
:1057C0000B04029840441FFA80F85444019848445E
:1057D0001FFA80F97F1CB742EADD07B0BDE8F08F01
:1057E0002DE9F84305460C4616461F46DDF8208095
:1057F0004EF67D700090A81982B2234621462846B5
:10580000FFF791FF42F6651004F1010CBC441FFA4A
:105810008CF305EB060CACF1010C1FFA8CF204F1D1
:10582000010C1FFA8CF105EB060CACF1010C009099
:105830001FFA8CF0FFF777FF42F665100090E01931
:1058400083B2A81982B2E01981B22846FFF76BFF34
:105850004EF67D700090E01983B22A462146284614
:10586000FFF761FF04F1010CBC44ACF1020C1FFA1C
:105870008CF305F1010CB444ACF1020C1FFA8CF26C
:1058800004F1010C1FFA8CF105F1010C1FFA8CF0E8
:10589000CDF80080FFF747FFBDE8F8832DE9F84316
:1058A00005460C4616461F46DDF82080B8F1000F6D
:1058B00039D14EF67D700090A81982B22346214658
:1058C0002846FFF730FF42F6651004F1010CBC4496
:1058D0001FFA8CF305EB060CACF1010C1FFA8CF2ED
:1058E00004F1010C1FFA8CF105EB060CACF1010C74
:1058F00000901FFA8CF0FFF716FF42F6651000903B
:10590000E01983B2A81982B2E01981B22846FFF7E4
:105910000AFF4EF67D700090E01983B22A462146B8
:105920002846FFF700FFB8F1010F39D142F66510A4
:105930000090A81982B2234621462846FFF7F3FEBD
:105940004EF67D7004F1010CBC441FFA8CF305EB9C
:10595000060CACF1010C1FFA8CF204F1010C1FFAD9
:105960008CF105EB060CACF1010C00901FFA8CF0E9
:10597000FFF7D9FE4EF67D700090E01983B2A819AA
:1059800082B2E01981B22846FFF7CDFE42F66510DB
:105990000090E01983B22A4621462846FFF7C3FE4D
:1059A000B8F1020F39D14FF6FF700090A81982B2FA
:1059B000234621462846FFF7B6FE4FF6FF7004F156
:1059C000010CBC441FFA8CF305EB060CACF1010C86
:1059D0001FFA8CF204F1010C1FFA8CF105EB060C96
:1059E000ACF1010C00901FFA8CF0FFF79CFE4FF613
:1059F000FF700090E01983B2A81982B2E01981B259
:105A00002846FFF790FE4FF6FF700090E01983B232
:105A10002A4621462846FFF786FEBDE8F883F8B5FA
:105A200004460D4616461F4644F208202B463246D1
:105A3000294600902046FFF776FE48F210406A1C87
:105A400093B291B2621C009090B23246FFF76BFEA7
:105A500044F208203B462246294600902046FFF7A4
:105A600062FE48F21040631C9AB26B1C99B2631C30
:105A7000009098B23B46FFF756FE4FF6FF703B464C
:105A80003246394600902046FFF74DFE4FF6FF7034
:105A90003B463246294600903046FFF744FEF8BDAB
:105AA000F8B506460F4614461D464FF6FF703B46B6
:105AB0002246394600903046FFF735FE4FF6FF701C
:105AC0002B463246394600903046FFF72CFE48F20E
:105AD00010406A1E93B291B2721C009090B222469E
